{
  "contractName": "admin_Storage",
  "abi": [
    {
      "constant": true,
      "inputs": [
        {
          "name": "",
          "type": "address"
        }
      ],
      "name": "_admins",
      "outputs": [
        {
          "name": "active",
          "type": "bool"
        }
      ],
      "payable": false,
      "stateMutability": "view",
      "type": "function"
    },
    {
      "constant": true,
      "inputs": [
        {
          "name": "",
          "type": "address"
        }
      ],
      "name": "contracts_adresses",
      "outputs": [
        {
          "name": "name_contract",
          "type": "string"
        },
        {
          "name": "abi",
          "type": "string"
        }
      ],
      "payable": false,
      "stateMutability": "view",
      "type": "function"
    },
    {
      "inputs": [
        {
          "name": "_token_address",
          "type": "address"
        }
      ],
      "payable": false,
      "stateMutability": "nonpayable",
      "type": "constructor"
    }
  ],
  "bytecode": "0x608060405234801561001057600080fd5b506040516020806103808339810180604052602081101561003057600080fd5b505061033f806100416000396000f3fe60806040526004361061004b5763ffffffff7c01000000000000000000000000000000000000000000000000000000006000350416630d5e20538114610050578063bc33e8ef146100a4575b600080fd5b34801561005c57600080fd5b506100906004803603602081101561007357600080fd5b503573ffffffffffffffffffffffffffffffffffffffff166101c2565b604080519115158252519081900360200190f35b3480156100b057600080fd5b506100e4600480360360208110156100c757600080fd5b503573ffffffffffffffffffffffffffffffffffffffff166101d7565b604051808060200180602001838103835285818151815260200191508051906020019080838360005b8381101561012557818101518382015260200161010d565b50505050905090810190601f1680156101525780820380516001836020036101000a031916815260200191505b50838103825284518152845160209182019186019080838360005b8381101561018557818101518382015260200161016d565b50505050905090810190601f1680156101b25780820380516001836020036101000a031916815260200191505b5094505050505060405180910390f35b60016020526000908152604090205460ff1681565b6000602081815291815260409081902080548251601f60026000196101006001861615020190931692909204918201859004850281018501909352808352909283919083018282801561026b5780601f106102405761010080835404028352916020019161026b565b820191906000526020600020905b81548152906001019060200180831161024e57829003601f168201915b505050505090806001018054600181600116156101000203166002900480601f0160208091040260200160405190810160405280929190818152602001828054600181600116156101000203166002900480156103095780601f106102de57610100808354040283529160200191610309565b820191906000526020600020905b8154815290600101906020018083116102ec57829003601f168201915b505050505090508256fea165627a7a72305820bb9eba7ca52ac05abeac3765ba87588a89b081ffb6c9ae414977683cc80586070029",
  "source": "pragma solidity ^0.5.0;\nimport \"./interface/admin-interface.sol\";\nimport \"./implementation/basic-admin.sol\";\nimport \"../tokens/token.sol\";\n\ncontract admin_Storage{\n  /*using SafeMath for uint256;*/\n// store all config data here\n    struct admin_storage {\n        string name_contract ; // filename of contract\n        string abi; //abi for contract\n\n    }\n    mapping (address => admin_storage) public contracts_adresses;\n\n     constructor(address _token_address) public {\n        address owner = msg.sender;\n        address beneficiar = msg.sender;\n        address token_address = _token_address;\n      }\n//setting of valuees-----------------------------------------------------------\n\n\n      struct Admin {\n        bool active;\n      }\n\n      mapping (address => Admin) public _admins;\n    //==============================================================================\n\n\n}\n",
  "sourcePath": "/home/sergey/Documents/angels/Angeles.VC-token-scrum-investing/contracts/admin/admin_storage.sol",
  "compiler": {
    "name": "solc",
    "version": "0.5.0+commit.1d4f565a.Emscripten.clang"
  },
  "schemaVersion": "3.0.2",
  "updatedAt": "2019-03-26T11:37:43.487Z",
  "devdoc": {
    "methods": {}
  },
  "userdoc": {
    "methods": {}
  }
}