{
  "contractName": "Administratable",
  "abi": [
    {
      "constant": true,
      "inputs": [],
      "name": "totalAdminsMapping",
      "outputs": [
        {
          "name": "",
          "type": "uint256"
        }
      ],
      "payable": false,
      "stateMutability": "view",
      "type": "function"
    },
    {
      "constant": true,
      "inputs": [
        {
          "name": "",
          "type": "uint256"
        }
      ],
      "name": "adminsForIndex",
      "outputs": [
        {
          "name": "",
          "type": "address"
        }
      ],
      "payable": false,
      "stateMutability": "view",
      "type": "function"
    },
    {
      "constant": true,
      "inputs": [
        {
          "name": "",
          "type": "address"
        }
      ],
      "name": "admins",
      "outputs": [
        {
          "name": "",
          "type": "bool"
        }
      ],
      "payable": false,
      "stateMutability": "view",
      "type": "function"
    },
    {
      "constant": false,
      "inputs": [
        {
          "name": "newowner",
          "type": "address"
        }
      ],
      "name": "ownable",
      "outputs": [],
      "payable": false,
      "stateMutability": "nonpayable",
      "type": "function"
    },
    {
      "constant": true,
      "inputs": [],
      "name": "owner",
      "outputs": [
        {
          "name": "",
          "type": "address"
        }
      ],
      "payable": false,
      "stateMutability": "view",
      "type": "function"
    },
    {
      "constant": true,
      "inputs": [],
      "name": "totalSuperAdminsMapping",
      "outputs": [
        {
          "name": "",
          "type": "uint256"
        }
      ],
      "payable": false,
      "stateMutability": "view",
      "type": "function"
    },
    {
      "constant": true,
      "inputs": [
        {
          "name": "",
          "type": "address"
        }
      ],
      "name": "superAdmins",
      "outputs": [
        {
          "name": "",
          "type": "bool"
        }
      ],
      "payable": false,
      "stateMutability": "view",
      "type": "function"
    },
    {
      "constant": true,
      "inputs": [
        {
          "name": "",
          "type": "uint256"
        }
      ],
      "name": "superAdminsForIndex",
      "outputs": [
        {
          "name": "",
          "type": "address"
        }
      ],
      "payable": false,
      "stateMutability": "view",
      "type": "function"
    },
    {
      "constant": false,
      "inputs": [
        {
          "name": "newOwner",
          "type": "address"
        }
      ],
      "name": "transferOwnership",
      "outputs": [],
      "payable": false,
      "stateMutability": "nonpayable",
      "type": "function"
    },
    {
      "anonymous": false,
      "inputs": [
        {
          "indexed": true,
          "name": "admin",
          "type": "address"
        }
      ],
      "name": "AddAdmin",
      "type": "event"
    },
    {
      "anonymous": false,
      "inputs": [
        {
          "indexed": true,
          "name": "admin",
          "type": "address"
        }
      ],
      "name": "RemoveAdmin",
      "type": "event"
    },
    {
      "anonymous": false,
      "inputs": [
        {
          "indexed": true,
          "name": "admin",
          "type": "address"
        }
      ],
      "name": "AddSuperAdmin",
      "type": "event"
    },
    {
      "anonymous": false,
      "inputs": [
        {
          "indexed": true,
          "name": "admin",
          "type": "address"
        }
      ],
      "name": "RemoveSuperAdmin",
      "type": "event"
    },
    {
      "anonymous": false,
      "inputs": [
        {
          "indexed": false,
          "name": "previousOwner",
          "type": "address"
        },
        {
          "indexed": false,
          "name": "newOwner",
          "type": "address"
        }
      ],
      "name": "OwnershipTransferred",
      "type": "event"
    },
    {
      "constant": false,
      "inputs": [
        {
          "name": "admin",
          "type": "address"
        }
      ],
      "name": "addSuperAdmin",
      "outputs": [],
      "payable": false,
      "stateMutability": "nonpayable",
      "type": "function"
    },
    {
      "constant": false,
      "inputs": [
        {
          "name": "admin",
          "type": "address"
        }
      ],
      "name": "removeSuperAdmin",
      "outputs": [],
      "payable": false,
      "stateMutability": "nonpayable",
      "type": "function"
    },
    {
      "constant": false,
      "inputs": [
        {
          "name": "admin",
          "type": "address"
        }
      ],
      "name": "addAdmin",
      "outputs": [],
      "payable": false,
      "stateMutability": "nonpayable",
      "type": "function"
    },
    {
      "constant": false,
      "inputs": [
        {
          "name": "admin",
          "type": "address"
        }
      ],
      "name": "removeAdmin",
      "outputs": [],
      "payable": false,
      "stateMutability": "nonpayable",
      "type": "function"
    }
  ],
  "bytecode": "0x608060405234801561001057600080fd5b506107cc806100206000396000f3fe6080604052600436106100c45763ffffffff7c01000000000000000000000000000000000000000000000000000000006000350416630489882e81146100c95780631785f53c146100f0578063313f2a2114610125578063429b62e51461016b5780634902e4aa146101b257806364a04b59146101e557806370480275146102185780638da5cb5b1461024b578063abf7b06314610260578063ad25cb4214610275578063b3292ff0146102a8578063c3894398146102db578063f2fde38b14610305575b600080fd5b3480156100d557600080fd5b506100de610338565b60408051918252519081900360200190f35b3480156100fc57600080fd5b506101236004803603602081101561011357600080fd5b5035600160a060020a031661033e565b005b34801561013157600080fd5b5061014f6004803603602081101561014857600080fd5b50356103ca565b60408051600160a060020a039092168252519081900360200190f35b34801561017757600080fd5b5061019e6004803603602081101561018e57600080fd5b5035600160a060020a03166103e5565b604080519115158252519081900360200190f35b3480156101be57600080fd5b50610123600480360360208110156101d557600080fd5b5035600160a060020a03166103fa565b3480156101f157600080fd5b506101236004803603602081101561020857600080fd5b5035600160a060020a031661045f565b34801561022457600080fd5b506101236004803603602081101561023b57600080fd5b5035600160a060020a0316610487565b34801561025757600080fd5b5061014f6105a1565b34801561026c57600080fd5b506100de6105b0565b34801561028157600080fd5b5061019e6004803603602081101561029857600080fd5b5035600160a060020a03166105b6565b3480156102b457600080fd5b50610123600480360360208110156102cb57600080fd5b5035600160a060020a03166105cb565b3480156102e757600080fd5b5061014f600480360360208110156102fe57600080fd5b50356106bf565b34801561031157600080fd5b506101236004803603602081101561032857600080fd5b5035600160a060020a03166106da565b60015481565b6103466105a1565b600160a060020a031633600160a060020a03161415801561037757503360009081526006602052604090205460ff16155b1561038157600080fd5b600160a060020a038116600081815260056020526040808220805460ff19169055517f753f40ca3312b2408759a67875b367955e7baa221daf08aa3d643d96202ac12b9190a250565b600360205260009081526040902054600160a060020a031681565b60056020526000908152604090205460ff1681565b6104026105a1565b600160a060020a0316331461041657600080fd5b600160a060020a038116600081815260066020526040808220805460ff19169055517f1aaaaf7609619e631f47eb3546f9fdd8c61b1af2175988a0ddb9a06680c3b9ed9190a250565b6104676105a1565b600160a060020a0316331461047b57600080fd5b6104848161075b565b50565b61048f6105a1565b600160a060020a031633600160a060020a0316141580156104c057503360009081526006602052604090205460ff16155b156104ca57600080fd5b600160a060020a0381166000908152600560209081526040808320805460ff19166001179055600790915290205460ff16151561056a57600160a060020a0381166000818152600760209081526040808320805460ff19166001908117909155805484526003909252909120805473ffffffffffffffffffffffffffffffffffffffff191690921790915580546105669163ffffffff61078a16565b6001555b604051600160a060020a038216907fad6de4452a631e641cb59902236607946ce9272b9b981f2f80e8d129cb9084ba90600090a250565b600054600160a060020a031690565b60025481565b60066020526000908152604090205460ff1681565b6105d36105a1565b600160a060020a031633146105e757600080fd5b600160a060020a0381166000908152600660209081526040808320805460ff19166001179055600890915290205460ff16151561068857600160a060020a0381166000818152600860209081526040808320805460ff1916600190811790915560028054855260049093529220805473ffffffffffffffffffffffffffffffffffffffff191690931790925590546106849163ffffffff61078a16565b6002555b604051600160a060020a038216907ffba24c034afca607a35e1f221b154b3f8e1f88c7924c8a0a06755b70708c44d890600090a250565b600460205260009081526040902054600160a060020a031681565b6106e26105a1565b600160a060020a031633146106f657600080fd5b600160a060020a038116151561070b57600080fd5b7f8be0079c531659141344cd1fd0a4f28419497f9722a3daafe3b4186f6b6457e06107346105a1565b60408051600160a060020a03928316815291841660208301528051918290030190a1610484815b6000805473ffffffffffffffffffffffffffffffffffffffff1916600160a060020a0392909216919091179055565b60008282018381101561079957fe5b939250505056fea165627a7a72305820517fa87d921e877cfa6cb18a04a8ad8b60d1db673a97e9f138a67ca0367dd5280029",
  "source": "pragma solidity ^0.5.0;\n\nimport \"./Ownable.sol\";\nimport \"../libraries/SafeMath.sol\";\n\ncontract Administratable is Ownable {\n  using SafeMath for uint256;\n\n  uint256 public totalAdminsMapping;\n  uint256 public totalSuperAdminsMapping;\n  mapping (uint256 => address) public adminsForIndex;\n  mapping (uint256 => address) public superAdminsForIndex;\n  mapping (address => bool) public admins;\n  mapping (address => bool) public superAdmins;\n  mapping (address => bool) processedAdmin;\n  mapping (address => bool) processedSuperAdmin;\n\n  event AddAdmin(address indexed admin);\n  event RemoveAdmin(address indexed admin);\n  event AddSuperAdmin(address indexed admin);\n  event RemoveSuperAdmin(address indexed admin);\n\n  modifier onlyAdmins  {\n    if ((msg.sender != owner() ) && (!superAdmins[msg.sender]) && (!admins[msg.sender])) revert();\n    _;\n  }\n\n  modifier onlySuperAdmins {\n    if ((msg.sender != owner()) &&  (!superAdmins[msg.sender])) revert();\n    _;\n  }\n\n  function addSuperAdmin(address admin) public onlyOwner {\n    superAdmins[admin] = true;\n    if (!processedSuperAdmin[admin]) {\n      processedSuperAdmin[admin] = true;\n      superAdminsForIndex[totalSuperAdminsMapping] = admin;\n      totalSuperAdminsMapping = totalSuperAdminsMapping.add(1);\n    }\n\n    emit AddSuperAdmin(admin);\n  }\n\n  function removeSuperAdmin(address admin) public onlyOwner {\n    superAdmins[admin] = false;\n\n    emit RemoveSuperAdmin(admin);\n  }\n\n  function addAdmin(address admin) public onlySuperAdmins {\n    admins[admin] = true;\n    if (!processedAdmin[admin]) {\n      processedAdmin[admin] = true;\n      adminsForIndex[totalAdminsMapping] = admin;\n      totalAdminsMapping = totalAdminsMapping.add(1);\n    }\n\n    emit  AddAdmin(admin);\n  }\n\n  function removeAdmin(address admin) public onlySuperAdmins {\n    admins[admin] = false;\n\n    emit RemoveAdmin(admin);\n  }\n}",
  "sourcePath": "/home/sergey/Documents/angels/Angeles.VC-token-scrum-investing/contracts/admin/administratable.sol",
  "compiler": {
    "name": "solc",
    "version": "0.5.0+commit.1d4f565a.Emscripten.clang"
  },
  "schemaVersion": "3.0.2",
  "updatedAt": "2019-03-26T11:37:43.489Z",
  "devdoc": {
    "methods": {
      "ownable(address)": {
        "details": "The constructor sets the original owner of the contract to the sender account."
      },
      "owner()": {
        "details": "Tells the address of the owner",
        "return": "the address of the owner"
      },
      "transferOwnership(address)": {
        "details": "Allows the current owner to transfer control of the contract to a newOwner.",
        "params": {
          "newOwner": "The address to transfer ownership to."
        }
      }
    }
  },
  "userdoc": {
    "methods": {}
  }
}