{
  "contractName": "Administratable",
  "abi": [
    {
      "constant": false,
      "inputs": [
        {
          "name": "msgSender",
          "type": "address"
        }
      ],
      "name": "checkAdmin",
      "outputs": [
        {
          "name": "",
          "type": "bool"
        }
      ],
      "payable": false,
      "stateMutability": "nonpayable",
      "type": "function"
    },
    {
      "constant": false,
      "inputs": [
        {
          "name": "msgSender",
          "type": "address"
        }
      ],
      "name": "checkSuperAdmin",
      "outputs": [
        {
          "name": "",
          "type": "bool"
        }
      ],
      "payable": false,
      "stateMutability": "nonpayable",
      "type": "function"
    },
    {
      "constant": false,
      "inputs": [
        {
          "name": "_sender_address",
          "type": "address"
        }
      ],
      "name": "check_owner",
      "outputs": [
        {
          "name": "",
          "type": "bool"
        }
      ],
      "payable": false,
      "stateMutability": "nonpayable",
      "type": "function"
    },
    {
      "constant": false,
      "inputs": [
        {
          "name": "BasicAdministratableaddr",
          "type": "address"
        }
      ],
      "name": "_initAdministratable",
      "outputs": [],
      "payable": false,
      "stateMutability": "nonpayable",
      "type": "function"
    }
  ],
  "bytecode": "0x608060405234801561001057600080fd5b5061032a806100206000396000f3fe6080604052600436106100615763ffffffff7c01000000000000000000000000000000000000000000000000000000006000350416630c3504c9811461006657806342716730146100ad5780639026dee8146100e2578063a1d658b114610115575b600080fd5b34801561007257600080fd5b506100996004803603602081101561008957600080fd5b5035600160a060020a0316610148565b604080519115158252519081900360200190f35b3480156100b957600080fd5b506100e0600480360360208110156100d057600080fd5b5035600160a060020a03166101e5565b005b3480156100ee57600080fd5b506100996004803603602081101561010557600080fd5b5035600160a060020a0316610228565b34801561012157600080fd5b506100996004803603602081101561013857600080fd5b5035600160a060020a0316610293565b600254604080517f0c3504c9000000000000000000000000000000000000000000000000000000008152600160a060020a03848116600483015291516000939290921691630c3504c99160248082019260209290919082900301818787803b1580156101b357600080fd5b505af11580156101c7573d6000803e3d6000fd5b505050506040513d60208110156101dd57600080fd5b505192915050565b6101ee33610148565b15156101f957600080fd5b6002805473ffffffffffffffffffffffffffffffffffffffff1916600160a060020a0392909216919091179055565b600254604080517f9026dee8000000000000000000000000000000000000000000000000000000008152600160a060020a03848116600483015291516000939290921691639026dee89160248082019260209290919082900301818787803b1580156101b357600080fd5b600254604080517fa1d658b1000000000000000000000000000000000000000000000000000000008152600160a060020a0384811660048301529151600093929092169163a1d658b19160248082019260209290919082900301818787803b1580156101b357600080fdfea165627a7a723058208181f9e4bb4f21deb037ff6e21406d5d92e59efebf7127f288a8c210f179852e0029",
  "source": "pragma solidity ^0.5.0;\n\nimport \"./admin-interface.sol\";\n\n//import \"../interface/administratable.sol\";\n//import \"../../libraries/SafeMath.sol\";\n// import \"./ExternalStorage.sol\";\n\ncontract Administratable is admin {\n\n  address Basic_Administratable_addr;\n  address  External_Storage_addr;\n  Administratable BA_;\n\n  modifier onlyAdmins  (address msgSender)  {\n    if (checkAdmin(msgSender)) revert();\n    _;\n  }\n\n  modifier onlySuperAdmins (address msgSender) {\n    if (checkSuperAdmin(msgSender)) revert();\n    _;\n  }\n\n  function checkAdmin (address msgSender) public returns (bool)\n  {\n      return BA_.checkAdmin(msgSender);\n  }\n\n  function checkSuperAdmin (address msgSender) public returns (bool)\n  {\n    return BA_.checkSuperAdmin(msgSender);\n\n  }\n\n  modifier onlyOwner() {\n    require (check_owner (msg.sender));\n    _;\n  }\n\n  modifier onlyOwnerEx (address _sender_address) {\n    require(check_owner(_sender_address));\n    _;\n\n      }\n\n    function check_owner (address _sender_address) public returns(bool)\n  {\n        return BA_.check_owner(_sender_address);\n  }\n\n\n/*\n\n         function _initExternalStorage(address Externalstorageaddr) public onlyAdmins (msg.sender) {\n\n        External_Storage_addr = Externalstorageaddr;\n        ExternalStorage ES = ExternalStorage(External_Storage_addr);\n        ES.setAddressValue(\"admin/interface/administratable\", address(this));\n        load_conditions_ES();\n\n\n    }\n\n     function load_conditions_ES () public onlyAdmins (msg.sender) { //when something changes\n        ExternalStorage ES = ExternalStorage(External_Storage_addr);\n        //Projectaddr = ES.getAddressValue(\"scruminvest/project\");\n        Basic_Administratable_addr = ES.getAddressValue('admin/implementation/basic-administratable');\n       BA_ = Administratable(Basic_Administratable_addr);\n     }\n*/\n\n   function _initAdministratable (address BasicAdministratableaddr) public onlyOwner { // deployed address of admin/implementation/basic-administratable.sol\n\n          BA_ = Administratable(BasicAdministratableaddr);\n     }\n}",
  "sourcePath": "/home/sergey/Documents/angels/2083nointerfaces/Angeles.VC-token-scrum-investing/contracts/admin/interface/administratable.sol",
  "compiler": {
    "name": "solc",
    "version": "0.5.0+commit.1d4f565a.Emscripten.clang"
  },
  "schemaVersion": "3.0.2",
  "updatedAt": "2019-03-30T13:34:15.364Z",
  "devdoc": {
    "methods": {}
  },
  "userdoc": {
    "methods": {}
  }
}