{
  "contractName": "Administratable",
  "abi": [
    {
      "constant": true,
      "inputs": [],
      "name": "totalAdminsMapping",
      "outputs": [
        {
          "name": "",
          "type": "uint256"
        }
      ],
      "payable": false,
      "stateMutability": "view",
      "type": "function",
      "signature": "0x0489882e"
    },
    {
      "constant": true,
      "inputs": [
        {
          "name": "",
          "type": "uint256"
        }
      ],
      "name": "adminsForIndex",
      "outputs": [
        {
          "name": "",
          "type": "address"
        }
      ],
      "payable": false,
      "stateMutability": "view",
      "type": "function",
      "signature": "0x313f2a21"
    },
    {
      "constant": true,
      "inputs": [
        {
          "name": "",
          "type": "address"
        }
      ],
      "name": "admins",
      "outputs": [
        {
          "name": "",
          "type": "bool"
        }
      ],
      "payable": false,
      "stateMutability": "view",
      "type": "function",
      "signature": "0x429b62e5"
    },
    {
      "constant": true,
      "inputs": [],
      "name": "totalSuperAdminsMapping",
      "outputs": [
        {
          "name": "",
          "type": "uint256"
        }
      ],
      "payable": false,
      "stateMutability": "view",
      "type": "function",
      "signature": "0xabf7b063"
    },
    {
      "constant": true,
      "inputs": [
        {
          "name": "",
          "type": "address"
        }
      ],
      "name": "superAdmins",
      "outputs": [
        {
          "name": "",
          "type": "bool"
        }
      ],
      "payable": false,
      "stateMutability": "view",
      "type": "function",
      "signature": "0xad25cb42"
    },
    {
      "constant": true,
      "inputs": [
        {
          "name": "",
          "type": "uint256"
        }
      ],
      "name": "superAdminsForIndex",
      "outputs": [
        {
          "name": "",
          "type": "address"
        }
      ],
      "payable": false,
      "stateMutability": "view",
      "type": "function",
      "signature": "0xc3894398"
    },
    {
      "inputs": [],
      "payable": false,
      "stateMutability": "nonpayable",
      "type": "constructor",
      "signature": "constructor"
    },
    {
      "anonymous": false,
      "inputs": [
        {
          "indexed": true,
          "name": "admin",
          "type": "address"
        }
      ],
      "name": "AddAdmin",
      "type": "event",
      "signature": "0xad6de4452a631e641cb59902236607946ce9272b9b981f2f80e8d129cb9084ba"
    },
    {
      "anonymous": false,
      "inputs": [
        {
          "indexed": true,
          "name": "admin",
          "type": "address"
        }
      ],
      "name": "RemoveAdmin",
      "type": "event",
      "signature": "0x753f40ca3312b2408759a67875b367955e7baa221daf08aa3d643d96202ac12b"
    },
    {
      "anonymous": false,
      "inputs": [
        {
          "indexed": true,
          "name": "admin",
          "type": "address"
        }
      ],
      "name": "AddSuperAdmin",
      "type": "event",
      "signature": "0xfba24c034afca607a35e1f221b154b3f8e1f88c7924c8a0a06755b70708c44d8"
    },
    {
      "anonymous": false,
      "inputs": [
        {
          "indexed": true,
          "name": "admin",
          "type": "address"
        }
      ],
      "name": "RemoveSuperAdmin",
      "type": "event",
      "signature": "0x1aaaaf7609619e631f47eb3546f9fdd8c61b1af2175988a0ddb9a06680c3b9ed"
    },
    {
      "anonymous": false,
      "inputs": [
        {
          "indexed": false,
          "name": "previousOwner",
          "type": "address"
        },
        {
          "indexed": false,
          "name": "newOwner",
          "type": "address"
        }
      ],
      "name": "OwnershipTransferred",
      "type": "event",
      "signature": "0x8be0079c531659141344cd1fd0a4f28419497f9722a3daafe3b4186f6b6457e0"
    },
    {
      "constant": false,
      "inputs": [
        {
          "name": "msgSender",
          "type": "address"
        }
      ],
      "name": "checkAdmin",
      "outputs": [
        {
          "name": "",
          "type": "bool"
        }
      ],
      "payable": false,
      "stateMutability": "nonpayable",
      "type": "function",
      "signature": "0x9026dee8"
    },
    {
      "constant": false,
      "inputs": [
        {
          "name": "msgSender",
          "type": "address"
        }
      ],
      "name": "checkSuperAdmin",
      "outputs": [
        {
          "name": "",
          "type": "bool"
        }
      ],
      "payable": false,
      "stateMutability": "nonpayable",
      "type": "function",
      "signature": "0xa1d658b1"
    },
    {
      "constant": false,
      "inputs": [
        {
          "name": "admin",
          "type": "address"
        }
      ],
      "name": "addSuperAdmin",
      "outputs": [],
      "payable": false,
      "stateMutability": "nonpayable",
      "type": "function",
      "signature": "0xb3292ff0"
    },
    {
      "constant": false,
      "inputs": [
        {
          "name": "admin",
          "type": "address"
        }
      ],
      "name": "removeSuperAdmin",
      "outputs": [],
      "payable": false,
      "stateMutability": "nonpayable",
      "type": "function",
      "signature": "0x4902e4aa"
    },
    {
      "constant": false,
      "inputs": [
        {
          "name": "admin",
          "type": "address"
        }
      ],
      "name": "addAdmin",
      "outputs": [],
      "payable": false,
      "stateMutability": "nonpayable",
      "type": "function",
      "signature": "0x70480275"
    },
    {
      "constant": false,
      "inputs": [
        {
          "name": "admin",
          "type": "address"
        }
      ],
      "name": "removeAdmin",
      "outputs": [],
      "payable": false,
      "stateMutability": "nonpayable",
      "type": "function",
      "signature": "0x1785f53c"
    },
    {
      "constant": false,
      "inputs": [
        {
          "name": "newowner",
          "type": "address"
        }
      ],
      "name": "ownable",
      "outputs": [],
      "payable": false,
      "stateMutability": "nonpayable",
      "type": "function",
      "signature": "0x64a04b59"
    },
    {
      "constant": false,
      "inputs": [
        {
          "name": "_sender_address",
          "type": "address"
        }
      ],
      "name": "check_owner",
      "outputs": [
        {
          "name": "",
          "type": "bool"
        }
      ],
      "payable": false,
      "stateMutability": "nonpayable",
      "type": "function",
      "signature": "0x0c3504c9"
    },
    {
      "constant": false,
      "inputs": [
        {
          "name": "newOwner",
          "type": "address"
        }
      ],
      "name": "transferOwnership",
      "outputs": [],
      "payable": false,
      "stateMutability": "nonpayable",
      "type": "function",
      "signature": "0xf2fde38b"
    },
    {
      "constant": true,
      "inputs": [],
      "name": "owner",
      "outputs": [
        {
          "name": "",
          "type": "address"
        }
      ],
      "payable": false,
      "stateMutability": "view",
      "type": "function",
      "signature": "0x8da5cb5b"
    }
  ],
  "bytecode": "0x608060405234801561001057600080fd5b50336000818152600460209081526040808320805460ff199081166001908117909255600584528285208054821683179055600684528285208054821683179055600790935292208054909116909117905560088054600160a060020a03191690911790556108e0806100846000396000f3fe6080604052600436106100e55763ffffffff7c01000000000000000000000000000000000000000000000000000000006000350416630489882e81146100ea5780630c3504c9146101115780631785f53c14610158578063313f2a211461018d578063429b62e5146101d35780634902e4aa1461020657806364a04b5914610239578063704802751461026c5780638da5cb5b1461029f5780639026dee8146102b4578063a1d658b1146102e7578063abf7b0631461031a578063ad25cb421461032f578063b3292ff014610362578063c389439814610395578063f2fde38b146103bf575b600080fd5b3480156100f657600080fd5b506100ff6103f2565b60408051918252519081900360200190f35b34801561011d57600080fd5b506101446004803603602081101561013457600080fd5b5035600160a060020a03166103f8565b604080519115158252519081900360200190f35b34801561016457600080fd5b5061018b6004803603602081101561017b57600080fd5b5035600160a060020a031661041c565b005b34801561019957600080fd5b506101b7600480360360208110156101b057600080fd5b503561047a565b60408051600160a060020a039092168252519081900360200190f35b3480156101df57600080fd5b50610144600480360360208110156101f657600080fd5b5035600160a060020a0316610495565b34801561021257600080fd5b5061018b6004803603602081101561022957600080fd5b5035600160a060020a03166104aa565b34801561024557600080fd5b5061018b6004803603602081101561025c57600080fd5b5035600160a060020a0316610507565b34801561027857600080fd5b5061018b6004803603602081101561028f57600080fd5b5035600160a060020a0316610527565b3480156102ab57600080fd5b506101b7610611565b3480156102c057600080fd5b50610144600480360360208110156102d757600080fd5b5035600160a060020a0316610620565b3480156102f357600080fd5b506101446004803603602081101561030a57600080fd5b5035600160a060020a031661068f565b34801561032657600080fd5b506100ff6106d5565b34801561033b57600080fd5b506101446004803603602081101561035257600080fd5b5035600160a060020a03166106db565b34801561036e57600080fd5b5061018b6004803603602081101561038557600080fd5b5035600160a060020a03166106f0565b3480156103a157600080fd5b506101b7600480360360208110156103b857600080fd5b50356107db565b3480156103cb57600080fd5b5061018b600480360360208110156103e257600080fd5b5035600160a060020a03166107f6565b60005481565b600081600160a060020a031661040c610611565b600160a060020a03161492915050565b336104268161068f565b1561043057600080fd5b600160a060020a038216600081815260046020526040808220805460ff19169055517f753f40ca3312b2408759a67875b367955e7baa221daf08aa3d643d96202ac12b9190a25050565b600260205260009081526040902054600160a060020a031681565b60046020526000908152604090205460ff1681565b6104b3336103f8565b15156104be57600080fd5b600160a060020a038116600081815260056020526040808220805460ff19169055517f1aaaaf7609619e631f47eb3546f9fdd8c61b1af2175988a0ddb9a06680c3b9ed9190a250565b610510336103f8565b151561051b57600080fd5b6105248161086f565b50565b336105318161068f565b1561053b57600080fd5b600160a060020a0382166000908152600460209081526040808320805460ff19166001179055600690915290205460ff1615156105d957600160a060020a0382166000818152600660209081526040808320805460ff191660019081179091558354845260029092528220805473ffffffffffffffffffffffffffffffffffffffff1916909317909255546105d59163ffffffff61089e16565b6000555b604051600160a060020a038316907fad6de4452a631e641cb59902236607946ce9272b9b981f2f80e8d129cb9084ba90600090a25050565b600854600160a060020a031690565b600061062a610611565b600160a060020a031682600160a060020a0316141580156106645750600160a060020a03821660009081526005602052604090205460ff16155b80156106895750600160a060020a03821660009081526004602052604090205460ff16155b92915050565b6000610699610611565b600160a060020a031682600160a060020a031614158015610689575050600160a060020a031660009081526004602052604090205460ff161590565b60015481565b60056020526000908152604090205460ff1681565b6106f9336103f8565b151561070457600080fd5b600160a060020a0381166000908152600560209081526040808320805460ff19166001179055600790915290205460ff1615156107a457600160a060020a0381166000818152600760209081526040808320805460ff19166001908117909155805484526003909252909120805473ffffffffffffffffffffffffffffffffffffffff191690921790915580546107a09163ffffffff61089e16565b6001555b604051600160a060020a038216907ffba24c034afca607a35e1f221b154b3f8e1f88c7924c8a0a06755b70708c44d890600090a250565b600360205260009081526040902054600160a060020a031681565b6107ff336103f8565b151561080a57600080fd5b600160a060020a038116151561081f57600080fd5b7f8be0079c531659141344cd1fd0a4f28419497f9722a3daafe3b4186f6b6457e0610848610611565b60408051600160a060020a03928316815291841660208301528051918290030190a1610524815b6008805473ffffffffffffffffffffffffffffffffffffffff1916600160a060020a0392909216919091179055565b6000828201838110156108ad57fe5b939250505056fea165627a7a723058209f92a5e32cd52594e09d676cdf0bafe7d039ef899d1d4ac9b09e3736acb50f570029",
  "source": "pragma solidity ^0.5.0;\n\nimport \"../interface/admin-interface.sol\";\nimport \"../../libraries/SafeMath.sol\";\n\ncontract Administratable is admin {\n  using SafeMath for uint256;\n\n  uint256 public totalAdminsMapping;\n  uint256 public totalSuperAdminsMapping;\n  mapping (uint256 => address) public adminsForIndex;\n  mapping (uint256 => address) public superAdminsForIndex;\n  mapping (address => bool) public admins;\n  mapping (address => bool) public superAdmins;\n  mapping (address => bool) processedAdmin;\n  mapping (address => bool) processedSuperAdmin;\n\n  event AddAdmin(address indexed admin);\n  event RemoveAdmin(address indexed admin);\n  event AddSuperAdmin(address indexed admin);\n  event RemoveSuperAdmin(address indexed admin);\n\n  constructor () public {\n    admins[msg.sender] = true;\n    superAdmins[msg.sender] = true;\n    processedAdmin[msg.sender] = true;\n    processedSuperAdmin[msg.sender] = true;\n    _owner = msg.sender;\n  }\n\n\n  modifier onlyAdmins  (address msgSender)  {\n    if (checkAdmin(msgSender)) revert();\n    _;\n  }\n\n  modifier onlySuperAdmins (address msgSender) {\n    if (checkSuperAdmin(msgSender)) revert();\n    _;\n  }\n\n\n  function checkAdmin (address msgSender) public returns (bool) {\n\n    return ((msgSender != owner() ) && (!superAdmins[msgSender]) && (!admins[msgSender]));\n\n  }\n\n  function checkSuperAdmin (address msgSender) public returns (bool) {\n\n    return ((msgSender != owner() ) && (!admins[msgSender]));\n\n  }\n\n\n  function addSuperAdmin(address admin) public onlyOwner {\n    superAdmins[admin] = true;\n    if (!processedSuperAdmin[admin]) {\n      processedSuperAdmin[admin] = true;\n      superAdminsForIndex[totalSuperAdminsMapping] = admin;\n      totalSuperAdminsMapping = totalSuperAdminsMapping.add(1);\n    }\n\n    emit AddSuperAdmin(admin);\n  }\n\n  function removeSuperAdmin(address admin) public onlyOwner {\n    superAdmins[admin] = false;\n\n    emit RemoveSuperAdmin(admin);\n  }\n\n  function addAdmin(address admin) public onlySuperAdmins (msg.sender) {\n    admins[admin] = true;\n    if (!processedAdmin[admin]) {\n      processedAdmin[admin] = true;\n      adminsForIndex[totalAdminsMapping] = admin;\n      totalAdminsMapping = totalAdminsMapping.add(1);\n    }\n\n    emit  AddAdmin(admin);\n  }\n\n  function removeAdmin(address admin) public onlySuperAdmins (msg.sender) {\n    admins[admin] = false;\n\n    emit RemoveAdmin(admin);\n  }\n\n   /**\n  * @dev Event to show ownership has been transferred\n  * @param previousOwner representing the address of the previous owner\n  * @param newOwner representing the address of the new owner\n  */\n  event OwnershipTransferred(address previousOwner, address newOwner);\n\n  /**\n  * @dev The constructor sets the original owner of the contract to the sender account.\n  */\n  function ownable(address newowner) public onlyOwner {\n          setOwner(newowner);\n  }\n\n  /**\n  * @dev Throws if called by any account other than the owner.\n  */\n  modifier onlyOwner() {\n    require (check_owner (msg.sender));\n    _;\n  }\n\n  modifier onlyOwnerEx (address _sender_address) {\n    require(check_owner(_sender_address));\n    _;\n\n      }\n\n  function check_owner (address _sender_address) public returns(bool)\n  {\n        return (owner() == _sender_address);\n  }\n\n  /**\n   * @dev Allows the current owner to transfer control of the contract to a newOwner.\n   * @param newOwner The address to transfer ownership to.\n   */\n  function transferOwnership(address newOwner) public onlyOwner {\n    require(newOwner != address(0));\n    emit OwnershipTransferred(owner(), newOwner);\n    setOwner(newOwner);\n  }\n\n    // Owner of the contract\n  address private _owner;\n\n  /**\n   * @dev Tells the address of the owner\n   * @return the address of the owner\n   */\n  function owner() public view returns (address) {\n    return _owner;\n  }\n\n  /**\n   * @dev Sets a new owner address\n   */\n  function setOwner(address newOwner) internal {\n    _owner = newOwner;\n  }\n\n}\n",
  "sourcePath": "/home/st/Desktop/DARF-ANGeles/Angeles.VC-token-scrum-investing/contracts/admin/implementation/Administratable.sol",
  "compiler": {
    "name": "solc",
    "version": "0.5.0+commit.1d4f565a.Emscripten.clang"
  },
  "schemaVersion": "3.0.5",
  "updatedAt": "2019-04-04T17:11:27.601Z",
  "devdoc": {
    "methods": {
      "ownable(address)": {
        "details": "The constructor sets the original owner of the contract to the sender account."
      },
      "owner()": {
        "details": "Tells the address of the owner",
        "return": "the address of the owner"
      },
      "transferOwnership(address)": {
        "details": "Allows the current owner to transfer control of the contract to a newOwner.",
        "params": {
          "newOwner": "The address to transfer ownership to."
        }
      }
    }
  },
  "userdoc": {
    "methods": {}
  }
}