{
  "contractName": "Basic_KYC",
  "abi": [
    {
      "constant": false,
      "inputs": [
        {
          "name": "_sender_address",
          "type": "address"
        }
      ],
      "name": "check_owner",
      "outputs": [
        {
          "name": "",
          "type": "bool"
        }
      ],
      "payable": false,
      "stateMutability": "nonpayable",
      "type": "function"
    },
    {
      "constant": false,
      "inputs": [
        {
          "name": "newOwner",
          "type": "address"
        }
      ],
      "name": "setOwner",
      "outputs": [],
      "payable": false,
      "stateMutability": "nonpayable",
      "type": "function"
    },
    {
      "constant": false,
      "inputs": [
        {
          "name": "BasicAdministratableaddr",
          "type": "address"
        }
      ],
      "name": "_initAdministratable",
      "outputs": [],
      "payable": false,
      "stateMutability": "nonpayable",
      "type": "function"
    },
    {
      "constant": false,
      "inputs": [
        {
          "name": "msgSender",
          "type": "address"
        }
      ],
      "name": "checkAdmin",
      "outputs": [
        {
          "name": "",
          "type": "bool"
        }
      ],
      "payable": false,
      "stateMutability": "nonpayable",
      "type": "function"
    },
    {
      "constant": false,
      "inputs": [
        {
          "name": "msgSender",
          "type": "address"
        }
      ],
      "name": "checkSuperAdmin",
      "outputs": [
        {
          "name": "",
          "type": "bool"
        }
      ],
      "payable": false,
      "stateMutability": "nonpayable",
      "type": "function"
    },
    {
      "constant": false,
      "inputs": [
        {
          "name": "_investor_address",
          "type": "address"
        },
        {
          "name": "currency",
          "type": "bytes32"
        }
      ],
      "name": "InvestorCheck",
      "outputs": [
        {
          "name": "",
          "type": "uint256"
        }
      ],
      "payable": false,
      "stateMutability": "nonpayable",
      "type": "function"
    },
    {
      "constant": false,
      "inputs": [
        {
          "name": "_investor_address",
          "type": "address"
        },
        {
          "name": "currency",
          "type": "bytes32"
        },
        {
          "name": "add_approved_sum",
          "type": "uint256"
        }
      ],
      "name": "add_KYC",
      "outputs": [],
      "payable": false,
      "stateMutability": "nonpayable",
      "type": "function"
    },
    {
      "constant": false,
      "inputs": [
        {
          "name": "_investor_address",
          "type": "address"
        },
        {
          "name": "currency",
          "type": "bytes32"
        },
        {
          "name": "add_invested_sum",
          "type": "uint256"
        }
      ],
      "name": "register_invest",
      "outputs": [],
      "payable": false,
      "stateMutability": "nonpayable",
      "type": "function"
    },
    {
      "constant": false,
      "inputs": [
        {
          "name": "_investor_address",
          "type": "address"
        },
        {
          "name": "currency",
          "type": "bytes32"
        }
      ],
      "name": "allowed_invest",
      "outputs": [
        {
          "name": "",
          "type": "uint256"
        }
      ],
      "payable": false,
      "stateMutability": "nonpayable",
      "type": "function"
    },
    {
      "constant": false,
      "inputs": [
        {
          "name": "Externalstorageaddr",
          "type": "address"
        }
      ],
      "name": "_initExternalStorage",
      "outputs": [],
      "payable": false,
      "stateMutability": "nonpayable",
      "type": "function"
    },
    {
      "constant": false,
      "inputs": [],
      "name": "load_conditions_ES",
      "outputs": [],
      "payable": false,
      "stateMutability": "nonpayable",
      "type": "function"
    }
  ],
  "bytecode": "0x6080604052671bc16d674ec8000060045534801561001c57600080fd5b506108928061002c6000396000f3fe6080604052600436106100ae5763ffffffff7c01000000000000000000000000000000000000000000000000000000006000350416630c3504c981146100b357806313af4035146100fa578063192ebb521461012f578063427167301461017a5780634e6091f3146101ad578063663e91f2146101ec5780636ae923c8146102255780639026dee8146102645780639df152dc14610297578063a1d658b1146102ac578063c8bc0407146102df575b600080fd5b3480156100bf57600080fd5b506100e6600480360360208110156100d657600080fd5b5035600160a060020a0316610312565b604080519115158252519081900360200190f35b34801561010657600080fd5b5061012d6004803603602081101561011d57600080fd5b5035600160a060020a03166103af565b005b34801561013b57600080fd5b506101686004803603604081101561015257600080fd5b50600160a060020a0381351690602001356103f5565b60408051918252519081900360200190f35b34801561018657600080fd5b5061012d6004803603602081101561019d57600080fd5b5035600160a060020a031661049e565b3480156101b957600080fd5b5061012d600480360360608110156101d057600080fd5b50600160a060020a0381351690602081013590604001356104e4565b3480156101f857600080fd5b506101686004803603604081101561020f57600080fd5b50600160a060020a038135169060200135610531565b34801561023157600080fd5b5061012d6004803603606081101561024857600080fd5b50600160a060020a038135169060208101359060400135610577565b34801561027057600080fd5b506100e66004803603602081101561028757600080fd5b5035600160a060020a03166105c1565b3480156102a357600080fd5b5061012d61062c565b3480156102b857600080fd5b506100e6600480360360208110156102cf57600080fd5b5035600160a060020a0316610704565b3480156102eb57600080fd5b5061012d6004803603602081101561030257600080fd5b5035600160a060020a031661076f565b600154604080517f0c3504c9000000000000000000000000000000000000000000000000000000008152600160a060020a03848116600483015291516000939290921691630c3504c99160248082019260209290919082900301818787803b15801561037d57600080fd5b505af1158015610391573d6000803e3d6000fd5b505050506040513d60208110156103a757600080fd5b505192915050565b600254600160a060020a031633146103c657600080fd5b6002805473ffffffffffffffffffffffffffffffffffffffff1916600160a060020a0392909216919091179055565b6040805160208082018490528251808303820181529183018352815191810191909120600160a060020a03851660009081526005835283812082825290925291812054909190151561046957600454600160a060020a03851660009081526005602090815260408083208584529091529020555b600160a060020a0393909316600090815260056020908152604080832095835294905292909220600181015490540392915050565b600254600160a060020a031633146104b557600080fd5b6001805473ffffffffffffffffffffffffffffffffffffffff1916600160a060020a0392909216919091179055565b604080516020808201949094528151808203850181529082018252805190840120600160a060020a0390941660009081526005845281812094815293909252912060010180549091019055565b6040805160208082018490528251808303820181529183018352815191810191909120600160a060020a0385166000908152600583528381209181529152205492915050565b604080516020808201949094528151808203850181529082018252805190840120600160a060020a0390941660009081526005845281812094815293909252912080549091019055565b600154604080517f9026dee8000000000000000000000000000000000000000000000000000000008152600160a060020a03848116600483015291516000939290921691639026dee89160248082019260209290919082900301818787803b15801561037d57600080fd5b33610636816105c1565b1561064057600080fd5b600354604080517f4f161245000000000000000000000000000000000000000000000000000000008152602060048201819052601160248301527f4b59432f4b59435f7468726573686f6c6400000000000000000000000000000060448301529151600160a060020a03909316928392634f1612459260648082019391829003018186803b1580156106d157600080fd5b505afa1580156106e5573d6000803e3d6000fd5b505050506040513d60208110156106fb57600080fd5b50516004555050565b600154604080517fa1d658b1000000000000000000000000000000000000000000000000000000008152600160a060020a0384811660048301529151600093929092169163a1d658b19160248082019260209290919082900301818787803b15801561037d57600080fd5b33610779816105c1565b1561078357600080fd5b6003805473ffffffffffffffffffffffffffffffffffffffff1916600160a060020a038481169190911791829055604080517f413c6d1300000000000000000000000000000000000000000000000000000000815230602482015260048101829052601c60448201527f4b59432f696d706c656d656e746174696f6e2f42617369635f4b594300000000606482015290519290911691829163413c6d1391608480830192600092919082900301818387803b15801561084157600080fd5b505af1158015610855573d6000803e3d6000fd5b5050505061086161062c565b50505056fea165627a7a723058200a41a086000d600ebe68966b67541f1cb075400164a5a27b7a52453808cbe5940029",
  "source": "//TODO all change!\n\npragma solidity ^0.5.0;\nimport \"../../libraries/SafeMath.sol\";\nimport \"../interface/KYC_interface.sol\";\n// import \"../KYC_storage.sol\";\nimport \"../../admin/interface/administratable.sol\";\nimport \"../../admin/interface/ExternalStorage.sol\";\n\n\n //TODO add owner checks\n\n\ncontract Basic_KYC is KYC_interface, Administratable {\n\n    address External_Storage_addr;\n\n    uint256 KYC_threshold = 2 ether;\n\n    // todo  move _investors to External storage\n    struct currencies {\n        uint256 approved_sum;\n        uint256 invested_sum;\n    }\n\n     mapping (address => mapping (bytes32 => currencies))  _investors;\n\n  function InvestorCheck(address _investor_address, bytes32 currency) external returns (uint256) { //   removed by  TypeError: Overriding function return types differ.\n\n      bytes32 currency_adr = keccak256(abi.encode(currency));\n      if (_investors[_investor_address][currency_adr].approved_sum == 0) //1st time investing\n      {\n        _investors[_investor_address][currency_adr].approved_sum = KYC_threshold; // no_KYC threshold fot beginners\n      }\n      return (_investors[_investor_address][currency_adr].approved_sum - _investors[_investor_address][currency_adr].invested_sum) ;\n\n\n  }\n\n  function add_KYC(address _investor_address, bytes32 currency, uint256 add_approved_sum)   external {\n        bytes32 currency_adr = keccak256(abi.encode(currency));\n        _investors[_investor_address][currency_adr].approved_sum += add_approved_sum;\n\n      // every NY at midnight we need to add approved sums for each currency!\n  }\n\n\n  function register_invest(address _investor_address, bytes32 currency, uint256 add_invested_sum)  external {\n      bytes32 currency_adr = keccak256(abi.encode(currency));\n\n          _investors[_investor_address][currency_adr].invested_sum += add_invested_sum;\n\n\n    }\n\n   function allowed_invest(address _investor_address, bytes32 currency) external  returns(uint256)\n   {\n      bytes32 currency_adr = keccak256(abi.encode(currency));\n      return _investors[_investor_address][currency_adr].approved_sum ;\n   }\n\n\n       function _initExternalStorage(address Externalstorageaddr) public onlyAdmins (msg.sender) {\n\n        External_Storage_addr = Externalstorageaddr;\n        ExternalStorage ES = ExternalStorage(External_Storage_addr);\n        ES.setAddressValue(\"KYC/implementation/Basic_KYC\", address(this));\n        load_conditions_ES ();\n\n\n    }\n\n     function load_conditions_ES () public onlyAdmins (msg.sender) { //when something changes\n        ExternalStorage ES = ExternalStorage(External_Storage_addr);\n        //Projectaddr = ES.getAddressValue(\"scruminvest/project\");\n        KYC_threshold = ES.getUIntValue('KYC/KYC_threshold');\n    }\n\n}\n",
  "sourcePath": "/home/sergey/Documents/angels/2083nointerfaces/Angeles.VC-token-scrum-investing/contracts/KYC/implementation/Basic_KYC.sol",
  "compiler": {
    "name": "solc",
    "version": "0.5.0+commit.1d4f565a.Emscripten.clang"
  },
  "schemaVersion": "3.0.2",
  "updatedAt": "2019-04-03T12:27:29.220Z",
  "devdoc": {
    "methods": {}
  },
  "userdoc": {
    "methods": {}
  }
}