{
  "contractName": "basic_KYC",
  "abi": [
    {
      "constant": true,
      "inputs": [],
      "name": "totalAdminsMapping",
      "outputs": [
        {
          "name": "",
          "type": "uint256"
        }
      ],
      "payable": false,
      "stateMutability": "view",
      "type": "function"
    },
    {
      "constant": false,
      "inputs": [
        {
          "name": "admin",
          "type": "address"
        }
      ],
      "name": "removeAdmin",
      "outputs": [],
      "payable": false,
      "stateMutability": "nonpayable",
      "type": "function"
    },
    {
      "constant": true,
      "inputs": [
        {
          "name": "",
          "type": "uint256"
        }
      ],
      "name": "adminsForIndex",
      "outputs": [
        {
          "name": "",
          "type": "address"
        }
      ],
      "payable": false,
      "stateMutability": "view",
      "type": "function"
    },
    {
      "constant": true,
      "inputs": [
        {
          "name": "",
          "type": "address"
        }
      ],
      "name": "admins",
      "outputs": [
        {
          "name": "",
          "type": "bool"
        }
      ],
      "payable": false,
      "stateMutability": "view",
      "type": "function"
    },
    {
      "constant": false,
      "inputs": [
        {
          "name": "admin",
          "type": "address"
        }
      ],
      "name": "removeSuperAdmin",
      "outputs": [],
      "payable": false,
      "stateMutability": "nonpayable",
      "type": "function"
    },
    {
      "constant": false,
      "inputs": [
        {
          "name": "newowner",
          "type": "address"
        }
      ],
      "name": "ownable",
      "outputs": [],
      "payable": false,
      "stateMutability": "nonpayable",
      "type": "function"
    },
    {
      "constant": false,
      "inputs": [
        {
          "name": "admin",
          "type": "address"
        }
      ],
      "name": "addAdmin",
      "outputs": [],
      "payable": false,
      "stateMutability": "nonpayable",
      "type": "function"
    },
    {
      "constant": true,
      "inputs": [],
      "name": "owner",
      "outputs": [
        {
          "name": "",
          "type": "address"
        }
      ],
      "payable": false,
      "stateMutability": "view",
      "type": "function"
    },
    {
      "constant": true,
      "inputs": [],
      "name": "totalSuperAdminsMapping",
      "outputs": [
        {
          "name": "",
          "type": "uint256"
        }
      ],
      "payable": false,
      "stateMutability": "view",
      "type": "function"
    },
    {
      "constant": true,
      "inputs": [
        {
          "name": "",
          "type": "address"
        }
      ],
      "name": "superAdmins",
      "outputs": [
        {
          "name": "",
          "type": "bool"
        }
      ],
      "payable": false,
      "stateMutability": "view",
      "type": "function"
    },
    {
      "constant": false,
      "inputs": [
        {
          "name": "admin",
          "type": "address"
        }
      ],
      "name": "addSuperAdmin",
      "outputs": [],
      "payable": false,
      "stateMutability": "nonpayable",
      "type": "function"
    },
    {
      "constant": true,
      "inputs": [
        {
          "name": "",
          "type": "uint256"
        }
      ],
      "name": "superAdminsForIndex",
      "outputs": [
        {
          "name": "",
          "type": "address"
        }
      ],
      "payable": false,
      "stateMutability": "view",
      "type": "function"
    },
    {
      "constant": false,
      "inputs": [
        {
          "name": "newOwner",
          "type": "address"
        }
      ],
      "name": "transferOwnership",
      "outputs": [],
      "payable": false,
      "stateMutability": "nonpayable",
      "type": "function"
    },
    {
      "anonymous": false,
      "inputs": [
        {
          "indexed": true,
          "name": "admin",
          "type": "address"
        }
      ],
      "name": "AddAdmin",
      "type": "event"
    },
    {
      "anonymous": false,
      "inputs": [
        {
          "indexed": true,
          "name": "admin",
          "type": "address"
        }
      ],
      "name": "RemoveAdmin",
      "type": "event"
    },
    {
      "anonymous": false,
      "inputs": [
        {
          "indexed": true,
          "name": "admin",
          "type": "address"
        }
      ],
      "name": "AddSuperAdmin",
      "type": "event"
    },
    {
      "anonymous": false,
      "inputs": [
        {
          "indexed": true,
          "name": "admin",
          "type": "address"
        }
      ],
      "name": "RemoveSuperAdmin",
      "type": "event"
    },
    {
      "anonymous": false,
      "inputs": [
        {
          "indexed": false,
          "name": "previousOwner",
          "type": "address"
        },
        {
          "indexed": false,
          "name": "newOwner",
          "type": "address"
        }
      ],
      "name": "OwnershipTransferred",
      "type": "event"
    },
    {
      "constant": false,
      "inputs": [
        {
          "name": "_investor_address",
          "type": "address"
        },
        {
          "name": "currency",
          "type": "bytes32"
        }
      ],
      "name": "InvestorCheck",
      "outputs": [
        {
          "name": "",
          "type": "uint256"
        }
      ],
      "payable": false,
      "stateMutability": "nonpayable",
      "type": "function"
    },
    {
      "constant": false,
      "inputs": [
        {
          "name": "_investor_address",
          "type": "address"
        },
        {
          "name": "currency",
          "type": "bytes32"
        },
        {
          "name": "add_approved_sum",
          "type": "uint256"
        }
      ],
      "name": "add_KYC",
      "outputs": [],
      "payable": false,
      "stateMutability": "nonpayable",
      "type": "function"
    },
    {
      "constant": false,
      "inputs": [
        {
          "name": "_investor_address",
          "type": "address"
        },
        {
          "name": "currency",
          "type": "bytes32"
        },
        {
          "name": "add_invested_sum",
          "type": "uint256"
        }
      ],
      "name": "register_invest",
      "outputs": [],
      "payable": false,
      "stateMutability": "nonpayable",
      "type": "function"
    },
    {
      "constant": false,
      "inputs": [
        {
          "name": "Externalstorageaddr",
          "type": "address"
        }
      ],
      "name": "_initExternalStorage",
      "outputs": [],
      "payable": false,
      "stateMutability": "nonpayable",
      "type": "function"
    },
    {
      "constant": false,
      "inputs": [],
      "name": "load_conditions_ES",
      "outputs": [],
      "payable": false,
      "stateMutability": "nonpayable",
      "type": "function"
    }
  ],
  "bytecode": "0x6080604052671bc16d674ec80000600a5534801561001c57600080fd5b50610c9d8061002c6000396000f3fe6080604052600436106100fb5763ffffffff7c01000000000000000000000000000000000000000000000000000000006000350416630489882e81146101005780631785f53c14610127578063192ebb521461015c578063313f2a2114610195578063429b62e5146101db5780634902e4aa146102225780634e6091f31461025557806364a04b59146102945780636ae923c8146102c757806370480275146103065780638da5cb5b146103395780639df152dc1461034e578063abf7b06314610363578063ad25cb4214610378578063b3292ff0146103ab578063c3894398146103de578063c8bc040714610408578063f2fde38b1461043b575b600080fd5b34801561010c57600080fd5b5061011561046e565b60408051918252519081900360200190f35b34801561013357600080fd5b5061015a6004803603602081101561014a57600080fd5b5035600160a060020a0316610474565b005b34801561016857600080fd5b506101156004803603604081101561017f57600080fd5b50600160a060020a038135169060200135610500565b3480156101a157600080fd5b506101bf600480360360208110156101b857600080fd5b50356105a9565b60408051600160a060020a039092168252519081900360200190f35b3480156101e757600080fd5b5061020e600480360360208110156101fe57600080fd5b5035600160a060020a03166105c4565b604080519115158252519081900360200190f35b34801561022e57600080fd5b5061015a6004803603602081101561024557600080fd5b5035600160a060020a03166105d9565b34801561026157600080fd5b5061015a6004803603606081101561027857600080fd5b50600160a060020a03813516906020810135906040013561063e565b3480156102a057600080fd5b5061015a600480360360208110156102b757600080fd5b5035600160a060020a031661068b565b3480156102d357600080fd5b5061015a600480360360608110156102ea57600080fd5b50600160a060020a0381351690602081013590604001356106b3565b34801561031257600080fd5b5061015a6004803603602081101561032957600080fd5b5035600160a060020a03166106fd565b34801561034557600080fd5b506101bf610817565b34801561035a57600080fd5b5061015a610826565b34801561036f57600080fd5b50610115610948565b34801561038457600080fd5b5061020e6004803603602081101561039b57600080fd5b5035600160a060020a031661094e565b3480156103b757600080fd5b5061015a600480360360208110156103ce57600080fd5b5035600160a060020a0316610963565b3480156103ea57600080fd5b506101bf6004803603602081101561040157600080fd5b5035610a57565b34801561041457600080fd5b5061015a6004803603602081101561042b57600080fd5b5035600160a060020a0316610a72565b34801561044757600080fd5b5061015a6004803603602081101561045e57600080fd5b5035600160a060020a0316610bab565b60015481565b61047c610817565b600160a060020a031633600160a060020a0316141580156104ad57503360009081526006602052604090205460ff16155b156104b757600080fd5b600160a060020a038116600081815260056020526040808220805460ff19169055517f753f40ca3312b2408759a67875b367955e7baa221daf08aa3d643d96202ac12b9190a250565b6040805160208082018490528251808303820181529183018352815191810191909120600160a060020a0385166000908152600b835283812082825290925291812054909190151561057457600a54600160a060020a0385166000908152600b602090815260408083208584529091529020555b600160a060020a03939093166000908152600b6020908152604080832095835294905292909220600181015490540392915050565b600360205260009081526040902054600160a060020a031681565b60056020526000908152604090205460ff1681565b6105e1610817565b600160a060020a031633146105f557600080fd5b600160a060020a038116600081815260066020526040808220805460ff19169055517f1aaaaf7609619e631f47eb3546f9fdd8c61b1af2175988a0ddb9a06680c3b9ed9190a250565b604080516020808201949094528151808203850181529082018252805190840120600160a060020a039094166000908152600b845281812094815293909252912060010180549091019055565b610693610817565b600160a060020a031633146106a757600080fd5b6106b081610c2c565b50565b604080516020808201949094528151808203850181529082018252805190840120600160a060020a039094166000908152600b845281812094815293909252912080549091019055565b610705610817565b600160a060020a031633600160a060020a03161415801561073657503360009081526006602052604090205460ff16155b1561074057600080fd5b600160a060020a0381166000908152600560209081526040808320805460ff19166001179055600790915290205460ff1615156107e057600160a060020a0381166000818152600760209081526040808320805460ff19166001908117909155805484526003909252909120805473ffffffffffffffffffffffffffffffffffffffff191690921790915580546107dc9163ffffffff610c5b16565b6001555b604051600160a060020a038216907fad6de4452a631e641cb59902236607946ce9272b9b981f2f80e8d129cb9084ba90600090a250565b600054600160a060020a031690565b61082e610817565b600160a060020a031633600160a060020a03161415801561085f57503360009081526006602052604090205460ff16155b801561087b57503360009081526005602052604090205460ff16155b1561088557600080fd5b600954604080517f4f161245000000000000000000000000000000000000000000000000000000008152602060048201819052601160248301527f4b59432f4b59435f7468726573686f6c6400000000000000000000000000000060448301529151600160a060020a03909316928392634f1612459260648082019391829003018186803b15801561091657600080fd5b505afa15801561092a573d6000803e3d6000fd5b505050506040513d602081101561094057600080fd5b5051600a5550565b60025481565b60066020526000908152604090205460ff1681565b61096b610817565b600160a060020a0316331461097f57600080fd5b600160a060020a0381166000908152600660209081526040808320805460ff19166001179055600890915290205460ff161515610a2057600160a060020a0381166000818152600860209081526040808320805460ff1916600190811790915560028054855260049093529220805473ffffffffffffffffffffffffffffffffffffffff19169093179092559054610a1c9163ffffffff610c5b16565b6002555b604051600160a060020a038216907ffba24c034afca607a35e1f221b154b3f8e1f88c7924c8a0a06755b70708c44d890600090a250565b600460205260009081526040902054600160a060020a031681565b610a7a610817565b600160a060020a031633600160a060020a031614158015610aab57503360009081526006602052604090205460ff16155b8015610ac757503360009081526005602052604090205460ff16155b15610ad157600080fd5b6009805473ffffffffffffffffffffffffffffffffffffffff1916600160a060020a038381169190911791829055604080517f413c6d1300000000000000000000000000000000000000000000000000000000815230602482015260048101829052601b60448201527f4b59432f696d706c656d656e6174696f6e2f42617369635f4b59430000000000606482015290519290911691829163413c6d1391608480830192600092919082900301818387803b158015610b8f57600080fd5b505af1158015610ba3573d6000803e3d6000fd5b505050505050565b610bb3610817565b600160a060020a03163314610bc757600080fd5b600160a060020a0381161515610bdc57600080fd5b7f8be0079c531659141344cd1fd0a4f28419497f9722a3daafe3b4186f6b6457e0610c05610817565b60408051600160a060020a03928316815291841660208301528051918290030190a16106b0815b6000805473ffffffffffffffffffffffffffffffffffffffff1916600160a060020a0392909216919091179055565b600082820183811015610c6a57fe5b939250505056fea165627a7a723058207bb15549e1d77699081412ae8c338956914755aee1081142881ed664ac4d6ec20029",
  "source": "//TODO all change!\n\npragma solidity ^0.5.0;\nimport \"../../libraries/SafeMath.sol\";\nimport \"../interface/KYC_interface.sol\";\n// import \"../KYC_storage.sol\";\nimport \"../../admin/administratable.sol\";\nimport \"../../admin/ExternalStorage.sol\";\n\n\n //TODO add owner checks\n\n\ncontract basic_KYC is KYC_interface, Administratable {\n\n    address External_Storage_addr;\n\n    uint256 KYC_threshold = 2 ether;\n\n    // todo  move _investors to External storage\n    struct currencies {\n        uint256 approved_sum;\n        uint256 invested_sum;\n    }\n\n     mapping (address => mapping (bytes32 => currencies))  _investors;\n\n  function InvestorCheck(address _investor_address, bytes32 currency) external returns (uint256) { //   removed by  TypeError: Overriding function return types differ.\n\n      bytes32 currency_adr = keccak256(abi.encode(currency));\n      if (_investors[_investor_address][currency_adr].approved_sum == 0) //1st time investing\n      {\n        _investors[_investor_address][currency_adr].approved_sum = KYC_threshold; // no_KYC threshold fot beginners\n      }\n      return (_investors[_investor_address][currency_adr].approved_sum - _investors[_investor_address][currency_adr].invested_sum) ;\n\n\n  }\n\n  function add_KYC(address _investor_address, bytes32 currency, uint256 add_approved_sum)   external {\n        bytes32 currency_adr = keccak256(abi.encode(currency));\n        _investors[_investor_address][currency_adr].approved_sum += add_approved_sum;\n\n      // every NY at midnight we need to add approved sums for each currency!\n  }\n\n\n  function register_invest(address _investor_address, bytes32 currency, uint256 add_invested_sum)  external {\n      bytes32 currency_adr = keccak256(abi.encode(currency));\n\n          _investors[_investor_address][currency_adr].invested_sum += add_invested_sum;\n\n\n    }\n\n\n\n       function _initExternalStorage(address Externalstorageaddr) public onlyAdmins {\n\n        External_Storage_addr = Externalstorageaddr;\n        ExternalStorage ES = ExternalStorage(External_Storage_addr);\n        ES.setAddressValue(\"KYC/implemenation/Basic_KYC\", address(this));\n\n    }\n\n     function load_conditions_ES () public onlyAdmins { //when something changes\n        ExternalStorage ES = ExternalStorage(External_Storage_addr);\n        //Projectaddr = ES.getAddressValue(\"scruminvest/project\");\n        KYC_threshold = ES.getUIntValue('KYC/KYC_threshold');\n    }\n\n}\n",
  "sourcePath": "/home/sergey/Documents/angels/Angeles.VC-token-scrum-investing/contracts/KYC/implementation/Basic_KYC.sol",
  "compiler": {
    "name": "solc",
    "version": "0.5.0+commit.1d4f565a.Emscripten.clang"
  },
  "schemaVersion": "3.0.2",
  "updatedAt": "2019-03-26T11:37:43.450Z",
  "devdoc": {
    "methods": {
      "ownable(address)": {
        "details": "The constructor sets the original owner of the contract to the sender account."
      },
      "owner()": {
        "details": "Tells the address of the owner",
        "return": "the address of the owner"
      },
      "transferOwnership(address)": {
        "details": "Allows the current owner to transfer control of the contract to a newOwner.",
        "params": {
          "newOwner": "The address to transfer ownership to."
        }
      }
    }
  },
  "userdoc": {
    "methods": {}
  }
}