{
  "contractName": "CstLibrary",
  "abi": [
    {
      "constant": true,
      "inputs": [
        {
          "name": "_storage",
          "type": "address"
        }
      ],
      "name": "getTokenName",
      "outputs": [
        {
          "name": "",
          "type": "bytes32"
        }
      ],
      "payable": false,
      "stateMutability": "view",
      "type": "function"
    },
    {
      "constant": false,
      "inputs": [
        {
          "name": "_storage",
          "type": "address"
        },
        {
          "name": "tokenName",
          "type": "bytes32"
        }
      ],
      "name": "setTokenName",
      "outputs": [],
      "payable": false,
      "stateMutability": "nonpayable",
      "type": "function"
    },
    {
      "constant": true,
      "inputs": [
        {
          "name": "_storage",
          "type": "address"
        }
      ],
      "name": "getTokenSymbol",
      "outputs": [
        {
          "name": "",
          "type": "bytes32"
        }
      ],
      "payable": false,
      "stateMutability": "view",
      "type": "function"
    },
    {
      "constant": false,
      "inputs": [
        {
          "name": "_storage",
          "type": "address"
        },
        {
          "name": "tokenName",
          "type": "bytes32"
        }
      ],
      "name": "setTokenSymbol",
      "outputs": [],
      "payable": false,
      "stateMutability": "nonpayable",
      "type": "function"
    },
    {
      "constant": true,
      "inputs": [
        {
          "name": "_storage",
          "type": "address"
        }
      ],
      "name": "getBuyPrice",
      "outputs": [
        {
          "name": "",
          "type": "uint256"
        }
      ],
      "payable": false,
      "stateMutability": "view",
      "type": "function"
    },
    {
      "constant": false,
      "inputs": [
        {
          "name": "_storage",
          "type": "address"
        },
        {
          "name": "value",
          "type": "uint256"
        }
      ],
      "name": "setBuyPrice",
      "outputs": [],
      "payable": false,
      "stateMutability": "nonpayable",
      "type": "function"
    },
    {
      "constant": true,
      "inputs": [
        {
          "name": "_storage",
          "type": "address"
        }
      ],
      "name": "getSellPrice",
      "outputs": [
        {
          "name": "",
          "type": "uint256"
        }
      ],
      "payable": false,
      "stateMutability": "view",
      "type": "function"
    },
    {
      "constant": false,
      "inputs": [
        {
          "name": "_storage",
          "type": "address"
        },
        {
          "name": "value",
          "type": "uint256"
        }
      ],
      "name": "setSellPrice",
      "outputs": [],
      "payable": false,
      "stateMutability": "nonpayable",
      "type": "function"
    },
    {
      "constant": true,
      "inputs": [
        {
          "name": "_storage",
          "type": "address"
        }
      ],
      "name": "getCirculationCap",
      "outputs": [
        {
          "name": "",
          "type": "uint256"
        }
      ],
      "payable": false,
      "stateMutability": "view",
      "type": "function"
    },
    {
      "constant": false,
      "inputs": [
        {
          "name": "_storage",
          "type": "address"
        },
        {
          "name": "value",
          "type": "uint256"
        }
      ],
      "name": "setCirculationCap",
      "outputs": [],
      "payable": false,
      "stateMutability": "nonpayable",
      "type": "function"
    },
    {
      "constant": true,
      "inputs": [
        {
          "name": "_storage",
          "type": "address"
        },
        {
          "name": "beneficiary",
          "type": "address"
        }
      ],
      "name": "getVestingRevocable",
      "outputs": [
        {
          "name": "",
          "type": "bool"
        }
      ],
      "payable": false,
      "stateMutability": "view",
      "type": "function"
    },
    {
      "constant": false,
      "inputs": [
        {
          "name": "_storage",
          "type": "address"
        },
        {
          "name": "beneficiary",
          "type": "address"
        },
        {
          "name": "value",
          "type": "uint256"
        }
      ],
      "name": "setVestingReleasedAmount",
      "outputs": [],
      "payable": false,
      "stateMutability": "nonpayable",
      "type": "function"
    },
    {
      "constant": true,
      "inputs": [
        {
          "name": "_storage",
          "type": "address"
        },
        {
          "name": "beneficiary",
          "type": "address"
        }
      ],
      "name": "getVestingReleasedAmount",
      "outputs": [
        {
          "name": "",
          "type": "uint256"
        }
      ],
      "payable": false,
      "stateMutability": "view",
      "type": "function"
    },
    {
      "constant": true,
      "inputs": [
        {
          "name": "_storage",
          "type": "address"
        },
        {
          "name": "account",
          "type": "address"
        },
        {
          "name": "spender",
          "type": "address"
        }
      ],
      "name": "getAllowance",
      "outputs": [
        {
          "name": "",
          "type": "uint256"
        }
      ],
      "payable": false,
      "stateMutability": "view",
      "type": "function"
    },
    {
      "constant": false,
      "inputs": [
        {
          "name": "_storage",
          "type": "address"
        },
        {
          "name": "account",
          "type": "address"
        },
        {
          "name": "spender",
          "type": "address"
        },
        {
          "name": "allowance",
          "type": "uint256"
        }
      ],
      "name": "setAllowance",
      "outputs": [],
      "payable": false,
      "stateMutability": "nonpayable",
      "type": "function"
    }
  ],
  "bytecode": "0x611523610030600b82828239805160001a6073146000811461002057610022565bfe5b5030600052607381538281f3fe73000000000000000000000000000000000000000030146080604052600436106100f2576000357c0100000000000000000000000000000000000000000000000000000000900463ffffffff1680631112b124146100f75780635cc95422146101525780636f0fccab146101ca57806375d9daf9146102225780637d53223a1461027d5780637f01bb38146102f857806380f2fa031461037457806381a73ad5146103cc5780639c473bb214610424578063a70703731461047f578063b5802ae61461051a578063cd54c54e14610572578063cedc7277146105cd578063e6e623d514610625578063e7092b4114610680575b600080fd5b81801561010357600080fd5b506101506004803603604081101561011a57600080fd5b81019080803573ffffffffffffffffffffffffffffffffffffffff16906020019092919080359060200190929190505050610718565b005b6101b46004803603604081101561016857600080fd5b81019080803573ffffffffffffffffffffffffffffffffffffffff169060200190929190803573ffffffffffffffffffffffffffffffffffffffff1690602001909291905050506107dc565b6040518082815260200191505060405180910390f35b61020c600480360360208110156101e057600080fd5b81019080803573ffffffffffffffffffffffffffffffffffffffff1690602001909291905050506108f3565b6040518082815260200191505060405180910390f35b81801561022e57600080fd5b5061027b6004803603604081101561024557600080fd5b81019080803573ffffffffffffffffffffffffffffffffffffffff169060200190929190803590602001909291905050506109d5565b005b81801561028957600080fd5b506102f6600480360360608110156102a057600080fd5b81019080803573ffffffffffffffffffffffffffffffffffffffff169060200190929190803573ffffffffffffffffffffffffffffffffffffffff16906020019092919080359060200190929190505050610a99565b005b61035a6004803603604081101561030e57600080fd5b81019080803573ffffffffffffffffffffffffffffffffffffffff169060200190929190803573ffffffffffffffffffffffffffffffffffffffff169060200190929190505050610b92565b604051808215151515815260200191505060405180910390f35b6103b66004803603602081101561038a57600080fd5b81019080803573ffffffffffffffffffffffffffffffffffffffff169060200190929190505050610ca9565b6040518082815260200191505060405180910390f35b61040e600480360360208110156103e257600080fd5b81019080803573ffffffffffffffffffffffffffffffffffffffff169060200190929190505050610d8b565b6040518082815260200191505060405180910390f35b81801561043057600080fd5b5061047d6004803603604081101561044757600080fd5b81019080803573ffffffffffffffffffffffffffffffffffffffff16906020019092919080359060200190929190505050610e6d565b005b81801561048b57600080fd5b50610518600480360360808110156104a257600080fd5b81019080803573ffffffffffffffffffffffffffffffffffffffff169060200190929190803573ffffffffffffffffffffffffffffffffffffffff169060200190929190803573ffffffffffffffffffffffffffffffffffffffff16906020019092919080359060200190929190505050610f31565b005b61055c6004803603602081101561053057600080fd5b81019080803573ffffffffffffffffffffffffffffffffffffffff16906020019092919050505061105f565b6040518082815260200191505060405180910390f35b81801561057e57600080fd5b506105cb6004803603604081101561059557600080fd5b81019080803573ffffffffffffffffffffffffffffffffffffffff16906020019092919080359060200190929190505050611141565b005b61060f600480360360208110156105e357600080fd5b81019080803573ffffffffffffffffffffffffffffffffffffffff169060200190929190505050611205565b6040518082815260200191505060405180910390f35b81801561063157600080fd5b5061067e6004803603604081101561064857600080fd5b81019080803573ffffffffffffffffffffffffffffffffffffffff169060200190929190803590602001909291905050506112e7565b005b6107026004803603606081101561069657600080fd5b81019080803573ffffffffffffffffffffffffffffffffffffffff169060200190929190803573ffffffffffffffffffffffffffffffffffffffff169060200190929190803573ffffffffffffffffffffffffffffffffffffffff1690602001909291905050506113ab565b6040518082815260200191505060405180910390f35b8173ffffffffffffffffffffffffffffffffffffffff166303d75937826040518263ffffffff167c010000000000000000000000000000000000000000000000000000000002815260040180806020018381526020018281038252600b8152602001807f637374427579507269636500000000000000000000000000000000000000000081525060200192505050600060405180830381600087803b1580156107c057600080fd5b505af11580156107d4573d6000803e3d6000fd5b505050505050565b60008273ffffffffffffffffffffffffffffffffffffffff1663a90cf6f4836040518263ffffffff167c010000000000000000000000000000000000000000000000000000000002815260040180806020018373ffffffffffffffffffffffffffffffffffffffff1673ffffffffffffffffffffffffffffffffffffffff168152602001828103825260188152602001807f63737456657374696e6752656c6561736564416d6f756e7400000000000000008152506020019250505060206040518083038186803b1580156108b057600080fd5b505afa1580156108c4573d6000803e3d6000fd5b505050506040513d60208110156108da57600080fd5b8101908080519060200190929190505050905092915050565b60008173ffffffffffffffffffffffffffffffffffffffff16637ec139966040518163ffffffff167c010000000000000000000000000000000000000000000000000000000002815260040180806020018281038252600c8152602001807f637374546f6b656e4e616d65000000000000000000000000000000000000000081525060200191505060206040518083038186803b15801561099357600080fd5b505afa1580156109a7573d6000803e3d6000fd5b505050506040513d60208110156109bd57600080fd5b81019080805190602001909291905050509050919050565b8173ffffffffffffffffffffffffffffffffffffffff166303d75937826040518263ffffffff167c010000000000000000000000000000000000000000000000000000000002815260040180806020018381526020018281038252600c8152602001807f63737453656c6c5072696365000000000000000000000000000000000000000081525060200192505050600060405180830381600087803b158015610a7d57600080fd5b505af1158015610a91573d6000803e3d6000fd5b505050505050565b8273ffffffffffffffffffffffffffffffffffffffff16630cb1a3a983836040518363ffffffff167c010000000000000000000000000000000000000000000000000000000002815260040180806020018473ffffffffffffffffffffffffffffffffffffffff1673ffffffffffffffffffffffffffffffffffffffff168152602001838152602001828103825260188152602001807f63737456657374696e6752656c6561736564416d6f756e7400000000000000008152506020019350505050600060405180830381600087803b158015610b7557600080fd5b505af1158015610b89573d6000803e3d6000fd5b50505050505050565b60008273ffffffffffffffffffffffffffffffffffffffff1663e671fab5836040518263ffffffff167c010000000000000000000000000000000000000000000000000000000002815260040180806020018373ffffffffffffffffffffffffffffffffffffffff1673ffffffffffffffffffffffffffffffffffffffff168152602001828103825260138152602001807f63737456657374696e675265766f6361626c65000000000000000000000000008152506020019250505060206040518083038186803b158015610c6657600080fd5b505afa158015610c7a573d6000803e3d6000fd5b505050506040513d6020811015610c9057600080fd5b8101908080519060200190929190505050905092915050565b60008173ffffffffffffffffffffffffffffffffffffffff16634f1612456040518163ffffffff167c010000000000000000000000000000000000000000000000000000000002815260040180806020018281038252600c8152602001807f63737453656c6c5072696365000000000000000000000000000000000000000081525060200191505060206040518083038186803b158015610d4957600080fd5b505afa158015610d5d573d6000803e3d6000fd5b505050506040513d6020811015610d7357600080fd5b81019080805190602001909291905050509050919050565b60008173ffffffffffffffffffffffffffffffffffffffff16637ec139966040518163ffffffff167c010000000000000000000000000000000000000000000000000000000002815260040180806020018281038252600e8152602001807f637374546f6b656e53796d626f6c00000000000000000000000000000000000081525060200191505060206040518083038186803b158015610e2b57600080fd5b505afa158015610e3f573d6000803e3d6000fd5b505050506040513d6020811015610e5557600080fd5b81019080805190602001909291905050509050919050565b8173ffffffffffffffffffffffffffffffffffffffff166310278bc8826040518263ffffffff167c010000000000000000000000000000000000000000000000000000000002815260040180806020018381526020018281038252600c8152602001807f637374546f6b656e4e616d65000000000000000000000000000000000000000081525060200192505050600060405180830381600087803b158015610f1557600080fd5b505af1158015610f29573d6000803e3d6000fd5b505050505050565b8373ffffffffffffffffffffffffffffffffffffffff16631f69d2308484846040518463ffffffff167c010000000000000000000000000000000000000000000000000000000002815260040180806020018573ffffffffffffffffffffffffffffffffffffffff1673ffffffffffffffffffffffffffffffffffffffff1681526020018473ffffffffffffffffffffffffffffffffffffffff1673ffffffffffffffffffffffffffffffffffffffff1681526020018381526020018281038252600c8152602001807f637374416c6c6f77616e63650000000000000000000000000000000000000000815250602001945050505050600060405180830381600087803b15801561104157600080fd5b505af1158015611055573d6000803e3d6000fd5b5050505050505050565b60008173ffffffffffffffffffffffffffffffffffffffff16634f1612456040518163ffffffff167c01000000000000000000000000000000000000000000000000000000000281526004018080602001828103825260118152602001807f63737443697263756c6174696f6e43617000000000000000000000000000000081525060200191505060206040518083038186803b1580156110ff57600080fd5b505afa158015611113573d6000803e3d6000fd5b505050506040513d602081101561112957600080fd5b81019080805190602001909291905050509050919050565b8173ffffffffffffffffffffffffffffffffffffffff166303d75937826040518263ffffffff167c01000000000000000000000000000000000000000000000000000000000281526004018080602001838152602001828103825260118152602001807f63737443697263756c6174696f6e43617000000000000000000000000000000081525060200192505050600060405180830381600087803b1580156111e957600080fd5b505af11580156111fd573d6000803e3d6000fd5b505050505050565b60008173ffffffffffffffffffffffffffffffffffffffff16634f1612456040518163ffffffff167c010000000000000000000000000000000000000000000000000000000002815260040180806020018281038252600b8152602001807f637374427579507269636500000000000000000000000000000000000000000081525060200191505060206040518083038186803b1580156112a557600080fd5b505afa1580156112b9573d6000803e3d6000fd5b505050506040513d60208110156112cf57600080fd5b81019080805190602001909291905050509050919050565b8173ffffffffffffffffffffffffffffffffffffffff166310278bc8826040518263ffffffff167c010000000000000000000000000000000000000000000000000000000002815260040180806020018381526020018281038252600e8152602001807f637374546f6b656e53796d626f6c00000000000000000000000000000000000081525060200192505050600060405180830381600087803b15801561138f57600080fd5b505af11580156113a3573d6000803e3d6000fd5b505050505050565b60008373ffffffffffffffffffffffffffffffffffffffff1663088787a384846040518363ffffffff167c010000000000000000000000000000000000000000000000000000000002815260040180806020018473ffffffffffffffffffffffffffffffffffffffff1673ffffffffffffffffffffffffffffffffffffffff1681526020018373ffffffffffffffffffffffffffffffffffffffff1673ffffffffffffffffffffffffffffffffffffffff1681526020018281038252600c8152602001807f637374416c6c6f77616e63650000000000000000000000000000000000000000815250602001935050505060206040518083038186803b1580156114b357600080fd5b505afa1580156114c7573d6000803e3d6000fd5b505050506040513d60208110156114dd57600080fd5b81019080805190602001909291905050509050939250505056fea165627a7a72305820d83ca8f2e7156c3f35d80462de6b1f7dc07b9f15d7fcc74e404d04f85c1e29be0029",
  "source": "pragma solidity ^0.5.0;\nimport \"./ExternalStorage.sol\";\n\nlibrary CstLibrary {\n\n  function getTokenName(address _storage) public view returns(bytes32) {\n    return ExternalStorage(_storage).getBytes32Value(\"cstTokenName\");\n  }\n\n  function setTokenName(address _storage, bytes32 tokenName) public {\n    ExternalStorage(_storage).setBytes32Value(\"cstTokenName\", tokenName);\n  }\n\n  function getTokenSymbol(address _storage) public view returns(bytes32) {\n    return ExternalStorage(_storage).getBytes32Value(\"cstTokenSymbol\");\n  }\n\n  function setTokenSymbol(address _storage, bytes32 tokenName) public {\n    ExternalStorage(_storage).setBytes32Value(\"cstTokenSymbol\", tokenName);\n  }\n\n  function getBuyPrice(address _storage) public view returns(uint256) {\n    return ExternalStorage(_storage).getUIntValue(\"cstBuyPrice\");\n  }\n\n  function setBuyPrice(address _storage, uint256 value) public {\n    ExternalStorage(_storage).setUIntValue(\"cstBuyPrice\", value);\n  }\n\n  function getSellPrice(address _storage) public view returns(uint256) {\n    return ExternalStorage(_storage).getUIntValue(\"cstSellPrice\");\n  }\n\n  function setSellPrice(address _storage, uint256 value) public {\n    ExternalStorage(_storage).setUIntValue(\"cstSellPrice\", value);\n  }\n\n  function getCirculationCap(address _storage) public view returns(uint256) {\n    return ExternalStorage(_storage).getUIntValue(\"cstCirculationCap\");\n  }\n\n  function setCirculationCap(address _storage, uint256 value) public {\n    ExternalStorage(_storage).setUIntValue(\"cstCirculationCap\", value);\n  }\n\n  function getVestingRevocable(address _storage, address beneficiary) public view returns(bool) {\n    return ExternalStorage(_storage).getBooleanMapValue(\"cstVestingRevocable\", beneficiary);\n  }\n\n  function setVestingReleasedAmount(address _storage, address beneficiary, uint256 value) public {\n    ExternalStorage(_storage).setLedgerValue(\"cstVestingReleasedAmount\", beneficiary, value);\n  }\n\n  function getVestingReleasedAmount(address _storage, address beneficiary) public view returns(uint256) {\n    return ExternalStorage(_storage).getLedgerValue(\"cstVestingReleasedAmount\", beneficiary);\n  }\n\n  function getAllowance(address _storage, address account, address spender) public view returns (uint256) {\n    return ExternalStorage(_storage).getMultiLedgerValue(\"cstAllowance\", account, spender);\n  }\n\n  function setAllowance(address _storage, address account, address spender, uint256 allowance) public {\n    ExternalStorage(_storage).setMultiLedgerValue(\"cstAllowance\", account, spender, allowance);\n  }\n\n\n\n\n\n}",
  "sourcePath": "/home/sergey/Documents/angels/Angeles.VC-token-scrum-investing/contracts/admin/CstLibrary.sol",
  "compiler": {
    "name": "solc",
    "version": "0.5.0+commit.1d4f565a.Emscripten.clang"
  },
  "schemaVersion": "3.0.2",
  "updatedAt": "2019-03-25T06:59:12.638Z",
  "devdoc": {
    "methods": {}
  },
  "userdoc": {
    "methods": {}
  }
}