{
  "contractName": "CstLibrary",
  "abi": [
    {
      "constant": true,
      "inputs": [
        {
          "name": "_storage",
          "type": "address"
        }
      ],
      "name": "getTokenName",
      "outputs": [
        {
          "name": "",
          "type": "bytes32"
        }
      ],
      "payable": false,
      "stateMutability": "view",
      "type": "function"
    },
    {
      "constant": false,
      "inputs": [
        {
          "name": "_storage",
          "type": "address"
        },
        {
          "name": "tokenName",
          "type": "bytes32"
        }
      ],
      "name": "setTokenName",
      "outputs": [],
      "payable": false,
      "stateMutability": "nonpayable",
      "type": "function"
    },
    {
      "constant": true,
      "inputs": [
        {
          "name": "_storage",
          "type": "address"
        }
      ],
      "name": "getTokenSymbol",
      "outputs": [
        {
          "name": "",
          "type": "bytes32"
        }
      ],
      "payable": false,
      "stateMutability": "view",
      "type": "function"
    },
    {
      "constant": false,
      "inputs": [
        {
          "name": "_storage",
          "type": "address"
        },
        {
          "name": "tokenName",
          "type": "bytes32"
        }
      ],
      "name": "setTokenSymbol",
      "outputs": [],
      "payable": false,
      "stateMutability": "nonpayable",
      "type": "function"
    },
    {
      "constant": true,
      "inputs": [
        {
          "name": "_storage",
          "type": "address"
        }
      ],
      "name": "getBuyPrice",
      "outputs": [
        {
          "name": "",
          "type": "uint256"
        }
      ],
      "payable": false,
      "stateMutability": "view",
      "type": "function"
    },
    {
      "constant": false,
      "inputs": [
        {
          "name": "_storage",
          "type": "address"
        },
        {
          "name": "value",
          "type": "uint256"
        }
      ],
      "name": "setBuyPrice",
      "outputs": [],
      "payable": false,
      "stateMutability": "nonpayable",
      "type": "function"
    },
    {
      "constant": true,
      "inputs": [
        {
          "name": "_storage",
          "type": "address"
        }
      ],
      "name": "getSellPrice",
      "outputs": [
        {
          "name": "",
          "type": "uint256"
        }
      ],
      "payable": false,
      "stateMutability": "view",
      "type": "function"
    },
    {
      "constant": false,
      "inputs": [
        {
          "name": "_storage",
          "type": "address"
        },
        {
          "name": "value",
          "type": "uint256"
        }
      ],
      "name": "setSellPrice",
      "outputs": [],
      "payable": false,
      "stateMutability": "nonpayable",
      "type": "function"
    },
    {
      "constant": true,
      "inputs": [
        {
          "name": "_storage",
          "type": "address"
        }
      ],
      "name": "getCirculationCap",
      "outputs": [
        {
          "name": "",
          "type": "uint256"
        }
      ],
      "payable": false,
      "stateMutability": "view",
      "type": "function"
    },
    {
      "constant": false,
      "inputs": [
        {
          "name": "_storage",
          "type": "address"
        },
        {
          "name": "value",
          "type": "uint256"
        }
      ],
      "name": "setCirculationCap",
      "outputs": [],
      "payable": false,
      "stateMutability": "nonpayable",
      "type": "function"
    },
    {
      "constant": true,
      "inputs": [
        {
          "name": "_storage",
          "type": "address"
        },
        {
          "name": "beneficiary",
          "type": "address"
        }
      ],
      "name": "getVestingRevocable",
      "outputs": [
        {
          "name": "",
          "type": "bool"
        }
      ],
      "payable": false,
      "stateMutability": "view",
      "type": "function"
    },
    {
      "constant": false,
      "inputs": [
        {
          "name": "_storage",
          "type": "address"
        },
        {
          "name": "beneficiary",
          "type": "address"
        },
        {
          "name": "value",
          "type": "uint256"
        }
      ],
      "name": "setVestingReleasedAmount",
      "outputs": [],
      "payable": false,
      "stateMutability": "nonpayable",
      "type": "function"
    },
    {
      "constant": true,
      "inputs": [
        {
          "name": "_storage",
          "type": "address"
        },
        {
          "name": "beneficiary",
          "type": "address"
        }
      ],
      "name": "getVestingReleasedAmount",
      "outputs": [
        {
          "name": "",
          "type": "uint256"
        }
      ],
      "payable": false,
      "stateMutability": "view",
      "type": "function"
    },
    {
      "constant": true,
      "inputs": [
        {
          "name": "_storage",
          "type": "address"
        },
        {
          "name": "account",
          "type": "address"
        },
        {
          "name": "spender",
          "type": "address"
        }
      ],
      "name": "getAllowance",
      "outputs": [
        {
          "name": "",
          "type": "uint256"
        }
      ],
      "payable": false,
      "stateMutability": "view",
      "type": "function"
    },
    {
      "constant": false,
      "inputs": [
        {
          "name": "_storage",
          "type": "address"
        },
        {
          "name": "account",
          "type": "address"
        },
        {
          "name": "spender",
          "type": "address"
        },
        {
          "name": "allowance",
          "type": "uint256"
        }
      ],
      "name": "setAllowance",
      "outputs": [],
      "payable": false,
      "stateMutability": "nonpayable",
      "type": "function"
    }
  ],
  "bytecode": "0x610dfa610030600b82828239805160001a6073146000811461002057610022565bfe5b5030600052607381538281f3fe73000000000000000000000000000000000000000030146080604052600436106100f15763ffffffff7c01000000000000000000000000000000000000000000000000000000006000350416631112b12481146100f65780635cc95422146101315780636f0fccab1461017157806375d9daf9146101975780637d53223a146101d05780637f01bb381461021357806380f2fa031461025557806381a73ad51461027b5780639c473bb2146102a1578063a7070373146102da578063b5802ae614610323578063cd54c54e14610349578063cedc727714610382578063e6e623d5146103a8578063e7092b41146103e1575b600080fd5b81801561010257600080fd5b5061012f6004803603604081101561011957600080fd5b50600160a060020a038135169060200135610419565b005b61015f6004803603604081101561014757600080fd5b50600160a060020a03813581169160200135166104ca565b60408051918252519081900360200190f35b61015f6004803603602081101561018757600080fd5b5035600160a060020a0316610595565b8180156101a357600080fd5b5061012f600480360360408110156101ba57600080fd5b50600160a060020a038135169060200135610655565b8180156101dc57600080fd5b5061012f600480360360608110156101f357600080fd5b50600160a060020a038135811691602081013590911690604001356106ea565b6102416004803603604081101561022957600080fd5b50600160a060020a03813581169160200135166107a6565b604080519115158252519081900360200190f35b61015f6004803603602081101561026b57600080fd5b5035600160a060020a031661083e565b61015f6004803603602081101561029157600080fd5b5035600160a060020a03166108cc565b8180156102ad57600080fd5b5061012f600480360360408110156102c457600080fd5b50600160a060020a03813516906020013561095a565b8180156102e657600080fd5b5061012f600480360360808110156102fd57600080fd5b50600160a060020a038135811691602081013582169160408201351690606001356109ef565b61015f6004803603602081101561033957600080fd5b5035600160a060020a0316610ab4565b81801561035557600080fd5b5061012f6004803603604081101561036c57600080fd5b50600160a060020a038135169060200135610b42565b61015f6004803603602081101561039857600080fd5b5035600160a060020a0316610bd7565b8180156103b457600080fd5b5061012f600480360360408110156103cb57600080fd5b50600160a060020a038135169060200135610c65565b61015f600480360360608110156103f757600080fd5b50600160a060020a038135811691602081013582169160409091013516610cfa565b604080517f03d759370000000000000000000000000000000000000000000000000000000081526024810183905260048101829052600b60448201527f637374427579507269636500000000000000000000000000000000000000000060648201529051600160a060020a038416916303d7593791608480830192600092919082900301818387803b1580156104ae57600080fd5b505af11580156104c2573d6000803e3d6000fd5b505050505050565b604080517fa90cf6f4000000000000000000000000000000000000000000000000000000008152600160a060020a03838116602483015260048201839052601860448301527f63737456657374696e6752656c6561736564416d6f756e7400000000000000006064830152915160009285169163a90cf6f4916084808301926020929190829003018186803b15801561056257600080fd5b505afa158015610576573d6000803e3d6000fd5b505050506040513d602081101561058c57600080fd5b50519392505050565b604080517f7ec13996000000000000000000000000000000000000000000000000000000008152602060048201819052600c60248301527f637374546f6b656e4e616d65000000000000000000000000000000000000000060448301529151600092600160a060020a03851692637ec139969260648083019392829003018186803b15801561062357600080fd5b505afa158015610637573d6000803e3d6000fd5b505050506040513d602081101561064d57600080fd5b505192915050565b604080517f03d759370000000000000000000000000000000000000000000000000000000081526024810183905260048101829052600c60448201527f63737453656c6c5072696365000000000000000000000000000000000000000060648201529051600160a060020a038416916303d7593791608480830192600092919082900301818387803b1580156104ae57600080fd5b604080517f0cb1a3a9000000000000000000000000000000000000000000000000000000008152600160a060020a0384811660248301526044820184905260606004830152601860648301527f63737456657374696e6752656c6561736564416d6f756e7400000000000000006084830152915191851691630cb1a3a99160a48082019260009290919082900301818387803b15801561078957600080fd5b505af115801561079d573d6000803e3d6000fd5b50505050505050565b604080517fe671fab5000000000000000000000000000000000000000000000000000000008152600160a060020a03838116602483015260048201839052601360448301527f63737456657374696e675265766f6361626c65000000000000000000000000006064830152915160009285169163e671fab5916084808301926020929190829003018186803b15801561056257600080fd5b604080517f4f161245000000000000000000000000000000000000000000000000000000008152602060048201819052600c60248301527f63737453656c6c5072696365000000000000000000000000000000000000000060448301529151600092600160a060020a03851692634f1612459260648083019392829003018186803b15801561062357600080fd5b604080517f7ec13996000000000000000000000000000000000000000000000000000000008152602060048201819052600e60248301527f637374546f6b656e53796d626f6c00000000000000000000000000000000000060448301529151600092600160a060020a03851692637ec139969260648083019392829003018186803b15801561062357600080fd5b604080517f10278bc80000000000000000000000000000000000000000000000000000000081526024810183905260048101829052600c60448201527f637374546f6b656e4e616d65000000000000000000000000000000000000000060648201529051600160a060020a038416916310278bc891608480830192600092919082900301818387803b1580156104ae57600080fd5b604080517f1f69d230000000000000000000000000000000000000000000000000000000008152600160a060020a03858116602483015284811660448301526064820184905260806004830152600c60848301527f637374416c6c6f77616e6365000000000000000000000000000000000000000060a4830152915191861691631f69d2309160c48082019260009290919082900301818387803b158015610a9657600080fd5b505af1158015610aaa573d6000803e3d6000fd5b5050505050505050565b604080517f4f161245000000000000000000000000000000000000000000000000000000008152602060048201819052601160248301527f63737443697263756c6174696f6e43617000000000000000000000000000000060448301529151600092600160a060020a03851692634f1612459260648083019392829003018186803b15801561062357600080fd5b604080517f03d759370000000000000000000000000000000000000000000000000000000081526024810183905260048101829052601160448201527f63737443697263756c6174696f6e43617000000000000000000000000000000060648201529051600160a060020a038416916303d7593791608480830192600092919082900301818387803b1580156104ae57600080fd5b604080517f4f161245000000000000000000000000000000000000000000000000000000008152602060048201819052600b60248301527f637374427579507269636500000000000000000000000000000000000000000060448301529151600092600160a060020a03851692634f1612459260648083019392829003018186803b15801561062357600080fd5b604080517f10278bc80000000000000000000000000000000000000000000000000000000081526024810183905260048101829052600e60448201527f637374546f6b656e53796d626f6c00000000000000000000000000000000000060648201529051600160a060020a038416916310278bc891608480830192600092919082900301818387803b1580156104ae57600080fd5b604080517f088787a3000000000000000000000000000000000000000000000000000000008152600160a060020a038481166024830152838116604483015260606004830152600c60648301527f637374416c6c6f77616e636500000000000000000000000000000000000000006084830152915160009286169163088787a39160a4808301926020929190829003018186803b158015610d9a57600080fd5b505afa158015610dae573d6000803e3d6000fd5b505050506040513d6020811015610dc457600080fd5b505194935050505056fea165627a7a72305820ae89d58e794cf5792845f99f09dc16296f29cde72249c44ea2a3a673ed76abd40029",
  "source": "pragma solidity ^0.5.0;\nimport \"./interface/ExternalStorage.sol\";\n\nlibrary CstLibrary {\n\n  function getTokenName(address _storage) public view returns(bytes32) {\n    return ExternalStorage(_storage).getBytes32Value(\"cstTokenName\");\n  }\n\n  function setTokenName(address _storage, bytes32 tokenName) public {\n    ExternalStorage(_storage).setBytes32Value(\"cstTokenName\", tokenName);\n  }\n\n  function getTokenSymbol(address _storage) public view returns(bytes32) {\n    return ExternalStorage(_storage).getBytes32Value(\"cstTokenSymbol\");\n  }\n\n  function setTokenSymbol(address _storage, bytes32 tokenName) public {\n    ExternalStorage(_storage).setBytes32Value(\"cstTokenSymbol\", tokenName);\n  }\n\n  function getBuyPrice(address _storage) public view returns(uint256) {\n    return ExternalStorage(_storage).getUIntValue(\"cstBuyPrice\");\n  }\n\n  function setBuyPrice(address _storage, uint256 value) public {\n    ExternalStorage(_storage).setUIntValue(\"cstBuyPrice\", value);\n  }\n\n  function getSellPrice(address _storage) public view returns(uint256) {\n    return ExternalStorage(_storage).getUIntValue(\"cstSellPrice\");\n  }\n\n  function setSellPrice(address _storage, uint256 value) public {\n    ExternalStorage(_storage).setUIntValue(\"cstSellPrice\", value);\n  }\n\n  function getCirculationCap(address _storage) public view returns(uint256) {\n    return ExternalStorage(_storage).getUIntValue(\"cstCirculationCap\");\n  }\n\n  function setCirculationCap(address _storage, uint256 value) public {\n    ExternalStorage(_storage).setUIntValue(\"cstCirculationCap\", value);\n  }\n\n  function getVestingRevocable(address _storage, address beneficiary) public view returns(bool) {\n    return ExternalStorage(_storage).getBooleanMapValue(\"cstVestingRevocable\", beneficiary);\n  }\n\n  function setVestingReleasedAmount(address _storage, address beneficiary, uint256 value) public {\n    ExternalStorage(_storage).setLedgerValue(\"cstVestingReleasedAmount\", beneficiary, value);\n  }\n\n  function getVestingReleasedAmount(address _storage, address beneficiary) public view returns(uint256) {\n    return ExternalStorage(_storage).getLedgerValue(\"cstVestingReleasedAmount\", beneficiary);\n  }\n\n  function getAllowance(address _storage, address account, address spender) public view returns (uint256) {\n    return ExternalStorage(_storage).getMultiLedgerValue(\"cstAllowance\", account, spender);\n  }\n\n  function setAllowance(address _storage, address account, address spender, uint256 allowance) public {\n    ExternalStorage(_storage).setMultiLedgerValue(\"cstAllowance\", account, spender, allowance);\n  }\n\n\n\n\n\n}",
  "sourcePath": "/home/sergey/Documents/angels/2083nointerfaces/Angeles.VC-token-scrum-investing/contracts/admin/CstLibrary.sol",
  "compiler": {
    "name": "solc",
    "version": "0.5.0+commit.1d4f565a.Emscripten.clang"
  },
  "schemaVersion": "3.0.2",
  "updatedAt": "2019-04-03T12:24:01.770Z",
  "devdoc": {
    "methods": {}
  },
  "userdoc": {
    "methods": {}
  }
}