{
  "contractName": "CstLedger",
  "abi": [
    {
      "constant": true,
      "inputs": [],
      "name": "totalAdminsMapping",
      "outputs": [
        {
          "name": "",
          "type": "uint256"
        }
      ],
      "payable": false,
      "stateMutability": "view",
      "type": "function"
    },
    {
      "constant": false,
      "inputs": [
        {
          "name": "admin",
          "type": "address"
        }
      ],
      "name": "removeAdmin",
      "outputs": [],
      "payable": false,
      "stateMutability": "nonpayable",
      "type": "function"
    },
    {
      "constant": true,
      "inputs": [
        {
          "name": "",
          "type": "uint256"
        }
      ],
      "name": "adminsForIndex",
      "outputs": [
        {
          "name": "",
          "type": "address"
        }
      ],
      "payable": false,
      "stateMutability": "view",
      "type": "function"
    },
    {
      "constant": true,
      "inputs": [
        {
          "name": "",
          "type": "address"
        }
      ],
      "name": "admins",
      "outputs": [
        {
          "name": "",
          "type": "bool"
        }
      ],
      "payable": false,
      "stateMutability": "view",
      "type": "function"
    },
    {
      "constant": false,
      "inputs": [
        {
          "name": "admin",
          "type": "address"
        }
      ],
      "name": "removeSuperAdmin",
      "outputs": [],
      "payable": false,
      "stateMutability": "nonpayable",
      "type": "function"
    },
    {
      "constant": true,
      "inputs": [
        {
          "name": "",
          "type": "address"
        }
      ],
      "name": "accounts",
      "outputs": [
        {
          "name": "",
          "type": "bool"
        }
      ],
      "payable": false,
      "stateMutability": "view",
      "type": "function"
    },
    {
      "constant": false,
      "inputs": [
        {
          "name": "newowner",
          "type": "address"
        }
      ],
      "name": "ownable",
      "outputs": [],
      "payable": false,
      "stateMutability": "nonpayable",
      "type": "function"
    },
    {
      "constant": true,
      "inputs": [],
      "name": "_totalTokens",
      "outputs": [
        {
          "name": "",
          "type": "uint256"
        }
      ],
      "payable": false,
      "stateMutability": "view",
      "type": "function"
    },
    {
      "constant": false,
      "inputs": [
        {
          "name": "admin",
          "type": "address"
        }
      ],
      "name": "addAdmin",
      "outputs": [],
      "payable": false,
      "stateMutability": "nonpayable",
      "type": "function"
    },
    {
      "constant": true,
      "inputs": [],
      "name": "owner",
      "outputs": [
        {
          "name": "",
          "type": "address"
        }
      ],
      "payable": false,
      "stateMutability": "view",
      "type": "function"
    },
    {
      "constant": true,
      "inputs": [],
      "name": "ledgerCount",
      "outputs": [
        {
          "name": "",
          "type": "uint256"
        }
      ],
      "payable": false,
      "stateMutability": "view",
      "type": "function"
    },
    {
      "constant": true,
      "inputs": [],
      "name": "totalSuperAdminsMapping",
      "outputs": [
        {
          "name": "",
          "type": "uint256"
        }
      ],
      "payable": false,
      "stateMutability": "view",
      "type": "function"
    },
    {
      "constant": true,
      "inputs": [
        {
          "name": "",
          "type": "address"
        }
      ],
      "name": "superAdmins",
      "outputs": [
        {
          "name": "",
          "type": "bool"
        }
      ],
      "payable": false,
      "stateMutability": "view",
      "type": "function"
    },
    {
      "constant": false,
      "inputs": [
        {
          "name": "admin",
          "type": "address"
        }
      ],
      "name": "addSuperAdmin",
      "outputs": [],
      "payable": false,
      "stateMutability": "nonpayable",
      "type": "function"
    },
    {
      "constant": true,
      "inputs": [
        {
          "name": "",
          "type": "uint256"
        }
      ],
      "name": "accountForIndex",
      "outputs": [
        {
          "name": "",
          "type": "address"
        }
      ],
      "payable": false,
      "stateMutability": "view",
      "type": "function"
    },
    {
      "constant": true,
      "inputs": [
        {
          "name": "",
          "type": "uint256"
        }
      ],
      "name": "superAdminsForIndex",
      "outputs": [
        {
          "name": "",
          "type": "address"
        }
      ],
      "payable": false,
      "stateMutability": "view",
      "type": "function"
    },
    {
      "constant": true,
      "inputs": [
        {
          "name": "",
          "type": "address"
        }
      ],
      "name": "_balanceOf",
      "outputs": [
        {
          "name": "",
          "type": "uint256"
        }
      ],
      "payable": false,
      "stateMutability": "view",
      "type": "function"
    },
    {
      "constant": true,
      "inputs": [],
      "name": "_totalInCirculation",
      "outputs": [
        {
          "name": "",
          "type": "uint256"
        }
      ],
      "payable": false,
      "stateMutability": "view",
      "type": "function"
    },
    {
      "constant": false,
      "inputs": [
        {
          "name": "newOwner",
          "type": "address"
        }
      ],
      "name": "transferOwnership",
      "outputs": [],
      "payable": false,
      "stateMutability": "nonpayable",
      "type": "function"
    },
    {
      "anonymous": false,
      "inputs": [
        {
          "indexed": true,
          "name": "admin",
          "type": "address"
        }
      ],
      "name": "AddAdmin",
      "type": "event"
    },
    {
      "anonymous": false,
      "inputs": [
        {
          "indexed": true,
          "name": "admin",
          "type": "address"
        }
      ],
      "name": "RemoveAdmin",
      "type": "event"
    },
    {
      "anonymous": false,
      "inputs": [
        {
          "indexed": true,
          "name": "admin",
          "type": "address"
        }
      ],
      "name": "AddSuperAdmin",
      "type": "event"
    },
    {
      "anonymous": false,
      "inputs": [
        {
          "indexed": true,
          "name": "admin",
          "type": "address"
        }
      ],
      "name": "RemoveSuperAdmin",
      "type": "event"
    },
    {
      "anonymous": false,
      "inputs": [
        {
          "indexed": false,
          "name": "previousOwner",
          "type": "address"
        },
        {
          "indexed": false,
          "name": "newOwner",
          "type": "address"
        }
      ],
      "name": "OwnershipTransferred",
      "type": "event"
    },
    {
      "constant": true,
      "inputs": [],
      "name": "totalTokens",
      "outputs": [
        {
          "name": "",
          "type": "uint256"
        }
      ],
      "payable": false,
      "stateMutability": "view",
      "type": "function"
    },
    {
      "constant": true,
      "inputs": [],
      "name": "totalInCirculation",
      "outputs": [
        {
          "name": "",
          "type": "uint256"
        }
      ],
      "payable": false,
      "stateMutability": "view",
      "type": "function"
    },
    {
      "constant": true,
      "inputs": [
        {
          "name": "account",
          "type": "address"
        }
      ],
      "name": "balanceOf",
      "outputs": [
        {
          "name": "",
          "type": "uint256"
        }
      ],
      "payable": false,
      "stateMutability": "view",
      "type": "function"
    },
    {
      "constant": false,
      "inputs": [
        {
          "name": "amount",
          "type": "uint256"
        }
      ],
      "name": "mintTokens",
      "outputs": [],
      "payable": false,
      "stateMutability": "nonpayable",
      "type": "function"
    },
    {
      "constant": false,
      "inputs": [
        {
          "name": "sender",
          "type": "address"
        },
        {
          "name": "recipient",
          "type": "address"
        },
        {
          "name": "amount",
          "type": "uint256"
        }
      ],
      "name": "transfer",
      "outputs": [],
      "payable": false,
      "stateMutability": "nonpayable",
      "type": "function"
    },
    {
      "constant": false,
      "inputs": [
        {
          "name": "account",
          "type": "address"
        },
        {
          "name": "amount",
          "type": "uint256"
        }
      ],
      "name": "creditAccount",
      "outputs": [],
      "payable": false,
      "stateMutability": "nonpayable",
      "type": "function"
    },
    {
      "constant": false,
      "inputs": [
        {
          "name": "account",
          "type": "address"
        },
        {
          "name": "amount",
          "type": "uint256"
        }
      ],
      "name": "debitAccount",
      "outputs": [],
      "payable": false,
      "stateMutability": "nonpayable",
      "type": "function"
    }
  ],
  "bytecode": "0x608060405234801561001057600080fd5b50610eae806100206000396000f3fe6080604052600436106101535763ffffffff7c01000000000000000000000000000000000000000000000000000000006000350416630489882e81146101585780631785f53c1461017f578063313f2a21146101b4578063429b62e5146101fa5780634902e4aa146102415780634cfe3e7f146102745780635b7d9043146102ad5780635cb0c16f146102e65780635e5c06e2146102fb57806364a04b591461032e5780636956f3d514610361578063704802751461037657806370a08231146103a95780637e1c0c09146103dc5780638da5cb5b146103f157806397304ced146104065780639bb00ae314610430578063abf7b06314610445578063ad25cb421461045a578063b3292ff01461048d578063beabacc8146104c0578063bf18899f14610503578063c38943981461052d578063cca3e83214610557578063ec84c6891461058a578063f2fde38b1461059f575b600080fd5b34801561016457600080fd5b5061016d6105d2565b60408051918252519081900360200190f35b34801561018b57600080fd5b506101b2600480360360208110156101a257600080fd5b5035600160a060020a03166105d8565b005b3480156101c057600080fd5b506101de600480360360208110156101d757600080fd5b5035610664565b60408051600160a060020a039092168252519081900360200190f35b34801561020657600080fd5b5061022d6004803603602081101561021d57600080fd5b5035600160a060020a031661067f565b604080519115158252519081900360200190f35b34801561024d57600080fd5b506101b26004803603602081101561026457600080fd5b5035600160a060020a0316610694565b34801561028057600080fd5b506101b26004803603604081101561029757600080fd5b50600160a060020a0381351690602001356106f9565b3480156102b957600080fd5b506101b2600480360360408110156102d057600080fd5b50600160a060020a0381351690602001356107bd565b3480156102f257600080fd5b5061016d6108a0565b34801561030757600080fd5b5061022d6004803603602081101561031e57600080fd5b5035600160a060020a03166108a6565b34801561033a57600080fd5b506101b26004803603602081101561035157600080fd5b5035600160a060020a03166108bb565b34801561036d57600080fd5b5061016d6108e3565b34801561038257600080fd5b506101b26004803603602081101561039957600080fd5b5035600160a060020a03166108e9565b3480156103b557600080fd5b5061016d600480360360208110156103cc57600080fd5b5035600160a060020a0316610a03565b3480156103e857600080fd5b5061016d610a1e565b3480156103fd57600080fd5b506101de610a24565b34801561041257600080fd5b506101b26004803603602081101561042957600080fd5b5035610a33565b34801561043c57600080fd5b5061016d610aab565b34801561045157600080fd5b5061016d610ab1565b34801561046657600080fd5b5061022d6004803603602081101561047d57600080fd5b5035600160a060020a0316610ab7565b34801561049957600080fd5b506101b2600480360360208110156104b057600080fd5b5035600160a060020a0316610acc565b3480156104cc57600080fd5b506101b2600480360360608110156104e357600080fd5b50600160a060020a03813581169160208101359091169060400135610bc0565b34801561050f57600080fd5b506101de6004803603602081101561052657600080fd5b5035610cc9565b34801561053957600080fd5b506101de6004803603602081101561055057600080fd5b5035610ce4565b34801561056357600080fd5b5061016d6004803603602081101561057a57600080fd5b5035600160a060020a0316610cff565b34801561059657600080fd5b5061016d610d11565b3480156105ab57600080fd5b506101b2600480360360208110156105c257600080fd5b5035600160a060020a0316610d17565b60015481565b6105e0610a24565b600160a060020a031633600160a060020a03161415801561061157503360009081526006602052604090205460ff16155b1561061b57600080fd5b600160a060020a038116600081815260056020526040808220805460ff19169055517f753f40ca3312b2408759a67875b367955e7baa221daf08aa3d643d96202ac12b9190a250565b600360205260009081526040902054600160a060020a031681565b60056020526000908152604090205460ff1681565b61069c610a24565b600160a060020a031633146106b057600080fd5b600160a060020a038116600081815260066020526040808220805460ff19169055517f1aaaaf7609619e631f47eb3546f9fdd8c61b1af2175988a0ddb9a06680c3b9ed9190a250565b610701610a24565b600160a060020a031633600160a060020a03161415801561073257503360009081526006602052604090205460ff16155b801561074e57503360009081526005602052604090205460ff16155b1561075857600080fd5b60095461076b908263ffffffff610d9c16565b600955600160a060020a0382166000908152600b6020526040902054610797908263ffffffff610d9c16565b600160a060020a0383166000908152600b60205260409020556107b982610db2565b5050565b6107c5610a24565b600160a060020a031633600160a060020a0316141580156107f657503360009081526006602052604090205460ff16155b801561081257503360009081526005602052604090205460ff16155b1561081c57600080fd5b600160a060020a0382166000908152600b602052604090205481111561084157600080fd5b600954610854908263ffffffff610e4116565b600955600160a060020a0382166000908152600b6020526040902054610880908263ffffffff610e4116565b600160a060020a039092166000908152600b602052604090209190915550565b60095490565b600e6020526000908152604090205460ff1681565b6108c3610a24565b600160a060020a031633146108d757600080fd5b6108e081610e53565b50565b600a5481565b6108f1610a24565b600160a060020a031633600160a060020a03161415801561092257503360009081526006602052604090205460ff16155b1561092c57600080fd5b600160a060020a0381166000908152600560209081526040808320805460ff19166001179055600790915290205460ff1615156109cc57600160a060020a0381166000818152600760209081526040808320805460ff19166001908117909155805484526003909252909120805473ffffffffffffffffffffffffffffffffffffffff191690921790915580546109c89163ffffffff610d9c16565b6001555b604051600160a060020a038216907fad6de4452a631e641cb59902236607946ce9272b9b981f2f80e8d129cb9084ba90600090a250565b600160a060020a03166000908152600b602052604090205490565b600a5490565b600054600160a060020a031690565b610a3b610a24565b600160a060020a031633600160a060020a031614158015610a6c57503360009081526006602052604090205460ff16155b8015610a8857503360009081526005602052604090205460ff16155b15610a9257600080fd5b600a54610aa5908263ffffffff610d9c16565b600a5550565b600c5481565b60025481565b60066020526000908152604090205460ff1681565b610ad4610a24565b600160a060020a03163314610ae857600080fd5b600160a060020a0381166000908152600660209081526040808320805460ff19166001179055600890915290205460ff161515610b8957600160a060020a0381166000818152600860209081526040808320805460ff1916600190811790915560028054855260049093529220805473ffffffffffffffffffffffffffffffffffffffff19169093179092559054610b859163ffffffff610d9c16565b6002555b604051600160a060020a038216907ffba24c034afca607a35e1f221b154b3f8e1f88c7924c8a0a06755b70708c44d890600090a250565b610bc8610a24565b600160a060020a031633600160a060020a031614158015610bf957503360009081526006602052604090205460ff16155b8015610c1557503360009081526005602052604090205460ff16155b15610c1f57600080fd5b600160a060020a0383166000908152600b6020526040902054811115610c4457600080fd5b600160a060020a0383166000908152600b6020526040902054610c6d908263ffffffff610e4116565b600160a060020a038085166000908152600b60205260408082209390935590841681522054610ca2908263ffffffff610d9c16565b600160a060020a0383166000908152600b6020526040902055610cc482610db2565b505050565b600d60205260009081526040902054600160a060020a031681565b600460205260009081526040902054600160a060020a031681565b600b6020526000908152604090205481565b60095481565b610d1f610a24565b600160a060020a03163314610d3357600080fd5b600160a060020a0381161515610d4857600080fd5b7f8be0079c531659141344cd1fd0a4f28419497f9722a3daafe3b4186f6b6457e0610d71610a24565b60408051600160a060020a03928316815291841660208301528051918290030190a16108e081610e53565b600082820183811015610dab57fe5b9392505050565b600160a060020a0381166000908152600e602052604090205460ff1615156108e057600c80546000908152600d60205260409020805473ffffffffffffffffffffffffffffffffffffffff1916600160a060020a03841617905554610e18906001610d9c565b600c55600160a060020a0381166000908152600e60205260409020805460ff1916600117905550565b600082821115610e4d57fe5b50900390565b6000805473ffffffffffffffffffffffffffffffffffffffff1916600160a060020a039290921691909117905556fea165627a7a723058205f362bf23e76a126740984d53a91e9ba57a958c1272c1da150641381faebfc6c0029",
  "source": "pragma solidity ^0.5.0;\n\nimport \"./administratable.sol\";\nimport \"../libraries/SafeMath.sol\";\n\ncontract ITokenLedger {\n  function totalTokens() public view returns (uint256);\n  function totalInCirculation() public view returns (uint256);\n  function balanceOf(address account) public view returns (uint256);\n  function mintTokens(uint256 amount) public;\n  function transfer(address sender, address reciever, uint256 amount) public;\n  function creditAccount(address account, uint256 amount) public;\n  function debitAccount(address account, uint256 amount) public;\n  function addAdmin(address admin) public;\n  function removeAdmin(address admin) public;\n}\n\ncontract CstLedger is ITokenLedger, Administratable {\n\n  using SafeMath for uint256;\n\n  uint256 public _totalInCirculation; // warning this does not take into account unvested nor vested-unreleased tokens into consideration\n  uint256 public _totalTokens;\n  mapping (address => uint256) public _balanceOf;\n  uint256 public ledgerCount;\n  mapping (uint256 => address) public accountForIndex;\n  mapping (address => bool) public accounts;\n\n  function totalTokens() public view returns (uint256) {\n    return _totalTokens;\n  }\n\n  function totalInCirculation() public view returns (uint256) {\n    return _totalInCirculation;\n  }\n\n  function balanceOf(address account) public view returns (uint256) {\n    return _balanceOf[account];\n  }\n\n  function mintTokens(uint256 amount) public onlyAdmins {\n    _totalTokens = _totalTokens.add(amount);\n  }\n\n  function makeAccountIterable(address account) internal {\n    if (!accounts[account]) {\n      accountForIndex[ledgerCount] = account;\n      ledgerCount = ledgerCount.add(1);\n      accounts[account] = true;\n    }\n  }\n\n  function transfer(address sender, address recipient, uint256 amount) public onlyAdmins {\n    require(_balanceOf[sender] >= amount);\n\n    _balanceOf[sender] = _balanceOf[sender].sub(amount);\n    _balanceOf[recipient] = _balanceOf[recipient].add(amount);\n    makeAccountIterable(recipient);\n  }\n\n  function creditAccount(address account, uint256 amount) public onlyAdmins { // decrease asset/increase liability: remove tokens\n    require(_balanceOf[account] >= amount);\n\n    _totalInCirculation = _totalInCirculation.sub(amount);\n    _balanceOf[account] = _balanceOf[account].sub(amount);\n  }\n\n  function debitAccount(address account, uint256 amount) public onlyAdmins { // increase asset/decrease liability: add tokens\n    _totalInCirculation = _totalInCirculation.add(amount);\n    _balanceOf[account] = _balanceOf[account].add(amount);\n    makeAccountIterable(account);\n  }\n}",
  "sourcePath": "/home/sergey/Documents/angels/Angeles.VC-token-scrum-investing/contracts/admin/CstLedger.sol",
  "compiler": {
    "name": "solc",
    "version": "0.5.0+commit.1d4f565a.Emscripten.clang"
  },
  "schemaVersion": "3.0.2",
  "updatedAt": "2019-03-26T11:37:43.458Z",
  "devdoc": {
    "methods": {
      "ownable(address)": {
        "details": "The constructor sets the original owner of the contract to the sender account."
      },
      "owner()": {
        "details": "Tells the address of the owner",
        "return": "the address of the owner"
      },
      "transferOwnership(address)": {
        "details": "Allows the current owner to transfer control of the contract to a newOwner.",
        "params": {
          "newOwner": "The address to transfer ownership to."
        }
      }
    }
  },
  "userdoc": {
    "methods": {}
  }
}