{
  "contractName": "ExternalStorage",
  "abi": [
    {
      "constant": true,
      "inputs": [
        {
          "name": "",
          "type": "bytes32"
        }
      ],
      "name": "primaryLedgerCount",
      "outputs": [
        {
          "name": "",
          "type": "uint256"
        }
      ],
      "payable": false,
      "stateMutability": "view",
      "type": "function"
    },
    {
      "constant": true,
      "inputs": [],
      "name": "totalAdminsMapping",
      "outputs": [
        {
          "name": "",
          "type": "uint256"
        }
      ],
      "payable": false,
      "stateMutability": "view",
      "type": "function"
    },
    {
      "constant": true,
      "inputs": [
        {
          "name": "",
          "type": "bytes32"
        },
        {
          "name": "",
          "type": "uint256"
        }
      ],
      "name": "primaryLedgerEntryForIndex",
      "outputs": [
        {
          "name": "",
          "type": "address"
        }
      ],
      "payable": false,
      "stateMutability": "view",
      "type": "function"
    },
    {
      "constant": false,
      "inputs": [
        {
          "name": "admin",
          "type": "address"
        }
      ],
      "name": "removeAdmin",
      "outputs": [],
      "payable": false,
      "stateMutability": "nonpayable",
      "type": "function"
    },
    {
      "constant": true,
      "inputs": [
        {
          "name": "",
          "type": "bytes32"
        },
        {
          "name": "",
          "type": "address"
        },
        {
          "name": "",
          "type": "uint256"
        }
      ],
      "name": "secondaryLedgerEntryForIndex",
      "outputs": [
        {
          "name": "",
          "type": "address"
        }
      ],
      "payable": false,
      "stateMutability": "view",
      "type": "function"
    },
    {
      "constant": true,
      "inputs": [
        {
          "name": "",
          "type": "uint256"
        }
      ],
      "name": "adminsForIndex",
      "outputs": [
        {
          "name": "",
          "type": "address"
        }
      ],
      "payable": false,
      "stateMutability": "view",
      "type": "function"
    },
    {
      "constant": true,
      "inputs": [
        {
          "name": "",
          "type": "address"
        }
      ],
      "name": "admins",
      "outputs": [
        {
          "name": "",
          "type": "bool"
        }
      ],
      "payable": false,
      "stateMutability": "view",
      "type": "function"
    },
    {
      "constant": true,
      "inputs": [
        {
          "name": "",
          "type": "bytes32"
        },
        {
          "name": "",
          "type": "address"
        },
        {
          "name": "",
          "type": "address"
        }
      ],
      "name": "ledgerSecondaryEntries",
      "outputs": [
        {
          "name": "",
          "type": "bool"
        }
      ],
      "payable": false,
      "stateMutability": "view",
      "type": "function"
    },
    {
      "constant": false,
      "inputs": [
        {
          "name": "admin",
          "type": "address"
        }
      ],
      "name": "removeSuperAdmin",
      "outputs": [],
      "payable": false,
      "stateMutability": "nonpayable",
      "type": "function"
    },
    {
      "constant": false,
      "inputs": [
        {
          "name": "newowner",
          "type": "address"
        }
      ],
      "name": "ownable",
      "outputs": [],
      "payable": false,
      "stateMutability": "nonpayable",
      "type": "function"
    },
    {
      "constant": false,
      "inputs": [
        {
          "name": "admin",
          "type": "address"
        }
      ],
      "name": "addAdmin",
      "outputs": [],
      "payable": false,
      "stateMutability": "nonpayable",
      "type": "function"
    },
    {
      "constant": true,
      "inputs": [
        {
          "name": "",
          "type": "bytes32"
        },
        {
          "name": "",
          "type": "address"
        }
      ],
      "name": "secondaryLedgerCount",
      "outputs": [
        {
          "name": "",
          "type": "uint256"
        }
      ],
      "payable": false,
      "stateMutability": "view",
      "type": "function"
    },
    {
      "constant": true,
      "inputs": [
        {
          "name": "",
          "type": "bytes32"
        },
        {
          "name": "",
          "type": "address"
        }
      ],
      "name": "booleanMapAccounts",
      "outputs": [
        {
          "name": "",
          "type": "bool"
        }
      ],
      "payable": false,
      "stateMutability": "view",
      "type": "function"
    },
    {
      "constant": true,
      "inputs": [
        {
          "name": "",
          "type": "bytes32"
        }
      ],
      "name": "booleanMapCount",
      "outputs": [
        {
          "name": "",
          "type": "uint256"
        }
      ],
      "payable": false,
      "stateMutability": "view",
      "type": "function"
    },
    {
      "constant": true,
      "inputs": [
        {
          "name": "",
          "type": "bytes32"
        },
        {
          "name": "",
          "type": "address"
        }
      ],
      "name": "ledgerPrimaryEntries",
      "outputs": [
        {
          "name": "",
          "type": "bool"
        }
      ],
      "payable": false,
      "stateMutability": "view",
      "type": "function"
    },
    {
      "constant": true,
      "inputs": [],
      "name": "owner",
      "outputs": [
        {
          "name": "",
          "type": "address"
        }
      ],
      "payable": false,
      "stateMutability": "view",
      "type": "function"
    },
    {
      "constant": true,
      "inputs": [],
      "name": "totalSuperAdminsMapping",
      "outputs": [
        {
          "name": "",
          "type": "uint256"
        }
      ],
      "payable": false,
      "stateMutability": "view",
      "type": "function"
    },
    {
      "constant": true,
      "inputs": [
        {
          "name": "",
          "type": "address"
        }
      ],
      "name": "superAdmins",
      "outputs": [
        {
          "name": "",
          "type": "bool"
        }
      ],
      "payable": false,
      "stateMutability": "view",
      "type": "function"
    },
    {
      "constant": true,
      "inputs": [
        {
          "name": "",
          "type": "address"
        },
        {
          "name": "",
          "type": "address"
        }
      ],
      "name": "_investors",
      "outputs": [
        {
          "name": "approved_sum",
          "type": "uint256"
        },
        {
          "name": "invested_sum",
          "type": "uint256"
        }
      ],
      "payable": false,
      "stateMutability": "view",
      "type": "function"
    },
    {
      "constant": false,
      "inputs": [
        {
          "name": "admin",
          "type": "address"
        }
      ],
      "name": "addSuperAdmin",
      "outputs": [],
      "payable": false,
      "stateMutability": "nonpayable",
      "type": "function"
    },
    {
      "constant": true,
      "inputs": [
        {
          "name": "",
          "type": "bytes32"
        },
        {
          "name": "",
          "type": "uint256"
        }
      ],
      "name": "ledgerEntryForIndex",
      "outputs": [
        {
          "name": "",
          "type": "address"
        }
      ],
      "payable": false,
      "stateMutability": "view",
      "type": "function"
    },
    {
      "constant": true,
      "inputs": [
        {
          "name": "",
          "type": "bytes32"
        },
        {
          "name": "",
          "type": "uint256"
        }
      ],
      "name": "booleanMapEntryForIndex",
      "outputs": [
        {
          "name": "",
          "type": "address"
        }
      ],
      "payable": false,
      "stateMutability": "view",
      "type": "function"
    },
    {
      "constant": true,
      "inputs": [
        {
          "name": "",
          "type": "uint256"
        }
      ],
      "name": "superAdminsForIndex",
      "outputs": [
        {
          "name": "",
          "type": "address"
        }
      ],
      "payable": false,
      "stateMutability": "view",
      "type": "function"
    },
    {
      "constant": true,
      "inputs": [
        {
          "name": "",
          "type": "bytes32"
        }
      ],
      "name": "ledgerCount",
      "outputs": [
        {
          "name": "",
          "type": "uint256"
        }
      ],
      "payable": false,
      "stateMutability": "view",
      "type": "function"
    },
    {
      "constant": true,
      "inputs": [
        {
          "name": "",
          "type": "bytes32"
        },
        {
          "name": "",
          "type": "address"
        }
      ],
      "name": "ledgerAccounts",
      "outputs": [
        {
          "name": "",
          "type": "bool"
        }
      ],
      "payable": false,
      "stateMutability": "view",
      "type": "function"
    },
    {
      "constant": false,
      "inputs": [
        {
          "name": "newOwner",
          "type": "address"
        }
      ],
      "name": "transferOwnership",
      "outputs": [],
      "payable": false,
      "stateMutability": "nonpayable",
      "type": "function"
    },
    {
      "anonymous": false,
      "inputs": [
        {
          "indexed": true,
          "name": "admin",
          "type": "address"
        }
      ],
      "name": "AddAdmin",
      "type": "event"
    },
    {
      "anonymous": false,
      "inputs": [
        {
          "indexed": true,
          "name": "admin",
          "type": "address"
        }
      ],
      "name": "RemoveAdmin",
      "type": "event"
    },
    {
      "anonymous": false,
      "inputs": [
        {
          "indexed": true,
          "name": "admin",
          "type": "address"
        }
      ],
      "name": "AddSuperAdmin",
      "type": "event"
    },
    {
      "anonymous": false,
      "inputs": [
        {
          "indexed": true,
          "name": "admin",
          "type": "address"
        }
      ],
      "name": "RemoveSuperAdmin",
      "type": "event"
    },
    {
      "anonymous": false,
      "inputs": [
        {
          "indexed": false,
          "name": "previousOwner",
          "type": "address"
        },
        {
          "indexed": false,
          "name": "newOwner",
          "type": "address"
        }
      ],
      "name": "OwnershipTransferred",
      "type": "event"
    },
    {
      "constant": true,
      "inputs": [
        {
          "name": "record",
          "type": "string"
        },
        {
          "name": "primaryAddress",
          "type": "address"
        },
        {
          "name": "secondaryAddress",
          "type": "address"
        }
      ],
      "name": "getMultiLedgerValue",
      "outputs": [
        {
          "name": "",
          "type": "uint256"
        }
      ],
      "payable": false,
      "stateMutability": "view",
      "type": "function"
    },
    {
      "constant": false,
      "inputs": [
        {
          "name": "record",
          "type": "string"
        },
        {
          "name": "primaryAddress",
          "type": "address"
        },
        {
          "name": "secondaryAddress",
          "type": "address"
        },
        {
          "name": "value",
          "type": "uint256"
        }
      ],
      "name": "setMultiLedgerValue",
      "outputs": [],
      "payable": false,
      "stateMutability": "nonpayable",
      "type": "function"
    },
    {
      "constant": true,
      "inputs": [
        {
          "name": "record",
          "type": "string"
        },
        {
          "name": "_address",
          "type": "address"
        }
      ],
      "name": "getLedgerValue",
      "outputs": [
        {
          "name": "",
          "type": "uint256"
        }
      ],
      "payable": false,
      "stateMutability": "view",
      "type": "function"
    },
    {
      "constant": true,
      "inputs": [
        {
          "name": "record",
          "type": "string"
        }
      ],
      "name": "getLedgerCount",
      "outputs": [
        {
          "name": "",
          "type": "uint256"
        }
      ],
      "payable": false,
      "stateMutability": "view",
      "type": "function"
    },
    {
      "constant": false,
      "inputs": [
        {
          "name": "record",
          "type": "string"
        },
        {
          "name": "_address",
          "type": "address"
        },
        {
          "name": "value",
          "type": "uint256"
        }
      ],
      "name": "setLedgerValue",
      "outputs": [],
      "payable": false,
      "stateMutability": "nonpayable",
      "type": "function"
    },
    {
      "constant": true,
      "inputs": [
        {
          "name": "record",
          "type": "string"
        },
        {
          "name": "_address",
          "type": "address"
        }
      ],
      "name": "getBooleanMapValue",
      "outputs": [
        {
          "name": "",
          "type": "bool"
        }
      ],
      "payable": false,
      "stateMutability": "view",
      "type": "function"
    },
    {
      "constant": true,
      "inputs": [
        {
          "name": "record",
          "type": "string"
        }
      ],
      "name": "getBooleanMapCount",
      "outputs": [
        {
          "name": "",
          "type": "uint256"
        }
      ],
      "payable": false,
      "stateMutability": "view",
      "type": "function"
    },
    {
      "constant": false,
      "inputs": [
        {
          "name": "record",
          "type": "string"
        },
        {
          "name": "_address",
          "type": "address"
        },
        {
          "name": "value",
          "type": "bool"
        }
      ],
      "name": "setBooleanMapValue",
      "outputs": [],
      "payable": false,
      "stateMutability": "nonpayable",
      "type": "function"
    },
    {
      "constant": true,
      "inputs": [
        {
          "name": "record",
          "type": "string"
        }
      ],
      "name": "getUIntValue",
      "outputs": [
        {
          "name": "",
          "type": "uint256"
        }
      ],
      "payable": false,
      "stateMutability": "view",
      "type": "function"
    },
    {
      "constant": false,
      "inputs": [
        {
          "name": "record",
          "type": "string"
        },
        {
          "name": "value",
          "type": "uint256"
        }
      ],
      "name": "setUIntValue",
      "outputs": [],
      "payable": false,
      "stateMutability": "nonpayable",
      "type": "function"
    },
    {
      "constant": true,
      "inputs": [
        {
          "name": "record",
          "type": "string"
        }
      ],
      "name": "getBytes32Value",
      "outputs": [
        {
          "name": "",
          "type": "bytes32"
        }
      ],
      "payable": false,
      "stateMutability": "view",
      "type": "function"
    },
    {
      "constant": false,
      "inputs": [
        {
          "name": "record",
          "type": "string"
        },
        {
          "name": "value",
          "type": "bytes32"
        }
      ],
      "name": "setBytes32Value",
      "outputs": [],
      "payable": false,
      "stateMutability": "nonpayable",
      "type": "function"
    },
    {
      "constant": true,
      "inputs": [
        {
          "name": "record",
          "type": "string"
        }
      ],
      "name": "getAddressValue",
      "outputs": [
        {
          "name": "",
          "type": "address"
        }
      ],
      "payable": false,
      "stateMutability": "view",
      "type": "function"
    },
    {
      "constant": false,
      "inputs": [
        {
          "name": "record",
          "type": "string"
        },
        {
          "name": "value",
          "type": "address"
        }
      ],
      "name": "setAddressValue",
      "outputs": [],
      "payable": false,
      "stateMutability": "nonpayable",
      "type": "function"
    },
    {
      "constant": true,
      "inputs": [
        {
          "name": "record",
          "type": "string"
        }
      ],
      "name": "getBytesValue",
      "outputs": [
        {
          "name": "",
          "type": "bytes"
        }
      ],
      "payable": false,
      "stateMutability": "view",
      "type": "function"
    },
    {
      "constant": false,
      "inputs": [
        {
          "name": "record",
          "type": "string"
        },
        {
          "name": "value",
          "type": "bytes"
        }
      ],
      "name": "setBytesValue",
      "outputs": [],
      "payable": false,
      "stateMutability": "nonpayable",
      "type": "function"
    },
    {
      "constant": true,
      "inputs": [
        {
          "name": "record",
          "type": "string"
        }
      ],
      "name": "getBooleanValue",
      "outputs": [
        {
          "name": "",
          "type": "bool"
        }
      ],
      "payable": false,
      "stateMutability": "view",
      "type": "function"
    },
    {
      "constant": false,
      "inputs": [
        {
          "name": "record",
          "type": "string"
        },
        {
          "name": "value",
          "type": "bool"
        }
      ],
      "name": "setBooleanValue",
      "outputs": [],
      "payable": false,
      "stateMutability": "nonpayable",
      "type": "function"
    },
    {
      "constant": true,
      "inputs": [
        {
          "name": "record",
          "type": "string"
        }
      ],
      "name": "getIntValue",
      "outputs": [
        {
          "name": "",
          "type": "int256"
        }
      ],
      "payable": false,
      "stateMutability": "view",
      "type": "function"
    },
    {
      "constant": false,
      "inputs": [
        {
          "name": "record",
          "type": "string"
        },
        {
          "name": "value",
          "type": "int256"
        }
      ],
      "name": "setIntValue",
      "outputs": [],
      "payable": false,
      "stateMutability": "nonpayable",
      "type": "function"
    },
    {
      "constant": false,
      "inputs": [
        {
          "name": "_investor_address",
          "type": "address"
        },
        {
          "name": "currency",
          "type": "bytes32"
        }
      ],
      "name": "investorGet",
      "outputs": [],
      "payable": false,
      "stateMutability": "nonpayable",
      "type": "function"
    }
  ],
  "bytecode": "0x608060405234801561001057600080fd5b50612fff806100206000396000f3fe60806040526004361061023a5763ffffffff7c01000000000000000000000000000000000000000000000000000000006000350416630305357e811461023f57806303d759371461027b578063043baa03146103325780630489882e1461036b578063059f9ebf14610380578063088787a3146103cc5780630cb1a3a91461049557806310278bc8146105565780631785f53c1461060b578063199759db1461063e5780631f69d2301461067d578063313f2a21146107485780633d8f89d714610772578063413c6d1314610827578063429b62e5146108e55780634463d9ec1461092c5780634902e4aa1461096d5780634f161245146109a05780634f6acaa114610a5357806364a04b5914610b065780636e22d33e14610b395780637048027514610c61578063740ca23c14610c945780637ec1399614610ccd5780637ffcd79f14610d8057806383e835e014610db95780638552527714610de3578063877c218414610e1c5780638da5cb5b14610ecf5780638de2165014610ee4578063929268b814610f97578063a90cf6f41461105a578063abd6ff8e14611118578063abf7b063146111cd578063ad25cb42146111e2578063ad53061914611215578063b3292ff014611269578063bf3c11201461129c578063c04dc73b146113d6578063c0b3ac9314611406578063c389439814611436578063d3f742dc14611460578063e671fab51461148a578063e89bc86b14611548578063e8d39d07146115fb578063f2fde38b14611634578063fd25568314611667575b600080fd5b34801561024b57600080fd5b506102696004803603602081101561026257600080fd5b503561171a565b60408051918252519081900360200190f35b34801561028757600080fd5b506103306004803603604081101561029e57600080fd5b8101906020810181356401000000008111156102b957600080fd5b8201836020820111156102cb57600080fd5b803590602001918460018302840111640100000000831117156102ed57600080fd5b91908080601f016020809104026020016040519081016040528093929190818152602001838380828437600092019190915250929550509135925061172c915050565b005b34801561033e57600080fd5b506103306004803603604081101561035557600080fd5b50600160a060020a03813516906020013561182c565b34801561037757600080fd5b50610269611830565b34801561038c57600080fd5b506103b0600480360360408110156103a357600080fd5b5080359060200135611836565b60408051600160a060020a039092168252519081900360200190f35b3480156103d857600080fd5b50610269600480360360608110156103ef57600080fd5b81019060208101813564010000000081111561040a57600080fd5b82018360208201111561041c57600080fd5b8035906020019184600183028401116401000000008311171561043e57600080fd5b91908080601f01602080910402602001604051908101604052809392919081815260200183838082843760009201919091525092955050600160a060020a03833581169450602090930135909216915061185c9050565b3480156104a157600080fd5b50610330600480360360608110156104b857600080fd5b8101906020810181356401000000008111156104d357600080fd5b8201836020820111156104e557600080fd5b8035906020019184600183028401116401000000008311171561050757600080fd5b91908080601f01602080910402602001604051908101604052809392919081815260200183838082843760009201919091525092955050600160a060020a038335169350505060200135611922565b34801561056257600080fd5b506103306004803603604081101561057957600080fd5b81019060208101813564010000000081111561059457600080fd5b8201836020820111156105a657600080fd5b803590602001918460018302840111640100000000831117156105c857600080fd5b91908080601f0160208091040260200160405190810160405280939291908181526020018383808284376000920191909152509295505091359250611ae0915050565b34801561061757600080fd5b506103306004803603602081101561062e57600080fd5b5035600160a060020a0316611b84565b34801561064a57600080fd5b506103b06004803603606081101561066157600080fd5b50803590600160a060020a036020820135169060400135611c10565b34801561068957600080fd5b50610330600480360360808110156106a057600080fd5b8101906020810181356401000000008111156106bb57600080fd5b8201836020820111156106cd57600080fd5b803590602001918460018302840111640100000000831117156106ef57600080fd5b91908080601f01602080910402602001604051908101604052809392919081815260200183838082843760009201919091525092955050600160a060020a0383358116945060208401351692604001359150611c3c9050565b34801561075457600080fd5b506103b06004803603602081101561076b57600080fd5b5035611ee3565b34801561077e57600080fd5b506103306004803603604081101561079557600080fd5b8101906020810181356401000000008111156107b057600080fd5b8201836020820111156107c257600080fd5b803590602001918460018302840111640100000000831117156107e457600080fd5b91908080601f0160208091040260200160405190810160405280939291908181526020018383808284376000920191909152509295505050503515159050611efe565b34801561083357600080fd5b506103306004803603604081101561084a57600080fd5b81019060208101813564010000000081111561086557600080fd5b82018360208201111561087757600080fd5b8035906020019184600183028401116401000000008311171561089957600080fd5b91908080601f01602080910402602001604051908101604052809392919081815260200183838082843760009201919091525092955050509035600160a060020a0316915061200c9050565b3480156108f157600080fd5b506109186004803603602081101561090857600080fd5b5035600160a060020a031661212f565b604080519115158252519081900360200190f35b34801561093857600080fd5b506109186004803603606081101561094f57600080fd5b50803590600160a060020a0360208201358116916040013516612144565b34801561097957600080fd5b506103306004803603602081101561099057600080fd5b5035600160a060020a031661216a565b3480156109ac57600080fd5b50610269600480360360208110156109c357600080fd5b8101906020810181356401000000008111156109de57600080fd5b8201836020820111156109f057600080fd5b80359060200191846001830284011164010000000083111715610a1257600080fd5b91908080601f0160208091040260200160405190810160405280939291908181526020018383808284376000920191909152509295506121cf945050505050565b348015610a5f57600080fd5b5061026960048036036020811015610a7657600080fd5b810190602081018135640100000000811115610a9157600080fd5b820183602082011115610aa357600080fd5b80359060200191846001830284011164010000000083111715610ac557600080fd5b91908080601f016020809104026020016040519081016040528093929190818152602001838380828437600092019190915250929550612274945050505050565b348015610b1257600080fd5b5061033060048036036020811015610b2957600080fd5b5035600160a060020a03166122ba565b348015610b4557600080fd5b50610bec60048036036020811015610b5c57600080fd5b810190602081018135640100000000811115610b7757600080fd5b820183602082011115610b8957600080fd5b80359060200191846001830284011164010000000083111715610bab57600080fd5b91908080601f0160208091040260200160405190810160405280939291908181526020018383808284376000920191909152509295506122e2945050505050565b6040805160208082528351818301528351919283929083019185019080838360005b83811015610c26578181015183820152602001610c0e565b50505050905090810190601f168015610c535780820380516001836020036101000a031916815260200191505b509250505060405180910390f35b348015610c6d57600080fd5b5061033060048036036020811015610c8457600080fd5b5035600160a060020a0316612412565b348015610ca057600080fd5b5061026960048036036040811015610cb757600080fd5b5080359060200135600160a060020a031661251f565b348015610cd957600080fd5b5061026960048036036020811015610cf057600080fd5b810190602081018135640100000000811115610d0b57600080fd5b820183602082011115610d1d57600080fd5b80359060200191846001830284011164010000000083111715610d3f57600080fd5b91908080601f01602080910402602001604051908101604052809392919081815260200183838082843760009201919091525092955061253c945050505050565b348015610d8c57600080fd5b5061091860048036036040811015610da357600080fd5b5080359060200135600160a060020a0316612582565b348015610dc557600080fd5b5061026960048036036020811015610ddc57600080fd5b50356125a2565b348015610def57600080fd5b5061091860048036036040811015610e0657600080fd5b5080359060200135600160a060020a03166125b4565b348015610e2857600080fd5b5061026960048036036020811015610e3f57600080fd5b810190602081018135640100000000811115610e5a57600080fd5b820183602082011115610e6c57600080fd5b80359060200191846001830284011164010000000083111715610e8e57600080fd5b91908080601f0160208091040260200160405190810160405280939291908181526020018383808284376000920191909152509295506125d4945050505050565b348015610edb57600080fd5b506103b061261a565b348015610ef057600080fd5b5061091860048036036020811015610f0757600080fd5b810190602081018135640100000000811115610f2257600080fd5b820183602082011115610f3457600080fd5b80359060200191846001830284011164010000000083111715610f5657600080fd5b91908080601f01602080910402602001604051908101604052809392919081815260200183838082843760009201919091525092955061262a945050505050565b348015610fa357600080fd5b5061033060048036036060811015610fba57600080fd5b810190602081018135640100000000811115610fd557600080fd5b820183602082011115610fe757600080fd5b8035906020019184600183028401116401000000008311171561100957600080fd5b91908080601f01602080910402602001604051908101604052809392919081815260200183838082843760009201919091525092955050600160a060020a03833516935050506020013515156126d1565b34801561106657600080fd5b506102696004803603604081101561107d57600080fd5b81019060208101813564010000000081111561109857600080fd5b8201836020820111156110aa57600080fd5b803590602001918460018302840111640100000000831117156110cc57600080fd5b91908080601f01602080910402602001604051908101604052809392919081815260200183838082843760009201919091525092955050509035600160a060020a0316915061289e9050565b34801561112457600080fd5b506103306004803603604081101561113b57600080fd5b81019060208101813564010000000081111561115657600080fd5b82018360208201111561116857600080fd5b8035906020019184600183028401116401000000008311171561118a57600080fd5b91908080601f0160208091040260200160405190810160405280939291908181526020018383808284376000920191909152509295505091359250612958915050565b3480156111d957600080fd5b506102696129fc565b3480156111ee57600080fd5b506109186004803603602081101561120557600080fd5b5035600160a060020a0316612a02565b34801561122157600080fd5b506112506004803603604081101561123857600080fd5b50600160a060020a0381358116916020013516612a17565b6040805192835260208301919091528051918290030190f35b34801561127557600080fd5b506103306004803603602081101561128c57600080fd5b5035600160a060020a0316612a3b565b3480156112a857600080fd5b50610330600480360360408110156112bf57600080fd5b8101906020810181356401000000008111156112da57600080fd5b8201836020820111156112ec57600080fd5b8035906020019184600183028401116401000000008311171561130e57600080fd5b91908080601f016020809104026020016040519081016040528093929190818152602001838380828437600092019190915250929594936020810193503591505064010000000081111561136157600080fd5b82018360208201111561137357600080fd5b8035906020019184600183028401116401000000008311171561139557600080fd5b91908080601f016020809104026020016040519081016040528093929190818152602001838380828437600092019190915250929550612b22945050505050565b3480156113e257600080fd5b506103b0600480360360408110156113f957600080fd5b5080359060200135612c35565b34801561141257600080fd5b506103b06004803603604081101561142957600080fd5b5080359060200135612c5b565b34801561144257600080fd5b506103b06004803603602081101561145957600080fd5b5035612c81565b34801561146c57600080fd5b506102696004803603602081101561148357600080fd5b5035612c9c565b34801561149657600080fd5b50610918600480360360408110156114ad57600080fd5b8101906020810181356401000000008111156114c857600080fd5b8201836020820111156114da57600080fd5b803590602001918460018302840111640100000000831117156114fc57600080fd5b91908080601f01602080910402602001604051908101604052809392919081815260200183838082843760009201919091525092955050509035600160a060020a03169150612cae9050565b34801561155457600080fd5b506102696004803603602081101561156b57600080fd5b81019060208101813564010000000081111561158657600080fd5b82018360208201111561159857600080fd5b803590602001918460018302840111640100000000831117156115ba57600080fd5b91908080601f016020809104026020016040519081016040528093929190818152602001838380828437600092019190915250929550612d6b945050505050565b34801561160757600080fd5b506109186004803603604081101561161e57600080fd5b5080359060200135600160a060020a0316612db1565b34801561164057600080fd5b506103306004803603602081101561165757600080fd5b5035600160a060020a0316612dd1565b34801561167357600080fd5b506103b06004803603602081101561168a57600080fd5b8101906020810181356401000000008111156116a557600080fd5b8201836020820111156116b757600080fd5b803590602001918460018302840111640100000000831117156116d957600080fd5b91908080601f016020809104026020016040519081016040528093929190818152602001838380828437600092019190915250929550612e56945050505050565b600a6020526000908152604090205481565b61173461261a565b600160a060020a031633600160a060020a03161415801561176557503360009081526006602052604090205460ff16155b801561178157503360009081526005602052604090205460ff16155b1561178b57600080fd5b8060196000846040516020018080602001828103825283818151815260200191508051906020019080838360005b838110156117d15781810151838201526020016117b9565b50505050905090810190601f1680156117fe5780820380516001836020036101000a031916815260200191505b5060408051601f19818403018152918152815160209283012086529085019590955250505001600020555050565b5050565b60015481565b600c602090815260009283526040808420909152908252902054600160a060020a031681565b600060096000856040516020018080602001828103825283818151815260200191508051906020019080838360005b838110156118a357818101518382015260200161188b565b50505050905090810190601f1680156118d05780820380516001836020036101000a031916815260200191505b5060408051808303601f1901815291815281516020928301208652858201969096529385016000908120600160a060020a03998a16825285528581209790981688525050509290925250902054919050565b61192a61261a565b600160a060020a031633600160a060020a03161415801561195b57503360009081526006602052604090205460ff16155b801561197757503360009081526005602052604090205460ff16155b1561198157600080fd5b6000836040516020018080602001828103825283818151815260200191508051906020019080838360005b838110156119c45781810151838201526020016119ac565b50505050905090810190601f1680156119f15780820380516001836020036101000a031916815260200191505b5060408051601f198184030181529181528151602092830120600081815260138452828120600160a060020a038b16825290935291205490945060ff1615159250611ab791505057600081815260126020908152604080832054601483528184208185529092529091208054600160a060020a031916600160a060020a038616179055611a7f816001612f03565b60008381526012602090815260408083209390935560138152828220600160a060020a0388168352905220805460ff19166001179055505b6000908152601160209081526040808320600160a060020a039095168352939052919091205550565b611ae861261a565b600160a060020a031633600160a060020a031614158015611b1957503360009081526006602052604090205460ff16155b8015611b3557503360009081526005602052604090205460ff16155b15611b3f57600080fd5b80601a600084604051602001808060200182810382528381815181526020019150805190602001908083836000838110156117d15781810151838201526020016117b9565b611b8c61261a565b600160a060020a031633600160a060020a031614158015611bbd57503360009081526006602052604090205460ff16155b15611bc757600080fd5b600160a060020a038116600081815260056020526040808220805460ff19169055517f753f40ca3312b2408759a67875b367955e7baa221daf08aa3d643d96202ac12b9190a250565b600f602090815260009384526040808520825292845282842090528252902054600160a060020a031681565b611c4461261a565b600160a060020a031633600160a060020a031614158015611c7557503360009081526006602052604090205460ff16155b8015611c9157503360009081526005602052604090205460ff16155b15611c9b57600080fd5b6000846040516020018080602001828103825283818151815260200191508051906020019080838360005b83811015611cde578181015183820152602001611cc6565b50505050905090810190601f168015611d0b5780820380516001836020036101000a031916815260200191505b5060408051601f1981840301815291815281516020928301206000818152600a845282812054600d8552838220600160a060020a03808e1680855291875285842054858552600e8852868520928552918752858420908d1684529095529290205490965090945090925060ff1615159050611ead576000838152600f60209081526040808320600160a060020a038a811685529083528184208585529092529091208054600160a060020a031916918716919091179055611dcd816001612f03565b6000848152600d60209081526040808320600160a060020a03808c1680865291845282852095909555878452600e83528184208185528352818420948a168452938252808320805460ff19166001179055868352600b8252808320938352929052205460ff161515611ead576000838152600c6020908152604080832085845290915290208054600160a060020a031916600160a060020a038816179055611e76826001612f03565b6000848152600a6020908152604080832093909355600b8152828220600160a060020a038a168352905220805460ff191660011790555b50506000908152600960209081526040808320600160a060020a0396871684528252808320949095168252929092529190205550565b600360205260009081526040902054600160a060020a031681565b611f0661261a565b600160a060020a031633600160a060020a031614158015611f3757503360009081526006602052604090205460ff16155b8015611f5357503360009081526005602052604090205460ff16155b15611f5d57600080fd5b80601d6000846040516020018080602001828103825283818151815260200191508051906020019080838360005b83811015611fa3578181015183820152602001611f8b565b50505050905090810190601f168015611fd05780820380516001836020036101000a031916815260200191505b5060408051808303601f19018152918152815160209283012086529085019590955250505001600020805460ff19169115159190911790555050565b61201461261a565b600160a060020a031633600160a060020a03161415801561204557503360009081526006602052604090205460ff16155b801561206157503360009081526005602052604090205460ff16155b1561206b57600080fd5b80601b6000846040516020018080602001828103825283818151815260200191508051906020019080838360005b838110156120b1578181015183820152602001612099565b50505050905090810190601f1680156120de5780820380516001836020036101000a031916815260200191505b509250505060405160208183030381529060405280519060200120815260200190815260200160002060006101000a815481600160a060020a030219169083600160a060020a031602179055505050565b60056020526000908152604090205460ff1681565b600e60209081526000938452604080852082529284528284209052825290205460ff1681565b61217261261a565b600160a060020a0316331461218657600080fd5b600160a060020a038116600081815260066020526040808220805460ff19169055517f1aaaaf7609619e631f47eb3546f9fdd8c61b1af2175988a0ddb9a06680c3b9ed9190a250565b600060196000836040516020018080602001828103825283818151815260200191508051906020019080838360005b838110156122165781810151838201526020016121fe565b50505050905090810190601f1680156122435780820380516001836020036101000a031916815260200191505b5092505050604051602081830303815290604052805190602001208152602001908152602001600020549050919050565b60006012600083604051602001808060200182810382528381815181526020019150805190602001908083836000838110156122165781810151838201526020016121fe565b6122c261261a565b600160a060020a031633146122d657600080fd5b6122df81612f19565b50565b6060601c6000836040516020018080602001828103825283818151815260200191508051906020019080838360005b83811015612329578181015183820152602001612311565b50505050905090810190601f1680156123565780820380516001836020036101000a031916815260200191505b5060408051601f19818403018152918152815160209283012086528582019690965293850160002080548651601f600260001961010060018616150201909316929092049182018790048702810187019097528087529094909350850191508390508280156124065780601f106123db57610100808354040283529160200191612406565b820191906000526020600020905b8154815290600101906020018083116123e957829003601f168201915b50505050509050919050565b61241a61261a565b600160a060020a031633600160a060020a03161415801561244b57503360009081526006602052604090205460ff16155b1561245557600080fd5b600160a060020a0381166000908152600560209081526040808320805460ff19166001179055600790915290205460ff1615156124e857600160a060020a0381166000818152600760209081526040808320805460ff191660019081179091558054845260039092529091208054600160a060020a03191690921790915580546124e49163ffffffff612f0316565b6001555b604051600160a060020a038216907fad6de4452a631e641cb59902236607946ce9272b9b981f2f80e8d129cb9084ba90600090a250565b600d60209081526000928352604080842090915290825290205481565b6000601a600083604051602001808060200182810382528381815181526020019150805190602001908083836000838110156122165781810151838201526020016121fe565b601760209081526000928352604080842090915290825290205460ff1681565b60166020526000908152604090205481565b600b60209081526000928352604080842090915290825290205460ff1681565b6000601e600083604051602001808060200182810382528381815181526020019150805190602001908083836000838110156122165781810151838201526020016121fe565b600054600160a060020a03165b90565b6000601d6000836040516020018080602001828103825283818151815260200191508051906020019080838360005b83811015612671578181015183820152602001612659565b50505050905090810190601f16801561269e5780820380516001836020036101000a031916815260200191505b5060408051808303601f190181529181528151602092830120865290850195909552505050016000205460ff1692915050565b6126d961261a565b600160a060020a031633600160a060020a03161415801561270a57503360009081526006602052604090205460ff16155b801561272657503360009081526005602052604090205460ff16155b1561273057600080fd5b6000836040516020018080602001828103825283818151815260200191508051906020019080838360005b8381101561277357818101518382015260200161275b565b50505050905090810190601f1680156127a05780820380516001836020036101000a031916815260200191505b5060408051601f198184030181529181528151602092830120600081815260178452828120600160a060020a038b16825290935291205490945060ff161515925061286691505057600081815260166020908152604080832054601883528184208185529092529091208054600160a060020a031916600160a060020a03861617905561282e816001612f03565b60008381526016602090815260408083209390935560178152828220600160a060020a0388168352905220805460ff19166001179055505b6000908152601560209081526040808320600160a060020a0395909516835293905291909120805460ff191691151591909117905550565b600060116000846040516020018080602001828103825283818151815260200191508051906020019080838360005b838110156128e55781810151838201526020016128cd565b50505050905090810190601f1680156129125780820380516001836020036101000a031916815260200191505b5060408051601f1981840301815291815281516020928301208652858201969096529385016000908120600160a060020a03891682529094525050502054905092915050565b61296061261a565b600160a060020a031633600160a060020a03161415801561299157503360009081526006602052604090205460ff16155b80156129ad57503360009081526005602052604090205460ff16155b156129b757600080fd5b80601e600084604051602001808060200182810382528381815181526020019150805190602001908083836000838110156117d15781810151838201526020016117b9565b60025481565b60066020526000908152604090205460ff1681565b60106020908152600092835260408084209091529082529020805460019091015482565b612a4361261a565b600160a060020a03163314612a5757600080fd5b600160a060020a0381166000908152600660209081526040808320805460ff19166001179055600890915290205460ff161515612aeb57600160a060020a0381166000818152600860209081526040808320805460ff19166001908117909155600280548552600490935292208054600160a060020a0319169093179092559054612ae79163ffffffff612f0316565b6002555b604051600160a060020a038216907ffba24c034afca607a35e1f221b154b3f8e1f88c7924c8a0a06755b70708c44d890600090a250565b612b2a61261a565b600160a060020a031633600160a060020a031614158015612b5b57503360009081526006602052604090205460ff16155b8015612b7757503360009081526005602052604090205460ff16155b15612b8157600080fd5b80601c6000846040516020018080602001828103825283818151815260200191508051906020019080838360005b83811015612bc7578181015183820152602001612baf565b50505050905090810190601f168015612bf45780820380516001836020036101000a031916815260200191505b50925050506040516020818303038152906040528051906020012081526020019081526020016000209080519060200190612c30929190612f3b565b505050565b6014602090815260009283526040808420909152908252902054600160a060020a031681565b6018602090815260009283526040808420909152908252902054600160a060020a031681565b600460205260009081526040902054600160a060020a031681565b60126020526000908152604090205481565b600060156000846040516020018080602001828103825283818151815260200191508051906020019080838360005b83811015612cf5578181015183820152602001612cdd565b50505050905090810190601f168015612d225780820380516001836020036101000a031916815260200191505b5060408051601f1981840301815291815281516020928301208652858201969096529385016000908120600160a060020a0389168252909452505050205460ff16905092915050565b60006016600083604051602001808060200182810382528381815181526020019150805190602001908083836000838110156122165781810151838201526020016121fe565b601360209081526000928352604080842090915290825290205460ff1681565b612dd961261a565b600160a060020a03163314612ded57600080fd5b600160a060020a0381161515612e0257600080fd5b7f8be0079c531659141344cd1fd0a4f28419497f9722a3daafe3b4186f6b6457e0612e2b61261a565b60408051600160a060020a03928316815291841660208301528051918290030190a16122df81612f19565b6000601b6000836040516020018080602001828103825283818151815260200191508051906020019080838360005b83811015612e9d578181015183820152602001612e85565b50505050905090810190601f168015612eca5780820380516001836020036101000a031916815260200191505b5060408051808303601f1901815291815281516020928301208652908501959095525050500160002054600160a060020a031692915050565b600082820183811015612f1257fe5b9392505050565b60008054600160a060020a031916600160a060020a0392909216919091179055565b828054600181600116156101000203166002900490600052602060002090601f016020900481019282601f10612f7c57805160ff1916838001178555612fa9565b82800160010185558215612fa9579182015b82811115612fa9578251825591602001919060010190612f8e565b50612fb5929150612fb9565b5090565b61262791905b80821115612fb55760008155600101612fbf56fea165627a7a723058204683481eea214ec493e11de19e2c408b86b58172b0bb9eb1d640878b06fa89fa0029",
  "source": "pragma solidity ^0.5.0;\n\nimport \"../libraries/SafeMath.sol\";\nimport \"./administratable.sol\";\n\ncontract ExternalStorage is Administratable {\n  using SafeMath for uint256;\n\n  mapping(bytes32 => mapping(address => mapping(address => uint256))) MultiLedgerStorage;\n  mapping(bytes32 => uint256) public primaryLedgerCount;\n  mapping(bytes32 => mapping(address => bool)) public ledgerPrimaryEntries;\n  mapping(bytes32 => mapping(uint256 => address)) public primaryLedgerEntryForIndex;\n  mapping(bytes32 => mapping(address => uint256)) public secondaryLedgerCount;\n  mapping(bytes32 => mapping(address => mapping(address => bool))) public ledgerSecondaryEntries;\n  mapping(bytes32 => mapping(address => mapping(uint256 => address))) public secondaryLedgerEntryForIndex;\n\n  // KYC & investors\n  struct currencies {\n        uint256 approved_sum;\n        uint256 invested_sum;\n    }\n\n     mapping (address => mapping (address => currencies)) public _investors;\n\n\n  function getMultiLedgerValue(string memory record, address primaryAddress, address secondaryAddress) public view returns (uint256) {\n    return MultiLedgerStorage[keccak256(abi.encode(record))][primaryAddress][secondaryAddress];\n  }\n\n  function setMultiLedgerValue(string memory record, address primaryAddress, address secondaryAddress, uint256 value) public onlyAdmins {\n    bytes32 hash = keccak256(abi.encode(record));\n    uint256 primaryLedgerIndex = primaryLedgerCount[hash];\n    uint256 secondaryLedgerIndex = secondaryLedgerCount[hash][primaryAddress];\n    if (!ledgerSecondaryEntries[hash][primaryAddress][secondaryAddress]) {\n      secondaryLedgerEntryForIndex[hash][primaryAddress][secondaryLedgerIndex] = secondaryAddress;\n      secondaryLedgerCount[hash][primaryAddress] = secondaryLedgerIndex.add(1);\n      ledgerSecondaryEntries[hash][primaryAddress][secondaryAddress] = true;\n\n      if (!ledgerPrimaryEntries[hash][primaryAddress]) {\n        primaryLedgerEntryForIndex[hash][primaryLedgerIndex] = primaryAddress;\n        primaryLedgerCount[hash] = primaryLedgerIndex.add(1);\n        ledgerPrimaryEntries[hash][primaryAddress] = true;\n      }\n    }\n\n    MultiLedgerStorage[hash][primaryAddress][secondaryAddress] = value;\n  }\n\n  mapping(bytes32 => mapping(address => uint256)) LedgerStorage;\n  mapping(bytes32 => uint256) public ledgerCount;\n  mapping(bytes32 => mapping(address => bool)) public ledgerAccounts;\n  mapping(bytes32 => mapping(uint256 => address)) public ledgerEntryForIndex;\n\n  function getLedgerValue(string memory record, address _address) public view returns (uint256) {\n    return LedgerStorage[keccak256(abi.encode(record))][_address];\n  }\n\n  function getLedgerCount(string memory record) public view returns (uint256) {\n    return ledgerCount[keccak256(abi.encode(record))];\n  }\n\n  function setLedgerValue(string memory record, address _address, uint256 value) public onlyAdmins {\n    bytes32 hash = keccak256(abi.encode(record));\n    if (!ledgerAccounts[hash][_address]) {\n      uint256 ledgerIndex = ledgerCount[hash];\n      ledgerEntryForIndex[hash][ledgerIndex] = _address;\n      ledgerCount[hash] = ledgerIndex.add(1);\n      ledgerAccounts[hash][_address] = true;\n    }\n\n    LedgerStorage[hash][_address] = value;\n  }\n\n  mapping(bytes32 => mapping(address => bool)) BooleanMapStorage;\n  mapping(bytes32 => uint256) public booleanMapCount;\n  mapping(bytes32 => mapping(address => bool)) public booleanMapAccounts;\n  mapping(bytes32 => mapping(uint256 => address)) public booleanMapEntryForIndex;\n\n  function getBooleanMapValue(string memory record, address _address) public view returns (bool) {\n    return BooleanMapStorage[keccak256(abi.encode(record))][_address];\n  }\n\n  function getBooleanMapCount(string memory record) public view returns (uint256) {\n    return booleanMapCount[keccak256(abi.encode(record))];\n  }\n\n  function setBooleanMapValue(string memory record, address _address, bool value) public onlyAdmins {\n    bytes32 hash = keccak256(abi.encode(record));\n    if (!booleanMapAccounts[hash][_address]) {\n      uint256 ledgerIndex = booleanMapCount[hash];\n      booleanMapEntryForIndex[hash][ledgerIndex] = _address;\n      booleanMapCount[hash] = ledgerIndex.add(1);\n      booleanMapAccounts[hash][_address] = true;\n    }\n\n    BooleanMapStorage[hash][_address] = value;\n  }\n\n  mapping(bytes32 => uint256) UIntStorage;\n\n  function getUIntValue(string memory record) public view returns (uint256) {\n    return UIntStorage[keccak256(abi.encode(record))];\n  }\n\n  function setUIntValue(string memory record, uint256 value) public onlyAdmins {\n    UIntStorage[keccak256(abi.encode(record))] = value;\n  }\n\n  mapping(bytes32 => bytes32) Bytes32Storage;\n\n  function getBytes32Value(string memory record) public view returns (bytes32) {\n    return Bytes32Storage[keccak256(abi.encode(record))];\n  }\n\n  function setBytes32Value(string memory record, bytes32 value) public onlyAdmins {\n    Bytes32Storage[keccak256(abi.encode(record))] = value;\n  }\n\n  mapping(bytes32 => address) AddressStorage;\n\n  function getAddressValue(string memory record) public view returns (address) {\n    return AddressStorage[keccak256(abi.encode(record))];\n  }\n\n  function setAddressValue(string memory record, address value) public onlyAdmins {\n    AddressStorage[keccak256(abi.encode(record))] = value;\n  }\n\n  mapping(bytes32 => bytes) BytesStorage;\n\n  function getBytesValue(string memory record) public view returns (bytes memory) {\n    return BytesStorage[keccak256(abi.encode(record))];\n  }\n\n  function setBytesValue(string memory record, bytes memory value) public onlyAdmins {\n    BytesStorage[keccak256(abi.encode(record))] = value;\n  }\n\n  mapping(bytes32 => bool) BooleanStorage;\n\n  function getBooleanValue(string memory record) public view returns (bool) {\n    return BooleanStorage[keccak256(abi.encode(record))];\n  }\n\n  function setBooleanValue(string memory record, bool value) public onlyAdmins {\n    BooleanStorage[keccak256(abi.encode(record))] = value;\n  }\n\n  mapping(bytes32 => int) IntStorage;\n\n  function getIntValue(string memory record) public view returns (int) {\n    return IntStorage[keccak256(abi.encode(record))];\n  }\n\n  function setIntValue(string memory record, int value) public onlyAdmins {\n    IntStorage[keccak256(abi.encode(record))] = value;\n  }\n\n  //KYC & investors functions\n\n  function investorGet (address _investor_address, bytes32 currency) public   {\n    return; //todo transfer as structure?\n  }\n\n}\n",
  "sourcePath": "/home/sergey/Documents/angels/Angeles.VC-token-scrum-investing/contracts/admin/ExternalStorage.sol",
  "compiler": {
    "name": "solc",
    "version": "0.5.0+commit.1d4f565a.Emscripten.clang"
  },
  "schemaVersion": "3.0.2",
  "updatedAt": "2019-03-26T11:37:43.478Z",
  "devdoc": {
    "methods": {
      "ownable(address)": {
        "details": "The constructor sets the original owner of the contract to the sender account."
      },
      "owner()": {
        "details": "Tells the address of the owner",
        "return": "the address of the owner"
      },
      "transferOwnership(address)": {
        "details": "Allows the current owner to transfer control of the contract to a newOwner.",
        "params": {
          "newOwner": "The address to transfer ownership to."
        }
      }
    }
  },
  "userdoc": {
    "methods": {}
  }
}