{
  "contractName": "ExternalStorage",
  "abi": [
    {
      "constant": true,
      "inputs": [
        {
          "name": "",
          "type": "bytes32"
        }
      ],
      "name": "primaryLedgerCount",
      "outputs": [
        {
          "name": "",
          "type": "uint256"
        }
      ],
      "payable": false,
      "stateMutability": "view",
      "type": "function"
    },
    {
      "constant": true,
      "inputs": [],
      "name": "totalAdminsMapping",
      "outputs": [
        {
          "name": "",
          "type": "uint256"
        }
      ],
      "payable": false,
      "stateMutability": "view",
      "type": "function"
    },
    {
      "constant": true,
      "inputs": [
        {
          "name": "",
          "type": "bytes32"
        },
        {
          "name": "",
          "type": "uint256"
        }
      ],
      "name": "primaryLedgerEntryForIndex",
      "outputs": [
        {
          "name": "",
          "type": "address"
        }
      ],
      "payable": false,
      "stateMutability": "view",
      "type": "function"
    },
    {
      "constant": false,
      "inputs": [
        {
          "name": "admin",
          "type": "address"
        }
      ],
      "name": "removeAdmin",
      "outputs": [],
      "payable": false,
      "stateMutability": "nonpayable",
      "type": "function"
    },
    {
      "constant": true,
      "inputs": [
        {
          "name": "",
          "type": "bytes32"
        },
        {
          "name": "",
          "type": "address"
        },
        {
          "name": "",
          "type": "uint256"
        }
      ],
      "name": "secondaryLedgerEntryForIndex",
      "outputs": [
        {
          "name": "",
          "type": "address"
        }
      ],
      "payable": false,
      "stateMutability": "view",
      "type": "function"
    },
    {
      "constant": true,
      "inputs": [
        {
          "name": "",
          "type": "uint256"
        }
      ],
      "name": "adminsForIndex",
      "outputs": [
        {
          "name": "",
          "type": "address"
        }
      ],
      "payable": false,
      "stateMutability": "view",
      "type": "function"
    },
    {
      "constant": true,
      "inputs": [
        {
          "name": "",
          "type": "address"
        }
      ],
      "name": "admins",
      "outputs": [
        {
          "name": "",
          "type": "bool"
        }
      ],
      "payable": false,
      "stateMutability": "view",
      "type": "function"
    },
    {
      "constant": true,
      "inputs": [
        {
          "name": "",
          "type": "bytes32"
        },
        {
          "name": "",
          "type": "address"
        },
        {
          "name": "",
          "type": "address"
        }
      ],
      "name": "ledgerSecondaryEntries",
      "outputs": [
        {
          "name": "",
          "type": "bool"
        }
      ],
      "payable": false,
      "stateMutability": "view",
      "type": "function"
    },
    {
      "constant": false,
      "inputs": [
        {
          "name": "admin",
          "type": "address"
        }
      ],
      "name": "removeSuperAdmin",
      "outputs": [],
      "payable": false,
      "stateMutability": "nonpayable",
      "type": "function"
    },
    {
      "constant": false,
      "inputs": [
        {
          "name": "newowner",
          "type": "address"
        }
      ],
      "name": "ownable",
      "outputs": [],
      "payable": false,
      "stateMutability": "nonpayable",
      "type": "function"
    },
    {
      "constant": false,
      "inputs": [
        {
          "name": "admin",
          "type": "address"
        }
      ],
      "name": "addAdmin",
      "outputs": [],
      "payable": false,
      "stateMutability": "nonpayable",
      "type": "function"
    },
    {
      "constant": true,
      "inputs": [
        {
          "name": "",
          "type": "bytes32"
        },
        {
          "name": "",
          "type": "address"
        }
      ],
      "name": "secondaryLedgerCount",
      "outputs": [
        {
          "name": "",
          "type": "uint256"
        }
      ],
      "payable": false,
      "stateMutability": "view",
      "type": "function"
    },
    {
      "constant": true,
      "inputs": [
        {
          "name": "",
          "type": "bytes32"
        },
        {
          "name": "",
          "type": "address"
        }
      ],
      "name": "booleanMapAccounts",
      "outputs": [
        {
          "name": "",
          "type": "bool"
        }
      ],
      "payable": false,
      "stateMutability": "view",
      "type": "function"
    },
    {
      "constant": true,
      "inputs": [
        {
          "name": "",
          "type": "bytes32"
        }
      ],
      "name": "booleanMapCount",
      "outputs": [
        {
          "name": "",
          "type": "uint256"
        }
      ],
      "payable": false,
      "stateMutability": "view",
      "type": "function"
    },
    {
      "constant": true,
      "inputs": [
        {
          "name": "",
          "type": "bytes32"
        },
        {
          "name": "",
          "type": "address"
        }
      ],
      "name": "ledgerPrimaryEntries",
      "outputs": [
        {
          "name": "",
          "type": "bool"
        }
      ],
      "payable": false,
      "stateMutability": "view",
      "type": "function"
    },
    {
      "constant": true,
      "inputs": [],
      "name": "owner",
      "outputs": [
        {
          "name": "",
          "type": "address"
        }
      ],
      "payable": false,
      "stateMutability": "view",
      "type": "function"
    },
    {
      "constant": true,
      "inputs": [],
      "name": "totalSuperAdminsMapping",
      "outputs": [
        {
          "name": "",
          "type": "uint256"
        }
      ],
      "payable": false,
      "stateMutability": "view",
      "type": "function"
    },
    {
      "constant": true,
      "inputs": [
        {
          "name": "",
          "type": "address"
        }
      ],
      "name": "superAdmins",
      "outputs": [
        {
          "name": "",
          "type": "bool"
        }
      ],
      "payable": false,
      "stateMutability": "view",
      "type": "function"
    },
    {
      "constant": true,
      "inputs": [
        {
          "name": "",
          "type": "address"
        },
        {
          "name": "",
          "type": "address"
        }
      ],
      "name": "_investors",
      "outputs": [
        {
          "name": "approved_sum",
          "type": "uint256"
        },
        {
          "name": "invested_sum",
          "type": "uint256"
        }
      ],
      "payable": false,
      "stateMutability": "view",
      "type": "function"
    },
    {
      "constant": false,
      "inputs": [
        {
          "name": "admin",
          "type": "address"
        }
      ],
      "name": "addSuperAdmin",
      "outputs": [],
      "payable": false,
      "stateMutability": "nonpayable",
      "type": "function"
    },
    {
      "constant": true,
      "inputs": [
        {
          "name": "",
          "type": "bytes32"
        },
        {
          "name": "",
          "type": "uint256"
        }
      ],
      "name": "ledgerEntryForIndex",
      "outputs": [
        {
          "name": "",
          "type": "address"
        }
      ],
      "payable": false,
      "stateMutability": "view",
      "type": "function"
    },
    {
      "constant": true,
      "inputs": [
        {
          "name": "",
          "type": "bytes32"
        },
        {
          "name": "",
          "type": "uint256"
        }
      ],
      "name": "booleanMapEntryForIndex",
      "outputs": [
        {
          "name": "",
          "type": "address"
        }
      ],
      "payable": false,
      "stateMutability": "view",
      "type": "function"
    },
    {
      "constant": true,
      "inputs": [
        {
          "name": "",
          "type": "uint256"
        }
      ],
      "name": "superAdminsForIndex",
      "outputs": [
        {
          "name": "",
          "type": "address"
        }
      ],
      "payable": false,
      "stateMutability": "view",
      "type": "function"
    },
    {
      "constant": true,
      "inputs": [
        {
          "name": "",
          "type": "bytes32"
        }
      ],
      "name": "ledgerCount",
      "outputs": [
        {
          "name": "",
          "type": "uint256"
        }
      ],
      "payable": false,
      "stateMutability": "view",
      "type": "function"
    },
    {
      "constant": true,
      "inputs": [
        {
          "name": "",
          "type": "bytes32"
        },
        {
          "name": "",
          "type": "address"
        }
      ],
      "name": "ledgerAccounts",
      "outputs": [
        {
          "name": "",
          "type": "bool"
        }
      ],
      "payable": false,
      "stateMutability": "view",
      "type": "function"
    },
    {
      "constant": false,
      "inputs": [
        {
          "name": "newOwner",
          "type": "address"
        }
      ],
      "name": "transferOwnership",
      "outputs": [],
      "payable": false,
      "stateMutability": "nonpayable",
      "type": "function"
    },
    {
      "anonymous": false,
      "inputs": [
        {
          "indexed": true,
          "name": "admin",
          "type": "address"
        }
      ],
      "name": "AddAdmin",
      "type": "event"
    },
    {
      "anonymous": false,
      "inputs": [
        {
          "indexed": true,
          "name": "admin",
          "type": "address"
        }
      ],
      "name": "RemoveAdmin",
      "type": "event"
    },
    {
      "anonymous": false,
      "inputs": [
        {
          "indexed": true,
          "name": "admin",
          "type": "address"
        }
      ],
      "name": "AddSuperAdmin",
      "type": "event"
    },
    {
      "anonymous": false,
      "inputs": [
        {
          "indexed": true,
          "name": "admin",
          "type": "address"
        }
      ],
      "name": "RemoveSuperAdmin",
      "type": "event"
    },
    {
      "anonymous": false,
      "inputs": [
        {
          "indexed": false,
          "name": "previousOwner",
          "type": "address"
        },
        {
          "indexed": false,
          "name": "newOwner",
          "type": "address"
        }
      ],
      "name": "OwnershipTransferred",
      "type": "event"
    },
    {
      "constant": true,
      "inputs": [
        {
          "name": "record",
          "type": "string"
        },
        {
          "name": "primaryAddress",
          "type": "address"
        },
        {
          "name": "secondaryAddress",
          "type": "address"
        }
      ],
      "name": "getMultiLedgerValue",
      "outputs": [
        {
          "name": "",
          "type": "uint256"
        }
      ],
      "payable": false,
      "stateMutability": "view",
      "type": "function"
    },
    {
      "constant": false,
      "inputs": [
        {
          "name": "record",
          "type": "string"
        },
        {
          "name": "primaryAddress",
          "type": "address"
        },
        {
          "name": "secondaryAddress",
          "type": "address"
        },
        {
          "name": "value",
          "type": "uint256"
        }
      ],
      "name": "setMultiLedgerValue",
      "outputs": [],
      "payable": false,
      "stateMutability": "nonpayable",
      "type": "function"
    },
    {
      "constant": true,
      "inputs": [
        {
          "name": "record",
          "type": "string"
        },
        {
          "name": "_address",
          "type": "address"
        }
      ],
      "name": "getLedgerValue",
      "outputs": [
        {
          "name": "",
          "type": "uint256"
        }
      ],
      "payable": false,
      "stateMutability": "view",
      "type": "function"
    },
    {
      "constant": true,
      "inputs": [
        {
          "name": "record",
          "type": "string"
        }
      ],
      "name": "getLedgerCount",
      "outputs": [
        {
          "name": "",
          "type": "uint256"
        }
      ],
      "payable": false,
      "stateMutability": "view",
      "type": "function"
    },
    {
      "constant": false,
      "inputs": [
        {
          "name": "record",
          "type": "string"
        },
        {
          "name": "_address",
          "type": "address"
        },
        {
          "name": "value",
          "type": "uint256"
        }
      ],
      "name": "setLedgerValue",
      "outputs": [],
      "payable": false,
      "stateMutability": "nonpayable",
      "type": "function"
    },
    {
      "constant": true,
      "inputs": [
        {
          "name": "record",
          "type": "string"
        },
        {
          "name": "_address",
          "type": "address"
        }
      ],
      "name": "getBooleanMapValue",
      "outputs": [
        {
          "name": "",
          "type": "bool"
        }
      ],
      "payable": false,
      "stateMutability": "view",
      "type": "function"
    },
    {
      "constant": true,
      "inputs": [
        {
          "name": "record",
          "type": "string"
        }
      ],
      "name": "getBooleanMapCount",
      "outputs": [
        {
          "name": "",
          "type": "uint256"
        }
      ],
      "payable": false,
      "stateMutability": "view",
      "type": "function"
    },
    {
      "constant": false,
      "inputs": [
        {
          "name": "record",
          "type": "string"
        },
        {
          "name": "_address",
          "type": "address"
        },
        {
          "name": "value",
          "type": "bool"
        }
      ],
      "name": "setBooleanMapValue",
      "outputs": [],
      "payable": false,
      "stateMutability": "nonpayable",
      "type": "function"
    },
    {
      "constant": true,
      "inputs": [
        {
          "name": "record",
          "type": "string"
        }
      ],
      "name": "getUIntValue",
      "outputs": [
        {
          "name": "",
          "type": "uint256"
        }
      ],
      "payable": false,
      "stateMutability": "view",
      "type": "function"
    },
    {
      "constant": false,
      "inputs": [
        {
          "name": "record",
          "type": "string"
        },
        {
          "name": "value",
          "type": "uint256"
        }
      ],
      "name": "setUIntValue",
      "outputs": [],
      "payable": false,
      "stateMutability": "nonpayable",
      "type": "function"
    },
    {
      "constant": true,
      "inputs": [
        {
          "name": "record",
          "type": "string"
        }
      ],
      "name": "getBytes32Value",
      "outputs": [
        {
          "name": "",
          "type": "bytes32"
        }
      ],
      "payable": false,
      "stateMutability": "view",
      "type": "function"
    },
    {
      "constant": false,
      "inputs": [
        {
          "name": "record",
          "type": "string"
        },
        {
          "name": "value",
          "type": "bytes32"
        }
      ],
      "name": "setBytes32Value",
      "outputs": [],
      "payable": false,
      "stateMutability": "nonpayable",
      "type": "function"
    },
    {
      "constant": true,
      "inputs": [
        {
          "name": "record",
          "type": "string"
        }
      ],
      "name": "getAddressValue",
      "outputs": [
        {
          "name": "",
          "type": "address"
        }
      ],
      "payable": false,
      "stateMutability": "view",
      "type": "function"
    },
    {
      "constant": false,
      "inputs": [
        {
          "name": "record",
          "type": "string"
        },
        {
          "name": "value",
          "type": "address"
        }
      ],
      "name": "setAddressValue",
      "outputs": [],
      "payable": false,
      "stateMutability": "nonpayable",
      "type": "function"
    },
    {
      "constant": true,
      "inputs": [
        {
          "name": "record",
          "type": "string"
        }
      ],
      "name": "getBytesValue",
      "outputs": [
        {
          "name": "",
          "type": "bytes"
        }
      ],
      "payable": false,
      "stateMutability": "view",
      "type": "function"
    },
    {
      "constant": false,
      "inputs": [
        {
          "name": "record",
          "type": "string"
        },
        {
          "name": "value",
          "type": "bytes"
        }
      ],
      "name": "setBytesValue",
      "outputs": [],
      "payable": false,
      "stateMutability": "nonpayable",
      "type": "function"
    },
    {
      "constant": true,
      "inputs": [
        {
          "name": "record",
          "type": "string"
        }
      ],
      "name": "getBooleanValue",
      "outputs": [
        {
          "name": "",
          "type": "bool"
        }
      ],
      "payable": false,
      "stateMutability": "view",
      "type": "function"
    },
    {
      "constant": false,
      "inputs": [
        {
          "name": "record",
          "type": "string"
        },
        {
          "name": "value",
          "type": "bool"
        }
      ],
      "name": "setBooleanValue",
      "outputs": [],
      "payable": false,
      "stateMutability": "nonpayable",
      "type": "function"
    },
    {
      "constant": true,
      "inputs": [
        {
          "name": "record",
          "type": "string"
        }
      ],
      "name": "getIntValue",
      "outputs": [
        {
          "name": "",
          "type": "int256"
        }
      ],
      "payable": false,
      "stateMutability": "view",
      "type": "function"
    },
    {
      "constant": false,
      "inputs": [
        {
          "name": "record",
          "type": "string"
        },
        {
          "name": "value",
          "type": "int256"
        }
      ],
      "name": "setIntValue",
      "outputs": [],
      "payable": false,
      "stateMutability": "nonpayable",
      "type": "function"
    },
    {
      "constant": false,
      "inputs": [
        {
          "name": "_investor_address",
          "type": "address"
        },
        {
          "name": "currency",
          "type": "bytes32"
        }
      ],
      "name": "investorGet",
      "outputs": [],
      "payable": false,
      "stateMutability": "nonpayable",
      "type": "function"
    }
  ],
  "bytecode": "0x608060405234801561001057600080fd5b50614c29806100206000396000f3fe60806040526004361061023b576000357c0100000000000000000000000000000000000000000000000000000000900463ffffffff1680630305357e1461024057806303d759371461028f578063043baa03146103615780630489882e146103bc578063059f9ebf146103e7578063088787a31461046c5780630cb1a3a91461058857806310278bc81461067a5780631785f53c1461074c578063199759db1461079d5780631f69d23014610842578063313f2a21146109545780633d8f89d7146109cf578063413c6d1314610aa3578063429b62e514610b8b5780634463d9ec14610bf45780634902e4aa14610c875780634f16124514610cd85780634f6acaa114610db457806364a04b5914610e905780636e22d33e14610ee15780637048027514611022578063740ca23c146110735780637ec13996146110e25780637ffcd79f146111be57806383e835e0146112315780638552527714611280578063877c2184146112f35780638da5cb5b146113cf5780638de2165014611426578063929268b814611506578063a90cf6f4146115fa578063abd6ff8e146116f6578063abf7b063146117c8578063ad25cb42146117f3578063ad5306191461185c578063b3292ff0146118e8578063bf3c112014611939578063c04dc73b14611a98578063c0b3ac9314611b1d578063c389439814611ba2578063d3f742dc14611c1d578063e671fab514611c6c578063e89bc86b14611d6c578063e8d39d0714611e48578063f2fde38b14611ebb578063fd25568314611f0c575b600080fd5b34801561024c57600080fd5b506102796004803603602081101561026357600080fd5b8101908080359060200190929190505050612014565b6040518082815260200191505060405180910390f35b34801561029b57600080fd5b5061035f600480360360408110156102b257600080fd5b81019080803590602001906401000000008111156102cf57600080fd5b8201836020820111156102e157600080fd5b8035906020019184600183028401116401000000008311171561030357600080fd5b91908080601f016020809104026020016040519081016040528093929190818152602001838380828437600081840152601f19601f8201169050808301925050505050505091929192908035906020019092919050505061202c565b005b34801561036d57600080fd5b506103ba6004803603604081101561038457600080fd5b81019080803573ffffffffffffffffffffffffffffffffffffffff169060200190929190803590602001909291905050506121c0565b005b3480156103c857600080fd5b506103d16121c4565b6040518082815260200191505060405180910390f35b3480156103f357600080fd5b5061042a6004803603604081101561040a57600080fd5b8101908080359060200190929190803590602001909291905050506121ca565b604051808273ffffffffffffffffffffffffffffffffffffffff1673ffffffffffffffffffffffffffffffffffffffff16815260200191505060405180910390f35b34801561047857600080fd5b506105726004803603606081101561048f57600080fd5b81019080803590602001906401000000008111156104ac57600080fd5b8201836020820111156104be57600080fd5b803590602001918460018302840111640100000000831117156104e057600080fd5b91908080601f016020809104026020016040519081016040528093929190818152602001838380828437600081840152601f19601f820116905080830192505050505050509192919290803573ffffffffffffffffffffffffffffffffffffffff169060200190929190803573ffffffffffffffffffffffffffffffffffffffff16906020019092919050505061220c565b6040518082815260200191505060405180910390f35b34801561059457600080fd5b50610678600480360360608110156105ab57600080fd5b81019080803590602001906401000000008111156105c857600080fd5b8201836020820111156105da57600080fd5b803590602001918460018302840111640100000000831117156105fc57600080fd5b91908080601f016020809104026020016040519081016040528093929190818152602001838380828437600081840152601f19601f820116905080830192505050505050509192919290803573ffffffffffffffffffffffffffffffffffffffff16906020019092919080359060200190929190505050612330565b005b34801561068657600080fd5b5061074a6004803603604081101561069d57600080fd5b81019080803590602001906401000000008111156106ba57600080fd5b8201836020820111156106cc57600080fd5b803590602001918460018302840111640100000000831117156106ee57600080fd5b91908080601f016020809104026020016040519081016040528093929190818152602001838380828437600081840152601f19601f8201169050808301925050505050505091929192908035906020019092919050505061267d565b005b34801561075857600080fd5b5061079b6004803603602081101561076f57600080fd5b81019080803573ffffffffffffffffffffffffffffffffffffffff169060200190929190505050612811565b005b3480156107a957600080fd5b50610800600480360360608110156107c057600080fd5b8101908080359060200190929190803573ffffffffffffffffffffffffffffffffffffffff16906020019092919080359060200190929190505050612946565b604051808273ffffffffffffffffffffffffffffffffffffffff1673ffffffffffffffffffffffffffffffffffffffff16815260200191505060405180910390f35b34801561084e57600080fd5b506109526004803603608081101561086557600080fd5b810190808035906020019064010000000081111561088257600080fd5b82018360208201111561089457600080fd5b803590602001918460018302840111640100000000831117156108b657600080fd5b91908080601f016020809104026020016040519081016040528093929190818152602001838380828437600081840152601f19601f820116905080830192505050505050509192919290803573ffffffffffffffffffffffffffffffffffffffff169060200190929190803573ffffffffffffffffffffffffffffffffffffffff16906020019092919080359060200190929190505050612995565b005b34801561096057600080fd5b5061098d6004803603602081101561097757600080fd5b8101908080359060200190929190505050612fc6565b604051808273ffffffffffffffffffffffffffffffffffffffff1673ffffffffffffffffffffffffffffffffffffffff16815260200191505060405180910390f35b3480156109db57600080fd5b50610aa1600480360360408110156109f257600080fd5b8101908080359060200190640100000000811115610a0f57600080fd5b820183602082011115610a2157600080fd5b80359060200191846001830284011164010000000083111715610a4357600080fd5b91908080601f016020809104026020016040519081016040528093929190818152602001838380828437600081840152601f19601f820116905080830192505050505050509192919290803515159060200190929190505050612ff9565b005b348015610aaf57600080fd5b50610b8960048036036040811015610ac657600080fd5b8101908080359060200190640100000000811115610ae357600080fd5b820183602082011115610af557600080fd5b80359060200191846001830284011164010000000083111715610b1757600080fd5b91908080601f016020809104026020016040519081016040528093929190818152602001838380828437600081840152601f19601f820116905080830192505050505050509192919290803573ffffffffffffffffffffffffffffffffffffffff1690602001909291905050506131a0565b005b348015610b9757600080fd5b50610bda60048036036020811015610bae57600080fd5b81019080803573ffffffffffffffffffffffffffffffffffffffff16906020019092919050505061336e565b604051808215151515815260200191505060405180910390f35b348015610c0057600080fd5b50610c6d60048036036060811015610c1757600080fd5b8101908080359060200190929190803573ffffffffffffffffffffffffffffffffffffffff169060200190929190803573ffffffffffffffffffffffffffffffffffffffff16906020019092919050505061338e565b604051808215151515815260200191505060405180910390f35b348015610c9357600080fd5b50610cd660048036036020811015610caa57600080fd5b81019080803573ffffffffffffffffffffffffffffffffffffffff1690602001909291905050506133ca565b005b348015610ce457600080fd5b50610d9e60048036036020811015610cfb57600080fd5b8101908080359060200190640100000000811115610d1857600080fd5b820183602082011115610d2a57600080fd5b80359060200191846001830284011164010000000083111715610d4c57600080fd5b91908080601f016020809104026020016040519081016040528093929190818152602001838380828437600081840152601f19601f8201169050808301925050505050505091929192905050506134a9565b6040518082815260200191505060405180910390f35b348015610dc057600080fd5b50610e7a60048036036020811015610dd757600080fd5b8101908080359060200190640100000000811115610df457600080fd5b820183602082011115610e0657600080fd5b80359060200191846001830284011164010000000083111715610e2857600080fd5b91908080601f016020809104026020016040519081016040528093929190818152602001838380828437600081840152601f19601f820116905080830192505050505050509192919290505050613551565b6040518082815260200191505060405180910390f35b348015610e9c57600080fd5b50610edf60048036036020811015610eb357600080fd5b81019080803573ffffffffffffffffffffffffffffffffffffffff1690602001909291905050506135f9565b005b348015610eed57600080fd5b50610fa760048036036020811015610f0457600080fd5b8101908080359060200190640100000000811115610f2157600080fd5b820183602082011115610f3357600080fd5b80359060200191846001830284011164010000000083111715610f5557600080fd5b91908080601f016020809104026020016040519081016040528093929190818152602001838380828437600081840152601f19601f820116905080830192505050505050509192919290505050613646565b6040518080602001828103825283818151815260200191508051906020019080838360005b83811015610fe7578082015181840152602081019050610fcc565b50505050905090810190601f1680156110145780820380516001836020036101000a031916815260200191505b509250505060405180910390f35b34801561102e57600080fd5b506110716004803603602081101561104557600080fd5b81019080803573ffffffffffffffffffffffffffffffffffffffff169060200190929190505050613786565b005b34801561107f57600080fd5b506110cc6004803603604081101561109657600080fd5b8101908080359060200190929190803573ffffffffffffffffffffffffffffffffffffffff1690602001909291905050506139d6565b6040518082815260200191505060405180910390f35b3480156110ee57600080fd5b506111a86004803603602081101561110557600080fd5b810190808035906020019064010000000081111561112257600080fd5b82018360208201111561113457600080fd5b8035906020019184600183028401116401000000008311171561115657600080fd5b91908080601f016020809104026020016040519081016040528093929190818152602001838380828437600081840152601f19601f8201169050808301925050505050505091929192905050506139fb565b6040518082815260200191505060405180910390f35b3480156111ca57600080fd5b50611217600480360360408110156111e157600080fd5b8101908080359060200190929190803573ffffffffffffffffffffffffffffffffffffffff169060200190929190505050613aa3565b604051808215151515815260200191505060405180910390f35b34801561123d57600080fd5b5061126a6004803603602081101561125457600080fd5b8101908080359060200190929190505050613ad2565b6040518082815260200191505060405180910390f35b34801561128c57600080fd5b506112d9600480360360408110156112a357600080fd5b8101908080359060200190929190803573ffffffffffffffffffffffffffffffffffffffff169060200190929190505050613aea565b604051808215151515815260200191505060405180910390f35b3480156112ff57600080fd5b506113b96004803603602081101561131657600080fd5b810190808035906020019064010000000081111561133357600080fd5b82018360208201111561134557600080fd5b8035906020019184600183028401116401000000008311171561136757600080fd5b91908080601f016020809104026020016040519081016040528093929190818152602001838380828437600081840152601f19601f820116905080830192505050505050509192919290505050613b19565b6040518082815260200191505060405180910390f35b3480156113db57600080fd5b506113e4613bc1565b604051808273ffffffffffffffffffffffffffffffffffffffff1673ffffffffffffffffffffffffffffffffffffffff16815260200191505060405180910390f35b34801561143257600080fd5b506114ec6004803603602081101561144957600080fd5b810190808035906020019064010000000081111561146657600080fd5b82018360208201111561147857600080fd5b8035906020019184600183028401116401000000008311171561149a57600080fd5b91908080601f016020809104026020016040519081016040528093929190818152602001838380828437600081840152601f19601f820116905080830192505050505050509192919290505050613bea565b604051808215151515815260200191505060405180910390f35b34801561151257600080fd5b506115f86004803603606081101561152957600080fd5b810190808035906020019064010000000081111561154657600080fd5b82018360208201111561155857600080fd5b8035906020019184600183028401116401000000008311171561157a57600080fd5b91908080601f016020809104026020016040519081016040528093929190818152602001838380828437600081840152601f19601f820116905080830192505050505050509192919290803573ffffffffffffffffffffffffffffffffffffffff169060200190929190803515159060200190929190505050613c9f565b005b34801561160657600080fd5b506116e06004803603604081101561161d57600080fd5b810190808035906020019064010000000081111561163a57600080fd5b82018360208201111561164c57600080fd5b8035906020019184600183028401116401000000008311171561166e57600080fd5b91908080601f016020809104026020016040519081016040528093929190818152602001838380828437600081840152601f19601f820116905080830192505050505050509192919290803573ffffffffffffffffffffffffffffffffffffffff169060200190929190505050613fff565b6040518082815260200191505060405180910390f35b34801561170257600080fd5b506117c66004803603604081101561171957600080fd5b810190808035906020019064010000000081111561173657600080fd5b82018360208201111561174857600080fd5b8035906020019184600183028401116401000000008311171561176a57600080fd5b91908080601f016020809104026020016040519081016040528093929190818152602001838380828437600081840152601f19601f820116905080830192505050505050509192919290803590602001909291905050506140e5565b005b3480156117d457600080fd5b506117dd614279565b6040518082815260200191505060405180910390f35b3480156117ff57600080fd5b506118426004803603602081101561181657600080fd5b81019080803573ffffffffffffffffffffffffffffffffffffffff16906020019092919050505061427f565b604051808215151515815260200191505060405180910390f35b34801561186857600080fd5b506118cb6004803603604081101561187f57600080fd5b81019080803573ffffffffffffffffffffffffffffffffffffffff169060200190929190803573ffffffffffffffffffffffffffffffffffffffff16906020019092919050505061429f565b604051808381526020018281526020019250505060405180910390f35b3480156118f457600080fd5b506119376004803603602081101561190b57600080fd5b81019080803573ffffffffffffffffffffffffffffffffffffffff1690602001909291905050506142d0565b005b34801561194557600080fd5b50611a966004803603604081101561195c57600080fd5b810190808035906020019064010000000081111561197957600080fd5b82018360208201111561198b57600080fd5b803590602001918460018302840111640100000000831117156119ad57600080fd5b91908080601f016020809104026020016040519081016040528093929190818152602001838380828437600081840152601f19601f82011690508083019250505050505050919291929080359060200190640100000000811115611a1057600080fd5b820183602082011115611a2257600080fd5b80359060200191846001830284011164010000000083111715611a4457600080fd5b91908080601f016020809104026020016040519081016040528093929190818152602001838380828437600081840152601f19601f8201169050808301925050505050505091929192905050506144cb565b005b348015611aa457600080fd5b50611adb60048036036040811015611abb57600080fd5b81019080803590602001909291908035906020019092919050505061466f565b604051808273ffffffffffffffffffffffffffffffffffffffff1673ffffffffffffffffffffffffffffffffffffffff16815260200191505060405180910390f35b348015611b2957600080fd5b50611b6060048036036040811015611b4057600080fd5b8101908080359060200190929190803590602001909291905050506146b1565b604051808273ffffffffffffffffffffffffffffffffffffffff1673ffffffffffffffffffffffffffffffffffffffff16815260200191505060405180910390f35b348015611bae57600080fd5b50611bdb60048036036020811015611bc557600080fd5b81019080803590602001909291905050506146f3565b604051808273ffffffffffffffffffffffffffffffffffffffff1673ffffffffffffffffffffffffffffffffffffffff16815260200191505060405180910390f35b348015611c2957600080fd5b50611c5660048036036020811015611c4057600080fd5b8101908080359060200190929190505050614726565b6040518082815260200191505060405180910390f35b348015611c7857600080fd5b50611d5260048036036040811015611c8f57600080fd5b8101908080359060200190640100000000811115611cac57600080fd5b820183602082011115611cbe57600080fd5b80359060200191846001830284011164010000000083111715611ce057600080fd5b91908080601f016020809104026020016040519081016040528093929190818152602001838380828437600081840152601f19601f820116905080830192505050505050509192919290803573ffffffffffffffffffffffffffffffffffffffff16906020019092919050505061473e565b604051808215151515815260200191505060405180910390f35b348015611d7857600080fd5b50611e3260048036036020811015611d8f57600080fd5b8101908080359060200190640100000000811115611dac57600080fd5b820183602082011115611dbe57600080fd5b80359060200191846001830284011164010000000083111715611de057600080fd5b91908080601f016020809104026020016040519081016040528093929190818152602001838380828437600081840152601f19601f820116905080830192505050505050509192919290505050614831565b6040518082815260200191505060405180910390f35b348015611e5457600080fd5b50611ea160048036036040811015611e6b57600080fd5b8101908080359060200190929190803573ffffffffffffffffffffffffffffffffffffffff1690602001909291905050506148d9565b604051808215151515815260200191505060405180910390f35b348015611ec757600080fd5b50611f0a60048036036020811015611ede57600080fd5b81019080803573ffffffffffffffffffffffffffffffffffffffff169060200190929190505050614908565b005b348015611f1857600080fd5b50611fd260048036036020811015611f2f57600080fd5b8101908080359060200190640100000000811115611f4c57600080fd5b820183602082011115611f5e57600080fd5b80359060200191846001830284011164010000000083111715611f8057600080fd5b91908080601f016020809104026020016040519081016040528093929190818152602001838380828437600081840152601f19601f820116905080830192505050505050509192919290505050614a2f565b604051808273ffffffffffffffffffffffffffffffffffffffff1673ffffffffffffffffffffffffffffffffffffffff16815260200191505060405180910390f35b600a6020528060005260406000206000915090505481565b612034613bc1565b73ffffffffffffffffffffffffffffffffffffffff163373ffffffffffffffffffffffffffffffffffffffff16141580156120b95750600660003373ffffffffffffffffffffffffffffffffffffffff1673ffffffffffffffffffffffffffffffffffffffff16815260200190815260200160002060009054906101000a900460ff16155b801561210f5750600560003373ffffffffffffffffffffffffffffffffffffffff1673ffffffffffffffffffffffffffffffffffffffff16815260200190815260200160002060009054906101000a900460ff16155b1561211957600080fd5b8060196000846040516020018080602001828103825283818151815260200191508051906020019080838360005b83811015612162578082015181840152602081019050612147565b50505050905090810190601f16801561218f5780820380516001836020036101000a031916815260200191505b5092505050604051602081830303815290604052805190602001208152602001908152602001600020819055505050565b5050565b60015481565b600c6020528160005260406000206020528060005260406000206000915091509054906101000a900473ffffffffffffffffffffffffffffffffffffffff1681565b600060096000856040516020018080602001828103825283818151815260200191508051906020019080838360005b8381101561225657808201518184015260208101905061223b565b50505050905090810190601f1680156122835780820380516001836020036101000a031916815260200191505b509250505060405160208183030381529060405280519060200120815260200190815260200160002060008473ffffffffffffffffffffffffffffffffffffffff1673ffffffffffffffffffffffffffffffffffffffff16815260200190815260200160002060008373ffffffffffffffffffffffffffffffffffffffff1673ffffffffffffffffffffffffffffffffffffffff1681526020019081526020016000205490509392505050565b612338613bc1565b73ffffffffffffffffffffffffffffffffffffffff163373ffffffffffffffffffffffffffffffffffffffff16141580156123bd5750600660003373ffffffffffffffffffffffffffffffffffffffff1673ffffffffffffffffffffffffffffffffffffffff16815260200190815260200160002060009054906101000a900460ff16155b80156124135750600560003373ffffffffffffffffffffffffffffffffffffffff1673ffffffffffffffffffffffffffffffffffffffff16815260200190815260200160002060009054906101000a900460ff16155b1561241d57600080fd5b6000836040516020018080602001828103825283818151815260200191508051906020019080838360005b83811015612463578082015181840152602081019050612448565b50505050905090810190601f1680156124905780820380516001836020036101000a031916815260200191505b50925050506040516020818303038152906040528051906020012090506013600082815260200190815260200160002060008473ffffffffffffffffffffffffffffffffffffffff1673ffffffffffffffffffffffffffffffffffffffff16815260200190815260200160002060009054906101000a900460ff161515612622576000601260008381526020019081526020016000205490508360146000848152602001908152602001600020600083815260200190815260200160002060006101000a81548173ffffffffffffffffffffffffffffffffffffffff021916908373ffffffffffffffffffffffffffffffffffffffff1602179055506125a0600182614af790919063ffffffff16565b601260008481526020019081526020016000208190555060016013600084815260200190815260200160002060008673ffffffffffffffffffffffffffffffffffffffff1673ffffffffffffffffffffffffffffffffffffffff16815260200190815260200160002060006101000a81548160ff021916908315150217905550505b816011600083815260200190815260200160002060008573ffffffffffffffffffffffffffffffffffffffff1673ffffffffffffffffffffffffffffffffffffffff1681526020019081526020016000208190555050505050565b612685613bc1565b73ffffffffffffffffffffffffffffffffffffffff163373ffffffffffffffffffffffffffffffffffffffff161415801561270a5750600660003373ffffffffffffffffffffffffffffffffffffffff1673ffffffffffffffffffffffffffffffffffffffff16815260200190815260200160002060009054906101000a900460ff16155b80156127605750600560003373ffffffffffffffffffffffffffffffffffffffff1673ffffffffffffffffffffffffffffffffffffffff16815260200190815260200160002060009054906101000a900460ff16155b1561276a57600080fd5b80601a6000846040516020018080602001828103825283818151815260200191508051906020019080838360005b838110156127b3578082015181840152602081019050612798565b50505050905090810190601f1680156127e05780820380516001836020036101000a031916815260200191505b5092505050604051602081830303815290604052805190602001208152602001908152602001600020819055505050565b612819613bc1565b73ffffffffffffffffffffffffffffffffffffffff163373ffffffffffffffffffffffffffffffffffffffff161415801561289e5750600660003373ffffffffffffffffffffffffffffffffffffffff1673ffffffffffffffffffffffffffffffffffffffff16815260200190815260200160002060009054906101000a900460ff16155b156128a857600080fd5b6000600560008373ffffffffffffffffffffffffffffffffffffffff1673ffffffffffffffffffffffffffffffffffffffff16815260200190815260200160002060006101000a81548160ff0219169083151502179055508073ffffffffffffffffffffffffffffffffffffffff167f753f40ca3312b2408759a67875b367955e7baa221daf08aa3d643d96202ac12b60405160405180910390a250565b600f602052826000526040600020602052816000526040600020602052806000526040600020600092509250509054906101000a900473ffffffffffffffffffffffffffffffffffffffff1681565b61299d613bc1565b73ffffffffffffffffffffffffffffffffffffffff163373ffffffffffffffffffffffffffffffffffffffff1614158015612a225750600660003373ffffffffffffffffffffffffffffffffffffffff1673ffffffffffffffffffffffffffffffffffffffff16815260200190815260200160002060009054906101000a900460ff16155b8015612a785750600560003373ffffffffffffffffffffffffffffffffffffffff1673ffffffffffffffffffffffffffffffffffffffff16815260200190815260200160002060009054906101000a900460ff16155b15612a8257600080fd5b6000846040516020018080602001828103825283818151815260200191508051906020019080838360005b83811015612ac8578082015181840152602081019050612aad565b50505050905090810190601f168015612af55780820380516001836020036101000a031916815260200191505b50925050506040516020818303038152906040528051906020012090506000600a60008381526020019081526020016000205490506000600d600084815260200190815260200160002060008773ffffffffffffffffffffffffffffffffffffffff1673ffffffffffffffffffffffffffffffffffffffff168152602001908152602001600020549050600e600084815260200190815260200160002060008773ffffffffffffffffffffffffffffffffffffffff1673ffffffffffffffffffffffffffffffffffffffff16815260200190815260200160002060008673ffffffffffffffffffffffffffffffffffffffff1673ffffffffffffffffffffffffffffffffffffffff16815260200190815260200160002060009054906101000a900460ff161515612f2b5784600f600085815260200190815260200160002060008873ffffffffffffffffffffffffffffffffffffffff1673ffffffffffffffffffffffffffffffffffffffff168152602001908152602001600020600083815260200190815260200160002060006101000a81548173ffffffffffffffffffffffffffffffffffffffff021916908373ffffffffffffffffffffffffffffffffffffffff160217905550612cd4600182614af790919063ffffffff16565b600d600085815260200190815260200160002060008873ffffffffffffffffffffffffffffffffffffffff1673ffffffffffffffffffffffffffffffffffffffff168152602001908152602001600020819055506001600e600085815260200190815260200160002060008873ffffffffffffffffffffffffffffffffffffffff1673ffffffffffffffffffffffffffffffffffffffff16815260200190815260200160002060008773ffffffffffffffffffffffffffffffffffffffff1673ffffffffffffffffffffffffffffffffffffffff16815260200190815260200160002060006101000a81548160ff021916908315150217905550600b600084815260200190815260200160002060008773ffffffffffffffffffffffffffffffffffffffff1673ffffffffffffffffffffffffffffffffffffffff16815260200190815260200160002060009054906101000a900460ff161515612f2a5785600c6000858152602001908152602001600020600084815260200190815260200160002060006101000a81548173ffffffffffffffffffffffffffffffffffffffff021916908373ffffffffffffffffffffffffffffffffffffffff160217905550612ea9600183614af790919063ffffffff16565b600a6000858152602001908152602001600020819055506001600b600085815260200190815260200160002060008873ffffffffffffffffffffffffffffffffffffffff1673ffffffffffffffffffffffffffffffffffffffff16815260200190815260200160002060006101000a81548160ff0219169083151502179055505b5b836009600085815260200190815260200160002060008873ffffffffffffffffffffffffffffffffffffffff1673ffffffffffffffffffffffffffffffffffffffff16815260200190815260200160002060008773ffffffffffffffffffffffffffffffffffffffff1673ffffffffffffffffffffffffffffffffffffffff1681526020019081526020016000208190555050505050505050565b60036020528060005260406000206000915054906101000a900473ffffffffffffffffffffffffffffffffffffffff1681565b613001613bc1565b73ffffffffffffffffffffffffffffffffffffffff163373ffffffffffffffffffffffffffffffffffffffff16141580156130865750600660003373ffffffffffffffffffffffffffffffffffffffff1673ffffffffffffffffffffffffffffffffffffffff16815260200190815260200160002060009054906101000a900460ff16155b80156130dc5750600560003373ffffffffffffffffffffffffffffffffffffffff1673ffffffffffffffffffffffffffffffffffffffff16815260200190815260200160002060009054906101000a900460ff16155b156130e657600080fd5b80601d6000846040516020018080602001828103825283818151815260200191508051906020019080838360005b8381101561312f578082015181840152602081019050613114565b50505050905090810190601f16801561315c5780820380516001836020036101000a031916815260200191505b509250505060405160208183030381529060405280519060200120815260200190815260200160002060006101000a81548160ff0219169083151502179055505050565b6131a8613bc1565b73ffffffffffffffffffffffffffffffffffffffff163373ffffffffffffffffffffffffffffffffffffffff161415801561322d5750600660003373ffffffffffffffffffffffffffffffffffffffff1673ffffffffffffffffffffffffffffffffffffffff16815260200190815260200160002060009054906101000a900460ff16155b80156132835750600560003373ffffffffffffffffffffffffffffffffffffffff1673ffffffffffffffffffffffffffffffffffffffff16815260200190815260200160002060009054906101000a900460ff16155b1561328d57600080fd5b80601b6000846040516020018080602001828103825283818151815260200191508051906020019080838360005b838110156132d65780820151818401526020810190506132bb565b50505050905090810190601f1680156133035780820380516001836020036101000a031916815260200191505b509250505060405160208183030381529060405280519060200120815260200190815260200160002060006101000a81548173ffffffffffffffffffffffffffffffffffffffff021916908373ffffffffffffffffffffffffffffffffffffffff1602179055505050565b60056020528060005260406000206000915054906101000a900460ff1681565b600e602052826000526040600020602052816000526040600020602052806000526040600020600092509250509054906101000a900460ff1681565b6133d2613bc1565b73ffffffffffffffffffffffffffffffffffffffff163373ffffffffffffffffffffffffffffffffffffffff1614151561340b57600080fd5b6000600660008373ffffffffffffffffffffffffffffffffffffffff1673ffffffffffffffffffffffffffffffffffffffff16815260200190815260200160002060006101000a81548160ff0219169083151502179055508073ffffffffffffffffffffffffffffffffffffffff167f1aaaaf7609619e631f47eb3546f9fdd8c61b1af2175988a0ddb9a06680c3b9ed60405160405180910390a250565b600060196000836040516020018080602001828103825283818151815260200191508051906020019080838360005b838110156134f35780820151818401526020810190506134d8565b50505050905090810190601f1680156135205780820380516001836020036101000a031916815260200191505b5092505050604051602081830303815290604052805190602001208152602001908152602001600020549050919050565b600060126000836040516020018080602001828103825283818151815260200191508051906020019080838360005b8381101561359b578082015181840152602081019050613580565b50505050905090810190601f1680156135c85780820380516001836020036101000a031916815260200191505b5092505050604051602081830303815290604052805190602001208152602001908152602001600020549050919050565b613601613bc1565b73ffffffffffffffffffffffffffffffffffffffff163373ffffffffffffffffffffffffffffffffffffffff1614151561363a57600080fd5b61364381614b15565b50565b6060601c6000836040516020018080602001828103825283818151815260200191508051906020019080838360005b83811015613690578082015181840152602081019050613675565b50505050905090810190601f1680156136bd5780820380516001836020036101000a031916815260200191505b50925050506040516020818303038152906040528051906020012081526020019081526020016000208054600181600116156101000203166002900480601f01602080910402602001604051908101604052809291908181526020018280546001816001161561010002031660029004801561377a5780601f1061374f5761010080835404028352916020019161377a565b820191906000526020600020905b81548152906001019060200180831161375d57829003601f168201915b50505050509050919050565b61378e613bc1565b73ffffffffffffffffffffffffffffffffffffffff163373ffffffffffffffffffffffffffffffffffffffff16141580156138135750600660003373ffffffffffffffffffffffffffffffffffffffff1673ffffffffffffffffffffffffffffffffffffffff16815260200190815260200160002060009054906101000a900460ff16155b1561381d57600080fd5b6001600560008373ffffffffffffffffffffffffffffffffffffffff1673ffffffffffffffffffffffffffffffffffffffff16815260200190815260200160002060006101000a81548160ff021916908315150217905550600760008273ffffffffffffffffffffffffffffffffffffffff1673ffffffffffffffffffffffffffffffffffffffff16815260200190815260200160002060009054906101000a900460ff161515613990576001600760008373ffffffffffffffffffffffffffffffffffffffff1673ffffffffffffffffffffffffffffffffffffffff16815260200190815260200160002060006101000a81548160ff0219169083151502179055508060036000600154815260200190815260200160002060006101000a81548173ffffffffffffffffffffffffffffffffffffffff021916908373ffffffffffffffffffffffffffffffffffffffff16021790555061398960018054614af790919063ffffffff16565b6001819055505b8073ffffffffffffffffffffffffffffffffffffffff167fad6de4452a631e641cb59902236607946ce9272b9b981f2f80e8d129cb9084ba60405160405180910390a250565b600d602052816000526040600020602052806000526040600020600091509150505481565b6000601a6000836040516020018080602001828103825283818151815260200191508051906020019080838360005b83811015613a45578082015181840152602081019050613a2a565b50505050905090810190601f168015613a725780820380516001836020036101000a031916815260200191505b5092505050604051602081830303815290604052805190602001208152602001908152602001600020549050919050565b60176020528160005260406000206020528060005260406000206000915091509054906101000a900460ff1681565b60166020528060005260406000206000915090505481565b600b6020528160005260406000206020528060005260406000206000915091509054906101000a900460ff1681565b6000601e6000836040516020018080602001828103825283818151815260200191508051906020019080838360005b83811015613b63578082015181840152602081019050613b48565b50505050905090810190601f168015613b905780820380516001836020036101000a031916815260200191505b5092505050604051602081830303815290604052805190602001208152602001908152602001600020549050919050565b60008060009054906101000a900473ffffffffffffffffffffffffffffffffffffffff16905090565b6000601d6000836040516020018080602001828103825283818151815260200191508051906020019080838360005b83811015613c34578082015181840152602081019050613c19565b50505050905090810190601f168015613c615780820380516001836020036101000a031916815260200191505b509250505060405160208183030381529060405280519060200120815260200190815260200160002060009054906101000a900460ff169050919050565b613ca7613bc1565b73ffffffffffffffffffffffffffffffffffffffff163373ffffffffffffffffffffffffffffffffffffffff1614158015613d2c5750600660003373ffffffffffffffffffffffffffffffffffffffff1673ffffffffffffffffffffffffffffffffffffffff16815260200190815260200160002060009054906101000a900460ff16155b8015613d825750600560003373ffffffffffffffffffffffffffffffffffffffff1673ffffffffffffffffffffffffffffffffffffffff16815260200190815260200160002060009054906101000a900460ff16155b15613d8c57600080fd5b6000836040516020018080602001828103825283818151815260200191508051906020019080838360005b83811015613dd2578082015181840152602081019050613db7565b50505050905090810190601f168015613dff5780820380516001836020036101000a031916815260200191505b50925050506040516020818303038152906040528051906020012090506017600082815260200190815260200160002060008473ffffffffffffffffffffffffffffffffffffffff1673ffffffffffffffffffffffffffffffffffffffff16815260200190815260200160002060009054906101000a900460ff161515613f91576000601660008381526020019081526020016000205490508360186000848152602001908152602001600020600083815260200190815260200160002060006101000a81548173ffffffffffffffffffffffffffffffffffffffff021916908373ffffffffffffffffffffffffffffffffffffffff160217905550613f0f600182614af790919063ffffffff16565b601660008481526020019081526020016000208190555060016017600084815260200190815260200160002060008673ffffffffffffffffffffffffffffffffffffffff1673ffffffffffffffffffffffffffffffffffffffff16815260200190815260200160002060006101000a81548160ff021916908315150217905550505b816015600083815260200190815260200160002060008573ffffffffffffffffffffffffffffffffffffffff1673ffffffffffffffffffffffffffffffffffffffff16815260200190815260200160002060006101000a81548160ff02191690831515021790555050505050565b600060116000846040516020018080602001828103825283818151815260200191508051906020019080838360005b8381101561404957808201518184015260208101905061402e565b50505050905090810190601f1680156140765780820380516001836020036101000a031916815260200191505b509250505060405160208183030381529060405280519060200120815260200190815260200160002060008373ffffffffffffffffffffffffffffffffffffffff1673ffffffffffffffffffffffffffffffffffffffff16815260200190815260200160002054905092915050565b6140ed613bc1565b73ffffffffffffffffffffffffffffffffffffffff163373ffffffffffffffffffffffffffffffffffffffff16141580156141725750600660003373ffffffffffffffffffffffffffffffffffffffff1673ffffffffffffffffffffffffffffffffffffffff16815260200190815260200160002060009054906101000a900460ff16155b80156141c85750600560003373ffffffffffffffffffffffffffffffffffffffff1673ffffffffffffffffffffffffffffffffffffffff16815260200190815260200160002060009054906101000a900460ff16155b156141d257600080fd5b80601e6000846040516020018080602001828103825283818151815260200191508051906020019080838360005b8381101561421b578082015181840152602081019050614200565b50505050905090810190601f1680156142485780820380516001836020036101000a031916815260200191505b5092505050604051602081830303815290604052805190602001208152602001908152602001600020819055505050565b60025481565b60066020528060005260406000206000915054906101000a900460ff1681565b6010602052816000526040600020602052806000526040600020600091509150508060000154908060010154905082565b6142d8613bc1565b73ffffffffffffffffffffffffffffffffffffffff163373ffffffffffffffffffffffffffffffffffffffff1614151561431157600080fd5b6001600660008373ffffffffffffffffffffffffffffffffffffffff1673ffffffffffffffffffffffffffffffffffffffff16815260200190815260200160002060006101000a81548160ff021916908315150217905550600860008273ffffffffffffffffffffffffffffffffffffffff1673ffffffffffffffffffffffffffffffffffffffff16815260200190815260200160002060009054906101000a900460ff161515614485576001600860008373ffffffffffffffffffffffffffffffffffffffff1673ffffffffffffffffffffffffffffffffffffffff16815260200190815260200160002060006101000a81548160ff0219169083151502179055508060046000600254815260200190815260200160002060006101000a81548173ffffffffffffffffffffffffffffffffffffffff021916908373ffffffffffffffffffffffffffffffffffffffff16021790555061447e6001600254614af790919063ffffffff16565b6002819055505b8073ffffffffffffffffffffffffffffffffffffffff167ffba24c034afca607a35e1f221b154b3f8e1f88c7924c8a0a06755b70708c44d860405160405180910390a250565b6144d3613bc1565b73ffffffffffffffffffffffffffffffffffffffff163373ffffffffffffffffffffffffffffffffffffffff16141580156145585750600660003373ffffffffffffffffffffffffffffffffffffffff1673ffffffffffffffffffffffffffffffffffffffff16815260200190815260200160002060009054906101000a900460ff16155b80156145ae5750600560003373ffffffffffffffffffffffffffffffffffffffff1673ffffffffffffffffffffffffffffffffffffffff16815260200190815260200160002060009054906101000a900460ff16155b156145b857600080fd5b80601c6000846040516020018080602001828103825283818151815260200191508051906020019080838360005b838110156146015780820151818401526020810190506145e6565b50505050905090810190601f16801561462e5780820380516001836020036101000a031916815260200191505b5092505050604051602081830303815290604052805190602001208152602001908152602001600020908051906020019061466a929190614b58565b505050565b60146020528160005260406000206020528060005260406000206000915091509054906101000a900473ffffffffffffffffffffffffffffffffffffffff1681565b60186020528160005260406000206020528060005260406000206000915091509054906101000a900473ffffffffffffffffffffffffffffffffffffffff1681565b60046020528060005260406000206000915054906101000a900473ffffffffffffffffffffffffffffffffffffffff1681565b60126020528060005260406000206000915090505481565b600060156000846040516020018080602001828103825283818151815260200191508051906020019080838360005b8381101561478857808201518184015260208101905061476d565b50505050905090810190601f1680156147b55780820380516001836020036101000a031916815260200191505b509250505060405160208183030381529060405280519060200120815260200190815260200160002060008373ffffffffffffffffffffffffffffffffffffffff1673ffffffffffffffffffffffffffffffffffffffff16815260200190815260200160002060009054906101000a900460ff16905092915050565b600060166000836040516020018080602001828103825283818151815260200191508051906020019080838360005b8381101561487b578082015181840152602081019050614860565b50505050905090810190601f1680156148a85780820380516001836020036101000a031916815260200191505b5092505050604051602081830303815290604052805190602001208152602001908152602001600020549050919050565b60136020528160005260406000206020528060005260406000206000915091509054906101000a900460ff1681565b614910613bc1565b73ffffffffffffffffffffffffffffffffffffffff163373ffffffffffffffffffffffffffffffffffffffff1614151561494957600080fd5b600073ffffffffffffffffffffffffffffffffffffffff168173ffffffffffffffffffffffffffffffffffffffff161415151561498557600080fd5b7f8be0079c531659141344cd1fd0a4f28419497f9722a3daafe3b4186f6b6457e06149ae613bc1565b82604051808373ffffffffffffffffffffffffffffffffffffffff1673ffffffffffffffffffffffffffffffffffffffff1681526020018273ffffffffffffffffffffffffffffffffffffffff1673ffffffffffffffffffffffffffffffffffffffff1681526020019250505060405180910390a1614a2c81614b15565b50565b6000601b6000836040516020018080602001828103825283818151815260200191508051906020019080838360005b83811015614a79578082015181840152602081019050614a5e565b50505050905090810190601f168015614aa65780820380516001836020036101000a031916815260200191505b509250505060405160208183030381529060405280519060200120815260200190815260200160002060009054906101000a900473ffffffffffffffffffffffffffffffffffffffff169050919050565b6000808284019050838110151515614b0b57fe5b8091505092915050565b806000806101000a81548173ffffffffffffffffffffffffffffffffffffffff021916908373ffffffffffffffffffffffffffffffffffffffff16021790555050565b828054600181600116156101000203166002900490600052602060002090601f016020900481019282601f10614b9957805160ff1916838001178555614bc7565b82800160010185558215614bc7579182015b82811115614bc6578251825591602001919060010190614bab565b5b509050614bd49190614bd8565b5090565b614bfa91905b80821115614bf6576000816000905550600101614bde565b5090565b9056fea165627a7a7230582070592c21fab7235398a7f219a21ff764fd7974c4eabdf7de960685682b83eccc0029",
  "source": "pragma solidity ^0.5.0;\n\nimport \"../libraries/SafeMath.sol\";\nimport \"./administratable.sol\";\n\ncontract ExternalStorage is Administratable {\n  using SafeMath for uint256;\n\n  mapping(bytes32 => mapping(address => mapping(address => uint256))) MultiLedgerStorage;\n  mapping(bytes32 => uint256) public primaryLedgerCount;\n  mapping(bytes32 => mapping(address => bool)) public ledgerPrimaryEntries;\n  mapping(bytes32 => mapping(uint256 => address)) public primaryLedgerEntryForIndex;\n  mapping(bytes32 => mapping(address => uint256)) public secondaryLedgerCount;\n  mapping(bytes32 => mapping(address => mapping(address => bool))) public ledgerSecondaryEntries;\n  mapping(bytes32 => mapping(address => mapping(uint256 => address))) public secondaryLedgerEntryForIndex;\n\n  // KYC & investors\n  struct currencies {\n        uint256 approved_sum;\n        uint256 invested_sum;\n    }\n\n     mapping (address => mapping (address => currencies)) public _investors;\n\n\n  function getMultiLedgerValue(string memory record, address primaryAddress, address secondaryAddress) public view returns (uint256) {\n    return MultiLedgerStorage[keccak256(abi.encode(record))][primaryAddress][secondaryAddress];\n  }\n\n  function setMultiLedgerValue(string memory record, address primaryAddress, address secondaryAddress, uint256 value) public onlyAdmins {\n    bytes32 hash = keccak256(abi.encode(record));\n    uint256 primaryLedgerIndex = primaryLedgerCount[hash];\n    uint256 secondaryLedgerIndex = secondaryLedgerCount[hash][primaryAddress];\n    if (!ledgerSecondaryEntries[hash][primaryAddress][secondaryAddress]) {\n      secondaryLedgerEntryForIndex[hash][primaryAddress][secondaryLedgerIndex] = secondaryAddress;\n      secondaryLedgerCount[hash][primaryAddress] = secondaryLedgerIndex.add(1);\n      ledgerSecondaryEntries[hash][primaryAddress][secondaryAddress] = true;\n\n      if (!ledgerPrimaryEntries[hash][primaryAddress]) {\n        primaryLedgerEntryForIndex[hash][primaryLedgerIndex] = primaryAddress;\n        primaryLedgerCount[hash] = primaryLedgerIndex.add(1);\n        ledgerPrimaryEntries[hash][primaryAddress] = true;\n      }\n    }\n\n    MultiLedgerStorage[hash][primaryAddress][secondaryAddress] = value;\n  }\n\n  mapping(bytes32 => mapping(address => uint256)) LedgerStorage;\n  mapping(bytes32 => uint256) public ledgerCount;\n  mapping(bytes32 => mapping(address => bool)) public ledgerAccounts;\n  mapping(bytes32 => mapping(uint256 => address)) public ledgerEntryForIndex;\n\n  function getLedgerValue(string memory record, address _address) public view returns (uint256) {\n    return LedgerStorage[keccak256(abi.encode(record))][_address];\n  }\n\n  function getLedgerCount(string memory record) public view returns (uint256) {\n    return ledgerCount[keccak256(abi.encode(record))];\n  }\n\n  function setLedgerValue(string memory record, address _address, uint256 value) public onlyAdmins {\n    bytes32 hash = keccak256(abi.encode(record));\n    if (!ledgerAccounts[hash][_address]) {\n      uint256 ledgerIndex = ledgerCount[hash];\n      ledgerEntryForIndex[hash][ledgerIndex] = _address;\n      ledgerCount[hash] = ledgerIndex.add(1);\n      ledgerAccounts[hash][_address] = true;\n    }\n\n    LedgerStorage[hash][_address] = value;\n  }\n\n  mapping(bytes32 => mapping(address => bool)) BooleanMapStorage;\n  mapping(bytes32 => uint256) public booleanMapCount;\n  mapping(bytes32 => mapping(address => bool)) public booleanMapAccounts;\n  mapping(bytes32 => mapping(uint256 => address)) public booleanMapEntryForIndex;\n\n  function getBooleanMapValue(string memory record, address _address) public view returns (bool) {\n    return BooleanMapStorage[keccak256(abi.encode(record))][_address];\n  }\n\n  function getBooleanMapCount(string memory record) public view returns (uint256) {\n    return booleanMapCount[keccak256(abi.encode(record))];\n  }\n\n  function setBooleanMapValue(string memory record, address _address, bool value) public onlyAdmins {\n    bytes32 hash = keccak256(abi.encode(record));\n    if (!booleanMapAccounts[hash][_address]) {\n      uint256 ledgerIndex = booleanMapCount[hash];\n      booleanMapEntryForIndex[hash][ledgerIndex] = _address;\n      booleanMapCount[hash] = ledgerIndex.add(1);\n      booleanMapAccounts[hash][_address] = true;\n    }\n\n    BooleanMapStorage[hash][_address] = value;\n  }\n\n  mapping(bytes32 => uint256) UIntStorage;\n\n  function getUIntValue(string memory record) public view returns (uint256) {\n    return UIntStorage[keccak256(abi.encode(record))];\n  }\n\n  function setUIntValue(string memory record, uint256 value) public onlyAdmins {\n    UIntStorage[keccak256(abi.encode(record))] = value;\n  }\n\n  mapping(bytes32 => bytes32) Bytes32Storage;\n\n  function getBytes32Value(string memory record) public view returns (bytes32) {\n    return Bytes32Storage[keccak256(abi.encode(record))];\n  }\n\n  function setBytes32Value(string memory record, bytes32 value) public onlyAdmins {\n    Bytes32Storage[keccak256(abi.encode(record))] = value;\n  }\n\n  mapping(bytes32 => address) AddressStorage;\n\n  function getAddressValue(string memory record) public view returns (address) {\n    return AddressStorage[keccak256(abi.encode(record))];\n  }\n\n  function setAddressValue(string memory record, address value) public onlyAdmins {\n    AddressStorage[keccak256(abi.encode(record))] = value;\n  }\n\n  mapping(bytes32 => bytes) BytesStorage;\n\n  function getBytesValue(string memory record) public view returns (bytes memory) {\n    return BytesStorage[keccak256(abi.encode(record))];\n  }\n\n  function setBytesValue(string memory record, bytes memory value) public onlyAdmins {\n    BytesStorage[keccak256(abi.encode(record))] = value;\n  }\n\n  mapping(bytes32 => bool) BooleanStorage;\n\n  function getBooleanValue(string memory record) public view returns (bool) {\n    return BooleanStorage[keccak256(abi.encode(record))];\n  }\n\n  function setBooleanValue(string memory record, bool value) public onlyAdmins {\n    BooleanStorage[keccak256(abi.encode(record))] = value;\n  }\n\n  mapping(bytes32 => int) IntStorage;\n\n  function getIntValue(string memory record) public view returns (int) {\n    return IntStorage[keccak256(abi.encode(record))];\n  }\n\n  function setIntValue(string memory record, int value) public onlyAdmins {\n    IntStorage[keccak256(abi.encode(record))] = value;\n  }\n\n  //KYC & investors functions\n\n  function investorGet (address _investor_address, bytes32 currency) public   {\n    return; //todo transfer as structure?\n  }\n\n}\n",
  "sourcePath": "/home/sergey/Documents/angels/Angeles.VC-token-scrum-investing/contracts/admin/ExternalStorage.sol",
  "compiler": {
    "name": "solc",
    "version": "0.5.0+commit.1d4f565a.Emscripten.clang"
  },
  "schemaVersion": "3.0.2",
  "updatedAt": "2019-03-25T06:59:12.640Z",
  "devdoc": {
    "methods": {
      "ownable(address)": {
        "details": "The constructor sets the original owner of the contract to the sender account."
      },
      "owner()": {
        "details": "Tells the address of the owner",
        "return": "the address of the owner"
      },
      "transferOwnership(address)": {
        "details": "Allows the current owner to transfer control of the contract to a newOwner.",
        "params": {
          "newOwner": "The address to transfer ownership to."
        }
      }
    }
  },
  "userdoc": {
    "methods": {}
  }
}