{
  "contractName": "ExternalStorage",
  "abi": [
    {
      "constant": true,
      "inputs": [
        {
          "name": "",
          "type": "bytes32"
        }
      ],
      "name": "primaryLedgerCount",
      "outputs": [
        {
          "name": "",
          "type": "uint256"
        }
      ],
      "payable": false,
      "stateMutability": "view",
      "type": "function"
    },
    {
      "constant": true,
      "inputs": [
        {
          "name": "",
          "type": "bytes32"
        },
        {
          "name": "",
          "type": "uint256"
        }
      ],
      "name": "primaryLedgerEntryForIndex",
      "outputs": [
        {
          "name": "",
          "type": "address"
        }
      ],
      "payable": false,
      "stateMutability": "view",
      "type": "function"
    },
    {
      "constant": false,
      "inputs": [
        {
          "name": "_sender_address",
          "type": "address"
        }
      ],
      "name": "check_owner",
      "outputs": [
        {
          "name": "",
          "type": "bool"
        }
      ],
      "payable": false,
      "stateMutability": "nonpayable",
      "type": "function"
    },
    {
      "constant": false,
      "inputs": [
        {
          "name": "newOwner",
          "type": "address"
        }
      ],
      "name": "setOwner",
      "outputs": [],
      "payable": false,
      "stateMutability": "nonpayable",
      "type": "function"
    },
    {
      "constant": true,
      "inputs": [
        {
          "name": "",
          "type": "bytes32"
        },
        {
          "name": "",
          "type": "address"
        },
        {
          "name": "",
          "type": "uint256"
        }
      ],
      "name": "secondaryLedgerEntryForIndex",
      "outputs": [
        {
          "name": "",
          "type": "address"
        }
      ],
      "payable": false,
      "stateMutability": "view",
      "type": "function"
    },
    {
      "constant": false,
      "inputs": [
        {
          "name": "BasicAdministratableaddr",
          "type": "address"
        }
      ],
      "name": "_initAdministratable",
      "outputs": [],
      "payable": false,
      "stateMutability": "nonpayable",
      "type": "function"
    },
    {
      "constant": true,
      "inputs": [
        {
          "name": "",
          "type": "bytes32"
        },
        {
          "name": "",
          "type": "address"
        },
        {
          "name": "",
          "type": "address"
        }
      ],
      "name": "ledgerSecondaryEntries",
      "outputs": [
        {
          "name": "",
          "type": "bool"
        }
      ],
      "payable": false,
      "stateMutability": "view",
      "type": "function"
    },
    {
      "constant": true,
      "inputs": [
        {
          "name": "",
          "type": "bytes32"
        },
        {
          "name": "",
          "type": "address"
        }
      ],
      "name": "secondaryLedgerCount",
      "outputs": [
        {
          "name": "",
          "type": "uint256"
        }
      ],
      "payable": false,
      "stateMutability": "view",
      "type": "function"
    },
    {
      "constant": true,
      "inputs": [
        {
          "name": "",
          "type": "bytes32"
        },
        {
          "name": "",
          "type": "address"
        }
      ],
      "name": "booleanMapAccounts",
      "outputs": [
        {
          "name": "",
          "type": "bool"
        }
      ],
      "payable": false,
      "stateMutability": "view",
      "type": "function"
    },
    {
      "constant": true,
      "inputs": [
        {
          "name": "",
          "type": "bytes32"
        }
      ],
      "name": "booleanMapCount",
      "outputs": [
        {
          "name": "",
          "type": "uint256"
        }
      ],
      "payable": false,
      "stateMutability": "view",
      "type": "function"
    },
    {
      "constant": true,
      "inputs": [
        {
          "name": "",
          "type": "bytes32"
        },
        {
          "name": "",
          "type": "address"
        }
      ],
      "name": "ledgerPrimaryEntries",
      "outputs": [
        {
          "name": "",
          "type": "bool"
        }
      ],
      "payable": false,
      "stateMutability": "view",
      "type": "function"
    },
    {
      "constant": false,
      "inputs": [
        {
          "name": "msgSender",
          "type": "address"
        }
      ],
      "name": "checkAdmin",
      "outputs": [
        {
          "name": "",
          "type": "bool"
        }
      ],
      "payable": false,
      "stateMutability": "nonpayable",
      "type": "function"
    },
    {
      "constant": false,
      "inputs": [
        {
          "name": "msgSender",
          "type": "address"
        }
      ],
      "name": "checkSuperAdmin",
      "outputs": [
        {
          "name": "",
          "type": "bool"
        }
      ],
      "payable": false,
      "stateMutability": "nonpayable",
      "type": "function"
    },
    {
      "constant": true,
      "inputs": [
        {
          "name": "",
          "type": "address"
        },
        {
          "name": "",
          "type": "address"
        }
      ],
      "name": "_investors",
      "outputs": [
        {
          "name": "approved_sum",
          "type": "uint256"
        },
        {
          "name": "invested_sum",
          "type": "uint256"
        }
      ],
      "payable": false,
      "stateMutability": "view",
      "type": "function"
    },
    {
      "constant": true,
      "inputs": [
        {
          "name": "",
          "type": "bytes32"
        },
        {
          "name": "",
          "type": "uint256"
        }
      ],
      "name": "ledgerEntryForIndex",
      "outputs": [
        {
          "name": "",
          "type": "address"
        }
      ],
      "payable": false,
      "stateMutability": "view",
      "type": "function"
    },
    {
      "constant": true,
      "inputs": [
        {
          "name": "",
          "type": "bytes32"
        },
        {
          "name": "",
          "type": "uint256"
        }
      ],
      "name": "booleanMapEntryForIndex",
      "outputs": [
        {
          "name": "",
          "type": "address"
        }
      ],
      "payable": false,
      "stateMutability": "view",
      "type": "function"
    },
    {
      "constant": true,
      "inputs": [
        {
          "name": "",
          "type": "bytes32"
        }
      ],
      "name": "ledgerCount",
      "outputs": [
        {
          "name": "",
          "type": "uint256"
        }
      ],
      "payable": false,
      "stateMutability": "view",
      "type": "function"
    },
    {
      "constant": true,
      "inputs": [
        {
          "name": "",
          "type": "bytes32"
        },
        {
          "name": "",
          "type": "address"
        }
      ],
      "name": "ledgerAccounts",
      "outputs": [
        {
          "name": "",
          "type": "bool"
        }
      ],
      "payable": false,
      "stateMutability": "view",
      "type": "function"
    },
    {
      "constant": true,
      "inputs": [
        {
          "name": "record",
          "type": "string"
        },
        {
          "name": "primaryAddress",
          "type": "address"
        },
        {
          "name": "secondaryAddress",
          "type": "address"
        }
      ],
      "name": "getMultiLedgerValue",
      "outputs": [
        {
          "name": "",
          "type": "uint256"
        }
      ],
      "payable": false,
      "stateMutability": "view",
      "type": "function"
    },
    {
      "constant": false,
      "inputs": [
        {
          "name": "record",
          "type": "string"
        },
        {
          "name": "primaryAddress",
          "type": "address"
        },
        {
          "name": "secondaryAddress",
          "type": "address"
        },
        {
          "name": "value",
          "type": "uint256"
        }
      ],
      "name": "setMultiLedgerValue",
      "outputs": [],
      "payable": false,
      "stateMutability": "nonpayable",
      "type": "function"
    },
    {
      "constant": true,
      "inputs": [
        {
          "name": "record",
          "type": "string"
        },
        {
          "name": "_address",
          "type": "address"
        }
      ],
      "name": "getLedgerValue",
      "outputs": [
        {
          "name": "",
          "type": "uint256"
        }
      ],
      "payable": false,
      "stateMutability": "view",
      "type": "function"
    },
    {
      "constant": true,
      "inputs": [
        {
          "name": "record",
          "type": "string"
        }
      ],
      "name": "getLedgerCount",
      "outputs": [
        {
          "name": "",
          "type": "uint256"
        }
      ],
      "payable": false,
      "stateMutability": "view",
      "type": "function"
    },
    {
      "constant": false,
      "inputs": [
        {
          "name": "record",
          "type": "string"
        },
        {
          "name": "_address",
          "type": "address"
        },
        {
          "name": "value",
          "type": "uint256"
        }
      ],
      "name": "setLedgerValue",
      "outputs": [],
      "payable": false,
      "stateMutability": "nonpayable",
      "type": "function"
    },
    {
      "constant": true,
      "inputs": [
        {
          "name": "record",
          "type": "string"
        },
        {
          "name": "_address",
          "type": "address"
        }
      ],
      "name": "getBooleanMapValue",
      "outputs": [
        {
          "name": "",
          "type": "bool"
        }
      ],
      "payable": false,
      "stateMutability": "view",
      "type": "function"
    },
    {
      "constant": true,
      "inputs": [
        {
          "name": "record",
          "type": "string"
        }
      ],
      "name": "getBooleanMapCount",
      "outputs": [
        {
          "name": "",
          "type": "uint256"
        }
      ],
      "payable": false,
      "stateMutability": "view",
      "type": "function"
    },
    {
      "constant": false,
      "inputs": [
        {
          "name": "record",
          "type": "string"
        },
        {
          "name": "_address",
          "type": "address"
        },
        {
          "name": "value",
          "type": "bool"
        }
      ],
      "name": "setBooleanMapValue",
      "outputs": [],
      "payable": false,
      "stateMutability": "nonpayable",
      "type": "function"
    },
    {
      "constant": true,
      "inputs": [
        {
          "name": "record",
          "type": "string"
        }
      ],
      "name": "getUIntValue",
      "outputs": [
        {
          "name": "",
          "type": "uint256"
        }
      ],
      "payable": false,
      "stateMutability": "view",
      "type": "function"
    },
    {
      "constant": false,
      "inputs": [
        {
          "name": "record",
          "type": "string"
        },
        {
          "name": "value",
          "type": "uint256"
        }
      ],
      "name": "setUIntValue",
      "outputs": [],
      "payable": false,
      "stateMutability": "nonpayable",
      "type": "function"
    },
    {
      "constant": true,
      "inputs": [
        {
          "name": "record",
          "type": "string"
        }
      ],
      "name": "getBytes32Value",
      "outputs": [
        {
          "name": "",
          "type": "bytes32"
        }
      ],
      "payable": false,
      "stateMutability": "view",
      "type": "function"
    },
    {
      "constant": false,
      "inputs": [
        {
          "name": "record",
          "type": "string"
        },
        {
          "name": "value",
          "type": "bytes32"
        }
      ],
      "name": "setBytes32Value",
      "outputs": [],
      "payable": false,
      "stateMutability": "nonpayable",
      "type": "function"
    },
    {
      "constant": true,
      "inputs": [
        {
          "name": "record",
          "type": "string"
        }
      ],
      "name": "getAddressValue",
      "outputs": [
        {
          "name": "",
          "type": "address"
        }
      ],
      "payable": false,
      "stateMutability": "view",
      "type": "function"
    },
    {
      "constant": false,
      "inputs": [
        {
          "name": "record",
          "type": "string"
        },
        {
          "name": "value",
          "type": "address"
        }
      ],
      "name": "setAddressValue",
      "outputs": [],
      "payable": false,
      "stateMutability": "nonpayable",
      "type": "function"
    },
    {
      "constant": true,
      "inputs": [
        {
          "name": "record",
          "type": "string"
        }
      ],
      "name": "getBytesValue",
      "outputs": [
        {
          "name": "",
          "type": "bytes"
        }
      ],
      "payable": false,
      "stateMutability": "view",
      "type": "function"
    },
    {
      "constant": false,
      "inputs": [
        {
          "name": "record",
          "type": "string"
        },
        {
          "name": "value",
          "type": "bytes"
        }
      ],
      "name": "setBytesValue",
      "outputs": [],
      "payable": false,
      "stateMutability": "nonpayable",
      "type": "function"
    },
    {
      "constant": true,
      "inputs": [
        {
          "name": "record",
          "type": "string"
        }
      ],
      "name": "getBooleanValue",
      "outputs": [
        {
          "name": "",
          "type": "bool"
        }
      ],
      "payable": false,
      "stateMutability": "view",
      "type": "function"
    },
    {
      "constant": false,
      "inputs": [
        {
          "name": "record",
          "type": "string"
        },
        {
          "name": "value",
          "type": "bool"
        }
      ],
      "name": "setBooleanValue",
      "outputs": [],
      "payable": false,
      "stateMutability": "nonpayable",
      "type": "function"
    },
    {
      "constant": true,
      "inputs": [
        {
          "name": "record",
          "type": "string"
        }
      ],
      "name": "getIntValue",
      "outputs": [
        {
          "name": "",
          "type": "int256"
        }
      ],
      "payable": false,
      "stateMutability": "view",
      "type": "function"
    },
    {
      "constant": false,
      "inputs": [
        {
          "name": "record",
          "type": "string"
        },
        {
          "name": "value",
          "type": "int256"
        }
      ],
      "name": "setIntValue",
      "outputs": [],
      "payable": false,
      "stateMutability": "nonpayable",
      "type": "function"
    }
  ],
  "bytecode": "0x608060405234801561001057600080fd5b5061299d806100206000396000f3fe6080604052600436106101d75763ffffffff7c01000000000000000000000000000000000000000000000000000000006000350416630305357e81146101dc57806303d7593714610218578063059f9ebf146102cf578063088787a31461031b5780630c3504c9146103e45780630cb1a3a91461042b57806310278bc8146104ec57806313af4035146105a1578063199759db146105d45780631f69d230146106135780633d8f89d7146106de578063413c6d131461079357806342716730146108515780634463d9ec146108845780634f161245146108c55780634f6acaa1146109785780636e22d33e14610a2b578063740ca23c14610b535780637ec1399614610b8c5780637ffcd79f14610c3f57806383e835e014610c785780638552527714610ca2578063877c218414610cdb5780638de2165014610d8e5780639026dee814610e41578063929268b814610e74578063a1d658b114610f37578063a90cf6f414610f6a578063abd6ff8e14611028578063ad530619146110dd578063bf3c112014611131578063c04dc73b1461126b578063c0b3ac931461129b578063d3f742dc146112cb578063e671fab5146112f5578063e89bc86b146113b3578063e8d39d0714611466578063fd2556831461149f575b600080fd5b3480156101e857600080fd5b50610206600480360360208110156101ff57600080fd5b5035611552565b60408051918252519081900360200190f35b34801561022457600080fd5b506102cd6004803603604081101561023b57600080fd5b81019060208101813564010000000081111561025657600080fd5b82018360208201111561026857600080fd5b8035906020019184600183028401116401000000008311171561028a57600080fd5b91908080601f0160208091040260200160405190810160405280939291908181526020018383808284376000920191909152509295505091359250611564915050565b005b3480156102db57600080fd5b506102ff600480360360408110156102f257600080fd5b508035906020013561161a565b60408051600160a060020a039092168252519081900360200190f35b34801561032757600080fd5b506102066004803603606081101561033e57600080fd5b81019060208101813564010000000081111561035957600080fd5b82018360208201111561036b57600080fd5b8035906020019184600183028401116401000000008311171561038d57600080fd5b91908080601f01602080910402602001604051908101604052809392919081815260200183838082843760009201919091525092955050600160a060020a0383358116945060209093013590921691506116409050565b3480156103f057600080fd5b506104176004803603602081101561040757600080fd5b5035600160a060020a0316611706565b604080519115158252519081900360200190f35b34801561043757600080fd5b506102cd6004803603606081101561044e57600080fd5b81019060208101813564010000000081111561046957600080fd5b82018360208201111561047b57600080fd5b8035906020019184600183028401116401000000008311171561049d57600080fd5b91908080601f01602080910402602001604051908101604052809392919081815260200183838082843760009201919091525092955050600160a060020a0383351693505050602001356117a3565b3480156104f857600080fd5b506102cd6004803603604081101561050f57600080fd5b81019060208101813564010000000081111561052a57600080fd5b82018360208201111561053c57600080fd5b8035906020019184600183028401116401000000008311171561055e57600080fd5b91908080601f0160208091040260200160405190810160405280939291908181526020018383808284376000920191909152509295505091359250611924915050565b3480156105ad57600080fd5b506102cd600480360360208110156105c457600080fd5b5035600160a060020a031661197d565b3480156105e057600080fd5b506102ff600480360360608110156105f757600080fd5b50803590600160a060020a0360208201351690604001356119c3565b34801561061f57600080fd5b506102cd6004803603608081101561063657600080fd5b81019060208101813564010000000081111561065157600080fd5b82018360208201111561066357600080fd5b8035906020019184600183028401116401000000008311171561068557600080fd5b91908080601f01602080910402602001604051908101604052809392919081815260200183838082843760009201919091525092955050600160a060020a03833581169450602084013516926040013591506119ef9050565b3480156106ea57600080fd5b506102cd6004803603604081101561070157600080fd5b81019060208101813564010000000081111561071c57600080fd5b82018360208201111561072e57600080fd5b8035906020019184600183028401116401000000008311171561075057600080fd5b91908080601f0160208091040260200160405190810160405280939291908181526020018383808284376000920191909152509295505050503515159050611c66565b34801561079f57600080fd5b506102cd600480360360408110156107b657600080fd5b8101906020810181356401000000008111156107d157600080fd5b8201836020820111156107e357600080fd5b8035906020019184600183028401116401000000008311171561080557600080fd5b91908080601f01602080910402602001604051908101604052809392919081815260200183838082843760009201919091525092955050509035600160a060020a03169150611d2a9050565b34801561085d57600080fd5b506102cd6004803603602081101561087457600080fd5b5035600160a060020a0316611e03565b34801561089057600080fd5b50610417600480360360608110156108a757600080fd5b50803590600160a060020a0360208201358116916040013516611e49565b3480156108d157600080fd5b50610206600480360360208110156108e857600080fd5b81019060208101813564010000000081111561090357600080fd5b82018360208201111561091557600080fd5b8035906020019184600183028401116401000000008311171561093757600080fd5b91908080601f016020809104026020016040519081016040528093929190818152602001838380828437600092019190915250929550611e6f945050505050565b34801561098457600080fd5b506102066004803603602081101561099b57600080fd5b8101906020810181356401000000008111156109b657600080fd5b8201836020820111156109c857600080fd5b803590602001918460018302840111640100000000831117156109ea57600080fd5b91908080601f016020809104026020016040519081016040528093929190818152602001838380828437600092019190915250929550611f14945050505050565b348015610a3757600080fd5b50610ade60048036036020811015610a4e57600080fd5b810190602081018135640100000000811115610a6957600080fd5b820183602082011115610a7b57600080fd5b80359060200191846001830284011164010000000083111715610a9d57600080fd5b91908080601f016020809104026020016040519081016040528093929190818152602001838380828437600092019190915250929550611f5a945050505050565b6040805160208082528351818301528351919283929083019185019080838360005b83811015610b18578181015183820152602001610b00565b50505050905090810190601f168015610b455780820380516001836020036101000a031916815260200191505b509250505060405180910390f35b348015610b5f57600080fd5b5061020660048036036040811015610b7657600080fd5b5080359060200135600160a060020a031661208a565b348015610b9857600080fd5b5061020660048036036020811015610baf57600080fd5b810190602081018135640100000000811115610bca57600080fd5b820183602082011115610bdc57600080fd5b80359060200191846001830284011164010000000083111715610bfe57600080fd5b91908080601f0160208091040260200160405190810160405280939291908181526020018383808284376000920191909152509295506120a7945050505050565b348015610c4b57600080fd5b5061041760048036036040811015610c6257600080fd5b5080359060200135600160a060020a03166120ed565b348015610c8457600080fd5b5061020660048036036020811015610c9b57600080fd5b503561210d565b348015610cae57600080fd5b5061041760048036036040811015610cc557600080fd5b5080359060200135600160a060020a031661211f565b348015610ce757600080fd5b5061020660048036036020811015610cfe57600080fd5b810190602081018135640100000000811115610d1957600080fd5b820183602082011115610d2b57600080fd5b80359060200191846001830284011164010000000083111715610d4d57600080fd5b91908080601f01602080910402602001604051908101604052809392919081815260200183838082843760009201919091525092955061213f945050505050565b348015610d9a57600080fd5b5061041760048036036020811015610db157600080fd5b810190602081018135640100000000811115610dcc57600080fd5b820183602082011115610dde57600080fd5b80359060200191846001830284011164010000000083111715610e0057600080fd5b91908080601f016020809104026020016040519081016040528093929190818152602001838380828437600092019190915250929550612185945050505050565b348015610e4d57600080fd5b5061041760048036036020811015610e6457600080fd5b5035600160a060020a031661222c565b348015610e8057600080fd5b506102cd60048036036060811015610e9757600080fd5b810190602081018135640100000000811115610eb257600080fd5b820183602082011115610ec457600080fd5b80359060200191846001830284011164010000000083111715610ee657600080fd5b91908080601f01602080910402602001604051908101604052809392919081815260200183838082843760009201919091525092955050600160a060020a0383351693505050602001351515612297565b348015610f4357600080fd5b5061041760048036036020811015610f5a57600080fd5b5035600160a060020a0316612427565b348015610f7657600080fd5b5061020660048036036040811015610f8d57600080fd5b810190602081018135640100000000811115610fa857600080fd5b820183602082011115610fba57600080fd5b80359060200191846001830284011164010000000083111715610fdc57600080fd5b91908080601f01602080910402602001604051908101604052809392919081815260200183838082843760009201919091525092955050509035600160a060020a031691506124929050565b34801561103457600080fd5b506102cd6004803603604081101561104b57600080fd5b81019060208101813564010000000081111561106657600080fd5b82018360208201111561107857600080fd5b8035906020019184600183028401116401000000008311171561109a57600080fd5b91908080601f016020809104026020016040519081016040528093929190818152602001838380828437600092019190915250929550509135925061254c915050565b3480156110e957600080fd5b506111186004803603604081101561110057600080fd5b50600160a060020a03813581169160200135166125a5565b6040805192835260208301919091528051918290030190f35b34801561113d57600080fd5b506102cd6004803603604081101561115457600080fd5b81019060208101813564010000000081111561116f57600080fd5b82018360208201111561118157600080fd5b803590602001918460018302840111640100000000831117156111a357600080fd5b91908080601f01602080910402602001604051908101604052809392919081815260200183838082843760009201919091525092959493602081019350359150506401000000008111156111f657600080fd5b82018360208201111561120857600080fd5b8035906020019184600183028401116401000000008311171561122a57600080fd5b91908080601f0160208091040260200160405190810160405280939291908181526020018383808284376000920191909152509295506125c9945050505050565b34801561127757600080fd5b506102ff6004803603604081101561128e57600080fd5b5080359060200135612692565b3480156112a757600080fd5b506102ff600480360360408110156112be57600080fd5b50803590602001356126b8565b3480156112d757600080fd5b50610206600480360360208110156112ee57600080fd5b50356126de565b34801561130157600080fd5b506104176004803603604081101561131857600080fd5b81019060208101813564010000000081111561133357600080fd5b82018360208201111561134557600080fd5b8035906020019184600183028401116401000000008311171561136757600080fd5b91908080601f01602080910402602001604051908101604052809392919081815260200183838082843760009201919091525092955050509035600160a060020a031691506126f09050565b3480156113bf57600080fd5b50610206600480360360208110156113d657600080fd5b8101906020810181356401000000008111156113f157600080fd5b82018360208201111561140357600080fd5b8035906020019184600183028401116401000000008311171561142557600080fd5b91908080601f0160208091040260200160405190810160405280939291908181526020018383808284376000920191909152509295506127ad945050505050565b34801561147257600080fd5b506104176004803603604081101561148957600080fd5b5080359060200135600160a060020a03166127f3565b3480156114ab57600080fd5b506102ff600480360360208110156114c257600080fd5b8101906020810181356401000000008111156114dd57600080fd5b8201836020820111156114ef57600080fd5b8035906020019184600183028401116401000000008311171561151157600080fd5b91908080601f016020809104026020016040519081016040528093929190818152602001838380828437600092019190915250929550612813945050505050565b60046020526000908152604090205481565b3361156e8161222c565b1561157857600080fd5b8160136000856040516020018080602001828103825283818151815260200191508051906020019080838360005b838110156115be5781810151838201526020016115a6565b50505050905090810190601f1680156115eb5780820380516001836020036101000a031916815260200191505b5060408051601f1981840301815291815281516020928301208652908501959095525050500160002055505050565b6006602090815260009283526040808420909152908252902054600160a060020a031681565b600060036000856040516020018080602001828103825283818151815260200191508051906020019080838360005b8381101561168757818101518382015260200161166f565b50505050905090810190601f1680156116b45780820380516001836020036101000a031916815260200191505b5060408051808303601f1901815291815281516020928301208652858201969096529385016000908120600160a060020a03998a16825285528581209790981688525050509290925250902054919050565b600154604080517f0c3504c9000000000000000000000000000000000000000000000000000000008152600160a060020a03848116600483015291516000939290921691630c3504c99160248082019260209290919082900301818787803b15801561177157600080fd5b505af1158015611785573d6000803e3d6000fd5b505050506040513d602081101561179b57600080fd5b505192915050565b336117ad8161222c565b156117b757600080fd5b6000846040516020018080602001828103825283818151815260200191508051906020019080838360005b838110156117fa5781810151838201526020016117e2565b50505050905090810190601f1680156118275780820380516001836020036101000a031916815260200191505b5060408051601f1981840301815291815281516020928301206000818152600d8452828120600160a060020a038c16825290935291205490945060ff16151592506118fa915050576000818152600c6020908152604080832054600e8352818420818552909252909120805473ffffffffffffffffffffffffffffffffffffffff1916600160a060020a0387161790556118c28160016128c0565b6000838152600c6020908152604080832093909355600d8152828220600160a060020a0389168352905220805460ff19166001179055505b6000908152600b60209081526040808320600160a060020a03909616835294905292909220555050565b3361192e8161222c565b1561193857600080fd5b816014600085604051602001808060200182810382528381815181526020019150805190602001908083836000838110156115be5781810151838201526020016115a6565b600254600160a060020a0316331461199457600080fd5b6002805473ffffffffffffffffffffffffffffffffffffffff1916600160a060020a0392909216919091179055565b6009602090815260009384526040808520825292845282842090528252902054600160a060020a031681565b336119f98161222c565b15611a0357600080fd5b6000856040516020018080602001828103825283818151815260200191508051906020019080838360005b83811015611a46578181015183820152602001611a2e565b50505050905090810190601f168015611a735780820380516001836020036101000a031916815260200191505b5060408051601f1981840301815291815281516020928301206000818152600484528281205460078552838220600160a060020a03808f168085529187528584205485855260088852868520928552918752858420908e1684529095529290205490965090945090925060ff1615159050611c2f576000838152600960209081526040808320600160a060020a038b81168552908352818420858552909252909120805473ffffffffffffffffffffffffffffffffffffffff1916918816919091179055611b428160016128c0565b6000848152600760209081526040808320600160a060020a03808d1680865291845282852095909555878452600883528184208185528352818420948b168452938252808320805460ff1916600117905586835260058252808320938352929052205460ff161515611c2f5760008381526006602090815260408083208584529091529020805473ffffffffffffffffffffffffffffffffffffffff1916600160a060020a038916179055611bf88260016128c0565b60008481526004602090815260408083209390935560058152828220600160a060020a038b168352905220805460ff191660011790555b50506000908152600360209081526040808320600160a060020a039788168452825280832095909616825293909352509190205550565b33611c708161222c565b15611c7a57600080fd5b8160176000856040516020018080602001828103825283818151815260200191508051906020019080838360005b83811015611cc0578181015183820152602001611ca8565b50505050905090810190601f168015611ced5780820380516001836020036101000a031916815260200191505b5060408051808303601f19018152918152815160209283012086529085019590955250505001600020805460ff1916911515919091179055505050565b33611d348161222c565b15611d3e57600080fd5b8160156000856040516020018080602001828103825283818151815260200191508051906020019080838360005b83811015611d84578181015183820152602001611d6c565b50505050905090810190601f168015611db15780820380516001836020036101000a031916815260200191505b509250505060405160208183030381529060405280519060200120815260200190815260200160002060006101000a815481600160a060020a030219169083600160a060020a03160217905550505050565b600254600160a060020a03163314611e1a57600080fd5b6001805473ffffffffffffffffffffffffffffffffffffffff1916600160a060020a0392909216919091179055565b600860209081526000938452604080852082529284528284209052825290205460ff1681565b600060136000836040516020018080602001828103825283818151815260200191508051906020019080838360005b83811015611eb6578181015183820152602001611e9e565b50505050905090810190601f168015611ee35780820380516001836020036101000a031916815260200191505b5092505050604051602081830303815290604052805190602001208152602001908152602001600020549050919050565b6000600c60008360405160200180806020018281038252838181518152602001915080519060200190808383600083811015611eb6578181015183820152602001611e9e565b606060166000836040516020018080602001828103825283818151815260200191508051906020019080838360005b83811015611fa1578181015183820152602001611f89565b50505050905090810190601f168015611fce5780820380516001836020036101000a031916815260200191505b5060408051601f19818403018152918152815160209283012086528582019690965293850160002080548651601f6002600019610100600186161502019093169290920491820187900487028101870190975280875290949093508501915083905082801561207e5780601f106120535761010080835404028352916020019161207e565b820191906000526020600020905b81548152906001019060200180831161206157829003601f168201915b50505050509050919050565b600760209081526000928352604080842090915290825290205481565b6000601460008360405160200180806020018281038252838181518152602001915080519060200190808383600083811015611eb6578181015183820152602001611e9e565b601160209081526000928352604080842090915290825290205460ff1681565b60106020526000908152604090205481565b600560209081526000928352604080842090915290825290205460ff1681565b6000601860008360405160200180806020018281038252838181518152602001915080519060200190808383600083811015611eb6578181015183820152602001611e9e565b600060176000836040516020018080602001828103825283818151815260200191508051906020019080838360005b838110156121cc5781810151838201526020016121b4565b50505050905090810190601f1680156121f95780820380516001836020036101000a031916815260200191505b5060408051808303601f190181529181528151602092830120865290850195909552505050016000205460ff1692915050565b600154604080517f9026dee8000000000000000000000000000000000000000000000000000000008152600160a060020a03848116600483015291516000939290921691639026dee89160248082019260209290919082900301818787803b15801561177157600080fd5b336122a18161222c565b156122ab57600080fd5b6000846040516020018080602001828103825283818151815260200191508051906020019080838360005b838110156122ee5781810151838201526020016122d6565b50505050905090810190601f16801561231b5780820380516001836020036101000a031916815260200191505b5060408051601f198184030181529181528151602092830120600081815260118452828120600160a060020a038c16825290935291205490945060ff16151592506123ee9150505760008181526010602090815260408083205460128352818420818552909252909120805473ffffffffffffffffffffffffffffffffffffffff1916600160a060020a0387161790556123b68160016128c0565b60008381526010602090815260408083209390935560118152828220600160a060020a0389168352905220805460ff19166001179055505b6000908152600f60209081526040808320600160a060020a0396909616835294905292909220805460ff19169115159190911790555050565b600154604080517fa1d658b1000000000000000000000000000000000000000000000000000000008152600160a060020a0384811660048301529151600093929092169163a1d658b19160248082019260209290919082900301818787803b15801561177157600080fd5b6000600b6000846040516020018080602001828103825283818151815260200191508051906020019080838360005b838110156124d95781810151838201526020016124c1565b50505050905090810190601f1680156125065780820380516001836020036101000a031916815260200191505b5060408051601f1981840301815291815281516020928301208652858201969096529385016000908120600160a060020a03891682529094525050502054905092915050565b336125568161222c565b1561256057600080fd5b816018600085604051602001808060200182810382528381815181526020019150805190602001908083836000838110156115be5781810151838201526020016115a6565b600a6020908152600092835260408084209091529082529020805460019091015482565b336125d38161222c565b156125dd57600080fd5b8160166000856040516020018080602001828103825283818151815260200191508051906020019080838360005b8381101561262357818101518382015260200161260b565b50505050905090810190601f1680156126505780820380516001836020036101000a031916815260200191505b5092505050604051602081830303815290604052805190602001208152602001908152602001600020908051906020019061268c9291906128d6565b50505050565b600e602090815260009283526040808420909152908252902054600160a060020a031681565b6012602090815260009283526040808420909152908252902054600160a060020a031681565b600c6020526000908152604090205481565b6000600f6000846040516020018080602001828103825283818151815260200191508051906020019080838360005b8381101561273757818101518382015260200161271f565b50505050905090810190601f1680156127645780820380516001836020036101000a031916815260200191505b5060408051601f1981840301815291815281516020928301208652858201969096529385016000908120600160a060020a0389168252909452505050205460ff16905092915050565b6000601060008360405160200180806020018281038252838181518152602001915080519060200190808383600083811015611eb6578181015183820152602001611e9e565b600d60209081526000928352604080842090915290825290205460ff1681565b600060156000836040516020018080602001828103825283818151815260200191508051906020019080838360005b8381101561285a578181015183820152602001612842565b50505050905090810190601f1680156128875780820380516001836020036101000a031916815260200191505b5060408051808303601f1901815291815281516020928301208652908501959095525050500160002054600160a060020a031692915050565b6000828201838110156128cf57fe5b9392505050565b828054600181600116156101000203166002900490600052602060002090601f016020900481019282601f1061291757805160ff1916838001178555612944565b82800160010185558215612944579182015b82811115612944578251825591602001919060010190612929565b50612950929150612954565b5090565b61296e91905b80821115612950576000815560010161295a565b9056fea165627a7a723058208a3f71968624392c5b97c70072a15011406e2d5565b2dbb4d1d41eb29505933c0029",
  "source": "pragma solidity ^0.5.0;\n\nimport \"../../libraries/SafeMath.sol\";\nimport \"../interface/administratable.sol\";\n\ncontract ExternalStorage is Administratable {\n  using SafeMath for uint256;\n\n  mapping(bytes32 => mapping(address => mapping(address => uint256))) MultiLedgerStorage;\n  mapping(bytes32 => uint256) public primaryLedgerCount;\n  mapping(bytes32 => mapping(address => bool)) public ledgerPrimaryEntries;\n  mapping(bytes32 => mapping(uint256 => address)) public primaryLedgerEntryForIndex;\n  mapping(bytes32 => mapping(address => uint256)) public secondaryLedgerCount;\n  mapping(bytes32 => mapping(address => mapping(address => bool))) public ledgerSecondaryEntries;\n  mapping(bytes32 => mapping(address => mapping(uint256 => address))) public secondaryLedgerEntryForIndex;\n\n  // KYC & investors\n  struct currencies {\n        uint256 approved_sum;\n        uint256 invested_sum;\n    }\n\n     mapping (address => mapping (address => currencies)) public _investors;\n\n\n  function getMultiLedgerValue(string memory record, address primaryAddress, address secondaryAddress) public view returns (uint256) {\n    return MultiLedgerStorage[keccak256(abi.encode(record))][primaryAddress][secondaryAddress];\n  }\n\n  function setMultiLedgerValue(string memory record, address primaryAddress, address secondaryAddress, uint256 value) public onlyAdmins (msg.sender) {\n    bytes32 hash = keccak256(abi.encode(record));\n    uint256 primaryLedgerIndex = primaryLedgerCount[hash];\n    uint256 secondaryLedgerIndex = secondaryLedgerCount[hash][primaryAddress];\n    if (!ledgerSecondaryEntries[hash][primaryAddress][secondaryAddress]) {\n      secondaryLedgerEntryForIndex[hash][primaryAddress][secondaryLedgerIndex] = secondaryAddress;\n      secondaryLedgerCount[hash][primaryAddress] = secondaryLedgerIndex.add(1);\n      ledgerSecondaryEntries[hash][primaryAddress][secondaryAddress] = true;\n\n      if (!ledgerPrimaryEntries[hash][primaryAddress]) {\n        primaryLedgerEntryForIndex[hash][primaryLedgerIndex] = primaryAddress;\n        primaryLedgerCount[hash] = primaryLedgerIndex.add(1);\n        ledgerPrimaryEntries[hash][primaryAddress] = true;\n      }\n    }\n\n    MultiLedgerStorage[hash][primaryAddress][secondaryAddress] = value;\n  }\n\n  mapping(bytes32 => mapping(address => uint256)) LedgerStorage;\n  mapping(bytes32 => uint256) public ledgerCount;\n  mapping(bytes32 => mapping(address => bool)) public ledgerAccounts;\n  mapping(bytes32 => mapping(uint256 => address)) public ledgerEntryForIndex;\n\n  function getLedgerValue(string memory record, address _address) public view returns (uint256) {\n    return LedgerStorage[keccak256(abi.encode(record))][_address];\n  }\n\n  function getLedgerCount(string memory record) public view returns (uint256) {\n    return ledgerCount[keccak256(abi.encode(record))];\n  }\n\n  function setLedgerValue(string memory record, address _address, uint256 value) public onlyAdmins (msg.sender) {\n    bytes32 hash = keccak256(abi.encode(record));\n    if (!ledgerAccounts[hash][_address]) {\n      uint256 ledgerIndex = ledgerCount[hash];\n      ledgerEntryForIndex[hash][ledgerIndex] = _address;\n      ledgerCount[hash] = ledgerIndex.add(1);\n      ledgerAccounts[hash][_address] = true;\n    }\n\n    LedgerStorage[hash][_address] = value;\n  }\n\n  mapping(bytes32 => mapping(address => bool)) BooleanMapStorage;\n  mapping(bytes32 => uint256) public booleanMapCount;\n  mapping(bytes32 => mapping(address => bool)) public booleanMapAccounts;\n  mapping(bytes32 => mapping(uint256 => address)) public booleanMapEntryForIndex;\n\n  function getBooleanMapValue(string memory record, address _address) public view returns (bool) {\n    return BooleanMapStorage[keccak256(abi.encode(record))][_address];\n  }\n\n  function getBooleanMapCount(string memory record) public view returns (uint256) {\n    return booleanMapCount[keccak256(abi.encode(record))];\n  }\n\n  function setBooleanMapValue(string memory record, address _address, bool value) public onlyAdmins (msg.sender) {\n    bytes32 hash = keccak256(abi.encode(record));\n    if (!booleanMapAccounts[hash][_address]) {\n      uint256 ledgerIndex = booleanMapCount[hash];\n      booleanMapEntryForIndex[hash][ledgerIndex] = _address;\n      booleanMapCount[hash] = ledgerIndex.add(1);\n      booleanMapAccounts[hash][_address] = true;\n    }\n\n    BooleanMapStorage[hash][_address] = value;\n  }\n\n  mapping(bytes32 => uint256) UIntStorage;\n\n  function getUIntValue(string memory record) public view returns (uint256) {\n    return UIntStorage[keccak256(abi.encode(record))];\n  }\n\n  function setUIntValue(string memory record, uint256 value) public onlyAdmins (msg.sender) {\n    UIntStorage[keccak256(abi.encode(record))] = value;\n  }\n\n  mapping(bytes32 => bytes32) Bytes32Storage;\n\n  function getBytes32Value(string memory record) public view returns (bytes32) {\n    return Bytes32Storage[keccak256(abi.encode(record))];\n  }\n\n  function setBytes32Value(string memory record, bytes32 value) public onlyAdmins (msg.sender) {\n    Bytes32Storage[keccak256(abi.encode(record))] = value;\n  }\n\n  mapping(bytes32 => address) AddressStorage;\n\n  function getAddressValue(string memory record) public view returns (address) {\n    return AddressStorage[keccak256(abi.encode(record))];\n  }\n\n  function setAddressValue(string memory record, address value) public onlyAdmins (msg.sender) {\n    AddressStorage[keccak256(abi.encode(record))] = value;\n  }\n\n  mapping(bytes32 => bytes) BytesStorage;\n\n  function getBytesValue(string memory record) public view returns (bytes memory) {\n    return BytesStorage[keccak256(abi.encode(record))];\n  }\n\n  function setBytesValue(string memory record, bytes memory value) public onlyAdmins (msg.sender) {\n    BytesStorage[keccak256(abi.encode(record))] = value;\n  }\n\n  mapping(bytes32 => bool) BooleanStorage;\n\n  function getBooleanValue(string memory record) public view returns (bool) {\n    return BooleanStorage[keccak256(abi.encode(record))];\n  }\n\n  function setBooleanValue(string memory record, bool value) public onlyAdmins (msg.sender) {\n    BooleanStorage[keccak256(abi.encode(record))] = value;\n  }\n\n  mapping(bytes32 => int) IntStorage;\n\n  function getIntValue(string memory record) public view returns (int) {\n    return IntStorage[keccak256(abi.encode(record))];\n  }\n\n  function setIntValue(string memory record, int value) public onlyAdmins (msg.sender) {\n    IntStorage[keccak256(abi.encode(record))] = value;\n  }\n\n}\n",
  "sourcePath": "/home/sergey/Documents/angels/2083nointerfaces/Angeles.VC-token-scrum-investing/contracts/admin/implementation/basic-ExternalStorage.sol",
  "compiler": {
    "name": "solc",
    "version": "0.5.0+commit.1d4f565a.Emscripten.clang"
  },
  "schemaVersion": "3.0.2",
  "updatedAt": "2019-04-03T12:27:29.232Z",
  "devdoc": {
    "methods": {}
  },
  "userdoc": {
    "methods": {}
  }
}