{
  "contractName": "Freezable",
  "abi": [
    {
      "constant": false,
      "inputs": [
        {
          "name": "_sender_address",
          "type": "address"
        }
      ],
      "name": "check_owner",
      "outputs": [
        {
          "name": "",
          "type": "bool"
        }
      ],
      "payable": false,
      "stateMutability": "nonpayable",
      "type": "function"
    },
    {
      "constant": false,
      "inputs": [
        {
          "name": "BasicAdministratableaddr",
          "type": "address"
        }
      ],
      "name": "_initAdministratable",
      "outputs": [],
      "payable": false,
      "stateMutability": "nonpayable",
      "type": "function"
    },
    {
      "constant": true,
      "inputs": [],
      "name": "frozenToken",
      "outputs": [
        {
          "name": "",
          "type": "bool"
        }
      ],
      "payable": false,
      "stateMutability": "view",
      "type": "function"
    },
    {
      "constant": true,
      "inputs": [
        {
          "name": "",
          "type": "uint256"
        }
      ],
      "name": "frozenAccountForIndex",
      "outputs": [
        {
          "name": "",
          "type": "address"
        }
      ],
      "payable": false,
      "stateMutability": "view",
      "type": "function"
    },
    {
      "constant": false,
      "inputs": [
        {
          "name": "msgSender",
          "type": "address"
        }
      ],
      "name": "checkAdmin",
      "outputs": [
        {
          "name": "",
          "type": "bool"
        }
      ],
      "payable": false,
      "stateMutability": "nonpayable",
      "type": "function"
    },
    {
      "constant": false,
      "inputs": [
        {
          "name": "msgSender",
          "type": "address"
        }
      ],
      "name": "checkSuperAdmin",
      "outputs": [
        {
          "name": "",
          "type": "bool"
        }
      ],
      "payable": false,
      "stateMutability": "nonpayable",
      "type": "function"
    },
    {
      "constant": true,
      "inputs": [
        {
          "name": "",
          "type": "address"
        }
      ],
      "name": "frozenAccount",
      "outputs": [
        {
          "name": "",
          "type": "bool"
        }
      ],
      "payable": false,
      "stateMutability": "view",
      "type": "function"
    },
    {
      "anonymous": false,
      "inputs": [
        {
          "indexed": true,
          "name": "target",
          "type": "address"
        },
        {
          "indexed": false,
          "name": "frozen",
          "type": "bool"
        }
      ],
      "name": "FrozenFunds",
      "type": "event"
    },
    {
      "anonymous": false,
      "inputs": [
        {
          "indexed": false,
          "name": "frozen",
          "type": "bool"
        }
      ],
      "name": "FrozenToken",
      "type": "event"
    },
    {
      "constant": false,
      "inputs": [
        {
          "name": "target",
          "type": "address"
        },
        {
          "name": "freeze",
          "type": "bool"
        }
      ],
      "name": "freezeAccount",
      "outputs": [],
      "payable": false,
      "stateMutability": "nonpayable",
      "type": "function"
    },
    {
      "constant": false,
      "inputs": [
        {
          "name": "freeze",
          "type": "bool"
        }
      ],
      "name": "freezeToken",
      "outputs": [],
      "payable": false,
      "stateMutability": "nonpayable",
      "type": "function"
    },
    {
      "constant": true,
      "inputs": [],
      "name": "totalFrozenAccountsMapping",
      "outputs": [
        {
          "name": "",
          "type": "uint256"
        }
      ],
      "payable": false,
      "stateMutability": "view",
      "type": "function"
    }
  ],
  "bytecode": "0x608060405234801561001057600080fd5b50610684806100206000396000f3fe6080604052600436106100a35763ffffffff7c01000000000000000000000000000000000000000000000000000000006000350416630c3504c981146100a85780632b28d2d0146100ef57806342716730146101165780636df006f31461014b578063771eee16146101605780637db6cc1b1461018c5780639026dee8146101d2578063a1d658b114610205578063b414d4b614610238578063e724529c1461026b575b600080fd5b3480156100b457600080fd5b506100db600480360360208110156100cb57600080fd5b5035600160a060020a03166102a6565b604080519115158252519081900360200190f35b3480156100fb57600080fd5b50610104610343565b60408051918252519081900360200190f35b34801561012257600080fd5b506101496004803603602081101561013957600080fd5b5035600160a060020a0316610349565b005b34801561015757600080fd5b506100db61038c565b34801561016c57600080fd5b506101496004803603602081101561018357600080fd5b503515156103ad565b34801561019857600080fd5b506101b6600480360360208110156101af57600080fd5b5035610442565b60408051600160a060020a039092168252519081900360200190f35b3480156101de57600080fd5b506100db600480360360208110156101f557600080fd5b5035600160a060020a031661046a565b34801561021157600080fd5b506100db6004803603602081101561022857600080fd5b5035600160a060020a03166104d5565b34801561024457600080fd5b506100db6004803603602081101561025b57600080fd5b5035600160a060020a0316610540565b34801561027757600080fd5b506101496004803603604081101561028e57600080fd5b50600160a060020a0381351690602001351515610555565b600254604080517f0c3504c9000000000000000000000000000000000000000000000000000000008152600160a060020a03848116600483015291516000939290921691630c3504c99160248082019260209290919082900301818787803b15801561031157600080fd5b505af1158015610325573d6000803e3d6000fd5b505050506040513d602081101561033b57600080fd5b505192915050565b60035490565b610352336102a6565b151561035d57600080fd5b6002805473ffffffffffffffffffffffffffffffffffffffff1916600160a060020a0392909216919091179055565b60025474010000000000000000000000000000000000000000900460ff1681565b336103b7816104d5565b156103c157600080fd5b600280548315157401000000000000000000000000000000000000000090810274ff0000000000000000000000000000000000000000199092169190911791829055604080519190920460ff161515815290517f1623ff1a4138a65cb1f44d1a94c034f7dd8c1e826fefb1f27f0898580601e68d9181900360200190a15050565b600380548290811061045057fe5b600091825260209091200154600160a060020a0316905081565b600254604080517f9026dee8000000000000000000000000000000000000000000000000000000008152600160a060020a03848116600483015291516000939290921691639026dee89160248082019260209290919082900301818787803b15801561031157600080fd5b600254604080517fa1d658b1000000000000000000000000000000000000000000000000000000008152600160a060020a0384811660048301529151600093929092169163a1d658b19160248082019260209290919082900301818787803b15801561031157600080fd5b60046020526000908152604090205460ff1681565b3361055f816104d5565b1561056957600080fd5b600160a060020a0383166000908152600460209081526040808320805460ff1916861515179055600590915290205460ff161515610612576003805460018082019092557fc2575a0e9e593c00f959f8c92f12db2869c3395a3b0502d05e2516446f71f85b01805473ffffffffffffffffffffffffffffffffffffffff1916600160a060020a0386169081179091556000908152600560205260409020805460ff191690911790555b6040805183151581529051600160a060020a038516917f48335238b4855f35377ed80f164e8c6f3c366e54ac00b96a6402d4a9814a03a5919081900360200190a250505056fea165627a7a72305820c7cf6cf581085b28d6d8dfba23057792b8141b278059181d616422f7f51a57b50029",
  "source": "pragma solidity 0.5.0;\n\nimport \"./interface/administratable.sol\";\nimport \"../libraries/SafeMath.sol\";\n\ncontract Freezable is Administratable {\n  using SafeMath for uint256;\n\n  // zOS requires that the variables are never removed nor order changed\n  // Since this is a parent contract, no new variables can be added here\n  bool public frozenToken;\n  // TODO move this into external storage\n  address[] public frozenAccountForIndex;\n  mapping (address => bool) public frozenAccount;\n  mapping (address => bool) private processedAccount;\n\n  event FrozenFunds(address indexed target, bool frozen);\n  event FrozenToken(bool frozen);\n\n  modifier unlessFrozen {\n    require(!frozenToken);\n    require(!frozenAccount[msg.sender]);\n    _;\n  }\n\n  function freezeAccount(address target, bool freeze) public onlySuperAdmins (msg.sender) {\n    frozenAccount[target] = freeze;\n    if (!processedAccount[target]) {\n      frozenAccountForIndex.push(target);\n      processedAccount[target] = true;\n    }\n    emit FrozenFunds(target, freeze);\n  }\n\n  function freezeToken(bool freeze) public onlySuperAdmins (msg.sender) {\n    frozenToken = freeze;\n    emit FrozenToken(frozenToken);\n  }\n\n  function totalFrozenAccountsMapping() public view returns(uint256) {\n    return frozenAccountForIndex.length;\n  }\n\n}\n",
  "sourcePath": "/home/sergey/Documents/angels/2083nointerfaces/Angeles.VC-token-scrum-investing/contracts/admin/Freezable.sol",
  "compiler": {
    "name": "solc",
    "version": "0.5.0+commit.1d4f565a.Emscripten.clang"
  },
  "schemaVersion": "3.0.2",
  "updatedAt": "2019-03-30T13:34:15.354Z",
  "devdoc": {
    "methods": {}
  },
  "userdoc": {
    "methods": {}
  }
}