{
  "contractName": "Freezable",
  "abi": [
    {
      "constant": false,
      "inputs": [
        {
          "name": "_sender_address",
          "type": "address"
        }
      ],
      "name": "check_owner",
      "outputs": [
        {
          "name": "",
          "type": "bool"
        }
      ],
      "payable": false,
      "stateMutability": "nonpayable",
      "type": "function"
    },
    {
      "constant": false,
      "inputs": [
        {
          "name": "newOwner",
          "type": "address"
        }
      ],
      "name": "setOwner",
      "outputs": [],
      "payable": false,
      "stateMutability": "nonpayable",
      "type": "function"
    },
    {
      "constant": false,
      "inputs": [
        {
          "name": "BasicAdministratableaddr",
          "type": "address"
        }
      ],
      "name": "_initAdministratable",
      "outputs": [],
      "payable": false,
      "stateMutability": "nonpayable",
      "type": "function"
    },
    {
      "constant": true,
      "inputs": [],
      "name": "frozenToken",
      "outputs": [
        {
          "name": "",
          "type": "bool"
        }
      ],
      "payable": false,
      "stateMutability": "view",
      "type": "function"
    },
    {
      "constant": true,
      "inputs": [
        {
          "name": "",
          "type": "uint256"
        }
      ],
      "name": "frozenAccountForIndex",
      "outputs": [
        {
          "name": "",
          "type": "address"
        }
      ],
      "payable": false,
      "stateMutability": "view",
      "type": "function"
    },
    {
      "constant": false,
      "inputs": [
        {
          "name": "msgSender",
          "type": "address"
        }
      ],
      "name": "checkAdmin",
      "outputs": [
        {
          "name": "",
          "type": "bool"
        }
      ],
      "payable": false,
      "stateMutability": "nonpayable",
      "type": "function"
    },
    {
      "constant": false,
      "inputs": [
        {
          "name": "msgSender",
          "type": "address"
        }
      ],
      "name": "checkSuperAdmin",
      "outputs": [
        {
          "name": "",
          "type": "bool"
        }
      ],
      "payable": false,
      "stateMutability": "nonpayable",
      "type": "function"
    },
    {
      "constant": true,
      "inputs": [
        {
          "name": "",
          "type": "address"
        }
      ],
      "name": "frozenAccount",
      "outputs": [
        {
          "name": "",
          "type": "bool"
        }
      ],
      "payable": false,
      "stateMutability": "view",
      "type": "function"
    },
    {
      "anonymous": false,
      "inputs": [
        {
          "indexed": true,
          "name": "target",
          "type": "address"
        },
        {
          "indexed": false,
          "name": "frozen",
          "type": "bool"
        }
      ],
      "name": "FrozenFunds",
      "type": "event"
    },
    {
      "anonymous": false,
      "inputs": [
        {
          "indexed": false,
          "name": "frozen",
          "type": "bool"
        }
      ],
      "name": "FrozenToken",
      "type": "event"
    },
    {
      "constant": false,
      "inputs": [
        {
          "name": "target",
          "type": "address"
        },
        {
          "name": "freeze",
          "type": "bool"
        }
      ],
      "name": "freezeAccount",
      "outputs": [],
      "payable": false,
      "stateMutability": "nonpayable",
      "type": "function"
    },
    {
      "constant": false,
      "inputs": [
        {
          "name": "freeze",
          "type": "bool"
        }
      ],
      "name": "freezeToken",
      "outputs": [],
      "payable": false,
      "stateMutability": "nonpayable",
      "type": "function"
    },
    {
      "constant": true,
      "inputs": [],
      "name": "totalFrozenAccountsMapping",
      "outputs": [
        {
          "name": "",
          "type": "uint256"
        }
      ],
      "payable": false,
      "stateMutability": "view",
      "type": "function"
    }
  ],
  "bytecode": "0x608060405234801561001057600080fd5b5061070b806100206000396000f3fe6080604052600436106100ae5763ffffffff7c01000000000000000000000000000000000000000000000000000000006000350416630c3504c981146100b357806313af4035146100fa5780632b28d2d01461012f57806342716730146101565780636df006f314610189578063771eee161461019e5780637db6cc1b146101ca5780639026dee814610210578063a1d658b114610243578063b414d4b614610276578063e724529c146102a9575b600080fd5b3480156100bf57600080fd5b506100e6600480360360208110156100d657600080fd5b5035600160a060020a03166102e4565b604080519115158252519081900360200190f35b34801561010657600080fd5b5061012d6004803603602081101561011d57600080fd5b5035600160a060020a0316610381565b005b34801561013b57600080fd5b506101446103c7565b60408051918252519081900360200190f35b34801561016257600080fd5b5061012d6004803603602081101561017957600080fd5b5035600160a060020a03166103cd565b34801561019557600080fd5b506100e6610413565b3480156101aa57600080fd5b5061012d600480360360208110156101c157600080fd5b50351515610434565b3480156101d657600080fd5b506101f4600480360360208110156101ed57600080fd5b50356104c9565b60408051600160a060020a039092168252519081900360200190f35b34801561021c57600080fd5b506100e66004803603602081101561023357600080fd5b5035600160a060020a03166104f1565b34801561024f57600080fd5b506100e66004803603602081101561026657600080fd5b5035600160a060020a031661055c565b34801561028257600080fd5b506100e66004803603602081101561029957600080fd5b5035600160a060020a03166105c7565b3480156102b557600080fd5b5061012d600480360360408110156102cc57600080fd5b50600160a060020a03813516906020013515156105dc565b600154604080517f0c3504c9000000000000000000000000000000000000000000000000000000008152600160a060020a03848116600483015291516000939290921691630c3504c99160248082019260209290919082900301818787803b15801561034f57600080fd5b505af1158015610363573d6000803e3d6000fd5b505050506040513d602081101561037957600080fd5b505192915050565b600254600160a060020a0316331461039857600080fd5b6002805473ffffffffffffffffffffffffffffffffffffffff1916600160a060020a0392909216919091179055565b60035490565b600254600160a060020a031633146103e457600080fd5b6001805473ffffffffffffffffffffffffffffffffffffffff1916600160a060020a0392909216919091179055565b60025474010000000000000000000000000000000000000000900460ff1681565b3361043e8161055c565b1561044857600080fd5b600280548315157401000000000000000000000000000000000000000090810274ff0000000000000000000000000000000000000000199092169190911791829055604080519190920460ff161515815290517f1623ff1a4138a65cb1f44d1a94c034f7dd8c1e826fefb1f27f0898580601e68d9181900360200190a15050565b60038054829081106104d757fe5b600091825260209091200154600160a060020a0316905081565b600154604080517f9026dee8000000000000000000000000000000000000000000000000000000008152600160a060020a03848116600483015291516000939290921691639026dee89160248082019260209290919082900301818787803b15801561034f57600080fd5b600154604080517fa1d658b1000000000000000000000000000000000000000000000000000000008152600160a060020a0384811660048301529151600093929092169163a1d658b19160248082019260209290919082900301818787803b15801561034f57600080fd5b60046020526000908152604090205460ff1681565b336105e68161055c565b156105f057600080fd5b600160a060020a0383166000908152600460209081526040808320805460ff1916861515179055600590915290205460ff161515610699576003805460018082019092557fc2575a0e9e593c00f959f8c92f12db2869c3395a3b0502d05e2516446f71f85b01805473ffffffffffffffffffffffffffffffffffffffff1916600160a060020a0386169081179091556000908152600560205260409020805460ff191690911790555b6040805183151581529051600160a060020a038516917f48335238b4855f35377ed80f164e8c6f3c366e54ac00b96a6402d4a9814a03a5919081900360200190a250505056fea165627a7a72305820a2221babead07caa55c80de69192a65175085baf8ef7675ea6b96a52a23c52140029",
  "source": "pragma solidity 0.5.0;\n\nimport \"./interface/administratable.sol\";\nimport \"../libraries/SafeMath.sol\";\n\ncontract Freezable is Administratable {\n  using SafeMath for uint256;\n\n  // zOS requires that the variables are never removed nor order changed\n  // Since this is a parent contract, no new variables can be added here\n  bool public frozenToken;\n  // TODO move this into external storage\n  address[] public frozenAccountForIndex;\n  mapping (address => bool) public frozenAccount;\n  mapping (address => bool) private processedAccount;\n\n  event FrozenFunds(address indexed target, bool frozen);\n  event FrozenToken(bool frozen);\n\n  modifier unlessFrozen {\n    require(!frozenToken);\n    require(!frozenAccount[msg.sender]);\n    _;\n  }\n\n  function freezeAccount(address target, bool freeze) public onlySuperAdmins (msg.sender) {\n    frozenAccount[target] = freeze;\n    if (!processedAccount[target]) {\n      frozenAccountForIndex.push(target);\n      processedAccount[target] = true;\n    }\n    emit FrozenFunds(target, freeze);\n  }\n\n  function freezeToken(bool freeze) public onlySuperAdmins (msg.sender) {\n    frozenToken = freeze;\n    emit FrozenToken(frozenToken);\n  }\n\n  function totalFrozenAccountsMapping() public view returns(uint256) {\n    return frozenAccountForIndex.length;\n  }\n\n}\n",
  "sourcePath": "/home/st/Desktop/DARF-ANGeles/Angeles.VC-token-scrum-investing/contracts/admin/Freezable.sol",
  "compiler": {
    "name": "solc",
    "version": "0.5.0+commit.1d4f565a.Emscripten.clang"
  },
  "schemaVersion": "3.0.5",
  "updatedAt": "2019-04-04T17:09:59.890Z",
  "devdoc": {
    "methods": {}
  },
  "userdoc": {
    "methods": {}
  }
}