{
  "contractName": "Freezable",
  "abi": [
    {
      "constant": true,
      "inputs": [],
      "name": "totalAdminsMapping",
      "outputs": [
        {
          "name": "",
          "type": "uint256"
        }
      ],
      "payable": false,
      "stateMutability": "view",
      "type": "function"
    },
    {
      "constant": false,
      "inputs": [
        {
          "name": "admin",
          "type": "address"
        }
      ],
      "name": "removeAdmin",
      "outputs": [],
      "payable": false,
      "stateMutability": "nonpayable",
      "type": "function"
    },
    {
      "constant": true,
      "inputs": [
        {
          "name": "",
          "type": "uint256"
        }
      ],
      "name": "adminsForIndex",
      "outputs": [
        {
          "name": "",
          "type": "address"
        }
      ],
      "payable": false,
      "stateMutability": "view",
      "type": "function"
    },
    {
      "constant": true,
      "inputs": [
        {
          "name": "",
          "type": "address"
        }
      ],
      "name": "admins",
      "outputs": [
        {
          "name": "",
          "type": "bool"
        }
      ],
      "payable": false,
      "stateMutability": "view",
      "type": "function"
    },
    {
      "constant": false,
      "inputs": [
        {
          "name": "admin",
          "type": "address"
        }
      ],
      "name": "removeSuperAdmin",
      "outputs": [],
      "payable": false,
      "stateMutability": "nonpayable",
      "type": "function"
    },
    {
      "constant": false,
      "inputs": [
        {
          "name": "newowner",
          "type": "address"
        }
      ],
      "name": "ownable",
      "outputs": [],
      "payable": false,
      "stateMutability": "nonpayable",
      "type": "function"
    },
    {
      "constant": true,
      "inputs": [],
      "name": "frozenToken",
      "outputs": [
        {
          "name": "",
          "type": "bool"
        }
      ],
      "payable": false,
      "stateMutability": "view",
      "type": "function"
    },
    {
      "constant": false,
      "inputs": [
        {
          "name": "admin",
          "type": "address"
        }
      ],
      "name": "addAdmin",
      "outputs": [],
      "payable": false,
      "stateMutability": "nonpayable",
      "type": "function"
    },
    {
      "constant": true,
      "inputs": [
        {
          "name": "",
          "type": "uint256"
        }
      ],
      "name": "frozenAccountForIndex",
      "outputs": [
        {
          "name": "",
          "type": "address"
        }
      ],
      "payable": false,
      "stateMutability": "view",
      "type": "function"
    },
    {
      "constant": true,
      "inputs": [],
      "name": "owner",
      "outputs": [
        {
          "name": "",
          "type": "address"
        }
      ],
      "payable": false,
      "stateMutability": "view",
      "type": "function"
    },
    {
      "constant": true,
      "inputs": [],
      "name": "totalSuperAdminsMapping",
      "outputs": [
        {
          "name": "",
          "type": "uint256"
        }
      ],
      "payable": false,
      "stateMutability": "view",
      "type": "function"
    },
    {
      "constant": true,
      "inputs": [
        {
          "name": "",
          "type": "address"
        }
      ],
      "name": "superAdmins",
      "outputs": [
        {
          "name": "",
          "type": "bool"
        }
      ],
      "payable": false,
      "stateMutability": "view",
      "type": "function"
    },
    {
      "constant": false,
      "inputs": [
        {
          "name": "admin",
          "type": "address"
        }
      ],
      "name": "addSuperAdmin",
      "outputs": [],
      "payable": false,
      "stateMutability": "nonpayable",
      "type": "function"
    },
    {
      "constant": true,
      "inputs": [
        {
          "name": "",
          "type": "address"
        }
      ],
      "name": "frozenAccount",
      "outputs": [
        {
          "name": "",
          "type": "bool"
        }
      ],
      "payable": false,
      "stateMutability": "view",
      "type": "function"
    },
    {
      "constant": true,
      "inputs": [
        {
          "name": "",
          "type": "uint256"
        }
      ],
      "name": "superAdminsForIndex",
      "outputs": [
        {
          "name": "",
          "type": "address"
        }
      ],
      "payable": false,
      "stateMutability": "view",
      "type": "function"
    },
    {
      "constant": false,
      "inputs": [
        {
          "name": "newOwner",
          "type": "address"
        }
      ],
      "name": "transferOwnership",
      "outputs": [],
      "payable": false,
      "stateMutability": "nonpayable",
      "type": "function"
    },
    {
      "anonymous": false,
      "inputs": [
        {
          "indexed": true,
          "name": "target",
          "type": "address"
        },
        {
          "indexed": false,
          "name": "frozen",
          "type": "bool"
        }
      ],
      "name": "FrozenFunds",
      "type": "event"
    },
    {
      "anonymous": false,
      "inputs": [
        {
          "indexed": false,
          "name": "frozen",
          "type": "bool"
        }
      ],
      "name": "FrozenToken",
      "type": "event"
    },
    {
      "anonymous": false,
      "inputs": [
        {
          "indexed": true,
          "name": "admin",
          "type": "address"
        }
      ],
      "name": "AddAdmin",
      "type": "event"
    },
    {
      "anonymous": false,
      "inputs": [
        {
          "indexed": true,
          "name": "admin",
          "type": "address"
        }
      ],
      "name": "RemoveAdmin",
      "type": "event"
    },
    {
      "anonymous": false,
      "inputs": [
        {
          "indexed": true,
          "name": "admin",
          "type": "address"
        }
      ],
      "name": "AddSuperAdmin",
      "type": "event"
    },
    {
      "anonymous": false,
      "inputs": [
        {
          "indexed": true,
          "name": "admin",
          "type": "address"
        }
      ],
      "name": "RemoveSuperAdmin",
      "type": "event"
    },
    {
      "anonymous": false,
      "inputs": [
        {
          "indexed": false,
          "name": "previousOwner",
          "type": "address"
        },
        {
          "indexed": false,
          "name": "newOwner",
          "type": "address"
        }
      ],
      "name": "OwnershipTransferred",
      "type": "event"
    },
    {
      "constant": false,
      "inputs": [
        {
          "name": "target",
          "type": "address"
        },
        {
          "name": "freeze",
          "type": "bool"
        }
      ],
      "name": "freezeAccount",
      "outputs": [],
      "payable": false,
      "stateMutability": "nonpayable",
      "type": "function"
    },
    {
      "constant": false,
      "inputs": [
        {
          "name": "freeze",
          "type": "bool"
        }
      ],
      "name": "freezeToken",
      "outputs": [],
      "payable": false,
      "stateMutability": "nonpayable",
      "type": "function"
    },
    {
      "constant": true,
      "inputs": [],
      "name": "totalFrozenAccountsMapping",
      "outputs": [
        {
          "name": "",
          "type": "uint256"
        }
      ],
      "payable": false,
      "stateMutability": "view",
      "type": "function"
    }
  ],
  "bytecode": "0x608060405234801561001057600080fd5b50610b08806100206000396000f3fe6080604052600436106101065763ffffffff7c01000000000000000000000000000000000000000000000000000000006000350416630489882e811461010b5780631785f53c146101325780632b28d2d014610167578063313f2a211461017c578063429b62e5146101c25780634902e4aa1461020957806364a04b591461023c5780636df006f31461026f5780637048027514610284578063771eee16146102b75780637db6cc1b146102e35780638da5cb5b1461030d578063abf7b06314610322578063ad25cb4214610337578063b3292ff01461036a578063b414d4b61461039d578063c3894398146103d0578063e724529c146103fa578063f2fde38b14610435575b600080fd5b34801561011757600080fd5b50610120610468565b60408051918252519081900360200190f35b34801561013e57600080fd5b506101656004803603602081101561015557600080fd5b5035600160a060020a031661046e565b005b34801561017357600080fd5b506101206104fa565b34801561018857600080fd5b506101a66004803603602081101561019f57600080fd5b5035610500565b60408051600160a060020a039092168252519081900360200190f35b3480156101ce57600080fd5b506101f5600480360360208110156101e557600080fd5b5035600160a060020a031661051b565b604080519115158252519081900360200190f35b34801561021557600080fd5b506101656004803603602081101561022c57600080fd5b5035600160a060020a0316610530565b34801561024857600080fd5b506101656004803603602081101561025f57600080fd5b5035600160a060020a0316610595565b34801561027b57600080fd5b506101f56105bd565b34801561029057600080fd5b50610165600480360360208110156102a757600080fd5b5035600160a060020a03166105c6565b3480156102c357600080fd5b50610165600480360360208110156102da57600080fd5b503515156106e0565b3480156102ef57600080fd5b506101a66004803603602081101561030657600080fd5b503561076f565b34801561031957600080fd5b506101a6610797565b34801561032e57600080fd5b506101206107a6565b34801561034357600080fd5b506101f56004803603602081101561035a57600080fd5b5035600160a060020a03166107ac565b34801561037657600080fd5b506101656004803603602081101561038d57600080fd5b5035600160a060020a03166107c1565b3480156103a957600080fd5b506101f5600480360360208110156103c057600080fd5b5035600160a060020a03166108b5565b3480156103dc57600080fd5b506101a6600480360360208110156103f357600080fd5b50356108ca565b34801561040657600080fd5b506101656004803603604081101561041d57600080fd5b50600160a060020a03813516906020013515156108e5565b34801561044157600080fd5b506101656004803603602081101561045857600080fd5b5035600160a060020a0316610a16565b60015481565b610476610797565b600160a060020a031633600160a060020a0316141580156104a757503360009081526006602052604090205460ff16155b156104b157600080fd5b600160a060020a038116600081815260056020526040808220805460ff19169055517f753f40ca3312b2408759a67875b367955e7baa221daf08aa3d643d96202ac12b9190a250565b600a5490565b600360205260009081526040902054600160a060020a031681565b60056020526000908152604090205460ff1681565b610538610797565b600160a060020a0316331461054c57600080fd5b600160a060020a038116600081815260066020526040808220805460ff19169055517f1aaaaf7609619e631f47eb3546f9fdd8c61b1af2175988a0ddb9a06680c3b9ed9190a250565b61059d610797565b600160a060020a031633146105b157600080fd5b6105ba81610a97565b50565b60095460ff1681565b6105ce610797565b600160a060020a031633600160a060020a0316141580156105ff57503360009081526006602052604090205460ff16155b1561060957600080fd5b600160a060020a0381166000908152600560209081526040808320805460ff19166001179055600790915290205460ff1615156106a957600160a060020a0381166000818152600760209081526040808320805460ff19166001908117909155805484526003909252909120805473ffffffffffffffffffffffffffffffffffffffff191690921790915580546106a59163ffffffff610ac616565b6001555b604051600160a060020a038216907fad6de4452a631e641cb59902236607946ce9272b9b981f2f80e8d129cb9084ba90600090a250565b6106e8610797565b600160a060020a031633600160a060020a03161415801561071957503360009081526006602052604090205460ff16155b1561072357600080fd5b6009805460ff191682151517908190556040805160ff90921615158252517f1623ff1a4138a65cb1f44d1a94c034f7dd8c1e826fefb1f27f0898580601e68d916020908290030190a150565b600a80548290811061077d57fe5b600091825260209091200154600160a060020a0316905081565b600054600160a060020a031690565b60025481565b60066020526000908152604090205460ff1681565b6107c9610797565b600160a060020a031633146107dd57600080fd5b600160a060020a0381166000908152600660209081526040808320805460ff19166001179055600890915290205460ff16151561087e57600160a060020a0381166000818152600860209081526040808320805460ff1916600190811790915560028054855260049093529220805473ffffffffffffffffffffffffffffffffffffffff1916909317909255905461087a9163ffffffff610ac616565b6002555b604051600160a060020a038216907ffba24c034afca607a35e1f221b154b3f8e1f88c7924c8a0a06755b70708c44d890600090a250565b600b6020526000908152604090205460ff1681565b600460205260009081526040902054600160a060020a031681565b6108ed610797565b600160a060020a031633600160a060020a03161415801561091e57503360009081526006602052604090205460ff16155b1561092857600080fd5b600160a060020a0382166000908152600b60209081526040808320805460ff1916851515179055600c90915290205460ff1615156109d157600a805460018082019092557fc65a7bb8d6351c1cf70c95a316cc6a92839c986682d98bc35f958f4883f9d2a801805473ffffffffffffffffffffffffffffffffffffffff1916600160a060020a0385169081179091556000908152600c60205260409020805460ff191690911790555b6040805182151581529051600160a060020a038416917f48335238b4855f35377ed80f164e8c6f3c366e54ac00b96a6402d4a9814a03a5919081900360200190a25050565b610a1e610797565b600160a060020a03163314610a3257600080fd5b600160a060020a0381161515610a4757600080fd5b7f8be0079c531659141344cd1fd0a4f28419497f9722a3daafe3b4186f6b6457e0610a70610797565b60408051600160a060020a03928316815291841660208301528051918290030190a16105ba815b6000805473ffffffffffffffffffffffffffffffffffffffff1916600160a060020a0392909216919091179055565b600082820183811015610ad557fe5b939250505056fea165627a7a723058203194128d64086b52498df1f04a1423054d2b0842aafe11444afde22dc5ed6d6a0029",
  "source": "pragma solidity 0.5.0;\n\nimport \"./administratable.sol\";\nimport \"../libraries/SafeMath.sol\";\n\ncontract Freezable is Administratable {\n  using SafeMath for uint256;\n\n  // zOS requires that the variables are never removed nor order changed\n  // Since this is a parent contract, no new variables can be added here\n  bool public frozenToken;\n  // TODO move this into external storage\n  address[] public frozenAccountForIndex;\n  mapping (address => bool) public frozenAccount;\n  mapping (address => bool) private processedAccount;\n\n  event FrozenFunds(address indexed target, bool frozen);\n  event FrozenToken(bool frozen);\n\n  modifier unlessFrozen {\n    require(!frozenToken);\n    require(!frozenAccount[msg.sender]);\n    _;\n  }\n\n  function freezeAccount(address target, bool freeze) public onlySuperAdmins {\n    frozenAccount[target] = freeze;\n    if (!processedAccount[target]) {\n      frozenAccountForIndex.push(target);\n      processedAccount[target] = true;\n    }\n    emit FrozenFunds(target, freeze);\n  }\n\n  function freezeToken(bool freeze) public onlySuperAdmins {\n    frozenToken = freeze;\n    emit FrozenToken(frozenToken);\n  }\n\n  function totalFrozenAccountsMapping() public view returns(uint256) {\n    return frozenAccountForIndex.length;\n  }\n\n}\n",
  "sourcePath": "/home/sergey/Documents/angels/Angeles.VC-token-scrum-investing/contracts/admin/Freezable.sol",
  "compiler": {
    "name": "solc",
    "version": "0.5.0+commit.1d4f565a.Emscripten.clang"
  },
  "schemaVersion": "3.0.2",
  "updatedAt": "2019-03-26T11:37:43.482Z",
  "devdoc": {
    "methods": {
      "ownable(address)": {
        "details": "The constructor sets the original owner of the contract to the sender account."
      },
      "owner()": {
        "details": "Tells the address of the owner",
        "return": "the address of the owner"
      },
      "transferOwnership(address)": {
        "details": "Allows the current owner to transfer control of the contract to a newOwner.",
        "params": {
          "newOwner": "The address to transfer ownership to."
        }
      }
    }
  },
  "userdoc": {
    "methods": {}
  }
}