{
  "contractName": "KYC",
  "abi": [
    {
      "constant": true,
      "inputs": [
        {
          "name": "",
          "type": "bytes32"
        }
      ],
      "name": "primaryLedgerCount",
      "outputs": [
        {
          "name": "",
          "type": "uint256"
        }
      ],
      "payable": false,
      "stateMutability": "view",
      "type": "function"
    },
    {
      "constant": false,
      "inputs": [
        {
          "name": "record",
          "type": "string"
        },
        {
          "name": "value",
          "type": "uint256"
        }
      ],
      "name": "setUIntValue",
      "outputs": [],
      "payable": false,
      "stateMutability": "nonpayable",
      "type": "function"
    },
    {
      "constant": false,
      "inputs": [
        {
          "name": "_investor_address",
          "type": "address"
        },
        {
          "name": "currency",
          "type": "bytes32"
        }
      ],
      "name": "investorGet",
      "outputs": [],
      "payable": false,
      "stateMutability": "nonpayable",
      "type": "function"
    },
    {
      "constant": true,
      "inputs": [],
      "name": "totalAdminsMapping",
      "outputs": [
        {
          "name": "",
          "type": "uint256"
        }
      ],
      "payable": false,
      "stateMutability": "view",
      "type": "function"
    },
    {
      "constant": true,
      "inputs": [
        {
          "name": "",
          "type": "bytes32"
        },
        {
          "name": "",
          "type": "uint256"
        }
      ],
      "name": "primaryLedgerEntryForIndex",
      "outputs": [
        {
          "name": "",
          "type": "address"
        }
      ],
      "payable": false,
      "stateMutability": "view",
      "type": "function"
    },
    {
      "constant": true,
      "inputs": [
        {
          "name": "record",
          "type": "string"
        },
        {
          "name": "primaryAddress",
          "type": "address"
        },
        {
          "name": "secondaryAddress",
          "type": "address"
        }
      ],
      "name": "getMultiLedgerValue",
      "outputs": [
        {
          "name": "",
          "type": "uint256"
        }
      ],
      "payable": false,
      "stateMutability": "view",
      "type": "function"
    },
    {
      "constant": false,
      "inputs": [
        {
          "name": "record",
          "type": "string"
        },
        {
          "name": "_address",
          "type": "address"
        },
        {
          "name": "value",
          "type": "uint256"
        }
      ],
      "name": "setLedgerValue",
      "outputs": [],
      "payable": false,
      "stateMutability": "nonpayable",
      "type": "function"
    },
    {
      "constant": false,
      "inputs": [
        {
          "name": "record",
          "type": "string"
        },
        {
          "name": "value",
          "type": "bytes32"
        }
      ],
      "name": "setBytes32Value",
      "outputs": [],
      "payable": false,
      "stateMutability": "nonpayable",
      "type": "function"
    },
    {
      "constant": false,
      "inputs": [
        {
          "name": "admin",
          "type": "address"
        }
      ],
      "name": "removeAdmin",
      "outputs": [],
      "payable": false,
      "stateMutability": "nonpayable",
      "type": "function"
    },
    {
      "constant": true,
      "inputs": [
        {
          "name": "",
          "type": "bytes32"
        },
        {
          "name": "",
          "type": "address"
        },
        {
          "name": "",
          "type": "uint256"
        }
      ],
      "name": "secondaryLedgerEntryForIndex",
      "outputs": [
        {
          "name": "",
          "type": "address"
        }
      ],
      "payable": false,
      "stateMutability": "view",
      "type": "function"
    },
    {
      "constant": false,
      "inputs": [
        {
          "name": "record",
          "type": "string"
        },
        {
          "name": "primaryAddress",
          "type": "address"
        },
        {
          "name": "secondaryAddress",
          "type": "address"
        },
        {
          "name": "value",
          "type": "uint256"
        }
      ],
      "name": "setMultiLedgerValue",
      "outputs": [],
      "payable": false,
      "stateMutability": "nonpayable",
      "type": "function"
    },
    {
      "constant": false,
      "inputs": [
        {
          "name": "Projecttokenaddr",
          "type": "address"
        }
      ],
      "name": "finish_project",
      "outputs": [],
      "payable": false,
      "stateMutability": "nonpayable",
      "type": "function"
    },
    {
      "constant": true,
      "inputs": [
        {
          "name": "",
          "type": "uint256"
        }
      ],
      "name": "adminsForIndex",
      "outputs": [
        {
          "name": "",
          "type": "address"
        }
      ],
      "payable": false,
      "stateMutability": "view",
      "type": "function"
    },
    {
      "constant": false,
      "inputs": [
        {
          "name": "record",
          "type": "string"
        },
        {
          "name": "value",
          "type": "bool"
        }
      ],
      "name": "setBooleanValue",
      "outputs": [],
      "payable": false,
      "stateMutability": "nonpayable",
      "type": "function"
    },
    {
      "constant": false,
      "inputs": [
        {
          "name": "Project_token_addr",
          "type": "address"
        }
      ],
      "name": "checkrights",
      "outputs": [
        {
          "name": "",
          "type": "uint256"
        }
      ],
      "payable": false,
      "stateMutability": "nonpayable",
      "type": "function"
    },
    {
      "constant": false,
      "inputs": [
        {
          "name": "record",
          "type": "string"
        },
        {
          "name": "value",
          "type": "address"
        }
      ],
      "name": "setAddressValue",
      "outputs": [],
      "payable": false,
      "stateMutability": "nonpayable",
      "type": "function"
    },
    {
      "constant": true,
      "inputs": [
        {
          "name": "",
          "type": "address"
        }
      ],
      "name": "admins",
      "outputs": [
        {
          "name": "",
          "type": "bool"
        }
      ],
      "payable": false,
      "stateMutability": "view",
      "type": "function"
    },
    {
      "constant": true,
      "inputs": [
        {
          "name": "",
          "type": "bytes32"
        },
        {
          "name": "",
          "type": "address"
        },
        {
          "name": "",
          "type": "address"
        }
      ],
      "name": "ledgerSecondaryEntries",
      "outputs": [
        {
          "name": "",
          "type": "bool"
        }
      ],
      "payable": false,
      "stateMutability": "view",
      "type": "function"
    },
    {
      "constant": false,
      "inputs": [
        {
          "name": "admin",
          "type": "address"
        }
      ],
      "name": "removeSuperAdmin",
      "outputs": [],
      "payable": false,
      "stateMutability": "nonpayable",
      "type": "function"
    },
    {
      "constant": true,
      "inputs": [
        {
          "name": "record",
          "type": "string"
        }
      ],
      "name": "getUIntValue",
      "outputs": [
        {
          "name": "",
          "type": "uint256"
        }
      ],
      "payable": false,
      "stateMutability": "view",
      "type": "function"
    },
    {
      "constant": true,
      "inputs": [
        {
          "name": "record",
          "type": "string"
        }
      ],
      "name": "getLedgerCount",
      "outputs": [
        {
          "name": "",
          "type": "uint256"
        }
      ],
      "payable": false,
      "stateMutability": "view",
      "type": "function"
    },
    {
      "constant": false,
      "inputs": [
        {
          "name": "newowner",
          "type": "address"
        }
      ],
      "name": "ownable",
      "outputs": [],
      "payable": false,
      "stateMutability": "nonpayable",
      "type": "function"
    },
    {
      "constant": true,
      "inputs": [
        {
          "name": "record",
          "type": "string"
        }
      ],
      "name": "getBytesValue",
      "outputs": [
        {
          "name": "",
          "type": "bytes"
        }
      ],
      "payable": false,
      "stateMutability": "view",
      "type": "function"
    },
    {
      "constant": false,
      "inputs": [
        {
          "name": "admin",
          "type": "address"
        }
      ],
      "name": "addAdmin",
      "outputs": [],
      "payable": false,
      "stateMutability": "nonpayable",
      "type": "function"
    },
    {
      "constant": true,
      "inputs": [
        {
          "name": "",
          "type": "bytes32"
        },
        {
          "name": "",
          "type": "address"
        }
      ],
      "name": "secondaryLedgerCount",
      "outputs": [
        {
          "name": "",
          "type": "uint256"
        }
      ],
      "payable": false,
      "stateMutability": "view",
      "type": "function"
    },
    {
      "constant": false,
      "inputs": [
        {
          "name": "Projecttokenaddr",
          "type": "address"
        },
        {
          "name": "DFSchangesaddr",
          "type": "bytes32"
        },
        {
          "name": "DFSchangeshash",
          "type": "bytes32"
        },
        {
          "name": "POA_addr",
          "type": "bytes32"
        }
      ],
      "name": "project_add_state",
      "outputs": [
        {
          "name": "",
          "type": "uint256"
        }
      ],
      "payable": false,
      "stateMutability": "nonpayable",
      "type": "function"
    },
    {
      "constant": true,
      "inputs": [
        {
          "name": "record",
          "type": "string"
        }
      ],
      "name": "getBytes32Value",
      "outputs": [
        {
          "name": "",
          "type": "bytes32"
        }
      ],
      "payable": false,
      "stateMutability": "view",
      "type": "function"
    },
    {
      "constant": true,
      "inputs": [
        {
          "name": "",
          "type": "bytes32"
        },
        {
          "name": "",
          "type": "address"
        }
      ],
      "name": "booleanMapAccounts",
      "outputs": [
        {
          "name": "",
          "type": "bool"
        }
      ],
      "payable": false,
      "stateMutability": "view",
      "type": "function"
    },
    {
      "constant": true,
      "inputs": [
        {
          "name": "",
          "type": "bytes32"
        }
      ],
      "name": "booleanMapCount",
      "outputs": [
        {
          "name": "",
          "type": "uint256"
        }
      ],
      "payable": false,
      "stateMutability": "view",
      "type": "function"
    },
    {
      "constant": true,
      "inputs": [
        {
          "name": "",
          "type": "bytes32"
        },
        {
          "name": "",
          "type": "address"
        }
      ],
      "name": "ledgerPrimaryEntries",
      "outputs": [
        {
          "name": "",
          "type": "bool"
        }
      ],
      "payable": false,
      "stateMutability": "view",
      "type": "function"
    },
    {
      "constant": true,
      "inputs": [
        {
          "name": "record",
          "type": "string"
        }
      ],
      "name": "getIntValue",
      "outputs": [
        {
          "name": "",
          "type": "int256"
        }
      ],
      "payable": false,
      "stateMutability": "view",
      "type": "function"
    },
    {
      "constant": true,
      "inputs": [],
      "name": "owner",
      "outputs": [
        {
          "name": "",
          "type": "address"
        }
      ],
      "payable": false,
      "stateMutability": "view",
      "type": "function"
    },
    {
      "constant": true,
      "inputs": [
        {
          "name": "record",
          "type": "string"
        }
      ],
      "name": "getBooleanValue",
      "outputs": [
        {
          "name": "",
          "type": "bool"
        }
      ],
      "payable": false,
      "stateMutability": "view",
      "type": "function"
    },
    {
      "constant": false,
      "inputs": [
        {
          "name": "record",
          "type": "string"
        },
        {
          "name": "_address",
          "type": "address"
        },
        {
          "name": "value",
          "type": "bool"
        }
      ],
      "name": "setBooleanMapValue",
      "outputs": [],
      "payable": false,
      "stateMutability": "nonpayable",
      "type": "function"
    },
    {
      "constant": true,
      "inputs": [
        {
          "name": "record",
          "type": "string"
        },
        {
          "name": "_address",
          "type": "address"
        }
      ],
      "name": "getLedgerValue",
      "outputs": [
        {
          "name": "",
          "type": "uint256"
        }
      ],
      "payable": false,
      "stateMutability": "view",
      "type": "function"
    },
    {
      "constant": false,
      "inputs": [
        {
          "name": "record",
          "type": "string"
        },
        {
          "name": "value",
          "type": "int256"
        }
      ],
      "name": "setIntValue",
      "outputs": [],
      "payable": false,
      "stateMutability": "nonpayable",
      "type": "function"
    },
    {
      "constant": true,
      "inputs": [],
      "name": "totalSuperAdminsMapping",
      "outputs": [
        {
          "name": "",
          "type": "uint256"
        }
      ],
      "payable": false,
      "stateMutability": "view",
      "type": "function"
    },
    {
      "constant": true,
      "inputs": [
        {
          "name": "",
          "type": "address"
        }
      ],
      "name": "superAdmins",
      "outputs": [
        {
          "name": "",
          "type": "bool"
        }
      ],
      "payable": false,
      "stateMutability": "view",
      "type": "function"
    },
    {
      "constant": true,
      "inputs": [
        {
          "name": "",
          "type": "address"
        },
        {
          "name": "",
          "type": "address"
        }
      ],
      "name": "_investors",
      "outputs": [
        {
          "name": "approved_sum",
          "type": "uint256"
        },
        {
          "name": "invested_sum",
          "type": "uint256"
        }
      ],
      "payable": false,
      "stateMutability": "view",
      "type": "function"
    },
    {
      "constant": false,
      "inputs": [
        {
          "name": "Projecttokenaddr",
          "type": "address"
        },
        {
          "name": "grade",
          "type": "uint256"
        },
        {
          "name": "floorsum",
          "type": "uint256"
        }
      ],
      "name": "setrights",
      "outputs": [],
      "payable": false,
      "stateMutability": "nonpayable",
      "type": "function"
    },
    {
      "constant": false,
      "inputs": [
        {
          "name": "admin",
          "type": "address"
        }
      ],
      "name": "addSuperAdmin",
      "outputs": [],
      "payable": false,
      "stateMutability": "nonpayable",
      "type": "function"
    },
    {
      "constant": false,
      "inputs": [
        {
          "name": "record",
          "type": "string"
        },
        {
          "name": "value",
          "type": "bytes"
        }
      ],
      "name": "setBytesValue",
      "outputs": [],
      "payable": false,
      "stateMutability": "nonpayable",
      "type": "function"
    },
    {
      "constant": false,
      "inputs": [
        {
          "name": "Projecttokenaddr",
          "type": "address"
        },
        {
          "name": "DFSProjectdescribe",
          "type": "bytes32"
        },
        {
          "name": "DFStype",
          "type": "bytes4"
        }
      ],
      "name": "create_project",
      "outputs": [],
      "payable": false,
      "stateMutability": "nonpayable",
      "type": "function"
    },
    {
      "constant": true,
      "inputs": [
        {
          "name": "",
          "type": "bytes32"
        },
        {
          "name": "",
          "type": "uint256"
        }
      ],
      "name": "ledgerEntryForIndex",
      "outputs": [
        {
          "name": "",
          "type": "address"
        }
      ],
      "payable": false,
      "stateMutability": "view",
      "type": "function"
    },
    {
      "constant": true,
      "inputs": [
        {
          "name": "",
          "type": "bytes32"
        },
        {
          "name": "",
          "type": "uint256"
        }
      ],
      "name": "booleanMapEntryForIndex",
      "outputs": [
        {
          "name": "",
          "type": "address"
        }
      ],
      "payable": false,
      "stateMutability": "view",
      "type": "function"
    },
    {
      "constant": true,
      "inputs": [
        {
          "name": "",
          "type": "uint256"
        }
      ],
      "name": "superAdminsForIndex",
      "outputs": [
        {
          "name": "",
          "type": "address"
        }
      ],
      "payable": false,
      "stateMutability": "view",
      "type": "function"
    },
    {
      "constant": true,
      "inputs": [
        {
          "name": "",
          "type": "uint256"
        }
      ],
      "name": "ProjectList",
      "outputs": [
        {
          "name": "",
          "type": "address"
        }
      ],
      "payable": false,
      "stateMutability": "view",
      "type": "function"
    },
    {
      "constant": true,
      "inputs": [
        {
          "name": "",
          "type": "address"
        }
      ],
      "name": "Projects",
      "outputs": [
        {
          "name": "project_ID",
          "type": "uint256"
        },
        {
          "name": "project_owner_address",
          "type": "address"
        },
        {
          "name": "_DARF_system_address",
          "type": "address"
        },
        {
          "name": "DFS_Project_describe",
          "type": "bytes32"
        },
        {
          "name": "DFS_type",
          "type": "bytes4"
        }
      ],
      "payable": false,
      "stateMutability": "view",
      "type": "function"
    },
    {
      "constant": false,
      "inputs": [
        {
          "name": "Projecttokenaddr",
          "type": "address"
        },
        {
          "name": "owner",
          "type": "address"
        },
        {
          "name": "DFSProjectdescribe",
          "type": "bytes32"
        },
        {
          "name": "DFStype",
          "type": "bytes4"
        }
      ],
      "name": "change_project_info",
      "outputs": [],
      "payable": false,
      "stateMutability": "nonpayable",
      "type": "function"
    },
    {
      "constant": true,
      "inputs": [
        {
          "name": "",
          "type": "bytes32"
        }
      ],
      "name": "ledgerCount",
      "outputs": [
        {
          "name": "",
          "type": "uint256"
        }
      ],
      "payable": false,
      "stateMutability": "view",
      "type": "function"
    },
    {
      "constant": true,
      "inputs": [
        {
          "name": "record",
          "type": "string"
        },
        {
          "name": "_address",
          "type": "address"
        }
      ],
      "name": "getBooleanMapValue",
      "outputs": [
        {
          "name": "",
          "type": "bool"
        }
      ],
      "payable": false,
      "stateMutability": "view",
      "type": "function"
    },
    {
      "constant": false,
      "inputs": [
        {
          "name": "Projecttokenaddr",
          "type": "address"
        },
        {
          "name": "timestamp",
          "type": "uint256"
        }
      ],
      "name": "project_get_state",
      "outputs": [
        {
          "name": "",
          "type": "bytes32"
        }
      ],
      "payable": false,
      "stateMutability": "nonpayable",
      "type": "function"
    },
    {
      "constant": true,
      "inputs": [
        {
          "name": "record",
          "type": "string"
        }
      ],
      "name": "getBooleanMapCount",
      "outputs": [
        {
          "name": "",
          "type": "uint256"
        }
      ],
      "payable": false,
      "stateMutability": "view",
      "type": "function"
    },
    {
      "constant": true,
      "inputs": [
        {
          "name": "",
          "type": "bytes32"
        },
        {
          "name": "",
          "type": "address"
        }
      ],
      "name": "ledgerAccounts",
      "outputs": [
        {
          "name": "",
          "type": "bool"
        }
      ],
      "payable": false,
      "stateMutability": "view",
      "type": "function"
    },
    {
      "constant": false,
      "inputs": [
        {
          "name": "newOwner",
          "type": "address"
        }
      ],
      "name": "transferOwnership",
      "outputs": [],
      "payable": false,
      "stateMutability": "nonpayable",
      "type": "function"
    },
    {
      "constant": true,
      "inputs": [
        {
          "name": "record",
          "type": "string"
        }
      ],
      "name": "getAddressValue",
      "outputs": [
        {
          "name": "",
          "type": "address"
        }
      ],
      "payable": false,
      "stateMutability": "view",
      "type": "function"
    },
    {
      "anonymous": false,
      "inputs": [
        {
          "indexed": false,
          "name": "owner_address",
          "type": "address"
        },
        {
          "indexed": false,
          "name": "Projecttokenaddr",
          "type": "address"
        },
        {
          "indexed": false,
          "name": "DFSProjectdescribe",
          "type": "bytes32"
        },
        {
          "indexed": false,
          "name": "_DARFsystemaddress",
          "type": "address"
        }
      ],
      "name": "New_project",
      "type": "event"
    },
    {
      "anonymous": false,
      "inputs": [
        {
          "indexed": false,
          "name": "Projecttokenaddr",
          "type": "address"
        }
      ],
      "name": "finished_project",
      "type": "event"
    },
    {
      "anonymous": false,
      "inputs": [
        {
          "indexed": true,
          "name": "admin",
          "type": "address"
        }
      ],
      "name": "AddAdmin",
      "type": "event"
    },
    {
      "anonymous": false,
      "inputs": [
        {
          "indexed": true,
          "name": "admin",
          "type": "address"
        }
      ],
      "name": "RemoveAdmin",
      "type": "event"
    },
    {
      "anonymous": false,
      "inputs": [
        {
          "indexed": true,
          "name": "admin",
          "type": "address"
        }
      ],
      "name": "AddSuperAdmin",
      "type": "event"
    },
    {
      "anonymous": false,
      "inputs": [
        {
          "indexed": true,
          "name": "admin",
          "type": "address"
        }
      ],
      "name": "RemoveSuperAdmin",
      "type": "event"
    },
    {
      "anonymous": false,
      "inputs": [
        {
          "indexed": false,
          "name": "previousOwner",
          "type": "address"
        },
        {
          "indexed": false,
          "name": "newOwner",
          "type": "address"
        }
      ],
      "name": "OwnershipTransferred",
      "type": "event"
    },
    {
      "constant": false,
      "inputs": [],
      "name": "kyc",
      "outputs": [],
      "payable": false,
      "stateMutability": "nonpayable",
      "type": "function"
    },
    {
      "constant": false,
      "inputs": [],
      "name": "load_conditions_ES",
      "outputs": [],
      "payable": false,
      "stateMutability": "nonpayable",
      "type": "function"
    },
    {
      "constant": false,
      "inputs": [
        {
          "name": "_investor_address",
          "type": "address"
        },
        {
          "name": "currency",
          "type": "bytes32"
        }
      ],
      "name": "allowed_invest",
      "outputs": [
        {
          "name": "",
          "type": "uint256"
        }
      ],
      "payable": false,
      "stateMutability": "nonpayable",
      "type": "function"
    },
    {
      "constant": false,
      "inputs": [
        {
          "name": "_investor_address",
          "type": "address"
        },
        {
          "name": "currency",
          "type": "bytes32"
        },
        {
          "name": "add_approved_sum",
          "type": "uint256"
        }
      ],
      "name": "add_KYC",
      "outputs": [],
      "payable": false,
      "stateMutability": "nonpayable",
      "type": "function"
    },
    {
      "constant": false,
      "inputs": [
        {
          "name": "_investor_address",
          "type": "address"
        },
        {
          "name": "currency",
          "type": "bytes32"
        },
        {
          "name": "add_invested_sum",
          "type": "uint256"
        }
      ],
      "name": "register_invest",
      "outputs": [],
      "payable": false,
      "stateMutability": "nonpayable",
      "type": "function"
    },
    {
      "constant": false,
      "inputs": [
        {
          "name": "Externalstorageaddr",
          "type": "address"
        }
      ],
      "name": "_initExternalStorage",
      "outputs": [],
      "payable": false,
      "stateMutability": "nonpayable",
      "type": "function"
    }
  ],
  "bytecode": "0x6080604052671bc16d674ec8000060265534801561001c57600080fd5b506150e48061002c6000396000f3fe6080604052600436106102c65763ffffffff60e060020a6000350416630305357e81146102cb57806303d7593714610307578063043baa03146103be5780630489882e146103f7578063059f9ebf1461040c578063088787a3146104585780630cb1a3a91461052157806310278bc8146105e25780631785f53c14610697578063199759db146106ca5780631f69d2301461070957806321f622be146107d4578063313f2a21146108075780633d8f89d7146108315780633fe14713146108e6578063413c6d1314610919578063429b62e5146109d75780634463d9ec14610a1e5780634902e4aa14610a5f5780634e6091f314610a925780634f16124514610ad15780634f6acaa114610b8457806364a04b5914610c37578063663e91f214610c6a5780636ae923c814610ca35780636e22d33e14610ce25780637048027514610e0a578063740ca23c14610e3d57806375fa9ece14610e765780637ec1399614610ebb5780637ffcd79f14610f6e57806383e835e014610fa75780638552527714610fd1578063877c21841461100a5780638da5cb5b146110bd5780638de21650146110d257806390d6b45f14611185578063929268b81461119a5780639df152dc1461125d578063a90cf6f414611272578063abd6ff8e14611330578063abf7b063146113e5578063ad25cb42146113fa578063ad5306191461142d578063b1ec4c8814611481578063b3292ff0146114c0578063bf3c1120146114f3578063bfaa3ebc1461162d578063c04dc73b1461168b578063c0b3ac93146116bb578063c3894398146116eb578063c5ca321314611715578063c8bc04071461173f578063cc46e7ca14611772578063d2716f03146117fa578063d3f742dc14611863578063e671fab51461188d578063e815cae61461194b578063e89bc86b14611984578063e8d39d0714611a37578063f2fde38b14611a70578063fd25568314611aa3575b600080fd5b3480156102d757600080fd5b506102f5600480360360208110156102ee57600080fd5b5035611b56565b60408051918252519081900360200190f35b34801561031357600080fd5b506103bc6004803603604081101561032a57600080fd5b81019060208101813564010000000081111561034557600080fd5b82018360208201111561035757600080fd5b8035906020019184600183028401116401000000008311171561037957600080fd5b91908080601f0160208091040260200160405190810160405280939291908181526020018383808284376000920191909152509295505091359250611b68915050565b005b3480156103ca57600080fd5b506103bc600480360360408110156103e157600080fd5b50600160a060020a038135169060200135611c68565b34801561040357600080fd5b506102f5611c6c565b34801561041857600080fd5b5061043c6004803603604081101561042f57600080fd5b5080359060200135611c72565b60408051600160a060020a039092168252519081900360200190f35b34801561046457600080fd5b506102f56004803603606081101561047b57600080fd5b81019060208101813564010000000081111561049657600080fd5b8201836020820111156104a857600080fd5b803590602001918460018302840111640100000000831117156104ca57600080fd5b91908080601f01602080910402602001604051908101604052809392919081815260200183838082843760009201919091525092955050600160a060020a038335811694506020909301359092169150611c989050565b34801561052d57600080fd5b506103bc6004803603606081101561054457600080fd5b81019060208101813564010000000081111561055f57600080fd5b82018360208201111561057157600080fd5b8035906020019184600183028401116401000000008311171561059357600080fd5b91908080601f01602080910402602001604051908101604052809392919081815260200183838082843760009201919091525092955050600160a060020a038335169350505060200135611d5e565b3480156105ee57600080fd5b506103bc6004803603604081101561060557600080fd5b81019060208101813564010000000081111561062057600080fd5b82018360208201111561063257600080fd5b8035906020019184600183028401116401000000008311171561065457600080fd5b91908080601f0160208091040260200160405190810160405280939291908181526020018383808284376000920191909152509295505091359250611f1c915050565b3480156106a357600080fd5b506103bc600480360360208110156106ba57600080fd5b5035600160a060020a0316611fc0565b3480156106d657600080fd5b5061043c600480360360608110156106ed57600080fd5b50803590600160a060020a03602082013516906040013561204c565b34801561071557600080fd5b506103bc6004803603608081101561072c57600080fd5b81019060208101813564010000000081111561074757600080fd5b82018360208201111561075957600080fd5b8035906020019184600183028401116401000000008311171561077b57600080fd5b91908080601f01602080910402602001604051908101604052809392919081815260200183838082843760009201919091525092955050600160a060020a03833581169450602084013516926040013591506120789050565b3480156107e057600080fd5b506103bc600480360360208110156107f757600080fd5b5035600160a060020a031661231f565b34801561081357600080fd5b5061043c6004803603602081101561082a57600080fd5b503561235e565b34801561083d57600080fd5b506103bc6004803603604081101561085457600080fd5b81019060208101813564010000000081111561086f57600080fd5b82018360208201111561088157600080fd5b803590602001918460018302840111640100000000831117156108a357600080fd5b91908080601f0160208091040260200160405190810160405280939291908181526020018383808284376000920191909152509295505050503515159050612379565b3480156108f257600080fd5b506102f56004803603602081101561090957600080fd5b5035600160a060020a0316612487565b34801561092557600080fd5b506103bc6004803603604081101561093c57600080fd5b81019060208101813564010000000081111561095757600080fd5b82018360208201111561096957600080fd5b8035906020019184600183028401116401000000008311171561098b57600080fd5b91908080601f01602080910402602001604051908101604052809392919081815260200183838082843760009201919091525092955050509035600160a060020a031691506125689050565b3480156109e357600080fd5b50610a0a600480360360208110156109fa57600080fd5b5035600160a060020a031661268b565b604080519115158252519081900360200190f35b348015610a2a57600080fd5b50610a0a60048036036060811015610a4157600080fd5b50803590600160a060020a03602082013581169160400135166126a0565b348015610a6b57600080fd5b506103bc60048036036020811015610a8257600080fd5b5035600160a060020a03166126c6565b348015610a9e57600080fd5b506103bc60048036036060811015610ab557600080fd5b50600160a060020a03813516906020810135906040013561272b565b348015610add57600080fd5b506102f560048036036020811015610af457600080fd5b810190602081018135640100000000811115610b0f57600080fd5b820183602082011115610b2157600080fd5b80359060200191846001830284011164010000000083111715610b4357600080fd5b91908080601f0160208091040260200160405190810160405280939291908181526020018383808284376000920191909152509295506127bd945050505050565b348015610b9057600080fd5b506102f560048036036020811015610ba757600080fd5b810190602081018135640100000000811115610bc257600080fd5b820183602082011115610bd457600080fd5b80359060200191846001830284011164010000000083111715610bf657600080fd5b91908080601f016020809104026020016040519081016040528093929190818152602001838380828437600092019190915250929550612862945050505050565b348015610c4357600080fd5b506103bc60048036036020811015610c5a57600080fd5b5035600160a060020a03166128a8565b348015610c7657600080fd5b506102f560048036036040811015610c8d57600080fd5b50600160a060020a0381351690602001356128d0565b348015610caf57600080fd5b506103bc60048036036060811015610cc657600080fd5b50600160a060020a038135169060208101359060400135612976565b348015610cee57600080fd5b50610d9560048036036020811015610d0557600080fd5b810190602081018135640100000000811115610d2057600080fd5b820183602082011115610d3257600080fd5b80359060200191846001830284011164010000000083111715610d5457600080fd5b91908080601f016020809104026020016040519081016040528093929190818152602001838380828437600092019190915250929550612a4a945050505050565b6040805160208082528351818301528351919283929083019185019080838360005b83811015610dcf578181015183820152602001610db7565b50505050905090810190601f168015610dfc5780820380516001836020036101000a031916815260200191505b509250505060405180910390f35b348015610e1657600080fd5b506103bc60048036036020811015610e2d57600080fd5b5035600160a060020a0316612b7a565b348015610e4957600080fd5b506102f560048036036040811015610e6057600080fd5b5080359060200135600160a060020a0316612c87565b348015610e8257600080fd5b506102f560048036036080811015610e9957600080fd5b50600160a060020a038135169060208101359060408101359060600135612ca4565b348015610ec757600080fd5b506102f560048036036020811015610ede57600080fd5b810190602081018135640100000000811115610ef957600080fd5b820183602082011115610f0b57600080fd5b80359060200191846001830284011164010000000083111715610f2d57600080fd5b91908080601f016020809104026020016040519081016040528093929190818152602001838380828437600092019190915250929550612d5d945050505050565b348015610f7a57600080fd5b50610a0a60048036036040811015610f9157600080fd5b5080359060200135600160a060020a0316612da3565b348015610fb357600080fd5b506102f560048036036020811015610fca57600080fd5b5035612dc3565b348015610fdd57600080fd5b50610a0a60048036036040811015610ff457600080fd5b5080359060200135600160a060020a0316612dd5565b34801561101657600080fd5b506102f56004803603602081101561102d57600080fd5b81019060208101813564010000000081111561104857600080fd5b82018360208201111561105a57600080fd5b8035906020019184600183028401116401000000008311171561107c57600080fd5b91908080601f016020809104026020016040519081016040528093929190818152602001838380828437600092019190915250929550612df5945050505050565b3480156110c957600080fd5b5061043c612e3b565b3480156110de57600080fd5b50610a0a600480360360208110156110f557600080fd5b81019060208101813564010000000081111561111057600080fd5b82018360208201111561112257600080fd5b8035906020019184600183028401116401000000008311171561114457600080fd5b91908080601f016020809104026020016040519081016040528093929190818152602001838380828437600092019190915250929550612e4b945050505050565b34801561119157600080fd5b506103bc612ef2565b3480156111a657600080fd5b506103bc600480360360608110156111bd57600080fd5b8101906020810181356401000000008111156111d857600080fd5b8201836020820111156111ea57600080fd5b8035906020019184600183028401116401000000008311171561120c57600080fd5b91908080601f01602080910402602001604051908101604052809392919081815260200183838082843760009201919091525092955050600160a060020a0383351693505050602001351515613040565b34801561126957600080fd5b506103bc61320d565b34801561127e57600080fd5b506102f56004803603604081101561129557600080fd5b8101906020810181356401000000008111156112b057600080fd5b8201836020820111156112c257600080fd5b803590602001918460018302840111640100000000831117156112e457600080fd5b91908080601f01602080910402602001604051908101604052809392919081815260200183838082843760009201919091525092955050509035600160a060020a0316915061334f9050565b34801561133c57600080fd5b506103bc6004803603604081101561135357600080fd5b81019060208101813564010000000081111561136e57600080fd5b82018360208201111561138057600080fd5b803590602001918460018302840111640100000000831117156113a257600080fd5b91908080601f0160208091040260200160405190810160405280939291908181526020018383808284376000920191909152509295505091359250613409915050565b3480156113f157600080fd5b506102f56134ad565b34801561140657600080fd5b50610a0a6004803603602081101561141d57600080fd5b5035600160a060020a03166134b3565b34801561143957600080fd5b506114686004803603604081101561145057600080fd5b50600160a060020a03813581169160200135166134c8565b6040805192835260208301919091528051918290030190f35b34801561148d57600080fd5b506103bc600480360360608110156114a457600080fd5b50600160a060020a0381351690602081013590604001356134ec565b3480156114cc57600080fd5b506103bc600480360360208110156114e357600080fd5b5035600160a060020a0316613550565b3480156114ff57600080fd5b506103bc6004803603604081101561151657600080fd5b81019060208101813564010000000081111561153157600080fd5b82018360208201111561154357600080fd5b8035906020019184600183028401116401000000008311171561156557600080fd5b91908080601f01602080910402602001604051908101604052809392919081815260200183838082843760009201919091525092959493602081019350359150506401000000008111156115b857600080fd5b8201836020820111156115ca57600080fd5b803590602001918460018302840111640100000000831117156115ec57600080fd5b91908080601f016020809104026020016040519081016040528093929190818152602001838380828437600092019190915250929550613637945050505050565b34801561163957600080fd5b506103bc6004803603606081101561165057600080fd5b508035600160a060020a031690602081013590604001357bffffffffffffffffffffffffffffffffffffffffffffffffffffffff191661374a565b34801561169757600080fd5b5061043c600480360360408110156116ae57600080fd5b5080359060200135613b76565b3480156116c757600080fd5b5061043c600480360360408110156116de57600080fd5b5080359060200135613b9c565b3480156116f757600080fd5b5061043c6004803603602081101561170e57600080fd5b5035613bc2565b34801561172157600080fd5b5061043c6004803603602081101561173857600080fd5b5035613bdd565b34801561174b57600080fd5b506103bc6004803603602081101561176257600080fd5b5035600160a060020a0316613c05565b34801561177e57600080fd5b506117a56004803603602081101561179557600080fd5b5035600160a060020a0316613e06565b60408051958652600160a060020a039485166020870152929093168483015260608401527bffffffffffffffffffffffffffffffffffffffffffffffffffffffff199091166080830152519081900360a00190f35b34801561180657600080fd5b506103bc6004803603608081101561181d57600080fd5b508035600160a060020a0390811691602081013590911690604081013590606001357bffffffffffffffffffffffffffffffffffffffffffffffffffffffff1916613e47565b34801561186f57600080fd5b506102f56004803603602081101561188657600080fd5b5035613ec8565b34801561189957600080fd5b50610a0a600480360360408110156118b057600080fd5b8101906020810181356401000000008111156118cb57600080fd5b8201836020820111156118dd57600080fd5b803590602001918460018302840111640100000000831117156118ff57600080fd5b91908080601f01602080910402602001604051908101604052809392919081815260200183838082843760009201919091525092955050509035600160a060020a03169150613eda9050565b34801561195757600080fd5b506102f56004803603604081101561196e57600080fd5b50600160a060020a038135169060200135613f97565b34801561199057600080fd5b506102f5600480360360208110156119a757600080fd5b8101906020810181356401000000008111156119c257600080fd5b8201836020820111156119d457600080fd5b803590602001918460018302840111640100000000831117156119f657600080fd5b91908080601f016020809104026020016040519081016040528093929190818152602001838380828437600092019190915250929550614063945050505050565b348015611a4357600080fd5b50610a0a60048036036040811015611a5a57600080fd5b5080359060200135600160a060020a03166140a9565b348015611a7c57600080fd5b506103bc60048036036020811015611a9357600080fd5b5035600160a060020a03166140c9565b348015611aaf57600080fd5b5061043c60048036036020811015611ac657600080fd5b810190602081018135640100000000811115611ae157600080fd5b820183602082011115611af357600080fd5b80359060200191846001830284011164010000000083111715611b1557600080fd5b91908080601f01602080910402602001604051908101604052809392919081815260200183838082843760009201919091525092955061414e945050505050565b600a6020526000908152604090205481565b611b70612e3b565b600160a060020a031633600160a060020a031614158015611ba157503360009081526006602052604090205460ff16155b8015611bbd57503360009081526005602052604090205460ff16155b15611bc757600080fd5b8060196000846040516020018080602001828103825283818151815260200191508051906020019080838360005b83811015611c0d578181015183820152602001611bf5565b50505050905090810190601f168015611c3a5780820380516001836020036101000a031916815260200191505b5060408051601f19818403018152918152815160209283012086529085019590955250505001600020555050565b5050565b60015481565b600c602090815260009283526040808420909152908252902054600160a060020a031681565b600060096000856040516020018080602001828103825283818151815260200191508051906020019080838360005b83811015611cdf578181015183820152602001611cc7565b50505050905090810190601f168015611d0c5780820380516001836020036101000a031916815260200191505b5060408051808303601f1901815291815281516020928301208652858201969096529385016000908120600160a060020a03998a16825285528581209790981688525050509290925250902054919050565b611d66612e3b565b600160a060020a031633600160a060020a031614158015611d9757503360009081526006602052604090205460ff16155b8015611db357503360009081526005602052604090205460ff16155b15611dbd57600080fd5b6000836040516020018080602001828103825283818151815260200191508051906020019080838360005b83811015611e00578181015183820152602001611de8565b50505050905090810190601f168015611e2d5780820380516001836020036101000a031916815260200191505b5060408051601f198184030181529181528151602092830120600081815260138452828120600160a060020a038b16825290935291205490945060ff1615159250611ef391505057600081815260126020908152604080832054601483528184208185529092529091208054600160a060020a031916600160a060020a038616179055611ebb8160016141fb565b60008381526012602090815260408083209390935560138152828220600160a060020a0388168352905220805460ff19166001179055505b6000908152601160209081526040808320600160a060020a039095168352939052919091205550565b611f24612e3b565b600160a060020a031633600160a060020a031614158015611f5557503360009081526006602052604090205460ff16155b8015611f7157503360009081526005602052604090205460ff16155b15611f7b57600080fd5b80601a60008460405160200180806020018281038252838181518152602001915080519060200190808383600083811015611c0d578181015183820152602001611bf5565b611fc8612e3b565b600160a060020a031633600160a060020a031614158015611ff957503360009081526006602052604090205460ff16155b1561200357600080fd5b600160a060020a038116600081815260056020526040808220805460ff19169055517f753f40ca3312b2408759a67875b367955e7baa221daf08aa3d643d96202ac12b9190a250565b600f602090815260009384526040808520825292845282842090528252902054600160a060020a031681565b612080612e3b565b600160a060020a031633600160a060020a0316141580156120b157503360009081526006602052604090205460ff16155b80156120cd57503360009081526005602052604090205460ff16155b156120d757600080fd5b6000846040516020018080602001828103825283818151815260200191508051906020019080838360005b8381101561211a578181015183820152602001612102565b50505050905090810190601f1680156121475780820380516001836020036101000a031916815260200191505b5060408051601f1981840301815291815281516020928301206000818152600a845282812054600d8552838220600160a060020a03808e1680855291875285842054858552600e8852868520928552918752858420908d1684529095529290205490965090945090925060ff16151590506122e9576000838152600f60209081526040808320600160a060020a038a811685529083528184208585529092529091208054600160a060020a0319169187169190911790556122098160016141fb565b6000848152600d60209081526040808320600160a060020a03808c1680865291845282852095909555878452600e83528184208185528352818420948a168452938252808320805460ff19166001179055868352600b8252808320938352929052205460ff1615156122e9576000838152600c6020908152604080832085845290915290208054600160a060020a031916600160a060020a0388161790556122b28260016141fb565b6000848152600a6020908152604080832093909355600b8152828220600160a060020a038a168352905220805460ff191660011790555b50506000908152600960209081526040808320600160a060020a0396871684528252808320949095168252929092529190205550565b60408051600160a060020a038316815290517f3de6942a798d68cf19b2bb7207cacf6c331a8fc7806b0f420977489c636d370c9181900360200190a150565b600360205260009081526040902054600160a060020a031681565b612381612e3b565b600160a060020a031633600160a060020a0316141580156123b257503360009081526006602052604090205460ff16155b80156123ce57503360009081526005602052604090205460ff16155b156123d857600080fd5b80601d6000846040516020018080602001828103825283818151815260200191508051906020019080838360005b8381101561241e578181015183820152602001612406565b50505050905090810190601f16801561244b5780820380516001836020036101000a031916815260200191505b5060408051808303601f19018152918152815160209283012086529085019590955250505001600020805460ff19169115159190911790555050565b600060075b6000811061255d57600160a060020a03831660009081526020805260409020839082600881106124b857fe5b0154604080517f70a082310000000000000000000000000000000000000000000000000000000081523360048201529051600160a060020a038416916370a08231916024808301926020929190829003018186803b15801561251957600080fd5b505afa15801561252d573d6000803e3d6000fd5b505050506040513d602081101561254357600080fd5b5051111561255357509050612563565b506000190161248c565b50600090505b919050565b612570612e3b565b600160a060020a031633600160a060020a0316141580156125a157503360009081526006602052604090205460ff16155b80156125bd57503360009081526005602052604090205460ff16155b156125c757600080fd5b80601b6000846040516020018080602001828103825283818151815260200191508051906020019080838360005b8381101561260d5781810151838201526020016125f5565b50505050905090810190601f16801561263a5780820380516001836020036101000a031916815260200191505b509250505060405160208183030381529060405280519060200120815260200190815260200160002060006101000a815481600160a060020a030219169083600160a060020a031602179055505050565b60056020526000908152604090205460ff1681565b600e60209081526000938452604080852082529284528284209052825290205460ff1681565b6126ce612e3b565b600160a060020a031633146126e257600080fd5b600160a060020a038116600081815260066020526040808220805460ff19169055517f1aaaaf7609619e631f47eb3546f9fdd8c61b1af2175988a0ddb9a06680c3b9ed9190a250565b602554604080517f4e6091f3000000000000000000000000000000000000000000000000000000008152600160a060020a038681166004830152602482018690526044820185905291519190921691634e6091f391606480830192600092919082900301818387803b1580156127a057600080fd5b505af11580156127b4573d6000803e3d6000fd5b50505050505050565b600060196000836040516020018080602001828103825283818151815260200191508051906020019080838360005b838110156128045781810151838201526020016127ec565b50505050905090810190601f1680156128315780820380516001836020036101000a031916815260200191505b5092505050604051602081830303815290604052805190602001208152602001908152602001600020549050919050565b60006012600083604051602001808060200182810382528381815181526020019150805190602001908083836000838110156128045781810151838201526020016127ec565b6128b0612e3b565b600160a060020a031633146128c457600080fd5b6128cd81614211565b50565b602554604080517f192ebb52000000000000000000000000000000000000000000000000000000008152600160a060020a0385811660048301526024820185905291516000938493169163192ebb5291604480830192602092919082900301818787803b15801561294057600080fd5b505af1158015612954573d6000803e3d6000fd5b505050506040513d602081101561296a57600080fd5b50519150505b92915050565b61297e612e3b565b600160a060020a031633600160a060020a0316141580156129af57503360009081526006602052604090205460ff16155b80156129cb57503360009081526005602052604090205460ff16155b156129d557600080fd5b602554604080517f6ae923c8000000000000000000000000000000000000000000000000000000008152600160a060020a038681166004830152602482018690526044820185905291519190921691636ae923c891606480830192600092919082900301818387803b1580156127a057600080fd5b6060601c6000836040516020018080602001828103825283818151815260200191508051906020019080838360005b83811015612a91578181015183820152602001612a79565b50505050905090810190601f168015612abe5780820380516001836020036101000a031916815260200191505b5060408051601f19818403018152918152815160209283012086528582019690965293850160002080548651601f60026000196101006001861615020190931692909204918201879004870281018701909752808752909490935085019150839050828015612b6e5780601f10612b4357610100808354040283529160200191612b6e565b820191906000526020600020905b815481529060010190602001808311612b5157829003601f168201915b50505050509050919050565b612b82612e3b565b600160a060020a031633600160a060020a031614158015612bb357503360009081526006602052604090205460ff16155b15612bbd57600080fd5b600160a060020a0381166000908152600560209081526040808320805460ff19166001179055600790915290205460ff161515612c5057600160a060020a0381166000818152600760209081526040808320805460ff191660019081179091558054845260039092529091208054600160a060020a0319169092179091558054612c4c9163ffffffff6141fb16565b6001555b604051600160a060020a038216907fad6de4452a631e641cb59902236607946ce9272b9b981f2f80e8d129cb9084ba90600090a250565b600d60209081526000928352604080842090915290825290205481565b600160a060020a038481166000908152602260205260408120600201549091163314612ccf57600080fd5b5060408051600160a060020a03959095166c0100000000000000000000000081026020808801919091524260348089018290528451808a0390910181526054909801845287519782019790972060008181526021808452858220600581018b905594825260228452948120549190529290529081556001810193909355600283019190915560049091015590565b6000601a600083604051602001808060200182810382528381815181526020019150805190602001908083836000838110156128045781810151838201526020016127ec565b601760209081526000928352604080842090915290825290205460ff1681565b60166020526000908152604090205481565b600b60209081526000928352604080842090915290825290205460ff1681565b6000601e600083604051602001808060200182810382528381815181526020019150805190602001908083836000838110156128045781810151838201526020016127ec565b600054600160a060020a03165b90565b6000601d6000836040516020018080602001828103825283818151815260200191508051906020019080838360005b83811015612e92578181015183820152602001612e7a565b50505050905090810190601f168015612ebf5780820380516001836020036101000a031916815260200191505b5060408051808303601f190181529181528151602092830120865290850195909552505050016000205460ff1692915050565b612efa612e3b565b600160a060020a031633600160a060020a031614158015612f2b57503360009081526006602052604090205460ff16155b8015612f4757503360009081526005602052604090205460ff16155b15612f5157600080fd5b612f59614347565b604051809103906000f080158015612f75573d6000803e3d6000fd5b5060258054600160a060020a031916600160a060020a0392831617905560248054604080517f413c6d13000000000000000000000000000000000000000000000000000000008152309381019390935260048301819052600760448401527f4b59432f4b594300000000000000000000000000000000000000000000000000606484015251921691829163413c6d1391608480830192600092919082900301818387803b15801561302557600080fd5b505af1158015613039573d6000803e3d6000fd5b5050505050565b613048612e3b565b600160a060020a031633600160a060020a03161415801561307957503360009081526006602052604090205460ff16155b801561309557503360009081526005602052604090205460ff16155b1561309f57600080fd5b6000836040516020018080602001828103825283818151815260200191508051906020019080838360005b838110156130e25781810151838201526020016130ca565b50505050905090810190601f16801561310f5780820380516001836020036101000a031916815260200191505b5060408051601f198184030181529181528151602092830120600081815260178452828120600160a060020a038b16825290935291205490945060ff16151592506131d591505057600081815260166020908152604080832054601883528184208185529092529091208054600160a060020a031916600160a060020a03861617905561319d8160016141fb565b60008381526016602090815260408083209390935560178152828220600160a060020a0388168352905220805460ff19166001179055505b6000908152601560209081526040808320600160a060020a0395909516835293905291909120805460ff191691151591909117905550565b613215612e3b565b600160a060020a031633600160a060020a03161415801561324657503360009081526006602052604090205460ff16155b801561326257503360009081526005602052604090205460ff16155b1561326c57600080fd5b60248054604080517ffd2556830000000000000000000000000000000000000000000000000000000081526020600482018190526013948201949094527f736372756d696e766573742f70726f6a6563740000000000000000000000000060448201529051600160a060020a0390921692839263fd255683926064808201939291829003018186803b15801561330157600080fd5b505afa158015613315573d6000803e3d6000fd5b505050506040513d602081101561332b57600080fd5b505160278054600160a060020a031916600160a060020a0390921691909117905550565b600060116000846040516020018080602001828103825283818151815260200191508051906020019080838360005b8381101561339657818101518382015260200161337e565b50505050905090810190601f1680156133c35780820380516001836020036101000a031916815260200191505b5060408051601f1981840301815291815281516020928301208652858201969096529385016000908120600160a060020a03891682529094525050502054905092915050565b613411612e3b565b600160a060020a031633600160a060020a03161415801561344257503360009081526006602052604090205460ff16155b801561345e57503360009081526005602052604090205460ff16155b1561346857600080fd5b80601e60008460405160200180806020018281038252838181518152602001915080519060200190808383600083811015611c0d578181015183820152602001611bf5565b60025481565b60066020526000908152604090205460ff1681565b60106020908152600092835260408084209091529082529020805460019091015482565b600160a060020a03808416600090815260226020526040902060010154849116331461351757600080fd5b6008831061352457600080fd5b600160a060020a038416600090815260208052604090208290846008811061354857fe5b015550505050565b613558612e3b565b600160a060020a0316331461356c57600080fd5b600160a060020a0381166000908152600660209081526040808320805460ff19166001179055600890915290205460ff16151561360057600160a060020a0381166000818152600860209081526040808320805460ff19166001908117909155600280548552600490935292208054600160a060020a03191690931790925590546135fc9163ffffffff6141fb16565b6002555b604051600160a060020a038216907ffba24c034afca607a35e1f221b154b3f8e1f88c7924c8a0a06755b70708c44d890600090a250565b61363f612e3b565b600160a060020a031633600160a060020a03161415801561367057503360009081526006602052604090205460ff16155b801561368c57503360009081526005602052604090205460ff16155b1561369657600080fd5b80601c6000846040516020018080602001828103825283818151815260200191508051906020019080838360005b838110156136dc5781810151838201526020016136c4565b50505050905090810190601f1680156137095780820380516001836020036101000a031916815260200191505b50925050506040516020818303038152906040528051906020012081526020019081526020016000209080519060200190613745929190614357565b505050565b600160a060020a03808416600090815260226020526040902060010154849116331461377557600080fd5b601f54604080517ffd255683000000000000000000000000000000000000000000000000000000008152602060048201819052600f60248301527f414e475f73797374656d5f61646472000000000000000000000000000000000060448301529151600160a060020a0390931692600092849263fd2556839260648083019392829003018186803b15801561380957600080fd5b505afa15801561381d573d6000803e3d6000fd5b505050506040513d602081101561383357600080fd5b5051604080517f4f161245000000000000000000000000000000000000000000000000000000008152602060048201819052600c60248301527f6f75725f7368617265313030000000000000000000000000000000000000000060448301529151929350600092600160a060020a03861692634f1612459260648082019391829003018186803b1580156138c657600080fd5b505afa1580156138da573d6000803e3d6000fd5b505050506040513d60208110156138f057600080fd5b505190506138ff878383614233565b151561390a57600080fd5b336022600089600160a060020a0316600160a060020a0316815260200190815260200160002060010160006101000a815481600160a060020a030219169083600160a060020a03160217905550856022600089600160a060020a0316600160a060020a0316815260200190815260200160002060030181905550846022600089600160a060020a0316600160a060020a0316815260200190815260200160002060040160006101000a81548163ffffffff021916908360e060020a9004021790555060238790806001815401808255809150509060018203906000526020600020016000909192909190916101000a815481600160a060020a030219169083600160a060020a03160217905550506023805490506022600089600160a060020a0316600160a060020a03168152602001908152602001600020600001819055507f5af8025d6adb7569fd240c526c29e6dd2279a32d84fda1f040d2c64ad2dae27b6022600089600160a060020a0316600160a060020a0316815260200190815260200160002060010160009054906101000a9004600160a060020a031688602260008b600160a060020a0316600160a060020a0316815260200190815260200160002060030154602260008c600160a060020a0316600160a060020a0316815260200190815260200160002060020160009054906101000a9004600160a060020a03166040518085600160a060020a0316600160a060020a0316815260200184600160a060020a0316600160a060020a0316815260200183815260200182600160a060020a0316600160a060020a0316815260200194505050505060405180910390a150505050505050565b6014602090815260009283526040808420909152908252902054600160a060020a031681565b6018602090815260009283526040808420909152908252902054600160a060020a031681565b600460205260009081526040902054600160a060020a031681565b6023805482908110613beb57fe5b600091825260209091200154600160a060020a0316905081565b613c0d612e3b565b600160a060020a031633600160a060020a031614158015613c3e57503360009081526006602052604090205460ff16155b8015613c5a57503360009081526005602052604090205460ff16155b15613c6457600080fd5b60248054600160a060020a031916600160a060020a0383811691909117808355604080517f413c6d13000000000000000000000000000000000000000000000000000000008152309481019490945260048401819052600760448501527f4b59432f4b594300000000000000000000000000000000000000000000000000606485015251911691829163413c6d139160848082019260009290919082900301818387803b158015613d1457600080fd5b505af1158015613d28573d6000803e3d6000fd5b5050604080517ffd255683000000000000000000000000000000000000000000000000000000008152602060048201819052601360248301527f736372756d696e766573742f70726f6a6563740000000000000000000000000060448301529151600160a060020a038616945063fd255683935060648083019392829003018186803b158015613db757600080fd5b505afa158015613dcb573d6000803e3d6000fd5b505050506040513d6020811015613de157600080fd5b505160278054600160a060020a031916600160a060020a039092169190911790555050565b602260205260009081526040902080546001820154600283015460038401546004909401549293600160a060020a0392831693929091169160e060020a0285565b600160a060020a038085166000908152602260205260409020600101548591163314613e7257600080fd5b50600160a060020a039384166000908152602260205260409020600181018054600160a060020a03191694909516939093179093556003820155600401805463ffffffff191660e060020a909204919091179055565b60126020526000908152604090205481565b600060156000846040516020018080602001828103825283818151815260200191508051906020019080838360005b83811015613f21578181015183820152602001613f09565b50505050905090810190601f168015613f4e5780820380516001836020036101000a031916815260200191505b5060408051601f1981840301815291815281516020928301208652858201969096529385016000908120600160a060020a0389168252909452505050205460ff16905092915050565b600080613fa384612487565b11156140065750604080516c01000000000000000000000000600160a060020a0385160260208083019190915260348083018590528351808403909101815260549092018352815191810191909120600090815260219091522060010154612970565b50604080516c01000000000000000000000000600160a060020a0385160260208083019190915260348083018590528351808403909101815260549092018352815191810191909120600090815260219091522060040154612970565b60006016600083604051602001808060200182810382528381815181526020019150805190602001908083836000838110156128045781810151838201526020016127ec565b601360209081526000928352604080842090915290825290205460ff1681565b6140d1612e3b565b600160a060020a031633146140e557600080fd5b600160a060020a03811615156140fa57600080fd5b7f8be0079c531659141344cd1fd0a4f28419497f9722a3daafe3b4186f6b6457e0614123612e3b565b60408051600160a060020a03928316815291841660208301528051918290030190a16128cd81614211565b6000601b6000836040516020018080602001828103825283818151815260200191508051906020019080838360005b8381101561419557818101518382015260200161417d565b50505050905090810190601f1680156141c25780820380516001836020036101000a031916815260200191505b5060408051808303601f1901815291815281516020928301208652908501959095525050500160002054600160a060020a031692915050565b60008282018381101561420a57fe5b9392505050565b60008054600160a060020a031916600160a060020a0392909216919091179055565b60008084600160a060020a03166318160ddd6040518163ffffffff1660e060020a02815260040160206040518083038186803b15801561427257600080fd5b505afa158015614286573d6000803e3d6000fd5b505050506040513d602081101561429c57600080fd5b5051604080517f70a08231000000000000000000000000000000000000000000000000000000008152600160a060020a0387811660048301529151929350600092918816916370a0823191602480820192602092909190829003018186803b15801561430757600080fd5b505afa15801561431b573d6000803e3d6000fd5b505050506040513d602081101561433157600080fd5b5051606494909202939093041115949350505050565b604051610cc9806143f083390190565b828054600181600116156101000203166002900490600052602060002090601f016020900481019282601f1061439857805160ff19168380011785556143c5565b828001600101855582156143c5579182015b828111156143c55782518255916020019190600101906143aa565b506143d19291506143d5565b5090565b612e4891905b808211156143d157600081556001016143db56fe6080604052671bc16d674ec80000600a5534801561001c57600080fd5b50610c9d8061002c6000396000f3fe6080604052600436106100fb5763ffffffff7c01000000000000000000000000000000000000000000000000000000006000350416630489882e81146101005780631785f53c14610127578063192ebb521461015c578063313f2a2114610195578063429b62e5146101db5780634902e4aa146102225780634e6091f31461025557806364a04b59146102945780636ae923c8146102c757806370480275146103065780638da5cb5b146103395780639df152dc1461034e578063abf7b06314610363578063ad25cb4214610378578063b3292ff0146103ab578063c3894398146103de578063c8bc040714610408578063f2fde38b1461043b575b600080fd5b34801561010c57600080fd5b5061011561046e565b60408051918252519081900360200190f35b34801561013357600080fd5b5061015a6004803603602081101561014a57600080fd5b5035600160a060020a0316610474565b005b34801561016857600080fd5b506101156004803603604081101561017f57600080fd5b50600160a060020a038135169060200135610500565b3480156101a157600080fd5b506101bf600480360360208110156101b857600080fd5b50356105a9565b60408051600160a060020a039092168252519081900360200190f35b3480156101e757600080fd5b5061020e600480360360208110156101fe57600080fd5b5035600160a060020a03166105c4565b604080519115158252519081900360200190f35b34801561022e57600080fd5b5061015a6004803603602081101561024557600080fd5b5035600160a060020a03166105d9565b34801561026157600080fd5b5061015a6004803603606081101561027857600080fd5b50600160a060020a03813516906020810135906040013561063e565b3480156102a057600080fd5b5061015a600480360360208110156102b757600080fd5b5035600160a060020a031661068b565b3480156102d357600080fd5b5061015a600480360360608110156102ea57600080fd5b50600160a060020a0381351690602081013590604001356106b3565b34801561031257600080fd5b5061015a6004803603602081101561032957600080fd5b5035600160a060020a03166106fd565b34801561034557600080fd5b506101bf610817565b34801561035a57600080fd5b5061015a610826565b34801561036f57600080fd5b50610115610948565b34801561038457600080fd5b5061020e6004803603602081101561039b57600080fd5b5035600160a060020a031661094e565b3480156103b757600080fd5b5061015a600480360360208110156103ce57600080fd5b5035600160a060020a0316610963565b3480156103ea57600080fd5b506101bf6004803603602081101561040157600080fd5b5035610a57565b34801561041457600080fd5b5061015a6004803603602081101561042b57600080fd5b5035600160a060020a0316610a72565b34801561044757600080fd5b5061015a6004803603602081101561045e57600080fd5b5035600160a060020a0316610bab565b60015481565b61047c610817565b600160a060020a031633600160a060020a0316141580156104ad57503360009081526006602052604090205460ff16155b156104b757600080fd5b600160a060020a038116600081815260056020526040808220805460ff19169055517f753f40ca3312b2408759a67875b367955e7baa221daf08aa3d643d96202ac12b9190a250565b6040805160208082018490528251808303820181529183018352815191810191909120600160a060020a0385166000908152600b835283812082825290925291812054909190151561057457600a54600160a060020a0385166000908152600b602090815260408083208584529091529020555b600160a060020a03939093166000908152600b6020908152604080832095835294905292909220600181015490540392915050565b600360205260009081526040902054600160a060020a031681565b60056020526000908152604090205460ff1681565b6105e1610817565b600160a060020a031633146105f557600080fd5b600160a060020a038116600081815260066020526040808220805460ff19169055517f1aaaaf7609619e631f47eb3546f9fdd8c61b1af2175988a0ddb9a06680c3b9ed9190a250565b604080516020808201949094528151808203850181529082018252805190840120600160a060020a039094166000908152600b845281812094815293909252912060010180549091019055565b610693610817565b600160a060020a031633146106a757600080fd5b6106b081610c2c565b50565b604080516020808201949094528151808203850181529082018252805190840120600160a060020a039094166000908152600b845281812094815293909252912080549091019055565b610705610817565b600160a060020a031633600160a060020a03161415801561073657503360009081526006602052604090205460ff16155b1561074057600080fd5b600160a060020a0381166000908152600560209081526040808320805460ff19166001179055600790915290205460ff1615156107e057600160a060020a0381166000818152600760209081526040808320805460ff19166001908117909155805484526003909252909120805473ffffffffffffffffffffffffffffffffffffffff191690921790915580546107dc9163ffffffff610c5b16565b6001555b604051600160a060020a038216907fad6de4452a631e641cb59902236607946ce9272b9b981f2f80e8d129cb9084ba90600090a250565b600054600160a060020a031690565b61082e610817565b600160a060020a031633600160a060020a03161415801561085f57503360009081526006602052604090205460ff16155b801561087b57503360009081526005602052604090205460ff16155b1561088557600080fd5b600954604080517f4f161245000000000000000000000000000000000000000000000000000000008152602060048201819052601160248301527f4b59432f4b59435f7468726573686f6c6400000000000000000000000000000060448301529151600160a060020a03909316928392634f1612459260648082019391829003018186803b15801561091657600080fd5b505afa15801561092a573d6000803e3d6000fd5b505050506040513d602081101561094057600080fd5b5051600a5550565b60025481565b60066020526000908152604090205460ff1681565b61096b610817565b600160a060020a0316331461097f57600080fd5b600160a060020a0381166000908152600660209081526040808320805460ff19166001179055600890915290205460ff161515610a2057600160a060020a0381166000818152600860209081526040808320805460ff1916600190811790915560028054855260049093529220805473ffffffffffffffffffffffffffffffffffffffff19169093179092559054610a1c9163ffffffff610c5b16565b6002555b604051600160a060020a038216907ffba24c034afca607a35e1f221b154b3f8e1f88c7924c8a0a06755b70708c44d890600090a250565b600460205260009081526040902054600160a060020a031681565b610a7a610817565b600160a060020a031633600160a060020a031614158015610aab57503360009081526006602052604090205460ff16155b8015610ac757503360009081526005602052604090205460ff16155b15610ad157600080fd5b6009805473ffffffffffffffffffffffffffffffffffffffff1916600160a060020a038381169190911791829055604080517f413c6d1300000000000000000000000000000000000000000000000000000000815230602482015260048101829052601b60448201527f4b59432f696d706c656d656e6174696f6e2f42617369635f4b59430000000000606482015290519290911691829163413c6d1391608480830192600092919082900301818387803b158015610b8f57600080fd5b505af1158015610ba3573d6000803e3d6000fd5b505050505050565b610bb3610817565b600160a060020a03163314610bc757600080fd5b600160a060020a0381161515610bdc57600080fd5b7f8be0079c531659141344cd1fd0a4f28419497f9722a3daafe3b4186f6b6457e0610c05610817565b60408051600160a060020a03928316815291841660208301528051918290030190a16106b0815b6000805473ffffffffffffffffffffffffffffffffffffffff1916600160a060020a0392909216919091179055565b600082820183811015610c6a57fe5b939250505056fea165627a7a723058207bb15549e1d77699081412ae8c338956914755aee1081142881ed664ac4d6ec20029a165627a7a723058201a38b41f548f3e78b4e8b754b5066620a48feee627dffeb16c49a8b4192b54b20029",
  "source": "pragma solidity ^0.5.0;\nimport \"./interface/KYC_interface.sol\";\nimport \"./implementation/Basic_KYC.sol\";\nimport \"../tokens/token.sol\";\n//import '../admin/administratable.sol';\nimport \"../scruminvest/project.sol\";\n\n\n\ncontract KYC is project {\n\n    //==============================================================================\n    //Modification and access right------------------------------------------------\n\n    address External_Storage_addr;\n\n    KYC_interface private _KYC;\n    uint256 KYC_threshold = 2 ether;\n    address Project_Addr;\n\n    function kyc () public onlyAdmins {\n        _KYC = new basic_KYC ();\n        ExternalStorage ES = ExternalStorage(External_Storage_addr);\n        ES.setAddressValue(\"KYC/KYC\", address(this));\n\n    }\n    function load_conditions_ES () public onlyAdmins { //when something changes\n        ExternalStorage ES = ExternalStorage(External_Storage_addr);\n        Project_Addr = ES.getAddressValue(\"scruminvest/project\");\n       //\n    }\n    function  allowed_invest (address _investor_address, bytes32 currency) public returns (uint256)\n\n    {\n        uint256 avaiableinvest = _KYC.InvestorCheck( _investor_address,  currency);\n        return avaiableinvest ;\n\n\n\n\n    }\n\n\n    function add_KYC( address _investor_address, bytes32 currency, uint256 add_approved_sum) onlyAdmins public\n    {\n\n            _KYC.add_KYC(_investor_address,  currency, add_approved_sum);\n\n\n\n    }\n\n      function register_invest(address _investor_address, bytes32 currency, uint256 add_invested_sum) public\n      {\n        _KYC.register_invest(_investor_address,  currency,  add_invested_sum) ;\n\n      }\n\n       function _initExternalStorage(address Externalstorageaddr) public onlyAdmins {\n\n        External_Storage_addr = Externalstorageaddr;\n        ExternalStorage ES = ExternalStorage(External_Storage_addr);\n        ES.setAddressValue(\"KYC/KYC\", address(this));\n        Project_Addr = ES.getAddressValue(\"scruminvest/project\");\n\n\n    }\n}\n",
  "sourcePath": "/home/sergey/Documents/angels/Angeles.VC-token-scrum-investing/contracts/KYC/KYC.sol",
  "compiler": {
    "name": "solc",
    "version": "0.5.0+commit.1d4f565a.Emscripten.clang"
  },
  "schemaVersion": "3.0.2",
  "updatedAt": "2019-03-26T11:37:43.444Z",
  "devdoc": {
    "methods": {
      "ownable(address)": {
        "details": "The constructor sets the original owner of the contract to the sender account."
      },
      "owner()": {
        "details": "Tells the address of the owner",
        "return": "the address of the owner"
      },
      "transferOwnership(address)": {
        "details": "Allows the current owner to transfer control of the contract to a newOwner.",
        "params": {
          "newOwner": "The address to transfer ownership to."
        }
      }
    }
  },
  "userdoc": {
    "methods": {}
  }
}