{
  "contractName": "KYC",
  "abi": [
    {
      "constant": true,
      "inputs": [
        {
          "name": "",
          "type": "bytes32"
        }
      ],
      "name": "primaryLedgerCount",
      "outputs": [
        {
          "name": "",
          "type": "uint256"
        }
      ],
      "payable": false,
      "stateMutability": "view",
      "type": "function"
    },
    {
      "constant": false,
      "inputs": [
        {
          "name": "record",
          "type": "string"
        },
        {
          "name": "value",
          "type": "uint256"
        }
      ],
      "name": "setUIntValue",
      "outputs": [],
      "payable": false,
      "stateMutability": "nonpayable",
      "type": "function"
    },
    {
      "constant": false,
      "inputs": [
        {
          "name": "_investor_address",
          "type": "address"
        },
        {
          "name": "currency",
          "type": "bytes32"
        }
      ],
      "name": "investorGet",
      "outputs": [],
      "payable": false,
      "stateMutability": "nonpayable",
      "type": "function"
    },
    {
      "constant": true,
      "inputs": [],
      "name": "totalAdminsMapping",
      "outputs": [
        {
          "name": "",
          "type": "uint256"
        }
      ],
      "payable": false,
      "stateMutability": "view",
      "type": "function"
    },
    {
      "constant": true,
      "inputs": [
        {
          "name": "",
          "type": "bytes32"
        },
        {
          "name": "",
          "type": "uint256"
        }
      ],
      "name": "primaryLedgerEntryForIndex",
      "outputs": [
        {
          "name": "",
          "type": "address"
        }
      ],
      "payable": false,
      "stateMutability": "view",
      "type": "function"
    },
    {
      "constant": true,
      "inputs": [
        {
          "name": "record",
          "type": "string"
        },
        {
          "name": "primaryAddress",
          "type": "address"
        },
        {
          "name": "secondaryAddress",
          "type": "address"
        }
      ],
      "name": "getMultiLedgerValue",
      "outputs": [
        {
          "name": "",
          "type": "uint256"
        }
      ],
      "payable": false,
      "stateMutability": "view",
      "type": "function"
    },
    {
      "constant": false,
      "inputs": [
        {
          "name": "record",
          "type": "string"
        },
        {
          "name": "_address",
          "type": "address"
        },
        {
          "name": "value",
          "type": "uint256"
        }
      ],
      "name": "setLedgerValue",
      "outputs": [],
      "payable": false,
      "stateMutability": "nonpayable",
      "type": "function"
    },
    {
      "constant": false,
      "inputs": [
        {
          "name": "record",
          "type": "string"
        },
        {
          "name": "value",
          "type": "bytes32"
        }
      ],
      "name": "setBytes32Value",
      "outputs": [],
      "payable": false,
      "stateMutability": "nonpayable",
      "type": "function"
    },
    {
      "constant": false,
      "inputs": [
        {
          "name": "admin",
          "type": "address"
        }
      ],
      "name": "removeAdmin",
      "outputs": [],
      "payable": false,
      "stateMutability": "nonpayable",
      "type": "function"
    },
    {
      "constant": true,
      "inputs": [
        {
          "name": "",
          "type": "bytes32"
        },
        {
          "name": "",
          "type": "address"
        },
        {
          "name": "",
          "type": "uint256"
        }
      ],
      "name": "secondaryLedgerEntryForIndex",
      "outputs": [
        {
          "name": "",
          "type": "address"
        }
      ],
      "payable": false,
      "stateMutability": "view",
      "type": "function"
    },
    {
      "constant": false,
      "inputs": [
        {
          "name": "record",
          "type": "string"
        },
        {
          "name": "primaryAddress",
          "type": "address"
        },
        {
          "name": "secondaryAddress",
          "type": "address"
        },
        {
          "name": "value",
          "type": "uint256"
        }
      ],
      "name": "setMultiLedgerValue",
      "outputs": [],
      "payable": false,
      "stateMutability": "nonpayable",
      "type": "function"
    },
    {
      "constant": false,
      "inputs": [
        {
          "name": "Projecttokenaddr",
          "type": "address"
        }
      ],
      "name": "finish_project",
      "outputs": [],
      "payable": false,
      "stateMutability": "nonpayable",
      "type": "function"
    },
    {
      "constant": true,
      "inputs": [
        {
          "name": "",
          "type": "uint256"
        }
      ],
      "name": "adminsForIndex",
      "outputs": [
        {
          "name": "",
          "type": "address"
        }
      ],
      "payable": false,
      "stateMutability": "view",
      "type": "function"
    },
    {
      "constant": false,
      "inputs": [
        {
          "name": "record",
          "type": "string"
        },
        {
          "name": "value",
          "type": "bool"
        }
      ],
      "name": "setBooleanValue",
      "outputs": [],
      "payable": false,
      "stateMutability": "nonpayable",
      "type": "function"
    },
    {
      "constant": false,
      "inputs": [
        {
          "name": "Project_token_addr",
          "type": "address"
        }
      ],
      "name": "checkrights",
      "outputs": [
        {
          "name": "",
          "type": "uint256"
        }
      ],
      "payable": false,
      "stateMutability": "nonpayable",
      "type": "function"
    },
    {
      "constant": false,
      "inputs": [
        {
          "name": "record",
          "type": "string"
        },
        {
          "name": "value",
          "type": "address"
        }
      ],
      "name": "setAddressValue",
      "outputs": [],
      "payable": false,
      "stateMutability": "nonpayable",
      "type": "function"
    },
    {
      "constant": true,
      "inputs": [
        {
          "name": "",
          "type": "address"
        }
      ],
      "name": "admins",
      "outputs": [
        {
          "name": "",
          "type": "bool"
        }
      ],
      "payable": false,
      "stateMutability": "view",
      "type": "function"
    },
    {
      "constant": true,
      "inputs": [
        {
          "name": "",
          "type": "bytes32"
        },
        {
          "name": "",
          "type": "address"
        },
        {
          "name": "",
          "type": "address"
        }
      ],
      "name": "ledgerSecondaryEntries",
      "outputs": [
        {
          "name": "",
          "type": "bool"
        }
      ],
      "payable": false,
      "stateMutability": "view",
      "type": "function"
    },
    {
      "constant": false,
      "inputs": [
        {
          "name": "admin",
          "type": "address"
        }
      ],
      "name": "removeSuperAdmin",
      "outputs": [],
      "payable": false,
      "stateMutability": "nonpayable",
      "type": "function"
    },
    {
      "constant": true,
      "inputs": [
        {
          "name": "record",
          "type": "string"
        }
      ],
      "name": "getUIntValue",
      "outputs": [
        {
          "name": "",
          "type": "uint256"
        }
      ],
      "payable": false,
      "stateMutability": "view",
      "type": "function"
    },
    {
      "constant": true,
      "inputs": [
        {
          "name": "record",
          "type": "string"
        }
      ],
      "name": "getLedgerCount",
      "outputs": [
        {
          "name": "",
          "type": "uint256"
        }
      ],
      "payable": false,
      "stateMutability": "view",
      "type": "function"
    },
    {
      "constant": false,
      "inputs": [
        {
          "name": "newowner",
          "type": "address"
        }
      ],
      "name": "ownable",
      "outputs": [],
      "payable": false,
      "stateMutability": "nonpayable",
      "type": "function"
    },
    {
      "constant": true,
      "inputs": [
        {
          "name": "record",
          "type": "string"
        }
      ],
      "name": "getBytesValue",
      "outputs": [
        {
          "name": "",
          "type": "bytes"
        }
      ],
      "payable": false,
      "stateMutability": "view",
      "type": "function"
    },
    {
      "constant": false,
      "inputs": [
        {
          "name": "admin",
          "type": "address"
        }
      ],
      "name": "addAdmin",
      "outputs": [],
      "payable": false,
      "stateMutability": "nonpayable",
      "type": "function"
    },
    {
      "constant": true,
      "inputs": [
        {
          "name": "",
          "type": "bytes32"
        },
        {
          "name": "",
          "type": "address"
        }
      ],
      "name": "secondaryLedgerCount",
      "outputs": [
        {
          "name": "",
          "type": "uint256"
        }
      ],
      "payable": false,
      "stateMutability": "view",
      "type": "function"
    },
    {
      "constant": false,
      "inputs": [
        {
          "name": "Projecttokenaddr",
          "type": "address"
        },
        {
          "name": "DFSchangesaddr",
          "type": "bytes32"
        },
        {
          "name": "DFSchangeshash",
          "type": "bytes32"
        },
        {
          "name": "POA_addr",
          "type": "bytes32"
        }
      ],
      "name": "project_add_state",
      "outputs": [
        {
          "name": "",
          "type": "uint256"
        }
      ],
      "payable": false,
      "stateMutability": "nonpayable",
      "type": "function"
    },
    {
      "constant": true,
      "inputs": [
        {
          "name": "record",
          "type": "string"
        }
      ],
      "name": "getBytes32Value",
      "outputs": [
        {
          "name": "",
          "type": "bytes32"
        }
      ],
      "payable": false,
      "stateMutability": "view",
      "type": "function"
    },
    {
      "constant": true,
      "inputs": [
        {
          "name": "",
          "type": "bytes32"
        },
        {
          "name": "",
          "type": "address"
        }
      ],
      "name": "booleanMapAccounts",
      "outputs": [
        {
          "name": "",
          "type": "bool"
        }
      ],
      "payable": false,
      "stateMutability": "view",
      "type": "function"
    },
    {
      "constant": true,
      "inputs": [
        {
          "name": "",
          "type": "bytes32"
        }
      ],
      "name": "booleanMapCount",
      "outputs": [
        {
          "name": "",
          "type": "uint256"
        }
      ],
      "payable": false,
      "stateMutability": "view",
      "type": "function"
    },
    {
      "constant": true,
      "inputs": [
        {
          "name": "",
          "type": "bytes32"
        },
        {
          "name": "",
          "type": "address"
        }
      ],
      "name": "ledgerPrimaryEntries",
      "outputs": [
        {
          "name": "",
          "type": "bool"
        }
      ],
      "payable": false,
      "stateMutability": "view",
      "type": "function"
    },
    {
      "constant": true,
      "inputs": [
        {
          "name": "record",
          "type": "string"
        }
      ],
      "name": "getIntValue",
      "outputs": [
        {
          "name": "",
          "type": "int256"
        }
      ],
      "payable": false,
      "stateMutability": "view",
      "type": "function"
    },
    {
      "constant": true,
      "inputs": [],
      "name": "owner",
      "outputs": [
        {
          "name": "",
          "type": "address"
        }
      ],
      "payable": false,
      "stateMutability": "view",
      "type": "function"
    },
    {
      "constant": true,
      "inputs": [
        {
          "name": "record",
          "type": "string"
        }
      ],
      "name": "getBooleanValue",
      "outputs": [
        {
          "name": "",
          "type": "bool"
        }
      ],
      "payable": false,
      "stateMutability": "view",
      "type": "function"
    },
    {
      "constant": false,
      "inputs": [
        {
          "name": "record",
          "type": "string"
        },
        {
          "name": "_address",
          "type": "address"
        },
        {
          "name": "value",
          "type": "bool"
        }
      ],
      "name": "setBooleanMapValue",
      "outputs": [],
      "payable": false,
      "stateMutability": "nonpayable",
      "type": "function"
    },
    {
      "constant": true,
      "inputs": [
        {
          "name": "record",
          "type": "string"
        },
        {
          "name": "_address",
          "type": "address"
        }
      ],
      "name": "getLedgerValue",
      "outputs": [
        {
          "name": "",
          "type": "uint256"
        }
      ],
      "payable": false,
      "stateMutability": "view",
      "type": "function"
    },
    {
      "constant": false,
      "inputs": [
        {
          "name": "record",
          "type": "string"
        },
        {
          "name": "value",
          "type": "int256"
        }
      ],
      "name": "setIntValue",
      "outputs": [],
      "payable": false,
      "stateMutability": "nonpayable",
      "type": "function"
    },
    {
      "constant": true,
      "inputs": [],
      "name": "totalSuperAdminsMapping",
      "outputs": [
        {
          "name": "",
          "type": "uint256"
        }
      ],
      "payable": false,
      "stateMutability": "view",
      "type": "function"
    },
    {
      "constant": true,
      "inputs": [
        {
          "name": "",
          "type": "address"
        }
      ],
      "name": "superAdmins",
      "outputs": [
        {
          "name": "",
          "type": "bool"
        }
      ],
      "payable": false,
      "stateMutability": "view",
      "type": "function"
    },
    {
      "constant": true,
      "inputs": [
        {
          "name": "",
          "type": "address"
        },
        {
          "name": "",
          "type": "address"
        }
      ],
      "name": "_investors",
      "outputs": [
        {
          "name": "approved_sum",
          "type": "uint256"
        },
        {
          "name": "invested_sum",
          "type": "uint256"
        }
      ],
      "payable": false,
      "stateMutability": "view",
      "type": "function"
    },
    {
      "constant": false,
      "inputs": [
        {
          "name": "Projecttokenaddr",
          "type": "address"
        },
        {
          "name": "grade",
          "type": "uint256"
        },
        {
          "name": "floorsum",
          "type": "uint256"
        }
      ],
      "name": "setrights",
      "outputs": [],
      "payable": false,
      "stateMutability": "nonpayable",
      "type": "function"
    },
    {
      "constant": false,
      "inputs": [
        {
          "name": "admin",
          "type": "address"
        }
      ],
      "name": "addSuperAdmin",
      "outputs": [],
      "payable": false,
      "stateMutability": "nonpayable",
      "type": "function"
    },
    {
      "constant": false,
      "inputs": [
        {
          "name": "record",
          "type": "string"
        },
        {
          "name": "value",
          "type": "bytes"
        }
      ],
      "name": "setBytesValue",
      "outputs": [],
      "payable": false,
      "stateMutability": "nonpayable",
      "type": "function"
    },
    {
      "constant": false,
      "inputs": [
        {
          "name": "Projecttokenaddr",
          "type": "address"
        },
        {
          "name": "DFSProjectdescribe",
          "type": "bytes32"
        },
        {
          "name": "DFStype",
          "type": "bytes4"
        }
      ],
      "name": "create_project",
      "outputs": [],
      "payable": false,
      "stateMutability": "nonpayable",
      "type": "function"
    },
    {
      "constant": true,
      "inputs": [
        {
          "name": "",
          "type": "bytes32"
        },
        {
          "name": "",
          "type": "uint256"
        }
      ],
      "name": "ledgerEntryForIndex",
      "outputs": [
        {
          "name": "",
          "type": "address"
        }
      ],
      "payable": false,
      "stateMutability": "view",
      "type": "function"
    },
    {
      "constant": true,
      "inputs": [
        {
          "name": "",
          "type": "bytes32"
        },
        {
          "name": "",
          "type": "uint256"
        }
      ],
      "name": "booleanMapEntryForIndex",
      "outputs": [
        {
          "name": "",
          "type": "address"
        }
      ],
      "payable": false,
      "stateMutability": "view",
      "type": "function"
    },
    {
      "constant": true,
      "inputs": [
        {
          "name": "",
          "type": "uint256"
        }
      ],
      "name": "superAdminsForIndex",
      "outputs": [
        {
          "name": "",
          "type": "address"
        }
      ],
      "payable": false,
      "stateMutability": "view",
      "type": "function"
    },
    {
      "constant": true,
      "inputs": [
        {
          "name": "",
          "type": "uint256"
        }
      ],
      "name": "ProjectList",
      "outputs": [
        {
          "name": "",
          "type": "address"
        }
      ],
      "payable": false,
      "stateMutability": "view",
      "type": "function"
    },
    {
      "constant": true,
      "inputs": [
        {
          "name": "",
          "type": "address"
        }
      ],
      "name": "Projects",
      "outputs": [
        {
          "name": "project_ID",
          "type": "uint256"
        },
        {
          "name": "project_owner_address",
          "type": "address"
        },
        {
          "name": "_DARF_system_address",
          "type": "address"
        },
        {
          "name": "DFS_Project_describe",
          "type": "bytes32"
        },
        {
          "name": "DFS_type",
          "type": "bytes4"
        }
      ],
      "payable": false,
      "stateMutability": "view",
      "type": "function"
    },
    {
      "constant": false,
      "inputs": [
        {
          "name": "Projecttokenaddr",
          "type": "address"
        },
        {
          "name": "owner",
          "type": "address"
        },
        {
          "name": "DFSProjectdescribe",
          "type": "bytes32"
        },
        {
          "name": "DFStype",
          "type": "bytes4"
        }
      ],
      "name": "change_project_info",
      "outputs": [],
      "payable": false,
      "stateMutability": "nonpayable",
      "type": "function"
    },
    {
      "constant": true,
      "inputs": [
        {
          "name": "",
          "type": "bytes32"
        }
      ],
      "name": "ledgerCount",
      "outputs": [
        {
          "name": "",
          "type": "uint256"
        }
      ],
      "payable": false,
      "stateMutability": "view",
      "type": "function"
    },
    {
      "constant": true,
      "inputs": [
        {
          "name": "record",
          "type": "string"
        },
        {
          "name": "_address",
          "type": "address"
        }
      ],
      "name": "getBooleanMapValue",
      "outputs": [
        {
          "name": "",
          "type": "bool"
        }
      ],
      "payable": false,
      "stateMutability": "view",
      "type": "function"
    },
    {
      "constant": false,
      "inputs": [
        {
          "name": "Projecttokenaddr",
          "type": "address"
        },
        {
          "name": "timestamp",
          "type": "uint256"
        }
      ],
      "name": "project_get_state",
      "outputs": [
        {
          "name": "",
          "type": "bytes32"
        }
      ],
      "payable": false,
      "stateMutability": "nonpayable",
      "type": "function"
    },
    {
      "constant": true,
      "inputs": [
        {
          "name": "record",
          "type": "string"
        }
      ],
      "name": "getBooleanMapCount",
      "outputs": [
        {
          "name": "",
          "type": "uint256"
        }
      ],
      "payable": false,
      "stateMutability": "view",
      "type": "function"
    },
    {
      "constant": true,
      "inputs": [
        {
          "name": "",
          "type": "bytes32"
        },
        {
          "name": "",
          "type": "address"
        }
      ],
      "name": "ledgerAccounts",
      "outputs": [
        {
          "name": "",
          "type": "bool"
        }
      ],
      "payable": false,
      "stateMutability": "view",
      "type": "function"
    },
    {
      "constant": false,
      "inputs": [
        {
          "name": "newOwner",
          "type": "address"
        }
      ],
      "name": "transferOwnership",
      "outputs": [],
      "payable": false,
      "stateMutability": "nonpayable",
      "type": "function"
    },
    {
      "constant": true,
      "inputs": [
        {
          "name": "record",
          "type": "string"
        }
      ],
      "name": "getAddressValue",
      "outputs": [
        {
          "name": "",
          "type": "address"
        }
      ],
      "payable": false,
      "stateMutability": "view",
      "type": "function"
    },
    {
      "anonymous": false,
      "inputs": [
        {
          "indexed": false,
          "name": "owner_address",
          "type": "address"
        },
        {
          "indexed": false,
          "name": "Projecttokenaddr",
          "type": "address"
        },
        {
          "indexed": false,
          "name": "DFSProjectdescribe",
          "type": "bytes32"
        },
        {
          "indexed": false,
          "name": "_DARFsystemaddress",
          "type": "address"
        }
      ],
      "name": "New_project",
      "type": "event"
    },
    {
      "anonymous": false,
      "inputs": [
        {
          "indexed": false,
          "name": "Projecttokenaddr",
          "type": "address"
        }
      ],
      "name": "finished_project",
      "type": "event"
    },
    {
      "anonymous": false,
      "inputs": [
        {
          "indexed": true,
          "name": "admin",
          "type": "address"
        }
      ],
      "name": "AddAdmin",
      "type": "event"
    },
    {
      "anonymous": false,
      "inputs": [
        {
          "indexed": true,
          "name": "admin",
          "type": "address"
        }
      ],
      "name": "RemoveAdmin",
      "type": "event"
    },
    {
      "anonymous": false,
      "inputs": [
        {
          "indexed": true,
          "name": "admin",
          "type": "address"
        }
      ],
      "name": "AddSuperAdmin",
      "type": "event"
    },
    {
      "anonymous": false,
      "inputs": [
        {
          "indexed": true,
          "name": "admin",
          "type": "address"
        }
      ],
      "name": "RemoveSuperAdmin",
      "type": "event"
    },
    {
      "anonymous": false,
      "inputs": [
        {
          "indexed": false,
          "name": "previousOwner",
          "type": "address"
        },
        {
          "indexed": false,
          "name": "newOwner",
          "type": "address"
        }
      ],
      "name": "OwnershipTransferred",
      "type": "event"
    },
    {
      "constant": false,
      "inputs": [],
      "name": "kyc",
      "outputs": [],
      "payable": false,
      "stateMutability": "nonpayable",
      "type": "function"
    },
    {
      "constant": false,
      "inputs": [],
      "name": "load_conditions_ES",
      "outputs": [],
      "payable": false,
      "stateMutability": "nonpayable",
      "type": "function"
    },
    {
      "constant": false,
      "inputs": [
        {
          "name": "_investor_address",
          "type": "address"
        },
        {
          "name": "currency",
          "type": "bytes32"
        }
      ],
      "name": "allowed_invest",
      "outputs": [
        {
          "name": "",
          "type": "uint256"
        }
      ],
      "payable": false,
      "stateMutability": "nonpayable",
      "type": "function"
    },
    {
      "constant": false,
      "inputs": [
        {
          "name": "_investor_address",
          "type": "address"
        },
        {
          "name": "currency",
          "type": "bytes32"
        },
        {
          "name": "add_approved_sum",
          "type": "uint256"
        }
      ],
      "name": "add_KYC",
      "outputs": [],
      "payable": false,
      "stateMutability": "nonpayable",
      "type": "function"
    },
    {
      "constant": false,
      "inputs": [
        {
          "name": "_investor_address",
          "type": "address"
        },
        {
          "name": "currency",
          "type": "bytes32"
        },
        {
          "name": "add_invested_sum",
          "type": "uint256"
        }
      ],
      "name": "register_invest",
      "outputs": [],
      "payable": false,
      "stateMutability": "nonpayable",
      "type": "function"
    },
    {
      "constant": false,
      "inputs": [
        {
          "name": "Externalstorageaddr",
          "type": "address"
        }
      ],
      "name": "_initExternalStorage",
      "outputs": [],
      "payable": false,
      "stateMutability": "nonpayable",
      "type": "function"
    }
  ],
  "bytecode": "0x6080604052671bc16d674ec8000060265534801561001c57600080fd5b50618717806200002d6000396000f3fe6080604052600436106102e0576000357c0100000000000000000000000000000000000000000000000000000000900463ffffffff1680630305357e146102e557806303d7593714610334578063043baa03146104065780630489882e14610461578063059f9ebf1461048c578063088787a3146105115780630cb1a3a91461062d57806310278bc81461071f5780631785f53c146107f1578063199759db146108425780631f69d230146108e757806321f622be146109f9578063313f2a2114610a4a5780633d8f89d714610ac55780633fe1471314610b99578063413c6d1314610bfe578063429b62e514610ce65780634463d9ec14610d4f5780634902e4aa14610de25780634e6091f314610e335780634f16124514610e985780634f6acaa114610f7457806364a04b5914611050578063663e91f2146110a15780636ae923c8146111105780636e22d33e1461117557806370480275146112b6578063740ca23c1461130757806375fa9ece146113765780637ec13996146113f95780637ffcd79f146114d557806383e835e0146115485780638552527714611597578063877c21841461160a5780638da5cb5b146116e65780638de216501461173d57806390d6b45f1461181d578063929268b8146118345780639df152dc14611928578063a90cf6f41461193f578063abd6ff8e14611a3b578063abf7b06314611b0d578063ad25cb4214611b38578063ad53061914611ba1578063b1ec4c8814611c2d578063b3292ff014611c92578063bf3c112014611ce3578063bfaa3ebc14611e42578063c04dc73b14611ec6578063c0b3ac9314611f4b578063c389439814611fd0578063c5ca32131461204b578063c8bc0407146120c6578063cc46e7ca14612117578063d2716f031461222e578063d3f742dc146122d2578063e671fab514612321578063e815cae614612421578063e89bc86b14612490578063e8d39d071461256c578063f2fde38b146125df578063fd25568314612630575b600080fd5b3480156102f157600080fd5b5061031e6004803603602081101561030857600080fd5b8101908080359060200190929190505050612738565b6040518082815260200191505060405180910390f35b34801561034057600080fd5b506104046004803603604081101561035757600080fd5b810190808035906020019064010000000081111561037457600080fd5b82018360208201111561038657600080fd5b803590602001918460018302840111640100000000831117156103a857600080fd5b91908080601f016020809104026020016040519081016040528093929190818152602001838380828437600081840152601f19601f82011690508083019250505050505050919291929080359060200190929190505050612750565b005b34801561041257600080fd5b5061045f6004803603604081101561042957600080fd5b81019080803573ffffffffffffffffffffffffffffffffffffffff169060200190929190803590602001909291905050506128e4565b005b34801561046d57600080fd5b506104766128e8565b6040518082815260200191505060405180910390f35b34801561049857600080fd5b506104cf600480360360408110156104af57600080fd5b8101908080359060200190929190803590602001909291905050506128ee565b604051808273ffffffffffffffffffffffffffffffffffffffff1673ffffffffffffffffffffffffffffffffffffffff16815260200191505060405180910390f35b34801561051d57600080fd5b506106176004803603606081101561053457600080fd5b810190808035906020019064010000000081111561055157600080fd5b82018360208201111561056357600080fd5b8035906020019184600183028401116401000000008311171561058557600080fd5b91908080601f016020809104026020016040519081016040528093929190818152602001838380828437600081840152601f19601f820116905080830192505050505050509192919290803573ffffffffffffffffffffffffffffffffffffffff169060200190929190803573ffffffffffffffffffffffffffffffffffffffff169060200190929190505050612930565b6040518082815260200191505060405180910390f35b34801561063957600080fd5b5061071d6004803603606081101561065057600080fd5b810190808035906020019064010000000081111561066d57600080fd5b82018360208201111561067f57600080fd5b803590602001918460018302840111640100000000831117156106a157600080fd5b91908080601f016020809104026020016040519081016040528093929190818152602001838380828437600081840152601f19601f820116905080830192505050505050509192919290803573ffffffffffffffffffffffffffffffffffffffff16906020019092919080359060200190929190505050612a54565b005b34801561072b57600080fd5b506107ef6004803603604081101561074257600080fd5b810190808035906020019064010000000081111561075f57600080fd5b82018360208201111561077157600080fd5b8035906020019184600183028401116401000000008311171561079357600080fd5b91908080601f016020809104026020016040519081016040528093929190818152602001838380828437600081840152601f19601f82011690508083019250505050505050919291929080359060200190929190505050612da1565b005b3480156107fd57600080fd5b506108406004803603602081101561081457600080fd5b81019080803573ffffffffffffffffffffffffffffffffffffffff169060200190929190505050612f35565b005b34801561084e57600080fd5b506108a56004803603606081101561086557600080fd5b8101908080359060200190929190803573ffffffffffffffffffffffffffffffffffffffff1690602001909291908035906020019092919050505061306a565b604051808273ffffffffffffffffffffffffffffffffffffffff1673ffffffffffffffffffffffffffffffffffffffff16815260200191505060405180910390f35b3480156108f357600080fd5b506109f76004803603608081101561090a57600080fd5b810190808035906020019064010000000081111561092757600080fd5b82018360208201111561093957600080fd5b8035906020019184600183028401116401000000008311171561095b57600080fd5b91908080601f016020809104026020016040519081016040528093929190818152602001838380828437600081840152601f19601f820116905080830192505050505050509192919290803573ffffffffffffffffffffffffffffffffffffffff169060200190929190803573ffffffffffffffffffffffffffffffffffffffff169060200190929190803590602001909291905050506130b9565b005b348015610a0557600080fd5b50610a4860048036036020811015610a1c57600080fd5b81019080803573ffffffffffffffffffffffffffffffffffffffff1690602001909291905050506136ea565b005b348015610a5657600080fd5b50610a8360048036036020811015610a6d57600080fd5b8101908080359060200190929190505050613750565b604051808273ffffffffffffffffffffffffffffffffffffffff1673ffffffffffffffffffffffffffffffffffffffff16815260200191505060405180910390f35b348015610ad157600080fd5b50610b9760048036036040811015610ae857600080fd5b8101908080359060200190640100000000811115610b0557600080fd5b820183602082011115610b1757600080fd5b80359060200191846001830284011164010000000083111715610b3957600080fd5b91908080601f016020809104026020016040519081016040528093929190818152602001838380828437600081840152601f19601f820116905080830192505050505050509192919290803515159060200190929190505050613783565b005b348015610ba557600080fd5b50610be860048036036020811015610bbc57600080fd5b81019080803573ffffffffffffffffffffffffffffffffffffffff16906020019092919050505061392a565b6040518082815260200191505060405180910390f35b348015610c0a57600080fd5b50610ce460048036036040811015610c2157600080fd5b8101908080359060200190640100000000811115610c3e57600080fd5b820183602082011115610c5057600080fd5b80359060200191846001830284011164010000000083111715610c7257600080fd5b91908080601f016020809104026020016040519081016040528093929190818152602001838380828437600081840152601f19601f820116905080830192505050505050509192919290803573ffffffffffffffffffffffffffffffffffffffff169060200190929190505050613a8d565b005b348015610cf257600080fd5b50610d3560048036036020811015610d0957600080fd5b81019080803573ffffffffffffffffffffffffffffffffffffffff169060200190929190505050613c5b565b604051808215151515815260200191505060405180910390f35b348015610d5b57600080fd5b50610dc860048036036060811015610d7257600080fd5b8101908080359060200190929190803573ffffffffffffffffffffffffffffffffffffffff169060200190929190803573ffffffffffffffffffffffffffffffffffffffff169060200190929190505050613c7b565b604051808215151515815260200191505060405180910390f35b348015610dee57600080fd5b50610e3160048036036020811015610e0557600080fd5b81019080803573ffffffffffffffffffffffffffffffffffffffff169060200190929190505050613cb7565b005b348015610e3f57600080fd5b50610e9660048036036060811015610e5657600080fd5b81019080803573ffffffffffffffffffffffffffffffffffffffff1690602001909291908035906020019092919080359060200190929190505050613d96565b005b348015610ea457600080fd5b50610f5e60048036036020811015610ebb57600080fd5b8101908080359060200190640100000000811115610ed857600080fd5b820183602082011115610eea57600080fd5b80359060200191846001830284011164010000000083111715610f0c57600080fd5b91908080601f016020809104026020016040519081016040528093929190818152602001838380828437600081840152601f19601f820116905080830192505050505050509192919290505050613e80565b6040518082815260200191505060405180910390f35b348015610f8057600080fd5b5061103a60048036036020811015610f9757600080fd5b8101908080359060200190640100000000811115610fb457600080fd5b820183602082011115610fc657600080fd5b80359060200191846001830284011164010000000083111715610fe857600080fd5b91908080601f016020809104026020016040519081016040528093929190818152602001838380828437600081840152601f19601f820116905080830192505050505050509192919290505050613f28565b6040518082815260200191505060405180910390f35b34801561105c57600080fd5b5061109f6004803603602081101561107357600080fd5b81019080803573ffffffffffffffffffffffffffffffffffffffff169060200190929190505050613fd0565b005b3480156110ad57600080fd5b506110fa600480360360408110156110c457600080fd5b81019080803573ffffffffffffffffffffffffffffffffffffffff1690602001909291908035906020019092919050505061401d565b6040518082815260200191505060405180910390f35b34801561111c57600080fd5b506111736004803603606081101561113357600080fd5b81019080803573ffffffffffffffffffffffffffffffffffffffff169060200190929190803590602001909291908035906020019092919050505061412c565b005b34801561118157600080fd5b5061123b6004803603602081101561119857600080fd5b81019080803590602001906401000000008111156111b557600080fd5b8201836020820111156111c757600080fd5b803590602001918460018302840111640100000000831117156111e957600080fd5b91908080601f016020809104026020016040519081016040528093929190818152602001838380828437600081840152601f19601f820116905080830192505050505050509192919290505050614303565b6040518080602001828103825283818151815260200191508051906020019080838360005b8381101561127b578082015181840152602081019050611260565b50505050905090810190601f1680156112a85780820380516001836020036101000a031916815260200191505b509250505060405180910390f35b3480156112c257600080fd5b50611305600480360360208110156112d957600080fd5b81019080803573ffffffffffffffffffffffffffffffffffffffff169060200190929190505050614443565b005b34801561131357600080fd5b506113606004803603604081101561132a57600080fd5b8101908080359060200190929190803573ffffffffffffffffffffffffffffffffffffffff169060200190929190505050614693565b6040518082815260200191505060405180910390f35b34801561138257600080fd5b506113e36004803603608081101561139957600080fd5b81019080803573ffffffffffffffffffffffffffffffffffffffff1690602001909291908035906020019092919080359060200190929190803590602001909291905050506146b8565b6040518082815260200191505060405180910390f35b34801561140557600080fd5b506114bf6004803603602081101561141c57600080fd5b810190808035906020019064010000000081111561143957600080fd5b82018360208201111561144b57600080fd5b8035906020019184600183028401116401000000008311171561146d57600080fd5b91908080601f016020809104026020016040519081016040528093929190818152602001838380828437600081840152601f19601f82011690508083019250505050505050919291929050505061489f565b6040518082815260200191505060405180910390f35b3480156114e157600080fd5b5061152e600480360360408110156114f857600080fd5b8101908080359060200190929190803573ffffffffffffffffffffffffffffffffffffffff169060200190929190505050614947565b604051808215151515815260200191505060405180910390f35b34801561155457600080fd5b506115816004803603602081101561156b57600080fd5b8101908080359060200190929190505050614976565b6040518082815260200191505060405180910390f35b3480156115a357600080fd5b506115f0600480360360408110156115ba57600080fd5b8101908080359060200190929190803573ffffffffffffffffffffffffffffffffffffffff16906020019092919050505061498e565b604051808215151515815260200191505060405180910390f35b34801561161657600080fd5b506116d06004803603602081101561162d57600080fd5b810190808035906020019064010000000081111561164a57600080fd5b82018360208201111561165c57600080fd5b8035906020019184600183028401116401000000008311171561167e57600080fd5b91908080601f016020809104026020016040519081016040528093929190818152602001838380828437600081840152601f19601f8201169050808301925050505050505091929192905050506149bd565b6040518082815260200191505060405180910390f35b3480156116f257600080fd5b506116fb614a65565b604051808273ffffffffffffffffffffffffffffffffffffffff1673ffffffffffffffffffffffffffffffffffffffff16815260200191505060405180910390f35b34801561174957600080fd5b506118036004803603602081101561176057600080fd5b810190808035906020019064010000000081111561177d57600080fd5b82018360208201111561178f57600080fd5b803590602001918460018302840111640100000000831117156117b157600080fd5b91908080601f016020809104026020016040519081016040528093929190818152602001838380828437600081840152601f19601f820116905080830192505050505050509192919290505050614a8e565b604051808215151515815260200191505060405180910390f35b34801561182957600080fd5b50611832614b43565b005b34801561184057600080fd5b506119266004803603606081101561185757600080fd5b810190808035906020019064010000000081111561187457600080fd5b82018360208201111561188657600080fd5b803590602001918460018302840111640100000000831117156118a857600080fd5b91908080601f016020809104026020016040519081016040528093929190818152602001838380828437600081840152601f19601f820116905080830192505050505050509192919290803573ffffffffffffffffffffffffffffffffffffffff169060200190929190803515159060200190929190505050614dab565b005b34801561193457600080fd5b5061193d61510b565b005b34801561194b57600080fd5b50611a256004803603604081101561196257600080fd5b810190808035906020019064010000000081111561197f57600080fd5b82018360208201111561199157600080fd5b803590602001918460018302840111640100000000831117156119b357600080fd5b91908080601f016020809104026020016040519081016040528093929190818152602001838380828437600081840152601f19601f820116905080830192505050505050509192919290803573ffffffffffffffffffffffffffffffffffffffff16906020019092919050505061533b565b6040518082815260200191505060405180910390f35b348015611a4757600080fd5b50611b0b60048036036040811015611a5e57600080fd5b8101908080359060200190640100000000811115611a7b57600080fd5b820183602082011115611a8d57600080fd5b80359060200191846001830284011164010000000083111715611aaf57600080fd5b91908080601f016020809104026020016040519081016040528093929190818152602001838380828437600081840152601f19601f82011690508083019250505050505050919291929080359060200190929190505050615421565b005b348015611b1957600080fd5b50611b226155b5565b6040518082815260200191505060405180910390f35b348015611b4457600080fd5b50611b8760048036036020811015611b5b57600080fd5b81019080803573ffffffffffffffffffffffffffffffffffffffff1690602001909291905050506155bb565b604051808215151515815260200191505060405180910390f35b348015611bad57600080fd5b50611c1060048036036040811015611bc457600080fd5b81019080803573ffffffffffffffffffffffffffffffffffffffff169060200190929190803573ffffffffffffffffffffffffffffffffffffffff1690602001909291905050506155db565b604051808381526020018281526020019250505060405180910390f35b348015611c3957600080fd5b50611c9060048036036060811015611c5057600080fd5b81019080803573ffffffffffffffffffffffffffffffffffffffff169060200190929190803590602001909291908035906020019092919050505061560c565b005b348015611c9e57600080fd5b50611ce160048036036020811015611cb557600080fd5b81019080803573ffffffffffffffffffffffffffffffffffffffff169060200190929190505050615710565b005b348015611cef57600080fd5b50611e4060048036036040811015611d0657600080fd5b8101908080359060200190640100000000811115611d2357600080fd5b820183602082011115611d3557600080fd5b80359060200191846001830284011164010000000083111715611d5757600080fd5b91908080601f016020809104026020016040519081016040528093929190818152602001838380828437600081840152601f19601f82011690508083019250505050505050919291929080359060200190640100000000811115611dba57600080fd5b820183602082011115611dcc57600080fd5b80359060200191846001830284011164010000000083111715611dee57600080fd5b91908080601f016020809104026020016040519081016040528093929190818152602001838380828437600081840152601f19601f82011690508083019250505050505050919291929050505061590b565b005b348015611e4e57600080fd5b50611ec460048036036060811015611e6557600080fd5b81019080803573ffffffffffffffffffffffffffffffffffffffff1690602001909291908035906020019092919080357bffffffffffffffffffffffffffffffffffffffffffffffffffffffff19169060200190929190505050615aaf565b005b348015611ed257600080fd5b50611f0960048036036040811015611ee957600080fd5b81019080803590602001909291908035906020019092919050505061611a565b604051808273ffffffffffffffffffffffffffffffffffffffff1673ffffffffffffffffffffffffffffffffffffffff16815260200191505060405180910390f35b348015611f5757600080fd5b50611f8e60048036036040811015611f6e57600080fd5b81019080803590602001909291908035906020019092919050505061615c565b604051808273ffffffffffffffffffffffffffffffffffffffff1673ffffffffffffffffffffffffffffffffffffffff16815260200191505060405180910390f35b348015611fdc57600080fd5b5061200960048036036020811015611ff357600080fd5b810190808035906020019092919050505061619e565b604051808273ffffffffffffffffffffffffffffffffffffffff1673ffffffffffffffffffffffffffffffffffffffff16815260200191505060405180910390f35b34801561205757600080fd5b506120846004803603602081101561206e57600080fd5b81019080803590602001909291905050506161d1565b604051808273ffffffffffffffffffffffffffffffffffffffff1673ffffffffffffffffffffffffffffffffffffffff16815260200191505060405180910390f35b3480156120d257600080fd5b50612115600480360360208110156120e957600080fd5b81019080803573ffffffffffffffffffffffffffffffffffffffff16906020019092919050505061620f565b005b34801561212357600080fd5b506121666004803603602081101561213a57600080fd5b81019080803573ffffffffffffffffffffffffffffffffffffffff16906020019092919050505061656d565b604051808681526020018573ffffffffffffffffffffffffffffffffffffffff1673ffffffffffffffffffffffffffffffffffffffff1681526020018473ffffffffffffffffffffffffffffffffffffffff1673ffffffffffffffffffffffffffffffffffffffff168152602001838152602001827bffffffffffffffffffffffffffffffffffffffffffffffffffffffff19167bffffffffffffffffffffffffffffffffffffffffffffffffffffffff191681526020019550505050505060405180910390f35b34801561223a57600080fd5b506122d06004803603608081101561225157600080fd5b81019080803573ffffffffffffffffffffffffffffffffffffffff169060200190929190803573ffffffffffffffffffffffffffffffffffffffff1690602001909291908035906020019092919080357bffffffffffffffffffffffffffffffffffffffffffffffffffffffff1916906020019092919050505061660c565b005b3480156122de57600080fd5b5061230b600480360360208110156122f557600080fd5b81019080803590602001909291905050506167f3565b6040518082815260200191505060405180910390f35b34801561232d57600080fd5b506124076004803603604081101561234457600080fd5b810190808035906020019064010000000081111561236157600080fd5b82018360208201111561237357600080fd5b8035906020019184600183028401116401000000008311171561239557600080fd5b91908080601f016020809104026020016040519081016040528093929190818152602001838380828437600081840152601f19601f820116905080830192505050505050509192919290803573ffffffffffffffffffffffffffffffffffffffff16906020019092919050505061680b565b604051808215151515815260200191505060405180910390f35b34801561242d57600080fd5b5061247a6004803603604081101561244457600080fd5b81019080803573ffffffffffffffffffffffffffffffffffffffff169060200190929190803590602001909291905050506168fe565b6040518082815260200191505060405180910390f35b34801561249c57600080fd5b50612556600480360360208110156124b357600080fd5b81019080803590602001906401000000008111156124d057600080fd5b8201836020820111156124e257600080fd5b8035906020019184600183028401116401000000008311171561250457600080fd5b91908080601f016020809104026020016040519081016040528093929190818152602001838380828437600081840152601f19601f820116905080830192505050505050509192919290505050616a20565b6040518082815260200191505060405180910390f35b34801561257857600080fd5b506125c56004803603604081101561258f57600080fd5b8101908080359060200190929190803573ffffffffffffffffffffffffffffffffffffffff169060200190929190505050616ac8565b604051808215151515815260200191505060405180910390f35b3480156125eb57600080fd5b5061262e6004803603602081101561260257600080fd5b81019080803573ffffffffffffffffffffffffffffffffffffffff169060200190929190505050616af7565b005b34801561263c57600080fd5b506126f66004803603602081101561265357600080fd5b810190808035906020019064010000000081111561267057600080fd5b82018360208201111561268257600080fd5b803590602001918460018302840111640100000000831117156126a457600080fd5b91908080601f016020809104026020016040519081016040528093929190818152602001838380828437600081840152601f19601f820116905080830192505050505050509192919290505050616c1e565b604051808273ffffffffffffffffffffffffffffffffffffffff1673ffffffffffffffffffffffffffffffffffffffff16815260200191505060405180910390f35b600a6020528060005260406000206000915090505481565b612758614a65565b73ffffffffffffffffffffffffffffffffffffffff163373ffffffffffffffffffffffffffffffffffffffff16141580156127dd5750600660003373ffffffffffffffffffffffffffffffffffffffff1673ffffffffffffffffffffffffffffffffffffffff16815260200190815260200160002060009054906101000a900460ff16155b80156128335750600560003373ffffffffffffffffffffffffffffffffffffffff1673ffffffffffffffffffffffffffffffffffffffff16815260200190815260200160002060009054906101000a900460ff16155b1561283d57600080fd5b8060196000846040516020018080602001828103825283818151815260200191508051906020019080838360005b8381101561288657808201518184015260208101905061286b565b50505050905090810190601f1680156128b35780820380516001836020036101000a031916815260200191505b5092505050604051602081830303815290604052805190602001208152602001908152602001600020819055505050565b5050565b60015481565b600c6020528160005260406000206020528060005260406000206000915091509054906101000a900473ffffffffffffffffffffffffffffffffffffffff1681565b600060096000856040516020018080602001828103825283818151815260200191508051906020019080838360005b8381101561297a57808201518184015260208101905061295f565b50505050905090810190601f1680156129a75780820380516001836020036101000a031916815260200191505b509250505060405160208183030381529060405280519060200120815260200190815260200160002060008473ffffffffffffffffffffffffffffffffffffffff1673ffffffffffffffffffffffffffffffffffffffff16815260200190815260200160002060008373ffffffffffffffffffffffffffffffffffffffff1673ffffffffffffffffffffffffffffffffffffffff1681526020019081526020016000205490509392505050565b612a5c614a65565b73ffffffffffffffffffffffffffffffffffffffff163373ffffffffffffffffffffffffffffffffffffffff1614158015612ae15750600660003373ffffffffffffffffffffffffffffffffffffffff1673ffffffffffffffffffffffffffffffffffffffff16815260200190815260200160002060009054906101000a900460ff16155b8015612b375750600560003373ffffffffffffffffffffffffffffffffffffffff1673ffffffffffffffffffffffffffffffffffffffff16815260200190815260200160002060009054906101000a900460ff16155b15612b4157600080fd5b6000836040516020018080602001828103825283818151815260200191508051906020019080838360005b83811015612b87578082015181840152602081019050612b6c565b50505050905090810190601f168015612bb45780820380516001836020036101000a031916815260200191505b50925050506040516020818303038152906040528051906020012090506013600082815260200190815260200160002060008473ffffffffffffffffffffffffffffffffffffffff1673ffffffffffffffffffffffffffffffffffffffff16815260200190815260200160002060009054906101000a900460ff161515612d46576000601260008381526020019081526020016000205490508360146000848152602001908152602001600020600083815260200190815260200160002060006101000a81548173ffffffffffffffffffffffffffffffffffffffff021916908373ffffffffffffffffffffffffffffffffffffffff160217905550612cc4600182616ce690919063ffffffff16565b601260008481526020019081526020016000208190555060016013600084815260200190815260200160002060008673ffffffffffffffffffffffffffffffffffffffff1673ffffffffffffffffffffffffffffffffffffffff16815260200190815260200160002060006101000a81548160ff021916908315150217905550505b816011600083815260200190815260200160002060008573ffffffffffffffffffffffffffffffffffffffff1673ffffffffffffffffffffffffffffffffffffffff1681526020019081526020016000208190555050505050565b612da9614a65565b73ffffffffffffffffffffffffffffffffffffffff163373ffffffffffffffffffffffffffffffffffffffff1614158015612e2e5750600660003373ffffffffffffffffffffffffffffffffffffffff1673ffffffffffffffffffffffffffffffffffffffff16815260200190815260200160002060009054906101000a900460ff16155b8015612e845750600560003373ffffffffffffffffffffffffffffffffffffffff1673ffffffffffffffffffffffffffffffffffffffff16815260200190815260200160002060009054906101000a900460ff16155b15612e8e57600080fd5b80601a6000846040516020018080602001828103825283818151815260200191508051906020019080838360005b83811015612ed7578082015181840152602081019050612ebc565b50505050905090810190601f168015612f045780820380516001836020036101000a031916815260200191505b5092505050604051602081830303815290604052805190602001208152602001908152602001600020819055505050565b612f3d614a65565b73ffffffffffffffffffffffffffffffffffffffff163373ffffffffffffffffffffffffffffffffffffffff1614158015612fc25750600660003373ffffffffffffffffffffffffffffffffffffffff1673ffffffffffffffffffffffffffffffffffffffff16815260200190815260200160002060009054906101000a900460ff16155b15612fcc57600080fd5b6000600560008373ffffffffffffffffffffffffffffffffffffffff1673ffffffffffffffffffffffffffffffffffffffff16815260200190815260200160002060006101000a81548160ff0219169083151502179055508073ffffffffffffffffffffffffffffffffffffffff167f753f40ca3312b2408759a67875b367955e7baa221daf08aa3d643d96202ac12b60405160405180910390a250565b600f602052826000526040600020602052816000526040600020602052806000526040600020600092509250509054906101000a900473ffffffffffffffffffffffffffffffffffffffff1681565b6130c1614a65565b73ffffffffffffffffffffffffffffffffffffffff163373ffffffffffffffffffffffffffffffffffffffff16141580156131465750600660003373ffffffffffffffffffffffffffffffffffffffff1673ffffffffffffffffffffffffffffffffffffffff16815260200190815260200160002060009054906101000a900460ff16155b801561319c5750600560003373ffffffffffffffffffffffffffffffffffffffff1673ffffffffffffffffffffffffffffffffffffffff16815260200190815260200160002060009054906101000a900460ff16155b156131a657600080fd5b6000846040516020018080602001828103825283818151815260200191508051906020019080838360005b838110156131ec5780820151818401526020810190506131d1565b50505050905090810190601f1680156132195780820380516001836020036101000a031916815260200191505b50925050506040516020818303038152906040528051906020012090506000600a60008381526020019081526020016000205490506000600d600084815260200190815260200160002060008773ffffffffffffffffffffffffffffffffffffffff1673ffffffffffffffffffffffffffffffffffffffff168152602001908152602001600020549050600e600084815260200190815260200160002060008773ffffffffffffffffffffffffffffffffffffffff1673ffffffffffffffffffffffffffffffffffffffff16815260200190815260200160002060008673ffffffffffffffffffffffffffffffffffffffff1673ffffffffffffffffffffffffffffffffffffffff16815260200190815260200160002060009054906101000a900460ff16151561364f5784600f600085815260200190815260200160002060008873ffffffffffffffffffffffffffffffffffffffff1673ffffffffffffffffffffffffffffffffffffffff168152602001908152602001600020600083815260200190815260200160002060006101000a81548173ffffffffffffffffffffffffffffffffffffffff021916908373ffffffffffffffffffffffffffffffffffffffff1602179055506133f8600182616ce690919063ffffffff16565b600d600085815260200190815260200160002060008873ffffffffffffffffffffffffffffffffffffffff1673ffffffffffffffffffffffffffffffffffffffff168152602001908152602001600020819055506001600e600085815260200190815260200160002060008873ffffffffffffffffffffffffffffffffffffffff1673ffffffffffffffffffffffffffffffffffffffff16815260200190815260200160002060008773ffffffffffffffffffffffffffffffffffffffff1673ffffffffffffffffffffffffffffffffffffffff16815260200190815260200160002060006101000a81548160ff021916908315150217905550600b600084815260200190815260200160002060008773ffffffffffffffffffffffffffffffffffffffff1673ffffffffffffffffffffffffffffffffffffffff16815260200190815260200160002060009054906101000a900460ff16151561364e5785600c6000858152602001908152602001600020600084815260200190815260200160002060006101000a81548173ffffffffffffffffffffffffffffffffffffffff021916908373ffffffffffffffffffffffffffffffffffffffff1602179055506135cd600183616ce690919063ffffffff16565b600a6000858152602001908152602001600020819055506001600b600085815260200190815260200160002060008873ffffffffffffffffffffffffffffffffffffffff1673ffffffffffffffffffffffffffffffffffffffff16815260200190815260200160002060006101000a81548160ff0219169083151502179055505b5b836009600085815260200190815260200160002060008873ffffffffffffffffffffffffffffffffffffffff1673ffffffffffffffffffffffffffffffffffffffff16815260200190815260200160002060008773ffffffffffffffffffffffffffffffffffffffff1673ffffffffffffffffffffffffffffffffffffffff1681526020019081526020016000208190555050505050505050565b7f3de6942a798d68cf19b2bb7207cacf6c331a8fc7806b0f420977489c636d370c81604051808273ffffffffffffffffffffffffffffffffffffffff1673ffffffffffffffffffffffffffffffffffffffff16815260200191505060405180910390a150565b60036020528060005260406000206000915054906101000a900473ffffffffffffffffffffffffffffffffffffffff1681565b61378b614a65565b73ffffffffffffffffffffffffffffffffffffffff163373ffffffffffffffffffffffffffffffffffffffff16141580156138105750600660003373ffffffffffffffffffffffffffffffffffffffff1673ffffffffffffffffffffffffffffffffffffffff16815260200190815260200160002060009054906101000a900460ff16155b80156138665750600560003373ffffffffffffffffffffffffffffffffffffffff1673ffffffffffffffffffffffffffffffffffffffff16815260200190815260200160002060009054906101000a900460ff16155b1561387057600080fd5b80601d6000846040516020018080602001828103825283818151815260200191508051906020019080838360005b838110156138b957808201518184015260208101905061389e565b50505050905090810190601f1680156138e65780820380516001836020036101000a031916815260200191505b509250505060405160208183030381529060405280519060200120815260200190815260200160002060006101000a81548160ff0219169083151502179055505050565b600080600790505b600081101515613a82576000839050602060008573ffffffffffffffffffffffffffffffffffffffff1673ffffffffffffffffffffffffffffffffffffffff1681526020019081526020016000208260088110151561398d57fe5b01548173ffffffffffffffffffffffffffffffffffffffff166370a08231336040518263ffffffff167c0100000000000000000000000000000000000000000000000000000000028152600401808273ffffffffffffffffffffffffffffffffffffffff1673ffffffffffffffffffffffffffffffffffffffff16815260200191505060206040518083038186803b158015613a2857600080fd5b505afa158015613a3c573d6000803e3d6000fd5b505050506040513d6020811015613a5257600080fd5b81019080805190602001909291905050501115613a73578192505050613a88565b50808060019003915050613932565b50600090505b919050565b613a95614a65565b73ffffffffffffffffffffffffffffffffffffffff163373ffffffffffffffffffffffffffffffffffffffff1614158015613b1a5750600660003373ffffffffffffffffffffffffffffffffffffffff1673ffffffffffffffffffffffffffffffffffffffff16815260200190815260200160002060009054906101000a900460ff16155b8015613b705750600560003373ffffffffffffffffffffffffffffffffffffffff1673ffffffffffffffffffffffffffffffffffffffff16815260200190815260200160002060009054906101000a900460ff16155b15613b7a57600080fd5b80601b6000846040516020018080602001828103825283818151815260200191508051906020019080838360005b83811015613bc3578082015181840152602081019050613ba8565b50505050905090810190601f168015613bf05780820380516001836020036101000a031916815260200191505b509250505060405160208183030381529060405280519060200120815260200190815260200160002060006101000a81548173ffffffffffffffffffffffffffffffffffffffff021916908373ffffffffffffffffffffffffffffffffffffffff1602179055505050565b60056020528060005260406000206000915054906101000a900460ff1681565b600e602052826000526040600020602052816000526040600020602052806000526040600020600092509250509054906101000a900460ff1681565b613cbf614a65565b73ffffffffffffffffffffffffffffffffffffffff163373ffffffffffffffffffffffffffffffffffffffff16141515613cf857600080fd5b6000600660008373ffffffffffffffffffffffffffffffffffffffff1673ffffffffffffffffffffffffffffffffffffffff16815260200190815260200160002060006101000a81548160ff0219169083151502179055508073ffffffffffffffffffffffffffffffffffffffff167f1aaaaf7609619e631f47eb3546f9fdd8c61b1af2175988a0ddb9a06680c3b9ed60405160405180910390a250565b602560009054906101000a900473ffffffffffffffffffffffffffffffffffffffff1673ffffffffffffffffffffffffffffffffffffffff16634e6091f38484846040518463ffffffff167c0100000000000000000000000000000000000000000000000000000000028152600401808473ffffffffffffffffffffffffffffffffffffffff1673ffffffffffffffffffffffffffffffffffffffff1681526020018381526020018281526020019350505050600060405180830381600087803b158015613e6357600080fd5b505af1158015613e77573d6000803e3d6000fd5b50505050505050565b600060196000836040516020018080602001828103825283818151815260200191508051906020019080838360005b83811015613eca578082015181840152602081019050613eaf565b50505050905090810190601f168015613ef75780820380516001836020036101000a031916815260200191505b5092505050604051602081830303815290604052805190602001208152602001908152602001600020549050919050565b600060126000836040516020018080602001828103825283818151815260200191508051906020019080838360005b83811015613f72578082015181840152602081019050613f57565b50505050905090810190601f168015613f9f5780820380516001836020036101000a031916815260200191505b5092505050604051602081830303815290604052805190602001208152602001908152602001600020549050919050565b613fd8614a65565b73ffffffffffffffffffffffffffffffffffffffff163373ffffffffffffffffffffffffffffffffffffffff1614151561401157600080fd5b61401a81616d04565b50565b600080602560009054906101000a900473ffffffffffffffffffffffffffffffffffffffff1673ffffffffffffffffffffffffffffffffffffffff1663192ebb5285856040518363ffffffff167c0100000000000000000000000000000000000000000000000000000000028152600401808373ffffffffffffffffffffffffffffffffffffffff1673ffffffffffffffffffffffffffffffffffffffff16815260200182815260200192505050602060405180830381600087803b1580156140e557600080fd5b505af11580156140f9573d6000803e3d6000fd5b505050506040513d602081101561410f57600080fd5b810190808051906020019092919050505090508091505092915050565b614134614a65565b73ffffffffffffffffffffffffffffffffffffffff163373ffffffffffffffffffffffffffffffffffffffff16141580156141b95750600660003373ffffffffffffffffffffffffffffffffffffffff1673ffffffffffffffffffffffffffffffffffffffff16815260200190815260200160002060009054906101000a900460ff16155b801561420f5750600560003373ffffffffffffffffffffffffffffffffffffffff1673ffffffffffffffffffffffffffffffffffffffff16815260200190815260200160002060009054906101000a900460ff16155b1561421957600080fd5b602560009054906101000a900473ffffffffffffffffffffffffffffffffffffffff1673ffffffffffffffffffffffffffffffffffffffff16636ae923c88484846040518463ffffffff167c0100000000000000000000000000000000000000000000000000000000028152600401808473ffffffffffffffffffffffffffffffffffffffff1673ffffffffffffffffffffffffffffffffffffffff1681526020018381526020018281526020019350505050600060405180830381600087803b1580156142e657600080fd5b505af11580156142fa573d6000803e3d6000fd5b50505050505050565b6060601c6000836040516020018080602001828103825283818151815260200191508051906020019080838360005b8381101561434d578082015181840152602081019050614332565b50505050905090810190601f16801561437a5780820380516001836020036101000a031916815260200191505b50925050506040516020818303038152906040528051906020012081526020019081526020016000208054600181600116156101000203166002900480601f0160208091040260200160405190810160405280929190818152602001828054600181600116156101000203166002900480156144375780601f1061440c57610100808354040283529160200191614437565b820191906000526020600020905b81548152906001019060200180831161441a57829003601f168201915b50505050509050919050565b61444b614a65565b73ffffffffffffffffffffffffffffffffffffffff163373ffffffffffffffffffffffffffffffffffffffff16141580156144d05750600660003373ffffffffffffffffffffffffffffffffffffffff1673ffffffffffffffffffffffffffffffffffffffff16815260200190815260200160002060009054906101000a900460ff16155b156144da57600080fd5b6001600560008373ffffffffffffffffffffffffffffffffffffffff1673ffffffffffffffffffffffffffffffffffffffff16815260200190815260200160002060006101000a81548160ff021916908315150217905550600760008273ffffffffffffffffffffffffffffffffffffffff1673ffffffffffffffffffffffffffffffffffffffff16815260200190815260200160002060009054906101000a900460ff16151561464d576001600760008373ffffffffffffffffffffffffffffffffffffffff1673ffffffffffffffffffffffffffffffffffffffff16815260200190815260200160002060006101000a81548160ff0219169083151502179055508060036000600154815260200190815260200160002060006101000a81548173ffffffffffffffffffffffffffffffffffffffff021916908373ffffffffffffffffffffffffffffffffffffffff16021790555061464660018054616ce690919063ffffffff16565b6001819055505b8073ffffffffffffffffffffffffffffffffffffffff167fad6de4452a631e641cb59902236607946ce9272b9b981f2f80e8d129cb9084ba60405160405180910390a250565b600d602052816000526040600020602052806000526040600020600091509150505481565b6000602260008673ffffffffffffffffffffffffffffffffffffffff1673ffffffffffffffffffffffffffffffffffffffff16815260200190815260200160002060020160009054906101000a900473ffffffffffffffffffffffffffffffffffffffff1673ffffffffffffffffffffffffffffffffffffffff163373ffffffffffffffffffffffffffffffffffffffff1614151561475657600080fd5b600042905060008682604051602001808373ffffffffffffffffffffffffffffffffffffffff1673ffffffffffffffffffffffffffffffffffffffff166c0100000000000000000000000002815260140182815260200192505050604051602081830303815290604052805190602001209050816021600083815260200190815260200160002060050181905550602260008873ffffffffffffffffffffffffffffffffffffffff1673ffffffffffffffffffffffffffffffffffffffff1681526020019081526020016000206000015460216000838152602001908152602001600020600001819055508560216000838152602001908152602001600020600101819055508460216000838152602001908152602001600020600201819055508360216000838152602001908152602001600020600401819055508192505050949350505050565b6000601a6000836040516020018080602001828103825283818151815260200191508051906020019080838360005b838110156148e95780820151818401526020810190506148ce565b50505050905090810190601f1680156149165780820380516001836020036101000a031916815260200191505b5092505050604051602081830303815290604052805190602001208152602001908152602001600020549050919050565b60176020528160005260406000206020528060005260406000206000915091509054906101000a900460ff1681565b60166020528060005260406000206000915090505481565b600b6020528160005260406000206020528060005260406000206000915091509054906101000a900460ff1681565b6000601e6000836040516020018080602001828103825283818151815260200191508051906020019080838360005b83811015614a075780820151818401526020810190506149ec565b50505050905090810190601f168015614a345780820380516001836020036101000a031916815260200191505b5092505050604051602081830303815290604052805190602001208152602001908152602001600020549050919050565b60008060009054906101000a900473ffffffffffffffffffffffffffffffffffffffff16905090565b6000601d6000836040516020018080602001828103825283818151815260200191508051906020019080838360005b83811015614ad8578082015181840152602081019050614abd565b50505050905090810190601f168015614b055780820380516001836020036101000a031916815260200191505b509250505060405160208183030381529060405280519060200120815260200190815260200160002060009054906101000a900460ff169050919050565b614b4b614a65565b73ffffffffffffffffffffffffffffffffffffffff163373ffffffffffffffffffffffffffffffffffffffff1614158015614bd05750600660003373ffffffffffffffffffffffffffffffffffffffff1673ffffffffffffffffffffffffffffffffffffffff16815260200190815260200160002060009054906101000a900460ff16155b8015614c265750600560003373ffffffffffffffffffffffffffffffffffffffff1673ffffffffffffffffffffffffffffffffffffffff16815260200190815260200160002060009054906101000a900460ff16155b15614c3057600080fd5b614c38616ede565b604051809103906000f080158015614c54573d6000803e3d6000fd5b50602560006101000a81548173ffffffffffffffffffffffffffffffffffffffff021916908373ffffffffffffffffffffffffffffffffffffffff1602179055506000602460009054906101000a900473ffffffffffffffffffffffffffffffffffffffff1690508073ffffffffffffffffffffffffffffffffffffffff1663413c6d13306040518263ffffffff167c010000000000000000000000000000000000000000000000000000000002815260040180806020018373ffffffffffffffffffffffffffffffffffffffff1673ffffffffffffffffffffffffffffffffffffffff168152602001828103825260078152602001807f4b59432f4b59430000000000000000000000000000000000000000000000000081525060200192505050600060405180830381600087803b158015614d9057600080fd5b505af1158015614da4573d6000803e3d6000fd5b5050505050565b614db3614a65565b73ffffffffffffffffffffffffffffffffffffffff163373ffffffffffffffffffffffffffffffffffffffff1614158015614e385750600660003373ffffffffffffffffffffffffffffffffffffffff1673ffffffffffffffffffffffffffffffffffffffff16815260200190815260200160002060009054906101000a900460ff16155b8015614e8e5750600560003373ffffffffffffffffffffffffffffffffffffffff1673ffffffffffffffffffffffffffffffffffffffff16815260200190815260200160002060009054906101000a900460ff16155b15614e9857600080fd5b6000836040516020018080602001828103825283818151815260200191508051906020019080838360005b83811015614ede578082015181840152602081019050614ec3565b50505050905090810190601f168015614f0b5780820380516001836020036101000a031916815260200191505b50925050506040516020818303038152906040528051906020012090506017600082815260200190815260200160002060008473ffffffffffffffffffffffffffffffffffffffff1673ffffffffffffffffffffffffffffffffffffffff16815260200190815260200160002060009054906101000a900460ff16151561509d576000601660008381526020019081526020016000205490508360186000848152602001908152602001600020600083815260200190815260200160002060006101000a81548173ffffffffffffffffffffffffffffffffffffffff021916908373ffffffffffffffffffffffffffffffffffffffff16021790555061501b600182616ce690919063ffffffff16565b601660008481526020019081526020016000208190555060016017600084815260200190815260200160002060008673ffffffffffffffffffffffffffffffffffffffff1673ffffffffffffffffffffffffffffffffffffffff16815260200190815260200160002060006101000a81548160ff021916908315150217905550505b816015600083815260200190815260200160002060008573ffffffffffffffffffffffffffffffffffffffff1673ffffffffffffffffffffffffffffffffffffffff16815260200190815260200160002060006101000a81548160ff02191690831515021790555050505050565b615113614a65565b73ffffffffffffffffffffffffffffffffffffffff163373ffffffffffffffffffffffffffffffffffffffff16141580156151985750600660003373ffffffffffffffffffffffffffffffffffffffff1673ffffffffffffffffffffffffffffffffffffffff16815260200190815260200160002060009054906101000a900460ff16155b80156151ee5750600560003373ffffffffffffffffffffffffffffffffffffffff1673ffffffffffffffffffffffffffffffffffffffff16815260200190815260200160002060009054906101000a900460ff16155b156151f857600080fd5b6000602460009054906101000a900473ffffffffffffffffffffffffffffffffffffffff1690508073ffffffffffffffffffffffffffffffffffffffff1663fd2556836040518163ffffffff167c01000000000000000000000000000000000000000000000000000000000281526004018080602001828103825260138152602001807f736372756d696e766573742f70726f6a6563740000000000000000000000000081525060200191505060206040518083038186803b1580156152bd57600080fd5b505afa1580156152d1573d6000803e3d6000fd5b505050506040513d60208110156152e757600080fd5b8101908080519060200190929190505050602760006101000a81548173ffffffffffffffffffffffffffffffffffffffff021916908373ffffffffffffffffffffffffffffffffffffffff16021790555050565b600060116000846040516020018080602001828103825283818151815260200191508051906020019080838360005b8381101561538557808201518184015260208101905061536a565b50505050905090810190601f1680156153b25780820380516001836020036101000a031916815260200191505b509250505060405160208183030381529060405280519060200120815260200190815260200160002060008373ffffffffffffffffffffffffffffffffffffffff1673ffffffffffffffffffffffffffffffffffffffff16815260200190815260200160002054905092915050565b615429614a65565b73ffffffffffffffffffffffffffffffffffffffff163373ffffffffffffffffffffffffffffffffffffffff16141580156154ae5750600660003373ffffffffffffffffffffffffffffffffffffffff1673ffffffffffffffffffffffffffffffffffffffff16815260200190815260200160002060009054906101000a900460ff16155b80156155045750600560003373ffffffffffffffffffffffffffffffffffffffff1673ffffffffffffffffffffffffffffffffffffffff16815260200190815260200160002060009054906101000a900460ff16155b1561550e57600080fd5b80601e6000846040516020018080602001828103825283818151815260200191508051906020019080838360005b8381101561555757808201518184015260208101905061553c565b50505050905090810190601f1680156155845780820380516001836020036101000a031916815260200191505b5092505050604051602081830303815290604052805190602001208152602001908152602001600020819055505050565b60025481565b60066020528060005260406000206000915054906101000a900460ff1681565b6010602052816000526040600020602052806000526040600020600091509150508060000154908060010154905082565b823373ffffffffffffffffffffffffffffffffffffffff16602260008373ffffffffffffffffffffffffffffffffffffffff1673ffffffffffffffffffffffffffffffffffffffff16815260200190815260200160002060010160009054906101000a900473ffffffffffffffffffffffffffffffffffffffff1673ffffffffffffffffffffffffffffffffffffffff161415156156a957600080fd5b6008831015156156b857600080fd5b81602060008673ffffffffffffffffffffffffffffffffffffffff1673ffffffffffffffffffffffffffffffffffffffff1681526020019081526020016000208460088110151561570557fe5b018190555050505050565b615718614a65565b73ffffffffffffffffffffffffffffffffffffffff163373ffffffffffffffffffffffffffffffffffffffff1614151561575157600080fd5b6001600660008373ffffffffffffffffffffffffffffffffffffffff1673ffffffffffffffffffffffffffffffffffffffff16815260200190815260200160002060006101000a81548160ff021916908315150217905550600860008273ffffffffffffffffffffffffffffffffffffffff1673ffffffffffffffffffffffffffffffffffffffff16815260200190815260200160002060009054906101000a900460ff1615156158c5576001600860008373ffffffffffffffffffffffffffffffffffffffff1673ffffffffffffffffffffffffffffffffffffffff16815260200190815260200160002060006101000a81548160ff0219169083151502179055508060046000600254815260200190815260200160002060006101000a81548173ffffffffffffffffffffffffffffffffffffffff021916908373ffffffffffffffffffffffffffffffffffffffff1602179055506158be6001600254616ce690919063ffffffff16565b6002819055505b8073ffffffffffffffffffffffffffffffffffffffff167ffba24c034afca607a35e1f221b154b3f8e1f88c7924c8a0a06755b70708c44d860405160405180910390a250565b615913614a65565b73ffffffffffffffffffffffffffffffffffffffff163373ffffffffffffffffffffffffffffffffffffffff16141580156159985750600660003373ffffffffffffffffffffffffffffffffffffffff1673ffffffffffffffffffffffffffffffffffffffff16815260200190815260200160002060009054906101000a900460ff16155b80156159ee5750600560003373ffffffffffffffffffffffffffffffffffffffff1673ffffffffffffffffffffffffffffffffffffffff16815260200190815260200160002060009054906101000a900460ff16155b156159f857600080fd5b80601c6000846040516020018080602001828103825283818151815260200191508051906020019080838360005b83811015615a41578082015181840152602081019050615a26565b50505050905090810190601f168015615a6e5780820380516001836020036101000a031916815260200191505b50925050506040516020818303038152906040528051906020012081526020019081526020016000209080519060200190615aaa929190616eee565b505050565b823373ffffffffffffffffffffffffffffffffffffffff16602260008373ffffffffffffffffffffffffffffffffffffffff1673ffffffffffffffffffffffffffffffffffffffff16815260200190815260200160002060010160009054906101000a900473ffffffffffffffffffffffffffffffffffffffff1673ffffffffffffffffffffffffffffffffffffffff16141515615b4c57600080fd5b6000601f60009054906101000a900473ffffffffffffffffffffffffffffffffffffffff16905060008173ffffffffffffffffffffffffffffffffffffffff1663fd2556836040518163ffffffff167c010000000000000000000000000000000000000000000000000000000002815260040180806020018281038252600f8152602001807f414e475f73797374656d5f61646472000000000000000000000000000000000081525060200191505060206040518083038186803b158015615c1357600080fd5b505afa158015615c27573d6000803e3d6000fd5b505050506040513d6020811015615c3d57600080fd5b8101908080519060200190929190505050905060008273ffffffffffffffffffffffffffffffffffffffff16634f1612456040518163ffffffff167c010000000000000000000000000000000000000000000000000000000002815260040180806020018281038252600c8152602001807f6f75725f7368617265313030000000000000000000000000000000000000000081525060200191505060206040518083038186803b158015615cf057600080fd5b505afa158015615d04573d6000803e3d6000fd5b505050506040513d6020811015615d1a57600080fd5b81019080805190602001909291905050509050615d38878383616d47565b1515615d4357600080fd5b33602260008973ffffffffffffffffffffffffffffffffffffffff1673ffffffffffffffffffffffffffffffffffffffff16815260200190815260200160002060010160006101000a81548173ffffffffffffffffffffffffffffffffffffffff021916908373ffffffffffffffffffffffffffffffffffffffff16021790555085602260008973ffffffffffffffffffffffffffffffffffffffff1673ffffffffffffffffffffffffffffffffffffffff1681526020019081526020016000206003018190555084602260008973ffffffffffffffffffffffffffffffffffffffff1673ffffffffffffffffffffffffffffffffffffffff16815260200190815260200160002060040160006101000a81548163ffffffff02191690837c01000000000000000000000000000000000000000000000000000000009004021790555060238790806001815401808255809150509060018203906000526020600020016000909192909190916101000a81548173ffffffffffffffffffffffffffffffffffffffff021916908373ffffffffffffffffffffffffffffffffffffffff16021790555050602380549050602260008973ffffffffffffffffffffffffffffffffffffffff1673ffffffffffffffffffffffffffffffffffffffff168152602001908152602001600020600001819055507f5af8025d6adb7569fd240c526c29e6dd2279a32d84fda1f040d2c64ad2dae27b602260008973ffffffffffffffffffffffffffffffffffffffff1673ffffffffffffffffffffffffffffffffffffffff16815260200190815260200160002060010160009054906101000a900473ffffffffffffffffffffffffffffffffffffffff1688602260008b73ffffffffffffffffffffffffffffffffffffffff1673ffffffffffffffffffffffffffffffffffffffff16815260200190815260200160002060030154602260008c73ffffffffffffffffffffffffffffffffffffffff1673ffffffffffffffffffffffffffffffffffffffff16815260200190815260200160002060020160009054906101000a900473ffffffffffffffffffffffffffffffffffffffff16604051808573ffffffffffffffffffffffffffffffffffffffff1673ffffffffffffffffffffffffffffffffffffffff1681526020018473ffffffffffffffffffffffffffffffffffffffff1673ffffffffffffffffffffffffffffffffffffffff1681526020018381526020018273ffffffffffffffffffffffffffffffffffffffff1673ffffffffffffffffffffffffffffffffffffffff16815260200194505050505060405180910390a150505050505050565b60146020528160005260406000206020528060005260406000206000915091509054906101000a900473ffffffffffffffffffffffffffffffffffffffff1681565b60186020528160005260406000206020528060005260406000206000915091509054906101000a900473ffffffffffffffffffffffffffffffffffffffff1681565b60046020528060005260406000206000915054906101000a900473ffffffffffffffffffffffffffffffffffffffff1681565b6023818154811015156161e057fe5b906000526020600020016000915054906101000a900473ffffffffffffffffffffffffffffffffffffffff1681565b616217614a65565b73ffffffffffffffffffffffffffffffffffffffff163373ffffffffffffffffffffffffffffffffffffffff161415801561629c5750600660003373ffffffffffffffffffffffffffffffffffffffff1673ffffffffffffffffffffffffffffffffffffffff16815260200190815260200160002060009054906101000a900460ff16155b80156162f25750600560003373ffffffffffffffffffffffffffffffffffffffff1673ffffffffffffffffffffffffffffffffffffffff16815260200190815260200160002060009054906101000a900460ff16155b156162fc57600080fd5b80602460006101000a81548173ffffffffffffffffffffffffffffffffffffffff021916908373ffffffffffffffffffffffffffffffffffffffff1602179055506000602460009054906101000a900473ffffffffffffffffffffffffffffffffffffffff1690508073ffffffffffffffffffffffffffffffffffffffff1663413c6d13306040518263ffffffff167c010000000000000000000000000000000000000000000000000000000002815260040180806020018373ffffffffffffffffffffffffffffffffffffffff1673ffffffffffffffffffffffffffffffffffffffff168152602001828103825260078152602001807f4b59432f4b59430000000000000000000000000000000000000000000000000081525060200192505050600060405180830381600087803b15801561643857600080fd5b505af115801561644c573d6000803e3d6000fd5b505050508073ffffffffffffffffffffffffffffffffffffffff1663fd2556836040518163ffffffff167c01000000000000000000000000000000000000000000000000000000000281526004018080602001828103825260138152602001807f736372756d696e766573742f70726f6a6563740000000000000000000000000081525060200191505060206040518083038186803b1580156164ee57600080fd5b505afa158015616502573d6000803e3d6000fd5b505050506040513d602081101561651857600080fd5b8101908080519060200190929190505050602760006101000a81548173ffffffffffffffffffffffffffffffffffffffff021916908373ffffffffffffffffffffffffffffffffffffffff1602179055505050565b60226020528060005260406000206000915090508060000154908060010160009054906101000a900473ffffffffffffffffffffffffffffffffffffffff16908060020160009054906101000a900473ffffffffffffffffffffffffffffffffffffffff16908060030154908060040160009054906101000a90047c010000000000000000000000000000000000000000000000000000000002905085565b833373ffffffffffffffffffffffffffffffffffffffff16602260008373ffffffffffffffffffffffffffffffffffffffff1673ffffffffffffffffffffffffffffffffffffffff16815260200190815260200160002060010160009054906101000a900473ffffffffffffffffffffffffffffffffffffffff1673ffffffffffffffffffffffffffffffffffffffff161415156166a957600080fd5b83602260008773ffffffffffffffffffffffffffffffffffffffff1673ffffffffffffffffffffffffffffffffffffffff16815260200190815260200160002060010160006101000a81548173ffffffffffffffffffffffffffffffffffffffff021916908373ffffffffffffffffffffffffffffffffffffffff16021790555082602260008773ffffffffffffffffffffffffffffffffffffffff1673ffffffffffffffffffffffffffffffffffffffff1681526020019081526020016000206003018190555081602260008773ffffffffffffffffffffffffffffffffffffffff1673ffffffffffffffffffffffffffffffffffffffff16815260200190815260200160002060040160006101000a81548163ffffffff02191690837c0100000000000000000000000000000000000000000000000000000000900402179055505050505050565b60126020528060005260406000206000915090505481565b600060156000846040516020018080602001828103825283818151815260200191508051906020019080838360005b8381101561685557808201518184015260208101905061683a565b50505050905090810190601f1680156168825780820380516001836020036101000a031916815260200191505b509250505060405160208183030381529060405280519060200120815260200190815260200160002060008373ffffffffffffffffffffffffffffffffffffffff1673ffffffffffffffffffffffffffffffffffffffff16815260200190815260200160002060009054906101000a900460ff16905092915050565b60008061690a8461392a565b111561699757602160008484604051602001808373ffffffffffffffffffffffffffffffffffffffff1673ffffffffffffffffffffffffffffffffffffffff166c0100000000000000000000000002815260140182815260200192505050604051602081830303815290604052805190602001208152602001908152602001600020600101549050616a1a565b602160008484604051602001808373ffffffffffffffffffffffffffffffffffffffff1673ffffffffffffffffffffffffffffffffffffffff166c01000000000000000000000000028152601401828152602001925050506040516020818303038152906040528051906020012081526020019081526020016000206004015490505b92915050565b600060166000836040516020018080602001828103825283818151815260200191508051906020019080838360005b83811015616a6a578082015181840152602081019050616a4f565b50505050905090810190601f168015616a975780820380516001836020036101000a031916815260200191505b5092505050604051602081830303815290604052805190602001208152602001908152602001600020549050919050565b60136020528160005260406000206020528060005260406000206000915091509054906101000a900460ff1681565b616aff614a65565b73ffffffffffffffffffffffffffffffffffffffff163373ffffffffffffffffffffffffffffffffffffffff16141515616b3857600080fd5b600073ffffffffffffffffffffffffffffffffffffffff168173ffffffffffffffffffffffffffffffffffffffff1614151515616b7457600080fd5b7f8be0079c531659141344cd1fd0a4f28419497f9722a3daafe3b4186f6b6457e0616b9d614a65565b82604051808373ffffffffffffffffffffffffffffffffffffffff1673ffffffffffffffffffffffffffffffffffffffff1681526020018273ffffffffffffffffffffffffffffffffffffffff1673ffffffffffffffffffffffffffffffffffffffff1681526020019250505060405180910390a1616c1b81616d04565b50565b6000601b6000836040516020018080602001828103825283818151815260200191508051906020019080838360005b83811015616c68578082015181840152602081019050616c4d565b50505050905090810190601f168015616c955780820380516001836020036101000a031916815260200191505b509250505060405160208183030381529060405280519060200120815260200190815260200160002060009054906101000a900473ffffffffffffffffffffffffffffffffffffffff169050919050565b6000808284019050838110151515616cfa57fe5b8091505092915050565b806000806101000a81548173ffffffffffffffffffffffffffffffffffffffff021916908373ffffffffffffffffffffffffffffffffffffffff16021790555050565b6000808473ffffffffffffffffffffffffffffffffffffffff166318160ddd6040518163ffffffff167c010000000000000000000000000000000000000000000000000000000002815260040160206040518083038186803b158015616dac57600080fd5b505afa158015616dc0573d6000803e3d6000fd5b505050506040513d6020811015616dd657600080fd5b8101908080519060200190929190505050905060008573ffffffffffffffffffffffffffffffffffffffff166370a08231866040518263ffffffff167c0100000000000000000000000000000000000000000000000000000000028152600401808273ffffffffffffffffffffffffffffffffffffffff1673ffffffffffffffffffffffffffffffffffffffff16815260200191505060206040518083038186803b158015616e8457600080fd5b505afa158015616e98573d6000803e3d6000fd5b505050506040513d6020811015616eae57600080fd5b81019080805190602001909291905050509050806064858402811515616ed057fe5b041115925050509392505050565b60405161175880616f9483390190565b828054600181600116156101000203166002900490600052602060002090601f016020900481019282601f10616f2f57805160ff1916838001178555616f5d565b82800160010185558215616f5d579182015b82811115616f5c578251825591602001919060010190616f41565b5b509050616f6a9190616f6e565b5090565b616f9091905b80821115616f8c576000816000905550600101616f74565b5090565b9056fe6080604052671bc16d674ec80000600a5534801561001c57600080fd5b5061172c8061002c6000396000f3fe6080604052600436106100fc576000357c0100000000000000000000000000000000000000000000000000000000900463ffffffff1680630489882e146101015780631785f53c1461012c578063192ebb521461017d578063313f2a21146101ec578063429b62e5146102675780634902e4aa146102d05780634e6091f31461032157806364a04b59146103865780636ae923c8146103d7578063704802751461043c5780638da5cb5b1461048d5780639df152dc146104e4578063abf7b063146104fb578063ad25cb4214610526578063b3292ff01461058f578063c3894398146105e0578063c8bc04071461065b578063f2fde38b146106ac575b600080fd5b34801561010d57600080fd5b506101166106fd565b6040518082815260200191505060405180910390f35b34801561013857600080fd5b5061017b6004803603602081101561014f57600080fd5b81019080803573ffffffffffffffffffffffffffffffffffffffff169060200190929190505050610703565b005b34801561018957600080fd5b506101d6600480360360408110156101a057600080fd5b81019080803573ffffffffffffffffffffffffffffffffffffffff16906020019092919080359060200190929190505050610838565b6040518082815260200191505060405180910390f35b3480156101f857600080fd5b506102256004803603602081101561020f57600080fd5b81019080803590602001909291905050506109cd565b604051808273ffffffffffffffffffffffffffffffffffffffff1673ffffffffffffffffffffffffffffffffffffffff16815260200191505060405180910390f35b34801561027357600080fd5b506102b66004803603602081101561028a57600080fd5b81019080803573ffffffffffffffffffffffffffffffffffffffff169060200190929190505050610a00565b604051808215151515815260200191505060405180910390f35b3480156102dc57600080fd5b5061031f600480360360208110156102f357600080fd5b81019080803573ffffffffffffffffffffffffffffffffffffffff169060200190929190505050610a20565b005b34801561032d57600080fd5b506103846004803603606081101561034457600080fd5b81019080803573ffffffffffffffffffffffffffffffffffffffff1690602001909291908035906020019092919080359060200190929190505050610aff565b005b34801561039257600080fd5b506103d5600480360360208110156103a957600080fd5b81019080803573ffffffffffffffffffffffffffffffffffffffff169060200190929190505050610b91565b005b3480156103e357600080fd5b5061043a600480360360608110156103fa57600080fd5b81019080803573ffffffffffffffffffffffffffffffffffffffff1690602001909291908035906020019092919080359060200190929190505050610bde565b005b34801561044857600080fd5b5061048b6004803603602081101561045f57600080fd5b81019080803573ffffffffffffffffffffffffffffffffffffffff169060200190929190505050610c70565b005b34801561049957600080fd5b506104a2610ec0565b604051808273ffffffffffffffffffffffffffffffffffffffff1673ffffffffffffffffffffffffffffffffffffffff16815260200191505060405180910390f35b3480156104f057600080fd5b506104f9610ee9565b005b34801561050757600080fd5b506105106110df565b6040518082815260200191505060405180910390f35b34801561053257600080fd5b506105756004803603602081101561054957600080fd5b81019080803573ffffffffffffffffffffffffffffffffffffffff1690602001909291905050506110e5565b604051808215151515815260200191505060405180910390f35b34801561059b57600080fd5b506105de600480360360208110156105b257600080fd5b81019080803573ffffffffffffffffffffffffffffffffffffffff169060200190929190505050611105565b005b3480156105ec57600080fd5b506106196004803603602081101561060357600080fd5b8101908080359060200190929190505050611300565b604051808273ffffffffffffffffffffffffffffffffffffffff1673ffffffffffffffffffffffffffffffffffffffff16815260200191505060405180910390f35b34801561066757600080fd5b506106aa6004803603602081101561067e57600080fd5b81019080803573ffffffffffffffffffffffffffffffffffffffff169060200190929190505050611333565b005b3480156106b857600080fd5b506106fb600480360360208110156106cf57600080fd5b81019080803573ffffffffffffffffffffffffffffffffffffffff169060200190929190505050611578565b005b60015481565b61070b610ec0565b73ffffffffffffffffffffffffffffffffffffffff163373ffffffffffffffffffffffffffffffffffffffff16141580156107905750600660003373ffffffffffffffffffffffffffffffffffffffff1673ffffffffffffffffffffffffffffffffffffffff16815260200190815260200160002060009054906101000a900460ff16155b1561079a57600080fd5b6000600560008373ffffffffffffffffffffffffffffffffffffffff1673ffffffffffffffffffffffffffffffffffffffff16815260200190815260200160002060006101000a81548160ff0219169083151502179055508073ffffffffffffffffffffffffffffffffffffffff167f753f40ca3312b2408759a67875b367955e7baa221daf08aa3d643d96202ac12b60405160405180910390a250565b60008082604051602001808281526020019150506040516020818303038152906040528051906020012090506000600b60008673ffffffffffffffffffffffffffffffffffffffff1673ffffffffffffffffffffffffffffffffffffffff168152602001908152602001600020600083815260200190815260200160002060000154141561091b57600a54600b60008673ffffffffffffffffffffffffffffffffffffffff1673ffffffffffffffffffffffffffffffffffffffff1681526020019081526020016000206000838152602001908152602001600020600001819055505b600b60008573ffffffffffffffffffffffffffffffffffffffff1673ffffffffffffffffffffffffffffffffffffffff168152602001908152602001600020600082815260200190815260200160002060010154600b60008673ffffffffffffffffffffffffffffffffffffffff1673ffffffffffffffffffffffffffffffffffffffff1681526020019081526020016000206000838152602001908152602001600020600001540391505092915050565b60036020528060005260406000206000915054906101000a900473ffffffffffffffffffffffffffffffffffffffff1681565b60056020528060005260406000206000915054906101000a900460ff1681565b610a28610ec0565b73ffffffffffffffffffffffffffffffffffffffff163373ffffffffffffffffffffffffffffffffffffffff16141515610a6157600080fd5b6000600660008373ffffffffffffffffffffffffffffffffffffffff1673ffffffffffffffffffffffffffffffffffffffff16815260200190815260200160002060006101000a81548160ff0219169083151502179055508073ffffffffffffffffffffffffffffffffffffffff167f1aaaaf7609619e631f47eb3546f9fdd8c61b1af2175988a0ddb9a06680c3b9ed60405160405180910390a250565b6000826040516020018082815260200191505060405160208183030381529060405280519060200120905081600b60008673ffffffffffffffffffffffffffffffffffffffff1673ffffffffffffffffffffffffffffffffffffffff16815260200190815260200160002060008381526020019081526020016000206001016000828254019250508190555050505050565b610b99610ec0565b73ffffffffffffffffffffffffffffffffffffffff163373ffffffffffffffffffffffffffffffffffffffff16141515610bd257600080fd5b610bdb8161169f565b50565b6000826040516020018082815260200191505060405160208183030381529060405280519060200120905081600b60008673ffffffffffffffffffffffffffffffffffffffff1673ffffffffffffffffffffffffffffffffffffffff16815260200190815260200160002060008381526020019081526020016000206000016000828254019250508190555050505050565b610c78610ec0565b73ffffffffffffffffffffffffffffffffffffffff163373ffffffffffffffffffffffffffffffffffffffff1614158015610cfd5750600660003373ffffffffffffffffffffffffffffffffffffffff1673ffffffffffffffffffffffffffffffffffffffff16815260200190815260200160002060009054906101000a900460ff16155b15610d0757600080fd5b6001600560008373ffffffffffffffffffffffffffffffffffffffff1673ffffffffffffffffffffffffffffffffffffffff16815260200190815260200160002060006101000a81548160ff021916908315150217905550600760008273ffffffffffffffffffffffffffffffffffffffff1673ffffffffffffffffffffffffffffffffffffffff16815260200190815260200160002060009054906101000a900460ff161515610e7a576001600760008373ffffffffffffffffffffffffffffffffffffffff1673ffffffffffffffffffffffffffffffffffffffff16815260200190815260200160002060006101000a81548160ff0219169083151502179055508060036000600154815260200190815260200160002060006101000a81548173ffffffffffffffffffffffffffffffffffffffff021916908373ffffffffffffffffffffffffffffffffffffffff160217905550610e73600180546116e290919063ffffffff16565b6001819055505b8073ffffffffffffffffffffffffffffffffffffffff167fad6de4452a631e641cb59902236607946ce9272b9b981f2f80e8d129cb9084ba60405160405180910390a250565b60008060009054906101000a900473ffffffffffffffffffffffffffffffffffffffff16905090565b610ef1610ec0565b73ffffffffffffffffffffffffffffffffffffffff163373ffffffffffffffffffffffffffffffffffffffff1614158015610f765750600660003373ffffffffffffffffffffffffffffffffffffffff1673ffffffffffffffffffffffffffffffffffffffff16815260200190815260200160002060009054906101000a900460ff16155b8015610fcc5750600560003373ffffffffffffffffffffffffffffffffffffffff1673ffffffffffffffffffffffffffffffffffffffff16815260200190815260200160002060009054906101000a900460ff16155b15610fd657600080fd5b6000600960009054906101000a900473ffffffffffffffffffffffffffffffffffffffff1690508073ffffffffffffffffffffffffffffffffffffffff16634f1612456040518163ffffffff167c01000000000000000000000000000000000000000000000000000000000281526004018080602001828103825260118152602001807f4b59432f4b59435f7468726573686f6c6400000000000000000000000000000081525060200191505060206040518083038186803b15801561109b57600080fd5b505afa1580156110af573d6000803e3d6000fd5b505050506040513d60208110156110c557600080fd5b8101908080519060200190929190505050600a8190555050565b60025481565b60066020528060005260406000206000915054906101000a900460ff1681565b61110d610ec0565b73ffffffffffffffffffffffffffffffffffffffff163373ffffffffffffffffffffffffffffffffffffffff1614151561114657600080fd5b6001600660008373ffffffffffffffffffffffffffffffffffffffff1673ffffffffffffffffffffffffffffffffffffffff16815260200190815260200160002060006101000a81548160ff021916908315150217905550600860008273ffffffffffffffffffffffffffffffffffffffff1673ffffffffffffffffffffffffffffffffffffffff16815260200190815260200160002060009054906101000a900460ff1615156112ba576001600860008373ffffffffffffffffffffffffffffffffffffffff1673ffffffffffffffffffffffffffffffffffffffff16815260200190815260200160002060006101000a81548160ff0219169083151502179055508060046000600254815260200190815260200160002060006101000a81548173ffffffffffffffffffffffffffffffffffffffff021916908373ffffffffffffffffffffffffffffffffffffffff1602179055506112b360016002546116e290919063ffffffff16565b6002819055505b8073ffffffffffffffffffffffffffffffffffffffff167ffba24c034afca607a35e1f221b154b3f8e1f88c7924c8a0a06755b70708c44d860405160405180910390a250565b60046020528060005260406000206000915054906101000a900473ffffffffffffffffffffffffffffffffffffffff1681565b61133b610ec0565b73ffffffffffffffffffffffffffffffffffffffff163373ffffffffffffffffffffffffffffffffffffffff16141580156113c05750600660003373ffffffffffffffffffffffffffffffffffffffff1673ffffffffffffffffffffffffffffffffffffffff16815260200190815260200160002060009054906101000a900460ff16155b80156114165750600560003373ffffffffffffffffffffffffffffffffffffffff1673ffffffffffffffffffffffffffffffffffffffff16815260200190815260200160002060009054906101000a900460ff16155b1561142057600080fd5b80600960006101000a81548173ffffffffffffffffffffffffffffffffffffffff021916908373ffffffffffffffffffffffffffffffffffffffff1602179055506000600960009054906101000a900473ffffffffffffffffffffffffffffffffffffffff1690508073ffffffffffffffffffffffffffffffffffffffff1663413c6d13306040518263ffffffff167c010000000000000000000000000000000000000000000000000000000002815260040180806020018373ffffffffffffffffffffffffffffffffffffffff1673ffffffffffffffffffffffffffffffffffffffff1681526020018281038252601b8152602001807f4b59432f696d706c656d656e6174696f6e2f42617369635f4b5943000000000081525060200192505050600060405180830381600087803b15801561155c57600080fd5b505af1158015611570573d6000803e3d6000fd5b505050505050565b611580610ec0565b73ffffffffffffffffffffffffffffffffffffffff163373ffffffffffffffffffffffffffffffffffffffff161415156115b957600080fd5b600073ffffffffffffffffffffffffffffffffffffffff168173ffffffffffffffffffffffffffffffffffffffff16141515156115f557600080fd5b7f8be0079c531659141344cd1fd0a4f28419497f9722a3daafe3b4186f6b6457e061161e610ec0565b82604051808373ffffffffffffffffffffffffffffffffffffffff1673ffffffffffffffffffffffffffffffffffffffff1681526020018273ffffffffffffffffffffffffffffffffffffffff1673ffffffffffffffffffffffffffffffffffffffff1681526020019250505060405180910390a161169c8161169f565b50565b806000806101000a81548173ffffffffffffffffffffffffffffffffffffffff021916908373ffffffffffffffffffffffffffffffffffffffff16021790555050565b60008082840190508381101515156116f657fe5b809150509291505056fea165627a7a72305820d35d792bc36d6e06debcebf1ae529a216113ce9e3e1efc7a8f53e7204e5a4c9f0029a165627a7a723058209ce3f710ce1538195234f37c836536b28dbc02ec3018d2df35ba6a86f822f7d10029",
  "source": "pragma solidity ^0.5.0;\nimport \"./interface/KYC_interface.sol\";\nimport \"./implementation/Basic_KYC.sol\";\nimport \"../tokens/token.sol\";\n//import '../admin/administratable.sol';\nimport \"../scruminvest/project.sol\";\n\n\n\ncontract KYC is project {\n\n    //==============================================================================\n    //Modification and access right------------------------------------------------\n\n    address External_Storage_addr;\n\n    KYC_interface private _KYC;\n    uint256 KYC_threshold = 2 ether;\n    address Project_Addr;\n\n    function kyc () public onlyAdmins {\n        _KYC = new basic_KYC ();\n        ExternalStorage ES = ExternalStorage(External_Storage_addr);\n        ES.setAddressValue(\"KYC/KYC\", address(this));\n\n    }\n    function load_conditions_ES () public onlyAdmins { //when something changes\n        ExternalStorage ES = ExternalStorage(External_Storage_addr);\n        Project_Addr = ES.getAddressValue(\"scruminvest/project\");\n       //\n    }\n    function  allowed_invest (address _investor_address, bytes32 currency) public returns (uint256)\n\n    {\n        uint256 avaiableinvest = _KYC.InvestorCheck( _investor_address,  currency);\n        return avaiableinvest ;\n\n\n\n\n    }\n\n\n    function add_KYC( address _investor_address, bytes32 currency, uint256 add_approved_sum) onlyAdmins public\n    {\n\n            _KYC.add_KYC(_investor_address,  currency, add_approved_sum);\n\n\n\n    }\n\n      function register_invest(address _investor_address, bytes32 currency, uint256 add_invested_sum) public\n      {\n        _KYC.register_invest(_investor_address,  currency,  add_invested_sum) ;\n\n      }\n\n       function _initExternalStorage(address Externalstorageaddr) public onlyAdmins {\n\n        External_Storage_addr = Externalstorageaddr;\n        ExternalStorage ES = ExternalStorage(External_Storage_addr);\n        ES.setAddressValue(\"KYC/KYC\", address(this));\n        Project_Addr = ES.getAddressValue(\"scruminvest/project\");\n\n\n    }\n}\n",
  "sourcePath": "/home/sergey/Documents/angels/Angeles.VC-token-scrum-investing/contracts/KYC/KYC.sol",
  "compiler": {
    "name": "solc",
    "version": "0.5.0+commit.1d4f565a.Emscripten.clang"
  },
  "schemaVersion": "3.0.2",
  "updatedAt": "2019-03-26T08:08:45.039Z",
  "devdoc": {
    "methods": {
      "ownable(address)": {
        "details": "The constructor sets the original owner of the contract to the sender account."
      },
      "owner()": {
        "details": "Tells the address of the owner",
        "return": "the address of the owner"
      },
      "transferOwnership(address)": {
        "details": "Allows the current owner to transfer control of the contract to a newOwner.",
        "params": {
          "newOwner": "The address to transfer ownership to."
        }
      }
    }
  },
  "userdoc": {
    "methods": {}
  }
}