{
  "contractName": "Mintable",
  "abi": [
    {
      "constant": false,
      "inputs": [
        {
          "name": "_sender_address",
          "type": "address"
        }
      ],
      "name": "check_owner",
      "outputs": [
        {
          "name": "",
          "type": "bool"
        }
      ],
      "payable": false,
      "stateMutability": "nonpayable",
      "type": "function"
    },
    {
      "constant": false,
      "inputs": [
        {
          "name": "newOwner",
          "type": "address"
        }
      ],
      "name": "setOwner",
      "outputs": [],
      "payable": false,
      "stateMutability": "nonpayable",
      "type": "function"
    },
    {
      "constant": false,
      "inputs": [
        {
          "name": "symbol",
          "type": "string"
        },
        {
          "name": "name",
          "type": "string"
        },
        {
          "name": "decimals",
          "type": "uint8"
        },
        {
          "name": "totalSupply",
          "type": "uint256"
        }
      ],
      "name": "Basic",
      "outputs": [],
      "payable": false,
      "stateMutability": "nonpayable",
      "type": "function"
    },
    {
      "constant": false,
      "inputs": [
        {
          "name": "sender",
          "type": "address"
        },
        {
          "name": "receiver",
          "type": "address"
        },
        {
          "name": "amount",
          "type": "uint256"
        },
        {
          "name": "data",
          "type": "bytes32"
        }
      ],
      "name": "transfer",
      "outputs": [
        {
          "name": "",
          "type": "bool"
        }
      ],
      "payable": false,
      "stateMutability": "nonpayable",
      "type": "function"
    },
    {
      "constant": false,
      "inputs": [
        {
          "name": "BasicAdministratableaddr",
          "type": "address"
        }
      ],
      "name": "_initAdministratable",
      "outputs": [],
      "payable": false,
      "stateMutability": "nonpayable",
      "type": "function"
    },
    {
      "constant": false,
      "inputs": [
        {
          "name": "msgSender",
          "type": "address"
        }
      ],
      "name": "checkAdmin",
      "outputs": [
        {
          "name": "",
          "type": "bool"
        }
      ],
      "payable": false,
      "stateMutability": "nonpayable",
      "type": "function"
    },
    {
      "constant": false,
      "inputs": [
        {
          "name": "msgSender",
          "type": "address"
        }
      ],
      "name": "checkSuperAdmin",
      "outputs": [
        {
          "name": "",
          "type": "bool"
        }
      ],
      "payable": false,
      "stateMutability": "nonpayable",
      "type": "function"
    },
    {
      "constant": false,
      "inputs": [
        {
          "name": "sender",
          "type": "address"
        },
        {
          "name": "receiver",
          "type": "address"
        },
        {
          "name": "amount",
          "type": "uint256"
        }
      ],
      "name": "transfer",
      "outputs": [
        {
          "name": "",
          "type": "bool"
        }
      ],
      "payable": false,
      "stateMutability": "nonpayable",
      "type": "function"
    },
    {
      "constant": false,
      "inputs": [
        {
          "name": "symbol",
          "type": "string"
        },
        {
          "name": "name",
          "type": "string"
        },
        {
          "name": "decimals",
          "type": "uint8"
        }
      ],
      "name": "mintable",
      "outputs": [],
      "payable": false,
      "stateMutability": "nonpayable",
      "type": "function"
    },
    {
      "constant": false,
      "inputs": [],
      "name": "get_address",
      "outputs": [
        {
          "name": "",
          "type": "address"
        }
      ],
      "payable": false,
      "stateMutability": "nonpayable",
      "type": "function"
    },
    {
      "constant": false,
      "inputs": [],
      "name": "getOwner",
      "outputs": [
        {
          "name": "",
          "type": "address"
        }
      ],
      "payable": false,
      "stateMutability": "nonpayable",
      "type": "function"
    },
    {
      "constant": true,
      "inputs": [
        {
          "name": "addr",
          "type": "address"
        }
      ],
      "name": "balanceOf",
      "outputs": [
        {
          "name": "",
          "type": "uint256"
        }
      ],
      "payable": false,
      "stateMutability": "view",
      "type": "function"
    },
    {
      "constant": true,
      "inputs": [],
      "name": "totalSupply",
      "outputs": [
        {
          "name": "",
          "type": "uint256"
        }
      ],
      "payable": false,
      "stateMutability": "view",
      "type": "function"
    },
    {
      "constant": false,
      "inputs": [
        {
          "name": "tokenAddress",
          "type": "address"
        },
        {
          "name": "receiver",
          "type": "address"
        },
        {
          "name": "amount",
          "type": "uint256"
        }
      ],
      "name": "mint",
      "outputs": [
        {
          "name": "",
          "type": "bool"
        }
      ],
      "payable": false,
      "stateMutability": "nonpayable",
      "type": "function"
    },
    {
      "constant": false,
      "inputs": [
        {
          "name": "sender",
          "type": "address"
        },
        {
          "name": "amount",
          "type": "uint256"
        }
      ],
      "name": "burn",
      "outputs": [
        {
          "name": "",
          "type": "bool"
        }
      ],
      "payable": false,
      "stateMutability": "nonpayable",
      "type": "function"
    }
  ],
  "bytecode": "0x608060405234801561001057600080fd5b50610e58806100206000396000f3fe6080604052600436106100da5763ffffffff7c01000000000000000000000000000000000000000000000000000000006000350416630131222f81146100df5780630c3504c91461011057806313af40351461015757806318160ddd1461018c578063187fe147146101b3578063323a1a5c146102f5578063427167301461033e578063703b93721461037157806370a0823114610443578063893d20e8146104765780639026dee81461048b5780639dc29fac146104be578063a1d658b1146104f7578063beabacc81461052a578063c6c3bbe61461056d575b600080fd5b3480156100eb57600080fd5b506100f46105b0565b60408051600160a060020a039092168252519081900360200190f35b34801561011c57600080fd5b506101436004803603602081101561013357600080fd5b5035600160a060020a03166105cf565b604080519115158252519081900360200190f35b34801561016357600080fd5b5061018a6004803603602081101561017a57600080fd5b5035600160a060020a031661066c565b005b34801561019857600080fd5b506101a16106b2565b60408051918252519081900360200190f35b3480156101bf57600080fd5b5061018a600480360360808110156101d657600080fd5b8101906020810181356401000000008111156101f157600080fd5b82018360208201111561020357600080fd5b8035906020019184600183028401116401000000008311171561022557600080fd5b91908080601f016020809104026020016040519081016040528093929190818152602001838380828437600092019190915250929594936020810193503591505064010000000081111561027857600080fd5b82018360208201111561028a57600080fd5b803590602001918460018302840111640100000000831117156102ac57600080fd5b91908080601f0160208091040260200160405190810160405280939291908181526020018383808284376000920191909152509295505060ff83351693505050602001356106b9565b34801561030157600080fd5b506101436004803603608081101561031857600080fd5b50600160a060020a03813581169160208101359091169060408101359060600135610739565b34801561034a57600080fd5b5061018a6004803603602081101561036157600080fd5b5035600160a060020a0316610768565b34801561037d57600080fd5b5061018a6004803603606081101561039457600080fd5b8101906020810181356401000000008111156103af57600080fd5b8201836020820111156103c157600080fd5b803590602001918460018302840111640100000000831117156103e357600080fd5b91939092909160208101903564010000000081111561040157600080fd5b82018360208201111561041357600080fd5b8035906020019184600183028401116401000000008311171561043557600080fd5b91935091503560ff166107ae565b34801561044f57600080fd5b506101a16004803603602081101561046657600080fd5b5035600160a060020a0316610807565b34801561048257600080fd5b506100f4610822565b34801561049757600080fd5b50610143600480360360208110156104ae57600080fd5b5035600160a060020a031661084a565b3480156104ca57600080fd5b50610143600480360360408110156104e157600080fd5b50600160a060020a0381351690602001356108b5565b34801561050357600080fd5b506101436004803603602081101561051a57600080fd5b5035600160a060020a0316610953565b34801561053657600080fd5b506101436004803603606081101561054d57600080fd5b50600160a060020a038135811691602081013590911690604001356109be565b34801561057957600080fd5b506101436004803603606081101561059057600080fd5b50600160a060020a03813581169160208101359091169060400135610a06565b6000336105bc816105cf565b15156105c757600080fd5b3091505b5090565b600154604080517f0c3504c9000000000000000000000000000000000000000000000000000000008152600160a060020a03848116600483015291516000939290921691630c3504c99160248082019260209290919082900301818787803b15801561063a57600080fd5b505af115801561064e573d6000803e3d6000fd5b505050506040513d602081101561066457600080fd5b505192915050565b600254600160a060020a0316331461068357600080fd5b6002805473ffffffffffffffffffffffffffffffffffffffff1916600160a060020a0392909216919091179055565b600c545b90565b83516106cc906003906020870190610d2a565b5082516106e0906004906020860190610d2a565b506005805460ff90931660ff19909316929092179091556007805473ffffffffffffffffffffffffffffffffffffffff1916331790819055600160a060020a031660009081526008602052604090208190556006555050565b600033610745816105cf565b151561075057600080fd5b61075c86868686610b75565b91505b50949350505050565b600254600160a060020a0316331461077f57600080fd5b6001805473ffffffffffffffffffffffffffffffffffffffff1916600160a060020a0392909216919091179055565b6107ba60098686610da4565b506107c7600a8484610da4565b50600b805460ff90921660ff199092169190911790555050600d805473ffffffffffffffffffffffffffffffffffffffff19163317905550506000600c55565b600160a060020a03166000908152600e602052604090205490565b60003361082e816105cf565b151561083957600080fd5b5050600d54600160a060020a031690565b600154604080517f9026dee8000000000000000000000000000000000000000000000000000000008152600160a060020a03848116600483015291516000939290921691639026dee89160248082019260209290919082900301818787803b15801561063a57600080fd5b6000336108c1816105cf565b15156108cc57600080fd5b600160a060020a0384166000908152600e60205260409020548311156108f157600080fd5b600160a060020a0384166000908152600e602052604090205461091a908463ffffffff610cfa16565b600160a060020a0385166000908152600e6020526040902055600c54610946908463ffffffff610cfa16565b600c555060019392505050565b600154604080517fa1d658b1000000000000000000000000000000000000000000000000000000008152600160a060020a0384811660048301529151600093929092169163a1d658b19160248082019260209290919082900301818787803b15801561063a57600080fd5b6000336109ca816105cf565b15156109d557600080fd5b6000806109e487878785610b75565b905080156109f7576001935050506109fe565b6000935050505b509392505050565b600033610a12816105cf565b1515610a1d57600080fd5b600d54600160a060020a03868116911614610a3757600080fd5b600160a060020a0384161515610a4c57600080fd5b600160a060020a0384161515610a6157600080fd5b600c54600090610a77908563ffffffff610d0c16565b600c55600160a060020a0385166000908152600e6020526040902054610aa3908563ffffffff610d0c16565b600160a060020a0386166000908152600e6020526040902055610ac585610d22565b15610b6b57604080517f8397cc94000000000000000000000000000000000000000000000000000000008152600160a060020a038881166004830152602482018790526044820184905291518792831691638397cc949160648083019260209291908290030181600087803b158015610b3d57600080fd5b505af1158015610b51573d6000803e3d6000fd5b505050506040513d6020811015610b6757600080fd5b5050505b60019250506109fe565b600033610b81816105cf565b1515610b8c57600080fd5b83610b9687610807565b1015610ba157600080fd5b600160a060020a0385161515610bb657600080fd5b600160a060020a0385161515610bcb57600080fd5b600160a060020a038616600090815260086020526040902054610bf4908563ffffffff610cfa16565b600160a060020a038088166000908152600860205260408082209390935590871681522054610c29908563ffffffff610d0c16565b600160a060020a038616600090815260086020526040902055610c4b85610d22565b15610cf157604080517f8397cc94000000000000000000000000000000000000000000000000000000008152600160a060020a038881166004830152602482018790526044820186905291518792831691638397cc949160648083019260209291908290030181600087803b158015610cc357600080fd5b505af1158015610cd7573d6000803e3d6000fd5b505050506040513d6020811015610ced57600080fd5b5050505b6001915061075f565b600082821115610d0657fe5b50900390565b600082820183811015610d1b57fe5b9392505050565b6000903b1190565b828054600181600116156101000203166002900490600052602060002090601f016020900481019282601f10610d6b57805160ff1916838001178555610d98565b82800160010185558215610d98579182015b82811115610d98578251825591602001919060010190610d7d565b506105cb929150610e12565b828054600181600116156101000203166002900490600052602060002090601f016020900481019282601f10610de55782800160ff19823516178555610d98565b82800160010185558215610d98579182015b82811115610d98578235825591602001919060010190610df7565b6106b691905b808211156105cb5760008155600101610e1856fea165627a7a72305820ce77f330edaa5a2f19d6186453ac8363c97a87d6ee58aee50cc97c3089f8123f0029",
  "source": "pragma solidity ^0.5.0;\nimport \"../interface/tokenInterface.sol\";\n//import \"../../receiver/receiver.sol\";\nimport \"../../libraries/SafeMath.sol\";\nimport \"./basic-token.sol\";\n\ncontract Mintable is tokenInterface, basic {\n  using SafeMath for uint256;\n  string internal _symbol;\n  string internal _name;\n  uint8 internal _decimals;\n  uint256 internal _totalSupply;\n  address internal _owner;\n/*\n  modifier  onlyOwner(address _sender_address) {\n      require(_owner == _sender_address);\n      _;\n\n        }\n*/\n\n  mapping(address => uint256) internal _balances;\n    function mintable(string calldata symbol, string calldata name, uint8 decimals) external {\n        _symbol = symbol;\n        _name = name;\n        _decimals = decimals;\n        _owner = msg.sender;\n        _totalSupply = 0;\n    }\n    function get_address() public  onlyOwnerEx(msg.sender)returns (address) {\n        return address(this);\n    }\n    function getOwner() public  onlyOwnerEx(msg.sender)returns(address) {\n        return _owner;\n    }\n\n    function balanceOf(address addr) public view  returns(uint256) { //onlyOwnerEx(msg.sender)\n        return _balances[addr];\n    }\n\n    function totalSupply() public view  returns(uint256) { //onlyOwnerEx(msg.sender)\n        return _totalSupply;\n    }\n\n    function mint(address tokenAddress, address receiver, uint256 amount) public  onlyOwnerEx(msg.sender)returns(bool) {\n      if(_owner != tokenAddress)\n        {\n            revert();\n        }\n\n        //Cannot send the newly minted tokens to get burnt\n        else if (receiver == address(0x0))\n        {\n            revert();\n        }\n        else if(receiver == address(0))\n        {\n            revert();\n        }\n        else\n        {\n            bytes32 empty;\n            _totalSupply = _totalSupply.add(amount);\n            _balances[receiver] = _balances[receiver].add(amount);\n            if (isContract(receiver)) {\n                Receiver ReceiverContract = Receiver(receiver);\n                ReceiverContract.tokenFallback(tokenAddress, amount, empty);\n            }\n            return true;\n        }\n    }\n\n    /*\n\n    function transfer(address sender,address receiver, uint256 amount, bytes32  data) external onlyOwnerEx(msg.sender)returns(bool) {\n     return  transferIntnl( sender, receiver,  amount, data) ;\n\n    }\n\n    function transferIntnl(address sender,address receiver, uint256 amount, bytes memory data)   onlyOwnerEx(msg.sender) internal returns(bool) {\n     if(balanceOf(sender) < amount)\n        {\n            revert();\n        }\n       else if (receiver == address(0x0))\n        {\n            revert();\n        }\n        else if(receiver==address(0))\n        {\n            revert();\n        }\n        else\n        {\n            //subtrack the amount of tokens from sender\n\n            _balances[sender] = _balances[sender].sub(amount);\n\n            //Add those tokens to reciever\n            _balances[receiver] = _balances[receiver].add(amount);\n\n            //If reciever is a contract ...\n            if (isContract(receiver)) {\n                Receiver Receiverontract = Receiver(receiver);\n                //Invoke the call back function on the reciever contract\n                Receiverontract.tokenFallback(sender, amount, data);\n            }\n            return true;\n        }\n    }\n\n    function transfer(address sender,address receiver, uint256 amount) external  onlyOwnerEx(msg.sender)returns(bool) {\n\n        bytes memory empty;\n        //use ERC223 transfer function\n        bool gotTransfered = transferIntnl(sender,receiver, amount, empty);\n\n        if (gotTransfered)\n          return true;\n        else\n          return false;\n\n    }\n*/\n\n    function burn(address sender,uint256 amount) public  onlyOwnerEx(msg.sender)returns(bool) {\n\n\n        //Safty check : token owner cannot burn more than the amount currently exists in their address\n       if(_balances[sender] < amount)\n        {\n            revert();\n        }\n        else\n        {\n            //burn operation :\n            _balances[sender] = _balances[sender].sub(amount);\n            _totalSupply = _totalSupply.sub(amount);\n            return true;\n        }\n    }\n\n    //private functions\n    function isContract(address addr) private view returns(bool) {\n        uint length;\n        assembly {\n            //retrieve the size of the code on target address, this needs assembly\n            length: = extcodesize(addr)\n        }\n        return (length > 0);\n    }\n\n}\n",
  "sourcePath": "/home/sergey/Documents/angels/2083nointerfaces/Angeles.VC-token-scrum-investing/contracts/tokens/implementation/mintable-token.sol",
  "compiler": {
    "name": "solc",
    "version": "0.5.0+commit.1d4f565a.Emscripten.clang"
  },
  "schemaVersion": "3.0.2",
  "updatedAt": "2019-04-03T12:24:01.849Z",
  "devdoc": {
    "methods": {}
  },
  "userdoc": {
    "methods": {}
  }
}