{
  "contractName": "Mintable",
  "abi": [
    {
      "constant": false,
      "inputs": [
        {
          "name": "symbol",
          "type": "string"
        },
        {
          "name": "name",
          "type": "string"
        },
        {
          "name": "decimals",
          "type": "uint8"
        },
        {
          "name": "totalSupply",
          "type": "uint256"
        }
      ],
      "name": "Basic",
      "outputs": [],
      "payable": false,
      "stateMutability": "nonpayable",
      "type": "function"
    },
    {
      "constant": false,
      "inputs": [
        {
          "name": "sender",
          "type": "address"
        },
        {
          "name": "receiver",
          "type": "address"
        },
        {
          "name": "amount",
          "type": "uint256"
        },
        {
          "name": "data",
          "type": "bytes32"
        }
      ],
      "name": "transfer",
      "outputs": [
        {
          "name": "",
          "type": "bool"
        }
      ],
      "payable": false,
      "stateMutability": "nonpayable",
      "type": "function"
    },
    {
      "constant": false,
      "inputs": [
        {
          "name": "newowner",
          "type": "address"
        }
      ],
      "name": "ownable",
      "outputs": [],
      "payable": false,
      "stateMutability": "nonpayable",
      "type": "function"
    },
    {
      "constant": true,
      "inputs": [],
      "name": "owner",
      "outputs": [
        {
          "name": "",
          "type": "address"
        }
      ],
      "payable": false,
      "stateMutability": "view",
      "type": "function"
    },
    {
      "constant": false,
      "inputs": [
        {
          "name": "sender",
          "type": "address"
        },
        {
          "name": "receiver",
          "type": "address"
        },
        {
          "name": "amount",
          "type": "uint256"
        }
      ],
      "name": "transfer",
      "outputs": [
        {
          "name": "",
          "type": "bool"
        }
      ],
      "payable": false,
      "stateMutability": "nonpayable",
      "type": "function"
    },
    {
      "constant": false,
      "inputs": [
        {
          "name": "newOwner",
          "type": "address"
        }
      ],
      "name": "transferOwnership",
      "outputs": [],
      "payable": false,
      "stateMutability": "nonpayable",
      "type": "function"
    },
    {
      "anonymous": false,
      "inputs": [
        {
          "indexed": false,
          "name": "previousOwner",
          "type": "address"
        },
        {
          "indexed": false,
          "name": "newOwner",
          "type": "address"
        }
      ],
      "name": "OwnershipTransferred",
      "type": "event"
    },
    {
      "constant": false,
      "inputs": [
        {
          "name": "symbol",
          "type": "string"
        },
        {
          "name": "name",
          "type": "string"
        },
        {
          "name": "decimals",
          "type": "uint8"
        }
      ],
      "name": "mintable",
      "outputs": [],
      "payable": false,
      "stateMutability": "nonpayable",
      "type": "function"
    },
    {
      "constant": false,
      "inputs": [],
      "name": "get_address",
      "outputs": [
        {
          "name": "",
          "type": "address"
        }
      ],
      "payable": false,
      "stateMutability": "nonpayable",
      "type": "function"
    },
    {
      "constant": false,
      "inputs": [],
      "name": "getOwner",
      "outputs": [
        {
          "name": "",
          "type": "address"
        }
      ],
      "payable": false,
      "stateMutability": "nonpayable",
      "type": "function"
    },
    {
      "constant": true,
      "inputs": [
        {
          "name": "addr",
          "type": "address"
        }
      ],
      "name": "balanceOf",
      "outputs": [
        {
          "name": "",
          "type": "uint256"
        }
      ],
      "payable": false,
      "stateMutability": "view",
      "type": "function"
    },
    {
      "constant": true,
      "inputs": [],
      "name": "totalSupply",
      "outputs": [
        {
          "name": "",
          "type": "uint256"
        }
      ],
      "payable": false,
      "stateMutability": "view",
      "type": "function"
    },
    {
      "constant": false,
      "inputs": [
        {
          "name": "tokenAddress",
          "type": "address"
        },
        {
          "name": "receiver",
          "type": "address"
        },
        {
          "name": "amount",
          "type": "uint256"
        }
      ],
      "name": "mint",
      "outputs": [
        {
          "name": "",
          "type": "bool"
        }
      ],
      "payable": false,
      "stateMutability": "nonpayable",
      "type": "function"
    },
    {
      "constant": false,
      "inputs": [
        {
          "name": "sender",
          "type": "address"
        },
        {
          "name": "amount",
          "type": "uint256"
        }
      ],
      "name": "burn",
      "outputs": [
        {
          "name": "",
          "type": "bool"
        }
      ],
      "payable": false,
      "stateMutability": "nonpayable",
      "type": "function"
    }
  ],
  "bytecode": "0x608060405234801561001057600080fd5b50611617806100206000396000f3fe6080604052600436106100c5576000357c0100000000000000000000000000000000000000000000000000000000900463ffffffff1680630131222f146100ca57806318160ddd14610121578063187fe1471461014c578063323a1a5c146102c257806364a04b591461035f578063703b9372146103b057806370a0823114610498578063893d20e8146104fd5780638da5cb5b146105545780639dc29fac146105ab578063beabacc81461061e578063c6c3bbe6146106b1578063f2fde38b14610744575b600080fd5b3480156100d657600080fd5b506100df610795565b604051808273ffffffffffffffffffffffffffffffffffffffff1673ffffffffffffffffffffffffffffffffffffffff16815260200191505060405180910390f35b34801561012d57600080fd5b506101366107e0565b6040518082815260200191505060405180910390f35b34801561015857600080fd5b506102c06004803603608081101561016f57600080fd5b810190808035906020019064010000000081111561018c57600080fd5b82018360208201111561019e57600080fd5b803590602001918460018302840111640100000000831117156101c057600080fd5b91908080601f016020809104026020016040519081016040528093929190818152602001838380828437600081840152601f19601f8201169050808301925050505050505091929192908035906020019064010000000081111561022357600080fd5b82018360208201111561023557600080fd5b8035906020019184600183028401116401000000008311171561025757600080fd5b91908080601f016020809104026020016040519081016040528093929190818152602001838380828437600081840152601f19601f820116905080830192505050505050509192919290803560ff1690602001909291908035906020019092919050505061082d565b005b3480156102ce57600080fd5b50610345600480360360808110156102e557600080fd5b81019080803573ffffffffffffffffffffffffffffffffffffffff169060200190929190803573ffffffffffffffffffffffffffffffffffffffff169060200190929190803590602001909291908035906020019092919050505061092a565b604051808215151515815260200191505060405180910390f35b34801561036b57600080fd5b506103ae6004803603602081101561038257600080fd5b81019080803573ffffffffffffffffffffffffffffffffffffffff169060200190929190505050610985565b005b3480156103bc57600080fd5b50610496600480360360608110156103d357600080fd5b81019080803590602001906401000000008111156103f057600080fd5b82018360208201111561040257600080fd5b8035906020019184600183028401116401000000008311171561042457600080fd5b90919293919293908035906020019064010000000081111561044557600080fd5b82018360208201111561045757600080fd5b8035906020019184600183028401116401000000008311171561047957600080fd5b9091929391929390803560ff1690602001909291905050506109d2565b005b3480156104a457600080fd5b506104e7600480360360208110156104bb57600080fd5b81019080803573ffffffffffffffffffffffffffffffffffffffff169060200190929190505050610a61565b6040518082815260200191505060405180910390f35b34801561050957600080fd5b50610512610aed565b604051808273ffffffffffffffffffffffffffffffffffffffff1673ffffffffffffffffffffffffffffffffffffffff16815260200191505060405180910390f35b34801561056057600080fd5b50610569610b5a565b604051808273ffffffffffffffffffffffffffffffffffffffff1673ffffffffffffffffffffffffffffffffffffffff16815260200191505060405180910390f35b3480156105b757600080fd5b50610604600480360360408110156105ce57600080fd5b81019080803573ffffffffffffffffffffffffffffffffffffffff16906020019092919080359060200190929190505050610b83565b604051808215151515815260200191505060405180910390f35b34801561062a57600080fd5b506106976004803603606081101561064157600080fd5b81019080803573ffffffffffffffffffffffffffffffffffffffff169060200190929190803573ffffffffffffffffffffffffffffffffffffffff16906020019092919080359060200190929190505050610cce565b604051808215151515815260200191505060405180910390f35b3480156106bd57600080fd5b5061072a600480360360608110156106d457600080fd5b81019080803573ffffffffffffffffffffffffffffffffffffffff169060200190929190803573ffffffffffffffffffffffffffffffffffffffff16906020019092919080359060200190929190505050610d43565b604051808215151515815260200191505060405180910390f35b34801561075057600080fd5b506107936004803603602081101561076757600080fd5b81019080803573ffffffffffffffffffffffffffffffffffffffff169060200190929190505050611012565b005b6000338073ffffffffffffffffffffffffffffffffffffffff166107b7610b5a565b73ffffffffffffffffffffffffffffffffffffffff161415156107d957600080fd5b3091505090565b6000338073ffffffffffffffffffffffffffffffffffffffff16610802610b5a565b73ffffffffffffffffffffffffffffffffffffffff1614151561082457600080fd5b600a5491505090565b83600190805190602001906108439291906114c6565b50826002908051906020019061085a9291906114c6565b5081600360006101000a81548160ff021916908360ff16021790555033600560006101000a81548173ffffffffffffffffffffffffffffffffffffffff021916908373ffffffffffffffffffffffffffffffffffffffff1602179055508060066000600560009054906101000a900473ffffffffffffffffffffffffffffffffffffffff1673ffffffffffffffffffffffffffffffffffffffff1673ffffffffffffffffffffffffffffffffffffffff168152602001908152602001600020819055508060048190555050505050565b6000338073ffffffffffffffffffffffffffffffffffffffff1661094c610b5a565b73ffffffffffffffffffffffffffffffffffffffff1614151561096e57600080fd5b61097a86868686611139565b915050949350505050565b61098d610b5a565b73ffffffffffffffffffffffffffffffffffffffff163373ffffffffffffffffffffffffffffffffffffffff161415156109c657600080fd5b6109cf81611439565b50565b8484600791906109e3929190611546565b508282600891906109f5929190611546565b5080600960006101000a81548160ff021916908360ff16021790555033600b60006101000a81548173ffffffffffffffffffffffffffffffffffffffff021916908373ffffffffffffffffffffffffffffffffffffffff1602179055506000600a819055505050505050565b6000338073ffffffffffffffffffffffffffffffffffffffff16610a83610b5a565b73ffffffffffffffffffffffffffffffffffffffff16141515610aa557600080fd5b600c60008473ffffffffffffffffffffffffffffffffffffffff1673ffffffffffffffffffffffffffffffffffffffff16815260200190815260200160002054915050919050565b6000338073ffffffffffffffffffffffffffffffffffffffff16610b0f610b5a565b73ffffffffffffffffffffffffffffffffffffffff16141515610b3157600080fd5b600b60009054906101000a900473ffffffffffffffffffffffffffffffffffffffff1691505090565b60008060009054906101000a900473ffffffffffffffffffffffffffffffffffffffff16905090565b6000338073ffffffffffffffffffffffffffffffffffffffff16610ba5610b5a565b73ffffffffffffffffffffffffffffffffffffffff16141515610bc757600080fd5b82600c60008673ffffffffffffffffffffffffffffffffffffffff1673ffffffffffffffffffffffffffffffffffffffff168152602001908152602001600020541015610c1357600080fd5b610c6583600c60008773ffffffffffffffffffffffffffffffffffffffff1673ffffffffffffffffffffffffffffffffffffffff1681526020019081526020016000205461147c90919063ffffffff16565b600c60008673ffffffffffffffffffffffffffffffffffffffff1673ffffffffffffffffffffffffffffffffffffffff16815260200190815260200160002081905550610cbd83600a5461147c90919063ffffffff16565b600a81905550600191505092915050565b6000338073ffffffffffffffffffffffffffffffffffffffff16610cf0610b5a565b73ffffffffffffffffffffffffffffffffffffffff16141515610d1257600080fd5b600080610d2187878785611139565b90508015610d3457600193505050610d3b565b6000935050505b509392505050565b6000338073ffffffffffffffffffffffffffffffffffffffff16610d65610b5a565b73ffffffffffffffffffffffffffffffffffffffff16141515610d8757600080fd5b8473ffffffffffffffffffffffffffffffffffffffff16600b60009054906101000a900473ffffffffffffffffffffffffffffffffffffffff1673ffffffffffffffffffffffffffffffffffffffff16141515610de357600080fd5b600073ffffffffffffffffffffffffffffffffffffffff168473ffffffffffffffffffffffffffffffffffffffff161415610e1d57600080fd5b600073ffffffffffffffffffffffffffffffffffffffff168473ffffffffffffffffffffffffffffffffffffffff161415610e5757600080fd5b6000610e6e84600a5461149590919063ffffffff16565b600a81905550610ec684600c60008873ffffffffffffffffffffffffffffffffffffffff1673ffffffffffffffffffffffffffffffffffffffff1681526020019081526020016000205461149590919063ffffffff16565b600c60008773ffffffffffffffffffffffffffffffffffffffff1673ffffffffffffffffffffffffffffffffffffffff16815260200190815260200160002081905550610f12856114b3565b156110055760008590508073ffffffffffffffffffffffffffffffffffffffff16638397cc948887856040518463ffffffff167c0100000000000000000000000000000000000000000000000000000000028152600401808473ffffffffffffffffffffffffffffffffffffffff1673ffffffffffffffffffffffffffffffffffffffff1681526020018381526020018281526020019350505050602060405180830381600087803b158015610fc757600080fd5b505af1158015610fdb573d6000803e3d6000fd5b505050506040513d6020811015610ff157600080fd5b810190808051906020019092919050505050505b6001925050509392505050565b61101a610b5a565b73ffffffffffffffffffffffffffffffffffffffff163373ffffffffffffffffffffffffffffffffffffffff1614151561105357600080fd5b600073ffffffffffffffffffffffffffffffffffffffff168173ffffffffffffffffffffffffffffffffffffffff161415151561108f57600080fd5b7f8be0079c531659141344cd1fd0a4f28419497f9722a3daafe3b4186f6b6457e06110b8610b5a565b82604051808373ffffffffffffffffffffffffffffffffffffffff1673ffffffffffffffffffffffffffffffffffffffff1681526020018273ffffffffffffffffffffffffffffffffffffffff1673ffffffffffffffffffffffffffffffffffffffff1681526020019250505060405180910390a161113681611439565b50565b6000338073ffffffffffffffffffffffffffffffffffffffff1661115b610b5a565b73ffffffffffffffffffffffffffffffffffffffff1614151561117d57600080fd5b8361118787610a61565b101561119257600080fd5b600073ffffffffffffffffffffffffffffffffffffffff168573ffffffffffffffffffffffffffffffffffffffff1614156111cc57600080fd5b600073ffffffffffffffffffffffffffffffffffffffff168573ffffffffffffffffffffffffffffffffffffffff16141561120657600080fd5b61125884600660008973ffffffffffffffffffffffffffffffffffffffff1673ffffffffffffffffffffffffffffffffffffffff1681526020019081526020016000205461147c90919063ffffffff16565b600660008873ffffffffffffffffffffffffffffffffffffffff1673ffffffffffffffffffffffffffffffffffffffff168152602001908152602001600020819055506112ed84600660008873ffffffffffffffffffffffffffffffffffffffff1673ffffffffffffffffffffffffffffffffffffffff1681526020019081526020016000205461149590919063ffffffff16565b600660008773ffffffffffffffffffffffffffffffffffffffff1673ffffffffffffffffffffffffffffffffffffffff16815260200190815260200160002081905550611339856114b3565b1561142c5760008590508073ffffffffffffffffffffffffffffffffffffffff16638397cc948887876040518463ffffffff167c0100000000000000000000000000000000000000000000000000000000028152600401808473ffffffffffffffffffffffffffffffffffffffff1673ffffffffffffffffffffffffffffffffffffffff1681526020018381526020018281526020019350505050602060405180830381600087803b1580156113ee57600080fd5b505af1158015611402573d6000803e3d6000fd5b505050506040513d602081101561141857600080fd5b810190808051906020019092919050505050505b6001915050949350505050565b806000806101000a81548173ffffffffffffffffffffffffffffffffffffffff021916908373ffffffffffffffffffffffffffffffffffffffff16021790555050565b600082821115151561148a57fe5b818303905092915050565b60008082840190508381101515156114a957fe5b8091505092915050565b600080823b905060008111915050919050565b828054600181600116156101000203166002900490600052602060002090601f016020900481019282601f1061150757805160ff1916838001178555611535565b82800160010185558215611535579182015b82811115611534578251825591602001919060010190611519565b5b50905061154291906115c6565b5090565b828054600181600116156101000203166002900490600052602060002090601f016020900481019282601f1061158757803560ff19168380011785556115b5565b828001600101855582156115b5579182015b828111156115b4578235825591602001919060010190611599565b5b5090506115c291906115c6565b5090565b6115e891905b808211156115e45760008160009055506001016115cc565b5090565b9056fea165627a7a723058205afe8ea46a6f2603206f07a88010e1f3b9acecbac865d0bb4b6d6b43e6aa5b890029",
  "source": "pragma solidity ^0.5.0;\nimport \"../interface/token-interface.sol\";\nimport \"../../receiver/receiver.sol\";\nimport \"../../libraries/SafeMath.sol\";\nimport \"./basic-token.sol\";\n\ncontract Mintable is tokenInterface, basic {\n  using SafeMath for uint256;\n  string internal _symbol;\n  string internal _name;\n  uint8 internal _decimals;\n  uint256 internal _totalSupply;\n  address internal _owner;\n/*\n  modifier  onlyOwner(address _sender_address) {\n      require(_owner == _sender_address);\n      _;\n\n        }\n*/\n\n  mapping(address => uint256) internal _balances;\n    function mintable(string calldata symbol, string calldata name, uint8 decimals) external {\n        _symbol = symbol;\n        _name = name;\n        _decimals = decimals;\n        _owner = msg.sender;\n        _totalSupply = 0;\n    }\n    function get_address() public  onlyOwnerEx(msg.sender)returns (address) {\n        return address(this);\n    }\n    function getOwner() public  onlyOwnerEx(msg.sender)returns(address) {\n        return _owner;\n    }\n\n    function balanceOf(address addr) public view  onlyOwnerEx(msg.sender)returns(uint256) {\n        return _balances[addr];\n    }\n\n    function totalSupply() public view  onlyOwnerEx(msg.sender)returns(uint256) {\n        return _totalSupply;\n    }\n\n    function mint(address tokenAddress, address receiver, uint256 amount) public  onlyOwnerEx(msg.sender)returns(bool) {\n      if(_owner != tokenAddress)\n        {\n            revert();\n        }\n\n        //Cannot send the newly minted tokens to get burnt\n        else if (receiver == address(0x0))\n        {\n            revert();\n        }\n        else if(receiver == address(0))\n        {\n            revert();\n        }\n        else\n        {\n            bytes32 empty;\n            _totalSupply = _totalSupply.add(amount);\n            _balances[receiver] = _balances[receiver].add(amount);\n            if (isContract(receiver)) {\n                Receiver ReceiverContract = Receiver(receiver);\n                ReceiverContract.tokenFallback(tokenAddress, amount, empty);\n            }\n            return true;\n        }\n    }\n\n    /*\n\n    function transfer(address sender,address receiver, uint256 amount, bytes32  data) external onlyOwnerEx(msg.sender)returns(bool) {\n     return  transferIntnl( sender, receiver,  amount, data) ;\n\n    }\n\n    function transferIntnl(address sender,address receiver, uint256 amount, bytes memory data)   onlyOwnerEx(msg.sender) internal returns(bool) {\n     if(balanceOf(sender) < amount)\n        {\n            revert();\n        }\n       else if (receiver == address(0x0))\n        {\n            revert();\n        }\n        else if(receiver==address(0))\n        {\n            revert();\n        }\n        else\n        {\n            //subtrack the amount of tokens from sender\n\n            _balances[sender] = _balances[sender].sub(amount);\n\n            //Add those tokens to reciever\n            _balances[receiver] = _balances[receiver].add(amount);\n\n            //If reciever is a contract ...\n            if (isContract(receiver)) {\n                Receiver Receiverontract = Receiver(receiver);\n                //Invoke the call back function on the reciever contract\n                Receiverontract.tokenFallback(sender, amount, data);\n            }\n            return true;\n        }\n    }\n\n    function transfer(address sender,address receiver, uint256 amount) external  onlyOwnerEx(msg.sender)returns(bool) {\n\n        bytes memory empty;\n        //use ERC223 transfer function\n        bool gotTransfered = transferIntnl(sender,receiver, amount, empty);\n\n        if (gotTransfered)\n          return true;\n        else\n          return false;\n\n    }\n*/\n\n    function burn(address sender,uint256 amount) public  onlyOwnerEx(msg.sender)returns(bool) {\n\n\n        //Safty check : token owner cannot burn more than the amount currently exists in their address\n       if(_balances[sender] < amount)\n        {\n            revert();\n        }\n        else\n        {\n            //burn operation :\n            _balances[sender] = _balances[sender].sub(amount);\n            _totalSupply = _totalSupply.sub(amount);\n            return true;\n        }\n    }\n\n    //private functions\n    function isContract(address addr) private view returns(bool) {\n        uint length;\n        assembly {\n            //retrieve the size of the code on target address, this needs assembly\n            length: = extcodesize(addr)\n        }\n        return (length > 0);\n    }\n\n}\n",
  "sourcePath": "/home/sergey/Documents/angels/Angeles.VC-token-scrum-investing/contracts/tokens/implementation/mintable-token.sol",
  "compiler": {
    "name": "solc",
    "version": "0.5.0+commit.1d4f565a.Emscripten.clang"
  },
  "schemaVersion": "3.0.2",
  "updatedAt": "2019-03-25T06:59:12.679Z",
  "devdoc": {
    "methods": {
      "ownable(address)": {
        "details": "The constructor sets the original owner of the contract to the sender account."
      },
      "owner()": {
        "details": "Tells the address of the owner",
        "return": "the address of the owner"
      },
      "transferOwnership(address)": {
        "details": "Allows the current owner to transfer control of the contract to a newOwner.",
        "params": {
          "newOwner": "The address to transfer ownership to."
        }
      }
    }
  },
  "userdoc": {
    "methods": {}
  }
}