{
  "contractName": "Mintable",
  "abi": [
    {
      "constant": false,
      "inputs": [
        {
          "name": "symbol",
          "type": "string"
        },
        {
          "name": "name",
          "type": "string"
        },
        {
          "name": "decimals",
          "type": "uint8"
        },
        {
          "name": "totalSupply",
          "type": "uint256"
        }
      ],
      "name": "Basic",
      "outputs": [],
      "payable": false,
      "stateMutability": "nonpayable",
      "type": "function"
    },
    {
      "constant": false,
      "inputs": [
        {
          "name": "sender",
          "type": "address"
        },
        {
          "name": "receiver",
          "type": "address"
        },
        {
          "name": "amount",
          "type": "uint256"
        },
        {
          "name": "data",
          "type": "bytes32"
        }
      ],
      "name": "transfer",
      "outputs": [
        {
          "name": "",
          "type": "bool"
        }
      ],
      "payable": false,
      "stateMutability": "nonpayable",
      "type": "function"
    },
    {
      "constant": false,
      "inputs": [
        {
          "name": "newowner",
          "type": "address"
        }
      ],
      "name": "ownable",
      "outputs": [],
      "payable": false,
      "stateMutability": "nonpayable",
      "type": "function"
    },
    {
      "constant": true,
      "inputs": [],
      "name": "owner",
      "outputs": [
        {
          "name": "",
          "type": "address"
        }
      ],
      "payable": false,
      "stateMutability": "view",
      "type": "function"
    },
    {
      "constant": false,
      "inputs": [
        {
          "name": "sender",
          "type": "address"
        },
        {
          "name": "receiver",
          "type": "address"
        },
        {
          "name": "amount",
          "type": "uint256"
        }
      ],
      "name": "transfer",
      "outputs": [
        {
          "name": "",
          "type": "bool"
        }
      ],
      "payable": false,
      "stateMutability": "nonpayable",
      "type": "function"
    },
    {
      "constant": false,
      "inputs": [
        {
          "name": "newOwner",
          "type": "address"
        }
      ],
      "name": "transferOwnership",
      "outputs": [],
      "payable": false,
      "stateMutability": "nonpayable",
      "type": "function"
    },
    {
      "anonymous": false,
      "inputs": [
        {
          "indexed": false,
          "name": "previousOwner",
          "type": "address"
        },
        {
          "indexed": false,
          "name": "newOwner",
          "type": "address"
        }
      ],
      "name": "OwnershipTransferred",
      "type": "event"
    },
    {
      "constant": false,
      "inputs": [
        {
          "name": "symbol",
          "type": "string"
        },
        {
          "name": "name",
          "type": "string"
        },
        {
          "name": "decimals",
          "type": "uint8"
        }
      ],
      "name": "mintable",
      "outputs": [],
      "payable": false,
      "stateMutability": "nonpayable",
      "type": "function"
    },
    {
      "constant": false,
      "inputs": [],
      "name": "get_address",
      "outputs": [
        {
          "name": "",
          "type": "address"
        }
      ],
      "payable": false,
      "stateMutability": "nonpayable",
      "type": "function"
    },
    {
      "constant": false,
      "inputs": [],
      "name": "getOwner",
      "outputs": [
        {
          "name": "",
          "type": "address"
        }
      ],
      "payable": false,
      "stateMutability": "nonpayable",
      "type": "function"
    },
    {
      "constant": true,
      "inputs": [
        {
          "name": "addr",
          "type": "address"
        }
      ],
      "name": "balanceOf",
      "outputs": [
        {
          "name": "",
          "type": "uint256"
        }
      ],
      "payable": false,
      "stateMutability": "view",
      "type": "function"
    },
    {
      "constant": true,
      "inputs": [],
      "name": "totalSupply",
      "outputs": [
        {
          "name": "",
          "type": "uint256"
        }
      ],
      "payable": false,
      "stateMutability": "view",
      "type": "function"
    },
    {
      "constant": false,
      "inputs": [
        {
          "name": "tokenAddress",
          "type": "address"
        },
        {
          "name": "receiver",
          "type": "address"
        },
        {
          "name": "amount",
          "type": "uint256"
        }
      ],
      "name": "mint",
      "outputs": [
        {
          "name": "",
          "type": "bool"
        }
      ],
      "payable": false,
      "stateMutability": "nonpayable",
      "type": "function"
    },
    {
      "constant": false,
      "inputs": [
        {
          "name": "sender",
          "type": "address"
        },
        {
          "name": "amount",
          "type": "uint256"
        }
      ],
      "name": "burn",
      "outputs": [
        {
          "name": "",
          "type": "bool"
        }
      ],
      "payable": false,
      "stateMutability": "nonpayable",
      "type": "function"
    }
  ],
  "bytecode": "0x608060405234801561001057600080fd5b50610d24806100206000396000f3fe6080604052600436106100c45763ffffffff7c01000000000000000000000000000000000000000000000000000000006000350416630131222f81146100c957806318160ddd146100fa578063187fe14714610121578063323a1a5c1461026557806364a04b59146102c2578063703b9372146102f557806370a08231146103c7578063893d20e8146103fa5780638da5cb5b1461040f5780639dc29fac14610424578063beabacc81461045d578063c6c3bbe6146104a0578063f2fde38b146104e3575b600080fd5b3480156100d557600080fd5b506100de610516565b60408051600160a060020a039092168252519081900360200190f35b34801561010657600080fd5b5061010f61053d565b60408051918252519081900360200190f35b34801561012d57600080fd5b506102636004803603608081101561014457600080fd5b81019060208101813564010000000081111561015f57600080fd5b82018360208201111561017157600080fd5b8035906020019184600183028401116401000000008311171561019357600080fd5b91908080601f01602080910402602001604051908101604052809392919081815260200183838082843760009201919091525092959493602081019350359150506401000000008111156101e657600080fd5b8201836020820111156101f857600080fd5b8035906020019184600183028401116401000000008311171561021a57600080fd5b91908080601f0160208091040260200160405190810160405280939291908181526020018383808284376000920191909152509295505060ff8335169350505060200135610564565b005b34801561027157600080fd5b506102ae6004803603608081101561028857600080fd5b50600160a060020a038135811691602081013590911690604081013590606001356105e4565b604080519115158252519081900360200190f35b3480156102ce57600080fd5b50610263600480360360208110156102e557600080fd5b5035600160a060020a031661061b565b34801561030157600080fd5b506102636004803603606081101561031857600080fd5b81019060208101813564010000000081111561033357600080fd5b82018360208201111561034557600080fd5b8035906020019184600183028401116401000000008311171561036757600080fd5b91939092909160208101903564010000000081111561038557600080fd5b82018360208201111561039757600080fd5b803590602001918460018302840111640100000000831117156103b957600080fd5b91935091503560ff16610643565b3480156103d357600080fd5b5061010f600480360360208110156103ea57600080fd5b5035600160a060020a031661069c565b34801561040657600080fd5b506100de6106d8565b34801561041b57600080fd5b506100de610708565b34801561043057600080fd5b506102ae6004803603604081101561044757600080fd5b50600160a060020a038135169060200135610718565b34801561046957600080fd5b506102ae6004803603606081101561048057600080fd5b50600160a060020a038135811691602081013590911690604001356107be565b3480156104ac57600080fd5b506102ae600480360360608110156104c357600080fd5b50600160a060020a0381358116916020810135909116906040013561080e565b3480156104ef57600080fd5b506102636004803603602081101561050657600080fd5b5035600160a060020a0316610985565b60003380610522610708565b600160a060020a03161461053557600080fd5b3091505b5090565b60003380610549610708565b600160a060020a03161461055c57600080fd5b5050600a5490565b8351610577906001906020870190610bf6565b50825161058b906002906020860190610bf6565b506003805460ff90931660ff19909316929092179091556005805473ffffffffffffffffffffffffffffffffffffffff1916331790819055600160a060020a031660009081526006602052604090208190556004555050565b600033806105f0610708565b600160a060020a03161461060357600080fd5b61060f86868686610a0a565b91505b50949350505050565b610623610708565b600160a060020a0316331461063757600080fd5b61064081610b97565b50565b61064f60078686610c70565b5061065c60088484610c70565b506009805460ff90921660ff199092169190911790555050600b805473ffffffffffffffffffffffffffffffffffffffff19163317905550506000600a55565b600033806106a8610708565b600160a060020a0316146106bb57600080fd5b5050600160a060020a03166000908152600c602052604090205490565b600033806106e4610708565b600160a060020a0316146106f757600080fd5b5050600b54600160a060020a031690565b600054600160a060020a03165b90565b60003380610724610708565b600160a060020a03161461073757600080fd5b600160a060020a0384166000908152600c602052604090205483111561075c57600080fd5b600160a060020a0384166000908152600c6020526040902054610785908463ffffffff610bc616565b600160a060020a0385166000908152600c6020526040902055600a546107b1908463ffffffff610bc616565b600a555060019392505050565b600033806107ca610708565b600160a060020a0316146107dd57600080fd5b6000806107ec87878785610a0a565b905080156107ff57600193505050610806565b6000935050505b509392505050565b6000338061081a610708565b600160a060020a03161461082d57600080fd5b600b54600160a060020a0386811691161461084757600080fd5b600160a060020a038416151561085c57600080fd5b600160a060020a038416151561087157600080fd5b600a54600090610887908563ffffffff610bd816565b600a55600160a060020a0385166000908152600c60205260409020546108b3908563ffffffff610bd816565b600160a060020a0386166000908152600c60205260409020556108d585610bee565b1561097b57604080517f8397cc94000000000000000000000000000000000000000000000000000000008152600160a060020a038881166004830152602482018790526044820184905291518792831691638397cc949160648083019260209291908290030181600087803b15801561094d57600080fd5b505af1158015610961573d6000803e3d6000fd5b505050506040513d602081101561097757600080fd5b5050505b6001925050610806565b61098d610708565b600160a060020a031633146109a157600080fd5b600160a060020a03811615156109b657600080fd5b7f8be0079c531659141344cd1fd0a4f28419497f9722a3daafe3b4186f6b6457e06109df610708565b60408051600160a060020a03928316815291841660208301528051918290030190a161064081610b97565b60003380610a16610708565b600160a060020a031614610a2957600080fd5b83610a338761069c565b1015610a3e57600080fd5b600160a060020a0385161515610a5357600080fd5b600160a060020a0385161515610a6857600080fd5b600160a060020a038616600090815260066020526040902054610a91908563ffffffff610bc616565b600160a060020a038088166000908152600660205260408082209390935590871681522054610ac6908563ffffffff610bd816565b600160a060020a038616600090815260066020526040902055610ae885610bee565b15610b8e57604080517f8397cc94000000000000000000000000000000000000000000000000000000008152600160a060020a038881166004830152602482018790526044820186905291518792831691638397cc949160648083019260209291908290030181600087803b158015610b6057600080fd5b505af1158015610b74573d6000803e3d6000fd5b505050506040513d6020811015610b8a57600080fd5b5050505b60019150610612565b6000805473ffffffffffffffffffffffffffffffffffffffff1916600160a060020a0392909216919091179055565b600082821115610bd257fe5b50900390565b600082820183811015610be757fe5b9392505050565b6000903b1190565b828054600181600116156101000203166002900490600052602060002090601f016020900481019282601f10610c3757805160ff1916838001178555610c64565b82800160010185558215610c64579182015b82811115610c64578251825591602001919060010190610c49565b50610539929150610cde565b828054600181600116156101000203166002900490600052602060002090601f016020900481019282601f10610cb15782800160ff19823516178555610c64565b82800160010185558215610c64579182015b82811115610c64578235825591602001919060010190610cc3565b61071591905b808211156105395760008155600101610ce456fea165627a7a723058200cd94cfbbbf9b46e50c85b24e6d66ee5164b90b50f5d03466f42e0800bebe9290029",
  "source": "pragma solidity ^0.5.0;\nimport \"../interface/token-interface.sol\";\nimport \"../../receiver/receiver.sol\";\nimport \"../../libraries/SafeMath.sol\";\nimport \"./basic-token.sol\";\n\ncontract Mintable is tokenInterface, basic {\n  using SafeMath for uint256;\n  string internal _symbol;\n  string internal _name;\n  uint8 internal _decimals;\n  uint256 internal _totalSupply;\n  address internal _owner;\n/*\n  modifier  onlyOwner(address _sender_address) {\n      require(_owner == _sender_address);\n      _;\n\n        }\n*/\n\n  mapping(address => uint256) internal _balances;\n    function mintable(string calldata symbol, string calldata name, uint8 decimals) external {\n        _symbol = symbol;\n        _name = name;\n        _decimals = decimals;\n        _owner = msg.sender;\n        _totalSupply = 0;\n    }\n    function get_address() public  onlyOwnerEx(msg.sender)returns (address) {\n        return address(this);\n    }\n    function getOwner() public  onlyOwnerEx(msg.sender)returns(address) {\n        return _owner;\n    }\n\n    function balanceOf(address addr) public view  onlyOwnerEx(msg.sender)returns(uint256) {\n        return _balances[addr];\n    }\n\n    function totalSupply() public view  onlyOwnerEx(msg.sender)returns(uint256) {\n        return _totalSupply;\n    }\n\n    function mint(address tokenAddress, address receiver, uint256 amount) public  onlyOwnerEx(msg.sender)returns(bool) {\n      if(_owner != tokenAddress)\n        {\n            revert();\n        }\n\n        //Cannot send the newly minted tokens to get burnt\n        else if (receiver == address(0x0))\n        {\n            revert();\n        }\n        else if(receiver == address(0))\n        {\n            revert();\n        }\n        else\n        {\n            bytes32 empty;\n            _totalSupply = _totalSupply.add(amount);\n            _balances[receiver] = _balances[receiver].add(amount);\n            if (isContract(receiver)) {\n                Receiver ReceiverContract = Receiver(receiver);\n                ReceiverContract.tokenFallback(tokenAddress, amount, empty);\n            }\n            return true;\n        }\n    }\n\n    /*\n\n    function transfer(address sender,address receiver, uint256 amount, bytes32  data) external onlyOwnerEx(msg.sender)returns(bool) {\n     return  transferIntnl( sender, receiver,  amount, data) ;\n\n    }\n\n    function transferIntnl(address sender,address receiver, uint256 amount, bytes memory data)   onlyOwnerEx(msg.sender) internal returns(bool) {\n     if(balanceOf(sender) < amount)\n        {\n            revert();\n        }\n       else if (receiver == address(0x0))\n        {\n            revert();\n        }\n        else if(receiver==address(0))\n        {\n            revert();\n        }\n        else\n        {\n            //subtrack the amount of tokens from sender\n\n            _balances[sender] = _balances[sender].sub(amount);\n\n            //Add those tokens to reciever\n            _balances[receiver] = _balances[receiver].add(amount);\n\n            //If reciever is a contract ...\n            if (isContract(receiver)) {\n                Receiver Receiverontract = Receiver(receiver);\n                //Invoke the call back function on the reciever contract\n                Receiverontract.tokenFallback(sender, amount, data);\n            }\n            return true;\n        }\n    }\n\n    function transfer(address sender,address receiver, uint256 amount) external  onlyOwnerEx(msg.sender)returns(bool) {\n\n        bytes memory empty;\n        //use ERC223 transfer function\n        bool gotTransfered = transferIntnl(sender,receiver, amount, empty);\n\n        if (gotTransfered)\n          return true;\n        else\n          return false;\n\n    }\n*/\n\n    function burn(address sender,uint256 amount) public  onlyOwnerEx(msg.sender)returns(bool) {\n\n\n        //Safty check : token owner cannot burn more than the amount currently exists in their address\n       if(_balances[sender] < amount)\n        {\n            revert();\n        }\n        else\n        {\n            //burn operation :\n            _balances[sender] = _balances[sender].sub(amount);\n            _totalSupply = _totalSupply.sub(amount);\n            return true;\n        }\n    }\n\n    //private functions\n    function isContract(address addr) private view returns(bool) {\n        uint length;\n        assembly {\n            //retrieve the size of the code on target address, this needs assembly\n            length: = extcodesize(addr)\n        }\n        return (length > 0);\n    }\n\n}\n",
  "sourcePath": "/home/sergey/Documents/angels/Angeles.VC-token-scrum-investing/contracts/tokens/implementation/mintable-token.sol",
  "compiler": {
    "name": "solc",
    "version": "0.5.0+commit.1d4f565a.Emscripten.clang"
  },
  "schemaVersion": "3.0.2",
  "updatedAt": "2019-03-26T11:37:43.521Z",
  "devdoc": {
    "methods": {
      "ownable(address)": {
        "details": "The constructor sets the original owner of the contract to the sender account."
      },
      "owner()": {
        "details": "Tells the address of the owner",
        "return": "the address of the owner"
      },
      "transferOwnership(address)": {
        "details": "Allows the current owner to transfer control of the contract to a newOwner.",
        "params": {
          "newOwner": "The address to transfer ownership to."
        }
      }
    }
  },
  "userdoc": {
    "methods": {}
  }
}