{
  "contractName": "Mintable",
  "abi": [
    {
      "constant": false,
      "inputs": [
        {
          "name": "_sender_address",
          "type": "address"
        }
      ],
      "name": "check_owner",
      "outputs": [
        {
          "name": "",
          "type": "bool"
        }
      ],
      "payable": false,
      "stateMutability": "nonpayable",
      "type": "function"
    },
    {
      "constant": false,
      "inputs": [
        {
          "name": "symbol",
          "type": "string"
        },
        {
          "name": "name",
          "type": "string"
        },
        {
          "name": "decimals",
          "type": "uint8"
        },
        {
          "name": "totalSupply",
          "type": "uint256"
        }
      ],
      "name": "Basic",
      "outputs": [],
      "payable": false,
      "stateMutability": "nonpayable",
      "type": "function"
    },
    {
      "constant": false,
      "inputs": [
        {
          "name": "sender",
          "type": "address"
        },
        {
          "name": "receiver",
          "type": "address"
        },
        {
          "name": "amount",
          "type": "uint256"
        },
        {
          "name": "data",
          "type": "bytes32"
        }
      ],
      "name": "transfer",
      "outputs": [
        {
          "name": "",
          "type": "bool"
        }
      ],
      "payable": false,
      "stateMutability": "nonpayable",
      "type": "function"
    },
    {
      "constant": false,
      "inputs": [
        {
          "name": "BasicAdministratableaddr",
          "type": "address"
        }
      ],
      "name": "_initAdministratable",
      "outputs": [],
      "payable": false,
      "stateMutability": "nonpayable",
      "type": "function"
    },
    {
      "constant": false,
      "inputs": [
        {
          "name": "msgSender",
          "type": "address"
        }
      ],
      "name": "checkAdmin",
      "outputs": [
        {
          "name": "",
          "type": "bool"
        }
      ],
      "payable": false,
      "stateMutability": "nonpayable",
      "type": "function"
    },
    {
      "constant": false,
      "inputs": [
        {
          "name": "msgSender",
          "type": "address"
        }
      ],
      "name": "checkSuperAdmin",
      "outputs": [
        {
          "name": "",
          "type": "bool"
        }
      ],
      "payable": false,
      "stateMutability": "nonpayable",
      "type": "function"
    },
    {
      "constant": false,
      "inputs": [
        {
          "name": "sender",
          "type": "address"
        },
        {
          "name": "receiver",
          "type": "address"
        },
        {
          "name": "amount",
          "type": "uint256"
        }
      ],
      "name": "transfer",
      "outputs": [
        {
          "name": "",
          "type": "bool"
        }
      ],
      "payable": false,
      "stateMutability": "nonpayable",
      "type": "function"
    },
    {
      "constant": false,
      "inputs": [
        {
          "name": "symbol",
          "type": "string"
        },
        {
          "name": "name",
          "type": "string"
        },
        {
          "name": "decimals",
          "type": "uint8"
        }
      ],
      "name": "mintable",
      "outputs": [],
      "payable": false,
      "stateMutability": "nonpayable",
      "type": "function"
    },
    {
      "constant": false,
      "inputs": [],
      "name": "get_address",
      "outputs": [
        {
          "name": "",
          "type": "address"
        }
      ],
      "payable": false,
      "stateMutability": "nonpayable",
      "type": "function"
    },
    {
      "constant": false,
      "inputs": [],
      "name": "getOwner",
      "outputs": [
        {
          "name": "",
          "type": "address"
        }
      ],
      "payable": false,
      "stateMutability": "nonpayable",
      "type": "function"
    },
    {
      "constant": true,
      "inputs": [
        {
          "name": "addr",
          "type": "address"
        }
      ],
      "name": "balanceOf",
      "outputs": [
        {
          "name": "",
          "type": "uint256"
        }
      ],
      "payable": false,
      "stateMutability": "view",
      "type": "function"
    },
    {
      "constant": true,
      "inputs": [],
      "name": "totalSupply",
      "outputs": [
        {
          "name": "",
          "type": "uint256"
        }
      ],
      "payable": false,
      "stateMutability": "view",
      "type": "function"
    },
    {
      "constant": false,
      "inputs": [
        {
          "name": "tokenAddress",
          "type": "address"
        },
        {
          "name": "receiver",
          "type": "address"
        },
        {
          "name": "amount",
          "type": "uint256"
        }
      ],
      "name": "mint",
      "outputs": [
        {
          "name": "",
          "type": "bool"
        }
      ],
      "payable": false,
      "stateMutability": "nonpayable",
      "type": "function"
    },
    {
      "constant": false,
      "inputs": [
        {
          "name": "sender",
          "type": "address"
        },
        {
          "name": "amount",
          "type": "uint256"
        }
      ],
      "name": "burn",
      "outputs": [
        {
          "name": "",
          "type": "bool"
        }
      ],
      "payable": false,
      "stateMutability": "nonpayable",
      "type": "function"
    }
  ],
  "bytecode": "0x608060405234801561001057600080fd5b50610dd1806100206000396000f3fe6080604052600436106100cf5763ffffffff7c01000000000000000000000000000000000000000000000000000000006000350416630131222f81146100d45780630c3504c91461010557806318160ddd1461014c578063187fe14714610173578063323a1a5c146102b75780634271673014610300578063703b93721461033357806370a0823114610405578063893d20e8146104385780639026dee81461044d5780639dc29fac14610480578063a1d658b1146104b9578063beabacc8146104ec578063c6c3bbe61461052f575b600080fd5b3480156100e057600080fd5b506100e9610572565b60408051600160a060020a039092168252519081900360200190f35b34801561011157600080fd5b506101386004803603602081101561012857600080fd5b5035600160a060020a0316610591565b604080519115158252519081900360200190f35b34801561015857600080fd5b5061016161062e565b60408051918252519081900360200190f35b34801561017f57600080fd5b506102b56004803603608081101561019657600080fd5b8101906020810181356401000000008111156101b157600080fd5b8201836020820111156101c357600080fd5b803590602001918460018302840111640100000000831117156101e557600080fd5b91908080601f016020809104026020016040519081016040528093929190818152602001838380828437600092019190915250929594936020810193503591505064010000000081111561023857600080fd5b82018360208201111561024a57600080fd5b8035906020019184600183028401116401000000008311171561026c57600080fd5b91908080601f0160208091040260200160405190810160405280939291908181526020018383808284376000920191909152509295505060ff8335169350505060200135610635565b005b3480156102c357600080fd5b50610138600480360360808110156102da57600080fd5b50600160a060020a038135811691602081013590911690604081013590606001356106b5565b34801561030c57600080fd5b506102b56004803603602081101561032357600080fd5b5035600160a060020a03166106e4565b34801561033f57600080fd5b506102b56004803603606081101561035657600080fd5b81019060208101813564010000000081111561037157600080fd5b82018360208201111561038357600080fd5b803590602001918460018302840111640100000000831117156103a557600080fd5b9193909290916020810190356401000000008111156103c357600080fd5b8201836020820111156103d557600080fd5b803590602001918460018302840111640100000000831117156103f757600080fd5b91935091503560ff16610727565b34801561041157600080fd5b506101616004803603602081101561042857600080fd5b5035600160a060020a0316610780565b34801561044457600080fd5b506100e961079b565b34801561045957600080fd5b506101386004803603602081101561047057600080fd5b5035600160a060020a03166107c3565b34801561048c57600080fd5b50610138600480360360408110156104a357600080fd5b50600160a060020a03813516906020013561082e565b3480156104c557600080fd5b50610138600480360360208110156104dc57600080fd5b5035600160a060020a03166108cc565b3480156104f857600080fd5b506101386004803603606081101561050f57600080fd5b50600160a060020a03813581169160208101359091169060400135610937565b34801561053b57600080fd5b506101386004803603606081101561055257600080fd5b50600160a060020a0381358116916020810135909116906040013561097f565b60003361057e81610591565b151561058957600080fd5b3091505b5090565b600254604080517f0c3504c9000000000000000000000000000000000000000000000000000000008152600160a060020a03848116600483015291516000939290921691630c3504c99160248082019260209290919082900301818787803b1580156105fc57600080fd5b505af1158015610610573d6000803e3d6000fd5b505050506040513d602081101561062657600080fd5b505192915050565b600c545b90565b8351610648906003906020870190610ca3565b50825161065c906004906020860190610ca3565b506005805460ff90931660ff19909316929092179091556007805473ffffffffffffffffffffffffffffffffffffffff1916331790819055600160a060020a031660009081526008602052604090208190556006555050565b6000336106c181610591565b15156106cc57600080fd5b6106d886868686610aee565b91505b50949350505050565b6106ed33610591565b15156106f857600080fd5b6002805473ffffffffffffffffffffffffffffffffffffffff1916600160a060020a0392909216919091179055565b61073360098686610d1d565b50610740600a8484610d1d565b50600b805460ff90921660ff199092169190911790555050600d805473ffffffffffffffffffffffffffffffffffffffff19163317905550506000600c55565b600160a060020a03166000908152600e602052604090205490565b6000336107a781610591565b15156107b257600080fd5b5050600d54600160a060020a031690565b600254604080517f9026dee8000000000000000000000000000000000000000000000000000000008152600160a060020a03848116600483015291516000939290921691639026dee89160248082019260209290919082900301818787803b1580156105fc57600080fd5b60003361083a81610591565b151561084557600080fd5b600160a060020a0384166000908152600e602052604090205483111561086a57600080fd5b600160a060020a0384166000908152600e6020526040902054610893908463ffffffff610c7316565b600160a060020a0385166000908152600e6020526040902055600c546108bf908463ffffffff610c7316565b600c555060019392505050565b600254604080517fa1d658b1000000000000000000000000000000000000000000000000000000008152600160a060020a0384811660048301529151600093929092169163a1d658b19160248082019260209290919082900301818787803b1580156105fc57600080fd5b60003361094381610591565b151561094e57600080fd5b60008061095d87878785610aee565b9050801561097057600193505050610977565b6000935050505b509392505050565b60003361098b81610591565b151561099657600080fd5b600d54600160a060020a038681169116146109b057600080fd5b600160a060020a03841615156109c557600080fd5b600160a060020a03841615156109da57600080fd5b600c546000906109f0908563ffffffff610c8516565b600c55600160a060020a0385166000908152600e6020526040902054610a1c908563ffffffff610c8516565b600160a060020a0386166000908152600e6020526040902055610a3e85610c9b565b15610ae457604080517f8397cc94000000000000000000000000000000000000000000000000000000008152600160a060020a038881166004830152602482018790526044820184905291518792831691638397cc949160648083019260209291908290030181600087803b158015610ab657600080fd5b505af1158015610aca573d6000803e3d6000fd5b505050506040513d6020811015610ae057600080fd5b5050505b6001925050610977565b600033610afa81610591565b1515610b0557600080fd5b83610b0f87610780565b1015610b1a57600080fd5b600160a060020a0385161515610b2f57600080fd5b600160a060020a0385161515610b4457600080fd5b600160a060020a038616600090815260086020526040902054610b6d908563ffffffff610c7316565b600160a060020a038088166000908152600860205260408082209390935590871681522054610ba2908563ffffffff610c8516565b600160a060020a038616600090815260086020526040902055610bc485610c9b565b15610c6a57604080517f8397cc94000000000000000000000000000000000000000000000000000000008152600160a060020a038881166004830152602482018790526044820186905291518792831691638397cc949160648083019260209291908290030181600087803b158015610c3c57600080fd5b505af1158015610c50573d6000803e3d6000fd5b505050506040513d6020811015610c6657600080fd5b5050505b600191506106db565b600082821115610c7f57fe5b50900390565b600082820183811015610c9457fe5b9392505050565b6000903b1190565b828054600181600116156101000203166002900490600052602060002090601f016020900481019282601f10610ce457805160ff1916838001178555610d11565b82800160010185558215610d11579182015b82811115610d11578251825591602001919060010190610cf6565b5061058d929150610d8b565b828054600181600116156101000203166002900490600052602060002090601f016020900481019282601f10610d5e5782800160ff19823516178555610d11565b82800160010185558215610d11579182015b82811115610d11578235825591602001919060010190610d70565b61063291905b8082111561058d5760008155600101610d9156fea165627a7a72305820829970c139f961ab1d1329dc23f05f258580499a8854b4bbda1aa2256e7319ad0029",
  "source": "pragma solidity ^0.5.0;\nimport \"../interface/token-interface.sol\";\n//import \"../../receiver/receiver.sol\";\nimport \"../../libraries/SafeMath.sol\";\nimport \"./basic-token.sol\";\n\ncontract Mintable is tokenInterface, basic {\n  using SafeMath for uint256;\n  string internal _symbol;\n  string internal _name;\n  uint8 internal _decimals;\n  uint256 internal _totalSupply;\n  address internal _owner;\n/*\n  modifier  onlyOwner(address _sender_address) {\n      require(_owner == _sender_address);\n      _;\n\n        }\n*/\n\n  mapping(address => uint256) internal _balances;\n    function mintable(string calldata symbol, string calldata name, uint8 decimals) external {\n        _symbol = symbol;\n        _name = name;\n        _decimals = decimals;\n        _owner = msg.sender;\n        _totalSupply = 0;\n    }\n    function get_address() public  onlyOwnerEx(msg.sender)returns (address) {\n        return address(this);\n    }\n    function getOwner() public  onlyOwnerEx(msg.sender)returns(address) {\n        return _owner;\n    }\n\n    function balanceOf(address addr) public view  returns(uint256) { //onlyOwnerEx(msg.sender)\n        return _balances[addr];\n    }\n\n    function totalSupply() public view  returns(uint256) { //onlyOwnerEx(msg.sender)\n        return _totalSupply;\n    }\n\n    function mint(address tokenAddress, address receiver, uint256 amount) public  onlyOwnerEx(msg.sender)returns(bool) {\n      if(_owner != tokenAddress)\n        {\n            revert();\n        }\n\n        //Cannot send the newly minted tokens to get burnt\n        else if (receiver == address(0x0))\n        {\n            revert();\n        }\n        else if(receiver == address(0))\n        {\n            revert();\n        }\n        else\n        {\n            bytes32 empty;\n            _totalSupply = _totalSupply.add(amount);\n            _balances[receiver] = _balances[receiver].add(amount);\n            if (isContract(receiver)) {\n                Receiver ReceiverContract = Receiver(receiver);\n                ReceiverContract.tokenFallback(tokenAddress, amount, empty);\n            }\n            return true;\n        }\n    }\n\n    /*\n\n    function transfer(address sender,address receiver, uint256 amount, bytes32  data) external onlyOwnerEx(msg.sender)returns(bool) {\n     return  transferIntnl( sender, receiver,  amount, data) ;\n\n    }\n\n    function transferIntnl(address sender,address receiver, uint256 amount, bytes memory data)   onlyOwnerEx(msg.sender) internal returns(bool) {\n     if(balanceOf(sender) < amount)\n        {\n            revert();\n        }\n       else if (receiver == address(0x0))\n        {\n            revert();\n        }\n        else if(receiver==address(0))\n        {\n            revert();\n        }\n        else\n        {\n            //subtrack the amount of tokens from sender\n\n            _balances[sender] = _balances[sender].sub(amount);\n\n            //Add those tokens to reciever\n            _balances[receiver] = _balances[receiver].add(amount);\n\n            //If reciever is a contract ...\n            if (isContract(receiver)) {\n                Receiver Receiverontract = Receiver(receiver);\n                //Invoke the call back function on the reciever contract\n                Receiverontract.tokenFallback(sender, amount, data);\n            }\n            return true;\n        }\n    }\n\n    function transfer(address sender,address receiver, uint256 amount) external  onlyOwnerEx(msg.sender)returns(bool) {\n\n        bytes memory empty;\n        //use ERC223 transfer function\n        bool gotTransfered = transferIntnl(sender,receiver, amount, empty);\n\n        if (gotTransfered)\n          return true;\n        else\n          return false;\n\n    }\n*/\n\n    function burn(address sender,uint256 amount) public  onlyOwnerEx(msg.sender)returns(bool) {\n\n\n        //Safty check : token owner cannot burn more than the amount currently exists in their address\n       if(_balances[sender] < amount)\n        {\n            revert();\n        }\n        else\n        {\n            //burn operation :\n            _balances[sender] = _balances[sender].sub(amount);\n            _totalSupply = _totalSupply.sub(amount);\n            return true;\n        }\n    }\n\n    //private functions\n    function isContract(address addr) private view returns(bool) {\n        uint length;\n        assembly {\n            //retrieve the size of the code on target address, this needs assembly\n            length: = extcodesize(addr)\n        }\n        return (length > 0);\n    }\n\n}\n",
  "sourcePath": "/home/sergey/Documents/angels/2083nointerfaces/Angeles.VC-token-scrum-investing/contracts/tokens/implementation/mintable-token.sol",
  "compiler": {
    "name": "solc",
    "version": "0.5.0+commit.1d4f565a.Emscripten.clang"
  },
  "schemaVersion": "3.0.2",
  "updatedAt": "2019-03-30T13:34:15.395Z",
  "devdoc": {
    "methods": {}
  },
  "userdoc": {
    "methods": {}
  }
}