{
  "contractName": "Ownable",
  "abi": [
    {
      "constant": true,
      "inputs": [],
      "name": "owner",
      "outputs": [
        {
          "name": "",
          "type": "address"
        }
      ],
      "payable": false,
      "stateMutability": "view",
      "type": "function"
    },
    {
      "anonymous": false,
      "inputs": [
        {
          "indexed": false,
          "name": "previousOwner",
          "type": "address"
        },
        {
          "indexed": false,
          "name": "newOwner",
          "type": "address"
        }
      ],
      "name": "OwnershipTransferred",
      "type": "event"
    },
    {
      "constant": false,
      "inputs": [
        {
          "name": "newowner",
          "type": "address"
        }
      ],
      "name": "ownable",
      "outputs": [],
      "payable": false,
      "stateMutability": "nonpayable",
      "type": "function"
    },
    {
      "constant": false,
      "inputs": [
        {
          "name": "_sender_address",
          "type": "address"
        }
      ],
      "name": "check_owner",
      "outputs": [
        {
          "name": "",
          "type": "bool"
        }
      ],
      "payable": false,
      "stateMutability": "nonpayable",
      "type": "function"
    },
    {
      "constant": false,
      "inputs": [
        {
          "name": "newOwner",
          "type": "address"
        }
      ],
      "name": "transferOwnership",
      "outputs": [],
      "payable": false,
      "stateMutability": "nonpayable",
      "type": "function"
    }
  ],
  "bytecode": "0x608060405234801561001057600080fd5b5061026d806100206000396000f3fe6080604052600436106100615763ffffffff7c01000000000000000000000000000000000000000000000000000000006000350416630c3504c9811461006657806364a04b59146100ad5780638da5cb5b146100e2578063f2fde38b14610113575b600080fd5b34801561007257600080fd5b506100996004803603602081101561008957600080fd5b5035600160a060020a0316610146565b604080519115158252519081900360200190f35b3480156100b957600080fd5b506100e0600480360360208110156100d057600080fd5b5035600160a060020a031661016a565b005b3480156100ee57600080fd5b506100f761018a565b60408051600160a060020a039092168252519081900360200190f35b34801561011f57600080fd5b506100e06004803603602081101561013657600080fd5b5035600160a060020a0316610199565b600081600160a060020a031661015a61018a565b600160a060020a03161492915050565b61017333610146565b151561017e57600080fd5b61018781610212565b50565b600054600160a060020a031690565b6101a233610146565b15156101ad57600080fd5b600160a060020a03811615156101c257600080fd5b7f8be0079c531659141344cd1fd0a4f28419497f9722a3daafe3b4186f6b6457e06101eb61018a565b60408051600160a060020a03928316815291841660208301528051918290030190a1610187815b6000805473ffffffffffffffffffffffffffffffffffffffff1916600160a060020a039290921691909117905556fea165627a7a7230582063d3d771b55b371dc6917ad15b49eea7c245072e000a23bb4b7a442be0d69eea0029",
  "source": "pragma solidity ^0.5.0;\n\nimport './OwnableStorage.sol';\n\n/**\n * @title Ownable\n * @dev This contract has the owner address providing basic authorization control\n */\ncontract Ownable is OwnableStorage {\n  /**\n  * @dev Event to show ownership has been transferred\n  * @param previousOwner representing the address of the previous owner\n  * @param newOwner representing the address of the new owner\n  */\n  event OwnershipTransferred(address previousOwner, address newOwner);\n\n  /**\n  * @dev The constructor sets the original owner of the contract to the sender account.\n  */\n  function ownable(address newowner) public onlyOwner {\n          setOwner(newowner);\n  }\n\n  /**\n  * @dev Throws if called by any account other than the owner.\n  */\n  modifier onlyOwner() {\n    require (check_owner (msg.sender));\n    _;\n  }\n\n  modifier onlyOwnerEx (address _sender_address) {\n    require(check_owner(_sender_address));\n    _;\n\n      }\n\n  function check_owner (address _sender_address) public returns(bool)\n  {\n        return (owner() == _sender_address);\n  }\n\n  /**\n   * @dev Allows the current owner to transfer control of the contract to a newOwner.\n   * @param newOwner The address to transfer ownership to.\n   */\n  function transferOwnership(address newOwner) public onlyOwner {\n    require(newOwner != address(0));\n    emit OwnershipTransferred(owner(), newOwner);\n    setOwner(newOwner);\n  }\n}\n",
  "sourcePath": "/home/st/Desktop/DARF-ANGeles/Angeles.VC-token-scrum-investing/contracts/admin/Ownable.sol",
  "compiler": {
    "name": "solc",
    "version": "0.5.0+commit.1d4f565a.Emscripten.clang"
  },
  "schemaVersion": "3.0.5",
  "updatedAt": "2019-04-04T17:09:59.900Z",
  "devdoc": {
    "details": "This contract has the owner address providing basic authorization control",
    "methods": {
      "ownable(address)": {
        "details": "The constructor sets the original owner of the contract to the sender account."
      },
      "owner()": {
        "details": "Tells the address of the owner",
        "return": "the address of the owner"
      },
      "transferOwnership(address)": {
        "details": "Allows the current owner to transfer control of the contract to a newOwner.",
        "params": {
          "newOwner": "The address to transfer ownership to."
        }
      }
    },
    "title": "Ownable"
  },
  "userdoc": {
    "methods": {}
  }
}