{
  "contractName": "project",
  "abi": [
    {
      "constant": true,
      "inputs": [
        {
          "name": "",
          "type": "bytes32"
        }
      ],
      "name": "primaryLedgerCount",
      "outputs": [
        {
          "name": "",
          "type": "uint256"
        }
      ],
      "payable": false,
      "stateMutability": "view",
      "type": "function"
    },
    {
      "constant": false,
      "inputs": [
        {
          "name": "record",
          "type": "string"
        },
        {
          "name": "value",
          "type": "uint256"
        }
      ],
      "name": "setUIntValue",
      "outputs": [],
      "payable": false,
      "stateMutability": "nonpayable",
      "type": "function"
    },
    {
      "constant": false,
      "inputs": [
        {
          "name": "_investor_address",
          "type": "address"
        },
        {
          "name": "currency",
          "type": "bytes32"
        }
      ],
      "name": "investorGet",
      "outputs": [],
      "payable": false,
      "stateMutability": "nonpayable",
      "type": "function"
    },
    {
      "constant": true,
      "inputs": [],
      "name": "totalAdminsMapping",
      "outputs": [
        {
          "name": "",
          "type": "uint256"
        }
      ],
      "payable": false,
      "stateMutability": "view",
      "type": "function"
    },
    {
      "constant": true,
      "inputs": [
        {
          "name": "",
          "type": "bytes32"
        },
        {
          "name": "",
          "type": "uint256"
        }
      ],
      "name": "primaryLedgerEntryForIndex",
      "outputs": [
        {
          "name": "",
          "type": "address"
        }
      ],
      "payable": false,
      "stateMutability": "view",
      "type": "function"
    },
    {
      "constant": true,
      "inputs": [
        {
          "name": "record",
          "type": "string"
        },
        {
          "name": "primaryAddress",
          "type": "address"
        },
        {
          "name": "secondaryAddress",
          "type": "address"
        }
      ],
      "name": "getMultiLedgerValue",
      "outputs": [
        {
          "name": "",
          "type": "uint256"
        }
      ],
      "payable": false,
      "stateMutability": "view",
      "type": "function"
    },
    {
      "constant": false,
      "inputs": [
        {
          "name": "record",
          "type": "string"
        },
        {
          "name": "_address",
          "type": "address"
        },
        {
          "name": "value",
          "type": "uint256"
        }
      ],
      "name": "setLedgerValue",
      "outputs": [],
      "payable": false,
      "stateMutability": "nonpayable",
      "type": "function"
    },
    {
      "constant": false,
      "inputs": [
        {
          "name": "record",
          "type": "string"
        },
        {
          "name": "value",
          "type": "bytes32"
        }
      ],
      "name": "setBytes32Value",
      "outputs": [],
      "payable": false,
      "stateMutability": "nonpayable",
      "type": "function"
    },
    {
      "constant": false,
      "inputs": [
        {
          "name": "admin",
          "type": "address"
        }
      ],
      "name": "removeAdmin",
      "outputs": [],
      "payable": false,
      "stateMutability": "nonpayable",
      "type": "function"
    },
    {
      "constant": true,
      "inputs": [
        {
          "name": "",
          "type": "bytes32"
        },
        {
          "name": "",
          "type": "address"
        },
        {
          "name": "",
          "type": "uint256"
        }
      ],
      "name": "secondaryLedgerEntryForIndex",
      "outputs": [
        {
          "name": "",
          "type": "address"
        }
      ],
      "payable": false,
      "stateMutability": "view",
      "type": "function"
    },
    {
      "constant": false,
      "inputs": [
        {
          "name": "record",
          "type": "string"
        },
        {
          "name": "primaryAddress",
          "type": "address"
        },
        {
          "name": "secondaryAddress",
          "type": "address"
        },
        {
          "name": "value",
          "type": "uint256"
        }
      ],
      "name": "setMultiLedgerValue",
      "outputs": [],
      "payable": false,
      "stateMutability": "nonpayable",
      "type": "function"
    },
    {
      "constant": true,
      "inputs": [
        {
          "name": "",
          "type": "uint256"
        }
      ],
      "name": "adminsForIndex",
      "outputs": [
        {
          "name": "",
          "type": "address"
        }
      ],
      "payable": false,
      "stateMutability": "view",
      "type": "function"
    },
    {
      "constant": false,
      "inputs": [
        {
          "name": "record",
          "type": "string"
        },
        {
          "name": "value",
          "type": "bool"
        }
      ],
      "name": "setBooleanValue",
      "outputs": [],
      "payable": false,
      "stateMutability": "nonpayable",
      "type": "function"
    },
    {
      "constant": false,
      "inputs": [
        {
          "name": "record",
          "type": "string"
        },
        {
          "name": "value",
          "type": "address"
        }
      ],
      "name": "setAddressValue",
      "outputs": [],
      "payable": false,
      "stateMutability": "nonpayable",
      "type": "function"
    },
    {
      "constant": true,
      "inputs": [
        {
          "name": "",
          "type": "address"
        }
      ],
      "name": "admins",
      "outputs": [
        {
          "name": "",
          "type": "bool"
        }
      ],
      "payable": false,
      "stateMutability": "view",
      "type": "function"
    },
    {
      "constant": true,
      "inputs": [
        {
          "name": "",
          "type": "bytes32"
        },
        {
          "name": "",
          "type": "address"
        },
        {
          "name": "",
          "type": "address"
        }
      ],
      "name": "ledgerSecondaryEntries",
      "outputs": [
        {
          "name": "",
          "type": "bool"
        }
      ],
      "payable": false,
      "stateMutability": "view",
      "type": "function"
    },
    {
      "constant": false,
      "inputs": [
        {
          "name": "admin",
          "type": "address"
        }
      ],
      "name": "removeSuperAdmin",
      "outputs": [],
      "payable": false,
      "stateMutability": "nonpayable",
      "type": "function"
    },
    {
      "constant": true,
      "inputs": [
        {
          "name": "record",
          "type": "string"
        }
      ],
      "name": "getUIntValue",
      "outputs": [
        {
          "name": "",
          "type": "uint256"
        }
      ],
      "payable": false,
      "stateMutability": "view",
      "type": "function"
    },
    {
      "constant": true,
      "inputs": [
        {
          "name": "record",
          "type": "string"
        }
      ],
      "name": "getLedgerCount",
      "outputs": [
        {
          "name": "",
          "type": "uint256"
        }
      ],
      "payable": false,
      "stateMutability": "view",
      "type": "function"
    },
    {
      "constant": false,
      "inputs": [
        {
          "name": "newowner",
          "type": "address"
        }
      ],
      "name": "ownable",
      "outputs": [],
      "payable": false,
      "stateMutability": "nonpayable",
      "type": "function"
    },
    {
      "constant": true,
      "inputs": [
        {
          "name": "record",
          "type": "string"
        }
      ],
      "name": "getBytesValue",
      "outputs": [
        {
          "name": "",
          "type": "bytes"
        }
      ],
      "payable": false,
      "stateMutability": "view",
      "type": "function"
    },
    {
      "constant": false,
      "inputs": [
        {
          "name": "admin",
          "type": "address"
        }
      ],
      "name": "addAdmin",
      "outputs": [],
      "payable": false,
      "stateMutability": "nonpayable",
      "type": "function"
    },
    {
      "constant": true,
      "inputs": [
        {
          "name": "",
          "type": "bytes32"
        },
        {
          "name": "",
          "type": "address"
        }
      ],
      "name": "secondaryLedgerCount",
      "outputs": [
        {
          "name": "",
          "type": "uint256"
        }
      ],
      "payable": false,
      "stateMutability": "view",
      "type": "function"
    },
    {
      "constant": true,
      "inputs": [
        {
          "name": "record",
          "type": "string"
        }
      ],
      "name": "getBytes32Value",
      "outputs": [
        {
          "name": "",
          "type": "bytes32"
        }
      ],
      "payable": false,
      "stateMutability": "view",
      "type": "function"
    },
    {
      "constant": true,
      "inputs": [
        {
          "name": "",
          "type": "bytes32"
        },
        {
          "name": "",
          "type": "address"
        }
      ],
      "name": "booleanMapAccounts",
      "outputs": [
        {
          "name": "",
          "type": "bool"
        }
      ],
      "payable": false,
      "stateMutability": "view",
      "type": "function"
    },
    {
      "constant": true,
      "inputs": [
        {
          "name": "",
          "type": "bytes32"
        }
      ],
      "name": "booleanMapCount",
      "outputs": [
        {
          "name": "",
          "type": "uint256"
        }
      ],
      "payable": false,
      "stateMutability": "view",
      "type": "function"
    },
    {
      "constant": true,
      "inputs": [
        {
          "name": "",
          "type": "bytes32"
        },
        {
          "name": "",
          "type": "address"
        }
      ],
      "name": "ledgerPrimaryEntries",
      "outputs": [
        {
          "name": "",
          "type": "bool"
        }
      ],
      "payable": false,
      "stateMutability": "view",
      "type": "function"
    },
    {
      "constant": true,
      "inputs": [
        {
          "name": "record",
          "type": "string"
        }
      ],
      "name": "getIntValue",
      "outputs": [
        {
          "name": "",
          "type": "int256"
        }
      ],
      "payable": false,
      "stateMutability": "view",
      "type": "function"
    },
    {
      "constant": true,
      "inputs": [],
      "name": "owner",
      "outputs": [
        {
          "name": "",
          "type": "address"
        }
      ],
      "payable": false,
      "stateMutability": "view",
      "type": "function"
    },
    {
      "constant": true,
      "inputs": [
        {
          "name": "record",
          "type": "string"
        }
      ],
      "name": "getBooleanValue",
      "outputs": [
        {
          "name": "",
          "type": "bool"
        }
      ],
      "payable": false,
      "stateMutability": "view",
      "type": "function"
    },
    {
      "constant": false,
      "inputs": [
        {
          "name": "record",
          "type": "string"
        },
        {
          "name": "_address",
          "type": "address"
        },
        {
          "name": "value",
          "type": "bool"
        }
      ],
      "name": "setBooleanMapValue",
      "outputs": [],
      "payable": false,
      "stateMutability": "nonpayable",
      "type": "function"
    },
    {
      "constant": true,
      "inputs": [
        {
          "name": "record",
          "type": "string"
        },
        {
          "name": "_address",
          "type": "address"
        }
      ],
      "name": "getLedgerValue",
      "outputs": [
        {
          "name": "",
          "type": "uint256"
        }
      ],
      "payable": false,
      "stateMutability": "view",
      "type": "function"
    },
    {
      "constant": false,
      "inputs": [
        {
          "name": "record",
          "type": "string"
        },
        {
          "name": "value",
          "type": "int256"
        }
      ],
      "name": "setIntValue",
      "outputs": [],
      "payable": false,
      "stateMutability": "nonpayable",
      "type": "function"
    },
    {
      "constant": true,
      "inputs": [],
      "name": "totalSuperAdminsMapping",
      "outputs": [
        {
          "name": "",
          "type": "uint256"
        }
      ],
      "payable": false,
      "stateMutability": "view",
      "type": "function"
    },
    {
      "constant": true,
      "inputs": [
        {
          "name": "",
          "type": "address"
        }
      ],
      "name": "superAdmins",
      "outputs": [
        {
          "name": "",
          "type": "bool"
        }
      ],
      "payable": false,
      "stateMutability": "view",
      "type": "function"
    },
    {
      "constant": true,
      "inputs": [
        {
          "name": "",
          "type": "address"
        },
        {
          "name": "",
          "type": "address"
        }
      ],
      "name": "_investors",
      "outputs": [
        {
          "name": "approved_sum",
          "type": "uint256"
        },
        {
          "name": "invested_sum",
          "type": "uint256"
        }
      ],
      "payable": false,
      "stateMutability": "view",
      "type": "function"
    },
    {
      "constant": false,
      "inputs": [
        {
          "name": "admin",
          "type": "address"
        }
      ],
      "name": "addSuperAdmin",
      "outputs": [],
      "payable": false,
      "stateMutability": "nonpayable",
      "type": "function"
    },
    {
      "constant": false,
      "inputs": [
        {
          "name": "record",
          "type": "string"
        },
        {
          "name": "value",
          "type": "bytes"
        }
      ],
      "name": "setBytesValue",
      "outputs": [],
      "payable": false,
      "stateMutability": "nonpayable",
      "type": "function"
    },
    {
      "constant": true,
      "inputs": [
        {
          "name": "",
          "type": "bytes32"
        },
        {
          "name": "",
          "type": "uint256"
        }
      ],
      "name": "ledgerEntryForIndex",
      "outputs": [
        {
          "name": "",
          "type": "address"
        }
      ],
      "payable": false,
      "stateMutability": "view",
      "type": "function"
    },
    {
      "constant": true,
      "inputs": [
        {
          "name": "",
          "type": "bytes32"
        },
        {
          "name": "",
          "type": "uint256"
        }
      ],
      "name": "booleanMapEntryForIndex",
      "outputs": [
        {
          "name": "",
          "type": "address"
        }
      ],
      "payable": false,
      "stateMutability": "view",
      "type": "function"
    },
    {
      "constant": true,
      "inputs": [
        {
          "name": "",
          "type": "uint256"
        }
      ],
      "name": "superAdminsForIndex",
      "outputs": [
        {
          "name": "",
          "type": "address"
        }
      ],
      "payable": false,
      "stateMutability": "view",
      "type": "function"
    },
    {
      "constant": true,
      "inputs": [
        {
          "name": "",
          "type": "uint256"
        }
      ],
      "name": "ProjectList",
      "outputs": [
        {
          "name": "",
          "type": "address"
        }
      ],
      "payable": false,
      "stateMutability": "view",
      "type": "function"
    },
    {
      "constant": true,
      "inputs": [
        {
          "name": "",
          "type": "address"
        }
      ],
      "name": "Projects",
      "outputs": [
        {
          "name": "project_ID",
          "type": "uint256"
        },
        {
          "name": "project_owner_address",
          "type": "address"
        },
        {
          "name": "_DARF_system_address",
          "type": "address"
        },
        {
          "name": "DFS_Project_describe",
          "type": "bytes32"
        },
        {
          "name": "DFS_type",
          "type": "bytes4"
        }
      ],
      "payable": false,
      "stateMutability": "view",
      "type": "function"
    },
    {
      "constant": true,
      "inputs": [
        {
          "name": "",
          "type": "bytes32"
        }
      ],
      "name": "ledgerCount",
      "outputs": [
        {
          "name": "",
          "type": "uint256"
        }
      ],
      "payable": false,
      "stateMutability": "view",
      "type": "function"
    },
    {
      "constant": true,
      "inputs": [
        {
          "name": "record",
          "type": "string"
        },
        {
          "name": "_address",
          "type": "address"
        }
      ],
      "name": "getBooleanMapValue",
      "outputs": [
        {
          "name": "",
          "type": "bool"
        }
      ],
      "payable": false,
      "stateMutability": "view",
      "type": "function"
    },
    {
      "constant": true,
      "inputs": [
        {
          "name": "record",
          "type": "string"
        }
      ],
      "name": "getBooleanMapCount",
      "outputs": [
        {
          "name": "",
          "type": "uint256"
        }
      ],
      "payable": false,
      "stateMutability": "view",
      "type": "function"
    },
    {
      "constant": true,
      "inputs": [
        {
          "name": "",
          "type": "bytes32"
        },
        {
          "name": "",
          "type": "address"
        }
      ],
      "name": "ledgerAccounts",
      "outputs": [
        {
          "name": "",
          "type": "bool"
        }
      ],
      "payable": false,
      "stateMutability": "view",
      "type": "function"
    },
    {
      "constant": false,
      "inputs": [
        {
          "name": "newOwner",
          "type": "address"
        }
      ],
      "name": "transferOwnership",
      "outputs": [],
      "payable": false,
      "stateMutability": "nonpayable",
      "type": "function"
    },
    {
      "constant": true,
      "inputs": [
        {
          "name": "record",
          "type": "string"
        }
      ],
      "name": "getAddressValue",
      "outputs": [
        {
          "name": "",
          "type": "address"
        }
      ],
      "payable": false,
      "stateMutability": "view",
      "type": "function"
    },
    {
      "anonymous": false,
      "inputs": [
        {
          "indexed": false,
          "name": "owner_address",
          "type": "address"
        },
        {
          "indexed": false,
          "name": "Projecttokenaddr",
          "type": "address"
        },
        {
          "indexed": false,
          "name": "DFSProjectdescribe",
          "type": "bytes32"
        },
        {
          "indexed": false,
          "name": "_DARFsystemaddress",
          "type": "address"
        }
      ],
      "name": "New_project",
      "type": "event"
    },
    {
      "anonymous": false,
      "inputs": [
        {
          "indexed": false,
          "name": "Projecttokenaddr",
          "type": "address"
        }
      ],
      "name": "finished_project",
      "type": "event"
    },
    {
      "anonymous": false,
      "inputs": [
        {
          "indexed": true,
          "name": "admin",
          "type": "address"
        }
      ],
      "name": "AddAdmin",
      "type": "event"
    },
    {
      "anonymous": false,
      "inputs": [
        {
          "indexed": true,
          "name": "admin",
          "type": "address"
        }
      ],
      "name": "RemoveAdmin",
      "type": "event"
    },
    {
      "anonymous": false,
      "inputs": [
        {
          "indexed": true,
          "name": "admin",
          "type": "address"
        }
      ],
      "name": "AddSuperAdmin",
      "type": "event"
    },
    {
      "anonymous": false,
      "inputs": [
        {
          "indexed": true,
          "name": "admin",
          "type": "address"
        }
      ],
      "name": "RemoveSuperAdmin",
      "type": "event"
    },
    {
      "anonymous": false,
      "inputs": [
        {
          "indexed": false,
          "name": "previousOwner",
          "type": "address"
        },
        {
          "indexed": false,
          "name": "newOwner",
          "type": "address"
        }
      ],
      "name": "OwnershipTransferred",
      "type": "event"
    },
    {
      "constant": false,
      "inputs": [
        {
          "name": "Projecttokenaddr",
          "type": "address"
        },
        {
          "name": "grade",
          "type": "uint256"
        },
        {
          "name": "floorsum",
          "type": "uint256"
        }
      ],
      "name": "setrights",
      "outputs": [],
      "payable": false,
      "stateMutability": "nonpayable",
      "type": "function"
    },
    {
      "constant": false,
      "inputs": [
        {
          "name": "Project_token_addr",
          "type": "address"
        }
      ],
      "name": "checkrights",
      "outputs": [
        {
          "name": "",
          "type": "uint256"
        }
      ],
      "payable": false,
      "stateMutability": "nonpayable",
      "type": "function"
    },
    {
      "constant": false,
      "inputs": [
        {
          "name": "Projecttokenaddr",
          "type": "address"
        },
        {
          "name": "DFSProjectdescribe",
          "type": "bytes32"
        },
        {
          "name": "DFStype",
          "type": "bytes4"
        }
      ],
      "name": "create_project",
      "outputs": [],
      "payable": false,
      "stateMutability": "nonpayable",
      "type": "function"
    },
    {
      "constant": false,
      "inputs": [
        {
          "name": "Projecttokenaddr",
          "type": "address"
        },
        {
          "name": "owner",
          "type": "address"
        },
        {
          "name": "DFSProjectdescribe",
          "type": "bytes32"
        },
        {
          "name": "DFStype",
          "type": "bytes4"
        }
      ],
      "name": "change_project_info",
      "outputs": [],
      "payable": false,
      "stateMutability": "nonpayable",
      "type": "function"
    },
    {
      "constant": false,
      "inputs": [
        {
          "name": "Projecttokenaddr",
          "type": "address"
        }
      ],
      "name": "finish_project",
      "outputs": [],
      "payable": false,
      "stateMutability": "nonpayable",
      "type": "function"
    },
    {
      "constant": false,
      "inputs": [
        {
          "name": "Projecttokenaddr",
          "type": "address"
        },
        {
          "name": "DFSchangesaddr",
          "type": "bytes32"
        },
        {
          "name": "DFSchangeshash",
          "type": "bytes32"
        },
        {
          "name": "POA_addr",
          "type": "bytes32"
        }
      ],
      "name": "project_add_state",
      "outputs": [
        {
          "name": "",
          "type": "uint256"
        }
      ],
      "payable": false,
      "stateMutability": "nonpayable",
      "type": "function"
    },
    {
      "constant": false,
      "inputs": [
        {
          "name": "Projecttokenaddr",
          "type": "address"
        },
        {
          "name": "timestamp",
          "type": "uint256"
        }
      ],
      "name": "project_get_state",
      "outputs": [
        {
          "name": "",
          "type": "bytes32"
        }
      ],
      "payable": false,
      "stateMutability": "nonpayable",
      "type": "function"
    },
    {
      "constant": false,
      "inputs": [
        {
          "name": "Externalstorageaddr",
          "type": "address"
        }
      ],
      "name": "_initExternalStorage",
      "outputs": [],
      "payable": false,
      "stateMutability": "nonpayable",
      "type": "function"
    }
  ],
  "bytecode": "0x608060405234801561001057600080fd5b5061649080620000216000396000f3fe6080604052600436106102a9576000357c0100000000000000000000000000000000000000000000000000000000900463ffffffff1680630305357e146102ae57806303d75937146102fd578063043baa03146103cf5780630489882e1461042a578063059f9ebf14610455578063088787a3146104da5780630cb1a3a9146105f657806310278bc8146106e85780631785f53c146107ba578063199759db1461080b5780631f69d230146108b057806321f622be146109c2578063313f2a2114610a135780633d8f89d714610a8e5780633fe1471314610b62578063413c6d1314610bc7578063429b62e514610caf5780634463d9ec14610d185780634902e4aa14610dab5780634f16124514610dfc5780634f6acaa114610ed857806364a04b5914610fb45780636e22d33e146110055780637048027514611146578063740ca23c1461119757806375fa9ece146112065780637ec13996146112895780637ffcd79f1461136557806383e835e0146113d85780638552527714611427578063877c21841461149a5780638da5cb5b146115765780638de21650146115cd578063929268b8146116ad578063a90cf6f4146117a1578063abd6ff8e1461189d578063abf7b0631461196f578063ad25cb421461199a578063ad53061914611a03578063b1ec4c8814611a8f578063b3292ff014611af4578063bf3c112014611b45578063bfaa3ebc14611ca4578063c04dc73b14611d28578063c0b3ac9314611dad578063c389439814611e32578063c5ca321314611ead578063c8bc040714611f28578063cc46e7ca14611f79578063d2716f0314612090578063d3f742dc14612134578063e671fab514612183578063e815cae614612283578063e89bc86b146122f2578063e8d39d07146123ce578063f2fde38b14612441578063fd25568314612492575b600080fd5b3480156102ba57600080fd5b506102e7600480360360208110156102d157600080fd5b810190808035906020019092919050505061259a565b6040518082815260200191505060405180910390f35b34801561030957600080fd5b506103cd6004803603604081101561032057600080fd5b810190808035906020019064010000000081111561033d57600080fd5b82018360208201111561034f57600080fd5b8035906020019184600183028401116401000000008311171561037157600080fd5b91908080601f016020809104026020016040519081016040528093929190818152602001838380828437600081840152601f19601f820116905080830192505050505050509192919290803590602001909291905050506125b2565b005b3480156103db57600080fd5b50610428600480360360408110156103f257600080fd5b81019080803573ffffffffffffffffffffffffffffffffffffffff16906020019092919080359060200190929190505050612746565b005b34801561043657600080fd5b5061043f61274a565b6040518082815260200191505060405180910390f35b34801561046157600080fd5b506104986004803603604081101561047857600080fd5b810190808035906020019092919080359060200190929190505050612750565b604051808273ffffffffffffffffffffffffffffffffffffffff1673ffffffffffffffffffffffffffffffffffffffff16815260200191505060405180910390f35b3480156104e657600080fd5b506105e0600480360360608110156104fd57600080fd5b810190808035906020019064010000000081111561051a57600080fd5b82018360208201111561052c57600080fd5b8035906020019184600183028401116401000000008311171561054e57600080fd5b91908080601f016020809104026020016040519081016040528093929190818152602001838380828437600081840152601f19601f820116905080830192505050505050509192919290803573ffffffffffffffffffffffffffffffffffffffff169060200190929190803573ffffffffffffffffffffffffffffffffffffffff169060200190929190505050612792565b6040518082815260200191505060405180910390f35b34801561060257600080fd5b506106e66004803603606081101561061957600080fd5b810190808035906020019064010000000081111561063657600080fd5b82018360208201111561064857600080fd5b8035906020019184600183028401116401000000008311171561066a57600080fd5b91908080601f016020809104026020016040519081016040528093929190818152602001838380828437600081840152601f19601f820116905080830192505050505050509192919290803573ffffffffffffffffffffffffffffffffffffffff169060200190929190803590602001909291905050506128b6565b005b3480156106f457600080fd5b506107b86004803603604081101561070b57600080fd5b810190808035906020019064010000000081111561072857600080fd5b82018360208201111561073a57600080fd5b8035906020019184600183028401116401000000008311171561075c57600080fd5b91908080601f016020809104026020016040519081016040528093929190818152602001838380828437600081840152601f19601f82011690508083019250505050505050919291929080359060200190929190505050612c03565b005b3480156107c657600080fd5b50610809600480360360208110156107dd57600080fd5b81019080803573ffffffffffffffffffffffffffffffffffffffff169060200190929190505050612d97565b005b34801561081757600080fd5b5061086e6004803603606081101561082e57600080fd5b8101908080359060200190929190803573ffffffffffffffffffffffffffffffffffffffff16906020019092919080359060200190929190505050612ecc565b604051808273ffffffffffffffffffffffffffffffffffffffff1673ffffffffffffffffffffffffffffffffffffffff16815260200191505060405180910390f35b3480156108bc57600080fd5b506109c0600480360360808110156108d357600080fd5b81019080803590602001906401000000008111156108f057600080fd5b82018360208201111561090257600080fd5b8035906020019184600183028401116401000000008311171561092457600080fd5b91908080601f016020809104026020016040519081016040528093929190818152602001838380828437600081840152601f19601f820116905080830192505050505050509192919290803573ffffffffffffffffffffffffffffffffffffffff169060200190929190803573ffffffffffffffffffffffffffffffffffffffff16906020019092919080359060200190929190505050612f1b565b005b3480156109ce57600080fd5b50610a11600480360360208110156109e557600080fd5b81019080803573ffffffffffffffffffffffffffffffffffffffff16906020019092919050505061354c565b005b348015610a1f57600080fd5b50610a4c60048036036020811015610a3657600080fd5b81019080803590602001909291905050506135b2565b604051808273ffffffffffffffffffffffffffffffffffffffff1673ffffffffffffffffffffffffffffffffffffffff16815260200191505060405180910390f35b348015610a9a57600080fd5b50610b6060048036036040811015610ab157600080fd5b8101908080359060200190640100000000811115610ace57600080fd5b820183602082011115610ae057600080fd5b80359060200191846001830284011164010000000083111715610b0257600080fd5b91908080601f016020809104026020016040519081016040528093929190818152602001838380828437600081840152601f19601f8201169050808301925050505050505091929192908035151590602001909291905050506135e5565b005b348015610b6e57600080fd5b50610bb160048036036020811015610b8557600080fd5b81019080803573ffffffffffffffffffffffffffffffffffffffff16906020019092919050505061378c565b6040518082815260200191505060405180910390f35b348015610bd357600080fd5b50610cad60048036036040811015610bea57600080fd5b8101908080359060200190640100000000811115610c0757600080fd5b820183602082011115610c1957600080fd5b80359060200191846001830284011164010000000083111715610c3b57600080fd5b91908080601f016020809104026020016040519081016040528093929190818152602001838380828437600081840152601f19601f820116905080830192505050505050509192919290803573ffffffffffffffffffffffffffffffffffffffff1690602001909291905050506138ef565b005b348015610cbb57600080fd5b50610cfe60048036036020811015610cd257600080fd5b81019080803573ffffffffffffffffffffffffffffffffffffffff169060200190929190505050613abd565b604051808215151515815260200191505060405180910390f35b348015610d2457600080fd5b50610d9160048036036060811015610d3b57600080fd5b8101908080359060200190929190803573ffffffffffffffffffffffffffffffffffffffff169060200190929190803573ffffffffffffffffffffffffffffffffffffffff169060200190929190505050613add565b604051808215151515815260200191505060405180910390f35b348015610db757600080fd5b50610dfa60048036036020811015610dce57600080fd5b81019080803573ffffffffffffffffffffffffffffffffffffffff169060200190929190505050613b19565b005b348015610e0857600080fd5b50610ec260048036036020811015610e1f57600080fd5b8101908080359060200190640100000000811115610e3c57600080fd5b820183602082011115610e4e57600080fd5b80359060200191846001830284011164010000000083111715610e7057600080fd5b91908080601f016020809104026020016040519081016040528093929190818152602001838380828437600081840152601f19601f820116905080830192505050505050509192919290505050613bf8565b6040518082815260200191505060405180910390f35b348015610ee457600080fd5b50610f9e60048036036020811015610efb57600080fd5b8101908080359060200190640100000000811115610f1857600080fd5b820183602082011115610f2a57600080fd5b80359060200191846001830284011164010000000083111715610f4c57600080fd5b91908080601f016020809104026020016040519081016040528093929190818152602001838380828437600081840152601f19601f820116905080830192505050505050509192919290505050613ca0565b6040518082815260200191505060405180910390f35b348015610fc057600080fd5b5061100360048036036020811015610fd757600080fd5b81019080803573ffffffffffffffffffffffffffffffffffffffff169060200190929190505050613d48565b005b34801561101157600080fd5b506110cb6004803603602081101561102857600080fd5b810190808035906020019064010000000081111561104557600080fd5b82018360208201111561105757600080fd5b8035906020019184600183028401116401000000008311171561107957600080fd5b91908080601f016020809104026020016040519081016040528093929190818152602001838380828437600081840152601f19601f820116905080830192505050505050509192919290505050613d95565b6040518080602001828103825283818151815260200191508051906020019080838360005b8381101561110b5780820151818401526020810190506110f0565b50505050905090810190601f1680156111385780820380516001836020036101000a031916815260200191505b509250505060405180910390f35b34801561115257600080fd5b506111956004803603602081101561116957600080fd5b81019080803573ffffffffffffffffffffffffffffffffffffffff169060200190929190505050613ed5565b005b3480156111a357600080fd5b506111f0600480360360408110156111ba57600080fd5b8101908080359060200190929190803573ffffffffffffffffffffffffffffffffffffffff169060200190929190505050614125565b6040518082815260200191505060405180910390f35b34801561121257600080fd5b506112736004803603608081101561122957600080fd5b81019080803573ffffffffffffffffffffffffffffffffffffffff16906020019092919080359060200190929190803590602001909291908035906020019092919050505061414a565b6040518082815260200191505060405180910390f35b34801561129557600080fd5b5061134f600480360360208110156112ac57600080fd5b81019080803590602001906401000000008111156112c957600080fd5b8201836020820111156112db57600080fd5b803590602001918460018302840111640100000000831117156112fd57600080fd5b91908080601f016020809104026020016040519081016040528093929190818152602001838380828437600081840152601f19601f820116905080830192505050505050509192919290505050614331565b6040518082815260200191505060405180910390f35b34801561137157600080fd5b506113be6004803603604081101561138857600080fd5b8101908080359060200190929190803573ffffffffffffffffffffffffffffffffffffffff1690602001909291905050506143d9565b604051808215151515815260200191505060405180910390f35b3480156113e457600080fd5b50611411600480360360208110156113fb57600080fd5b8101908080359060200190929190505050614408565b6040518082815260200191505060405180910390f35b34801561143357600080fd5b506114806004803603604081101561144a57600080fd5b8101908080359060200190929190803573ffffffffffffffffffffffffffffffffffffffff169060200190929190505050614420565b604051808215151515815260200191505060405180910390f35b3480156114a657600080fd5b50611560600480360360208110156114bd57600080fd5b81019080803590602001906401000000008111156114da57600080fd5b8201836020820111156114ec57600080fd5b8035906020019184600183028401116401000000008311171561150e57600080fd5b91908080601f016020809104026020016040519081016040528093929190818152602001838380828437600081840152601f19601f82011690508083019250505050505050919291929050505061444f565b6040518082815260200191505060405180910390f35b34801561158257600080fd5b5061158b6144f7565b604051808273ffffffffffffffffffffffffffffffffffffffff1673ffffffffffffffffffffffffffffffffffffffff16815260200191505060405180910390f35b3480156115d957600080fd5b50611693600480360360208110156115f057600080fd5b810190808035906020019064010000000081111561160d57600080fd5b82018360208201111561161f57600080fd5b8035906020019184600183028401116401000000008311171561164157600080fd5b91908080601f016020809104026020016040519081016040528093929190818152602001838380828437600081840152601f19601f820116905080830192505050505050509192919290505050614520565b604051808215151515815260200191505060405180910390f35b3480156116b957600080fd5b5061179f600480360360608110156116d057600080fd5b81019080803590602001906401000000008111156116ed57600080fd5b8201836020820111156116ff57600080fd5b8035906020019184600183028401116401000000008311171561172157600080fd5b91908080601f016020809104026020016040519081016040528093929190818152602001838380828437600081840152601f19601f820116905080830192505050505050509192919290803573ffffffffffffffffffffffffffffffffffffffff1690602001909291908035151590602001909291905050506145d5565b005b3480156117ad57600080fd5b50611887600480360360408110156117c457600080fd5b81019080803590602001906401000000008111156117e157600080fd5b8201836020820111156117f357600080fd5b8035906020019184600183028401116401000000008311171561181557600080fd5b91908080601f016020809104026020016040519081016040528093929190818152602001838380828437600081840152601f19601f820116905080830192505050505050509192919290803573ffffffffffffffffffffffffffffffffffffffff169060200190929190505050614935565b6040518082815260200191505060405180910390f35b3480156118a957600080fd5b5061196d600480360360408110156118c057600080fd5b81019080803590602001906401000000008111156118dd57600080fd5b8201836020820111156118ef57600080fd5b8035906020019184600183028401116401000000008311171561191157600080fd5b91908080601f016020809104026020016040519081016040528093929190818152602001838380828437600081840152601f19601f82011690508083019250505050505050919291929080359060200190929190505050614a1b565b005b34801561197b57600080fd5b50611984614baf565b6040518082815260200191505060405180910390f35b3480156119a657600080fd5b506119e9600480360360208110156119bd57600080fd5b81019080803573ffffffffffffffffffffffffffffffffffffffff169060200190929190505050614bb5565b604051808215151515815260200191505060405180910390f35b348015611a0f57600080fd5b50611a7260048036036040811015611a2657600080fd5b81019080803573ffffffffffffffffffffffffffffffffffffffff169060200190929190803573ffffffffffffffffffffffffffffffffffffffff169060200190929190505050614bd5565b604051808381526020018281526020019250505060405180910390f35b348015611a9b57600080fd5b50611af260048036036060811015611ab257600080fd5b81019080803573ffffffffffffffffffffffffffffffffffffffff1690602001909291908035906020019092919080359060200190929190505050614c06565b005b348015611b0057600080fd5b50611b4360048036036020811015611b1757600080fd5b81019080803573ffffffffffffffffffffffffffffffffffffffff169060200190929190505050614d0a565b005b348015611b5157600080fd5b50611ca260048036036040811015611b6857600080fd5b8101908080359060200190640100000000811115611b8557600080fd5b820183602082011115611b9757600080fd5b80359060200191846001830284011164010000000083111715611bb957600080fd5b91908080601f016020809104026020016040519081016040528093929190818152602001838380828437600081840152601f19601f82011690508083019250505050505050919291929080359060200190640100000000811115611c1c57600080fd5b820183602082011115611c2e57600080fd5b80359060200191846001830284011164010000000083111715611c5057600080fd5b91908080601f016020809104026020016040519081016040528093929190818152602001838380828437600081840152601f19601f820116905080830192505050505050509192919290505050614f05565b005b348015611cb057600080fd5b50611d2660048036036060811015611cc757600080fd5b81019080803573ffffffffffffffffffffffffffffffffffffffff1690602001909291908035906020019092919080357bffffffffffffffffffffffffffffffffffffffffffffffffffffffff191690602001909291905050506150a9565b005b348015611d3457600080fd5b50611d6b60048036036040811015611d4b57600080fd5b810190808035906020019092919080359060200190929190505050615714565b604051808273ffffffffffffffffffffffffffffffffffffffff1673ffffffffffffffffffffffffffffffffffffffff16815260200191505060405180910390f35b348015611db957600080fd5b50611df060048036036040811015611dd057600080fd5b810190808035906020019092919080359060200190929190505050615756565b604051808273ffffffffffffffffffffffffffffffffffffffff1673ffffffffffffffffffffffffffffffffffffffff16815260200191505060405180910390f35b348015611e3e57600080fd5b50611e6b60048036036020811015611e5557600080fd5b8101908080359060200190929190505050615798565b604051808273ffffffffffffffffffffffffffffffffffffffff1673ffffffffffffffffffffffffffffffffffffffff16815260200191505060405180910390f35b348015611eb957600080fd5b50611ee660048036036020811015611ed057600080fd5b81019080803590602001909291905050506157cb565b604051808273ffffffffffffffffffffffffffffffffffffffff1673ffffffffffffffffffffffffffffffffffffffff16815260200191505060405180910390f35b348015611f3457600080fd5b50611f7760048036036020811015611f4b57600080fd5b81019080803573ffffffffffffffffffffffffffffffffffffffff169060200190929190505050615809565b005b348015611f8557600080fd5b50611fc860048036036020811015611f9c57600080fd5b81019080803573ffffffffffffffffffffffffffffffffffffffff169060200190929190505050615a4e565b604051808681526020018573ffffffffffffffffffffffffffffffffffffffff1673ffffffffffffffffffffffffffffffffffffffff1681526020018473ffffffffffffffffffffffffffffffffffffffff1673ffffffffffffffffffffffffffffffffffffffff168152602001838152602001827bffffffffffffffffffffffffffffffffffffffffffffffffffffffff19167bffffffffffffffffffffffffffffffffffffffffffffffffffffffff191681526020019550505050505060405180910390f35b34801561209c57600080fd5b50612132600480360360808110156120b357600080fd5b81019080803573ffffffffffffffffffffffffffffffffffffffff169060200190929190803573ffffffffffffffffffffffffffffffffffffffff1690602001909291908035906020019092919080357bffffffffffffffffffffffffffffffffffffffffffffffffffffffff19169060200190929190505050615aed565b005b34801561214057600080fd5b5061216d6004803603602081101561215757600080fd5b8101908080359060200190929190505050615cd4565b6040518082815260200191505060405180910390f35b34801561218f57600080fd5b50612269600480360360408110156121a657600080fd5b81019080803590602001906401000000008111156121c357600080fd5b8201836020820111156121d557600080fd5b803590602001918460018302840111640100000000831117156121f757600080fd5b91908080601f016020809104026020016040519081016040528093929190818152602001838380828437600081840152601f19601f820116905080830192505050505050509192919290803573ffffffffffffffffffffffffffffffffffffffff169060200190929190505050615cec565b604051808215151515815260200191505060405180910390f35b34801561228f57600080fd5b506122dc600480360360408110156122a657600080fd5b81019080803573ffffffffffffffffffffffffffffffffffffffff16906020019092919080359060200190929190505050615ddf565b6040518082815260200191505060405180910390f35b3480156122fe57600080fd5b506123b86004803603602081101561231557600080fd5b810190808035906020019064010000000081111561233257600080fd5b82018360208201111561234457600080fd5b8035906020019184600183028401116401000000008311171561236657600080fd5b91908080601f016020809104026020016040519081016040528093929190818152602001838380828437600081840152601f19601f820116905080830192505050505050509192919290505050615f01565b6040518082815260200191505060405180910390f35b3480156123da57600080fd5b50612427600480360360408110156123f157600080fd5b8101908080359060200190929190803573ffffffffffffffffffffffffffffffffffffffff169060200190929190505050615fa9565b604051808215151515815260200191505060405180910390f35b34801561244d57600080fd5b506124906004803603602081101561246457600080fd5b81019080803573ffffffffffffffffffffffffffffffffffffffff169060200190929190505050615fd8565b005b34801561249e57600080fd5b50612558600480360360208110156124b557600080fd5b81019080803590602001906401000000008111156124d257600080fd5b8201836020820111156124e457600080fd5b8035906020019184600183028401116401000000008311171561250657600080fd5b91908080601f016020809104026020016040519081016040528093929190818152602001838380828437600081840152601f19601f8201169050808301925050505050505091929192905050506160ff565b604051808273ffffffffffffffffffffffffffffffffffffffff1673ffffffffffffffffffffffffffffffffffffffff16815260200191505060405180910390f35b600a6020528060005260406000206000915090505481565b6125ba6144f7565b73ffffffffffffffffffffffffffffffffffffffff163373ffffffffffffffffffffffffffffffffffffffff161415801561263f5750600660003373ffffffffffffffffffffffffffffffffffffffff1673ffffffffffffffffffffffffffffffffffffffff16815260200190815260200160002060009054906101000a900460ff16155b80156126955750600560003373ffffffffffffffffffffffffffffffffffffffff1673ffffffffffffffffffffffffffffffffffffffff16815260200190815260200160002060009054906101000a900460ff16155b1561269f57600080fd5b8060196000846040516020018080602001828103825283818151815260200191508051906020019080838360005b838110156126e85780820151818401526020810190506126cd565b50505050905090810190601f1680156127155780820380516001836020036101000a031916815260200191505b5092505050604051602081830303815290604052805190602001208152602001908152602001600020819055505050565b5050565b60015481565b600c6020528160005260406000206020528060005260406000206000915091509054906101000a900473ffffffffffffffffffffffffffffffffffffffff1681565b600060096000856040516020018080602001828103825283818151815260200191508051906020019080838360005b838110156127dc5780820151818401526020810190506127c1565b50505050905090810190601f1680156128095780820380516001836020036101000a031916815260200191505b509250505060405160208183030381529060405280519060200120815260200190815260200160002060008473ffffffffffffffffffffffffffffffffffffffff1673ffffffffffffffffffffffffffffffffffffffff16815260200190815260200160002060008373ffffffffffffffffffffffffffffffffffffffff1673ffffffffffffffffffffffffffffffffffffffff1681526020019081526020016000205490509392505050565b6128be6144f7565b73ffffffffffffffffffffffffffffffffffffffff163373ffffffffffffffffffffffffffffffffffffffff16141580156129435750600660003373ffffffffffffffffffffffffffffffffffffffff1673ffffffffffffffffffffffffffffffffffffffff16815260200190815260200160002060009054906101000a900460ff16155b80156129995750600560003373ffffffffffffffffffffffffffffffffffffffff1673ffffffffffffffffffffffffffffffffffffffff16815260200190815260200160002060009054906101000a900460ff16155b156129a357600080fd5b6000836040516020018080602001828103825283818151815260200191508051906020019080838360005b838110156129e95780820151818401526020810190506129ce565b50505050905090810190601f168015612a165780820380516001836020036101000a031916815260200191505b50925050506040516020818303038152906040528051906020012090506013600082815260200190815260200160002060008473ffffffffffffffffffffffffffffffffffffffff1673ffffffffffffffffffffffffffffffffffffffff16815260200190815260200160002060009054906101000a900460ff161515612ba8576000601260008381526020019081526020016000205490508360146000848152602001908152602001600020600083815260200190815260200160002060006101000a81548173ffffffffffffffffffffffffffffffffffffffff021916908373ffffffffffffffffffffffffffffffffffffffff160217905550612b266001826161c790919063ffffffff16565b601260008481526020019081526020016000208190555060016013600084815260200190815260200160002060008673ffffffffffffffffffffffffffffffffffffffff1673ffffffffffffffffffffffffffffffffffffffff16815260200190815260200160002060006101000a81548160ff021916908315150217905550505b816011600083815260200190815260200160002060008573ffffffffffffffffffffffffffffffffffffffff1673ffffffffffffffffffffffffffffffffffffffff1681526020019081526020016000208190555050505050565b612c0b6144f7565b73ffffffffffffffffffffffffffffffffffffffff163373ffffffffffffffffffffffffffffffffffffffff1614158015612c905750600660003373ffffffffffffffffffffffffffffffffffffffff1673ffffffffffffffffffffffffffffffffffffffff16815260200190815260200160002060009054906101000a900460ff16155b8015612ce65750600560003373ffffffffffffffffffffffffffffffffffffffff1673ffffffffffffffffffffffffffffffffffffffff16815260200190815260200160002060009054906101000a900460ff16155b15612cf057600080fd5b80601a6000846040516020018080602001828103825283818151815260200191508051906020019080838360005b83811015612d39578082015181840152602081019050612d1e565b50505050905090810190601f168015612d665780820380516001836020036101000a031916815260200191505b5092505050604051602081830303815290604052805190602001208152602001908152602001600020819055505050565b612d9f6144f7565b73ffffffffffffffffffffffffffffffffffffffff163373ffffffffffffffffffffffffffffffffffffffff1614158015612e245750600660003373ffffffffffffffffffffffffffffffffffffffff1673ffffffffffffffffffffffffffffffffffffffff16815260200190815260200160002060009054906101000a900460ff16155b15612e2e57600080fd5b6000600560008373ffffffffffffffffffffffffffffffffffffffff1673ffffffffffffffffffffffffffffffffffffffff16815260200190815260200160002060006101000a81548160ff0219169083151502179055508073ffffffffffffffffffffffffffffffffffffffff167f753f40ca3312b2408759a67875b367955e7baa221daf08aa3d643d96202ac12b60405160405180910390a250565b600f602052826000526040600020602052816000526040600020602052806000526040600020600092509250509054906101000a900473ffffffffffffffffffffffffffffffffffffffff1681565b612f236144f7565b73ffffffffffffffffffffffffffffffffffffffff163373ffffffffffffffffffffffffffffffffffffffff1614158015612fa85750600660003373ffffffffffffffffffffffffffffffffffffffff1673ffffffffffffffffffffffffffffffffffffffff16815260200190815260200160002060009054906101000a900460ff16155b8015612ffe5750600560003373ffffffffffffffffffffffffffffffffffffffff1673ffffffffffffffffffffffffffffffffffffffff16815260200190815260200160002060009054906101000a900460ff16155b1561300857600080fd5b6000846040516020018080602001828103825283818151815260200191508051906020019080838360005b8381101561304e578082015181840152602081019050613033565b50505050905090810190601f16801561307b5780820380516001836020036101000a031916815260200191505b50925050506040516020818303038152906040528051906020012090506000600a60008381526020019081526020016000205490506000600d600084815260200190815260200160002060008773ffffffffffffffffffffffffffffffffffffffff1673ffffffffffffffffffffffffffffffffffffffff168152602001908152602001600020549050600e600084815260200190815260200160002060008773ffffffffffffffffffffffffffffffffffffffff1673ffffffffffffffffffffffffffffffffffffffff16815260200190815260200160002060008673ffffffffffffffffffffffffffffffffffffffff1673ffffffffffffffffffffffffffffffffffffffff16815260200190815260200160002060009054906101000a900460ff1615156134b15784600f600085815260200190815260200160002060008873ffffffffffffffffffffffffffffffffffffffff1673ffffffffffffffffffffffffffffffffffffffff168152602001908152602001600020600083815260200190815260200160002060006101000a81548173ffffffffffffffffffffffffffffffffffffffff021916908373ffffffffffffffffffffffffffffffffffffffff16021790555061325a6001826161c790919063ffffffff16565b600d600085815260200190815260200160002060008873ffffffffffffffffffffffffffffffffffffffff1673ffffffffffffffffffffffffffffffffffffffff168152602001908152602001600020819055506001600e600085815260200190815260200160002060008873ffffffffffffffffffffffffffffffffffffffff1673ffffffffffffffffffffffffffffffffffffffff16815260200190815260200160002060008773ffffffffffffffffffffffffffffffffffffffff1673ffffffffffffffffffffffffffffffffffffffff16815260200190815260200160002060006101000a81548160ff021916908315150217905550600b600084815260200190815260200160002060008773ffffffffffffffffffffffffffffffffffffffff1673ffffffffffffffffffffffffffffffffffffffff16815260200190815260200160002060009054906101000a900460ff1615156134b05785600c6000858152602001908152602001600020600084815260200190815260200160002060006101000a81548173ffffffffffffffffffffffffffffffffffffffff021916908373ffffffffffffffffffffffffffffffffffffffff16021790555061342f6001836161c790919063ffffffff16565b600a6000858152602001908152602001600020819055506001600b600085815260200190815260200160002060008873ffffffffffffffffffffffffffffffffffffffff1673ffffffffffffffffffffffffffffffffffffffff16815260200190815260200160002060006101000a81548160ff0219169083151502179055505b5b836009600085815260200190815260200160002060008873ffffffffffffffffffffffffffffffffffffffff1673ffffffffffffffffffffffffffffffffffffffff16815260200190815260200160002060008773ffffffffffffffffffffffffffffffffffffffff1673ffffffffffffffffffffffffffffffffffffffff1681526020019081526020016000208190555050505050505050565b7f3de6942a798d68cf19b2bb7207cacf6c331a8fc7806b0f420977489c636d370c81604051808273ffffffffffffffffffffffffffffffffffffffff1673ffffffffffffffffffffffffffffffffffffffff16815260200191505060405180910390a150565b60036020528060005260406000206000915054906101000a900473ffffffffffffffffffffffffffffffffffffffff1681565b6135ed6144f7565b73ffffffffffffffffffffffffffffffffffffffff163373ffffffffffffffffffffffffffffffffffffffff16141580156136725750600660003373ffffffffffffffffffffffffffffffffffffffff1673ffffffffffffffffffffffffffffffffffffffff16815260200190815260200160002060009054906101000a900460ff16155b80156136c85750600560003373ffffffffffffffffffffffffffffffffffffffff1673ffffffffffffffffffffffffffffffffffffffff16815260200190815260200160002060009054906101000a900460ff16155b156136d257600080fd5b80601d6000846040516020018080602001828103825283818151815260200191508051906020019080838360005b8381101561371b578082015181840152602081019050613700565b50505050905090810190601f1680156137485780820380516001836020036101000a031916815260200191505b509250505060405160208183030381529060405280519060200120815260200190815260200160002060006101000a81548160ff0219169083151502179055505050565b600080600790505b6000811015156138e4576000839050602060008573ffffffffffffffffffffffffffffffffffffffff1673ffffffffffffffffffffffffffffffffffffffff168152602001908152602001600020826008811015156137ef57fe5b01548173ffffffffffffffffffffffffffffffffffffffff166370a08231336040518263ffffffff167c0100000000000000000000000000000000000000000000000000000000028152600401808273ffffffffffffffffffffffffffffffffffffffff1673ffffffffffffffffffffffffffffffffffffffff16815260200191505060206040518083038186803b15801561388a57600080fd5b505afa15801561389e573d6000803e3d6000fd5b505050506040513d60208110156138b457600080fd5b810190808051906020019092919050505011156138d55781925050506138ea565b50808060019003915050613794565b50600090505b919050565b6138f76144f7565b73ffffffffffffffffffffffffffffffffffffffff163373ffffffffffffffffffffffffffffffffffffffff161415801561397c5750600660003373ffffffffffffffffffffffffffffffffffffffff1673ffffffffffffffffffffffffffffffffffffffff16815260200190815260200160002060009054906101000a900460ff16155b80156139d25750600560003373ffffffffffffffffffffffffffffffffffffffff1673ffffffffffffffffffffffffffffffffffffffff16815260200190815260200160002060009054906101000a900460ff16155b156139dc57600080fd5b80601b6000846040516020018080602001828103825283818151815260200191508051906020019080838360005b83811015613a25578082015181840152602081019050613a0a565b50505050905090810190601f168015613a525780820380516001836020036101000a031916815260200191505b509250505060405160208183030381529060405280519060200120815260200190815260200160002060006101000a81548173ffffffffffffffffffffffffffffffffffffffff021916908373ffffffffffffffffffffffffffffffffffffffff1602179055505050565b60056020528060005260406000206000915054906101000a900460ff1681565b600e602052826000526040600020602052816000526040600020602052806000526040600020600092509250509054906101000a900460ff1681565b613b216144f7565b73ffffffffffffffffffffffffffffffffffffffff163373ffffffffffffffffffffffffffffffffffffffff16141515613b5a57600080fd5b6000600660008373ffffffffffffffffffffffffffffffffffffffff1673ffffffffffffffffffffffffffffffffffffffff16815260200190815260200160002060006101000a81548160ff0219169083151502179055508073ffffffffffffffffffffffffffffffffffffffff167f1aaaaf7609619e631f47eb3546f9fdd8c61b1af2175988a0ddb9a06680c3b9ed60405160405180910390a250565b600060196000836040516020018080602001828103825283818151815260200191508051906020019080838360005b83811015613c42578082015181840152602081019050613c27565b50505050905090810190601f168015613c6f5780820380516001836020036101000a031916815260200191505b5092505050604051602081830303815290604052805190602001208152602001908152602001600020549050919050565b600060126000836040516020018080602001828103825283818151815260200191508051906020019080838360005b83811015613cea578082015181840152602081019050613ccf565b50505050905090810190601f168015613d175780820380516001836020036101000a031916815260200191505b5092505050604051602081830303815290604052805190602001208152602001908152602001600020549050919050565b613d506144f7565b73ffffffffffffffffffffffffffffffffffffffff163373ffffffffffffffffffffffffffffffffffffffff16141515613d8957600080fd5b613d92816161e5565b50565b6060601c6000836040516020018080602001828103825283818151815260200191508051906020019080838360005b83811015613ddf578082015181840152602081019050613dc4565b50505050905090810190601f168015613e0c5780820380516001836020036101000a031916815260200191505b50925050506040516020818303038152906040528051906020012081526020019081526020016000208054600181600116156101000203166002900480601f016020809104026020016040519081016040528092919081815260200182805460018160011615610100020316600290048015613ec95780601f10613e9e57610100808354040283529160200191613ec9565b820191906000526020600020905b815481529060010190602001808311613eac57829003601f168201915b50505050509050919050565b613edd6144f7565b73ffffffffffffffffffffffffffffffffffffffff163373ffffffffffffffffffffffffffffffffffffffff1614158015613f625750600660003373ffffffffffffffffffffffffffffffffffffffff1673ffffffffffffffffffffffffffffffffffffffff16815260200190815260200160002060009054906101000a900460ff16155b15613f6c57600080fd5b6001600560008373ffffffffffffffffffffffffffffffffffffffff1673ffffffffffffffffffffffffffffffffffffffff16815260200190815260200160002060006101000a81548160ff021916908315150217905550600760008273ffffffffffffffffffffffffffffffffffffffff1673ffffffffffffffffffffffffffffffffffffffff16815260200190815260200160002060009054906101000a900460ff1615156140df576001600760008373ffffffffffffffffffffffffffffffffffffffff1673ffffffffffffffffffffffffffffffffffffffff16815260200190815260200160002060006101000a81548160ff0219169083151502179055508060036000600154815260200190815260200160002060006101000a81548173ffffffffffffffffffffffffffffffffffffffff021916908373ffffffffffffffffffffffffffffffffffffffff1602179055506140d8600180546161c790919063ffffffff16565b6001819055505b8073ffffffffffffffffffffffffffffffffffffffff167fad6de4452a631e641cb59902236607946ce9272b9b981f2f80e8d129cb9084ba60405160405180910390a250565b600d602052816000526040600020602052806000526040600020600091509150505481565b6000602260008673ffffffffffffffffffffffffffffffffffffffff1673ffffffffffffffffffffffffffffffffffffffff16815260200190815260200160002060020160009054906101000a900473ffffffffffffffffffffffffffffffffffffffff1673ffffffffffffffffffffffffffffffffffffffff163373ffffffffffffffffffffffffffffffffffffffff161415156141e857600080fd5b600042905060008682604051602001808373ffffffffffffffffffffffffffffffffffffffff1673ffffffffffffffffffffffffffffffffffffffff166c0100000000000000000000000002815260140182815260200192505050604051602081830303815290604052805190602001209050816021600083815260200190815260200160002060050181905550602260008873ffffffffffffffffffffffffffffffffffffffff1673ffffffffffffffffffffffffffffffffffffffff1681526020019081526020016000206000015460216000838152602001908152602001600020600001819055508560216000838152602001908152602001600020600101819055508460216000838152602001908152602001600020600201819055508360216000838152602001908152602001600020600401819055508192505050949350505050565b6000601a6000836040516020018080602001828103825283818151815260200191508051906020019080838360005b8381101561437b578082015181840152602081019050614360565b50505050905090810190601f1680156143a85780820380516001836020036101000a031916815260200191505b5092505050604051602081830303815290604052805190602001208152602001908152602001600020549050919050565b60176020528160005260406000206020528060005260406000206000915091509054906101000a900460ff1681565b60166020528060005260406000206000915090505481565b600b6020528160005260406000206020528060005260406000206000915091509054906101000a900460ff1681565b6000601e6000836040516020018080602001828103825283818151815260200191508051906020019080838360005b8381101561449957808201518184015260208101905061447e565b50505050905090810190601f1680156144c65780820380516001836020036101000a031916815260200191505b5092505050604051602081830303815290604052805190602001208152602001908152602001600020549050919050565b60008060009054906101000a900473ffffffffffffffffffffffffffffffffffffffff16905090565b6000601d6000836040516020018080602001828103825283818151815260200191508051906020019080838360005b8381101561456a57808201518184015260208101905061454f565b50505050905090810190601f1680156145975780820380516001836020036101000a031916815260200191505b509250505060405160208183030381529060405280519060200120815260200190815260200160002060009054906101000a900460ff169050919050565b6145dd6144f7565b73ffffffffffffffffffffffffffffffffffffffff163373ffffffffffffffffffffffffffffffffffffffff16141580156146625750600660003373ffffffffffffffffffffffffffffffffffffffff1673ffffffffffffffffffffffffffffffffffffffff16815260200190815260200160002060009054906101000a900460ff16155b80156146b85750600560003373ffffffffffffffffffffffffffffffffffffffff1673ffffffffffffffffffffffffffffffffffffffff16815260200190815260200160002060009054906101000a900460ff16155b156146c257600080fd5b6000836040516020018080602001828103825283818151815260200191508051906020019080838360005b838110156147085780820151818401526020810190506146ed565b50505050905090810190601f1680156147355780820380516001836020036101000a031916815260200191505b50925050506040516020818303038152906040528051906020012090506017600082815260200190815260200160002060008473ffffffffffffffffffffffffffffffffffffffff1673ffffffffffffffffffffffffffffffffffffffff16815260200190815260200160002060009054906101000a900460ff1615156148c7576000601660008381526020019081526020016000205490508360186000848152602001908152602001600020600083815260200190815260200160002060006101000a81548173ffffffffffffffffffffffffffffffffffffffff021916908373ffffffffffffffffffffffffffffffffffffffff1602179055506148456001826161c790919063ffffffff16565b601660008481526020019081526020016000208190555060016017600084815260200190815260200160002060008673ffffffffffffffffffffffffffffffffffffffff1673ffffffffffffffffffffffffffffffffffffffff16815260200190815260200160002060006101000a81548160ff021916908315150217905550505b816015600083815260200190815260200160002060008573ffffffffffffffffffffffffffffffffffffffff1673ffffffffffffffffffffffffffffffffffffffff16815260200190815260200160002060006101000a81548160ff02191690831515021790555050505050565b600060116000846040516020018080602001828103825283818151815260200191508051906020019080838360005b8381101561497f578082015181840152602081019050614964565b50505050905090810190601f1680156149ac5780820380516001836020036101000a031916815260200191505b509250505060405160208183030381529060405280519060200120815260200190815260200160002060008373ffffffffffffffffffffffffffffffffffffffff1673ffffffffffffffffffffffffffffffffffffffff16815260200190815260200160002054905092915050565b614a236144f7565b73ffffffffffffffffffffffffffffffffffffffff163373ffffffffffffffffffffffffffffffffffffffff1614158015614aa85750600660003373ffffffffffffffffffffffffffffffffffffffff1673ffffffffffffffffffffffffffffffffffffffff16815260200190815260200160002060009054906101000a900460ff16155b8015614afe5750600560003373ffffffffffffffffffffffffffffffffffffffff1673ffffffffffffffffffffffffffffffffffffffff16815260200190815260200160002060009054906101000a900460ff16155b15614b0857600080fd5b80601e6000846040516020018080602001828103825283818151815260200191508051906020019080838360005b83811015614b51578082015181840152602081019050614b36565b50505050905090810190601f168015614b7e5780820380516001836020036101000a031916815260200191505b5092505050604051602081830303815290604052805190602001208152602001908152602001600020819055505050565b60025481565b60066020528060005260406000206000915054906101000a900460ff1681565b6010602052816000526040600020602052806000526040600020600091509150508060000154908060010154905082565b823373ffffffffffffffffffffffffffffffffffffffff16602260008373ffffffffffffffffffffffffffffffffffffffff1673ffffffffffffffffffffffffffffffffffffffff16815260200190815260200160002060010160009054906101000a900473ffffffffffffffffffffffffffffffffffffffff1673ffffffffffffffffffffffffffffffffffffffff16141515614ca357600080fd5b600883101515614cb257600080fd5b81602060008673ffffffffffffffffffffffffffffffffffffffff1673ffffffffffffffffffffffffffffffffffffffff16815260200190815260200160002084600881101515614cff57fe5b018190555050505050565b614d126144f7565b73ffffffffffffffffffffffffffffffffffffffff163373ffffffffffffffffffffffffffffffffffffffff16141515614d4b57600080fd5b6001600660008373ffffffffffffffffffffffffffffffffffffffff1673ffffffffffffffffffffffffffffffffffffffff16815260200190815260200160002060006101000a81548160ff021916908315150217905550600860008273ffffffffffffffffffffffffffffffffffffffff1673ffffffffffffffffffffffffffffffffffffffff16815260200190815260200160002060009054906101000a900460ff161515614ebf576001600860008373ffffffffffffffffffffffffffffffffffffffff1673ffffffffffffffffffffffffffffffffffffffff16815260200190815260200160002060006101000a81548160ff0219169083151502179055508060046000600254815260200190815260200160002060006101000a81548173ffffffffffffffffffffffffffffffffffffffff021916908373ffffffffffffffffffffffffffffffffffffffff160217905550614eb860016002546161c790919063ffffffff16565b6002819055505b8073ffffffffffffffffffffffffffffffffffffffff167ffba24c034afca607a35e1f221b154b3f8e1f88c7924c8a0a06755b70708c44d860405160405180910390a250565b614f0d6144f7565b73ffffffffffffffffffffffffffffffffffffffff163373ffffffffffffffffffffffffffffffffffffffff1614158015614f925750600660003373ffffffffffffffffffffffffffffffffffffffff1673ffffffffffffffffffffffffffffffffffffffff16815260200190815260200160002060009054906101000a900460ff16155b8015614fe85750600560003373ffffffffffffffffffffffffffffffffffffffff1673ffffffffffffffffffffffffffffffffffffffff16815260200190815260200160002060009054906101000a900460ff16155b15614ff257600080fd5b80601c6000846040516020018080602001828103825283818151815260200191508051906020019080838360005b8381101561503b578082015181840152602081019050615020565b50505050905090810190601f1680156150685780820380516001836020036101000a031916815260200191505b509250505060405160208183030381529060405280519060200120815260200190815260200160002090805190602001906150a49291906163bf565b505050565b823373ffffffffffffffffffffffffffffffffffffffff16602260008373ffffffffffffffffffffffffffffffffffffffff1673ffffffffffffffffffffffffffffffffffffffff16815260200190815260200160002060010160009054906101000a900473ffffffffffffffffffffffffffffffffffffffff1673ffffffffffffffffffffffffffffffffffffffff1614151561514657600080fd5b6000601f60009054906101000a900473ffffffffffffffffffffffffffffffffffffffff16905060008173ffffffffffffffffffffffffffffffffffffffff1663fd2556836040518163ffffffff167c010000000000000000000000000000000000000000000000000000000002815260040180806020018281038252600f8152602001807f414e475f73797374656d5f61646472000000000000000000000000000000000081525060200191505060206040518083038186803b15801561520d57600080fd5b505afa158015615221573d6000803e3d6000fd5b505050506040513d602081101561523757600080fd5b8101908080519060200190929190505050905060008273ffffffffffffffffffffffffffffffffffffffff16634f1612456040518163ffffffff167c010000000000000000000000000000000000000000000000000000000002815260040180806020018281038252600c8152602001807f6f75725f7368617265313030000000000000000000000000000000000000000081525060200191505060206040518083038186803b1580156152ea57600080fd5b505afa1580156152fe573d6000803e3d6000fd5b505050506040513d602081101561531457600080fd5b81019080805190602001909291905050509050615332878383616228565b151561533d57600080fd5b33602260008973ffffffffffffffffffffffffffffffffffffffff1673ffffffffffffffffffffffffffffffffffffffff16815260200190815260200160002060010160006101000a81548173ffffffffffffffffffffffffffffffffffffffff021916908373ffffffffffffffffffffffffffffffffffffffff16021790555085602260008973ffffffffffffffffffffffffffffffffffffffff1673ffffffffffffffffffffffffffffffffffffffff1681526020019081526020016000206003018190555084602260008973ffffffffffffffffffffffffffffffffffffffff1673ffffffffffffffffffffffffffffffffffffffff16815260200190815260200160002060040160006101000a81548163ffffffff02191690837c01000000000000000000000000000000000000000000000000000000009004021790555060238790806001815401808255809150509060018203906000526020600020016000909192909190916101000a81548173ffffffffffffffffffffffffffffffffffffffff021916908373ffffffffffffffffffffffffffffffffffffffff16021790555050602380549050602260008973ffffffffffffffffffffffffffffffffffffffff1673ffffffffffffffffffffffffffffffffffffffff168152602001908152602001600020600001819055507f5af8025d6adb7569fd240c526c29e6dd2279a32d84fda1f040d2c64ad2dae27b602260008973ffffffffffffffffffffffffffffffffffffffff1673ffffffffffffffffffffffffffffffffffffffff16815260200190815260200160002060010160009054906101000a900473ffffffffffffffffffffffffffffffffffffffff1688602260008b73ffffffffffffffffffffffffffffffffffffffff1673ffffffffffffffffffffffffffffffffffffffff16815260200190815260200160002060030154602260008c73ffffffffffffffffffffffffffffffffffffffff1673ffffffffffffffffffffffffffffffffffffffff16815260200190815260200160002060020160009054906101000a900473ffffffffffffffffffffffffffffffffffffffff16604051808573ffffffffffffffffffffffffffffffffffffffff1673ffffffffffffffffffffffffffffffffffffffff1681526020018473ffffffffffffffffffffffffffffffffffffffff1673ffffffffffffffffffffffffffffffffffffffff1681526020018381526020018273ffffffffffffffffffffffffffffffffffffffff1673ffffffffffffffffffffffffffffffffffffffff16815260200194505050505060405180910390a150505050505050565b60146020528160005260406000206020528060005260406000206000915091509054906101000a900473ffffffffffffffffffffffffffffffffffffffff1681565b60186020528160005260406000206020528060005260406000206000915091509054906101000a900473ffffffffffffffffffffffffffffffffffffffff1681565b60046020528060005260406000206000915054906101000a900473ffffffffffffffffffffffffffffffffffffffff1681565b6023818154811015156157da57fe5b906000526020600020016000915054906101000a900473ffffffffffffffffffffffffffffffffffffffff1681565b6158116144f7565b73ffffffffffffffffffffffffffffffffffffffff163373ffffffffffffffffffffffffffffffffffffffff16141580156158965750600660003373ffffffffffffffffffffffffffffffffffffffff1673ffffffffffffffffffffffffffffffffffffffff16815260200190815260200160002060009054906101000a900460ff16155b80156158ec5750600560003373ffffffffffffffffffffffffffffffffffffffff1673ffffffffffffffffffffffffffffffffffffffff16815260200190815260200160002060009054906101000a900460ff16155b156158f657600080fd5b80601f60006101000a81548173ffffffffffffffffffffffffffffffffffffffff021916908373ffffffffffffffffffffffffffffffffffffffff1602179055506000601f60009054906101000a900473ffffffffffffffffffffffffffffffffffffffff1690508073ffffffffffffffffffffffffffffffffffffffff1663413c6d13306040518263ffffffff167c010000000000000000000000000000000000000000000000000000000002815260040180806020018373ffffffffffffffffffffffffffffffffffffffff1673ffffffffffffffffffffffffffffffffffffffff168152602001828103825260138152602001807f736372756d696e766573742f70726f6a6563740000000000000000000000000081525060200192505050600060405180830381600087803b158015615a3257600080fd5b505af1158015615a46573d6000803e3d6000fd5b505050505050565b60226020528060005260406000206000915090508060000154908060010160009054906101000a900473ffffffffffffffffffffffffffffffffffffffff16908060020160009054906101000a900473ffffffffffffffffffffffffffffffffffffffff16908060030154908060040160009054906101000a90047c010000000000000000000000000000000000000000000000000000000002905085565b833373ffffffffffffffffffffffffffffffffffffffff16602260008373ffffffffffffffffffffffffffffffffffffffff1673ffffffffffffffffffffffffffffffffffffffff16815260200190815260200160002060010160009054906101000a900473ffffffffffffffffffffffffffffffffffffffff1673ffffffffffffffffffffffffffffffffffffffff16141515615b8a57600080fd5b83602260008773ffffffffffffffffffffffffffffffffffffffff1673ffffffffffffffffffffffffffffffffffffffff16815260200190815260200160002060010160006101000a81548173ffffffffffffffffffffffffffffffffffffffff021916908373ffffffffffffffffffffffffffffffffffffffff16021790555082602260008773ffffffffffffffffffffffffffffffffffffffff1673ffffffffffffffffffffffffffffffffffffffff1681526020019081526020016000206003018190555081602260008773ffffffffffffffffffffffffffffffffffffffff1673ffffffffffffffffffffffffffffffffffffffff16815260200190815260200160002060040160006101000a81548163ffffffff02191690837c0100000000000000000000000000000000000000000000000000000000900402179055505050505050565b60126020528060005260406000206000915090505481565b600060156000846040516020018080602001828103825283818151815260200191508051906020019080838360005b83811015615d36578082015181840152602081019050615d1b565b50505050905090810190601f168015615d635780820380516001836020036101000a031916815260200191505b509250505060405160208183030381529060405280519060200120815260200190815260200160002060008373ffffffffffffffffffffffffffffffffffffffff1673ffffffffffffffffffffffffffffffffffffffff16815260200190815260200160002060009054906101000a900460ff16905092915050565b600080615deb8461378c565b1115615e7857602160008484604051602001808373ffffffffffffffffffffffffffffffffffffffff1673ffffffffffffffffffffffffffffffffffffffff166c0100000000000000000000000002815260140182815260200192505050604051602081830303815290604052805190602001208152602001908152602001600020600101549050615efb565b602160008484604051602001808373ffffffffffffffffffffffffffffffffffffffff1673ffffffffffffffffffffffffffffffffffffffff166c01000000000000000000000000028152601401828152602001925050506040516020818303038152906040528051906020012081526020019081526020016000206004015490505b92915050565b600060166000836040516020018080602001828103825283818151815260200191508051906020019080838360005b83811015615f4b578082015181840152602081019050615f30565b50505050905090810190601f168015615f785780820380516001836020036101000a031916815260200191505b5092505050604051602081830303815290604052805190602001208152602001908152602001600020549050919050565b60136020528160005260406000206020528060005260406000206000915091509054906101000a900460ff1681565b615fe06144f7565b73ffffffffffffffffffffffffffffffffffffffff163373ffffffffffffffffffffffffffffffffffffffff1614151561601957600080fd5b600073ffffffffffffffffffffffffffffffffffffffff168173ffffffffffffffffffffffffffffffffffffffff161415151561605557600080fd5b7f8be0079c531659141344cd1fd0a4f28419497f9722a3daafe3b4186f6b6457e061607e6144f7565b82604051808373ffffffffffffffffffffffffffffffffffffffff1673ffffffffffffffffffffffffffffffffffffffff1681526020018273ffffffffffffffffffffffffffffffffffffffff1673ffffffffffffffffffffffffffffffffffffffff1681526020019250505060405180910390a16160fc816161e5565b50565b6000601b6000836040516020018080602001828103825283818151815260200191508051906020019080838360005b8381101561614957808201518184015260208101905061612e565b50505050905090810190601f1680156161765780820380516001836020036101000a031916815260200191505b509250505060405160208183030381529060405280519060200120815260200190815260200160002060009054906101000a900473ffffffffffffffffffffffffffffffffffffffff169050919050565b60008082840190508381101515156161db57fe5b8091505092915050565b806000806101000a81548173ffffffffffffffffffffffffffffffffffffffff021916908373ffffffffffffffffffffffffffffffffffffffff16021790555050565b6000808473ffffffffffffffffffffffffffffffffffffffff166318160ddd6040518163ffffffff167c010000000000000000000000000000000000000000000000000000000002815260040160206040518083038186803b15801561628d57600080fd5b505afa1580156162a1573d6000803e3d6000fd5b505050506040513d60208110156162b757600080fd5b8101908080519060200190929190505050905060008573ffffffffffffffffffffffffffffffffffffffff166370a08231866040518263ffffffff167c0100000000000000000000000000000000000000000000000000000000028152600401808273ffffffffffffffffffffffffffffffffffffffff1673ffffffffffffffffffffffffffffffffffffffff16815260200191505060206040518083038186803b15801561636557600080fd5b505afa158015616379573d6000803e3d6000fd5b505050506040513d602081101561638f57600080fd5b810190808051906020019092919050505090508060648584028115156163b157fe5b041115925050509392505050565b828054600181600116156101000203166002900490600052602060002090601f016020900481019282601f1061640057805160ff191683800117855561642e565b8280016001018555821561642e579182015b8281111561642d578251825591602001919060010190616412565b5b50905061643b919061643f565b5090565b61646191905b8082111561645d576000816000905550600101616445565b5090565b9056fea165627a7a7230582048a197a9142412d349c09cf8be09953d277aa6b887afcb560628f5b1213c791a0029",
  "source": "pragma solidity ^0.5.0;\nimport \"../tokens/token.sol\";\nimport \"../admin/ExternalStorage.sol\";\n//import '../admin/administratable.sol';\n\n\ncontract project is ExternalStorage {\n\n\n    address External_Storage_addr;\n\n/*\n    constructor(address _token_address) public {\n    address owner = msg.sender;\n    address  beneficiar = msg.sender;\n    address  token_address = _token_address;\n  }\n*/\n/*\n\n    struct RightsList {\n        // byte grade;\n       // uint256 ProjectID;\n        uint256[8] floor_sum;\n\n    }\n*/\n    //uint256[8]  public rights;\n\n    mapping (address => uint256[8]) Project_rights;  // 0-7 grades - access rights to project's information grades\n// set and check grade of rights for project\n    // level of access based on amount  of project's token on user's address.\n    // f.e. 10 tokens - means \"1\"st level -  trafficlight spectator,\n    // 100 tokens - \"2\"nd level  - reports analyser,\n    // 1000 tokens - \"3\"td level - transaction auditor\n    // 10000 tokens - \"4\"th level - scrum participator\n    // 100000 tokens - \"5\"th - team member\n    // 1000000 tokens - \"6\"s level- manager\n    // 10000000 tokens - \"7\"s lev - top manager\n    // or another grade list\n    // 0-7 grades use by default to reduce gas issues\n    // TODO: this grades'd be mapped with access right in ERP\n\n    struct project_state {\n        uint256 project_ID;\n        bytes32 DFS_changes_addr; // addresses of paroled archive of DB increment in DFS (IPFS/SWarm)\n        bytes32 DFS_changes_hash; // hash of DB state\n        bytes4 DFS_type;\n        bytes32 POA_addr; // addresses of current Proof-of-Accounting state in DFS (IPFS/SWarm)\n        uint timestamp;\n\n    }\n\n    mapping (bytes32 => project_state) Project_statuses;// addresses of project's states  in IPFS/swarm\n\n    struct Project{\n        uint256 project_ID; //assign by increment and not change?\n        address project_owner_address;\n        address _DARF_system_address; // ETH address of node that updates project state\n        bytes32 DFS_Project_describe;// addresses of intial project's describe in DFS (IPFS/SWarm)\n        bytes4 DFS_type;\n             // rights  0-7 rights grades use by default to reduce gas issues - moved to Project_rights\n\n        // mapping (uint => UserStory) stories;\n\n\n    }\n\n    mapping (address => Project) public Projects ; //\n    address[] public ProjectList; // array to access projects AKA projectID\n\n    modifier  OnlyProjectOwner(address _project_address) {\n        require(Projects[_project_address].project_owner_address == msg.sender);\n        _;\n    }\n\n\n//    struct Admin {\n//        bool active;\n//        }\n//    mapping (address => Admin) public _admins;\n\n\n  //function setAdmin(address _admin_address, bool _admin_state) onlyOwner(msg.sender) {\n  //    _admins[_admin_address].active = _admin_state;\n  //  }\n\n\n\n\n    function  setrights(address Projecttokenaddr,  uint256 grade, uint256 floorsum) public  OnlyProjectOwner(Projecttokenaddr)   {\n        require (grade < 8);\n            Project_rights[Projecttokenaddr][grade] = floorsum;\n\n    }\n\n    function checkrights (address Project_token_addr) public returns (uint256) {\n        for (uint256 grade = 7; grade >= 0; grade--) {\n                token projecttoken =  token (Project_token_addr); //Projects[Project_token_addr].project_token_addr);\n                if (projecttoken.balanceOf(msg.sender) > Project_rights[Project_token_addr][grade] ){\n                    return grade;\n                }\n\n        }\n        return uint256(0) ; // no money no honey\n    }\n\n    event New_project (address owner_address , address Projecttokenaddr, bytes32 DFSProjectdescribe, address _DARFsystemaddress);\n\n    function create_project (address Projecttokenaddr, bytes32 DFSProjectdescribe, bytes4 DFStype) OnlyProjectOwner(Projecttokenaddr) public {\n        ExternalStorage ES = ExternalStorage(External_Storage_addr);\n        address  ANG_system_addr = ES.getAddressValue(\"ANG_system_addr\");\n        uint256 our_share100 = ES.getUIntValue(\"our_share100\");\n        require(check_token_deposit(Projecttokenaddr, ANG_system_addr, our_share100));\n\n            Projects[Projecttokenaddr].project_owner_address = msg.sender;\n            Projects[Projecttokenaddr].DFS_Project_describe = DFSProjectdescribe;\n            Projects[Projecttokenaddr].DFS_type = DFStype;\n            ProjectList.push(Projecttokenaddr);\n            Projects[Projecttokenaddr].project_ID = ProjectList.length;\n        emit New_project (Projects[Projecttokenaddr].project_owner_address, Projecttokenaddr, Projects[Projecttokenaddr].DFS_Project_describe,  Projects[Projecttokenaddr]._DARF_system_address ) ;\n\n}\n\n    function change_project_info (address Projecttokenaddr, address owner, bytes32 DFSProjectdescribe, bytes4 DFStype)  public OnlyProjectOwner(Projecttokenaddr) {\n\n            Projects[Projecttokenaddr].project_owner_address = owner;\n            Projects[Projecttokenaddr].DFS_Project_describe = DFSProjectdescribe;\n            Projects[Projecttokenaddr].DFS_type = DFStype;\n\n        //todo: or via Registry?\n        // owner\n        // DARF node\n        // addrr_describe\n\n\n\n}\n    event finished_project (address Projecttokenaddr);\n\n    function finish_project (address Projecttokenaddr) public {\n        emit finished_project (Projecttokenaddr);\n\n}\n        function project_add_state(address Projecttokenaddr,  bytes32 DFSchangesaddr, bytes32 DFSchangeshash,bytes32 POA_addr) public returns (uint256) {\n       require(msg.sender == Projects[Projecttokenaddr]._DARF_system_address);\n            uint256 timestamp = now;\n            bytes32 ProjectAddr = keccak256(abi.encodePacked (Projecttokenaddr, timestamp));\n            Project_statuses[ProjectAddr].timestamp = timestamp;\n            Project_statuses[ProjectAddr].project_ID =Projects[Projecttokenaddr].project_ID ;\n            Project_statuses[ProjectAddr].DFS_changes_addr = DFSchangesaddr;\n            Project_statuses[ProjectAddr].DFS_changes_hash = DFSchangeshash;\n            Project_statuses[ProjectAddr].POA_addr = POA_addr;\n            return timestamp;\n\n\n    }\n\n     function project_get_state(address Projecttokenaddr, uint timestamp ) public returns(bytes32) {\n\n        if (checkrights(Projecttokenaddr) > 0) { //returns state\n            return Project_statuses[keccak256(abi.encodePacked(Projecttokenaddr, timestamp))].DFS_changes_addr;\n        }\n        else { //returns only PoA\n            return Project_statuses[keccak256(abi.encodePacked(Projecttokenaddr, timestamp))].POA_addr;\n\n            }\n\n    }\n    //todo todo - 5% tokens deposit to platform\n\n\n\n    function check_token_deposit(address _tokenAddress, address ANG_system, uint256 platform_share100) internal returns(bool) {\n\n\n        // todo check minted amount of tokens\n        uint256 Token_total_supply = token(_tokenAddress).totalSupply();\n        //  todo check that platform_share is transferred to address\n        uint256 token_balance = _TokenInterface(_tokenAddress).balanceOf(ANG_system);\n        return ((Token_total_supply * platform_share100 /100) <= token_balance);\n    }\n\n\n\n   function _initExternalStorage(address Externalstorageaddr) public onlyAdmins {\n\n        External_Storage_addr = Externalstorageaddr;\n        ExternalStorage ES = ExternalStorage(External_Storage_addr);\n        ES.setAddressValue(\"scruminvest/project\", address(this));\n\n    }\n\n\n    // todo billing for updates of project state: transfer ANG to our address equal as gas +5% calculate transaction  fee when saving project state\n\n    function toBytes (uint256 x) internal view returns (bytes memory b) {\n        b = new bytes(32);\n        assembly { mstore(add(b, 32), x) }\n    }\n\n}\n\ncontract _TokenInterface {\n    function balanceOf(address whom) view public returns (uint);\n}\n",
  "sourcePath": "/home/sergey/Documents/angels/Angeles.VC-token-scrum-investing/contracts/scruminvest/project.sol",
  "compiler": {
    "name": "solc",
    "version": "0.5.0+commit.1d4f565a.Emscripten.clang"
  },
  "schemaVersion": "3.0.2",
  "updatedAt": "2019-03-26T08:08:45.032Z",
  "devdoc": {
    "methods": {
      "ownable(address)": {
        "details": "The constructor sets the original owner of the contract to the sender account."
      },
      "owner()": {
        "details": "Tells the address of the owner",
        "return": "the address of the owner"
      },
      "transferOwnership(address)": {
        "details": "Allows the current owner to transfer control of the contract to a newOwner.",
        "params": {
          "newOwner": "The address to transfer ownership to."
        }
      }
    }
  },
  "userdoc": {
    "methods": {}
  }
}