{
  "contractName": "Receiver",
  "abi": [
    {
      "constant": false,
      "inputs": [
        {
          "name": "_sender_address",
          "type": "address"
        }
      ],
      "name": "check_owner",
      "outputs": [
        {
          "name": "",
          "type": "bool"
        }
      ],
      "payable": false,
      "stateMutability": "nonpayable",
      "type": "function"
    },
    {
      "constant": false,
      "inputs": [
        {
          "name": "newOwner",
          "type": "address"
        }
      ],
      "name": "setOwner",
      "outputs": [],
      "payable": false,
      "stateMutability": "nonpayable",
      "type": "function"
    },
    {
      "constant": false,
      "inputs": [
        {
          "name": "BasicAdministratableaddr",
          "type": "address"
        }
      ],
      "name": "_initAdministratable",
      "outputs": [],
      "payable": false,
      "stateMutability": "nonpayable",
      "type": "function"
    },
    {
      "constant": false,
      "inputs": [
        {
          "name": "msgSender",
          "type": "address"
        }
      ],
      "name": "checkAdmin",
      "outputs": [
        {
          "name": "",
          "type": "bool"
        }
      ],
      "payable": false,
      "stateMutability": "nonpayable",
      "type": "function"
    },
    {
      "constant": false,
      "inputs": [
        {
          "name": "msgSender",
          "type": "address"
        }
      ],
      "name": "checkSuperAdmin",
      "outputs": [
        {
          "name": "",
          "type": "bool"
        }
      ],
      "payable": false,
      "stateMutability": "nonpayable",
      "type": "function"
    },
    {
      "anonymous": false,
      "inputs": [
        {
          "indexed": true,
          "name": "token",
          "type": "address"
        }
      ],
      "name": "Whitelist",
      "type": "event"
    },
    {
      "anonymous": false,
      "inputs": [
        {
          "indexed": true,
          "name": "token",
          "type": "address"
        }
      ],
      "name": "Blacklist",
      "type": "event"
    },
    {
      "constant": false,
      "inputs": [
        {
          "name": "newowner",
          "type": "address"
        }
      ],
      "name": "receiver",
      "outputs": [],
      "payable": false,
      "stateMutability": "nonpayable",
      "type": "function"
    },
    {
      "constant": false,
      "inputs": [],
      "name": "getOwner",
      "outputs": [
        {
          "name": "",
          "type": "address"
        }
      ],
      "payable": false,
      "stateMutability": "nonpayable",
      "type": "function"
    },
    {
      "constant": false,
      "inputs": [
        {
          "name": "addr",
          "type": "address"
        },
        {
          "name": "receiver_addr",
          "type": "address"
        },
        {
          "name": "value",
          "type": "uint256"
        },
        {
          "name": "data",
          "type": "bytes32"
        }
      ],
      "name": "tokenFallback",
      "outputs": [
        {
          "name": "",
          "type": "bool"
        }
      ],
      "payable": false,
      "stateMutability": "nonpayable",
      "type": "function"
    },
    {
      "constant": false,
      "inputs": [
        {
          "name": "sender",
          "type": "address"
        },
        {
          "name": "value",
          "type": "uint256"
        },
        {
          "name": "data",
          "type": "bytes32"
        }
      ],
      "name": "tokenFallback",
      "outputs": [
        {
          "name": "",
          "type": "bool"
        }
      ],
      "payable": false,
      "stateMutability": "nonpayable",
      "type": "function"
    },
    {
      "constant": false,
      "inputs": [
        {
          "name": "tokenAddress",
          "type": "address"
        }
      ],
      "name": "whitelist",
      "outputs": [
        {
          "name": "",
          "type": "bool"
        }
      ],
      "payable": false,
      "stateMutability": "nonpayable",
      "type": "function"
    },
    {
      "constant": false,
      "inputs": [
        {
          "name": "tokenAddress",
          "type": "address"
        }
      ],
      "name": "blacklist",
      "outputs": [
        {
          "name": "",
          "type": "bool"
        }
      ],
      "payable": false,
      "stateMutability": "nonpayable",
      "type": "function"
    }
  ],
  "bytecode": "0x608060405234801561001057600080fd5b50610fd3806100206000396000f3fe6080604052600436106100ae5763ffffffff7c01000000000000000000000000000000000000000000000000000000006000350416630c3504c981146100b357806313af4035146100fa578063427167301461012f5780637f703d1d146101625780638397cc94146101ab578063893d20e8146101ea5780639026dee81461021b5780639b19251a1461024e5780639da4180214610281578063a1d658b1146102b4578063f9f92be4146102e7575b600080fd5b3480156100bf57600080fd5b506100e6600480360360208110156100d657600080fd5b5035600160a060020a031661031a565b604080519115158252519081900360200190f35b34801561010657600080fd5b5061012d6004803603602081101561011d57600080fd5b5035600160a060020a03166103b9565b005b34801561013b57600080fd5b5061012d6004803603602081101561015257600080fd5b5035600160a060020a03166103ff565b34801561016e57600080fd5b506100e66004803603608081101561018557600080fd5b50600160a060020a03813581169160208101359091169060408101359060600135610445565b3480156101b757600080fd5b506100e6600480360360608110156101ce57600080fd5b50600160a060020a0381351690602081013590604001356104fe565b3480156101f657600080fd5b506101ff6105ad565b60408051600160a060020a039092168252519081900360200190f35b34801561022757600080fd5b506100e66004803603602081101561023e57600080fd5b5035600160a060020a03166105bc565b34801561025a57600080fd5b506100e66004803603602081101561027157600080fd5b5035600160a060020a0316610627565b34801561028d57600080fd5b5061012d600480360360208110156102a457600080fd5b5035600160a060020a031661071f565b3480156102c057600080fd5b506100e6600480360360208110156102d757600080fd5b5035600160a060020a03166107b0565b3480156102f357600080fd5b506100e66004803603602081101561030a57600080fd5b5035600160a060020a031661081b565b600154604080517f0c3504c9000000000000000000000000000000000000000000000000000000008152600160a060020a03848116600483015291516000939290921691630c3504c99160248082019260209290919082900301818787803b15801561038557600080fd5b505af1158015610399573d6000803e3d6000fd5b505050506040513d60208110156103af57600080fd5b505190505b919050565b600254600160a060020a031633146103d057600080fd5b6002805473ffffffffffffffffffffffffffffffffffffffff1916600160a060020a0392909216919091179055565b600254600160a060020a0316331461041657600080fd5b6001805473ffffffffffffffffffffffffffffffffffffffff1916600160a060020a0392909216919091179055565b60048054604080517f7f703d1d0000000000000000000000000000000000000000000000000000000081523393810193909352600160a060020a0387811660248501526044840186905260648401859052905160009384939290921691637f703d1d91608480830192602092919082900301818787803b1580156104c857600080fd5b505af11580156104dc573d6000803e3d6000fd5b505050506040513d60208110156104f257600080fd5b50519695505050505050565b60048054604080517f8397cc94000000000000000000000000000000000000000000000000000000008152600160a060020a03878116948201949094526024810186905260448101859052905160009384931691638397cc9491606480830192602092919082900301818787803b15801561057857600080fd5b505af115801561058c573d6000803e3d6000fd5b505050506040513d60208110156105a257600080fd5b505195945050505050565b600354600160a060020a031690565b600154604080517f9026dee8000000000000000000000000000000000000000000000000000000008152600160a060020a03848116600483015291516000939290921691639026dee89160248082019260209290919082900301818787803b15801561038557600080fd5b6003546000908190600160a060020a0316331461064357600080fd5b60048054604080517f9b19251a000000000000000000000000000000000000000000000000000000008152600160a060020a038781169482019490945290519290911691639b19251a916024808201926020929091908290030181600087803b1580156106af57600080fd5b505af11580156106c3573d6000803e3d6000fd5b505050506040513d60208110156106d957600080fd5b50519050801561071857604051600160a060020a038416907feb73900b98b6a3e2b8b01708fe544760cf570d21e7fbe5225f24e48b5b2b432e90600090a25b90506103b4565b6107283361031a565b151561073357600080fd5b6003805473ffffffffffffffffffffffffffffffffffffffff1916600160a060020a038316179055610763610912565b604051809103906000f08015801561077f573d6000803e3d6000fd5b506004805473ffffffffffffffffffffffffffffffffffffffff1916600160a060020a039290921691909117905550565b600154604080517fa1d658b1000000000000000000000000000000000000000000000000000000008152600160a060020a0384811660048301529151600093929092169163a1d658b19160248082019260209290919082900301818787803b15801561038557600080fd5b6003546000908190600160a060020a0316331461083757600080fd5b60048054604080517ff9f92be4000000000000000000000000000000000000000000000000000000008152600160a060020a03878116948201949094529051929091169163f9f92be4916024808201926020929091908290030181600087803b1580156108a357600080fd5b505af11580156108b7573d6000803e3d6000fd5b505050506040513d60208110156108cd57600080fd5b50519050801561071857604051600160a060020a038416907f7811ed4e4b787e4f0f046ffb4a5ec1e064b0eb6d191ffabb66270ed8be89b32590600090a290506103b4565b604051610685806109238339019056fe608060405234801561001057600080fd5b50610665806100206000396000f3fe6080604052600436106100a35763ffffffff7c01000000000000000000000000000000000000000000000000000000006000350416630c3504c981146100a857806313af4035146100ef57806342716730146101245780634af817e6146101575780637f703d1d1461018a5780638397cc94146101d35780639026dee8146102125780639b19251a14610245578063a1d658b114610278578063f9f92be4146102ab575b600080fd5b3480156100b457600080fd5b506100db600480360360208110156100cb57600080fd5b5035600160a060020a03166102de565b604080519115158252519081900360200190f35b3480156100fb57600080fd5b506101226004803603602081101561011257600080fd5b5035600160a060020a031661037b565b005b34801561013057600080fd5b506101226004803603602081101561014757600080fd5b5035600160a060020a03166103c1565b34801561016357600080fd5b506101226004803603602081101561017a57600080fd5b5035600160a060020a0316610407565b34801561019657600080fd5b506100db600480360360808110156101ad57600080fd5b50600160a060020a0381358116916020810135909116906040810135906060013561044a565b3480156101df57600080fd5b506100db600480360360608110156101f657600080fd5b50600160a060020a0381351690602081013590604001356104c4565b34801561021e57600080fd5b506100db6004803603602081101561023557600080fd5b5035600160a060020a03166104cb565b34801561025157600080fd5b506100db6004803603602081101561026857600080fd5b5035600160a060020a0316610536565b34801561028457600080fd5b506100db6004803603602081101561029b57600080fd5b5035600160a060020a031661057e565b3480156102b757600080fd5b506100db600480360360208110156102ce57600080fd5b5035600160a060020a03166105e9565b600154604080517f0c3504c9000000000000000000000000000000000000000000000000000000008152600160a060020a03848116600483015291516000939290921691630c3504c99160248082019260209290919082900301818787803b15801561034957600080fd5b505af115801561035d573d6000803e3d6000fd5b505050506040513d602081101561037357600080fd5b505192915050565b600254600160a060020a0316331461039257600080fd5b6002805473ffffffffffffffffffffffffffffffffffffffff1916600160a060020a0392909216919091179055565b600254600160a060020a031633146103d857600080fd5b6001805473ffffffffffffffffffffffffffffffffffffffff1916600160a060020a0392909216919091179055565b610410336102de565b151561041b57600080fd5b6004805473ffffffffffffffffffffffffffffffffffffffff1916600160a060020a0392909216919091179055565b6000610455336102de565b151561046057600080fd5b600354600160a060020a0386811691161461047a57600080fd5b600160a060020a0384166000908152600560205260409020546104a3908463ffffffff61062316565b600160a060020a038516600090815260056020526040902055949350505050565b6000806000fd5b600154604080517f9026dee8000000000000000000000000000000000000000000000000000000008152600160a060020a03848116600483015291516000939290921691639026dee89160248082019260209290919082900301818787803b15801561034957600080fd5b6000610541336102de565b151561054c57600080fd5b5060038054600160a060020a03831673ffffffffffffffffffffffffffffffffffffffff199091161790556001919050565b600154604080517fa1d658b1000000000000000000000000000000000000000000000000000000008152600160a060020a0384811660048301529151600093929092169163a1d658b19160248082019260209290919082900301818787803b15801561034957600080fd5b60006105f4336102de565b15156105ff57600080fd5b50506003805473ffffffffffffffffffffffffffffffffffffffff19169055600190565b60008282018381101561063257fe5b939250505056fea165627a7a72305820a137e40eb971164c5576f61ae49734d3fb816f46b0bb0ac7d62dff921c6fab1b0029a165627a7a723058206485a940c172ce786bc953e962307a4bf3675c5147d393cb2bbc0e8e08627b5a0029",
  "source": "pragma solidity ^0.5.0;\nimport \"./interface/receiver-interface.sol\";\nimport \"./implementation/simple-receiver.sol\";\nimport \"../admin/interface/administratable.sol\";\n/*@title Receiver contract Abstract Class\n *@dev this is an abstract class that is the building block of any contract that is supposed to recieve ERC223 token\n */\ncontract Receiver is receiverInterface, Administratable {\n\n  /*address internal _acceptedAddress;*/\n    address private _owner;\n    receiverInterface private _receiver;\n    function receiver (address newowner) onlyOwner public {\n      _owner = newowner;\n      _receiver=new simpleReciever();\n    }\n    //remove\n    function getOwner() public returns (address)\n    {\n      return _owner;\n    }\n    /*\n     *@dev this is the fallback function that is invoked when a contract recieves ERC223 tokens\n     *@params address addr is the address that sends tokens to this contract\n     *@params uint value is the number of tokens being sent to this contract\n     *@params bytes data is the message that was sent to this contract\n     *@returns a boolean value representing success or failure of the operation\n     */\n    function tokenFallback(address addr, address receiver_addr, uint256 value, bytes32 data) external returns(bool)\n    {\n\n      bool result = _receiver.tokenFallback(msg.sender,addr,value,data);\n      return result;\n    }\n\n    function tokenFallback(address sender, uint256 value, bytes32  data) external returns(bool)\n    {\n        bool result = _receiver.tokenFallback(sender,value,data);\n        return result;\n    }\n\n    function whitelist(address tokenAddress) external returns(bool)\n    {\n      bool result;\n      if(msg.sender!=_owner)\n      {\n        revert();\n      }\n      else\n      {\n        result = _receiver.whitelist(tokenAddress);\n        if(result)\n        {\n         emit Whitelist(tokenAddress);\n        }\n        return result;\n      }\n    }\n\n\n\n    function blacklist(address tokenAddress) external returns(bool)\n    {\n      bool result;\n      if(msg.sender!=_owner)\n      {\n        revert();\n      }\n      else\n      {\n        result = _receiver.blacklist(tokenAddress);\n        if(result)\n        {\n         emit Blacklist(tokenAddress);\n        }\n        return result;\n      }\n    }\n    \n\n    event Whitelist(address indexed token);\n    event Blacklist(address indexed token);\n\n\n\n}\n",
  "sourcePath": "/home/sergey/Documents/angels/2083nointerfaces/Angeles.VC-token-scrum-investing/contracts/receiver/receiver.sol",
  "compiler": {
    "name": "solc",
    "version": "0.5.0+commit.1d4f565a.Emscripten.clang"
  },
  "schemaVersion": "3.0.2",
  "updatedAt": "2019-04-03T12:24:01.777Z",
  "devdoc": {
    "methods": {}
  },
  "userdoc": {
    "methods": {}
  }
}