{
  "contractName": "Receiver",
  "abi": [
    {
      "constant": false,
      "inputs": [
        {
          "name": "_sender_address",
          "type": "address"
        }
      ],
      "name": "check_owner",
      "outputs": [
        {
          "name": "",
          "type": "bool"
        }
      ],
      "payable": false,
      "stateMutability": "nonpayable",
      "type": "function"
    },
    {
      "constant": false,
      "inputs": [
        {
          "name": "BasicAdministratableaddr",
          "type": "address"
        }
      ],
      "name": "_initAdministratable",
      "outputs": [],
      "payable": false,
      "stateMutability": "nonpayable",
      "type": "function"
    },
    {
      "constant": false,
      "inputs": [
        {
          "name": "msgSender",
          "type": "address"
        }
      ],
      "name": "checkAdmin",
      "outputs": [
        {
          "name": "",
          "type": "bool"
        }
      ],
      "payable": false,
      "stateMutability": "nonpayable",
      "type": "function"
    },
    {
      "constant": false,
      "inputs": [
        {
          "name": "msgSender",
          "type": "address"
        }
      ],
      "name": "checkSuperAdmin",
      "outputs": [
        {
          "name": "",
          "type": "bool"
        }
      ],
      "payable": false,
      "stateMutability": "nonpayable",
      "type": "function"
    },
    {
      "anonymous": false,
      "inputs": [
        {
          "indexed": true,
          "name": "token",
          "type": "address"
        }
      ],
      "name": "Whitelist",
      "type": "event"
    },
    {
      "anonymous": false,
      "inputs": [
        {
          "indexed": true,
          "name": "token",
          "type": "address"
        }
      ],
      "name": "Blacklist",
      "type": "event"
    },
    {
      "constant": false,
      "inputs": [
        {
          "name": "newowner",
          "type": "address"
        }
      ],
      "name": "receiver",
      "outputs": [],
      "payable": false,
      "stateMutability": "nonpayable",
      "type": "function"
    },
    {
      "constant": false,
      "inputs": [],
      "name": "getOwner",
      "outputs": [
        {
          "name": "",
          "type": "address"
        }
      ],
      "payable": false,
      "stateMutability": "nonpayable",
      "type": "function"
    },
    {
      "constant": false,
      "inputs": [
        {
          "name": "addr",
          "type": "address"
        },
        {
          "name": "receiver",
          "type": "address"
        },
        {
          "name": "value",
          "type": "uint256"
        },
        {
          "name": "data",
          "type": "bytes32"
        }
      ],
      "name": "tokenFallback",
      "outputs": [
        {
          "name": "",
          "type": "bool"
        }
      ],
      "payable": false,
      "stateMutability": "nonpayable",
      "type": "function"
    },
    {
      "constant": false,
      "inputs": [
        {
          "name": "sender",
          "type": "address"
        },
        {
          "name": "value",
          "type": "uint256"
        },
        {
          "name": "data",
          "type": "bytes32"
        }
      ],
      "name": "tokenFallback",
      "outputs": [
        {
          "name": "",
          "type": "bool"
        }
      ],
      "payable": false,
      "stateMutability": "nonpayable",
      "type": "function"
    },
    {
      "constant": false,
      "inputs": [
        {
          "name": "tokenAddress",
          "type": "address"
        }
      ],
      "name": "whitelist",
      "outputs": [
        {
          "name": "",
          "type": "bool"
        }
      ],
      "payable": false,
      "stateMutability": "nonpayable",
      "type": "function"
    },
    {
      "constant": false,
      "inputs": [
        {
          "name": "tokenAddress",
          "type": "address"
        }
      ],
      "name": "blacklist",
      "outputs": [
        {
          "name": "",
          "type": "bool"
        }
      ],
      "payable": false,
      "stateMutability": "nonpayable",
      "type": "function"
    }
  ],
  "bytecode": "0x608060405234801561001057600080fd5b50610ec5806100206000396000f3fe6080604052600436106100a35763ffffffff7c01000000000000000000000000000000000000000000000000000000006000350416630c3504c981146100a857806342716730146100ef5780637f703d1d146101245780638397cc941461016d578063893d20e8146101ac5780639026dee8146101dd5780639b19251a146102105780639da4180214610243578063a1d658b114610276578063f9f92be4146102a9575b600080fd5b3480156100b457600080fd5b506100db600480360360208110156100cb57600080fd5b5035600160a060020a03166102dc565b604080519115158252519081900360200190f35b3480156100fb57600080fd5b506101226004803603602081101561011257600080fd5b5035600160a060020a031661037b565b005b34801561013057600080fd5b506100db6004803603608081101561014757600080fd5b50600160a060020a038135811691602081013590911690604081013590606001356103be565b34801561017957600080fd5b506100db6004803603606081101561019057600080fd5b50600160a060020a038135169060208101359060400135610477565b3480156101b857600080fd5b506101c1610526565b60408051600160a060020a039092168252519081900360200190f35b3480156101e957600080fd5b506100db6004803603602081101561020057600080fd5b5035600160a060020a0316610535565b34801561021c57600080fd5b506100db6004803603602081101561023357600080fd5b5035600160a060020a03166105a0565b34801561024f57600080fd5b506101226004803603602081101561026657600080fd5b5035600160a060020a0316610698565b34801561028257600080fd5b506100db6004803603602081101561029957600080fd5b5035600160a060020a0316610729565b3480156102b557600080fd5b506100db600480360360208110156102cc57600080fd5b5035600160a060020a0316610794565b600254604080517f0c3504c9000000000000000000000000000000000000000000000000000000008152600160a060020a03848116600483015291516000939290921691630c3504c99160248082019260209290919082900301818787803b15801561034757600080fd5b505af115801561035b573d6000803e3d6000fd5b505050506040513d602081101561037157600080fd5b505190505b919050565b610384336102dc565b151561038f57600080fd5b6002805473ffffffffffffffffffffffffffffffffffffffff1916600160a060020a0392909216919091179055565b60048054604080517f7f703d1d0000000000000000000000000000000000000000000000000000000081523393810193909352600160a060020a0387811660248501526044840186905260648401859052905160009384939290921691637f703d1d91608480830192602092919082900301818787803b15801561044157600080fd5b505af1158015610455573d6000803e3d6000fd5b505050506040513d602081101561046b57600080fd5b50519695505050505050565b60048054604080517f8397cc94000000000000000000000000000000000000000000000000000000008152600160a060020a03878116948201949094526024810186905260448101859052905160009384931691638397cc9491606480830192602092919082900301818787803b1580156104f157600080fd5b505af1158015610505573d6000803e3d6000fd5b505050506040513d602081101561051b57600080fd5b505195945050505050565b600354600160a060020a031690565b600254604080517f9026dee8000000000000000000000000000000000000000000000000000000008152600160a060020a03848116600483015291516000939290921691639026dee89160248082019260209290919082900301818787803b15801561034757600080fd5b6003546000908190600160a060020a031633146105bc57600080fd5b60048054604080517f9b19251a000000000000000000000000000000000000000000000000000000008152600160a060020a038781169482019490945290519290911691639b19251a916024808201926020929091908290030181600087803b15801561062857600080fd5b505af115801561063c573d6000803e3d6000fd5b505050506040513d602081101561065257600080fd5b50519050801561069157604051600160a060020a038416907feb73900b98b6a3e2b8b01708fe544760cf570d21e7fbe5225f24e48b5b2b432e90600090a25b9050610376565b6106a1336102dc565b15156106ac57600080fd5b6003805473ffffffffffffffffffffffffffffffffffffffff1916600160a060020a0383161790556106dc61088b565b604051809103906000f0801580156106f8573d6000803e3d6000fd5b506004805473ffffffffffffffffffffffffffffffffffffffff1916600160a060020a039290921691909117905550565b600254604080517fa1d658b1000000000000000000000000000000000000000000000000000000008152600160a060020a0384811660048301529151600093929092169163a1d658b19160248082019260209290919082900301818787803b15801561034757600080fd5b6003546000908190600160a060020a031633146107b057600080fd5b60048054604080517ff9f92be4000000000000000000000000000000000000000000000000000000008152600160a060020a03878116948201949094529051929091169163f9f92be4916024808201926020929091908290030181600087803b15801561081c57600080fd5b505af1158015610830573d6000803e3d6000fd5b505050506040513d602081101561084657600080fd5b50519050801561069157604051600160a060020a038416907f7811ed4e4b787e4f0f046ffb4a5ec1e064b0eb6d191ffabb66270ed8be89b32590600090a29050610376565b6040516105fe8061089c8339019056fe608060405234801561001057600080fd5b506105de806100206000396000f3fe6080604052600436106100985763ffffffff7c01000000000000000000000000000000000000000000000000000000006000350416630c3504c9811461009d57806342716730146100e45780634af817e6146101195780637f703d1d1461014c5780638397cc94146101955780639026dee8146101d45780639b19251a14610207578063a1d658b11461023a578063f9f92be41461026d575b600080fd5b3480156100a957600080fd5b506100d0600480360360208110156100c057600080fd5b5035600160a060020a03166102a0565b604080519115158252519081900360200190f35b3480156100f057600080fd5b506101176004803603602081101561010757600080fd5b5035600160a060020a031661033d565b005b34801561012557600080fd5b506101176004803603602081101561013c57600080fd5b5035600160a060020a0316610380565b34801561015857600080fd5b506100d06004803603608081101561016f57600080fd5b50600160a060020a038135811691602081013590911690604081013590606001356103c3565b3480156101a157600080fd5b506100d0600480360360608110156101b857600080fd5b50600160a060020a03813516906020810135906040013561043d565b3480156101e057600080fd5b506100d0600480360360208110156101f757600080fd5b5035600160a060020a0316610444565b34801561021357600080fd5b506100d06004803603602081101561022a57600080fd5b5035600160a060020a03166104af565b34801561024657600080fd5b506100d06004803603602081101561025d57600080fd5b5035600160a060020a03166104f7565b34801561027957600080fd5b506100d06004803603602081101561029057600080fd5b5035600160a060020a0316610562565b600254604080517f0c3504c9000000000000000000000000000000000000000000000000000000008152600160a060020a03848116600483015291516000939290921691630c3504c99160248082019260209290919082900301818787803b15801561030b57600080fd5b505af115801561031f573d6000803e3d6000fd5b505050506040513d602081101561033557600080fd5b505192915050565b610346336102a0565b151561035157600080fd5b6002805473ffffffffffffffffffffffffffffffffffffffff1916600160a060020a0392909216919091179055565b610389336102a0565b151561039457600080fd5b6004805473ffffffffffffffffffffffffffffffffffffffff1916600160a060020a0392909216919091179055565b60006103ce336102a0565b15156103d957600080fd5b600354600160a060020a038681169116146103f357600080fd5b600160a060020a03841660009081526005602052604090205461041c908463ffffffff61059c16565b600160a060020a038516600090815260056020526040902055949350505050565b6000806000fd5b600254604080517f9026dee8000000000000000000000000000000000000000000000000000000008152600160a060020a03848116600483015291516000939290921691639026dee89160248082019260209290919082900301818787803b15801561030b57600080fd5b60006104ba336102a0565b15156104c557600080fd5b5060038054600160a060020a03831673ffffffffffffffffffffffffffffffffffffffff199091161790556001919050565b600254604080517fa1d658b1000000000000000000000000000000000000000000000000000000008152600160a060020a0384811660048301529151600093929092169163a1d658b19160248082019260209290919082900301818787803b15801561030b57600080fd5b600061056d336102a0565b151561057857600080fd5b50506003805473ffffffffffffffffffffffffffffffffffffffff19169055600190565b6000828201838110156105ab57fe5b939250505056fea165627a7a7230582059edb037e119e3c62892b39e4e674ef82551c3a093266cf1f56a82747188f63c0029a165627a7a72305820ee024451927de016f7383a2ee6921bef9c7359560181490b73dfec3b993831c70029",
  "source": "pragma solidity ^0.5.0;\nimport \"./interface/receiver-interface.sol\";\nimport \"./implementation/simple-receiver.sol\";\nimport \"../admin/interface/administratable.sol\";\n/*@title Receiver contract Abstract Class\n *@dev this is an abstract class that is the building block of any contract that is supposed to recieve ERC223 token\n */\ncontract Receiver is receiverInterface, Administratable {\n\n  /*address internal _acceptedAddress;*/\n    address private _owner;\n    receiverInterface private _receiver;\n    function receiver (address newowner) onlyOwner public {\n      _owner = newowner;\n      _receiver=new simpleReciever();\n    }\n    //remove\n    function getOwner() public returns (address)\n    {\n      return _owner;\n    }\n    /*\n     *@dev this is the fallback function that is invoked when a contract recieves ERC223 tokens\n     *@params address addr is the address that sends tokens to this contract\n     *@params uint value is the number of tokens being sent to this contract\n     *@params bytes data is the message that was sent to this contract\n     *@returns a boolean value representing success or failure of the operation\n     */\n    function tokenFallback(address addr, address receiver, uint256 value, bytes32 data) external returns(bool)\n    {\n\n      bool result = _receiver.tokenFallback(msg.sender,addr,value,data);\n      return result;\n    }\n\n    function tokenFallback(address sender, uint256 value, bytes32  data) external returns(bool)\n    {\n        bool result = _receiver.tokenFallback(sender,value,data);\n        return result;\n    }\n\n    function whitelist(address tokenAddress) external returns(bool)\n    {\n      bool result;\n      if(msg.sender!=_owner)\n      {\n        revert();\n      }\n      else\n      {\n        result = _receiver.whitelist(tokenAddress);\n        if(result)\n        {\n         emit Whitelist(tokenAddress);\n        }\n        return result;\n      }\n    }\n\n\n\n    function blacklist(address tokenAddress) external returns(bool)\n    {\n      bool result;\n      if(msg.sender!=_owner)\n      {\n        revert();\n      }\n      else\n      {\n        result = _receiver.blacklist(tokenAddress);\n        if(result)\n        {\n         emit Blacklist(tokenAddress);\n        }\n        return result;\n      }\n    }\n    \n\n    event Whitelist(address indexed token);\n    event Blacklist(address indexed token);\n\n\n\n}\n",
  "sourcePath": "/home/sergey/Documents/angels/2083nointerfaces/Angeles.VC-token-scrum-investing/contracts/receiver/receiver.sol",
  "compiler": {
    "name": "solc",
    "version": "0.5.0+commit.1d4f565a.Emscripten.clang"
  },
  "schemaVersion": "3.0.2",
  "updatedAt": "2019-03-30T13:34:15.367Z",
  "devdoc": {
    "methods": {}
  },
  "userdoc": {
    "methods": {}
  }
}