{
  "contractName": "sellANG_ETH",
  "abi": [
    {
      "constant": false,
      "inputs": [
        {
          "name": "_sender_address",
          "type": "address"
        }
      ],
      "name": "check_owner",
      "outputs": [
        {
          "name": "",
          "type": "bool"
        }
      ],
      "payable": false,
      "stateMutability": "nonpayable",
      "type": "function",
      "signature": "0x0c3504c9"
    },
    {
      "constant": false,
      "inputs": [
        {
          "name": "newOwner",
          "type": "address"
        }
      ],
      "name": "setOwner",
      "outputs": [],
      "payable": false,
      "stateMutability": "nonpayable",
      "type": "function",
      "signature": "0x13af4035"
    },
    {
      "constant": false,
      "inputs": [
        {
          "name": "BasicAdministratableaddr",
          "type": "address"
        }
      ],
      "name": "_initAdministratable",
      "outputs": [],
      "payable": false,
      "stateMutability": "nonpayable",
      "type": "function",
      "signature": "0x42716730"
    },
    {
      "constant": false,
      "inputs": [
        {
          "name": "msgSender",
          "type": "address"
        }
      ],
      "name": "checkAdmin",
      "outputs": [
        {
          "name": "",
          "type": "bool"
        }
      ],
      "payable": false,
      "stateMutability": "nonpayable",
      "type": "function",
      "signature": "0x9026dee8"
    },
    {
      "constant": false,
      "inputs": [
        {
          "name": "msgSender",
          "type": "address"
        }
      ],
      "name": "checkSuperAdmin",
      "outputs": [
        {
          "name": "",
          "type": "bool"
        }
      ],
      "payable": false,
      "stateMutability": "nonpayable",
      "type": "function",
      "signature": "0xa1d658b1"
    },
    {
      "constant": true,
      "inputs": [],
      "name": "KYC_address",
      "outputs": [
        {
          "name": "",
          "type": "address"
        }
      ],
      "payable": false,
      "stateMutability": "view",
      "type": "function",
      "signature": "0xcd60c8b9"
    },
    {
      "constant": true,
      "inputs": [],
      "name": "ANGtoken_addr",
      "outputs": [
        {
          "name": "",
          "type": "address"
        }
      ],
      "payable": false,
      "stateMutability": "view",
      "type": "function",
      "signature": "0xce7c394e"
    },
    {
      "anonymous": false,
      "inputs": [
        {
          "indexed": false,
          "name": "investor",
          "type": "address"
        }
      ],
      "name": "Log_no_KYC",
      "type": "event",
      "signature": "0xaa3bfbc866542054060e8ea897779eee0838cd9d9f2e608967f3dbce811c9cc8"
    },
    {
      "anonymous": false,
      "inputs": [
        {
          "indexed": false,
          "name": "investor",
          "type": "address"
        },
        {
          "indexed": false,
          "name": "sum",
          "type": "uint256"
        }
      ],
      "name": "Purchase_ANG",
      "type": "event",
      "signature": "0x0c7c369f5fed41a326fd0a7f48eb4fd51dfe3ab2ca5d1fda279a1680000aaf21"
    },
    {
      "constant": false,
      "inputs": [
        {
          "name": "Externalstorageaddr",
          "type": "address"
        }
      ],
      "name": "_setExternalstorageaddr",
      "outputs": [],
      "payable": false,
      "stateMutability": "nonpayable",
      "type": "function",
      "signature": "0xf7f13887"
    },
    {
      "constant": false,
      "inputs": [
        {
          "name": "Externalstorageaddr",
          "type": "address"
        }
      ],
      "name": "_initExternalStorage",
      "outputs": [],
      "payable": false,
      "stateMutability": "nonpayable",
      "type": "function",
      "signature": "0xc8bc0407"
    },
    {
      "constant": false,
      "inputs": [],
      "name": "load_conditions_ES",
      "outputs": [],
      "payable": false,
      "stateMutability": "nonpayable",
      "type": "function",
      "signature": "0x9df152dc"
    },
    {
      "constant": false,
      "inputs": [
        {
          "name": "beneficiar",
          "type": "address"
        },
        {
          "name": "summa",
          "type": "uint256"
        }
      ],
      "name": "sellANGETH",
      "outputs": [],
      "payable": true,
      "stateMutability": "payable",
      "type": "function",
      "signature": "0xd69b6ccf"
    },
    {
      "constant": false,
      "inputs": [
        {
          "name": "beneficiar",
          "type": "address"
        },
        {
          "name": "summa",
          "type": "uint256"
        },
        {
          "name": "pass_word",
          "type": "bytes32"
        }
      ],
      "name": "sell_discount",
      "outputs": [],
      "payable": true,
      "stateMutability": "payable",
      "type": "function",
      "signature": "0x25ae4e38"
    }
  ],
  "bytecode": "0x608060405234801561001057600080fd5b5061116e806100206000396000f3fe6080604052600436106100b95763ffffffff7c01000000000000000000000000000000000000000000000000000000006000350416630c3504c981146100be57806313af40351461010557806325ae4e381461013a578063427167301461016c5780639026dee81461019f5780639df152dc146101d2578063a1d658b1146101e7578063c8bc04071461021a578063cd60c8b91461024d578063ce7c394e1461027e578063d69b6ccf14610293578063f7f13887146102bf575b600080fd5b3480156100ca57600080fd5b506100f1600480360360208110156100e157600080fd5b5035600160a060020a03166102f2565b604080519115158252519081900360200190f35b34801561011157600080fd5b506101386004803603602081101561012857600080fd5b5035600160a060020a031661038f565b005b6101386004803603606081101561015057600080fd5b50600160a060020a0381351690602081013590604001356103d5565b34801561017857600080fd5b506101386004803603602081101561018f57600080fd5b5035600160a060020a03166106f0565b3480156101ab57600080fd5b506100f1600480360360208110156101c257600080fd5b5035600160a060020a0316610736565b3480156101de57600080fd5b506101386107a1565b3480156101f357600080fd5b506100f16004803603602081101561020a57600080fd5b5035600160a060020a0316610cab565b34801561022657600080fd5b506101386004803603602081101561023d57600080fd5b5035600160a060020a0316610d16565b34801561025957600080fd5b50610262610e0d565b60408051600160a060020a039092168252519081900360200190f35b34801561028a57600080fd5b50610262610e1c565b610138600480360360408110156102a957600080fd5b50600160a060020a038135169060200135610e2b565b3480156102cb57600080fd5b50610138600480360360208110156102e257600080fd5b5035600160a060020a03166110fe565b600154604080517f0c3504c9000000000000000000000000000000000000000000000000000000008152600160a060020a03848116600483015291516000939290921691630c3504c99160248082019260209290919082900301818787803b15801561035d57600080fd5b505af1158015610371573d6000803e3d6000fd5b505050506040513d602081101561038757600080fd5b505192915050565b600254600160a060020a031633146103a657600080fd5b6002805473ffffffffffffffffffffffffffffffffffffffff1916600160a060020a0392909216919091179055565b600554600754600a54600160a060020a039283169290911690841080156104ae575060008482600160a060020a031663663e91f2886040518263ffffffff167c01000000000000000000000000000000000000000000000000000000000281526004018082600160a060020a0316600160a060020a031681526020018060eb60020a6208aa8902815250602001915050602060405180830381600087803b15801561047f57600080fd5b505af1158015610493573d6000803e3d6000fd5b505050506040513d60208110156104a957600080fd5b505103115b80156104bb575060085483145b15156104c657600080fd5b6000612710600954606401600654606403600454880202028115156104e757fe5b600a80548890039055604080517fbeabacc8000000000000000000000000000000000000000000000000000000008152306004820152600160a060020a038a81166024830152939092046044830181905290519093509185169163beabacc8916064808201926020929091908290030181600087803b15801561056957600080fd5b505af115801561057d573d6000803e3d6000fd5b505050506040513d602081101561059357600080fd5b50506040805160e060020a634e6091f3028152600160a060020a03888116600483015260eb60020a6208aa8902602483015260448201889052915191841691634e6091f39160648082019260009290919082900301818387803b1580156105f957600080fd5b505af115801561060d573d6000803e3d6000fd5b50506040805160e060020a634e6091f3028152600160a060020a038a811660048301527f414e47000000000000000000000000000000000000000000000000000000000060248301526044820186905291519186169350634e6091f3925060648082019260009290919082900301818387803b15801561068c57600080fd5b505af11580156106a0573d6000803e3d6000fd5b505060408051600160a060020a038a1681526020810185905281517f0c7c369f5fed41a326fd0a7f48eb4fd51dfe3ab2ca5d1fda279a1680000aaf219450908190039091019150a1505050505050565b600254600160a060020a0316331461070757600080fd5b6001805473ffffffffffffffffffffffffffffffffffffffff1916600160a060020a0392909216919091179055565b600154604080517f9026dee8000000000000000000000000000000000000000000000000000000008152600160a060020a03848116600483015291516000939290921691639026dee89160248082019260209290919082900301818787803b15801561035d57600080fd5b600354604080517ffd255683000000000000000000000000000000000000000000000000000000008152602060048201819052600860248301527f414e47746f6b656e00000000000000000000000000000000000000000000000060448301529151600160a060020a0390931692839263fd2556839260648082019391829003018186803b15801561083257600080fd5b505afa158015610846573d6000803e3d6000fd5b505050506040513d602081101561085c57600080fd5b50516005805473ffffffffffffffffffffffffffffffffffffffff1916600160a060020a039283161790556040805160e060020a634f161245028152602060048201819052601060248301527f414e47746f6b656e7372617465455448000000000000000000000000000000006044830152915192841692634f16124592606480840193919291829003018186803b1580156108f757600080fd5b505afa15801561090b573d6000803e3d6000fd5b505050506040513d602081101561092157600080fd5b505160049081556040805160e060020a634f1612450281526020928101839052600d60248201527f414e4770657263656e743130300000000000000000000000000000000000000060448201529051600160a060020a03841692634f1612459260648082019391829003018186803b15801561099c57600080fd5b505afa1580156109b0573d6000803e3d6000fd5b505050506040513d60208110156109c657600080fd5b5051600655604080517ffd255683000000000000000000000000000000000000000000000000000000008152602060048201819052601c60248301527f4b59432f696d706c656d656e746174696f6e2f42617369635f4b59430000000060448301529151600160a060020a0384169263fd2556839260648082019391829003018186803b158015610a5657600080fd5b505afa158015610a6a573d6000803e3d6000fd5b505050506040513d6020811015610a8057600080fd5b50516007805473ffffffffffffffffffffffffffffffffffffffff1916600160a060020a03928316179055604080517f7ec13996000000000000000000000000000000000000000000000000000000008152602060048201819052601760248301527f746f6b656e73616c652f646973636f756e745f776f72640000000000000000006044830152915192841692637ec1399692606480840193919291829003018186803b158015610b3157600080fd5b505afa158015610b45573d6000803e3d6000fd5b505050506040513d6020811015610b5b57600080fd5b50516008556040805160e060020a634f161245028152602060048201819052601760248301527f746f6b656e73616c652f646973636f756e745f73697a6500000000000000000060448301529151600160a060020a03841692634f1612459260648082019391829003018186803b158015610bd557600080fd5b505afa158015610be9573d6000803e3d6000fd5b505050506040513d6020811015610bff57600080fd5b50516009556040805160e060020a634f161245028152602060048201819052601960248301527f746f6b656e73616c652f646973636f756e745f616d6f756e740000000000000060448301529151600160a060020a03841692634f1612459260648082019391829003018186803b158015610c7957600080fd5b505afa158015610c8d573d6000803e3d6000fd5b505050506040513d6020811015610ca357600080fd5b5051600a5550565b600154604080517fa1d658b1000000000000000000000000000000000000000000000000000000008152600160a060020a0384811660048301529151600093929092169163a1d658b19160248082019260209290919082900301818787803b15801561035d57600080fd5b33610d2081610736565b15610d2a57600080fd5b6003805473ffffffffffffffffffffffffffffffffffffffff1916600160a060020a038481169190911791829055604080517f413c6d1300000000000000000000000000000000000000000000000000000000815230602482015260048101829052601960448201527f746f6b656e73616c652f45786368616e6765414e475f45544800000000000000606482015290519290911691829163413c6d1391608480830192600092919082900301818387803b158015610de857600080fd5b505af1158015610dfc573d6000803e3d6000fd5b50505050610e086107a1565b505050565b600754600160a060020a031681565b600554600160a060020a031681565b600554600754604080517f663e91f2000000000000000000000000000000000000000000000000000000008152600160a060020a03868116600483015260eb60020a6208aa8902602483015291519382169392909116916000918591849163663e91f291604480830192602092919082900301818887803b158015610eaf57600080fd5b505af1158015610ec3573d6000803e3d6000fd5b505050506040513d6020811015610ed957600080fd5b50510311610ee657600080fd5b60006064600654606403600454860202811515610eff57fe5b604080517fbeabacc8000000000000000000000000000000000000000000000000000000008152306004820152600160a060020a038981166024830152939092046044830181905290519093509185169163beabacc8916064808201926020929091908290030181600087803b158015610f7857600080fd5b505af1158015610f8c573d6000803e3d6000fd5b505050506040513d6020811015610fa257600080fd5b50506040805160e060020a634e6091f3028152600160a060020a03878116600483015260eb60020a6208aa8902602483015260448201879052915191841691634e6091f39160648082019260009290919082900301818387803b15801561100857600080fd5b505af115801561101c573d6000803e3d6000fd5b50506040805160e060020a634e6091f3028152600160a060020a0389811660048301527f414e47000000000000000000000000000000000000000000000000000000000060248301526044820186905291519186169350634e6091f3925060648082019260009290919082900301818387803b15801561109b57600080fd5b505af11580156110af573d6000803e3d6000fd5b505060408051600160a060020a03891681526020810185905281517f0c7c369f5fed41a326fd0a7f48eb4fd51dfe3ab2ca5d1fda279a1680000aaf219450908190039091019150a15050505050565b3361110881610736565b1561111257600080fd5b506003805473ffffffffffffffffffffffffffffffffffffffff1916600160a060020a039290921691909117905556fea165627a7a72305820aad92230069dfea6ab0ea67e3df8e69215a014972f27323677a97722bd36e46c0029",
  "source": "pragma solidity ^0.5.0;\n//import \"../interface/sale-interface.sol\";\n//import \"./implementation/basic-crowdsale.sol\";\nimport \"../tokens/interface/tokenInterface.sol\";\nimport \"../KYC/interface/KYC_interface.sol\";\nimport \"../admin/interface/administratable.sol\";\nimport \"../admin/interface/ExternalStorage.sol\";\n\n\n  contract sellANG_ETH is Administratable { //} is token, KYC_interface  { // saleInterface\n      address External_Storage_addr;\n      uint ANG_tokens_rate_ETH; //1 ETH;\n      address public ANGtoken_addr;\n      //address public owner;\n      uint ANG_percent100;\n      //address public beneficiar;\n      address public KYC_address;\n      bytes32  discount_word;\n      uint discount_size100;\n      uint256 discount_amount;\n\n/*\n\n      constructor(address _token_address) public {\n        owner = beneficiar;\n        beneficiar = beneficiar;\n        ANGtoken = _token_address;\n      }\n*/\n//setting of valuees-----------------------------------------------------------\n\n//DATA structs------------------------------------------------------------------\n\n    //==============================================================================\n//setting of valuees-----------------------------------------------------------\n\n        function _setExternalstorageaddr(address Externalstorageaddr ) public onlyAdmins (msg.sender)\n      {\n\n       External_Storage_addr = Externalstorageaddr;\n\n      }\n\n      function _initExternalStorage(address Externalstorageaddr) public onlyAdmins (msg.sender) {\n\n        External_Storage_addr = Externalstorageaddr;\n        ExternalStorage ES = ExternalStorage(External_Storage_addr);\n        ES.setAddressValue(\"tokensale/ExchangeANG_ETH\", address(this));\n        load_conditions_ES ();\n    }\n\n    function load_conditions_ES () public  { //when something changes\n        ExternalStorage ES = ExternalStorage(External_Storage_addr);\n        ANGtoken_addr =  ES.getAddressValue(\"ANGtoken\");\n        ANG_tokens_rate_ETH = ES.getUIntValue(\"ANGtokensrateETH\");\n        ANG_percent100 = ES.getUIntValue(\"ANGpercent100\");\n        KYC_address = ES.getAddressValue(\"KYC/implementation/Basic_KYC\");\n        discount_word =  ES.getBytes32Value(\"tokensale/discount_word\");\n        discount_size100 = ES.getUIntValue(\"tokensale/discount_size\");\n        discount_amount =  ES.getUIntValue(\"tokensale/discount_amount\");\n        // project Projectcurrent =  project(Projectaddr);\n        //address Projecttokenaddr = Projectcurrent.ProjectsList(ProjectID);\n    }\n\n\n\n    function sellANGETH(address beneficiar, uint256 summa)  public payable { //simple buy ANG for Ether\n\n        tokenInterface ANGtoken = tokenInterface ( ANGtoken_addr);\n\n        KYC_interface KYC_ = KYC_interface (KYC_address);\n        require  (KYC_.allowed_invest(beneficiar, \"ETH\") - summa > 0);\n          uint256 ANG_tokens_amount = summa* ANG_tokens_rate_ETH * (100 - ANG_percent100) / 100;\n          ANGtoken.transfer(address(this), beneficiar,ANG_tokens_amount);\n          KYC_.register_invest (beneficiar, \"ETH\", summa);\n          KYC_.register_invest (beneficiar, \"ANG\", ANG_tokens_amount);\n          emit Purchase_ANG (beneficiar, ANG_tokens_amount);\n\n        }\n\n\n    function sell_discount (address beneficiar, uint256 summa, bytes32 pass_word) public payable  {\n        tokenInterface ANGtoken = tokenInterface ( ANGtoken_addr);\n        KYC_interface KYC_ = KYC_interface (KYC_address);\n        require ((discount_amount > summa) && (KYC_.allowed_invest(beneficiar, \"ETH\") - summa > 0) &&  (pass_word == discount_word));\n\n              uint256 ANG_tokens_amount = summa * ANG_tokens_rate_ETH *(100 - ANG_percent100)*(discount_size100 +100)/10000;\n              discount_amount -= summa;\n              ANGtoken.transfer(address(this),beneficiar,ANG_tokens_amount);\n              KYC_.register_invest (beneficiar, \"ETH\", summa);\n              KYC_.register_invest (beneficiar, \"ANG\", ANG_tokens_amount);\n              emit Purchase_ANG (beneficiar, ANG_tokens_amount);\n\n        }\n\n\n\n      event Log_no_KYC(address investor);\n      //event Change_KYC_level(address investor);\n      event Purchase_ANG (address investor, uint256 sum);\n  }\n",
  "sourcePath": "/home/st/Desktop/DARF-ANGeles/Angeles.VC-token-scrum-investing/contracts/tokensale/sellANG_ETH.sol",
  "compiler": {
    "name": "solc",
    "version": "0.5.0+commit.1d4f565a.Emscripten.clang"
  },
  "schemaVersion": "3.0.5",
  "updatedAt": "2019-04-04T17:11:27.610Z",
  "devdoc": {
    "methods": {}
  },
  "userdoc": {
    "methods": {}
  }
}