{
  "contractName": "sellANG_ETH",
  "abi": [
    {
      "constant": false,
      "inputs": [
        {
          "name": "_sender_address",
          "type": "address"
        }
      ],
      "name": "check_owner",
      "outputs": [
        {
          "name": "",
          "type": "bool"
        }
      ],
      "payable": false,
      "stateMutability": "nonpayable",
      "type": "function"
    },
    {
      "constant": false,
      "inputs": [
        {
          "name": "BasicAdministratableaddr",
          "type": "address"
        }
      ],
      "name": "_initAdministratable",
      "outputs": [],
      "payable": false,
      "stateMutability": "nonpayable",
      "type": "function"
    },
    {
      "constant": false,
      "inputs": [
        {
          "name": "msgSender",
          "type": "address"
        }
      ],
      "name": "checkAdmin",
      "outputs": [
        {
          "name": "",
          "type": "bool"
        }
      ],
      "payable": false,
      "stateMutability": "nonpayable",
      "type": "function"
    },
    {
      "constant": false,
      "inputs": [
        {
          "name": "msgSender",
          "type": "address"
        }
      ],
      "name": "checkSuperAdmin",
      "outputs": [
        {
          "name": "",
          "type": "bool"
        }
      ],
      "payable": false,
      "stateMutability": "nonpayable",
      "type": "function"
    },
    {
      "constant": true,
      "inputs": [],
      "name": "KYC_address",
      "outputs": [
        {
          "name": "",
          "type": "address"
        }
      ],
      "payable": false,
      "stateMutability": "view",
      "type": "function"
    },
    {
      "constant": true,
      "inputs": [],
      "name": "ANGtoken_addr",
      "outputs": [
        {
          "name": "",
          "type": "address"
        }
      ],
      "payable": false,
      "stateMutability": "view",
      "type": "function"
    },
    {
      "anonymous": false,
      "inputs": [
        {
          "indexed": false,
          "name": "investor",
          "type": "address"
        }
      ],
      "name": "Log_no_KYC",
      "type": "event"
    },
    {
      "anonymous": false,
      "inputs": [
        {
          "indexed": false,
          "name": "investor",
          "type": "address"
        },
        {
          "indexed": false,
          "name": "sum",
          "type": "uint256"
        }
      ],
      "name": "Purchase_ANG",
      "type": "event"
    },
    {
      "constant": false,
      "inputs": [
        {
          "name": "Externalstorageaddr",
          "type": "address"
        }
      ],
      "name": "_setExternalstorageaddr",
      "outputs": [],
      "payable": false,
      "stateMutability": "nonpayable",
      "type": "function"
    },
    {
      "constant": false,
      "inputs": [
        {
          "name": "Externalstorageaddr",
          "type": "address"
        }
      ],
      "name": "_initExternalStorage",
      "outputs": [],
      "payable": false,
      "stateMutability": "nonpayable",
      "type": "function"
    },
    {
      "constant": false,
      "inputs": [],
      "name": "load_conditions_ES",
      "outputs": [],
      "payable": false,
      "stateMutability": "nonpayable",
      "type": "function"
    },
    {
      "constant": false,
      "inputs": [
        {
          "name": "beneficiar",
          "type": "address"
        },
        {
          "name": "summa",
          "type": "uint256"
        }
      ],
      "name": "sellANGETH",
      "outputs": [],
      "payable": true,
      "stateMutability": "payable",
      "type": "function"
    },
    {
      "constant": false,
      "inputs": [
        {
          "name": "beneficiar",
          "type": "address"
        },
        {
          "name": "summa",
          "type": "uint256"
        },
        {
          "name": "pass_word",
          "type": "bytes32"
        }
      ],
      "name": "sell_discount",
      "outputs": [],
      "payable": true,
      "stateMutability": "payable",
      "type": "function"
    }
  ],
  "bytecode": "0x608060405234801561001057600080fd5b506110e7806100206000396000f3fe6080604052600436106100ae5763ffffffff7c01000000000000000000000000000000000000000000000000000000006000350416630c3504c981146100b357806325ae4e38146100fa578063427167301461012e5780639026dee8146101615780639df152dc14610194578063a1d658b1146101a9578063c8bc0407146101dc578063cd60c8b91461020f578063ce7c394e14610240578063d69b6ccf14610255578063f7f1388714610281575b600080fd5b3480156100bf57600080fd5b506100e6600480360360208110156100d657600080fd5b5035600160a060020a03166102b4565b604080519115158252519081900360200190f35b61012c6004803603606081101561011057600080fd5b50600160a060020a038135169060208101359060400135610351565b005b34801561013a57600080fd5b5061012c6004803603602081101561015157600080fd5b5035600160a060020a031661066c565b34801561016d57600080fd5b506100e66004803603602081101561018457600080fd5b5035600160a060020a03166106af565b3480156101a057600080fd5b5061012c61071a565b3480156101b557600080fd5b506100e6600480360360208110156101cc57600080fd5b5035600160a060020a0316610c24565b3480156101e857600080fd5b5061012c600480360360208110156101ff57600080fd5b5035600160a060020a0316610c8f565b34801561021b57600080fd5b50610224610d86565b60408051600160a060020a039092168252519081900360200190f35b34801561024c57600080fd5b50610224610d95565b61012c6004803603604081101561026b57600080fd5b50600160a060020a038135169060200135610da4565b34801561028d57600080fd5b5061012c600480360360208110156102a457600080fd5b5035600160a060020a0316611077565b600254604080517f0c3504c9000000000000000000000000000000000000000000000000000000008152600160a060020a03848116600483015291516000939290921691630c3504c99160248082019260209290919082900301818787803b15801561031f57600080fd5b505af1158015610333573d6000803e3d6000fd5b505050506040513d602081101561034957600080fd5b505192915050565b600554600754600a54600160a060020a0392831692909116908410801561042a575060008482600160a060020a031663663e91f2886040518263ffffffff167c01000000000000000000000000000000000000000000000000000000000281526004018082600160a060020a0316600160a060020a031681526020018060eb60020a6208aa8902815250602001915050602060405180830381600087803b1580156103fb57600080fd5b505af115801561040f573d6000803e3d6000fd5b505050506040513d602081101561042557600080fd5b505103115b8015610437575060085483145b151561044257600080fd5b60006127106009546064016006546064036004548802020281151561046357fe5b600a80548890039055604080517fbeabacc8000000000000000000000000000000000000000000000000000000008152306004820152600160a060020a038a81166024830152939092046044830181905290519093509185169163beabacc8916064808201926020929091908290030181600087803b1580156104e557600080fd5b505af11580156104f9573d6000803e3d6000fd5b505050506040513d602081101561050f57600080fd5b50506040805160e060020a634e6091f3028152600160a060020a03888116600483015260eb60020a6208aa8902602483015260448201889052915191841691634e6091f39160648082019260009290919082900301818387803b15801561057557600080fd5b505af1158015610589573d6000803e3d6000fd5b50506040805160e060020a634e6091f3028152600160a060020a038a811660048301527f414e47000000000000000000000000000000000000000000000000000000000060248301526044820186905291519186169350634e6091f3925060648082019260009290919082900301818387803b15801561060857600080fd5b505af115801561061c573d6000803e3d6000fd5b505060408051600160a060020a038a1681526020810185905281517f0c7c369f5fed41a326fd0a7f48eb4fd51dfe3ab2ca5d1fda279a1680000aaf219450908190039091019150a1505050505050565b610675336102b4565b151561068057600080fd5b6002805473ffffffffffffffffffffffffffffffffffffffff1916600160a060020a0392909216919091179055565b600254604080517f9026dee8000000000000000000000000000000000000000000000000000000008152600160a060020a03848116600483015291516000939290921691639026dee89160248082019260209290919082900301818787803b15801561031f57600080fd5b600354604080517ffd255683000000000000000000000000000000000000000000000000000000008152602060048201819052600860248301527f414e47746f6b656e00000000000000000000000000000000000000000000000060448301529151600160a060020a0390931692839263fd2556839260648082019391829003018186803b1580156107ab57600080fd5b505afa1580156107bf573d6000803e3d6000fd5b505050506040513d60208110156107d557600080fd5b50516005805473ffffffffffffffffffffffffffffffffffffffff1916600160a060020a039283161790556040805160e060020a634f161245028152602060048201819052601060248301527f414e47746f6b656e7372617465455448000000000000000000000000000000006044830152915192841692634f16124592606480840193919291829003018186803b15801561087057600080fd5b505afa158015610884573d6000803e3d6000fd5b505050506040513d602081101561089a57600080fd5b505160049081556040805160e060020a634f1612450281526020928101839052600d60248201527f414e4770657263656e743130300000000000000000000000000000000000000060448201529051600160a060020a03841692634f1612459260648082019391829003018186803b15801561091557600080fd5b505afa158015610929573d6000803e3d6000fd5b505050506040513d602081101561093f57600080fd5b5051600655604080517ffd255683000000000000000000000000000000000000000000000000000000008152602060048201819052601c60248301527f4b59432f696d706c656d656e746174696f6e2f42617369635f4b59430000000060448301529151600160a060020a0384169263fd2556839260648082019391829003018186803b1580156109cf57600080fd5b505afa1580156109e3573d6000803e3d6000fd5b505050506040513d60208110156109f957600080fd5b50516007805473ffffffffffffffffffffffffffffffffffffffff1916600160a060020a03928316179055604080517f7ec13996000000000000000000000000000000000000000000000000000000008152602060048201819052601760248301527f746f6b656e73616c652f646973636f756e745f776f72640000000000000000006044830152915192841692637ec1399692606480840193919291829003018186803b158015610aaa57600080fd5b505afa158015610abe573d6000803e3d6000fd5b505050506040513d6020811015610ad457600080fd5b50516008556040805160e060020a634f161245028152602060048201819052601760248301527f746f6b656e73616c652f646973636f756e745f73697a6500000000000000000060448301529151600160a060020a03841692634f1612459260648082019391829003018186803b158015610b4e57600080fd5b505afa158015610b62573d6000803e3d6000fd5b505050506040513d6020811015610b7857600080fd5b50516009556040805160e060020a634f161245028152602060048201819052601960248301527f746f6b656e73616c652f646973636f756e745f616d6f756e740000000000000060448301529151600160a060020a03841692634f1612459260648082019391829003018186803b158015610bf257600080fd5b505afa158015610c06573d6000803e3d6000fd5b505050506040513d6020811015610c1c57600080fd5b5051600a5550565b600254604080517fa1d658b1000000000000000000000000000000000000000000000000000000008152600160a060020a0384811660048301529151600093929092169163a1d658b19160248082019260209290919082900301818787803b15801561031f57600080fd5b33610c99816106af565b15610ca357600080fd5b6003805473ffffffffffffffffffffffffffffffffffffffff1916600160a060020a038481169190911791829055604080517f413c6d1300000000000000000000000000000000000000000000000000000000815230602482015260048101829052601960448201527f746f6b656e73616c652f45786368616e6765414e475f45544800000000000000606482015290519290911691829163413c6d1391608480830192600092919082900301818387803b158015610d6157600080fd5b505af1158015610d75573d6000803e3d6000fd5b50505050610d8161071a565b505050565b600754600160a060020a031681565b600554600160a060020a031681565b600554600754604080517f663e91f2000000000000000000000000000000000000000000000000000000008152600160a060020a03868116600483015260eb60020a6208aa8902602483015291519382169392909116916000918591849163663e91f291604480830192602092919082900301818887803b158015610e2857600080fd5b505af1158015610e3c573d6000803e3d6000fd5b505050506040513d6020811015610e5257600080fd5b50510311610e5f57600080fd5b60006064600654606403600454860202811515610e7857fe5b604080517fbeabacc8000000000000000000000000000000000000000000000000000000008152306004820152600160a060020a038981166024830152939092046044830181905290519093509185169163beabacc8916064808201926020929091908290030181600087803b158015610ef157600080fd5b505af1158015610f05573d6000803e3d6000fd5b505050506040513d6020811015610f1b57600080fd5b50506040805160e060020a634e6091f3028152600160a060020a03878116600483015260eb60020a6208aa8902602483015260448201879052915191841691634e6091f39160648082019260009290919082900301818387803b158015610f8157600080fd5b505af1158015610f95573d6000803e3d6000fd5b50506040805160e060020a634e6091f3028152600160a060020a0389811660048301527f414e47000000000000000000000000000000000000000000000000000000000060248301526044820186905291519186169350634e6091f3925060648082019260009290919082900301818387803b15801561101457600080fd5b505af1158015611028573d6000803e3d6000fd5b505060408051600160a060020a03891681526020810185905281517f0c7c369f5fed41a326fd0a7f48eb4fd51dfe3ab2ca5d1fda279a1680000aaf219450908190039091019150a15050505050565b33611081816106af565b1561108b57600080fd5b506003805473ffffffffffffffffffffffffffffffffffffffff1916600160a060020a039290921691909117905556fea165627a7a72305820fc887f650b7250201ed044f55f9dcf87bd810f556566cc13da6d31a1dfd7467e0029",
  "source": "pragma solidity ^0.5.0;\n//import \"../interface/sale-interface.sol\";\n//import \"./implementation/basic-crowdsale.sol\";\nimport \"../tokens/interface/token-interface.sol\";\nimport \"../KYC/interface/KYC_interface.sol\";\nimport \"../admin/interface/administratable.sol\";\nimport \"../admin/interface/ExternalStorage.sol\";\n\n\n  contract sellANG_ETH is Administratable { //} is token, KYC_interface  { // saleInterface\n      address External_Storage_addr;\n      uint ANG_tokens_rate_ETH; //1 ETH;\n      address public ANGtoken_addr;\n      //address public owner;\n      uint ANG_percent100;\n      //address public beneficiar;\n      address public KYC_address;\n      bytes32  discount_word;\n      uint discount_size100;\n      uint256 discount_amount;\n\n/*\n\n      constructor(address _token_address) public {\n        owner = beneficiar;\n        beneficiar = beneficiar;\n        ANGtoken = _token_address;\n      }\n*/\n//setting of valuees-----------------------------------------------------------\n\n//DATA structs------------------------------------------------------------------\n\n    //==============================================================================\n//setting of valuees-----------------------------------------------------------\n\n        function _setExternalstorageaddr(address Externalstorageaddr ) public onlyAdmins (msg.sender)\n      {\n\n       External_Storage_addr = Externalstorageaddr;\n\n      }\n\n      function _initExternalStorage(address Externalstorageaddr) public onlyAdmins (msg.sender) {\n\n        External_Storage_addr = Externalstorageaddr;\n        ExternalStorage ES = ExternalStorage(External_Storage_addr);\n        ES.setAddressValue(\"tokensale/ExchangeANG_ETH\", address(this));\n        load_conditions_ES ();\n    }\n\n    function load_conditions_ES () public  { //when something changes\n        ExternalStorage ES = ExternalStorage(External_Storage_addr);\n        ANGtoken_addr =  ES.getAddressValue(\"ANGtoken\");\n        ANG_tokens_rate_ETH = ES.getUIntValue(\"ANGtokensrateETH\");\n        ANG_percent100 = ES.getUIntValue(\"ANGpercent100\");\n        KYC_address = ES.getAddressValue(\"KYC/implementation/Basic_KYC\");\n        discount_word =  ES.getBytes32Value(\"tokensale/discount_word\");\n        discount_size100 = ES.getUIntValue(\"tokensale/discount_size\");\n        discount_amount =  ES.getUIntValue(\"tokensale/discount_amount\");\n        // project Projectcurrent =  project(Projectaddr);\n        //address Projecttokenaddr = Projectcurrent.ProjectsList(ProjectID);\n    }\n\n\n\n    function sellANGETH(address beneficiar, uint256 summa)  public payable { //simple buy ANG for Ether\n\n        tokenInterface ANGtoken = tokenInterface ( ANGtoken_addr);\n\n        KYC_interface KYC_ = KYC_interface (KYC_address);\n        require  (KYC_.allowed_invest(beneficiar, \"ETH\") - summa > 0);\n          uint256 ANG_tokens_amount = summa* ANG_tokens_rate_ETH * (100 - ANG_percent100) / 100;\n          ANGtoken.transfer(address(this), beneficiar,ANG_tokens_amount);\n          KYC_.register_invest (beneficiar, \"ETH\", summa);\n          KYC_.register_invest (beneficiar, \"ANG\", ANG_tokens_amount);\n          emit Purchase_ANG (beneficiar, ANG_tokens_amount);\n\n        }\n\n\n    function sell_discount (address beneficiar, uint256 summa, bytes32 pass_word) public payable  {\n        tokenInterface ANGtoken = tokenInterface ( ANGtoken_addr);\n        KYC_interface KYC_ = KYC_interface (KYC_address);\n        require ((discount_amount > summa) && (KYC_.allowed_invest(beneficiar, \"ETH\") - summa > 0) &&  (pass_word == discount_word));\n\n              uint256 ANG_tokens_amount = summa * ANG_tokens_rate_ETH *(100 - ANG_percent100)*(discount_size100 +100)/10000;\n              discount_amount -= summa;\n              ANGtoken.transfer(address(this),beneficiar,ANG_tokens_amount);\n              KYC_.register_invest (beneficiar, \"ETH\", summa);\n              KYC_.register_invest (beneficiar, \"ANG\", ANG_tokens_amount);\n              emit Purchase_ANG (beneficiar, ANG_tokens_amount);\n\n        }\n\n      \n\n      event Log_no_KYC(address investor);\n      //event Change_KYC_level(address investor);\n      event Purchase_ANG (address investor, uint256 sum);\n  }\n",
  "sourcePath": "/home/sergey/Documents/angels/2083nointerfaces/Angeles.VC-token-scrum-investing/contracts/tokensale/sale.sol",
  "compiler": {
    "name": "solc",
    "version": "0.5.0+commit.1d4f565a.Emscripten.clang"
  },
  "schemaVersion": "3.0.2",
  "updatedAt": "2019-03-30T13:34:15.417Z",
  "devdoc": {
    "methods": {}
  },
  "userdoc": {
    "methods": {}
  }
}