{
  "contractName": "sellANG_ETH",
  "abi": [
    {
      "constant": true,
      "inputs": [
        {
          "name": "",
          "type": "bytes32"
        }
      ],
      "name": "primaryLedgerCount",
      "outputs": [
        {
          "name": "",
          "type": "uint256"
        }
      ],
      "payable": false,
      "stateMutability": "view",
      "type": "function"
    },
    {
      "constant": false,
      "inputs": [
        {
          "name": "record",
          "type": "string"
        },
        {
          "name": "value",
          "type": "uint256"
        }
      ],
      "name": "setUIntValue",
      "outputs": [],
      "payable": false,
      "stateMutability": "nonpayable",
      "type": "function"
    },
    {
      "constant": false,
      "inputs": [
        {
          "name": "_investor_address",
          "type": "address"
        },
        {
          "name": "currency",
          "type": "bytes32"
        }
      ],
      "name": "investorGet",
      "outputs": [],
      "payable": false,
      "stateMutability": "nonpayable",
      "type": "function"
    },
    {
      "constant": true,
      "inputs": [],
      "name": "totalAdminsMapping",
      "outputs": [
        {
          "name": "",
          "type": "uint256"
        }
      ],
      "payable": false,
      "stateMutability": "view",
      "type": "function"
    },
    {
      "constant": true,
      "inputs": [
        {
          "name": "",
          "type": "bytes32"
        },
        {
          "name": "",
          "type": "uint256"
        }
      ],
      "name": "primaryLedgerEntryForIndex",
      "outputs": [
        {
          "name": "",
          "type": "address"
        }
      ],
      "payable": false,
      "stateMutability": "view",
      "type": "function"
    },
    {
      "constant": true,
      "inputs": [
        {
          "name": "record",
          "type": "string"
        },
        {
          "name": "primaryAddress",
          "type": "address"
        },
        {
          "name": "secondaryAddress",
          "type": "address"
        }
      ],
      "name": "getMultiLedgerValue",
      "outputs": [
        {
          "name": "",
          "type": "uint256"
        }
      ],
      "payable": false,
      "stateMutability": "view",
      "type": "function"
    },
    {
      "constant": false,
      "inputs": [
        {
          "name": "record",
          "type": "string"
        },
        {
          "name": "_address",
          "type": "address"
        },
        {
          "name": "value",
          "type": "uint256"
        }
      ],
      "name": "setLedgerValue",
      "outputs": [],
      "payable": false,
      "stateMutability": "nonpayable",
      "type": "function"
    },
    {
      "constant": false,
      "inputs": [
        {
          "name": "record",
          "type": "string"
        },
        {
          "name": "value",
          "type": "bytes32"
        }
      ],
      "name": "setBytes32Value",
      "outputs": [],
      "payable": false,
      "stateMutability": "nonpayable",
      "type": "function"
    },
    {
      "constant": false,
      "inputs": [
        {
          "name": "admin",
          "type": "address"
        }
      ],
      "name": "removeAdmin",
      "outputs": [],
      "payable": false,
      "stateMutability": "nonpayable",
      "type": "function"
    },
    {
      "constant": true,
      "inputs": [
        {
          "name": "",
          "type": "bytes32"
        },
        {
          "name": "",
          "type": "address"
        },
        {
          "name": "",
          "type": "uint256"
        }
      ],
      "name": "secondaryLedgerEntryForIndex",
      "outputs": [
        {
          "name": "",
          "type": "address"
        }
      ],
      "payable": false,
      "stateMutability": "view",
      "type": "function"
    },
    {
      "constant": false,
      "inputs": [
        {
          "name": "record",
          "type": "string"
        },
        {
          "name": "primaryAddress",
          "type": "address"
        },
        {
          "name": "secondaryAddress",
          "type": "address"
        },
        {
          "name": "value",
          "type": "uint256"
        }
      ],
      "name": "setMultiLedgerValue",
      "outputs": [],
      "payable": false,
      "stateMutability": "nonpayable",
      "type": "function"
    },
    {
      "constant": false,
      "inputs": [
        {
          "name": "Projecttokenaddr",
          "type": "address"
        }
      ],
      "name": "finish_project",
      "outputs": [],
      "payable": false,
      "stateMutability": "nonpayable",
      "type": "function"
    },
    {
      "constant": true,
      "inputs": [
        {
          "name": "",
          "type": "uint256"
        }
      ],
      "name": "adminsForIndex",
      "outputs": [
        {
          "name": "",
          "type": "address"
        }
      ],
      "payable": false,
      "stateMutability": "view",
      "type": "function"
    },
    {
      "constant": false,
      "inputs": [
        {
          "name": "record",
          "type": "string"
        },
        {
          "name": "value",
          "type": "bool"
        }
      ],
      "name": "setBooleanValue",
      "outputs": [],
      "payable": false,
      "stateMutability": "nonpayable",
      "type": "function"
    },
    {
      "constant": false,
      "inputs": [
        {
          "name": "Project_token_addr",
          "type": "address"
        }
      ],
      "name": "checkrights",
      "outputs": [
        {
          "name": "",
          "type": "uint256"
        }
      ],
      "payable": false,
      "stateMutability": "nonpayable",
      "type": "function"
    },
    {
      "constant": false,
      "inputs": [
        {
          "name": "record",
          "type": "string"
        },
        {
          "name": "value",
          "type": "address"
        }
      ],
      "name": "setAddressValue",
      "outputs": [],
      "payable": false,
      "stateMutability": "nonpayable",
      "type": "function"
    },
    {
      "constant": true,
      "inputs": [
        {
          "name": "",
          "type": "address"
        }
      ],
      "name": "admins",
      "outputs": [
        {
          "name": "",
          "type": "bool"
        }
      ],
      "payable": false,
      "stateMutability": "view",
      "type": "function"
    },
    {
      "constant": true,
      "inputs": [
        {
          "name": "",
          "type": "bytes32"
        },
        {
          "name": "",
          "type": "address"
        },
        {
          "name": "",
          "type": "address"
        }
      ],
      "name": "ledgerSecondaryEntries",
      "outputs": [
        {
          "name": "",
          "type": "bool"
        }
      ],
      "payable": false,
      "stateMutability": "view",
      "type": "function"
    },
    {
      "constant": false,
      "inputs": [
        {
          "name": "admin",
          "type": "address"
        }
      ],
      "name": "removeSuperAdmin",
      "outputs": [],
      "payable": false,
      "stateMutability": "nonpayable",
      "type": "function"
    },
    {
      "constant": false,
      "inputs": [
        {
          "name": "_investor_address",
          "type": "address"
        },
        {
          "name": "currency",
          "type": "bytes32"
        },
        {
          "name": "add_invested_sum",
          "type": "uint256"
        }
      ],
      "name": "register_invest",
      "outputs": [],
      "payable": false,
      "stateMutability": "nonpayable",
      "type": "function"
    },
    {
      "constant": true,
      "inputs": [
        {
          "name": "record",
          "type": "string"
        }
      ],
      "name": "getUIntValue",
      "outputs": [
        {
          "name": "",
          "type": "uint256"
        }
      ],
      "payable": false,
      "stateMutability": "view",
      "type": "function"
    },
    {
      "constant": true,
      "inputs": [
        {
          "name": "record",
          "type": "string"
        }
      ],
      "name": "getLedgerCount",
      "outputs": [
        {
          "name": "",
          "type": "uint256"
        }
      ],
      "payable": false,
      "stateMutability": "view",
      "type": "function"
    },
    {
      "constant": false,
      "inputs": [
        {
          "name": "newowner",
          "type": "address"
        }
      ],
      "name": "ownable",
      "outputs": [],
      "payable": false,
      "stateMutability": "nonpayable",
      "type": "function"
    },
    {
      "constant": false,
      "inputs": [
        {
          "name": "_investor_address",
          "type": "address"
        },
        {
          "name": "currency",
          "type": "bytes32"
        }
      ],
      "name": "allowed_invest",
      "outputs": [
        {
          "name": "",
          "type": "uint256"
        }
      ],
      "payable": false,
      "stateMutability": "nonpayable",
      "type": "function"
    },
    {
      "constant": false,
      "inputs": [
        {
          "name": "_investor_address",
          "type": "address"
        },
        {
          "name": "currency",
          "type": "bytes32"
        },
        {
          "name": "add_approved_sum",
          "type": "uint256"
        }
      ],
      "name": "add_KYC",
      "outputs": [],
      "payable": false,
      "stateMutability": "nonpayable",
      "type": "function"
    },
    {
      "constant": true,
      "inputs": [
        {
          "name": "record",
          "type": "string"
        }
      ],
      "name": "getBytesValue",
      "outputs": [
        {
          "name": "",
          "type": "bytes"
        }
      ],
      "payable": false,
      "stateMutability": "view",
      "type": "function"
    },
    {
      "constant": false,
      "inputs": [
        {
          "name": "admin",
          "type": "address"
        }
      ],
      "name": "addAdmin",
      "outputs": [],
      "payable": false,
      "stateMutability": "nonpayable",
      "type": "function"
    },
    {
      "constant": true,
      "inputs": [
        {
          "name": "",
          "type": "bytes32"
        },
        {
          "name": "",
          "type": "address"
        }
      ],
      "name": "secondaryLedgerCount",
      "outputs": [
        {
          "name": "",
          "type": "uint256"
        }
      ],
      "payable": false,
      "stateMutability": "view",
      "type": "function"
    },
    {
      "constant": false,
      "inputs": [
        {
          "name": "Projecttokenaddr",
          "type": "address"
        },
        {
          "name": "DFSchangesaddr",
          "type": "bytes32"
        },
        {
          "name": "DFSchangeshash",
          "type": "bytes32"
        },
        {
          "name": "POA_addr",
          "type": "bytes32"
        }
      ],
      "name": "project_add_state",
      "outputs": [
        {
          "name": "",
          "type": "uint256"
        }
      ],
      "payable": false,
      "stateMutability": "nonpayable",
      "type": "function"
    },
    {
      "constant": true,
      "inputs": [
        {
          "name": "record",
          "type": "string"
        }
      ],
      "name": "getBytes32Value",
      "outputs": [
        {
          "name": "",
          "type": "bytes32"
        }
      ],
      "payable": false,
      "stateMutability": "view",
      "type": "function"
    },
    {
      "constant": true,
      "inputs": [
        {
          "name": "",
          "type": "bytes32"
        },
        {
          "name": "",
          "type": "address"
        }
      ],
      "name": "booleanMapAccounts",
      "outputs": [
        {
          "name": "",
          "type": "bool"
        }
      ],
      "payable": false,
      "stateMutability": "view",
      "type": "function"
    },
    {
      "constant": true,
      "inputs": [
        {
          "name": "",
          "type": "bytes32"
        }
      ],
      "name": "booleanMapCount",
      "outputs": [
        {
          "name": "",
          "type": "uint256"
        }
      ],
      "payable": false,
      "stateMutability": "view",
      "type": "function"
    },
    {
      "constant": true,
      "inputs": [
        {
          "name": "",
          "type": "bytes32"
        },
        {
          "name": "",
          "type": "address"
        }
      ],
      "name": "ledgerPrimaryEntries",
      "outputs": [
        {
          "name": "",
          "type": "bool"
        }
      ],
      "payable": false,
      "stateMutability": "view",
      "type": "function"
    },
    {
      "constant": true,
      "inputs": [
        {
          "name": "record",
          "type": "string"
        }
      ],
      "name": "getIntValue",
      "outputs": [
        {
          "name": "",
          "type": "int256"
        }
      ],
      "payable": false,
      "stateMutability": "view",
      "type": "function"
    },
    {
      "constant": true,
      "inputs": [],
      "name": "owner",
      "outputs": [
        {
          "name": "",
          "type": "address"
        }
      ],
      "payable": false,
      "stateMutability": "view",
      "type": "function"
    },
    {
      "constant": true,
      "inputs": [
        {
          "name": "record",
          "type": "string"
        }
      ],
      "name": "getBooleanValue",
      "outputs": [
        {
          "name": "",
          "type": "bool"
        }
      ],
      "payable": false,
      "stateMutability": "view",
      "type": "function"
    },
    {
      "constant": false,
      "inputs": [],
      "name": "kyc",
      "outputs": [],
      "payable": false,
      "stateMutability": "nonpayable",
      "type": "function"
    },
    {
      "constant": false,
      "inputs": [
        {
          "name": "record",
          "type": "string"
        },
        {
          "name": "_address",
          "type": "address"
        },
        {
          "name": "value",
          "type": "bool"
        }
      ],
      "name": "setBooleanMapValue",
      "outputs": [],
      "payable": false,
      "stateMutability": "nonpayable",
      "type": "function"
    },
    {
      "constant": true,
      "inputs": [
        {
          "name": "record",
          "type": "string"
        },
        {
          "name": "_address",
          "type": "address"
        }
      ],
      "name": "getLedgerValue",
      "outputs": [
        {
          "name": "",
          "type": "uint256"
        }
      ],
      "payable": false,
      "stateMutability": "view",
      "type": "function"
    },
    {
      "constant": false,
      "inputs": [
        {
          "name": "record",
          "type": "string"
        },
        {
          "name": "value",
          "type": "int256"
        }
      ],
      "name": "setIntValue",
      "outputs": [],
      "payable": false,
      "stateMutability": "nonpayable",
      "type": "function"
    },
    {
      "constant": true,
      "inputs": [],
      "name": "totalSuperAdminsMapping",
      "outputs": [
        {
          "name": "",
          "type": "uint256"
        }
      ],
      "payable": false,
      "stateMutability": "view",
      "type": "function"
    },
    {
      "constant": true,
      "inputs": [
        {
          "name": "",
          "type": "address"
        }
      ],
      "name": "superAdmins",
      "outputs": [
        {
          "name": "",
          "type": "bool"
        }
      ],
      "payable": false,
      "stateMutability": "view",
      "type": "function"
    },
    {
      "constant": true,
      "inputs": [
        {
          "name": "",
          "type": "address"
        },
        {
          "name": "",
          "type": "address"
        }
      ],
      "name": "_investors",
      "outputs": [
        {
          "name": "approved_sum",
          "type": "uint256"
        },
        {
          "name": "invested_sum",
          "type": "uint256"
        }
      ],
      "payable": false,
      "stateMutability": "view",
      "type": "function"
    },
    {
      "constant": false,
      "inputs": [
        {
          "name": "Projecttokenaddr",
          "type": "address"
        },
        {
          "name": "grade",
          "type": "uint256"
        },
        {
          "name": "floorsum",
          "type": "uint256"
        }
      ],
      "name": "setrights",
      "outputs": [],
      "payable": false,
      "stateMutability": "nonpayable",
      "type": "function"
    },
    {
      "constant": false,
      "inputs": [
        {
          "name": "admin",
          "type": "address"
        }
      ],
      "name": "addSuperAdmin",
      "outputs": [],
      "payable": false,
      "stateMutability": "nonpayable",
      "type": "function"
    },
    {
      "constant": false,
      "inputs": [
        {
          "name": "record",
          "type": "string"
        },
        {
          "name": "value",
          "type": "bytes"
        }
      ],
      "name": "setBytesValue",
      "outputs": [],
      "payable": false,
      "stateMutability": "nonpayable",
      "type": "function"
    },
    {
      "constant": false,
      "inputs": [
        {
          "name": "Projecttokenaddr",
          "type": "address"
        },
        {
          "name": "DFSProjectdescribe",
          "type": "bytes32"
        },
        {
          "name": "DFStype",
          "type": "bytes4"
        }
      ],
      "name": "create_project",
      "outputs": [],
      "payable": false,
      "stateMutability": "nonpayable",
      "type": "function"
    },
    {
      "constant": true,
      "inputs": [
        {
          "name": "",
          "type": "bytes32"
        },
        {
          "name": "",
          "type": "uint256"
        }
      ],
      "name": "ledgerEntryForIndex",
      "outputs": [
        {
          "name": "",
          "type": "address"
        }
      ],
      "payable": false,
      "stateMutability": "view",
      "type": "function"
    },
    {
      "constant": true,
      "inputs": [
        {
          "name": "",
          "type": "bytes32"
        },
        {
          "name": "",
          "type": "uint256"
        }
      ],
      "name": "booleanMapEntryForIndex",
      "outputs": [
        {
          "name": "",
          "type": "address"
        }
      ],
      "payable": false,
      "stateMutability": "view",
      "type": "function"
    },
    {
      "constant": true,
      "inputs": [
        {
          "name": "",
          "type": "uint256"
        }
      ],
      "name": "superAdminsForIndex",
      "outputs": [
        {
          "name": "",
          "type": "address"
        }
      ],
      "payable": false,
      "stateMutability": "view",
      "type": "function"
    },
    {
      "constant": true,
      "inputs": [
        {
          "name": "",
          "type": "uint256"
        }
      ],
      "name": "ProjectList",
      "outputs": [
        {
          "name": "",
          "type": "address"
        }
      ],
      "payable": false,
      "stateMutability": "view",
      "type": "function"
    },
    {
      "constant": true,
      "inputs": [
        {
          "name": "",
          "type": "address"
        }
      ],
      "name": "Projects",
      "outputs": [
        {
          "name": "project_ID",
          "type": "uint256"
        },
        {
          "name": "project_owner_address",
          "type": "address"
        },
        {
          "name": "_DARF_system_address",
          "type": "address"
        },
        {
          "name": "DFS_Project_describe",
          "type": "bytes32"
        },
        {
          "name": "DFS_type",
          "type": "bytes4"
        }
      ],
      "payable": false,
      "stateMutability": "view",
      "type": "function"
    },
    {
      "constant": true,
      "inputs": [],
      "name": "KYC_address",
      "outputs": [
        {
          "name": "",
          "type": "address"
        }
      ],
      "payable": false,
      "stateMutability": "view",
      "type": "function"
    },
    {
      "constant": true,
      "inputs": [],
      "name": "ANGtoken_addr",
      "outputs": [
        {
          "name": "",
          "type": "address"
        }
      ],
      "payable": false,
      "stateMutability": "view",
      "type": "function"
    },
    {
      "constant": false,
      "inputs": [
        {
          "name": "Projecttokenaddr",
          "type": "address"
        },
        {
          "name": "owner",
          "type": "address"
        },
        {
          "name": "DFSProjectdescribe",
          "type": "bytes32"
        },
        {
          "name": "DFStype",
          "type": "bytes4"
        }
      ],
      "name": "change_project_info",
      "outputs": [],
      "payable": false,
      "stateMutability": "nonpayable",
      "type": "function"
    },
    {
      "constant": true,
      "inputs": [
        {
          "name": "",
          "type": "bytes32"
        }
      ],
      "name": "ledgerCount",
      "outputs": [
        {
          "name": "",
          "type": "uint256"
        }
      ],
      "payable": false,
      "stateMutability": "view",
      "type": "function"
    },
    {
      "constant": true,
      "inputs": [
        {
          "name": "record",
          "type": "string"
        },
        {
          "name": "_address",
          "type": "address"
        }
      ],
      "name": "getBooleanMapValue",
      "outputs": [
        {
          "name": "",
          "type": "bool"
        }
      ],
      "payable": false,
      "stateMutability": "view",
      "type": "function"
    },
    {
      "constant": false,
      "inputs": [
        {
          "name": "Projecttokenaddr",
          "type": "address"
        },
        {
          "name": "timestamp",
          "type": "uint256"
        }
      ],
      "name": "project_get_state",
      "outputs": [
        {
          "name": "",
          "type": "bytes32"
        }
      ],
      "payable": false,
      "stateMutability": "nonpayable",
      "type": "function"
    },
    {
      "constant": true,
      "inputs": [
        {
          "name": "record",
          "type": "string"
        }
      ],
      "name": "getBooleanMapCount",
      "outputs": [
        {
          "name": "",
          "type": "uint256"
        }
      ],
      "payable": false,
      "stateMutability": "view",
      "type": "function"
    },
    {
      "constant": true,
      "inputs": [
        {
          "name": "",
          "type": "bytes32"
        },
        {
          "name": "",
          "type": "address"
        }
      ],
      "name": "ledgerAccounts",
      "outputs": [
        {
          "name": "",
          "type": "bool"
        }
      ],
      "payable": false,
      "stateMutability": "view",
      "type": "function"
    },
    {
      "constant": false,
      "inputs": [
        {
          "name": "newOwner",
          "type": "address"
        }
      ],
      "name": "transferOwnership",
      "outputs": [],
      "payable": false,
      "stateMutability": "nonpayable",
      "type": "function"
    },
    {
      "constant": true,
      "inputs": [
        {
          "name": "record",
          "type": "string"
        }
      ],
      "name": "getAddressValue",
      "outputs": [
        {
          "name": "",
          "type": "address"
        }
      ],
      "payable": false,
      "stateMutability": "view",
      "type": "function"
    },
    {
      "anonymous": false,
      "inputs": [
        {
          "indexed": false,
          "name": "investor",
          "type": "address"
        }
      ],
      "name": "Log_no_KYC",
      "type": "event"
    },
    {
      "anonymous": false,
      "inputs": [
        {
          "indexed": false,
          "name": "investor",
          "type": "address"
        },
        {
          "indexed": false,
          "name": "sum",
          "type": "uint256"
        }
      ],
      "name": "Purchase_ANG",
      "type": "event"
    },
    {
      "anonymous": false,
      "inputs": [
        {
          "indexed": false,
          "name": "owner_address",
          "type": "address"
        },
        {
          "indexed": false,
          "name": "Projecttokenaddr",
          "type": "address"
        },
        {
          "indexed": false,
          "name": "DFSProjectdescribe",
          "type": "bytes32"
        },
        {
          "indexed": false,
          "name": "_DARFsystemaddress",
          "type": "address"
        }
      ],
      "name": "New_project",
      "type": "event"
    },
    {
      "anonymous": false,
      "inputs": [
        {
          "indexed": false,
          "name": "Projecttokenaddr",
          "type": "address"
        }
      ],
      "name": "finished_project",
      "type": "event"
    },
    {
      "anonymous": false,
      "inputs": [
        {
          "indexed": true,
          "name": "admin",
          "type": "address"
        }
      ],
      "name": "AddAdmin",
      "type": "event"
    },
    {
      "anonymous": false,
      "inputs": [
        {
          "indexed": true,
          "name": "admin",
          "type": "address"
        }
      ],
      "name": "RemoveAdmin",
      "type": "event"
    },
    {
      "anonymous": false,
      "inputs": [
        {
          "indexed": true,
          "name": "admin",
          "type": "address"
        }
      ],
      "name": "AddSuperAdmin",
      "type": "event"
    },
    {
      "anonymous": false,
      "inputs": [
        {
          "indexed": true,
          "name": "admin",
          "type": "address"
        }
      ],
      "name": "RemoveSuperAdmin",
      "type": "event"
    },
    {
      "anonymous": false,
      "inputs": [
        {
          "indexed": false,
          "name": "previousOwner",
          "type": "address"
        },
        {
          "indexed": false,
          "name": "newOwner",
          "type": "address"
        }
      ],
      "name": "OwnershipTransferred",
      "type": "event"
    },
    {
      "constant": false,
      "inputs": [
        {
          "name": "Externalstorageaddr",
          "type": "address"
        }
      ],
      "name": "_setExternalstorageaddr",
      "outputs": [],
      "payable": false,
      "stateMutability": "nonpayable",
      "type": "function"
    },
    {
      "constant": false,
      "inputs": [
        {
          "name": "Externalstorageaddr",
          "type": "address"
        }
      ],
      "name": "_initExternalStorage",
      "outputs": [],
      "payable": false,
      "stateMutability": "nonpayable",
      "type": "function"
    },
    {
      "constant": false,
      "inputs": [],
      "name": "load_conditions_ES",
      "outputs": [],
      "payable": false,
      "stateMutability": "nonpayable",
      "type": "function"
    },
    {
      "constant": false,
      "inputs": [
        {
          "name": "beneficiar",
          "type": "address"
        },
        {
          "name": "summa",
          "type": "uint256"
        }
      ],
      "name": "sellANGETH",
      "outputs": [],
      "payable": false,
      "stateMutability": "nonpayable",
      "type": "function"
    },
    {
      "constant": false,
      "inputs": [
        {
          "name": "beneficiar",
          "type": "address"
        },
        {
          "name": "summa",
          "type": "uint256"
        },
        {
          "name": "pass_word",
          "type": "bytes32"
        }
      ],
      "name": "sell_discount",
      "outputs": [],
      "payable": false,
      "stateMutability": "nonpayable",
      "type": "function"
    }
  ],
  "bytecode": "0x6080604052671bc16d674ec8000060265534801561001c57600080fd5b50619749806200002d6000396000f3fe608060405260043610610317576000357c0100000000000000000000000000000000000000000000000000000000900463ffffffff1680630305357e1461031c57806303d759371461036b578063043baa031461043d5780630489882e14610498578063059f9ebf146104c3578063088787a3146105485780630cb1a3a91461066457806310278bc8146107565780631785f53c14610828578063199759db146108795780631f69d2301461091e57806321f622be14610a3057806325ae4e3814610a81578063313f2a2114610ae65780633d8f89d714610b615780633fe1471314610c35578063413c6d1314610c9a578063429b62e514610d825780634463d9ec14610deb5780634902e4aa14610e7e5780634e6091f314610ecf5780634f16124514610f345780634f6acaa11461101057806364a04b59146110ec578063663e91f21461113d5780636ae923c8146111ac5780636e22d33e146112115780637048027514611352578063740ca23c146113a357806375fa9ece146114125780637ec13996146114955780637ffcd79f1461157157806383e835e0146115e45780638552527714611633578063877c2184146116a65780638da5cb5b146117825780638de21650146117d957806390d6b45f146118b9578063929268b8146118d05780639df152dc146119c4578063a90cf6f4146119db578063abd6ff8e14611ad7578063abf7b06314611ba9578063ad25cb4214611bd4578063ad53061914611c3d578063b1ec4c8814611cc9578063b3292ff014611d2e578063bf3c112014611d7f578063bfaa3ebc14611ede578063c04dc73b14611f62578063c0b3ac9314611fe7578063c38943981461206c578063c5ca3213146120e7578063c8bc040714612162578063cc46e7ca146121b3578063cd60c8b9146122ca578063ce7c394e14612321578063d2716f0314612378578063d3f742dc1461241c578063d69b6ccf1461246b578063e671fab5146124c6578063e815cae6146125c6578063e89bc86b14612635578063e8d39d0714612711578063f2fde38b14612784578063f7f13887146127d5578063fd25568314612826575b600080fd5b34801561032857600080fd5b506103556004803603602081101561033f57600080fd5b810190808035906020019092919050505061292e565b6040518082815260200191505060405180910390f35b34801561037757600080fd5b5061043b6004803603604081101561038e57600080fd5b81019080803590602001906401000000008111156103ab57600080fd5b8201836020820111156103bd57600080fd5b803590602001918460018302840111640100000000831117156103df57600080fd5b91908080601f016020809104026020016040519081016040528093929190818152602001838380828437600081840152601f19601f82011690508083019250505050505050919291929080359060200190929190505050612946565b005b34801561044957600080fd5b506104966004803603604081101561046057600080fd5b81019080803573ffffffffffffffffffffffffffffffffffffffff16906020019092919080359060200190929190505050612ada565b005b3480156104a457600080fd5b506104ad612ade565b6040518082815260200191505060405180910390f35b3480156104cf57600080fd5b50610506600480360360408110156104e657600080fd5b810190808035906020019092919080359060200190929190505050612ae4565b604051808273ffffffffffffffffffffffffffffffffffffffff1673ffffffffffffffffffffffffffffffffffffffff16815260200191505060405180910390f35b34801561055457600080fd5b5061064e6004803603606081101561056b57600080fd5b810190808035906020019064010000000081111561058857600080fd5b82018360208201111561059a57600080fd5b803590602001918460018302840111640100000000831117156105bc57600080fd5b91908080601f016020809104026020016040519081016040528093929190818152602001838380828437600081840152601f19601f820116905080830192505050505050509192919290803573ffffffffffffffffffffffffffffffffffffffff169060200190929190803573ffffffffffffffffffffffffffffffffffffffff169060200190929190505050612b26565b6040518082815260200191505060405180910390f35b34801561067057600080fd5b506107546004803603606081101561068757600080fd5b81019080803590602001906401000000008111156106a457600080fd5b8201836020820111156106b657600080fd5b803590602001918460018302840111640100000000831117156106d857600080fd5b91908080601f016020809104026020016040519081016040528093929190818152602001838380828437600081840152601f19601f820116905080830192505050505050509192919290803573ffffffffffffffffffffffffffffffffffffffff16906020019092919080359060200190929190505050612c4a565b005b34801561076257600080fd5b506108266004803603604081101561077957600080fd5b810190808035906020019064010000000081111561079657600080fd5b8201836020820111156107a857600080fd5b803590602001918460018302840111640100000000831117156107ca57600080fd5b91908080601f016020809104026020016040519081016040528093929190818152602001838380828437600081840152601f19601f82011690508083019250505050505050919291929080359060200190929190505050612f97565b005b34801561083457600080fd5b506108776004803603602081101561084b57600080fd5b81019080803573ffffffffffffffffffffffffffffffffffffffff16906020019092919050505061312b565b005b34801561088557600080fd5b506108dc6004803603606081101561089c57600080fd5b8101908080359060200190929190803573ffffffffffffffffffffffffffffffffffffffff16906020019092919080359060200190929190505050613260565b604051808273ffffffffffffffffffffffffffffffffffffffff1673ffffffffffffffffffffffffffffffffffffffff16815260200191505060405180910390f35b34801561092a57600080fd5b50610a2e6004803603608081101561094157600080fd5b810190808035906020019064010000000081111561095e57600080fd5b82018360208201111561097057600080fd5b8035906020019184600183028401116401000000008311171561099257600080fd5b91908080601f016020809104026020016040519081016040528093929190818152602001838380828437600081840152601f19601f820116905080830192505050505050509192919290803573ffffffffffffffffffffffffffffffffffffffff169060200190929190803573ffffffffffffffffffffffffffffffffffffffff169060200190929190803590602001909291905050506132af565b005b348015610a3c57600080fd5b50610a7f60048036036020811015610a5357600080fd5b81019080803573ffffffffffffffffffffffffffffffffffffffff1690602001909291905050506138e0565b005b348015610a8d57600080fd5b50610ae460048036036060811015610aa457600080fd5b81019080803573ffffffffffffffffffffffffffffffffffffffff1690602001909291908035906020019092919080359060200190929190505050613946565b005b348015610af257600080fd5b50610b1f60048036036020811015610b0957600080fd5b8101908080359060200190929190505050613e08565b604051808273ffffffffffffffffffffffffffffffffffffffff1673ffffffffffffffffffffffffffffffffffffffff16815260200191505060405180910390f35b348015610b6d57600080fd5b50610c3360048036036040811015610b8457600080fd5b8101908080359060200190640100000000811115610ba157600080fd5b820183602082011115610bb357600080fd5b80359060200191846001830284011164010000000083111715610bd557600080fd5b91908080601f016020809104026020016040519081016040528093929190818152602001838380828437600081840152601f19601f820116905080830192505050505050509192919290803515159060200190929190505050613e3b565b005b348015610c4157600080fd5b50610c8460048036036020811015610c5857600080fd5b81019080803573ffffffffffffffffffffffffffffffffffffffff169060200190929190505050613fe2565b6040518082815260200191505060405180910390f35b348015610ca657600080fd5b50610d8060048036036040811015610cbd57600080fd5b8101908080359060200190640100000000811115610cda57600080fd5b820183602082011115610cec57600080fd5b80359060200191846001830284011164010000000083111715610d0e57600080fd5b91908080601f016020809104026020016040519081016040528093929190818152602001838380828437600081840152601f19601f820116905080830192505050505050509192919290803573ffffffffffffffffffffffffffffffffffffffff169060200190929190505050614145565b005b348015610d8e57600080fd5b50610dd160048036036020811015610da557600080fd5b81019080803573ffffffffffffffffffffffffffffffffffffffff169060200190929190505050614313565b604051808215151515815260200191505060405180910390f35b348015610df757600080fd5b50610e6460048036036060811015610e0e57600080fd5b8101908080359060200190929190803573ffffffffffffffffffffffffffffffffffffffff169060200190929190803573ffffffffffffffffffffffffffffffffffffffff169060200190929190505050614333565b604051808215151515815260200191505060405180910390f35b348015610e8a57600080fd5b50610ecd60048036036020811015610ea157600080fd5b81019080803573ffffffffffffffffffffffffffffffffffffffff16906020019092919050505061436f565b005b348015610edb57600080fd5b50610f3260048036036060811015610ef257600080fd5b81019080803573ffffffffffffffffffffffffffffffffffffffff169060200190929190803590602001909291908035906020019092919050505061444e565b005b348015610f4057600080fd5b50610ffa60048036036020811015610f5757600080fd5b8101908080359060200190640100000000811115610f7457600080fd5b820183602082011115610f8657600080fd5b80359060200191846001830284011164010000000083111715610fa857600080fd5b91908080601f016020809104026020016040519081016040528093929190818152602001838380828437600081840152601f19601f820116905080830192505050505050509192919290505050614538565b6040518082815260200191505060405180910390f35b34801561101c57600080fd5b506110d66004803603602081101561103357600080fd5b810190808035906020019064010000000081111561105057600080fd5b82018360208201111561106257600080fd5b8035906020019184600183028401116401000000008311171561108457600080fd5b91908080601f016020809104026020016040519081016040528093929190818152602001838380828437600081840152601f19601f8201169050808301925050505050505091929192905050506145e0565b6040518082815260200191505060405180910390f35b3480156110f857600080fd5b5061113b6004803603602081101561110f57600080fd5b81019080803573ffffffffffffffffffffffffffffffffffffffff169060200190929190505050614688565b005b34801561114957600080fd5b506111966004803603604081101561116057600080fd5b81019080803573ffffffffffffffffffffffffffffffffffffffff169060200190929190803590602001909291905050506146d5565b6040518082815260200191505060405180910390f35b3480156111b857600080fd5b5061120f600480360360608110156111cf57600080fd5b81019080803573ffffffffffffffffffffffffffffffffffffffff16906020019092919080359060200190929190803590602001909291905050506147e4565b005b34801561121d57600080fd5b506112d76004803603602081101561123457600080fd5b810190808035906020019064010000000081111561125157600080fd5b82018360208201111561126357600080fd5b8035906020019184600183028401116401000000008311171561128557600080fd5b91908080601f016020809104026020016040519081016040528093929190818152602001838380828437600081840152601f19601f8201169050808301925050505050505091929192905050506149bb565b6040518080602001828103825283818151815260200191508051906020019080838360005b838110156113175780820151818401526020810190506112fc565b50505050905090810190601f1680156113445780820380516001836020036101000a031916815260200191505b509250505060405180910390f35b34801561135e57600080fd5b506113a16004803603602081101561137557600080fd5b81019080803573ffffffffffffffffffffffffffffffffffffffff169060200190929190505050614afb565b005b3480156113af57600080fd5b506113fc600480360360408110156113c657600080fd5b8101908080359060200190929190803573ffffffffffffffffffffffffffffffffffffffff169060200190929190505050614d4b565b6040518082815260200191505060405180910390f35b34801561141e57600080fd5b5061147f6004803603608081101561143557600080fd5b81019080803573ffffffffffffffffffffffffffffffffffffffff169060200190929190803590602001909291908035906020019092919080359060200190929190505050614d70565b6040518082815260200191505060405180910390f35b3480156114a157600080fd5b5061155b600480360360208110156114b857600080fd5b81019080803590602001906401000000008111156114d557600080fd5b8201836020820111156114e757600080fd5b8035906020019184600183028401116401000000008311171561150957600080fd5b91908080601f016020809104026020016040519081016040528093929190818152602001838380828437600081840152601f19601f820116905080830192505050505050509192919290505050614f57565b6040518082815260200191505060405180910390f35b34801561157d57600080fd5b506115ca6004803603604081101561159457600080fd5b8101908080359060200190929190803573ffffffffffffffffffffffffffffffffffffffff169060200190929190505050614fff565b604051808215151515815260200191505060405180910390f35b3480156115f057600080fd5b5061161d6004803603602081101561160757600080fd5b810190808035906020019092919050505061502e565b6040518082815260200191505060405180910390f35b34801561163f57600080fd5b5061168c6004803603604081101561165657600080fd5b8101908080359060200190929190803573ffffffffffffffffffffffffffffffffffffffff169060200190929190505050615046565b604051808215151515815260200191505060405180910390f35b3480156116b257600080fd5b5061176c600480360360208110156116c957600080fd5b81019080803590602001906401000000008111156116e657600080fd5b8201836020820111156116f857600080fd5b8035906020019184600183028401116401000000008311171561171a57600080fd5b91908080601f016020809104026020016040519081016040528093929190818152602001838380828437600081840152601f19601f820116905080830192505050505050509192919290505050615075565b6040518082815260200191505060405180910390f35b34801561178e57600080fd5b5061179761511d565b604051808273ffffffffffffffffffffffffffffffffffffffff1673ffffffffffffffffffffffffffffffffffffffff16815260200191505060405180910390f35b3480156117e557600080fd5b5061189f600480360360208110156117fc57600080fd5b810190808035906020019064010000000081111561181957600080fd5b82018360208201111561182b57600080fd5b8035906020019184600183028401116401000000008311171561184d57600080fd5b91908080601f016020809104026020016040519081016040528093929190818152602001838380828437600081840152601f19601f820116905080830192505050505050509192919290505050615146565b604051808215151515815260200191505060405180910390f35b3480156118c557600080fd5b506118ce6151fb565b005b3480156118dc57600080fd5b506119c2600480360360608110156118f357600080fd5b810190808035906020019064010000000081111561191057600080fd5b82018360208201111561192257600080fd5b8035906020019184600183028401116401000000008311171561194457600080fd5b91908080601f016020809104026020016040519081016040528093929190818152602001838380828437600081840152601f19601f820116905080830192505050505050509192919290803573ffffffffffffffffffffffffffffffffffffffff169060200190929190803515159060200190929190505050615463565b005b3480156119d057600080fd5b506119d96157c3565b005b3480156119e757600080fd5b50611ac1600480360360408110156119fe57600080fd5b8101908080359060200190640100000000811115611a1b57600080fd5b820183602082011115611a2d57600080fd5b80359060200191846001830284011164010000000083111715611a4f57600080fd5b91908080601f016020809104026020016040519081016040528093929190818152602001838380828437600081840152601f19601f820116905080830192505050505050509192919290803573ffffffffffffffffffffffffffffffffffffffff169060200190929190505050615e7a565b6040518082815260200191505060405180910390f35b348015611ae357600080fd5b50611ba760048036036040811015611afa57600080fd5b8101908080359060200190640100000000811115611b1757600080fd5b820183602082011115611b2957600080fd5b80359060200191846001830284011164010000000083111715611b4b57600080fd5b91908080601f016020809104026020016040519081016040528093929190818152602001838380828437600081840152601f19601f82011690508083019250505050505050919291929080359060200190929190505050615f60565b005b348015611bb557600080fd5b50611bbe6160f4565b6040518082815260200191505060405180910390f35b348015611be057600080fd5b50611c2360048036036020811015611bf757600080fd5b81019080803573ffffffffffffffffffffffffffffffffffffffff1690602001909291905050506160fa565b604051808215151515815260200191505060405180910390f35b348015611c4957600080fd5b50611cac60048036036040811015611c6057600080fd5b81019080803573ffffffffffffffffffffffffffffffffffffffff169060200190929190803573ffffffffffffffffffffffffffffffffffffffff16906020019092919050505061611a565b604051808381526020018281526020019250505060405180910390f35b348015611cd557600080fd5b50611d2c60048036036060811015611cec57600080fd5b81019080803573ffffffffffffffffffffffffffffffffffffffff169060200190929190803590602001909291908035906020019092919050505061614b565b005b348015611d3a57600080fd5b50611d7d60048036036020811015611d5157600080fd5b81019080803573ffffffffffffffffffffffffffffffffffffffff16906020019092919050505061624f565b005b348015611d8b57600080fd5b50611edc60048036036040811015611da257600080fd5b8101908080359060200190640100000000811115611dbf57600080fd5b820183602082011115611dd157600080fd5b80359060200191846001830284011164010000000083111715611df357600080fd5b91908080601f016020809104026020016040519081016040528093929190818152602001838380828437600081840152601f19601f82011690508083019250505050505050919291929080359060200190640100000000811115611e5657600080fd5b820183602082011115611e6857600080fd5b80359060200191846001830284011164010000000083111715611e8a57600080fd5b91908080601f016020809104026020016040519081016040528093929190818152602001838380828437600081840152601f19601f82011690508083019250505050505050919291929050505061644a565b005b348015611eea57600080fd5b50611f6060048036036060811015611f0157600080fd5b81019080803573ffffffffffffffffffffffffffffffffffffffff1690602001909291908035906020019092919080357bffffffffffffffffffffffffffffffffffffffffffffffffffffffff191690602001909291905050506165ee565b005b348015611f6e57600080fd5b50611fa560048036036040811015611f8557600080fd5b810190808035906020019092919080359060200190929190505050616c59565b604051808273ffffffffffffffffffffffffffffffffffffffff1673ffffffffffffffffffffffffffffffffffffffff16815260200191505060405180910390f35b348015611ff357600080fd5b5061202a6004803603604081101561200a57600080fd5b810190808035906020019092919080359060200190929190505050616c9b565b604051808273ffffffffffffffffffffffffffffffffffffffff1673ffffffffffffffffffffffffffffffffffffffff16815260200191505060405180910390f35b34801561207857600080fd5b506120a56004803603602081101561208f57600080fd5b8101908080359060200190929190505050616cdd565b604051808273ffffffffffffffffffffffffffffffffffffffff1673ffffffffffffffffffffffffffffffffffffffff16815260200191505060405180910390f35b3480156120f357600080fd5b506121206004803603602081101561210a57600080fd5b8101908080359060200190929190505050616d10565b604051808273ffffffffffffffffffffffffffffffffffffffff1673ffffffffffffffffffffffffffffffffffffffff16815260200191505060405180910390f35b34801561216e57600080fd5b506121b16004803603602081101561218557600080fd5b81019080803573ffffffffffffffffffffffffffffffffffffffff169060200190929190505050616d4e565b005b3480156121bf57600080fd5b50612202600480360360208110156121d657600080fd5b81019080803573ffffffffffffffffffffffffffffffffffffffff169060200190929190505050616f93565b604051808681526020018573ffffffffffffffffffffffffffffffffffffffff1673ffffffffffffffffffffffffffffffffffffffff1681526020018473ffffffffffffffffffffffffffffffffffffffff1673ffffffffffffffffffffffffffffffffffffffff168152602001838152602001827bffffffffffffffffffffffffffffffffffffffffffffffffffffffff19167bffffffffffffffffffffffffffffffffffffffffffffffffffffffff191681526020019550505050505060405180910390f35b3480156122d657600080fd5b506122df617032565b604051808273ffffffffffffffffffffffffffffffffffffffff1673ffffffffffffffffffffffffffffffffffffffff16815260200191505060405180910390f35b34801561232d57600080fd5b50612336617058565b604051808273ffffffffffffffffffffffffffffffffffffffff1673ffffffffffffffffffffffffffffffffffffffff16815260200191505060405180910390f35b34801561238457600080fd5b5061241a6004803603608081101561239b57600080fd5b81019080803573ffffffffffffffffffffffffffffffffffffffff169060200190929190803573ffffffffffffffffffffffffffffffffffffffff1690602001909291908035906020019092919080357bffffffffffffffffffffffffffffffffffffffffffffffffffffffff1916906020019092919050505061707e565b005b34801561242857600080fd5b506124556004803603602081101561243f57600080fd5b8101908080359060200190929190505050617265565b6040518082815260200191505060405180910390f35b34801561247757600080fd5b506124c46004803603604081101561248e57600080fd5b81019080803573ffffffffffffffffffffffffffffffffffffffff1690602001909291908035906020019092919050505061727d565b005b3480156124d257600080fd5b506125ac600480360360408110156124e957600080fd5b810190808035906020019064010000000081111561250657600080fd5b82018360208201111561251857600080fd5b8035906020019184600183028401116401000000008311171561253a57600080fd5b91908080601f016020809104026020016040519081016040528093929190818152602001838380828437600081840152601f19601f820116905080830192505050505050509192919290803573ffffffffffffffffffffffffffffffffffffffff16906020019092919050505061770c565b604051808215151515815260200191505060405180910390f35b3480156125d257600080fd5b5061261f600480360360408110156125e957600080fd5b81019080803573ffffffffffffffffffffffffffffffffffffffff169060200190929190803590602001909291905050506177ff565b6040518082815260200191505060405180910390f35b34801561264157600080fd5b506126fb6004803603602081101561265857600080fd5b810190808035906020019064010000000081111561267557600080fd5b82018360208201111561268757600080fd5b803590602001918460018302840111640100000000831117156126a957600080fd5b91908080601f016020809104026020016040519081016040528093929190818152602001838380828437600081840152601f19601f820116905080830192505050505050509192919290505050617921565b6040518082815260200191505060405180910390f35b34801561271d57600080fd5b5061276a6004803603604081101561273457600080fd5b8101908080359060200190929190803573ffffffffffffffffffffffffffffffffffffffff1690602001909291905050506179c9565b604051808215151515815260200191505060405180910390f35b34801561279057600080fd5b506127d3600480360360208110156127a757600080fd5b81019080803573ffffffffffffffffffffffffffffffffffffffff1690602001909291905050506179f8565b005b3480156127e157600080fd5b50612824600480360360208110156127f857600080fd5b81019080803573ffffffffffffffffffffffffffffffffffffffff169060200190929190505050617b1f565b005b34801561283257600080fd5b506128ec6004803603602081101561284957600080fd5b810190808035906020019064010000000081111561286657600080fd5b82018360208201111561287857600080fd5b8035906020019184600183028401116401000000008311171561289a57600080fd5b91908080601f016020809104026020016040519081016040528093929190818152602001838380828437600081840152601f19601f820116905080830192505050505050509192919290505050617c50565b604051808273ffffffffffffffffffffffffffffffffffffffff1673ffffffffffffffffffffffffffffffffffffffff16815260200191505060405180910390f35b600a6020528060005260406000206000915090505481565b61294e61511d565b73ffffffffffffffffffffffffffffffffffffffff163373ffffffffffffffffffffffffffffffffffffffff16141580156129d35750600660003373ffffffffffffffffffffffffffffffffffffffff1673ffffffffffffffffffffffffffffffffffffffff16815260200190815260200160002060009054906101000a900460ff16155b8015612a295750600560003373ffffffffffffffffffffffffffffffffffffffff1673ffffffffffffffffffffffffffffffffffffffff16815260200190815260200160002060009054906101000a900460ff16155b15612a3357600080fd5b8060196000846040516020018080602001828103825283818151815260200191508051906020019080838360005b83811015612a7c578082015181840152602081019050612a61565b50505050905090810190601f168015612aa95780820380516001836020036101000a031916815260200191505b5092505050604051602081830303815290604052805190602001208152602001908152602001600020819055505050565b5050565b60015481565b600c6020528160005260406000206020528060005260406000206000915091509054906101000a900473ffffffffffffffffffffffffffffffffffffffff1681565b600060096000856040516020018080602001828103825283818151815260200191508051906020019080838360005b83811015612b70578082015181840152602081019050612b55565b50505050905090810190601f168015612b9d5780820380516001836020036101000a031916815260200191505b509250505060405160208183030381529060405280519060200120815260200190815260200160002060008473ffffffffffffffffffffffffffffffffffffffff1673ffffffffffffffffffffffffffffffffffffffff16815260200190815260200160002060008373ffffffffffffffffffffffffffffffffffffffff1673ffffffffffffffffffffffffffffffffffffffff1681526020019081526020016000205490509392505050565b612c5261511d565b73ffffffffffffffffffffffffffffffffffffffff163373ffffffffffffffffffffffffffffffffffffffff1614158015612cd75750600660003373ffffffffffffffffffffffffffffffffffffffff1673ffffffffffffffffffffffffffffffffffffffff16815260200190815260200160002060009054906101000a900460ff16155b8015612d2d5750600560003373ffffffffffffffffffffffffffffffffffffffff1673ffffffffffffffffffffffffffffffffffffffff16815260200190815260200160002060009054906101000a900460ff16155b15612d3757600080fd5b6000836040516020018080602001828103825283818151815260200191508051906020019080838360005b83811015612d7d578082015181840152602081019050612d62565b50505050905090810190601f168015612daa5780820380516001836020036101000a031916815260200191505b50925050506040516020818303038152906040528051906020012090506013600082815260200190815260200160002060008473ffffffffffffffffffffffffffffffffffffffff1673ffffffffffffffffffffffffffffffffffffffff16815260200190815260200160002060009054906101000a900460ff161515612f3c576000601260008381526020019081526020016000205490508360146000848152602001908152602001600020600083815260200190815260200160002060006101000a81548173ffffffffffffffffffffffffffffffffffffffff021916908373ffffffffffffffffffffffffffffffffffffffff160217905550612eba600182617d1890919063ffffffff16565b601260008481526020019081526020016000208190555060016013600084815260200190815260200160002060008673ffffffffffffffffffffffffffffffffffffffff1673ffffffffffffffffffffffffffffffffffffffff16815260200190815260200160002060006101000a81548160ff021916908315150217905550505b816011600083815260200190815260200160002060008573ffffffffffffffffffffffffffffffffffffffff1673ffffffffffffffffffffffffffffffffffffffff1681526020019081526020016000208190555050505050565b612f9f61511d565b73ffffffffffffffffffffffffffffffffffffffff163373ffffffffffffffffffffffffffffffffffffffff16141580156130245750600660003373ffffffffffffffffffffffffffffffffffffffff1673ffffffffffffffffffffffffffffffffffffffff16815260200190815260200160002060009054906101000a900460ff16155b801561307a5750600560003373ffffffffffffffffffffffffffffffffffffffff1673ffffffffffffffffffffffffffffffffffffffff16815260200190815260200160002060009054906101000a900460ff16155b1561308457600080fd5b80601a6000846040516020018080602001828103825283818151815260200191508051906020019080838360005b838110156130cd5780820151818401526020810190506130b2565b50505050905090810190601f1680156130fa5780820380516001836020036101000a031916815260200191505b5092505050604051602081830303815290604052805190602001208152602001908152602001600020819055505050565b61313361511d565b73ffffffffffffffffffffffffffffffffffffffff163373ffffffffffffffffffffffffffffffffffffffff16141580156131b85750600660003373ffffffffffffffffffffffffffffffffffffffff1673ffffffffffffffffffffffffffffffffffffffff16815260200190815260200160002060009054906101000a900460ff16155b156131c257600080fd5b6000600560008373ffffffffffffffffffffffffffffffffffffffff1673ffffffffffffffffffffffffffffffffffffffff16815260200190815260200160002060006101000a81548160ff0219169083151502179055508073ffffffffffffffffffffffffffffffffffffffff167f753f40ca3312b2408759a67875b367955e7baa221daf08aa3d643d96202ac12b60405160405180910390a250565b600f602052826000526040600020602052816000526040600020602052806000526040600020600092509250509054906101000a900473ffffffffffffffffffffffffffffffffffffffff1681565b6132b761511d565b73ffffffffffffffffffffffffffffffffffffffff163373ffffffffffffffffffffffffffffffffffffffff161415801561333c5750600660003373ffffffffffffffffffffffffffffffffffffffff1673ffffffffffffffffffffffffffffffffffffffff16815260200190815260200160002060009054906101000a900460ff16155b80156133925750600560003373ffffffffffffffffffffffffffffffffffffffff1673ffffffffffffffffffffffffffffffffffffffff16815260200190815260200160002060009054906101000a900460ff16155b1561339c57600080fd5b6000846040516020018080602001828103825283818151815260200191508051906020019080838360005b838110156133e25780820151818401526020810190506133c7565b50505050905090810190601f16801561340f5780820380516001836020036101000a031916815260200191505b50925050506040516020818303038152906040528051906020012090506000600a60008381526020019081526020016000205490506000600d600084815260200190815260200160002060008773ffffffffffffffffffffffffffffffffffffffff1673ffffffffffffffffffffffffffffffffffffffff168152602001908152602001600020549050600e600084815260200190815260200160002060008773ffffffffffffffffffffffffffffffffffffffff1673ffffffffffffffffffffffffffffffffffffffff16815260200190815260200160002060008673ffffffffffffffffffffffffffffffffffffffff1673ffffffffffffffffffffffffffffffffffffffff16815260200190815260200160002060009054906101000a900460ff1615156138455784600f600085815260200190815260200160002060008873ffffffffffffffffffffffffffffffffffffffff1673ffffffffffffffffffffffffffffffffffffffff168152602001908152602001600020600083815260200190815260200160002060006101000a81548173ffffffffffffffffffffffffffffffffffffffff021916908373ffffffffffffffffffffffffffffffffffffffff1602179055506135ee600182617d1890919063ffffffff16565b600d600085815260200190815260200160002060008873ffffffffffffffffffffffffffffffffffffffff1673ffffffffffffffffffffffffffffffffffffffff168152602001908152602001600020819055506001600e600085815260200190815260200160002060008873ffffffffffffffffffffffffffffffffffffffff1673ffffffffffffffffffffffffffffffffffffffff16815260200190815260200160002060008773ffffffffffffffffffffffffffffffffffffffff1673ffffffffffffffffffffffffffffffffffffffff16815260200190815260200160002060006101000a81548160ff021916908315150217905550600b600084815260200190815260200160002060008773ffffffffffffffffffffffffffffffffffffffff1673ffffffffffffffffffffffffffffffffffffffff16815260200190815260200160002060009054906101000a900460ff1615156138445785600c6000858152602001908152602001600020600084815260200190815260200160002060006101000a81548173ffffffffffffffffffffffffffffffffffffffff021916908373ffffffffffffffffffffffffffffffffffffffff1602179055506137c3600183617d1890919063ffffffff16565b600a6000858152602001908152602001600020819055506001600b600085815260200190815260200160002060008873ffffffffffffffffffffffffffffffffffffffff1673ffffffffffffffffffffffffffffffffffffffff16815260200190815260200160002060006101000a81548160ff0219169083151502179055505b5b836009600085815260200190815260200160002060008873ffffffffffffffffffffffffffffffffffffffff1673ffffffffffffffffffffffffffffffffffffffff16815260200190815260200160002060008773ffffffffffffffffffffffffffffffffffffffff1673ffffffffffffffffffffffffffffffffffffffff1681526020019081526020016000208190555050505050505050565b7f3de6942a798d68cf19b2bb7207cacf6c331a8fc7806b0f420977489c636d370c81604051808273ffffffffffffffffffffffffffffffffffffffff1673ffffffffffffffffffffffffffffffffffffffff16815260200191505060405180910390a150565b6000602a60009054906101000a900473ffffffffffffffffffffffffffffffffffffffff1690506000602c60009054906101000a900473ffffffffffffffffffffffffffffffffffffffff16905083602f54118015613aa457506000848273ffffffffffffffffffffffffffffffffffffffff1663663e91f2886040518263ffffffff167c0100000000000000000000000000000000000000000000000000000000028152600401808273ffffffffffffffffffffffffffffffffffffffff1673ffffffffffffffffffffffffffffffffffffffff168152602001807f4554480000000000000000000000000000000000000000000000000000000000815250602001915050602060405180830381600087803b158015613a6657600080fd5b505af1158015613a7a573d6000803e3d6000fd5b505050506040513d6020811015613a9057600080fd5b810190808051906020019092919050505003115b8015613ab15750602d5483145b1515613abc57600080fd5b60006127106064602e5401602b5460640360295488020202811515613add57fe5b04905084602f600082825403925050819055508273ffffffffffffffffffffffffffffffffffffffff1663a9059cbb87836040518363ffffffff167c0100000000000000000000000000000000000000000000000000000000028152600401808373ffffffffffffffffffffffffffffffffffffffff1673ffffffffffffffffffffffffffffffffffffffff16815260200182815260200192505050602060405180830381600087803b158015613b9357600080fd5b505af1158015613ba7573d6000803e3d6000fd5b505050506040513d6020811015613bbd57600080fd5b8101908080519060200190929190505050508173ffffffffffffffffffffffffffffffffffffffff16634e6091f387876040518363ffffffff167c0100000000000000000000000000000000000000000000000000000000028152600401808373ffffffffffffffffffffffffffffffffffffffff1673ffffffffffffffffffffffffffffffffffffffff168152602001807f455448000000000000000000000000000000000000000000000000000000000081525060200182815260200192505050600060405180830381600087803b158015613c9a57600080fd5b505af1158015613cae573d6000803e3d6000fd5b505050508173ffffffffffffffffffffffffffffffffffffffff16634e6091f387836040518363ffffffff167c0100000000000000000000000000000000000000000000000000000000028152600401808373ffffffffffffffffffffffffffffffffffffffff1673ffffffffffffffffffffffffffffffffffffffff168152602001807f414e47000000000000000000000000000000000000000000000000000000000081525060200182815260200192505050600060405180830381600087803b158015613d7d57600080fd5b505af1158015613d91573d6000803e3d6000fd5b505050507f0c7c369f5fed41a326fd0a7f48eb4fd51dfe3ab2ca5d1fda279a1680000aaf218682604051808373ffffffffffffffffffffffffffffffffffffffff1673ffffffffffffffffffffffffffffffffffffffff1681526020018281526020019250505060405180910390a1505050505050565b60036020528060005260406000206000915054906101000a900473ffffffffffffffffffffffffffffffffffffffff1681565b613e4361511d565b73ffffffffffffffffffffffffffffffffffffffff163373ffffffffffffffffffffffffffffffffffffffff1614158015613ec85750600660003373ffffffffffffffffffffffffffffffffffffffff1673ffffffffffffffffffffffffffffffffffffffff16815260200190815260200160002060009054906101000a900460ff16155b8015613f1e5750600560003373ffffffffffffffffffffffffffffffffffffffff1673ffffffffffffffffffffffffffffffffffffffff16815260200190815260200160002060009054906101000a900460ff16155b15613f2857600080fd5b80601d6000846040516020018080602001828103825283818151815260200191508051906020019080838360005b83811015613f71578082015181840152602081019050613f56565b50505050905090810190601f168015613f9e5780820380516001836020036101000a031916815260200191505b509250505060405160208183030381529060405280519060200120815260200190815260200160002060006101000a81548160ff0219169083151502179055505050565b600080600790505b60008110151561413a576000839050602060008573ffffffffffffffffffffffffffffffffffffffff1673ffffffffffffffffffffffffffffffffffffffff1681526020019081526020016000208260088110151561404557fe5b01548173ffffffffffffffffffffffffffffffffffffffff166370a08231336040518263ffffffff167c0100000000000000000000000000000000000000000000000000000000028152600401808273ffffffffffffffffffffffffffffffffffffffff1673ffffffffffffffffffffffffffffffffffffffff16815260200191505060206040518083038186803b1580156140e057600080fd5b505afa1580156140f4573d6000803e3d6000fd5b505050506040513d602081101561410a57600080fd5b8101908080519060200190929190505050111561412b578192505050614140565b50808060019003915050613fea565b50600090505b919050565b61414d61511d565b73ffffffffffffffffffffffffffffffffffffffff163373ffffffffffffffffffffffffffffffffffffffff16141580156141d25750600660003373ffffffffffffffffffffffffffffffffffffffff1673ffffffffffffffffffffffffffffffffffffffff16815260200190815260200160002060009054906101000a900460ff16155b80156142285750600560003373ffffffffffffffffffffffffffffffffffffffff1673ffffffffffffffffffffffffffffffffffffffff16815260200190815260200160002060009054906101000a900460ff16155b1561423257600080fd5b80601b6000846040516020018080602001828103825283818151815260200191508051906020019080838360005b8381101561427b578082015181840152602081019050614260565b50505050905090810190601f1680156142a85780820380516001836020036101000a031916815260200191505b509250505060405160208183030381529060405280519060200120815260200190815260200160002060006101000a81548173ffffffffffffffffffffffffffffffffffffffff021916908373ffffffffffffffffffffffffffffffffffffffff1602179055505050565b60056020528060005260406000206000915054906101000a900460ff1681565b600e602052826000526040600020602052816000526040600020602052806000526040600020600092509250509054906101000a900460ff1681565b61437761511d565b73ffffffffffffffffffffffffffffffffffffffff163373ffffffffffffffffffffffffffffffffffffffff161415156143b057600080fd5b6000600660008373ffffffffffffffffffffffffffffffffffffffff1673ffffffffffffffffffffffffffffffffffffffff16815260200190815260200160002060006101000a81548160ff0219169083151502179055508073ffffffffffffffffffffffffffffffffffffffff167f1aaaaf7609619e631f47eb3546f9fdd8c61b1af2175988a0ddb9a06680c3b9ed60405160405180910390a250565b602560009054906101000a900473ffffffffffffffffffffffffffffffffffffffff1673ffffffffffffffffffffffffffffffffffffffff16634e6091f38484846040518463ffffffff167c0100000000000000000000000000000000000000000000000000000000028152600401808473ffffffffffffffffffffffffffffffffffffffff1673ffffffffffffffffffffffffffffffffffffffff1681526020018381526020018281526020019350505050600060405180830381600087803b15801561451b57600080fd5b505af115801561452f573d6000803e3d6000fd5b50505050505050565b600060196000836040516020018080602001828103825283818151815260200191508051906020019080838360005b83811015614582578082015181840152602081019050614567565b50505050905090810190601f1680156145af5780820380516001836020036101000a031916815260200191505b5092505050604051602081830303815290604052805190602001208152602001908152602001600020549050919050565b600060126000836040516020018080602001828103825283818151815260200191508051906020019080838360005b8381101561462a57808201518184015260208101905061460f565b50505050905090810190601f1680156146575780820380516001836020036101000a031916815260200191505b5092505050604051602081830303815290604052805190602001208152602001908152602001600020549050919050565b61469061511d565b73ffffffffffffffffffffffffffffffffffffffff163373ffffffffffffffffffffffffffffffffffffffff161415156146c957600080fd5b6146d281617d36565b50565b600080602560009054906101000a900473ffffffffffffffffffffffffffffffffffffffff1673ffffffffffffffffffffffffffffffffffffffff1663192ebb5285856040518363ffffffff167c0100000000000000000000000000000000000000000000000000000000028152600401808373ffffffffffffffffffffffffffffffffffffffff1673ffffffffffffffffffffffffffffffffffffffff16815260200182815260200192505050602060405180830381600087803b15801561479d57600080fd5b505af11580156147b1573d6000803e3d6000fd5b505050506040513d60208110156147c757600080fd5b810190808051906020019092919050505090508091505092915050565b6147ec61511d565b73ffffffffffffffffffffffffffffffffffffffff163373ffffffffffffffffffffffffffffffffffffffff16141580156148715750600660003373ffffffffffffffffffffffffffffffffffffffff1673ffffffffffffffffffffffffffffffffffffffff16815260200190815260200160002060009054906101000a900460ff16155b80156148c75750600560003373ffffffffffffffffffffffffffffffffffffffff1673ffffffffffffffffffffffffffffffffffffffff16815260200190815260200160002060009054906101000a900460ff16155b156148d157600080fd5b602560009054906101000a900473ffffffffffffffffffffffffffffffffffffffff1673ffffffffffffffffffffffffffffffffffffffff16636ae923c88484846040518463ffffffff167c0100000000000000000000000000000000000000000000000000000000028152600401808473ffffffffffffffffffffffffffffffffffffffff1673ffffffffffffffffffffffffffffffffffffffff1681526020018381526020018281526020019350505050600060405180830381600087803b15801561499e57600080fd5b505af11580156149b2573d6000803e3d6000fd5b50505050505050565b6060601c6000836040516020018080602001828103825283818151815260200191508051906020019080838360005b83811015614a055780820151818401526020810190506149ea565b50505050905090810190601f168015614a325780820380516001836020036101000a031916815260200191505b50925050506040516020818303038152906040528051906020012081526020019081526020016000208054600181600116156101000203166002900480601f016020809104026020016040519081016040528092919081815260200182805460018160011615610100020316600290048015614aef5780601f10614ac457610100808354040283529160200191614aef565b820191906000526020600020905b815481529060010190602001808311614ad257829003601f168201915b50505050509050919050565b614b0361511d565b73ffffffffffffffffffffffffffffffffffffffff163373ffffffffffffffffffffffffffffffffffffffff1614158015614b885750600660003373ffffffffffffffffffffffffffffffffffffffff1673ffffffffffffffffffffffffffffffffffffffff16815260200190815260200160002060009054906101000a900460ff16155b15614b9257600080fd5b6001600560008373ffffffffffffffffffffffffffffffffffffffff1673ffffffffffffffffffffffffffffffffffffffff16815260200190815260200160002060006101000a81548160ff021916908315150217905550600760008273ffffffffffffffffffffffffffffffffffffffff1673ffffffffffffffffffffffffffffffffffffffff16815260200190815260200160002060009054906101000a900460ff161515614d05576001600760008373ffffffffffffffffffffffffffffffffffffffff1673ffffffffffffffffffffffffffffffffffffffff16815260200190815260200160002060006101000a81548160ff0219169083151502179055508060036000600154815260200190815260200160002060006101000a81548173ffffffffffffffffffffffffffffffffffffffff021916908373ffffffffffffffffffffffffffffffffffffffff160217905550614cfe60018054617d1890919063ffffffff16565b6001819055505b8073ffffffffffffffffffffffffffffffffffffffff167fad6de4452a631e641cb59902236607946ce9272b9b981f2f80e8d129cb9084ba60405160405180910390a250565b600d602052816000526040600020602052806000526040600020600091509150505481565b6000602260008673ffffffffffffffffffffffffffffffffffffffff1673ffffffffffffffffffffffffffffffffffffffff16815260200190815260200160002060020160009054906101000a900473ffffffffffffffffffffffffffffffffffffffff1673ffffffffffffffffffffffffffffffffffffffff163373ffffffffffffffffffffffffffffffffffffffff16141515614e0e57600080fd5b600042905060008682604051602001808373ffffffffffffffffffffffffffffffffffffffff1673ffffffffffffffffffffffffffffffffffffffff166c0100000000000000000000000002815260140182815260200192505050604051602081830303815290604052805190602001209050816021600083815260200190815260200160002060050181905550602260008873ffffffffffffffffffffffffffffffffffffffff1673ffffffffffffffffffffffffffffffffffffffff1681526020019081526020016000206000015460216000838152602001908152602001600020600001819055508560216000838152602001908152602001600020600101819055508460216000838152602001908152602001600020600201819055508360216000838152602001908152602001600020600401819055508192505050949350505050565b6000601a6000836040516020018080602001828103825283818151815260200191508051906020019080838360005b83811015614fa1578082015181840152602081019050614f86565b50505050905090810190601f168015614fce5780820380516001836020036101000a031916815260200191505b5092505050604051602081830303815290604052805190602001208152602001908152602001600020549050919050565b60176020528160005260406000206020528060005260406000206000915091509054906101000a900460ff1681565b60166020528060005260406000206000915090505481565b600b6020528160005260406000206020528060005260406000206000915091509054906101000a900460ff1681565b6000601e6000836040516020018080602001828103825283818151815260200191508051906020019080838360005b838110156150bf5780820151818401526020810190506150a4565b50505050905090810190601f1680156150ec5780820380516001836020036101000a031916815260200191505b5092505050604051602081830303815290604052805190602001208152602001908152602001600020549050919050565b60008060009054906101000a900473ffffffffffffffffffffffffffffffffffffffff16905090565b6000601d6000836040516020018080602001828103825283818151815260200191508051906020019080838360005b83811015615190578082015181840152602081019050615175565b50505050905090810190601f1680156151bd5780820380516001836020036101000a031916815260200191505b509250505060405160208183030381529060405280519060200120815260200190815260200160002060009054906101000a900460ff169050919050565b61520361511d565b73ffffffffffffffffffffffffffffffffffffffff163373ffffffffffffffffffffffffffffffffffffffff16141580156152885750600660003373ffffffffffffffffffffffffffffffffffffffff1673ffffffffffffffffffffffffffffffffffffffff16815260200190815260200160002060009054906101000a900460ff16155b80156152de5750600560003373ffffffffffffffffffffffffffffffffffffffff1673ffffffffffffffffffffffffffffffffffffffff16815260200190815260200160002060009054906101000a900460ff16155b156152e857600080fd5b6152f0617f10565b604051809103906000f08015801561530c573d6000803e3d6000fd5b50602560006101000a81548173ffffffffffffffffffffffffffffffffffffffff021916908373ffffffffffffffffffffffffffffffffffffffff1602179055506000602460009054906101000a900473ffffffffffffffffffffffffffffffffffffffff1690508073ffffffffffffffffffffffffffffffffffffffff1663413c6d13306040518263ffffffff167c010000000000000000000000000000000000000000000000000000000002815260040180806020018373ffffffffffffffffffffffffffffffffffffffff1673ffffffffffffffffffffffffffffffffffffffff168152602001828103825260078152602001807f4b59432f4b59430000000000000000000000000000000000000000000000000081525060200192505050600060405180830381600087803b15801561544857600080fd5b505af115801561545c573d6000803e3d6000fd5b5050505050565b61546b61511d565b73ffffffffffffffffffffffffffffffffffffffff163373ffffffffffffffffffffffffffffffffffffffff16141580156154f05750600660003373ffffffffffffffffffffffffffffffffffffffff1673ffffffffffffffffffffffffffffffffffffffff16815260200190815260200160002060009054906101000a900460ff16155b80156155465750600560003373ffffffffffffffffffffffffffffffffffffffff1673ffffffffffffffffffffffffffffffffffffffff16815260200190815260200160002060009054906101000a900460ff16155b1561555057600080fd5b6000836040516020018080602001828103825283818151815260200191508051906020019080838360005b8381101561559657808201518184015260208101905061557b565b50505050905090810190601f1680156155c35780820380516001836020036101000a031916815260200191505b50925050506040516020818303038152906040528051906020012090506017600082815260200190815260200160002060008473ffffffffffffffffffffffffffffffffffffffff1673ffffffffffffffffffffffffffffffffffffffff16815260200190815260200160002060009054906101000a900460ff161515615755576000601660008381526020019081526020016000205490508360186000848152602001908152602001600020600083815260200190815260200160002060006101000a81548173ffffffffffffffffffffffffffffffffffffffff021916908373ffffffffffffffffffffffffffffffffffffffff1602179055506156d3600182617d1890919063ffffffff16565b601660008481526020019081526020016000208190555060016017600084815260200190815260200160002060008673ffffffffffffffffffffffffffffffffffffffff1673ffffffffffffffffffffffffffffffffffffffff16815260200190815260200160002060006101000a81548160ff021916908315150217905550505b816015600083815260200190815260200160002060008573ffffffffffffffffffffffffffffffffffffffff1673ffffffffffffffffffffffffffffffffffffffff16815260200190815260200160002060006101000a81548160ff02191690831515021790555050505050565b6000602860009054906101000a900473ffffffffffffffffffffffffffffffffffffffff1690508073ffffffffffffffffffffffffffffffffffffffff1663fd2556836040518163ffffffff167c01000000000000000000000000000000000000000000000000000000000281526004018080602001828103825260088152602001807f414e47746f6b656e00000000000000000000000000000000000000000000000081525060200191505060206040518083038186803b15801561588857600080fd5b505afa15801561589c573d6000803e3d6000fd5b505050506040513d60208110156158b257600080fd5b8101908080519060200190929190505050602a60006101000a81548173ffffffffffffffffffffffffffffffffffffffff021916908373ffffffffffffffffffffffffffffffffffffffff1602179055508073ffffffffffffffffffffffffffffffffffffffff16634f1612456040518163ffffffff167c01000000000000000000000000000000000000000000000000000000000281526004018080602001828103825260108152602001807f414e47746f6b656e73726174654554480000000000000000000000000000000081525060200191505060206040518083038186803b1580156159a157600080fd5b505afa1580156159b5573d6000803e3d6000fd5b505050506040513d60208110156159cb57600080fd5b81019080805190602001909291905050506029819055508073ffffffffffffffffffffffffffffffffffffffff16634f1612456040518163ffffffff167c010000000000000000000000000000000000000000000000000000000002815260040180806020018281038252600d8152602001807f414e4770657263656e743130300000000000000000000000000000000000000081525060200191505060206040518083038186803b158015615a8057600080fd5b505afa158015615a94573d6000803e3d6000fd5b505050506040513d6020811015615aaa57600080fd5b8101908080519060200190929190505050602b819055508073ffffffffffffffffffffffffffffffffffffffff1663fd2556836040518163ffffffff167c01000000000000000000000000000000000000000000000000000000000281526004018080602001828103825260078152602001807f4b59432f4b59430000000000000000000000000000000000000000000000000081525060200191505060206040518083038186803b158015615b5f57600080fd5b505afa158015615b73573d6000803e3d6000fd5b505050506040513d6020811015615b8957600080fd5b8101908080519060200190929190505050602c60006101000a81548173ffffffffffffffffffffffffffffffffffffffff021916908373ffffffffffffffffffffffffffffffffffffffff1602179055508073ffffffffffffffffffffffffffffffffffffffff16637ec139966040518163ffffffff167c01000000000000000000000000000000000000000000000000000000000281526004018080602001828103825260178152602001807f746f6b656e73616c652f646973636f756e745f776f726400000000000000000081525060200191505060206040518083038186803b158015615c7857600080fd5b505afa158015615c8c573d6000803e3d6000fd5b505050506040513d6020811015615ca257600080fd5b8101908080519060200190929190505050602d819055508073ffffffffffffffffffffffffffffffffffffffff16634f1612456040518163ffffffff167c01000000000000000000000000000000000000000000000000000000000281526004018080602001828103825260178152602001807f746f6b656e73616c652f646973636f756e745f73697a6500000000000000000081525060200191505060206040518083038186803b158015615d5757600080fd5b505afa158015615d6b573d6000803e3d6000fd5b505050506040513d6020811015615d8157600080fd5b8101908080519060200190929190505050602e819055508073ffffffffffffffffffffffffffffffffffffffff16634f1612456040518163ffffffff167c01000000000000000000000000000000000000000000000000000000000281526004018080602001828103825260198152602001807f746f6b656e73616c652f646973636f756e745f616d6f756e740000000000000081525060200191505060206040518083038186803b158015615e3657600080fd5b505afa158015615e4a573d6000803e3d6000fd5b505050506040513d6020811015615e6057600080fd5b8101908080519060200190929190505050602f8190555050565b600060116000846040516020018080602001828103825283818151815260200191508051906020019080838360005b83811015615ec4578082015181840152602081019050615ea9565b50505050905090810190601f168015615ef15780820380516001836020036101000a031916815260200191505b509250505060405160208183030381529060405280519060200120815260200190815260200160002060008373ffffffffffffffffffffffffffffffffffffffff1673ffffffffffffffffffffffffffffffffffffffff16815260200190815260200160002054905092915050565b615f6861511d565b73ffffffffffffffffffffffffffffffffffffffff163373ffffffffffffffffffffffffffffffffffffffff1614158015615fed5750600660003373ffffffffffffffffffffffffffffffffffffffff1673ffffffffffffffffffffffffffffffffffffffff16815260200190815260200160002060009054906101000a900460ff16155b80156160435750600560003373ffffffffffffffffffffffffffffffffffffffff1673ffffffffffffffffffffffffffffffffffffffff16815260200190815260200160002060009054906101000a900460ff16155b1561604d57600080fd5b80601e6000846040516020018080602001828103825283818151815260200191508051906020019080838360005b8381101561609657808201518184015260208101905061607b565b50505050905090810190601f1680156160c35780820380516001836020036101000a031916815260200191505b5092505050604051602081830303815290604052805190602001208152602001908152602001600020819055505050565b60025481565b60066020528060005260406000206000915054906101000a900460ff1681565b6010602052816000526040600020602052806000526040600020600091509150508060000154908060010154905082565b823373ffffffffffffffffffffffffffffffffffffffff16602260008373ffffffffffffffffffffffffffffffffffffffff1673ffffffffffffffffffffffffffffffffffffffff16815260200190815260200160002060010160009054906101000a900473ffffffffffffffffffffffffffffffffffffffff1673ffffffffffffffffffffffffffffffffffffffff161415156161e857600080fd5b6008831015156161f757600080fd5b81602060008673ffffffffffffffffffffffffffffffffffffffff1673ffffffffffffffffffffffffffffffffffffffff1681526020019081526020016000208460088110151561624457fe5b018190555050505050565b61625761511d565b73ffffffffffffffffffffffffffffffffffffffff163373ffffffffffffffffffffffffffffffffffffffff1614151561629057600080fd5b6001600660008373ffffffffffffffffffffffffffffffffffffffff1673ffffffffffffffffffffffffffffffffffffffff16815260200190815260200160002060006101000a81548160ff021916908315150217905550600860008273ffffffffffffffffffffffffffffffffffffffff1673ffffffffffffffffffffffffffffffffffffffff16815260200190815260200160002060009054906101000a900460ff161515616404576001600860008373ffffffffffffffffffffffffffffffffffffffff1673ffffffffffffffffffffffffffffffffffffffff16815260200190815260200160002060006101000a81548160ff0219169083151502179055508060046000600254815260200190815260200160002060006101000a81548173ffffffffffffffffffffffffffffffffffffffff021916908373ffffffffffffffffffffffffffffffffffffffff1602179055506163fd6001600254617d1890919063ffffffff16565b6002819055505b8073ffffffffffffffffffffffffffffffffffffffff167ffba24c034afca607a35e1f221b154b3f8e1f88c7924c8a0a06755b70708c44d860405160405180910390a250565b61645261511d565b73ffffffffffffffffffffffffffffffffffffffff163373ffffffffffffffffffffffffffffffffffffffff16141580156164d75750600660003373ffffffffffffffffffffffffffffffffffffffff1673ffffffffffffffffffffffffffffffffffffffff16815260200190815260200160002060009054906101000a900460ff16155b801561652d5750600560003373ffffffffffffffffffffffffffffffffffffffff1673ffffffffffffffffffffffffffffffffffffffff16815260200190815260200160002060009054906101000a900460ff16155b1561653757600080fd5b80601c6000846040516020018080602001828103825283818151815260200191508051906020019080838360005b83811015616580578082015181840152602081019050616565565b50505050905090810190601f1680156165ad5780820380516001836020036101000a031916815260200191505b509250505060405160208183030381529060405280519060200120815260200190815260200160002090805190602001906165e9929190617f20565b505050565b823373ffffffffffffffffffffffffffffffffffffffff16602260008373ffffffffffffffffffffffffffffffffffffffff1673ffffffffffffffffffffffffffffffffffffffff16815260200190815260200160002060010160009054906101000a900473ffffffffffffffffffffffffffffffffffffffff1673ffffffffffffffffffffffffffffffffffffffff1614151561668b57600080fd5b6000601f60009054906101000a900473ffffffffffffffffffffffffffffffffffffffff16905060008173ffffffffffffffffffffffffffffffffffffffff1663fd2556836040518163ffffffff167c010000000000000000000000000000000000000000000000000000000002815260040180806020018281038252600f8152602001807f414e475f73797374656d5f61646472000000000000000000000000000000000081525060200191505060206040518083038186803b15801561675257600080fd5b505afa158015616766573d6000803e3d6000fd5b505050506040513d602081101561677c57600080fd5b8101908080519060200190929190505050905060008273ffffffffffffffffffffffffffffffffffffffff16634f1612456040518163ffffffff167c010000000000000000000000000000000000000000000000000000000002815260040180806020018281038252600c8152602001807f6f75725f7368617265313030000000000000000000000000000000000000000081525060200191505060206040518083038186803b15801561682f57600080fd5b505afa158015616843573d6000803e3d6000fd5b505050506040513d602081101561685957600080fd5b81019080805190602001909291905050509050616877878383617d79565b151561688257600080fd5b33602260008973ffffffffffffffffffffffffffffffffffffffff1673ffffffffffffffffffffffffffffffffffffffff16815260200190815260200160002060010160006101000a81548173ffffffffffffffffffffffffffffffffffffffff021916908373ffffffffffffffffffffffffffffffffffffffff16021790555085602260008973ffffffffffffffffffffffffffffffffffffffff1673ffffffffffffffffffffffffffffffffffffffff1681526020019081526020016000206003018190555084602260008973ffffffffffffffffffffffffffffffffffffffff1673ffffffffffffffffffffffffffffffffffffffff16815260200190815260200160002060040160006101000a81548163ffffffff02191690837c01000000000000000000000000000000000000000000000000000000009004021790555060238790806001815401808255809150509060018203906000526020600020016000909192909190916101000a81548173ffffffffffffffffffffffffffffffffffffffff021916908373ffffffffffffffffffffffffffffffffffffffff16021790555050602380549050602260008973ffffffffffffffffffffffffffffffffffffffff1673ffffffffffffffffffffffffffffffffffffffff168152602001908152602001600020600001819055507f5af8025d6adb7569fd240c526c29e6dd2279a32d84fda1f040d2c64ad2dae27b602260008973ffffffffffffffffffffffffffffffffffffffff1673ffffffffffffffffffffffffffffffffffffffff16815260200190815260200160002060010160009054906101000a900473ffffffffffffffffffffffffffffffffffffffff1688602260008b73ffffffffffffffffffffffffffffffffffffffff1673ffffffffffffffffffffffffffffffffffffffff16815260200190815260200160002060030154602260008c73ffffffffffffffffffffffffffffffffffffffff1673ffffffffffffffffffffffffffffffffffffffff16815260200190815260200160002060020160009054906101000a900473ffffffffffffffffffffffffffffffffffffffff16604051808573ffffffffffffffffffffffffffffffffffffffff1673ffffffffffffffffffffffffffffffffffffffff1681526020018473ffffffffffffffffffffffffffffffffffffffff1673ffffffffffffffffffffffffffffffffffffffff1681526020018381526020018273ffffffffffffffffffffffffffffffffffffffff1673ffffffffffffffffffffffffffffffffffffffff16815260200194505050505060405180910390a150505050505050565b60146020528160005260406000206020528060005260406000206000915091509054906101000a900473ffffffffffffffffffffffffffffffffffffffff1681565b60186020528160005260406000206020528060005260406000206000915091509054906101000a900473ffffffffffffffffffffffffffffffffffffffff1681565b60046020528060005260406000206000915054906101000a900473ffffffffffffffffffffffffffffffffffffffff1681565b602381815481101515616d1f57fe5b906000526020600020016000915054906101000a900473ffffffffffffffffffffffffffffffffffffffff1681565b616d5661511d565b73ffffffffffffffffffffffffffffffffffffffff163373ffffffffffffffffffffffffffffffffffffffff1614158015616ddb5750600660003373ffffffffffffffffffffffffffffffffffffffff1673ffffffffffffffffffffffffffffffffffffffff16815260200190815260200160002060009054906101000a900460ff16155b8015616e315750600560003373ffffffffffffffffffffffffffffffffffffffff1673ffffffffffffffffffffffffffffffffffffffff16815260200190815260200160002060009054906101000a900460ff16155b15616e3b57600080fd5b80602860006101000a81548173ffffffffffffffffffffffffffffffffffffffff021916908373ffffffffffffffffffffffffffffffffffffffff1602179055506000602860009054906101000a900473ffffffffffffffffffffffffffffffffffffffff1690508073ffffffffffffffffffffffffffffffffffffffff1663413c6d13306040518263ffffffff167c010000000000000000000000000000000000000000000000000000000002815260040180806020018373ffffffffffffffffffffffffffffffffffffffff1673ffffffffffffffffffffffffffffffffffffffff168152602001828103825260198152602001807f746f6b656e73616c652f45786368616e6765414e475f4554480000000000000081525060200192505050600060405180830381600087803b158015616f7757600080fd5b505af1158015616f8b573d6000803e3d6000fd5b505050505050565b60226020528060005260406000206000915090508060000154908060010160009054906101000a900473ffffffffffffffffffffffffffffffffffffffff16908060020160009054906101000a900473ffffffffffffffffffffffffffffffffffffffff16908060030154908060040160009054906101000a90047c010000000000000000000000000000000000000000000000000000000002905085565b602c60009054906101000a900473ffffffffffffffffffffffffffffffffffffffff1681565b602a60009054906101000a900473ffffffffffffffffffffffffffffffffffffffff1681565b833373ffffffffffffffffffffffffffffffffffffffff16602260008373ffffffffffffffffffffffffffffffffffffffff1673ffffffffffffffffffffffffffffffffffffffff16815260200190815260200160002060010160009054906101000a900473ffffffffffffffffffffffffffffffffffffffff1673ffffffffffffffffffffffffffffffffffffffff1614151561711b57600080fd5b83602260008773ffffffffffffffffffffffffffffffffffffffff1673ffffffffffffffffffffffffffffffffffffffff16815260200190815260200160002060010160006101000a81548173ffffffffffffffffffffffffffffffffffffffff021916908373ffffffffffffffffffffffffffffffffffffffff16021790555082602260008773ffffffffffffffffffffffffffffffffffffffff1673ffffffffffffffffffffffffffffffffffffffff1681526020019081526020016000206003018190555081602260008773ffffffffffffffffffffffffffffffffffffffff1673ffffffffffffffffffffffffffffffffffffffff16815260200190815260200160002060040160006101000a81548163ffffffff02191690837c0100000000000000000000000000000000000000000000000000000000900402179055505050505050565b60126020528060005260406000206000915090505481565b6000602a60009054906101000a900473ffffffffffffffffffffffffffffffffffffffff1690506000602c60009054906101000a900473ffffffffffffffffffffffffffffffffffffffff1690506000838273ffffffffffffffffffffffffffffffffffffffff1663663e91f2876040518263ffffffff167c0100000000000000000000000000000000000000000000000000000000028152600401808273ffffffffffffffffffffffffffffffffffffffff1673ffffffffffffffffffffffffffffffffffffffff168152602001807f4554480000000000000000000000000000000000000000000000000000000000815250602001915050602060405180830381600087803b15801561739157600080fd5b505af11580156173a5573d6000803e3d6000fd5b505050506040513d60208110156173bb57600080fd5b8101908080519060200190929190505050031115156173d957600080fd5b60006064602b546064036029548602028115156173f257fe5b0490508273ffffffffffffffffffffffffffffffffffffffff1663a9059cbb86836040518363ffffffff167c0100000000000000000000000000000000000000000000000000000000028152600401808373ffffffffffffffffffffffffffffffffffffffff1673ffffffffffffffffffffffffffffffffffffffff16815260200182815260200192505050602060405180830381600087803b15801561749857600080fd5b505af11580156174ac573d6000803e3d6000fd5b505050506040513d60208110156174c257600080fd5b8101908080519060200190929190505050508173ffffffffffffffffffffffffffffffffffffffff16634e6091f386866040518363ffffffff167c0100000000000000000000000000000000000000000000000000000000028152600401808373ffffffffffffffffffffffffffffffffffffffff1673ffffffffffffffffffffffffffffffffffffffff168152602001807f455448000000000000000000000000000000000000000000000000000000000081525060200182815260200192505050600060405180830381600087803b15801561759f57600080fd5b505af11580156175b3573d6000803e3d6000fd5b505050508173ffffffffffffffffffffffffffffffffffffffff16634e6091f386836040518363ffffffff167c0100000000000000000000000000000000000000000000000000000000028152600401808373ffffffffffffffffffffffffffffffffffffffff1673ffffffffffffffffffffffffffffffffffffffff168152602001807f414e47000000000000000000000000000000000000000000000000000000000081525060200182815260200192505050600060405180830381600087803b15801561768257600080fd5b505af1158015617696573d6000803e3d6000fd5b505050507f0c7c369f5fed41a326fd0a7f48eb4fd51dfe3ab2ca5d1fda279a1680000aaf218582604051808373ffffffffffffffffffffffffffffffffffffffff1673ffffffffffffffffffffffffffffffffffffffff1681526020018281526020019250505060405180910390a15050505050565b600060156000846040516020018080602001828103825283818151815260200191508051906020019080838360005b8381101561775657808201518184015260208101905061773b565b50505050905090810190601f1680156177835780820380516001836020036101000a031916815260200191505b509250505060405160208183030381529060405280519060200120815260200190815260200160002060008373ffffffffffffffffffffffffffffffffffffffff1673ffffffffffffffffffffffffffffffffffffffff16815260200190815260200160002060009054906101000a900460ff16905092915050565b60008061780b84613fe2565b111561789857602160008484604051602001808373ffffffffffffffffffffffffffffffffffffffff1673ffffffffffffffffffffffffffffffffffffffff166c010000000000000000000000000281526014018281526020019250505060405160208183030381529060405280519060200120815260200190815260200160002060010154905061791b565b602160008484604051602001808373ffffffffffffffffffffffffffffffffffffffff1673ffffffffffffffffffffffffffffffffffffffff166c01000000000000000000000000028152601401828152602001925050506040516020818303038152906040528051906020012081526020019081526020016000206004015490505b92915050565b600060166000836040516020018080602001828103825283818151815260200191508051906020019080838360005b8381101561796b578082015181840152602081019050617950565b50505050905090810190601f1680156179985780820380516001836020036101000a031916815260200191505b5092505050604051602081830303815290604052805190602001208152602001908152602001600020549050919050565b60136020528160005260406000206020528060005260406000206000915091509054906101000a900460ff1681565b617a0061511d565b73ffffffffffffffffffffffffffffffffffffffff163373ffffffffffffffffffffffffffffffffffffffff16141515617a3957600080fd5b600073ffffffffffffffffffffffffffffffffffffffff168173ffffffffffffffffffffffffffffffffffffffff1614151515617a7557600080fd5b7f8be0079c531659141344cd1fd0a4f28419497f9722a3daafe3b4186f6b6457e0617a9e61511d565b82604051808373ffffffffffffffffffffffffffffffffffffffff1673ffffffffffffffffffffffffffffffffffffffff1681526020018273ffffffffffffffffffffffffffffffffffffffff1673ffffffffffffffffffffffffffffffffffffffff1681526020019250505060405180910390a1617b1c81617d36565b50565b617b2761511d565b73ffffffffffffffffffffffffffffffffffffffff163373ffffffffffffffffffffffffffffffffffffffff1614158015617bac5750600660003373ffffffffffffffffffffffffffffffffffffffff1673ffffffffffffffffffffffffffffffffffffffff16815260200190815260200160002060009054906101000a900460ff16155b8015617c025750600560003373ffffffffffffffffffffffffffffffffffffffff1673ffffffffffffffffffffffffffffffffffffffff16815260200190815260200160002060009054906101000a900460ff16155b15617c0c57600080fd5b80602860006101000a81548173ffffffffffffffffffffffffffffffffffffffff021916908373ffffffffffffffffffffffffffffffffffffffff16021790555050565b6000601b6000836040516020018080602001828103825283818151815260200191508051906020019080838360005b83811015617c9a578082015181840152602081019050617c7f565b50505050905090810190601f168015617cc75780820380516001836020036101000a031916815260200191505b509250505060405160208183030381529060405280519060200120815260200190815260200160002060009054906101000a900473ffffffffffffffffffffffffffffffffffffffff169050919050565b6000808284019050838110151515617d2c57fe5b8091505092915050565b806000806101000a81548173ffffffffffffffffffffffffffffffffffffffff021916908373ffffffffffffffffffffffffffffffffffffffff16021790555050565b6000808473ffffffffffffffffffffffffffffffffffffffff166318160ddd6040518163ffffffff167c010000000000000000000000000000000000000000000000000000000002815260040160206040518083038186803b158015617dde57600080fd5b505afa158015617df2573d6000803e3d6000fd5b505050506040513d6020811015617e0857600080fd5b8101908080519060200190929190505050905060008573ffffffffffffffffffffffffffffffffffffffff166370a08231866040518263ffffffff167c0100000000000000000000000000000000000000000000000000000000028152600401808273ffffffffffffffffffffffffffffffffffffffff1673ffffffffffffffffffffffffffffffffffffffff16815260200191505060206040518083038186803b158015617eb657600080fd5b505afa158015617eca573d6000803e3d6000fd5b505050506040513d6020811015617ee057600080fd5b81019080805190602001909291905050509050806064858402811515617f0257fe5b041115925050509392505050565b60405161175880617fc683390190565b828054600181600116156101000203166002900490600052602060002090601f016020900481019282601f10617f6157805160ff1916838001178555617f8f565b82800160010185558215617f8f579182015b82811115617f8e578251825591602001919060010190617f73565b5b509050617f9c9190617fa0565b5090565b617fc291905b80821115617fbe576000816000905550600101617fa6565b5090565b9056fe6080604052671bc16d674ec80000600a5534801561001c57600080fd5b5061172c8061002c6000396000f3fe6080604052600436106100fc576000357c0100000000000000000000000000000000000000000000000000000000900463ffffffff1680630489882e146101015780631785f53c1461012c578063192ebb521461017d578063313f2a21146101ec578063429b62e5146102675780634902e4aa146102d05780634e6091f31461032157806364a04b59146103865780636ae923c8146103d7578063704802751461043c5780638da5cb5b1461048d5780639df152dc146104e4578063abf7b063146104fb578063ad25cb4214610526578063b3292ff01461058f578063c3894398146105e0578063c8bc04071461065b578063f2fde38b146106ac575b600080fd5b34801561010d57600080fd5b506101166106fd565b6040518082815260200191505060405180910390f35b34801561013857600080fd5b5061017b6004803603602081101561014f57600080fd5b81019080803573ffffffffffffffffffffffffffffffffffffffff169060200190929190505050610703565b005b34801561018957600080fd5b506101d6600480360360408110156101a057600080fd5b81019080803573ffffffffffffffffffffffffffffffffffffffff16906020019092919080359060200190929190505050610838565b6040518082815260200191505060405180910390f35b3480156101f857600080fd5b506102256004803603602081101561020f57600080fd5b81019080803590602001909291905050506109cd565b604051808273ffffffffffffffffffffffffffffffffffffffff1673ffffffffffffffffffffffffffffffffffffffff16815260200191505060405180910390f35b34801561027357600080fd5b506102b66004803603602081101561028a57600080fd5b81019080803573ffffffffffffffffffffffffffffffffffffffff169060200190929190505050610a00565b604051808215151515815260200191505060405180910390f35b3480156102dc57600080fd5b5061031f600480360360208110156102f357600080fd5b81019080803573ffffffffffffffffffffffffffffffffffffffff169060200190929190505050610a20565b005b34801561032d57600080fd5b506103846004803603606081101561034457600080fd5b81019080803573ffffffffffffffffffffffffffffffffffffffff1690602001909291908035906020019092919080359060200190929190505050610aff565b005b34801561039257600080fd5b506103d5600480360360208110156103a957600080fd5b81019080803573ffffffffffffffffffffffffffffffffffffffff169060200190929190505050610b91565b005b3480156103e357600080fd5b5061043a600480360360608110156103fa57600080fd5b81019080803573ffffffffffffffffffffffffffffffffffffffff1690602001909291908035906020019092919080359060200190929190505050610bde565b005b34801561044857600080fd5b5061048b6004803603602081101561045f57600080fd5b81019080803573ffffffffffffffffffffffffffffffffffffffff169060200190929190505050610c70565b005b34801561049957600080fd5b506104a2610ec0565b604051808273ffffffffffffffffffffffffffffffffffffffff1673ffffffffffffffffffffffffffffffffffffffff16815260200191505060405180910390f35b3480156104f057600080fd5b506104f9610ee9565b005b34801561050757600080fd5b506105106110df565b6040518082815260200191505060405180910390f35b34801561053257600080fd5b506105756004803603602081101561054957600080fd5b81019080803573ffffffffffffffffffffffffffffffffffffffff1690602001909291905050506110e5565b604051808215151515815260200191505060405180910390f35b34801561059b57600080fd5b506105de600480360360208110156105b257600080fd5b81019080803573ffffffffffffffffffffffffffffffffffffffff169060200190929190505050611105565b005b3480156105ec57600080fd5b506106196004803603602081101561060357600080fd5b8101908080359060200190929190505050611300565b604051808273ffffffffffffffffffffffffffffffffffffffff1673ffffffffffffffffffffffffffffffffffffffff16815260200191505060405180910390f35b34801561066757600080fd5b506106aa6004803603602081101561067e57600080fd5b81019080803573ffffffffffffffffffffffffffffffffffffffff169060200190929190505050611333565b005b3480156106b857600080fd5b506106fb600480360360208110156106cf57600080fd5b81019080803573ffffffffffffffffffffffffffffffffffffffff169060200190929190505050611578565b005b60015481565b61070b610ec0565b73ffffffffffffffffffffffffffffffffffffffff163373ffffffffffffffffffffffffffffffffffffffff16141580156107905750600660003373ffffffffffffffffffffffffffffffffffffffff1673ffffffffffffffffffffffffffffffffffffffff16815260200190815260200160002060009054906101000a900460ff16155b1561079a57600080fd5b6000600560008373ffffffffffffffffffffffffffffffffffffffff1673ffffffffffffffffffffffffffffffffffffffff16815260200190815260200160002060006101000a81548160ff0219169083151502179055508073ffffffffffffffffffffffffffffffffffffffff167f753f40ca3312b2408759a67875b367955e7baa221daf08aa3d643d96202ac12b60405160405180910390a250565b60008082604051602001808281526020019150506040516020818303038152906040528051906020012090506000600b60008673ffffffffffffffffffffffffffffffffffffffff1673ffffffffffffffffffffffffffffffffffffffff168152602001908152602001600020600083815260200190815260200160002060000154141561091b57600a54600b60008673ffffffffffffffffffffffffffffffffffffffff1673ffffffffffffffffffffffffffffffffffffffff1681526020019081526020016000206000838152602001908152602001600020600001819055505b600b60008573ffffffffffffffffffffffffffffffffffffffff1673ffffffffffffffffffffffffffffffffffffffff168152602001908152602001600020600082815260200190815260200160002060010154600b60008673ffffffffffffffffffffffffffffffffffffffff1673ffffffffffffffffffffffffffffffffffffffff1681526020019081526020016000206000838152602001908152602001600020600001540391505092915050565b60036020528060005260406000206000915054906101000a900473ffffffffffffffffffffffffffffffffffffffff1681565b60056020528060005260406000206000915054906101000a900460ff1681565b610a28610ec0565b73ffffffffffffffffffffffffffffffffffffffff163373ffffffffffffffffffffffffffffffffffffffff16141515610a6157600080fd5b6000600660008373ffffffffffffffffffffffffffffffffffffffff1673ffffffffffffffffffffffffffffffffffffffff16815260200190815260200160002060006101000a81548160ff0219169083151502179055508073ffffffffffffffffffffffffffffffffffffffff167f1aaaaf7609619e631f47eb3546f9fdd8c61b1af2175988a0ddb9a06680c3b9ed60405160405180910390a250565b6000826040516020018082815260200191505060405160208183030381529060405280519060200120905081600b60008673ffffffffffffffffffffffffffffffffffffffff1673ffffffffffffffffffffffffffffffffffffffff16815260200190815260200160002060008381526020019081526020016000206001016000828254019250508190555050505050565b610b99610ec0565b73ffffffffffffffffffffffffffffffffffffffff163373ffffffffffffffffffffffffffffffffffffffff16141515610bd257600080fd5b610bdb8161169f565b50565b6000826040516020018082815260200191505060405160208183030381529060405280519060200120905081600b60008673ffffffffffffffffffffffffffffffffffffffff1673ffffffffffffffffffffffffffffffffffffffff16815260200190815260200160002060008381526020019081526020016000206000016000828254019250508190555050505050565b610c78610ec0565b73ffffffffffffffffffffffffffffffffffffffff163373ffffffffffffffffffffffffffffffffffffffff1614158015610cfd5750600660003373ffffffffffffffffffffffffffffffffffffffff1673ffffffffffffffffffffffffffffffffffffffff16815260200190815260200160002060009054906101000a900460ff16155b15610d0757600080fd5b6001600560008373ffffffffffffffffffffffffffffffffffffffff1673ffffffffffffffffffffffffffffffffffffffff16815260200190815260200160002060006101000a81548160ff021916908315150217905550600760008273ffffffffffffffffffffffffffffffffffffffff1673ffffffffffffffffffffffffffffffffffffffff16815260200190815260200160002060009054906101000a900460ff161515610e7a576001600760008373ffffffffffffffffffffffffffffffffffffffff1673ffffffffffffffffffffffffffffffffffffffff16815260200190815260200160002060006101000a81548160ff0219169083151502179055508060036000600154815260200190815260200160002060006101000a81548173ffffffffffffffffffffffffffffffffffffffff021916908373ffffffffffffffffffffffffffffffffffffffff160217905550610e73600180546116e290919063ffffffff16565b6001819055505b8073ffffffffffffffffffffffffffffffffffffffff167fad6de4452a631e641cb59902236607946ce9272b9b981f2f80e8d129cb9084ba60405160405180910390a250565b60008060009054906101000a900473ffffffffffffffffffffffffffffffffffffffff16905090565b610ef1610ec0565b73ffffffffffffffffffffffffffffffffffffffff163373ffffffffffffffffffffffffffffffffffffffff1614158015610f765750600660003373ffffffffffffffffffffffffffffffffffffffff1673ffffffffffffffffffffffffffffffffffffffff16815260200190815260200160002060009054906101000a900460ff16155b8015610fcc5750600560003373ffffffffffffffffffffffffffffffffffffffff1673ffffffffffffffffffffffffffffffffffffffff16815260200190815260200160002060009054906101000a900460ff16155b15610fd657600080fd5b6000600960009054906101000a900473ffffffffffffffffffffffffffffffffffffffff1690508073ffffffffffffffffffffffffffffffffffffffff16634f1612456040518163ffffffff167c01000000000000000000000000000000000000000000000000000000000281526004018080602001828103825260118152602001807f4b59432f4b59435f7468726573686f6c6400000000000000000000000000000081525060200191505060206040518083038186803b15801561109b57600080fd5b505afa1580156110af573d6000803e3d6000fd5b505050506040513d60208110156110c557600080fd5b8101908080519060200190929190505050600a8190555050565b60025481565b60066020528060005260406000206000915054906101000a900460ff1681565b61110d610ec0565b73ffffffffffffffffffffffffffffffffffffffff163373ffffffffffffffffffffffffffffffffffffffff1614151561114657600080fd5b6001600660008373ffffffffffffffffffffffffffffffffffffffff1673ffffffffffffffffffffffffffffffffffffffff16815260200190815260200160002060006101000a81548160ff021916908315150217905550600860008273ffffffffffffffffffffffffffffffffffffffff1673ffffffffffffffffffffffffffffffffffffffff16815260200190815260200160002060009054906101000a900460ff1615156112ba576001600860008373ffffffffffffffffffffffffffffffffffffffff1673ffffffffffffffffffffffffffffffffffffffff16815260200190815260200160002060006101000a81548160ff0219169083151502179055508060046000600254815260200190815260200160002060006101000a81548173ffffffffffffffffffffffffffffffffffffffff021916908373ffffffffffffffffffffffffffffffffffffffff1602179055506112b360016002546116e290919063ffffffff16565b6002819055505b8073ffffffffffffffffffffffffffffffffffffffff167ffba24c034afca607a35e1f221b154b3f8e1f88c7924c8a0a06755b70708c44d860405160405180910390a250565b60046020528060005260406000206000915054906101000a900473ffffffffffffffffffffffffffffffffffffffff1681565b61133b610ec0565b73ffffffffffffffffffffffffffffffffffffffff163373ffffffffffffffffffffffffffffffffffffffff16141580156113c05750600660003373ffffffffffffffffffffffffffffffffffffffff1673ffffffffffffffffffffffffffffffffffffffff16815260200190815260200160002060009054906101000a900460ff16155b80156114165750600560003373ffffffffffffffffffffffffffffffffffffffff1673ffffffffffffffffffffffffffffffffffffffff16815260200190815260200160002060009054906101000a900460ff16155b1561142057600080fd5b80600960006101000a81548173ffffffffffffffffffffffffffffffffffffffff021916908373ffffffffffffffffffffffffffffffffffffffff1602179055506000600960009054906101000a900473ffffffffffffffffffffffffffffffffffffffff1690508073ffffffffffffffffffffffffffffffffffffffff1663413c6d13306040518263ffffffff167c010000000000000000000000000000000000000000000000000000000002815260040180806020018373ffffffffffffffffffffffffffffffffffffffff1673ffffffffffffffffffffffffffffffffffffffff1681526020018281038252601b8152602001807f4b59432f696d706c656d656e6174696f6e2f42617369635f4b5943000000000081525060200192505050600060405180830381600087803b15801561155c57600080fd5b505af1158015611570573d6000803e3d6000fd5b505050505050565b611580610ec0565b73ffffffffffffffffffffffffffffffffffffffff163373ffffffffffffffffffffffffffffffffffffffff161415156115b957600080fd5b600073ffffffffffffffffffffffffffffffffffffffff168173ffffffffffffffffffffffffffffffffffffffff16141515156115f557600080fd5b7f8be0079c531659141344cd1fd0a4f28419497f9722a3daafe3b4186f6b6457e061161e610ec0565b82604051808373ffffffffffffffffffffffffffffffffffffffff1673ffffffffffffffffffffffffffffffffffffffff1681526020018273ffffffffffffffffffffffffffffffffffffffff1673ffffffffffffffffffffffffffffffffffffffff1681526020019250505060405180910390a161169c8161169f565b50565b806000806101000a81548173ffffffffffffffffffffffffffffffffffffffff021916908373ffffffffffffffffffffffffffffffffffffffff16021790555050565b60008082840190508381101515156116f657fe5b809150509291505056fea165627a7a72305820d35d792bc36d6e06debcebf1ae529a216113ce9e3e1efc7a8f53e7204e5a4c9f0029a165627a7a72305820555f53b3495c1cbc82da65584b0f6b2e270bff3656e8282e91ac5effc72559040029",
  "source": "pragma solidity ^0.5.0;\nimport \"../interface/sale-interface.sol\";\n//import \"./implementation/basic-crowdsale.sol\";\nimport \"../../tokens/token.sol\";\nimport \"../../KYC/KYC.sol\";\nimport \"../../tokens/token.sol\";\nimport \"../../admin/ExternalStorage.sol\";\n\n\n  contract sellANG_ETH is saleInterface, KYC  {\n      address External_Storage_addr;\n      uint ANG_tokens_rate_ETH; //1 ETH;\n      address public ANGtoken_addr;\n      //address public owner;\n      uint ANG_percent100;\n      //address public beneficiar;\n      address public KYC_address;\n      bytes32  discount_word;\n      uint discount_size100;\n      uint256 discount_amount;\n\n/*\n\n      constructor(address _token_address) public {\n        owner = beneficiar;\n        beneficiar = beneficiar;\n        ANGtoken = _token_address;\n      }\n*/\n//setting of valuees-----------------------------------------------------------\n\n//DATA structs------------------------------------------------------------------\n\n    //==============================================================================\n//setting of valuees-----------------------------------------------------------\n\n        function _setExternalstorageaddr(address Externalstorageaddr ) public onlyAdmins\n      {\n\n       External_Storage_addr = Externalstorageaddr;\n\n      }\n\n      function _initExternalStorage(address Externalstorageaddr) public onlyAdmins {\n\n        External_Storage_addr = Externalstorageaddr;\n        ExternalStorage ES = ExternalStorage(External_Storage_addr);\n        ES.setAddressValue(\"tokensale/ExchangeANG_ETH\", address(this));\n\n    }\n\n    function load_conditions_ES () public  { //when something changes\n        ExternalStorage ES = ExternalStorage(External_Storage_addr);\n        ANGtoken_addr =  ES.getAddressValue(\"ANGtoken\");\n        ANG_tokens_rate_ETH = ES.getUIntValue(\"ANGtokensrateETH\");\n        ANG_percent100 = ES.getUIntValue(\"ANGpercent100\");\n        KYC_address = ES.getAddressValue(\"KYC/KYC\");\n        discount_word =  ES.getBytes32Value(\"tokensale/discount_word\");\n        discount_size100 = ES.getUIntValue(\"tokensale/discount_size\");\n        discount_amount =  ES.getUIntValue(\"tokensale/discount_amount\");\n        // project Projectcurrent =  project(Projectaddr);\n        //address Projecttokenaddr = Projectcurrent.ProjectsList(ProjectID);\n    }\n\n\n\n    function sellANGETH(address beneficiar, uint256 summa)  external  { //simple buy ANG for Ether\n\n        token ANGtoken = token( ANGtoken_addr);\n\n        KYC KYC_ = KYC(KYC_address);\n        require  (KYC_.allowed_invest(beneficiar, \"ETH\") - summa > 0);\n          uint256 ANG_tokens_amount = summa* ANG_tokens_rate_ETH * (100 - ANG_percent100) / 100;\n          ANGtoken.transfer(beneficiar,ANG_tokens_amount);\n          KYC_.register_invest (beneficiar, \"ETH\", summa);\n          KYC_.register_invest (beneficiar, \"ANG\", ANG_tokens_amount);\n          emit Purchase_ANG (beneficiar, ANG_tokens_amount);\n\n        }\n\n\n    function sell_discount (address beneficiar, uint256 summa, bytes32 pass_word) external  {\n        token ANGtoken = token( ANGtoken_addr);\n        KYC KYC_ = KYC(KYC_address);\n        require ((discount_amount > summa) && (KYC_.allowed_invest(beneficiar, \"ETH\") - summa > 0) &&  (pass_word == discount_word));\n\n              uint256 ANG_tokens_amount = summa * ANG_tokens_rate_ETH *(100 - ANG_percent100)*(discount_size100 +100)/10000;\n              discount_amount -= summa;\n              ANGtoken.transfer(beneficiar,ANG_tokens_amount);\n              KYC_.register_invest (beneficiar, \"ETH\", summa);\n              KYC_.register_invest (beneficiar, \"ANG\", ANG_tokens_amount);\n              emit Purchase_ANG (beneficiar, ANG_tokens_amount);\n\n        }\n\n\n\n      event Log_no_KYC(address investor);\n      //event Change_KYC_level(address investor);\n      event Purchase_ANG (address investor, uint256 sum);\n  }\n",
  "sourcePath": "/home/sergey/Documents/angels/Angeles.VC-token-scrum-investing/contracts/tokensale/implementation/sellANG_ETH.sol",
  "compiler": {
    "name": "solc",
    "version": "0.5.0+commit.1d4f565a.Emscripten.clang"
  },
  "schemaVersion": "3.0.2",
  "updatedAt": "2019-03-26T08:08:45.067Z",
  "devdoc": {
    "methods": {
      "ownable(address)": {
        "details": "The constructor sets the original owner of the contract to the sender account."
      },
      "owner()": {
        "details": "Tells the address of the owner",
        "return": "the address of the owner"
      },
      "transferOwnership(address)": {
        "details": "Allows the current owner to transfer control of the contract to a newOwner.",
        "params": {
          "newOwner": "The address to transfer ownership to."
        }
      }
    }
  },
  "userdoc": {
    "methods": {}
  }
}