{
  "contractName": "sellANG_ETH",
  "abi": [
    {
      "constant": true,
      "inputs": [
        {
          "name": "",
          "type": "bytes32"
        }
      ],
      "name": "primaryLedgerCount",
      "outputs": [
        {
          "name": "",
          "type": "uint256"
        }
      ],
      "payable": false,
      "stateMutability": "view",
      "type": "function"
    },
    {
      "constant": false,
      "inputs": [
        {
          "name": "record",
          "type": "string"
        },
        {
          "name": "value",
          "type": "uint256"
        }
      ],
      "name": "setUIntValue",
      "outputs": [],
      "payable": false,
      "stateMutability": "nonpayable",
      "type": "function"
    },
    {
      "constant": false,
      "inputs": [
        {
          "name": "_investor_address",
          "type": "address"
        },
        {
          "name": "currency",
          "type": "bytes32"
        }
      ],
      "name": "investorGet",
      "outputs": [],
      "payable": false,
      "stateMutability": "nonpayable",
      "type": "function"
    },
    {
      "constant": true,
      "inputs": [],
      "name": "totalAdminsMapping",
      "outputs": [
        {
          "name": "",
          "type": "uint256"
        }
      ],
      "payable": false,
      "stateMutability": "view",
      "type": "function"
    },
    {
      "constant": true,
      "inputs": [
        {
          "name": "",
          "type": "bytes32"
        },
        {
          "name": "",
          "type": "uint256"
        }
      ],
      "name": "primaryLedgerEntryForIndex",
      "outputs": [
        {
          "name": "",
          "type": "address"
        }
      ],
      "payable": false,
      "stateMutability": "view",
      "type": "function"
    },
    {
      "constant": true,
      "inputs": [
        {
          "name": "record",
          "type": "string"
        },
        {
          "name": "primaryAddress",
          "type": "address"
        },
        {
          "name": "secondaryAddress",
          "type": "address"
        }
      ],
      "name": "getMultiLedgerValue",
      "outputs": [
        {
          "name": "",
          "type": "uint256"
        }
      ],
      "payable": false,
      "stateMutability": "view",
      "type": "function"
    },
    {
      "constant": false,
      "inputs": [
        {
          "name": "record",
          "type": "string"
        },
        {
          "name": "_address",
          "type": "address"
        },
        {
          "name": "value",
          "type": "uint256"
        }
      ],
      "name": "setLedgerValue",
      "outputs": [],
      "payable": false,
      "stateMutability": "nonpayable",
      "type": "function"
    },
    {
      "constant": false,
      "inputs": [
        {
          "name": "record",
          "type": "string"
        },
        {
          "name": "value",
          "type": "bytes32"
        }
      ],
      "name": "setBytes32Value",
      "outputs": [],
      "payable": false,
      "stateMutability": "nonpayable",
      "type": "function"
    },
    {
      "constant": false,
      "inputs": [
        {
          "name": "admin",
          "type": "address"
        }
      ],
      "name": "removeAdmin",
      "outputs": [],
      "payable": false,
      "stateMutability": "nonpayable",
      "type": "function"
    },
    {
      "constant": true,
      "inputs": [
        {
          "name": "",
          "type": "bytes32"
        },
        {
          "name": "",
          "type": "address"
        },
        {
          "name": "",
          "type": "uint256"
        }
      ],
      "name": "secondaryLedgerEntryForIndex",
      "outputs": [
        {
          "name": "",
          "type": "address"
        }
      ],
      "payable": false,
      "stateMutability": "view",
      "type": "function"
    },
    {
      "constant": false,
      "inputs": [
        {
          "name": "record",
          "type": "string"
        },
        {
          "name": "primaryAddress",
          "type": "address"
        },
        {
          "name": "secondaryAddress",
          "type": "address"
        },
        {
          "name": "value",
          "type": "uint256"
        }
      ],
      "name": "setMultiLedgerValue",
      "outputs": [],
      "payable": false,
      "stateMutability": "nonpayable",
      "type": "function"
    },
    {
      "constant": false,
      "inputs": [
        {
          "name": "Projecttokenaddr",
          "type": "address"
        }
      ],
      "name": "finish_project",
      "outputs": [],
      "payable": false,
      "stateMutability": "nonpayable",
      "type": "function"
    },
    {
      "constant": true,
      "inputs": [
        {
          "name": "",
          "type": "uint256"
        }
      ],
      "name": "adminsForIndex",
      "outputs": [
        {
          "name": "",
          "type": "address"
        }
      ],
      "payable": false,
      "stateMutability": "view",
      "type": "function"
    },
    {
      "constant": false,
      "inputs": [
        {
          "name": "record",
          "type": "string"
        },
        {
          "name": "value",
          "type": "bool"
        }
      ],
      "name": "setBooleanValue",
      "outputs": [],
      "payable": false,
      "stateMutability": "nonpayable",
      "type": "function"
    },
    {
      "constant": false,
      "inputs": [
        {
          "name": "Project_token_addr",
          "type": "address"
        }
      ],
      "name": "checkrights",
      "outputs": [
        {
          "name": "",
          "type": "uint256"
        }
      ],
      "payable": false,
      "stateMutability": "nonpayable",
      "type": "function"
    },
    {
      "constant": false,
      "inputs": [
        {
          "name": "record",
          "type": "string"
        },
        {
          "name": "value",
          "type": "address"
        }
      ],
      "name": "setAddressValue",
      "outputs": [],
      "payable": false,
      "stateMutability": "nonpayable",
      "type": "function"
    },
    {
      "constant": true,
      "inputs": [
        {
          "name": "",
          "type": "address"
        }
      ],
      "name": "admins",
      "outputs": [
        {
          "name": "",
          "type": "bool"
        }
      ],
      "payable": false,
      "stateMutability": "view",
      "type": "function"
    },
    {
      "constant": true,
      "inputs": [
        {
          "name": "",
          "type": "bytes32"
        },
        {
          "name": "",
          "type": "address"
        },
        {
          "name": "",
          "type": "address"
        }
      ],
      "name": "ledgerSecondaryEntries",
      "outputs": [
        {
          "name": "",
          "type": "bool"
        }
      ],
      "payable": false,
      "stateMutability": "view",
      "type": "function"
    },
    {
      "constant": false,
      "inputs": [
        {
          "name": "admin",
          "type": "address"
        }
      ],
      "name": "removeSuperAdmin",
      "outputs": [],
      "payable": false,
      "stateMutability": "nonpayable",
      "type": "function"
    },
    {
      "constant": false,
      "inputs": [
        {
          "name": "_investor_address",
          "type": "address"
        },
        {
          "name": "currency",
          "type": "bytes32"
        },
        {
          "name": "add_invested_sum",
          "type": "uint256"
        }
      ],
      "name": "register_invest",
      "outputs": [],
      "payable": false,
      "stateMutability": "nonpayable",
      "type": "function"
    },
    {
      "constant": true,
      "inputs": [
        {
          "name": "record",
          "type": "string"
        }
      ],
      "name": "getUIntValue",
      "outputs": [
        {
          "name": "",
          "type": "uint256"
        }
      ],
      "payable": false,
      "stateMutability": "view",
      "type": "function"
    },
    {
      "constant": true,
      "inputs": [
        {
          "name": "record",
          "type": "string"
        }
      ],
      "name": "getLedgerCount",
      "outputs": [
        {
          "name": "",
          "type": "uint256"
        }
      ],
      "payable": false,
      "stateMutability": "view",
      "type": "function"
    },
    {
      "constant": false,
      "inputs": [
        {
          "name": "newowner",
          "type": "address"
        }
      ],
      "name": "ownable",
      "outputs": [],
      "payable": false,
      "stateMutability": "nonpayable",
      "type": "function"
    },
    {
      "constant": false,
      "inputs": [
        {
          "name": "_investor_address",
          "type": "address"
        },
        {
          "name": "currency",
          "type": "bytes32"
        }
      ],
      "name": "allowed_invest",
      "outputs": [
        {
          "name": "",
          "type": "uint256"
        }
      ],
      "payable": false,
      "stateMutability": "nonpayable",
      "type": "function"
    },
    {
      "constant": false,
      "inputs": [
        {
          "name": "_investor_address",
          "type": "address"
        },
        {
          "name": "currency",
          "type": "bytes32"
        },
        {
          "name": "add_approved_sum",
          "type": "uint256"
        }
      ],
      "name": "add_KYC",
      "outputs": [],
      "payable": false,
      "stateMutability": "nonpayable",
      "type": "function"
    },
    {
      "constant": true,
      "inputs": [
        {
          "name": "record",
          "type": "string"
        }
      ],
      "name": "getBytesValue",
      "outputs": [
        {
          "name": "",
          "type": "bytes"
        }
      ],
      "payable": false,
      "stateMutability": "view",
      "type": "function"
    },
    {
      "constant": false,
      "inputs": [
        {
          "name": "admin",
          "type": "address"
        }
      ],
      "name": "addAdmin",
      "outputs": [],
      "payable": false,
      "stateMutability": "nonpayable",
      "type": "function"
    },
    {
      "constant": true,
      "inputs": [
        {
          "name": "",
          "type": "bytes32"
        },
        {
          "name": "",
          "type": "address"
        }
      ],
      "name": "secondaryLedgerCount",
      "outputs": [
        {
          "name": "",
          "type": "uint256"
        }
      ],
      "payable": false,
      "stateMutability": "view",
      "type": "function"
    },
    {
      "constant": false,
      "inputs": [
        {
          "name": "Projecttokenaddr",
          "type": "address"
        },
        {
          "name": "DFSchangesaddr",
          "type": "bytes32"
        },
        {
          "name": "DFSchangeshash",
          "type": "bytes32"
        },
        {
          "name": "POA_addr",
          "type": "bytes32"
        }
      ],
      "name": "project_add_state",
      "outputs": [
        {
          "name": "",
          "type": "uint256"
        }
      ],
      "payable": false,
      "stateMutability": "nonpayable",
      "type": "function"
    },
    {
      "constant": true,
      "inputs": [
        {
          "name": "record",
          "type": "string"
        }
      ],
      "name": "getBytes32Value",
      "outputs": [
        {
          "name": "",
          "type": "bytes32"
        }
      ],
      "payable": false,
      "stateMutability": "view",
      "type": "function"
    },
    {
      "constant": true,
      "inputs": [
        {
          "name": "",
          "type": "bytes32"
        },
        {
          "name": "",
          "type": "address"
        }
      ],
      "name": "booleanMapAccounts",
      "outputs": [
        {
          "name": "",
          "type": "bool"
        }
      ],
      "payable": false,
      "stateMutability": "view",
      "type": "function"
    },
    {
      "constant": true,
      "inputs": [
        {
          "name": "",
          "type": "bytes32"
        }
      ],
      "name": "booleanMapCount",
      "outputs": [
        {
          "name": "",
          "type": "uint256"
        }
      ],
      "payable": false,
      "stateMutability": "view",
      "type": "function"
    },
    {
      "constant": true,
      "inputs": [
        {
          "name": "",
          "type": "bytes32"
        },
        {
          "name": "",
          "type": "address"
        }
      ],
      "name": "ledgerPrimaryEntries",
      "outputs": [
        {
          "name": "",
          "type": "bool"
        }
      ],
      "payable": false,
      "stateMutability": "view",
      "type": "function"
    },
    {
      "constant": true,
      "inputs": [
        {
          "name": "record",
          "type": "string"
        }
      ],
      "name": "getIntValue",
      "outputs": [
        {
          "name": "",
          "type": "int256"
        }
      ],
      "payable": false,
      "stateMutability": "view",
      "type": "function"
    },
    {
      "constant": true,
      "inputs": [],
      "name": "owner",
      "outputs": [
        {
          "name": "",
          "type": "address"
        }
      ],
      "payable": false,
      "stateMutability": "view",
      "type": "function"
    },
    {
      "constant": true,
      "inputs": [
        {
          "name": "record",
          "type": "string"
        }
      ],
      "name": "getBooleanValue",
      "outputs": [
        {
          "name": "",
          "type": "bool"
        }
      ],
      "payable": false,
      "stateMutability": "view",
      "type": "function"
    },
    {
      "constant": false,
      "inputs": [],
      "name": "kyc",
      "outputs": [],
      "payable": false,
      "stateMutability": "nonpayable",
      "type": "function"
    },
    {
      "constant": false,
      "inputs": [
        {
          "name": "record",
          "type": "string"
        },
        {
          "name": "_address",
          "type": "address"
        },
        {
          "name": "value",
          "type": "bool"
        }
      ],
      "name": "setBooleanMapValue",
      "outputs": [],
      "payable": false,
      "stateMutability": "nonpayable",
      "type": "function"
    },
    {
      "constant": true,
      "inputs": [
        {
          "name": "record",
          "type": "string"
        },
        {
          "name": "_address",
          "type": "address"
        }
      ],
      "name": "getLedgerValue",
      "outputs": [
        {
          "name": "",
          "type": "uint256"
        }
      ],
      "payable": false,
      "stateMutability": "view",
      "type": "function"
    },
    {
      "constant": false,
      "inputs": [
        {
          "name": "record",
          "type": "string"
        },
        {
          "name": "value",
          "type": "int256"
        }
      ],
      "name": "setIntValue",
      "outputs": [],
      "payable": false,
      "stateMutability": "nonpayable",
      "type": "function"
    },
    {
      "constant": true,
      "inputs": [],
      "name": "totalSuperAdminsMapping",
      "outputs": [
        {
          "name": "",
          "type": "uint256"
        }
      ],
      "payable": false,
      "stateMutability": "view",
      "type": "function"
    },
    {
      "constant": true,
      "inputs": [
        {
          "name": "",
          "type": "address"
        }
      ],
      "name": "superAdmins",
      "outputs": [
        {
          "name": "",
          "type": "bool"
        }
      ],
      "payable": false,
      "stateMutability": "view",
      "type": "function"
    },
    {
      "constant": true,
      "inputs": [
        {
          "name": "",
          "type": "address"
        },
        {
          "name": "",
          "type": "address"
        }
      ],
      "name": "_investors",
      "outputs": [
        {
          "name": "approved_sum",
          "type": "uint256"
        },
        {
          "name": "invested_sum",
          "type": "uint256"
        }
      ],
      "payable": false,
      "stateMutability": "view",
      "type": "function"
    },
    {
      "constant": false,
      "inputs": [
        {
          "name": "Projecttokenaddr",
          "type": "address"
        },
        {
          "name": "grade",
          "type": "uint256"
        },
        {
          "name": "floorsum",
          "type": "uint256"
        }
      ],
      "name": "setrights",
      "outputs": [],
      "payable": false,
      "stateMutability": "nonpayable",
      "type": "function"
    },
    {
      "constant": false,
      "inputs": [
        {
          "name": "admin",
          "type": "address"
        }
      ],
      "name": "addSuperAdmin",
      "outputs": [],
      "payable": false,
      "stateMutability": "nonpayable",
      "type": "function"
    },
    {
      "constant": false,
      "inputs": [
        {
          "name": "record",
          "type": "string"
        },
        {
          "name": "value",
          "type": "bytes"
        }
      ],
      "name": "setBytesValue",
      "outputs": [],
      "payable": false,
      "stateMutability": "nonpayable",
      "type": "function"
    },
    {
      "constant": false,
      "inputs": [
        {
          "name": "Projecttokenaddr",
          "type": "address"
        },
        {
          "name": "DFSProjectdescribe",
          "type": "bytes32"
        },
        {
          "name": "DFStype",
          "type": "bytes4"
        }
      ],
      "name": "create_project",
      "outputs": [],
      "payable": false,
      "stateMutability": "nonpayable",
      "type": "function"
    },
    {
      "constant": true,
      "inputs": [
        {
          "name": "",
          "type": "bytes32"
        },
        {
          "name": "",
          "type": "uint256"
        }
      ],
      "name": "ledgerEntryForIndex",
      "outputs": [
        {
          "name": "",
          "type": "address"
        }
      ],
      "payable": false,
      "stateMutability": "view",
      "type": "function"
    },
    {
      "constant": true,
      "inputs": [
        {
          "name": "",
          "type": "bytes32"
        },
        {
          "name": "",
          "type": "uint256"
        }
      ],
      "name": "booleanMapEntryForIndex",
      "outputs": [
        {
          "name": "",
          "type": "address"
        }
      ],
      "payable": false,
      "stateMutability": "view",
      "type": "function"
    },
    {
      "constant": true,
      "inputs": [
        {
          "name": "",
          "type": "uint256"
        }
      ],
      "name": "superAdminsForIndex",
      "outputs": [
        {
          "name": "",
          "type": "address"
        }
      ],
      "payable": false,
      "stateMutability": "view",
      "type": "function"
    },
    {
      "constant": true,
      "inputs": [
        {
          "name": "",
          "type": "uint256"
        }
      ],
      "name": "ProjectList",
      "outputs": [
        {
          "name": "",
          "type": "address"
        }
      ],
      "payable": false,
      "stateMutability": "view",
      "type": "function"
    },
    {
      "constant": true,
      "inputs": [
        {
          "name": "",
          "type": "address"
        }
      ],
      "name": "Projects",
      "outputs": [
        {
          "name": "project_ID",
          "type": "uint256"
        },
        {
          "name": "project_owner_address",
          "type": "address"
        },
        {
          "name": "_DARF_system_address",
          "type": "address"
        },
        {
          "name": "DFS_Project_describe",
          "type": "bytes32"
        },
        {
          "name": "DFS_type",
          "type": "bytes4"
        }
      ],
      "payable": false,
      "stateMutability": "view",
      "type": "function"
    },
    {
      "constant": true,
      "inputs": [],
      "name": "KYC_address",
      "outputs": [
        {
          "name": "",
          "type": "address"
        }
      ],
      "payable": false,
      "stateMutability": "view",
      "type": "function"
    },
    {
      "constant": true,
      "inputs": [],
      "name": "ANGtoken_addr",
      "outputs": [
        {
          "name": "",
          "type": "address"
        }
      ],
      "payable": false,
      "stateMutability": "view",
      "type": "function"
    },
    {
      "constant": false,
      "inputs": [
        {
          "name": "Projecttokenaddr",
          "type": "address"
        },
        {
          "name": "owner",
          "type": "address"
        },
        {
          "name": "DFSProjectdescribe",
          "type": "bytes32"
        },
        {
          "name": "DFStype",
          "type": "bytes4"
        }
      ],
      "name": "change_project_info",
      "outputs": [],
      "payable": false,
      "stateMutability": "nonpayable",
      "type": "function"
    },
    {
      "constant": true,
      "inputs": [
        {
          "name": "",
          "type": "bytes32"
        }
      ],
      "name": "ledgerCount",
      "outputs": [
        {
          "name": "",
          "type": "uint256"
        }
      ],
      "payable": false,
      "stateMutability": "view",
      "type": "function"
    },
    {
      "constant": true,
      "inputs": [
        {
          "name": "record",
          "type": "string"
        },
        {
          "name": "_address",
          "type": "address"
        }
      ],
      "name": "getBooleanMapValue",
      "outputs": [
        {
          "name": "",
          "type": "bool"
        }
      ],
      "payable": false,
      "stateMutability": "view",
      "type": "function"
    },
    {
      "constant": false,
      "inputs": [
        {
          "name": "Projecttokenaddr",
          "type": "address"
        },
        {
          "name": "timestamp",
          "type": "uint256"
        }
      ],
      "name": "project_get_state",
      "outputs": [
        {
          "name": "",
          "type": "bytes32"
        }
      ],
      "payable": false,
      "stateMutability": "nonpayable",
      "type": "function"
    },
    {
      "constant": true,
      "inputs": [
        {
          "name": "record",
          "type": "string"
        }
      ],
      "name": "getBooleanMapCount",
      "outputs": [
        {
          "name": "",
          "type": "uint256"
        }
      ],
      "payable": false,
      "stateMutability": "view",
      "type": "function"
    },
    {
      "constant": true,
      "inputs": [
        {
          "name": "",
          "type": "bytes32"
        },
        {
          "name": "",
          "type": "address"
        }
      ],
      "name": "ledgerAccounts",
      "outputs": [
        {
          "name": "",
          "type": "bool"
        }
      ],
      "payable": false,
      "stateMutability": "view",
      "type": "function"
    },
    {
      "constant": false,
      "inputs": [
        {
          "name": "newOwner",
          "type": "address"
        }
      ],
      "name": "transferOwnership",
      "outputs": [],
      "payable": false,
      "stateMutability": "nonpayable",
      "type": "function"
    },
    {
      "constant": true,
      "inputs": [
        {
          "name": "record",
          "type": "string"
        }
      ],
      "name": "getAddressValue",
      "outputs": [
        {
          "name": "",
          "type": "address"
        }
      ],
      "payable": false,
      "stateMutability": "view",
      "type": "function"
    },
    {
      "anonymous": false,
      "inputs": [
        {
          "indexed": false,
          "name": "investor",
          "type": "address"
        }
      ],
      "name": "Log_no_KYC",
      "type": "event"
    },
    {
      "anonymous": false,
      "inputs": [
        {
          "indexed": false,
          "name": "investor",
          "type": "address"
        },
        {
          "indexed": false,
          "name": "sum",
          "type": "uint256"
        }
      ],
      "name": "Purchase_ANG",
      "type": "event"
    },
    {
      "anonymous": false,
      "inputs": [
        {
          "indexed": false,
          "name": "owner_address",
          "type": "address"
        },
        {
          "indexed": false,
          "name": "Projecttokenaddr",
          "type": "address"
        },
        {
          "indexed": false,
          "name": "DFSProjectdescribe",
          "type": "bytes32"
        },
        {
          "indexed": false,
          "name": "_DARFsystemaddress",
          "type": "address"
        }
      ],
      "name": "New_project",
      "type": "event"
    },
    {
      "anonymous": false,
      "inputs": [
        {
          "indexed": false,
          "name": "Projecttokenaddr",
          "type": "address"
        }
      ],
      "name": "finished_project",
      "type": "event"
    },
    {
      "anonymous": false,
      "inputs": [
        {
          "indexed": true,
          "name": "admin",
          "type": "address"
        }
      ],
      "name": "AddAdmin",
      "type": "event"
    },
    {
      "anonymous": false,
      "inputs": [
        {
          "indexed": true,
          "name": "admin",
          "type": "address"
        }
      ],
      "name": "RemoveAdmin",
      "type": "event"
    },
    {
      "anonymous": false,
      "inputs": [
        {
          "indexed": true,
          "name": "admin",
          "type": "address"
        }
      ],
      "name": "AddSuperAdmin",
      "type": "event"
    },
    {
      "anonymous": false,
      "inputs": [
        {
          "indexed": true,
          "name": "admin",
          "type": "address"
        }
      ],
      "name": "RemoveSuperAdmin",
      "type": "event"
    },
    {
      "anonymous": false,
      "inputs": [
        {
          "indexed": false,
          "name": "previousOwner",
          "type": "address"
        },
        {
          "indexed": false,
          "name": "newOwner",
          "type": "address"
        }
      ],
      "name": "OwnershipTransferred",
      "type": "event"
    },
    {
      "constant": false,
      "inputs": [
        {
          "name": "Externalstorageaddr",
          "type": "address"
        }
      ],
      "name": "_setExternalstorageaddr",
      "outputs": [],
      "payable": false,
      "stateMutability": "nonpayable",
      "type": "function"
    },
    {
      "constant": false,
      "inputs": [
        {
          "name": "Externalstorageaddr",
          "type": "address"
        }
      ],
      "name": "_initExternalStorage",
      "outputs": [],
      "payable": false,
      "stateMutability": "nonpayable",
      "type": "function"
    },
    {
      "constant": false,
      "inputs": [],
      "name": "load_conditions_ES",
      "outputs": [],
      "payable": false,
      "stateMutability": "nonpayable",
      "type": "function"
    },
    {
      "constant": false,
      "inputs": [
        {
          "name": "beneficiar",
          "type": "address"
        },
        {
          "name": "summa",
          "type": "uint256"
        }
      ],
      "name": "sellANGETH",
      "outputs": [],
      "payable": false,
      "stateMutability": "nonpayable",
      "type": "function"
    },
    {
      "constant": false,
      "inputs": [
        {
          "name": "beneficiar",
          "type": "address"
        },
        {
          "name": "summa",
          "type": "uint256"
        },
        {
          "name": "pass_word",
          "type": "bytes32"
        }
      ],
      "name": "sell_discount",
      "outputs": [],
      "payable": false,
      "stateMutability": "nonpayable",
      "type": "function"
    }
  ],
  "bytecode": "0x6080604052671bc16d674ec8000060265534801561001c57600080fd5b50615af78061002c6000396000f3fe6080604052600436106102fd5763ffffffff60e060020a6000350416630305357e811461030257806303d759371461033e578063043baa03146103f55780630489882e1461042e578063059f9ebf14610443578063088787a31461048f5780630cb1a3a91461055857806310278bc8146106195780631785f53c146106ce578063199759db146107015780631f69d2301461074057806321f622be1461080b57806325ae4e381461083e578063313f2a211461087d5780633d8f89d7146108a75780633fe147131461095c578063413c6d131461098f578063429b62e514610a4d5780634463d9ec14610a945780634902e4aa14610ad55780634e6091f314610b085780634f16124514610b475780634f6acaa114610bfa57806364a04b5914610cad578063663e91f214610ce05780636ae923c814610d195780636e22d33e14610d585780637048027514610e80578063740ca23c14610eb357806375fa9ece14610eec5780637ec1399614610f315780637ffcd79f14610fe457806383e835e01461101d5780638552527714611047578063877c2184146110805780638da5cb5b146111335780638de216501461114857806390d6b45f146111fb578063929268b8146112105780639df152dc146112d3578063a90cf6f4146112e8578063abd6ff8e146113a6578063abf7b0631461145b578063ad25cb4214611470578063ad530619146114a3578063b1ec4c88146114f7578063b3292ff014611536578063bf3c112014611569578063bfaa3ebc146116a3578063c04dc73b14611701578063c0b3ac9314611731578063c389439814611761578063c5ca32131461178b578063c8bc0407146117b5578063cc46e7ca146117e8578063cd60c8b914611870578063ce7c394e14611885578063d2716f031461189a578063d3f742dc14611903578063d69b6ccf1461192d578063e671fab514611966578063e815cae614611a24578063e89bc86b14611a5d578063e8d39d0714611b10578063f2fde38b14611b49578063f7f1388714611b7c578063fd25568314611baf575b600080fd5b34801561030e57600080fd5b5061032c6004803603602081101561032557600080fd5b5035611c62565b60408051918252519081900360200190f35b34801561034a57600080fd5b506103f36004803603604081101561036157600080fd5b81019060208101813564010000000081111561037c57600080fd5b82018360208201111561038e57600080fd5b803590602001918460018302840111640100000000831117156103b057600080fd5b91908080601f0160208091040260200160405190810160405280939291908181526020018383808284376000920191909152509295505091359250611c74915050565b005b34801561040157600080fd5b506103f36004803603604081101561041857600080fd5b50600160a060020a038135169060200135611d74565b34801561043a57600080fd5b5061032c611d78565b34801561044f57600080fd5b506104736004803603604081101561046657600080fd5b5080359060200135611d7e565b60408051600160a060020a039092168252519081900360200190f35b34801561049b57600080fd5b5061032c600480360360608110156104b257600080fd5b8101906020810181356401000000008111156104cd57600080fd5b8201836020820111156104df57600080fd5b8035906020019184600183028401116401000000008311171561050157600080fd5b91908080601f01602080910402602001604051908101604052809392919081815260200183838082843760009201919091525092955050600160a060020a038335811694506020909301359092169150611da49050565b34801561056457600080fd5b506103f36004803603606081101561057b57600080fd5b81019060208101813564010000000081111561059657600080fd5b8201836020820111156105a857600080fd5b803590602001918460018302840111640100000000831117156105ca57600080fd5b91908080601f01602080910402602001604051908101604052809392919081815260200183838082843760009201919091525092955050600160a060020a038335169350505060200135611e6a565b34801561062557600080fd5b506103f36004803603604081101561063c57600080fd5b81019060208101813564010000000081111561065757600080fd5b82018360208201111561066957600080fd5b8035906020019184600183028401116401000000008311171561068b57600080fd5b91908080601f0160208091040260200160405190810160405280939291908181526020018383808284376000920191909152509295505091359250612028915050565b3480156106da57600080fd5b506103f3600480360360208110156106f157600080fd5b5035600160a060020a03166120cc565b34801561070d57600080fd5b506104736004803603606081101561072457600080fd5b50803590600160a060020a036020820135169060400135612158565b34801561074c57600080fd5b506103f36004803603608081101561076357600080fd5b81019060208101813564010000000081111561077e57600080fd5b82018360208201111561079057600080fd5b803590602001918460018302840111640100000000831117156107b257600080fd5b91908080601f01602080910402602001604051908101604052809392919081815260200183838082843760009201919091525092955050600160a060020a03833581169450602084013516926040013591506121849050565b34801561081757600080fd5b506103f36004803603602081101561082e57600080fd5b5035600160a060020a031661242b565b34801561084a57600080fd5b506103f36004803603606081101561086157600080fd5b50600160a060020a03813516906020810135906040013561246a565b34801561088957600080fd5b50610473600480360360208110156108a057600080fd5b5035612766565b3480156108b357600080fd5b506103f3600480360360408110156108ca57600080fd5b8101906020810181356401000000008111156108e557600080fd5b8201836020820111156108f757600080fd5b8035906020019184600183028401116401000000008311171561091957600080fd5b91908080601f0160208091040260200160405190810160405280939291908181526020018383808284376000920191909152509295505050503515159050612781565b34801561096857600080fd5b5061032c6004803603602081101561097f57600080fd5b5035600160a060020a031661288f565b34801561099b57600080fd5b506103f3600480360360408110156109b257600080fd5b8101906020810181356401000000008111156109cd57600080fd5b8201836020820111156109df57600080fd5b80359060200191846001830284011164010000000083111715610a0157600080fd5b91908080601f01602080910402602001604051908101604052809392919081815260200183838082843760009201919091525092955050509035600160a060020a031691506129709050565b348015610a5957600080fd5b50610a8060048036036020811015610a7057600080fd5b5035600160a060020a0316612a93565b604080519115158252519081900360200190f35b348015610aa057600080fd5b50610a8060048036036060811015610ab757600080fd5b50803590600160a060020a0360208201358116916040013516612aa8565b348015610ae157600080fd5b506103f360048036036020811015610af857600080fd5b5035600160a060020a0316612ace565b348015610b1457600080fd5b506103f360048036036060811015610b2b57600080fd5b50600160a060020a038135169060208101359060400135612b33565b348015610b5357600080fd5b5061032c60048036036020811015610b6a57600080fd5b810190602081018135640100000000811115610b8557600080fd5b820183602082011115610b9757600080fd5b80359060200191846001830284011164010000000083111715610bb957600080fd5b91908080601f016020809104026020016040519081016040528093929190818152602001838380828437600092019190915250929550612baf945050505050565b348015610c0657600080fd5b5061032c60048036036020811015610c1d57600080fd5b810190602081018135640100000000811115610c3857600080fd5b820183602082011115610c4a57600080fd5b80359060200191846001830284011164010000000083111715610c6c57600080fd5b91908080601f016020809104026020016040519081016040528093929190818152602001838380828437600092019190915250929550612c54945050505050565b348015610cb957600080fd5b506103f360048036036020811015610cd057600080fd5b5035600160a060020a0316612c9a565b348015610cec57600080fd5b5061032c60048036036040811015610d0357600080fd5b50600160a060020a038135169060200135612cc2565b348015610d2557600080fd5b506103f360048036036060811015610d3c57600080fd5b50600160a060020a038135169060208101359060400135612d68565b348015610d6457600080fd5b50610e0b60048036036020811015610d7b57600080fd5b810190602081018135640100000000811115610d9657600080fd5b820183602082011115610da857600080fd5b80359060200191846001830284011164010000000083111715610dca57600080fd5b91908080601f016020809104026020016040519081016040528093929190818152602001838380828437600092019190915250929550612e3c945050505050565b6040805160208082528351818301528351919283929083019185019080838360005b83811015610e45578181015183820152602001610e2d565b50505050905090810190601f168015610e725780820380516001836020036101000a031916815260200191505b509250505060405180910390f35b348015610e8c57600080fd5b506103f360048036036020811015610ea357600080fd5b5035600160a060020a0316612f6c565b348015610ebf57600080fd5b5061032c60048036036040811015610ed657600080fd5b5080359060200135600160a060020a0316613079565b348015610ef857600080fd5b5061032c60048036036080811015610f0f57600080fd5b50600160a060020a038135169060208101359060408101359060600135613096565b348015610f3d57600080fd5b5061032c60048036036020811015610f5457600080fd5b810190602081018135640100000000811115610f6f57600080fd5b820183602082011115610f8157600080fd5b80359060200191846001830284011164010000000083111715610fa357600080fd5b91908080601f01602080910402602001604051908101604052809392919081815260200183838082843760009201919091525092955061314f945050505050565b348015610ff057600080fd5b50610a806004803603604081101561100757600080fd5b5080359060200135600160a060020a0316613195565b34801561102957600080fd5b5061032c6004803603602081101561104057600080fd5b50356131b5565b34801561105357600080fd5b50610a806004803603604081101561106a57600080fd5b5080359060200135600160a060020a03166131c7565b34801561108c57600080fd5b5061032c600480360360208110156110a357600080fd5b8101906020810181356401000000008111156110be57600080fd5b8201836020820111156110d057600080fd5b803590602001918460018302840111640100000000831117156110f257600080fd5b91908080601f0160208091040260200160405190810160405280939291908181526020018383808284376000920191909152509295506131e7945050505050565b34801561113f57600080fd5b5061047361322d565b34801561115457600080fd5b50610a806004803603602081101561116b57600080fd5b81019060208101813564010000000081111561118657600080fd5b82018360208201111561119857600080fd5b803590602001918460018302840111640100000000831117156111ba57600080fd5b91908080601f01602080910402602001604051908101604052809392919081815260200183838082843760009201919091525092955061323d945050505050565b34801561120757600080fd5b506103f36132e4565b34801561121c57600080fd5b506103f36004803603606081101561123357600080fd5b81019060208101813564010000000081111561124e57600080fd5b82018360208201111561126057600080fd5b8035906020019184600183028401116401000000008311171561128257600080fd5b91908080601f01602080910402602001604051908101604052809392919081815260200183838082843760009201919091525092955050600160a060020a0383351693505050602001351515613432565b3480156112df57600080fd5b506103f36135ff565b3480156112f457600080fd5b5061032c6004803603604081101561130b57600080fd5b81019060208101813564010000000081111561132657600080fd5b82018360208201111561133857600080fd5b8035906020019184600183028401116401000000008311171561135a57600080fd5b91908080601f01602080910402602001604051908101604052809392919081815260200183838082843760009201919091525092955050509035600160a060020a03169150613aee9050565b3480156113b257600080fd5b506103f3600480360360408110156113c957600080fd5b8101906020810181356401000000008111156113e457600080fd5b8201836020820111156113f657600080fd5b8035906020019184600183028401116401000000008311171561141857600080fd5b91908080601f0160208091040260200160405190810160405280939291908181526020018383808284376000920191909152509295505091359250613ba8915050565b34801561146757600080fd5b5061032c613c4c565b34801561147c57600080fd5b50610a806004803603602081101561149357600080fd5b5035600160a060020a0316613c52565b3480156114af57600080fd5b506114de600480360360408110156114c657600080fd5b50600160a060020a0381358116916020013516613c67565b6040805192835260208301919091528051918290030190f35b34801561150357600080fd5b506103f36004803603606081101561151a57600080fd5b50600160a060020a038135169060208101359060400135613c8b565b34801561154257600080fd5b506103f36004803603602081101561155957600080fd5b5035600160a060020a0316613cef565b34801561157557600080fd5b506103f36004803603604081101561158c57600080fd5b8101906020810181356401000000008111156115a757600080fd5b8201836020820111156115b957600080fd5b803590602001918460018302840111640100000000831117156115db57600080fd5b91908080601f016020809104026020016040519081016040528093929190818152602001838380828437600092019190915250929594936020810193503591505064010000000081111561162e57600080fd5b82018360208201111561164057600080fd5b8035906020019184600183028401116401000000008311171561166257600080fd5b91908080601f016020809104026020016040519081016040528093929190818152602001838380828437600092019190915250929550613dd6945050505050565b3480156116af57600080fd5b506103f3600480360360608110156116c657600080fd5b508035600160a060020a031690602081013590604001357bffffffffffffffffffffffffffffffffffffffffffffffffffffffff1916613ee9565b34801561170d57600080fd5b506104736004803603604081101561172457600080fd5b50803590602001356142ff565b34801561173d57600080fd5b506104736004803603604081101561175457600080fd5b5080359060200135614325565b34801561176d57600080fd5b506104736004803603602081101561178457600080fd5b503561434b565b34801561179757600080fd5b50610473600480360360208110156117ae57600080fd5b5035614366565b3480156117c157600080fd5b506103f3600480360360208110156117d857600080fd5b5035600160a060020a031661438e565b3480156117f457600080fd5b5061181b6004803603602081101561180b57600080fd5b5035600160a060020a03166144ba565b60408051958652600160a060020a039485166020870152929093168483015260608401527bffffffffffffffffffffffffffffffffffffffffffffffffffffffff199091166080830152519081900360a00190f35b34801561187c57600080fd5b506104736144fb565b34801561189157600080fd5b5061047361450a565b3480156118a657600080fd5b506103f3600480360360808110156118bd57600080fd5b508035600160a060020a0390811691602081013590911690604081013590606001357bffffffffffffffffffffffffffffffffffffffffffffffffffffffff1916614519565b34801561190f57600080fd5b5061032c6004803603602081101561192657600080fd5b503561459a565b34801561193957600080fd5b506103f36004803603604081101561195057600080fd5b50600160a060020a0381351690602001356145ac565b34801561197257600080fd5b50610a806004803603604081101561198957600080fd5b8101906020810181356401000000008111156119a457600080fd5b8201836020820111156119b657600080fd5b803590602001918460018302840111640100000000831117156119d857600080fd5b91908080601f01602080910402602001604051908101604052809392919081815260200183838082843760009201919091525092955050509035600160a060020a0316915061486c9050565b348015611a3057600080fd5b5061032c60048036036040811015611a4757600080fd5b50600160a060020a038135169060200135614929565b348015611a6957600080fd5b5061032c60048036036020811015611a8057600080fd5b810190602081018135640100000000811115611a9b57600080fd5b820183602082011115611aad57600080fd5b80359060200191846001830284011164010000000083111715611acf57600080fd5b91908080601f0160208091040260200160405190810160405280939291908181526020018383808284376000920191909152509295506149f5945050505050565b348015611b1c57600080fd5b50610a8060048036036040811015611b3357600080fd5b5080359060200135600160a060020a0316614a3b565b348015611b5557600080fd5b506103f360048036036020811015611b6c57600080fd5b5035600160a060020a0316614a5b565b348015611b8857600080fd5b506103f360048036036020811015611b9f57600080fd5b5035600160a060020a0316614ae0565b348015611bbb57600080fd5b5061047360048036036020811015611bd257600080fd5b810190602081018135640100000000811115611bed57600080fd5b820183602082011115611bff57600080fd5b80359060200191846001830284011164010000000083111715611c2157600080fd5b91908080601f016020809104026020016040519081016040528093929190818152602001838380828437600092019190915250929550614b61945050505050565b600a6020526000908152604090205481565b611c7c61322d565b600160a060020a031633600160a060020a031614158015611cad57503360009081526006602052604090205460ff16155b8015611cc957503360009081526005602052604090205460ff16155b15611cd357600080fd5b8060196000846040516020018080602001828103825283818151815260200191508051906020019080838360005b83811015611d19578181015183820152602001611d01565b50505050905090810190601f168015611d465780820380516001836020036101000a031916815260200191505b5060408051601f19818403018152918152815160209283012086529085019590955250505001600020555050565b5050565b60015481565b600c602090815260009283526040808420909152908252902054600160a060020a031681565b600060096000856040516020018080602001828103825283818151815260200191508051906020019080838360005b83811015611deb578181015183820152602001611dd3565b50505050905090810190601f168015611e185780820380516001836020036101000a031916815260200191505b5060408051808303601f1901815291815281516020928301208652858201969096529385016000908120600160a060020a03998a16825285528581209790981688525050509290925250902054919050565b611e7261322d565b600160a060020a031633600160a060020a031614158015611ea357503360009081526006602052604090205460ff16155b8015611ebf57503360009081526005602052604090205460ff16155b15611ec957600080fd5b6000836040516020018080602001828103825283818151815260200191508051906020019080838360005b83811015611f0c578181015183820152602001611ef4565b50505050905090810190601f168015611f395780820380516001836020036101000a031916815260200191505b5060408051601f198184030181529181528151602092830120600081815260138452828120600160a060020a038b16825290935291205490945060ff1615159250611fff91505057600081815260126020908152604080832054601483528184208185529092529091208054600160a060020a031916600160a060020a038616179055611fc7816001614c0e565b60008381526012602090815260408083209390935560138152828220600160a060020a0388168352905220805460ff19166001179055505b6000908152601160209081526040808320600160a060020a039095168352939052919091205550565b61203061322d565b600160a060020a031633600160a060020a03161415801561206157503360009081526006602052604090205460ff16155b801561207d57503360009081526005602052604090205460ff16155b1561208757600080fd5b80601a60008460405160200180806020018281038252838181518152602001915080519060200190808383600083811015611d19578181015183820152602001611d01565b6120d461322d565b600160a060020a031633600160a060020a03161415801561210557503360009081526006602052604090205460ff16155b1561210f57600080fd5b600160a060020a038116600081815260056020526040808220805460ff19169055517f753f40ca3312b2408759a67875b367955e7baa221daf08aa3d643d96202ac12b9190a250565b600f602090815260009384526040808520825292845282842090528252902054600160a060020a031681565b61218c61322d565b600160a060020a031633600160a060020a0316141580156121bd57503360009081526006602052604090205460ff16155b80156121d957503360009081526005602052604090205460ff16155b156121e357600080fd5b6000846040516020018080602001828103825283818151815260200191508051906020019080838360005b8381101561222657818101518382015260200161220e565b50505050905090810190601f1680156122535780820380516001836020036101000a031916815260200191505b5060408051601f1981840301815291815281516020928301206000818152600a845282812054600d8552838220600160a060020a03808e1680855291875285842054858552600e8852868520928552918752858420908d1684529095529290205490965090945090925060ff16151590506123f5576000838152600f60209081526040808320600160a060020a038a811685529083528184208585529092529091208054600160a060020a031916918716919091179055612315816001614c0e565b6000848152600d60209081526040808320600160a060020a03808c1680865291845282852095909555878452600e83528184208185528352818420948a168452938252808320805460ff19166001179055868352600b8252808320938352929052205460ff1615156123f5576000838152600c6020908152604080832085845290915290208054600160a060020a031916600160a060020a0388161790556123be826001614c0e565b6000848152600a6020908152604080832093909355600b8152828220600160a060020a038a168352905220805460ff191660011790555b50506000908152600960209081526040808320600160a060020a0396871684528252808320949095168252929092529190205550565b60408051600160a060020a038316815290517f3de6942a798d68cf19b2bb7207cacf6c331a8fc7806b0f420977489c636d370c9181900360200190a150565b602a54602c54602f54600160a060020a0392831692909116908410801561252a575060008482600160a060020a031663663e91f2886040518263ffffffff1660e060020a0281526004018082600160a060020a0316600160a060020a031681526020018060eb60020a6208aa8902815250602001915050602060405180830381600087803b1580156124fb57600080fd5b505af115801561250f573d6000803e3d6000fd5b505050506040513d602081101561252557600080fd5b505103115b80156125375750602d5483145b151561254257600080fd5b6000612710602e54606401602b546064036029548802020281151561256357fe5b602f80548890039055604080517fa9059cbb000000000000000000000000000000000000000000000000000000008152600160a060020a038a81166004830152939092046024830181905290519093509185169163a9059cbb916044808201926020929091908290030181600087803b1580156125df57600080fd5b505af11580156125f3573d6000803e3d6000fd5b505050506040513d602081101561260957600080fd5b50506040805160e060020a634e6091f3028152600160a060020a03888116600483015260eb60020a6208aa8902602483015260448201889052915191841691634e6091f39160648082019260009290919082900301818387803b15801561266f57600080fd5b505af1158015612683573d6000803e3d6000fd5b50506040805160e060020a634e6091f3028152600160a060020a038a811660048301527f414e47000000000000000000000000000000000000000000000000000000000060248301526044820186905291519186169350634e6091f3925060648082019260009290919082900301818387803b15801561270257600080fd5b505af1158015612716573d6000803e3d6000fd5b505060408051600160a060020a038a1681526020810185905281517f0c7c369f5fed41a326fd0a7f48eb4fd51dfe3ab2ca5d1fda279a1680000aaf219450908190039091019150a1505050505050565b600360205260009081526040902054600160a060020a031681565b61278961322d565b600160a060020a031633600160a060020a0316141580156127ba57503360009081526006602052604090205460ff16155b80156127d657503360009081526005602052604090205460ff16155b156127e057600080fd5b80601d6000846040516020018080602001828103825283818151815260200191508051906020019080838360005b8381101561282657818101518382015260200161280e565b50505050905090810190601f1680156128535780820380516001836020036101000a031916815260200191505b5060408051808303601f19018152918152815160209283012086529085019590955250505001600020805460ff19169115159190911790555050565b600060075b6000811061296557600160a060020a03831660009081526020805260409020839082600881106128c057fe5b0154604080517f70a082310000000000000000000000000000000000000000000000000000000081523360048201529051600160a060020a038416916370a08231916024808301926020929190829003018186803b15801561292157600080fd5b505afa158015612935573d6000803e3d6000fd5b505050506040513d602081101561294b57600080fd5b5051111561295b5750905061296b565b5060001901612894565b50600090505b919050565b61297861322d565b600160a060020a031633600160a060020a0316141580156129a957503360009081526006602052604090205460ff16155b80156129c557503360009081526005602052604090205460ff16155b156129cf57600080fd5b80601b6000846040516020018080602001828103825283818151815260200191508051906020019080838360005b83811015612a155781810151838201526020016129fd565b50505050905090810190601f168015612a425780820380516001836020036101000a031916815260200191505b509250505060405160208183030381529060405280519060200120815260200190815260200160002060006101000a815481600160a060020a030219169083600160a060020a031602179055505050565b60056020526000908152604090205460ff1681565b600e60209081526000938452604080852082529284528284209052825290205460ff1681565b612ad661322d565b600160a060020a03163314612aea57600080fd5b600160a060020a038116600081815260066020526040808220805460ff19169055517f1aaaaf7609619e631f47eb3546f9fdd8c61b1af2175988a0ddb9a06680c3b9ed9190a250565b6025546040805160e060020a634e6091f3028152600160a060020a038681166004830152602482018690526044820185905291519190921691634e6091f391606480830192600092919082900301818387803b158015612b9257600080fd5b505af1158015612ba6573d6000803e3d6000fd5b50505050505050565b600060196000836040516020018080602001828103825283818151815260200191508051906020019080838360005b83811015612bf6578181015183820152602001612bde565b50505050905090810190601f168015612c235780820380516001836020036101000a031916815260200191505b5092505050604051602081830303815290604052805190602001208152602001908152602001600020549050919050565b6000601260008360405160200180806020018281038252838181518152602001915080519060200190808383600083811015612bf6578181015183820152602001612bde565b612ca261322d565b600160a060020a03163314612cb657600080fd5b612cbf81614c24565b50565b602554604080517f192ebb52000000000000000000000000000000000000000000000000000000008152600160a060020a0385811660048301526024820185905291516000938493169163192ebb5291604480830192602092919082900301818787803b158015612d3257600080fd5b505af1158015612d46573d6000803e3d6000fd5b505050506040513d6020811015612d5c57600080fd5b50519150505b92915050565b612d7061322d565b600160a060020a031633600160a060020a031614158015612da157503360009081526006602052604090205460ff16155b8015612dbd57503360009081526005602052604090205460ff16155b15612dc757600080fd5b602554604080517f6ae923c8000000000000000000000000000000000000000000000000000000008152600160a060020a038681166004830152602482018690526044820185905291519190921691636ae923c891606480830192600092919082900301818387803b158015612b9257600080fd5b6060601c6000836040516020018080602001828103825283818151815260200191508051906020019080838360005b83811015612e83578181015183820152602001612e6b565b50505050905090810190601f168015612eb05780820380516001836020036101000a031916815260200191505b5060408051601f19818403018152918152815160209283012086528582019690965293850160002080548651601f60026000196101006001861615020190931692909204918201879004870281018701909752808752909490935085019150839050828015612f605780601f10612f3557610100808354040283529160200191612f60565b820191906000526020600020905b815481529060010190602001808311612f4357829003601f168201915b50505050509050919050565b612f7461322d565b600160a060020a031633600160a060020a031614158015612fa557503360009081526006602052604090205460ff16155b15612faf57600080fd5b600160a060020a0381166000908152600560209081526040808320805460ff19166001179055600790915290205460ff16151561304257600160a060020a0381166000818152600760209081526040808320805460ff191660019081179091558054845260039092529091208054600160a060020a031916909217909155805461303e9163ffffffff614c0e16565b6001555b604051600160a060020a038216907fad6de4452a631e641cb59902236607946ce9272b9b981f2f80e8d129cb9084ba90600090a250565b600d60209081526000928352604080842090915290825290205481565b600160a060020a0384811660009081526022602052604081206002015490911633146130c157600080fd5b5060408051600160a060020a03959095166c0100000000000000000000000081026020808801919091524260348089018290528451808a0390910181526054909801845287519782019790972060008181526021808452858220600581018b905594825260228452948120549190529290529081556001810193909355600283019190915560049091015590565b6000601a60008360405160200180806020018281038252838181518152602001915080519060200190808383600083811015612bf6578181015183820152602001612bde565b601760209081526000928352604080842090915290825290205460ff1681565b60166020526000908152604090205481565b600b60209081526000928352604080842090915290825290205460ff1681565b6000601e60008360405160200180806020018281038252838181518152602001915080519060200190808383600083811015612bf6578181015183820152602001612bde565b600054600160a060020a03165b90565b6000601d6000836040516020018080602001828103825283818151815260200191508051906020019080838360005b8381101561328457818101518382015260200161326c565b50505050905090810190601f1680156132b15780820380516001836020036101000a031916815260200191505b5060408051808303601f190181529181528151602092830120865290850195909552505050016000205460ff1692915050565b6132ec61322d565b600160a060020a031633600160a060020a03161415801561331d57503360009081526006602052604090205460ff16155b801561333957503360009081526005602052604090205460ff16155b1561334357600080fd5b61334b614d5a565b604051809103906000f080158015613367573d6000803e3d6000fd5b5060258054600160a060020a031916600160a060020a0392831617905560248054604080517f413c6d13000000000000000000000000000000000000000000000000000000008152309381019390935260048301819052600760448401527f4b59432f4b594300000000000000000000000000000000000000000000000000606484015251921691829163413c6d1391608480830192600092919082900301818387803b15801561341757600080fd5b505af115801561342b573d6000803e3d6000fd5b5050505050565b61343a61322d565b600160a060020a031633600160a060020a03161415801561346b57503360009081526006602052604090205460ff16155b801561348757503360009081526005602052604090205460ff16155b1561349157600080fd5b6000836040516020018080602001828103825283818151815260200191508051906020019080838360005b838110156134d45781810151838201526020016134bc565b50505050905090810190601f1680156135015780820380516001836020036101000a031916815260200191505b5060408051601f198184030181529181528151602092830120600081815260178452828120600160a060020a038b16825290935291205490945060ff16151592506135c791505057600081815260166020908152604080832054601883528184208185529092529091208054600160a060020a031916600160a060020a03861617905561358f816001614c0e565b60008381526016602090815260408083209390935560178152828220600160a060020a0388168352905220805460ff19166001179055505b6000908152601560209081526040808320600160a060020a0395909516835293905291909120805460ff191691151591909117905550565b602854604080517ffd255683000000000000000000000000000000000000000000000000000000008152602060048201819052600860248301527f414e47746f6b656e00000000000000000000000000000000000000000000000060448301529151600160a060020a0390931692839263fd2556839260648082019391829003018186803b15801561369057600080fd5b505afa1580156136a4573d6000803e3d6000fd5b505050506040513d60208110156136ba57600080fd5b5051602a8054600160a060020a031916600160a060020a039283161790556040805160e060020a634f161245028152602060048201819052601060248301527f414e47746f6b656e7372617465455448000000000000000000000000000000006044830152915192841692634f16124592606480840193919291829003018186803b15801561374857600080fd5b505afa15801561375c573d6000803e3d6000fd5b505050506040513d602081101561377257600080fd5b50516029556040805160e060020a634f161245028152602060048201819052600d60248301527f414e4770657263656e743130300000000000000000000000000000000000000060448301529151600160a060020a03841692634f1612459260648082019391829003018186803b1580156137ec57600080fd5b505afa158015613800573d6000803e3d6000fd5b505050506040513d602081101561381657600080fd5b5051602b55604080517ffd255683000000000000000000000000000000000000000000000000000000008152602060048201819052600760248301527f4b59432f4b59430000000000000000000000000000000000000000000000000060448301529151600160a060020a0384169263fd2556839260648082019391829003018186803b1580156138a657600080fd5b505afa1580156138ba573d6000803e3d6000fd5b505050506040513d60208110156138d057600080fd5b5051602c8054600160a060020a031916600160a060020a03928316179055604080517f7ec13996000000000000000000000000000000000000000000000000000000008152602060048201819052601760248301527f746f6b656e73616c652f646973636f756e745f776f72640000000000000000006044830152915192841692637ec1399692606480840193919291829003018186803b15801561397457600080fd5b505afa158015613988573d6000803e3d6000fd5b505050506040513d602081101561399e57600080fd5b5051602d556040805160e060020a634f161245028152602060048201819052601760248301527f746f6b656e73616c652f646973636f756e745f73697a6500000000000000000060448301529151600160a060020a03841692634f1612459260648082019391829003018186803b158015613a1857600080fd5b505afa158015613a2c573d6000803e3d6000fd5b505050506040513d6020811015613a4257600080fd5b5051602e556040805160e060020a634f161245028152602060048201819052601960248301527f746f6b656e73616c652f646973636f756e745f616d6f756e740000000000000060448301529151600160a060020a03841692634f1612459260648082019391829003018186803b158015613abc57600080fd5b505afa158015613ad0573d6000803e3d6000fd5b505050506040513d6020811015613ae657600080fd5b5051602f5550565b600060116000846040516020018080602001828103825283818151815260200191508051906020019080838360005b83811015613b35578181015183820152602001613b1d565b50505050905090810190601f168015613b625780820380516001836020036101000a031916815260200191505b5060408051601f1981840301815291815281516020928301208652858201969096529385016000908120600160a060020a03891682529094525050502054905092915050565b613bb061322d565b600160a060020a031633600160a060020a031614158015613be157503360009081526006602052604090205460ff16155b8015613bfd57503360009081526005602052604090205460ff16155b15613c0757600080fd5b80601e60008460405160200180806020018281038252838181518152602001915080519060200190808383600083811015611d19578181015183820152602001611d01565b60025481565b60066020526000908152604090205460ff1681565b60106020908152600092835260408084209091529082529020805460019091015482565b600160a060020a038084166000908152602260205260409020600101548491163314613cb657600080fd5b60088310613cc357600080fd5b600160a060020a0384166000908152602080526040902082908460088110613ce757fe5b015550505050565b613cf761322d565b600160a060020a03163314613d0b57600080fd5b600160a060020a0381166000908152600660209081526040808320805460ff19166001179055600890915290205460ff161515613d9f57600160a060020a0381166000818152600860209081526040808320805460ff19166001908117909155600280548552600490935292208054600160a060020a0319169093179092559054613d9b9163ffffffff614c0e16565b6002555b604051600160a060020a038216907ffba24c034afca607a35e1f221b154b3f8e1f88c7924c8a0a06755b70708c44d890600090a250565b613dde61322d565b600160a060020a031633600160a060020a031614158015613e0f57503360009081526006602052604090205460ff16155b8015613e2b57503360009081526005602052604090205460ff16155b15613e3557600080fd5b80601c6000846040516020018080602001828103825283818151815260200191508051906020019080838360005b83811015613e7b578181015183820152602001613e63565b50505050905090810190601f168015613ea85780820380516001836020036101000a031916815260200191505b50925050506040516020818303038152906040528051906020012081526020019081526020016000209080519060200190613ee4929190614d6a565b505050565b600160a060020a038084166000908152602260205260409020600101548491163314613f1457600080fd5b601f54604080517ffd255683000000000000000000000000000000000000000000000000000000008152602060048201819052600f60248301527f414e475f73797374656d5f61646472000000000000000000000000000000000060448301529151600160a060020a0390931692600092849263fd2556839260648083019392829003018186803b158015613fa857600080fd5b505afa158015613fbc573d6000803e3d6000fd5b505050506040513d6020811015613fd257600080fd5b50516040805160e060020a634f161245028152602060048201819052600c60248301527f6f75725f7368617265313030000000000000000000000000000000000000000060448301529151929350600092600160a060020a03861692634f1612459260648082019391829003018186803b15801561404f57600080fd5b505afa158015614063573d6000803e3d6000fd5b505050506040513d602081101561407957600080fd5b50519050614088878383614c46565b151561409357600080fd5b336022600089600160a060020a0316600160a060020a0316815260200190815260200160002060010160006101000a815481600160a060020a030219169083600160a060020a03160217905550856022600089600160a060020a0316600160a060020a0316815260200190815260200160002060030181905550846022600089600160a060020a0316600160a060020a0316815260200190815260200160002060040160006101000a81548163ffffffff021916908360e060020a9004021790555060238790806001815401808255809150509060018203906000526020600020016000909192909190916101000a815481600160a060020a030219169083600160a060020a03160217905550506023805490506022600089600160a060020a0316600160a060020a03168152602001908152602001600020600001819055507f5af8025d6adb7569fd240c526c29e6dd2279a32d84fda1f040d2c64ad2dae27b6022600089600160a060020a0316600160a060020a0316815260200190815260200160002060010160009054906101000a9004600160a060020a031688602260008b600160a060020a0316600160a060020a0316815260200190815260200160002060030154602260008c600160a060020a0316600160a060020a0316815260200190815260200160002060020160009054906101000a9004600160a060020a03166040518085600160a060020a0316600160a060020a0316815260200184600160a060020a0316600160a060020a0316815260200183815260200182600160a060020a0316600160a060020a0316815260200194505050505060405180910390a150505050505050565b6014602090815260009283526040808420909152908252902054600160a060020a031681565b6018602090815260009283526040808420909152908252902054600160a060020a031681565b600460205260009081526040902054600160a060020a031681565b602380548290811061437457fe5b600091825260209091200154600160a060020a0316905081565b61439661322d565b600160a060020a031633600160a060020a0316141580156143c757503360009081526006602052604090205460ff16155b80156143e357503360009081526005602052604090205460ff16155b156143ed57600080fd5b60288054600160a060020a031916600160a060020a038381169190911791829055604080517f413c6d1300000000000000000000000000000000000000000000000000000000815230602482015260048101829052601960448201527f746f6b656e73616c652f45786368616e6765414e475f45544800000000000000606482015290519290911691829163413c6d1391608480830192600092919082900301818387803b15801561449e57600080fd5b505af11580156144b2573d6000803e3d6000fd5b505050505050565b602260205260009081526040902080546001820154600283015460038401546004909401549293600160a060020a0392831693929091169160e060020a0285565b602c54600160a060020a031681565b602a54600160a060020a031681565b600160a060020a03808516600090815260226020526040902060010154859116331461454457600080fd5b50600160a060020a039384166000908152602260205260409020600181018054600160a060020a03191694909516939093179093556003820155600401805463ffffffff191660e060020a909204919091179055565b60126020526000908152604090205481565b602a54602c54604080517f663e91f2000000000000000000000000000000000000000000000000000000008152600160a060020a03868116600483015260eb60020a6208aa8902602483015291519382169392909116916000918591849163663e91f291604480830192602092919082900301818887803b15801561463057600080fd5b505af1158015614644573d6000803e3d6000fd5b505050506040513d602081101561465a57600080fd5b5051031161466757600080fd5b60006064602b5460640360295486020281151561468057fe5b04905082600160a060020a031663a9059cbb86836040518363ffffffff1660e060020a0281526004018083600160a060020a0316600160a060020a0316815260200182815260200192505050602060405180830381600087803b1580156146e657600080fd5b505af11580156146fa573d6000803e3d6000fd5b505050506040513d602081101561471057600080fd5b50506040805160e060020a634e6091f3028152600160a060020a03878116600483015260eb60020a6208aa8902602483015260448201879052915191841691634e6091f39160648082019260009290919082900301818387803b15801561477657600080fd5b505af115801561478a573d6000803e3d6000fd5b50506040805160e060020a634e6091f3028152600160a060020a0389811660048301527f414e47000000000000000000000000000000000000000000000000000000000060248301526044820186905291519186169350634e6091f3925060648082019260009290919082900301818387803b15801561480957600080fd5b505af115801561481d573d6000803e3d6000fd5b505060408051600160a060020a03891681526020810185905281517f0c7c369f5fed41a326fd0a7f48eb4fd51dfe3ab2ca5d1fda279a1680000aaf219450908190039091019150a15050505050565b600060156000846040516020018080602001828103825283818151815260200191508051906020019080838360005b838110156148b357818101518382015260200161489b565b50505050905090810190601f1680156148e05780820380516001836020036101000a031916815260200191505b5060408051601f1981840301815291815281516020928301208652858201969096529385016000908120600160a060020a0389168252909452505050205460ff16905092915050565b6000806149358461288f565b11156149985750604080516c01000000000000000000000000600160a060020a0385160260208083019190915260348083018590528351808403909101815260549092018352815191810191909120600090815260219091522060010154612d62565b50604080516c01000000000000000000000000600160a060020a0385160260208083019190915260348083018590528351808403909101815260549092018352815191810191909120600090815260219091522060040154612d62565b6000601660008360405160200180806020018281038252838181518152602001915080519060200190808383600083811015612bf6578181015183820152602001612bde565b601360209081526000928352604080842090915290825290205460ff1681565b614a6361322d565b600160a060020a03163314614a7757600080fd5b600160a060020a0381161515614a8c57600080fd5b7f8be0079c531659141344cd1fd0a4f28419497f9722a3daafe3b4186f6b6457e0614ab561322d565b60408051600160a060020a03928316815291841660208301528051918290030190a1612cbf81614c24565b614ae861322d565b600160a060020a031633600160a060020a031614158015614b1957503360009081526006602052604090205460ff16155b8015614b3557503360009081526005602052604090205460ff16155b15614b3f57600080fd5b60288054600160a060020a031916600160a060020a0392909216919091179055565b6000601b6000836040516020018080602001828103825283818151815260200191508051906020019080838360005b83811015614ba8578181015183820152602001614b90565b50505050905090810190601f168015614bd55780820380516001836020036101000a031916815260200191505b5060408051808303601f1901815291815281516020928301208652908501959095525050500160002054600160a060020a031692915050565b600082820183811015614c1d57fe5b9392505050565b60008054600160a060020a031916600160a060020a0392909216919091179055565b60008084600160a060020a03166318160ddd6040518163ffffffff1660e060020a02815260040160206040518083038186803b158015614c8557600080fd5b505afa158015614c99573d6000803e3d6000fd5b505050506040513d6020811015614caf57600080fd5b5051604080517f70a08231000000000000000000000000000000000000000000000000000000008152600160a060020a0387811660048301529151929350600092918816916370a0823191602480820192602092909190829003018186803b158015614d1a57600080fd5b505afa158015614d2e573d6000803e3d6000fd5b505050506040513d6020811015614d4457600080fd5b5051606494909202939093041115949350505050565b604051610cc980614e0383390190565b828054600181600116156101000203166002900490600052602060002090601f016020900481019282601f10614dab57805160ff1916838001178555614dd8565b82800160010185558215614dd8579182015b82811115614dd8578251825591602001919060010190614dbd565b50614de4929150614de8565b5090565b61323a91905b80821115614de45760008155600101614dee56fe6080604052671bc16d674ec80000600a5534801561001c57600080fd5b50610c9d8061002c6000396000f3fe6080604052600436106100fb5763ffffffff7c01000000000000000000000000000000000000000000000000000000006000350416630489882e81146101005780631785f53c14610127578063192ebb521461015c578063313f2a2114610195578063429b62e5146101db5780634902e4aa146102225780634e6091f31461025557806364a04b59146102945780636ae923c8146102c757806370480275146103065780638da5cb5b146103395780639df152dc1461034e578063abf7b06314610363578063ad25cb4214610378578063b3292ff0146103ab578063c3894398146103de578063c8bc040714610408578063f2fde38b1461043b575b600080fd5b34801561010c57600080fd5b5061011561046e565b60408051918252519081900360200190f35b34801561013357600080fd5b5061015a6004803603602081101561014a57600080fd5b5035600160a060020a0316610474565b005b34801561016857600080fd5b506101156004803603604081101561017f57600080fd5b50600160a060020a038135169060200135610500565b3480156101a157600080fd5b506101bf600480360360208110156101b857600080fd5b50356105a9565b60408051600160a060020a039092168252519081900360200190f35b3480156101e757600080fd5b5061020e600480360360208110156101fe57600080fd5b5035600160a060020a03166105c4565b604080519115158252519081900360200190f35b34801561022e57600080fd5b5061015a6004803603602081101561024557600080fd5b5035600160a060020a03166105d9565b34801561026157600080fd5b5061015a6004803603606081101561027857600080fd5b50600160a060020a03813516906020810135906040013561063e565b3480156102a057600080fd5b5061015a600480360360208110156102b757600080fd5b5035600160a060020a031661068b565b3480156102d357600080fd5b5061015a600480360360608110156102ea57600080fd5b50600160a060020a0381351690602081013590604001356106b3565b34801561031257600080fd5b5061015a6004803603602081101561032957600080fd5b5035600160a060020a03166106fd565b34801561034557600080fd5b506101bf610817565b34801561035a57600080fd5b5061015a610826565b34801561036f57600080fd5b50610115610948565b34801561038457600080fd5b5061020e6004803603602081101561039b57600080fd5b5035600160a060020a031661094e565b3480156103b757600080fd5b5061015a600480360360208110156103ce57600080fd5b5035600160a060020a0316610963565b3480156103ea57600080fd5b506101bf6004803603602081101561040157600080fd5b5035610a57565b34801561041457600080fd5b5061015a6004803603602081101561042b57600080fd5b5035600160a060020a0316610a72565b34801561044757600080fd5b5061015a6004803603602081101561045e57600080fd5b5035600160a060020a0316610bab565b60015481565b61047c610817565b600160a060020a031633600160a060020a0316141580156104ad57503360009081526006602052604090205460ff16155b156104b757600080fd5b600160a060020a038116600081815260056020526040808220805460ff19169055517f753f40ca3312b2408759a67875b367955e7baa221daf08aa3d643d96202ac12b9190a250565b6040805160208082018490528251808303820181529183018352815191810191909120600160a060020a0385166000908152600b835283812082825290925291812054909190151561057457600a54600160a060020a0385166000908152600b602090815260408083208584529091529020555b600160a060020a03939093166000908152600b6020908152604080832095835294905292909220600181015490540392915050565b600360205260009081526040902054600160a060020a031681565b60056020526000908152604090205460ff1681565b6105e1610817565b600160a060020a031633146105f557600080fd5b600160a060020a038116600081815260066020526040808220805460ff19169055517f1aaaaf7609619e631f47eb3546f9fdd8c61b1af2175988a0ddb9a06680c3b9ed9190a250565b604080516020808201949094528151808203850181529082018252805190840120600160a060020a039094166000908152600b845281812094815293909252912060010180549091019055565b610693610817565b600160a060020a031633146106a757600080fd5b6106b081610c2c565b50565b604080516020808201949094528151808203850181529082018252805190840120600160a060020a039094166000908152600b845281812094815293909252912080549091019055565b610705610817565b600160a060020a031633600160a060020a03161415801561073657503360009081526006602052604090205460ff16155b1561074057600080fd5b600160a060020a0381166000908152600560209081526040808320805460ff19166001179055600790915290205460ff1615156107e057600160a060020a0381166000818152600760209081526040808320805460ff19166001908117909155805484526003909252909120805473ffffffffffffffffffffffffffffffffffffffff191690921790915580546107dc9163ffffffff610c5b16565b6001555b604051600160a060020a038216907fad6de4452a631e641cb59902236607946ce9272b9b981f2f80e8d129cb9084ba90600090a250565b600054600160a060020a031690565b61082e610817565b600160a060020a031633600160a060020a03161415801561085f57503360009081526006602052604090205460ff16155b801561087b57503360009081526005602052604090205460ff16155b1561088557600080fd5b600954604080517f4f161245000000000000000000000000000000000000000000000000000000008152602060048201819052601160248301527f4b59432f4b59435f7468726573686f6c6400000000000000000000000000000060448301529151600160a060020a03909316928392634f1612459260648082019391829003018186803b15801561091657600080fd5b505afa15801561092a573d6000803e3d6000fd5b505050506040513d602081101561094057600080fd5b5051600a5550565b60025481565b60066020526000908152604090205460ff1681565b61096b610817565b600160a060020a0316331461097f57600080fd5b600160a060020a0381166000908152600660209081526040808320805460ff19166001179055600890915290205460ff161515610a2057600160a060020a0381166000818152600860209081526040808320805460ff1916600190811790915560028054855260049093529220805473ffffffffffffffffffffffffffffffffffffffff19169093179092559054610a1c9163ffffffff610c5b16565b6002555b604051600160a060020a038216907ffba24c034afca607a35e1f221b154b3f8e1f88c7924c8a0a06755b70708c44d890600090a250565b600460205260009081526040902054600160a060020a031681565b610a7a610817565b600160a060020a031633600160a060020a031614158015610aab57503360009081526006602052604090205460ff16155b8015610ac757503360009081526005602052604090205460ff16155b15610ad157600080fd5b6009805473ffffffffffffffffffffffffffffffffffffffff1916600160a060020a038381169190911791829055604080517f413c6d1300000000000000000000000000000000000000000000000000000000815230602482015260048101829052601b60448201527f4b59432f696d706c656d656e6174696f6e2f42617369635f4b59430000000000606482015290519290911691829163413c6d1391608480830192600092919082900301818387803b158015610b8f57600080fd5b505af1158015610ba3573d6000803e3d6000fd5b505050505050565b610bb3610817565b600160a060020a03163314610bc757600080fd5b600160a060020a0381161515610bdc57600080fd5b7f8be0079c531659141344cd1fd0a4f28419497f9722a3daafe3b4186f6b6457e0610c05610817565b60408051600160a060020a03928316815291841660208301528051918290030190a16106b0815b6000805473ffffffffffffffffffffffffffffffffffffffff1916600160a060020a0392909216919091179055565b600082820183811015610c6a57fe5b939250505056fea165627a7a723058207bb15549e1d77699081412ae8c338956914755aee1081142881ed664ac4d6ec20029a165627a7a723058201c8cee9c7afb4f0776b444a121c1731617382bd81cedf57a50d3f2285d0f53b30029",
  "source": "pragma solidity ^0.5.0;\nimport \"../interface/sale-interface.sol\";\n//import \"./implementation/basic-crowdsale.sol\";\nimport \"../../tokens/token.sol\";\nimport \"../../KYC/KYC.sol\";\nimport \"../../tokens/token.sol\";\nimport \"../../admin/ExternalStorage.sol\";\n\n\n  contract sellANG_ETH is saleInterface, KYC  {\n      address External_Storage_addr;\n      uint ANG_tokens_rate_ETH; //1 ETH;\n      address public ANGtoken_addr;\n      //address public owner;\n      uint ANG_percent100;\n      //address public beneficiar;\n      address public KYC_address;\n      bytes32  discount_word;\n      uint discount_size100;\n      uint256 discount_amount;\n\n/*\n\n      constructor(address _token_address) public {\n        owner = beneficiar;\n        beneficiar = beneficiar;\n        ANGtoken = _token_address;\n      }\n*/\n//setting of valuees-----------------------------------------------------------\n\n//DATA structs------------------------------------------------------------------\n\n    //==============================================================================\n//setting of valuees-----------------------------------------------------------\n\n        function _setExternalstorageaddr(address Externalstorageaddr ) public onlyAdmins\n      {\n\n       External_Storage_addr = Externalstorageaddr;\n\n      }\n\n      function _initExternalStorage(address Externalstorageaddr) public onlyAdmins {\n\n        External_Storage_addr = Externalstorageaddr;\n        ExternalStorage ES = ExternalStorage(External_Storage_addr);\n        ES.setAddressValue(\"tokensale/ExchangeANG_ETH\", address(this));\n\n    }\n\n    function load_conditions_ES () public  { //when something changes\n        ExternalStorage ES = ExternalStorage(External_Storage_addr);\n        ANGtoken_addr =  ES.getAddressValue(\"ANGtoken\");\n        ANG_tokens_rate_ETH = ES.getUIntValue(\"ANGtokensrateETH\");\n        ANG_percent100 = ES.getUIntValue(\"ANGpercent100\");\n        KYC_address = ES.getAddressValue(\"KYC/KYC\");\n        discount_word =  ES.getBytes32Value(\"tokensale/discount_word\");\n        discount_size100 = ES.getUIntValue(\"tokensale/discount_size\");\n        discount_amount =  ES.getUIntValue(\"tokensale/discount_amount\");\n        // project Projectcurrent =  project(Projectaddr);\n        //address Projecttokenaddr = Projectcurrent.ProjectsList(ProjectID);\n    }\n\n\n\n    function sellANGETH(address beneficiar, uint256 summa)  external  { //simple buy ANG for Ether\n\n        token ANGtoken = token( ANGtoken_addr);\n\n        KYC KYC_ = KYC(KYC_address);\n        require  (KYC_.allowed_invest(beneficiar, \"ETH\") - summa > 0);\n          uint256 ANG_tokens_amount = summa* ANG_tokens_rate_ETH * (100 - ANG_percent100) / 100;\n          ANGtoken.transfer(beneficiar,ANG_tokens_amount);\n          KYC_.register_invest (beneficiar, \"ETH\", summa);\n          KYC_.register_invest (beneficiar, \"ANG\", ANG_tokens_amount);\n          emit Purchase_ANG (beneficiar, ANG_tokens_amount);\n\n        }\n\n\n    function sell_discount (address beneficiar, uint256 summa, bytes32 pass_word) external  {\n        token ANGtoken = token( ANGtoken_addr);\n        KYC KYC_ = KYC(KYC_address);\n        require ((discount_amount > summa) && (KYC_.allowed_invest(beneficiar, \"ETH\") - summa > 0) &&  (pass_word == discount_word));\n\n              uint256 ANG_tokens_amount = summa * ANG_tokens_rate_ETH *(100 - ANG_percent100)*(discount_size100 +100)/10000;\n              discount_amount -= summa;\n              ANGtoken.transfer(beneficiar,ANG_tokens_amount);\n              KYC_.register_invest (beneficiar, \"ETH\", summa);\n              KYC_.register_invest (beneficiar, \"ANG\", ANG_tokens_amount);\n              emit Purchase_ANG (beneficiar, ANG_tokens_amount);\n\n        }\n\n      \n\n      event Log_no_KYC(address investor);\n      //event Change_KYC_level(address investor);\n      event Purchase_ANG (address investor, uint256 sum);\n  }\n",
  "sourcePath": "/home/sergey/Documents/angels/Angeles.VC-token-scrum-investing/contracts/tokensale/implementation/sellANG_ETH.sol",
  "compiler": {
    "name": "solc",
    "version": "0.5.0+commit.1d4f565a.Emscripten.clang"
  },
  "schemaVersion": "3.0.2",
  "updatedAt": "2019-03-26T11:37:43.543Z",
  "devdoc": {
    "methods": {
      "ownable(address)": {
        "details": "The constructor sets the original owner of the contract to the sender account."
      },
      "owner()": {
        "details": "Tells the address of the owner",
        "return": "the address of the owner"
      },
      "transferOwnership(address)": {
        "details": "Allows the current owner to transfer control of the contract to a newOwner.",
        "params": {
          "newOwner": "The address to transfer ownership to."
        }
      }
    }
  },
  "userdoc": {
    "methods": {}
  }
}