{
  "contractName": "simpleReciever",
  "abi": [
    {
      "constant": false,
      "inputs": [
        {
          "name": "newowner",
          "type": "address"
        }
      ],
      "name": "ownable",
      "outputs": [],
      "payable": false,
      "stateMutability": "nonpayable",
      "type": "function"
    },
    {
      "constant": true,
      "inputs": [],
      "name": "owner",
      "outputs": [
        {
          "name": "",
          "type": "address"
        }
      ],
      "payable": false,
      "stateMutability": "view",
      "type": "function"
    },
    {
      "constant": false,
      "inputs": [
        {
          "name": "newOwner",
          "type": "address"
        }
      ],
      "name": "transferOwnership",
      "outputs": [],
      "payable": false,
      "stateMutability": "nonpayable",
      "type": "function"
    },
    {
      "anonymous": false,
      "inputs": [
        {
          "indexed": false,
          "name": "previousOwner",
          "type": "address"
        },
        {
          "indexed": false,
          "name": "newOwner",
          "type": "address"
        }
      ],
      "name": "OwnershipTransferred",
      "type": "event"
    },
    {
      "constant": false,
      "inputs": [
        {
          "name": "newowner",
          "type": "address"
        }
      ],
      "name": "SimpleReciever",
      "outputs": [],
      "payable": false,
      "stateMutability": "nonpayable",
      "type": "function"
    },
    {
      "constant": false,
      "inputs": [
        {
          "name": "sender",
          "type": "address"
        },
        {
          "name": "receiver",
          "type": "address"
        },
        {
          "name": "value",
          "type": "uint256"
        },
        {
          "name": "data",
          "type": "bytes32"
        }
      ],
      "name": "tokenFallback",
      "outputs": [
        {
          "name": "",
          "type": "bool"
        }
      ],
      "payable": false,
      "stateMutability": "nonpayable",
      "type": "function"
    },
    {
      "constant": false,
      "inputs": [
        {
          "name": "sender",
          "type": "address"
        },
        {
          "name": "value",
          "type": "uint256"
        },
        {
          "name": "data",
          "type": "bytes32"
        }
      ],
      "name": "tokenFallback",
      "outputs": [
        {
          "name": "",
          "type": "bool"
        }
      ],
      "payable": false,
      "stateMutability": "nonpayable",
      "type": "function"
    },
    {
      "constant": false,
      "inputs": [
        {
          "name": "tokenAddress",
          "type": "address"
        }
      ],
      "name": "whitelist",
      "outputs": [
        {
          "name": "",
          "type": "bool"
        }
      ],
      "payable": false,
      "stateMutability": "nonpayable",
      "type": "function"
    },
    {
      "constant": false,
      "inputs": [
        {
          "name": "tokenAddress",
          "type": "address"
        }
      ],
      "name": "blacklist",
      "outputs": [
        {
          "name": "",
          "type": "bool"
        }
      ],
      "payable": false,
      "stateMutability": "nonpayable",
      "type": "function"
    }
  ],
  "bytecode": "0x608060405234801561001057600080fd5b506104ef806100206000396000f3fe60806040526004361061008d5763ffffffff7c01000000000000000000000000000000000000000000000000000000006000350416634af817e6811461009257806364a04b59146100c75780637f703d1d146100fa5780638397cc94146101575780638da5cb5b146101965780639b19251a146101c7578063f2fde38b146101fa578063f9f92be41461022d575b600080fd5b34801561009e57600080fd5b506100c5600480360360208110156100b557600080fd5b5035600160a060020a0316610260565b005b3480156100d357600080fd5b506100c5600480360360208110156100ea57600080fd5b5035600160a060020a03166102ab565b34801561010657600080fd5b506101436004803603608081101561011d57600080fd5b50600160a060020a038135811691602081013590911690604081013590606001356102d3565b604080519115158252519081900360200190f35b34801561016357600080fd5b506101436004803603606081101561017a57600080fd5b50600160a060020a038135169060208101359060400135610355565b3480156101a257600080fd5b506101ab61035c565b60408051600160a060020a039092168252519081900360200190f35b3480156101d357600080fd5b50610143600480360360208110156101ea57600080fd5b5035600160a060020a031661036b565b34801561020657600080fd5b506100c56004803603602081101561021d57600080fd5b5035600160a060020a03166103b9565b34801561023957600080fd5b506101436004803603602081101561025057600080fd5b5035600160a060020a031661043e565b61026861035c565b600160a060020a0316331461027c57600080fd5b6002805473ffffffffffffffffffffffffffffffffffffffff1916600160a060020a0392909216919091179055565b6102b361035c565b600160a060020a031633146102c757600080fd5b6102d08161047e565b50565b60006102dd61035c565b600160a060020a031633146102f157600080fd5b600154600160a060020a0386811691161461030b57600080fd5b600160a060020a038416600090815260036020526040902054610334908463ffffffff6104ad16565b600160a060020a038516600090815260036020526040902055949350505050565b6000806000fd5b600054600160a060020a031690565b600061037561035c565b600160a060020a0316331461038957600080fd5b5060018054600160a060020a03831673ffffffffffffffffffffffffffffffffffffffff19909116178155919050565b6103c161035c565b600160a060020a031633146103d557600080fd5b600160a060020a03811615156103ea57600080fd5b7f8be0079c531659141344cd1fd0a4f28419497f9722a3daafe3b4186f6b6457e061041361035c565b60408051600160a060020a03928316815291841660208301528051918290030190a16102d08161047e565b600061044861035c565b600160a060020a0316331461045c57600080fd5b50506001805473ffffffffffffffffffffffffffffffffffffffff1916815590565b6000805473ffffffffffffffffffffffffffffffffffffffff1916600160a060020a0392909216919091179055565b6000828201838110156104bc57fe5b939250505056fea165627a7a7230582001d70e4b81a847312cb8ba0f2b008ded750a50dd3419904af04732479c67b75e0029",
  "source": "pragma solidity ^0.5.0;\nimport \"../../libraries/SafeMath.sol\";\nimport \"../interface/receiver-interface.sol\";\nimport \"../../admin/Ownable.sol\";\n\n/*@title Receiver contract Abstract Class\n *@dev this is an abstract class that is the building block of any contract that is supposed to recieve ERC223 token\n */\ncontract simpleReciever is receiverInterface , Ownable {\n    using SafeMath for uint256;\n    address private _acceptedAddress;\n    address private _owner;\n    mapping (address => uint256) private _balances;\n\n\n\n    function SimpleReciever(address newowner) onlyOwner public{\n      _owner=newowner;\n    }\n    /*\n    // If you want to accept a list of tokens : [Toekn Contract Address] => [boolean]\n    mapping (address =>bool) private _acceptedAddress;\n    */\n\n    /*\n     *@dev this is the fallback function that is invoked when a contract recieves ERC223 tokens\n     *@params address addr is the address that sends tokens to this contract\n     *@params uint value is the number of tokens being sent to this contract\n     *@params bytes data is the message that was sent to this contract\n     *@returns a boolean value representing success or failure of the operation\n     */\n    function tokenFallback(address sender,address receiver, uint256 value, bytes32  data) external onlyOwner returns(bool)\n    {\n\n      if (sender!=_acceptedAddress)\n      {\n          revert();\n      }\n      else\n      {\n        _balances[receiver] = _balances[receiver].add(value);\n      }\n    }\n    function tokenFallback(address sender, uint256 value, bytes32  data) external returns(bool)\n    {\n      revert();\n    }\n\n    //Todo:add test to make sure it is ERC223 Token\n    function whitelist(address tokenAddress) external onlyOwner returns(bool) {\n\n        _acceptedAddress = tokenAddress;\n        return true;\n\n    }\n    function blacklist(address tokenAddress) external onlyOwner returns(bool) {\n\n        _acceptedAddress = address(0);\n        return true;\n\n    }\n\n\n}\n",
  "sourcePath": "/home/sergey/Documents/angels/Angeles.VC-token-scrum-investing/contracts/receiver/implementation/simple-receiver.sol",
  "compiler": {
    "name": "solc",
    "version": "0.5.0+commit.1d4f565a.Emscripten.clang"
  },
  "schemaVersion": "3.0.2",
  "updatedAt": "2019-03-26T11:37:43.493Z",
  "devdoc": {
    "methods": {
      "ownable(address)": {
        "details": "The constructor sets the original owner of the contract to the sender account."
      },
      "owner()": {
        "details": "Tells the address of the owner",
        "return": "the address of the owner"
      },
      "transferOwnership(address)": {
        "details": "Allows the current owner to transfer control of the contract to a newOwner.",
        "params": {
          "newOwner": "The address to transfer ownership to."
        }
      }
    }
  },
  "userdoc": {
    "methods": {}
  }
}