{
  "contractName": "simpleReciever",
  "abi": [
    {
      "constant": false,
      "inputs": [
        {
          "name": "_sender_address",
          "type": "address"
        }
      ],
      "name": "check_owner",
      "outputs": [
        {
          "name": "",
          "type": "bool"
        }
      ],
      "payable": false,
      "stateMutability": "nonpayable",
      "type": "function"
    },
    {
      "constant": false,
      "inputs": [
        {
          "name": "BasicAdministratableaddr",
          "type": "address"
        }
      ],
      "name": "_initAdministratable",
      "outputs": [],
      "payable": false,
      "stateMutability": "nonpayable",
      "type": "function"
    },
    {
      "constant": false,
      "inputs": [
        {
          "name": "msgSender",
          "type": "address"
        }
      ],
      "name": "checkAdmin",
      "outputs": [
        {
          "name": "",
          "type": "bool"
        }
      ],
      "payable": false,
      "stateMutability": "nonpayable",
      "type": "function"
    },
    {
      "constant": false,
      "inputs": [
        {
          "name": "msgSender",
          "type": "address"
        }
      ],
      "name": "checkSuperAdmin",
      "outputs": [
        {
          "name": "",
          "type": "bool"
        }
      ],
      "payable": false,
      "stateMutability": "nonpayable",
      "type": "function"
    },
    {
      "constant": false,
      "inputs": [
        {
          "name": "newowner",
          "type": "address"
        }
      ],
      "name": "SimpleReciever",
      "outputs": [],
      "payable": false,
      "stateMutability": "nonpayable",
      "type": "function"
    },
    {
      "constant": false,
      "inputs": [
        {
          "name": "sender",
          "type": "address"
        },
        {
          "name": "receiver",
          "type": "address"
        },
        {
          "name": "value",
          "type": "uint256"
        },
        {
          "name": "data",
          "type": "bytes32"
        }
      ],
      "name": "tokenFallback",
      "outputs": [
        {
          "name": "",
          "type": "bool"
        }
      ],
      "payable": false,
      "stateMutability": "nonpayable",
      "type": "function"
    },
    {
      "constant": false,
      "inputs": [
        {
          "name": "sender",
          "type": "address"
        },
        {
          "name": "value",
          "type": "uint256"
        },
        {
          "name": "data",
          "type": "bytes32"
        }
      ],
      "name": "tokenFallback",
      "outputs": [
        {
          "name": "",
          "type": "bool"
        }
      ],
      "payable": false,
      "stateMutability": "nonpayable",
      "type": "function"
    },
    {
      "constant": false,
      "inputs": [
        {
          "name": "tokenAddress",
          "type": "address"
        }
      ],
      "name": "whitelist",
      "outputs": [
        {
          "name": "",
          "type": "bool"
        }
      ],
      "payable": false,
      "stateMutability": "nonpayable",
      "type": "function"
    },
    {
      "constant": false,
      "inputs": [
        {
          "name": "tokenAddress",
          "type": "address"
        }
      ],
      "name": "blacklist",
      "outputs": [
        {
          "name": "",
          "type": "bool"
        }
      ],
      "payable": false,
      "stateMutability": "nonpayable",
      "type": "function"
    }
  ],
  "bytecode": "0x608060405234801561001057600080fd5b506105de806100206000396000f3fe6080604052600436106100985763ffffffff7c01000000000000000000000000000000000000000000000000000000006000350416630c3504c9811461009d57806342716730146100e45780634af817e6146101195780637f703d1d1461014c5780638397cc94146101955780639026dee8146101d45780639b19251a14610207578063a1d658b11461023a578063f9f92be41461026d575b600080fd5b3480156100a957600080fd5b506100d0600480360360208110156100c057600080fd5b5035600160a060020a03166102a0565b604080519115158252519081900360200190f35b3480156100f057600080fd5b506101176004803603602081101561010757600080fd5b5035600160a060020a031661033d565b005b34801561012557600080fd5b506101176004803603602081101561013c57600080fd5b5035600160a060020a0316610380565b34801561015857600080fd5b506100d06004803603608081101561016f57600080fd5b50600160a060020a038135811691602081013590911690604081013590606001356103c3565b3480156101a157600080fd5b506100d0600480360360608110156101b857600080fd5b50600160a060020a03813516906020810135906040013561043d565b3480156101e057600080fd5b506100d0600480360360208110156101f757600080fd5b5035600160a060020a0316610444565b34801561021357600080fd5b506100d06004803603602081101561022a57600080fd5b5035600160a060020a03166104af565b34801561024657600080fd5b506100d06004803603602081101561025d57600080fd5b5035600160a060020a03166104f7565b34801561027957600080fd5b506100d06004803603602081101561029057600080fd5b5035600160a060020a0316610562565b600254604080517f0c3504c9000000000000000000000000000000000000000000000000000000008152600160a060020a03848116600483015291516000939290921691630c3504c99160248082019260209290919082900301818787803b15801561030b57600080fd5b505af115801561031f573d6000803e3d6000fd5b505050506040513d602081101561033557600080fd5b505192915050565b610346336102a0565b151561035157600080fd5b6002805473ffffffffffffffffffffffffffffffffffffffff1916600160a060020a0392909216919091179055565b610389336102a0565b151561039457600080fd5b6004805473ffffffffffffffffffffffffffffffffffffffff1916600160a060020a0392909216919091179055565b60006103ce336102a0565b15156103d957600080fd5b600354600160a060020a038681169116146103f357600080fd5b600160a060020a03841660009081526005602052604090205461041c908463ffffffff61059c16565b600160a060020a038516600090815260056020526040902055949350505050565b6000806000fd5b600254604080517f9026dee8000000000000000000000000000000000000000000000000000000008152600160a060020a03848116600483015291516000939290921691639026dee89160248082019260209290919082900301818787803b15801561030b57600080fd5b60006104ba336102a0565b15156104c557600080fd5b5060038054600160a060020a03831673ffffffffffffffffffffffffffffffffffffffff199091161790556001919050565b600254604080517fa1d658b1000000000000000000000000000000000000000000000000000000008152600160a060020a0384811660048301529151600093929092169163a1d658b19160248082019260209290919082900301818787803b15801561030b57600080fd5b600061056d336102a0565b151561057857600080fd5b50506003805473ffffffffffffffffffffffffffffffffffffffff19169055600190565b6000828201838110156105ab57fe5b939250505056fea165627a7a7230582059edb037e119e3c62892b39e4e674ef82551c3a093266cf1f56a82747188f63c0029",
  "source": "pragma solidity ^0.5.0;\nimport \"../../libraries/SafeMath.sol\";\nimport \"../interface/receiver-interface.sol\";\nimport \"../../admin/interface/administratable.sol\";\n\n/*@title Receiver contract Abstract Class\n *@dev this is an abstract class that is the building block of any contract that is supposed to recieve ERC223 token\n */\ncontract simpleReciever is receiverInterface , Administratable {\n    using SafeMath for uint256;\n    address private _acceptedAddress;\n    address private _owner;\n    mapping (address => uint256) private _balances;\n\n\n\n    function SimpleReciever(address newowner) onlyOwner public{\n      _owner=newowner;\n    }\n    /*\n    // If you want to accept a list of tokens : [Toekn Contract Address] => [boolean]\n    mapping (address =>bool) private _acceptedAddress;\n    */\n\n    /*\n     *@dev this is the fallback function that is invoked when a contract recieves ERC223 tokens\n     *@params address addr is the address that sends tokens to this contract\n     *@params uint value is the number of tokens being sent to this contract\n     *@params bytes data is the message that was sent to this contract\n     *@returns a boolean value representing success or failure of the operation\n     */\n    function tokenFallback(address sender,address receiver, uint256 value, bytes32  data) external onlyOwner returns(bool)\n    {\n\n      if (sender!=_acceptedAddress)\n      {\n          revert();\n      }\n      else\n      {\n        _balances[receiver] = _balances[receiver].add(value);\n      }\n    }\n    function tokenFallback(address sender, uint256 value, bytes32  data) external returns(bool)\n    {\n      revert();\n    }\n\n    //Todo:add test to make sure it is ERC223 Token\n    function whitelist(address tokenAddress) external onlyOwner returns(bool) {\n\n        _acceptedAddress = tokenAddress;\n        return true;\n\n    }\n    function blacklist(address tokenAddress) external onlyOwner returns(bool) {\n\n        _acceptedAddress = address(0);\n        return true;\n\n    }\n\n\n}\n",
  "sourcePath": "/home/sergey/Documents/angels/2083nointerfaces/Angeles.VC-token-scrum-investing/contracts/receiver/implementation/simple-receiver.sol",
  "compiler": {
    "name": "solc",
    "version": "0.5.0+commit.1d4f565a.Emscripten.clang"
  },
  "schemaVersion": "3.0.2",
  "updatedAt": "2019-03-30T13:34:15.365Z",
  "devdoc": {
    "methods": {}
  },
  "userdoc": {
    "methods": {}
  }
}