{
  "contractName": "simpleAdmin",
  "abi": [
    {
      "constant": false,
      "inputs": [
        {
          "name": "newowner",
          "type": "address"
        }
      ],
      "name": "ownable",
      "outputs": [],
      "payable": false,
      "stateMutability": "nonpayable",
      "type": "function"
    },
    {
      "constant": true,
      "inputs": [],
      "name": "discount_word",
      "outputs": [
        {
          "name": "",
          "type": "uint256"
        }
      ],
      "payable": false,
      "stateMutability": "view",
      "type": "function"
    },
    {
      "constant": true,
      "inputs": [],
      "name": "token_address",
      "outputs": [
        {
          "name": "",
          "type": "address"
        }
      ],
      "payable": false,
      "stateMutability": "view",
      "type": "function"
    },
    {
      "constant": true,
      "inputs": [],
      "name": "owner",
      "outputs": [
        {
          "name": "",
          "type": "address"
        }
      ],
      "payable": false,
      "stateMutability": "view",
      "type": "function"
    },
    {
      "constant": true,
      "inputs": [],
      "name": "_owner",
      "outputs": [
        {
          "name": "",
          "type": "address"
        }
      ],
      "payable": false,
      "stateMutability": "view",
      "type": "function"
    },
    {
      "constant": true,
      "inputs": [],
      "name": "KYC_address",
      "outputs": [
        {
          "name": "",
          "type": "address"
        }
      ],
      "payable": false,
      "stateMutability": "view",
      "type": "function"
    },
    {
      "constant": false,
      "inputs": [
        {
          "name": "newOwner",
          "type": "address"
        }
      ],
      "name": "transferOwnership",
      "outputs": [],
      "payable": false,
      "stateMutability": "nonpayable",
      "type": "function"
    },
    {
      "constant": true,
      "inputs": [],
      "name": "beneficiar",
      "outputs": [
        {
          "name": "",
          "type": "address"
        }
      ],
      "payable": false,
      "stateMutability": "view",
      "type": "function"
    },
    {
      "anonymous": false,
      "inputs": [
        {
          "indexed": false,
          "name": "previousOwner",
          "type": "address"
        },
        {
          "indexed": false,
          "name": "newOwner",
          "type": "address"
        }
      ],
      "name": "OwnershipTransferred",
      "type": "event"
    }
  ],
  "bytecode": "0x608060405260018055600560045534801561001957600080fd5b506102ff806100296000396000f3fe60806040526004361061008d5763ffffffff7c010000000000000000000000000000000000000000000000000000000060003504166364a04b5981146100925780636b752d1b146100c75780638c8e8fee146100ee5780638da5cb5b1461011f578063b2bdfa7b14610134578063cd60c8b914610149578063f2fde38b1461015e578063fedf70e314610191575b600080fd5b34801561009e57600080fd5b506100c5600480360360208110156100b557600080fd5b5035600160a060020a03166101a6565b005b3480156100d357600080fd5b506100dc6101ce565b60408051918252519081900360200190f35b3480156100fa57600080fd5b506101036101d4565b60408051600160a060020a039092168252519081900360200190f35b34801561012b57600080fd5b506101036101e3565b34801561014057600080fd5b506101036101f2565b34801561015557600080fd5b50610103610201565b34801561016a57600080fd5b506100c56004803603602081101561018157600080fd5b5035600160a060020a0316610210565b34801561019d57600080fd5b50610103610295565b6101ae6101e3565b600160a060020a031633146101c257600080fd5b6101cb816102a4565b50565b60075481565b600254600160a060020a031681565b600054600160a060020a031690565b600354600160a060020a031681565b600654600160a060020a031681565b6102186101e3565b600160a060020a0316331461022c57600080fd5b600160a060020a038116151561024157600080fd5b7f8be0079c531659141344cd1fd0a4f28419497f9722a3daafe3b4186f6b6457e061026a6101e3565b60408051600160a060020a03928316815291841660208301528051918290030190a16101cb816102a4565b600554600160a060020a031681565b6000805473ffffffffffffffffffffffffffffffffffffffff1916600160a060020a039290921691909117905556fea165627a7a72305820e7f4543d599c7392882c2e5ccb4a164064066817418565053f24be0be9f07d010029",
  "source": "pragma solidity ^0.5.0;\nimport \"../../libraries/SafeMath.sol\";\nimport \"../interface/admin-interface.sol\";\nimport \"../../tokens/token.sol\";\nimport \"../Ownable.sol\";\n\n/*@title Receiver contract Abstract Class\n *@dev this is an abstract class that is the building block of any contract that is supposed to recieve ERC223 token\n */\n //TODO add owner checks\n //TODO add cap\ncontract simpleAdmin is adminInterface, Ownable {\n    uint ANG_tokens_rate = 1 ; //1 ETH\n      address public token_address;\n      address public _owner;\n      uint ANG_percent = 5;\n      address public beneficiar;\n      address public KYC_address;\n      uint public discount_word;\n      uint discount_size;\n\n}\n",
  "sourcePath": "/home/sergey/Documents/angels/Angeles.VC-token-scrum-investing/contracts/admin/implementation/basic-admin.sol",
  "compiler": {
    "name": "solc",
    "version": "0.5.0+commit.1d4f565a.Emscripten.clang"
  },
  "schemaVersion": "3.0.2",
  "updatedAt": "2019-03-26T11:37:43.490Z",
  "devdoc": {
    "methods": {
      "ownable(address)": {
        "details": "The constructor sets the original owner of the contract to the sender account."
      },
      "owner()": {
        "details": "Tells the address of the owner",
        "return": "the address of the owner"
      },
      "transferOwnership(address)": {
        "details": "Allows the current owner to transfer control of the contract to a newOwner.",
        "params": {
          "newOwner": "The address to transfer ownership to."
        }
      }
    }
  },
  "userdoc": {
    "methods": {}
  }
}