{
  "contractName": "simpleReciever",
  "abi": [
    {
      "constant": false,
      "inputs": [
        {
          "name": "_sender_address",
          "type": "address"
        }
      ],
      "name": "check_owner",
      "outputs": [
        {
          "name": "",
          "type": "bool"
        }
      ],
      "payable": false,
      "stateMutability": "nonpayable",
      "type": "function"
    },
    {
      "constant": false,
      "inputs": [
        {
          "name": "newOwner",
          "type": "address"
        }
      ],
      "name": "setOwner",
      "outputs": [],
      "payable": false,
      "stateMutability": "nonpayable",
      "type": "function"
    },
    {
      "constant": false,
      "inputs": [
        {
          "name": "BasicAdministratableaddr",
          "type": "address"
        }
      ],
      "name": "_initAdministratable",
      "outputs": [],
      "payable": false,
      "stateMutability": "nonpayable",
      "type": "function"
    },
    {
      "constant": false,
      "inputs": [
        {
          "name": "msgSender",
          "type": "address"
        }
      ],
      "name": "checkAdmin",
      "outputs": [
        {
          "name": "",
          "type": "bool"
        }
      ],
      "payable": false,
      "stateMutability": "nonpayable",
      "type": "function"
    },
    {
      "constant": false,
      "inputs": [
        {
          "name": "msgSender",
          "type": "address"
        }
      ],
      "name": "checkSuperAdmin",
      "outputs": [
        {
          "name": "",
          "type": "bool"
        }
      ],
      "payable": false,
      "stateMutability": "nonpayable",
      "type": "function"
    },
    {
      "constant": false,
      "inputs": [
        {
          "name": "newowner",
          "type": "address"
        }
      ],
      "name": "SimpleReciever",
      "outputs": [],
      "payable": false,
      "stateMutability": "nonpayable",
      "type": "function"
    },
    {
      "constant": false,
      "inputs": [
        {
          "name": "sender",
          "type": "address"
        },
        {
          "name": "receiver",
          "type": "address"
        },
        {
          "name": "value",
          "type": "uint256"
        },
        {
          "name": "data",
          "type": "bytes32"
        }
      ],
      "name": "tokenFallback",
      "outputs": [
        {
          "name": "",
          "type": "bool"
        }
      ],
      "payable": false,
      "stateMutability": "nonpayable",
      "type": "function"
    },
    {
      "constant": false,
      "inputs": [
        {
          "name": "sender",
          "type": "address"
        },
        {
          "name": "value",
          "type": "uint256"
        },
        {
          "name": "data",
          "type": "bytes32"
        }
      ],
      "name": "tokenFallback",
      "outputs": [
        {
          "name": "",
          "type": "bool"
        }
      ],
      "payable": false,
      "stateMutability": "nonpayable",
      "type": "function"
    },
    {
      "constant": false,
      "inputs": [
        {
          "name": "tokenAddress",
          "type": "address"
        }
      ],
      "name": "whitelist",
      "outputs": [
        {
          "name": "",
          "type": "bool"
        }
      ],
      "payable": false,
      "stateMutability": "nonpayable",
      "type": "function"
    },
    {
      "constant": false,
      "inputs": [
        {
          "name": "tokenAddress",
          "type": "address"
        }
      ],
      "name": "blacklist",
      "outputs": [
        {
          "name": "",
          "type": "bool"
        }
      ],
      "payable": false,
      "stateMutability": "nonpayable",
      "type": "function"
    }
  ],
  "bytecode": "0x608060405234801561001057600080fd5b50610665806100206000396000f3fe6080604052600436106100a35763ffffffff7c01000000000000000000000000000000000000000000000000000000006000350416630c3504c981146100a857806313af4035146100ef57806342716730146101245780634af817e6146101575780637f703d1d1461018a5780638397cc94146101d35780639026dee8146102125780639b19251a14610245578063a1d658b114610278578063f9f92be4146102ab575b600080fd5b3480156100b457600080fd5b506100db600480360360208110156100cb57600080fd5b5035600160a060020a03166102de565b604080519115158252519081900360200190f35b3480156100fb57600080fd5b506101226004803603602081101561011257600080fd5b5035600160a060020a031661037b565b005b34801561013057600080fd5b506101226004803603602081101561014757600080fd5b5035600160a060020a03166103c1565b34801561016357600080fd5b506101226004803603602081101561017a57600080fd5b5035600160a060020a0316610407565b34801561019657600080fd5b506100db600480360360808110156101ad57600080fd5b50600160a060020a0381358116916020810135909116906040810135906060013561044a565b3480156101df57600080fd5b506100db600480360360608110156101f657600080fd5b50600160a060020a0381351690602081013590604001356104c4565b34801561021e57600080fd5b506100db6004803603602081101561023557600080fd5b5035600160a060020a03166104cb565b34801561025157600080fd5b506100db6004803603602081101561026857600080fd5b5035600160a060020a0316610536565b34801561028457600080fd5b506100db6004803603602081101561029b57600080fd5b5035600160a060020a031661057e565b3480156102b757600080fd5b506100db600480360360208110156102ce57600080fd5b5035600160a060020a03166105e9565b600154604080517f0c3504c9000000000000000000000000000000000000000000000000000000008152600160a060020a03848116600483015291516000939290921691630c3504c99160248082019260209290919082900301818787803b15801561034957600080fd5b505af115801561035d573d6000803e3d6000fd5b505050506040513d602081101561037357600080fd5b505192915050565b600254600160a060020a0316331461039257600080fd5b6002805473ffffffffffffffffffffffffffffffffffffffff1916600160a060020a0392909216919091179055565b600254600160a060020a031633146103d857600080fd5b6001805473ffffffffffffffffffffffffffffffffffffffff1916600160a060020a0392909216919091179055565b610410336102de565b151561041b57600080fd5b6004805473ffffffffffffffffffffffffffffffffffffffff1916600160a060020a0392909216919091179055565b6000610455336102de565b151561046057600080fd5b600354600160a060020a0386811691161461047a57600080fd5b600160a060020a0384166000908152600560205260409020546104a3908463ffffffff61062316565b600160a060020a038516600090815260056020526040902055949350505050565b6000806000fd5b600154604080517f9026dee8000000000000000000000000000000000000000000000000000000008152600160a060020a03848116600483015291516000939290921691639026dee89160248082019260209290919082900301818787803b15801561034957600080fd5b6000610541336102de565b151561054c57600080fd5b5060038054600160a060020a03831673ffffffffffffffffffffffffffffffffffffffff199091161790556001919050565b600154604080517fa1d658b1000000000000000000000000000000000000000000000000000000008152600160a060020a0384811660048301529151600093929092169163a1d658b19160248082019260209290919082900301818787803b15801561034957600080fd5b60006105f4336102de565b15156105ff57600080fd5b50506003805473ffffffffffffffffffffffffffffffffffffffff19169055600190565b60008282018381101561063257fe5b939250505056fea165627a7a72305820a137e40eb971164c5576f61ae49734d3fb816f46b0bb0ac7d62dff921c6fab1b0029",
  "source": "pragma solidity ^0.5.0;\nimport \"../../libraries/SafeMath.sol\";\nimport \"../interface/receiver-interface.sol\";\nimport \"../../admin/interface/administratable.sol\";\n\n/*@title Receiver contract Abstract Class\n *@dev this is an abstract class that is the building block of any contract that is supposed to recieve ERC223 token\n */\ncontract simpleReciever is receiverInterface , Administratable {\n    using SafeMath for uint256;\n    address private _acceptedAddress;\n    address private _owner;\n    mapping (address => uint256) private _balances;\n\n\n\n    function SimpleReciever(address newowner) onlyOwner public{\n      _owner=newowner;\n    }\n    /*\n    // If you want to accept a list of tokens : [Toekn Contract Address] => [boolean]\n    mapping (address =>bool) private _acceptedAddress;\n    */\n\n    /*\n     *@dev this is the fallback function that is invoked when a contract recieves ERC223 tokens\n     *@params address addr is the address that sends tokens to this contract\n     *@params uint value is the number of tokens being sent to this contract\n     *@params bytes data is the message that was sent to this contract\n     *@returns a boolean value representing success or failure of the operation\n     */\n    function tokenFallback(address sender,address receiver, uint256 value, bytes32  data) external onlyOwner returns(bool)\n    {\n\n      if (sender!=_acceptedAddress)\n      {\n          revert();\n      }\n      else\n      {\n        _balances[receiver] = _balances[receiver].add(value);\n      }\n    }\n    function tokenFallback(address sender, uint256 value, bytes32  data) external returns(bool)\n    {\n      revert();\n    }\n\n    //Todo:add test to make sure it is ERC223 Token\n    function whitelist(address tokenAddress) external onlyOwner returns(bool) {\n\n        _acceptedAddress = tokenAddress;\n        return true;\n\n    }\n    function blacklist(address tokenAddress) external onlyOwner returns(bool) {\n\n        _acceptedAddress = address(0);\n        return true;\n\n    }\n\n\n}\n",
  "sourcePath": "/home/sergey/Documents/angels/2083nointerfaces/Angeles.VC-token-scrum-investing/contracts/receiver/implementation/simple-receiver.sol",
  "compiler": {
    "name": "solc",
    "version": "0.5.0+commit.1d4f565a.Emscripten.clang"
  },
  "schemaVersion": "3.0.2",
  "updatedAt": "2019-04-03T12:24:01.779Z",
  "devdoc": {
    "methods": {}
  },
  "userdoc": {
    "methods": {}
  }
}