{
  "contractName": "token",
  "abi": [
    {
      "constant": false,
      "inputs": [
        {
          "name": "symbol",
          "type": "string"
        },
        {
          "name": "name",
          "type": "string"
        },
        {
          "name": "decimals",
          "type": "uint8"
        },
        {
          "name": "totalSupply",
          "type": "uint256"
        }
      ],
      "name": "Basic",
      "outputs": [],
      "payable": false,
      "stateMutability": "nonpayable",
      "type": "function",
      "signature": "0x187fe147"
    },
    {
      "constant": false,
      "inputs": [
        {
          "name": "newowner",
          "type": "address"
        }
      ],
      "name": "ownable",
      "outputs": [],
      "payable": false,
      "stateMutability": "nonpayable",
      "type": "function",
      "signature": "0x64a04b59"
    },
    {
      "constant": false,
      "inputs": [
        {
          "name": "symbol",
          "type": "string"
        },
        {
          "name": "name",
          "type": "string"
        },
        {
          "name": "decimals",
          "type": "uint8"
        }
      ],
      "name": "mintable",
      "outputs": [],
      "payable": false,
      "stateMutability": "nonpayable",
      "type": "function",
      "signature": "0x703b9372"
    },
    {
      "constant": true,
      "inputs": [],
      "name": "owner",
      "outputs": [
        {
          "name": "",
          "type": "address"
        }
      ],
      "payable": false,
      "stateMutability": "view",
      "type": "function",
      "signature": "0x8da5cb5b"
    },
    {
      "constant": false,
      "inputs": [
        {
          "name": "newOwner",
          "type": "address"
        }
      ],
      "name": "transferOwnership",
      "outputs": [],
      "payable": false,
      "stateMutability": "nonpayable",
      "type": "function",
      "signature": "0xf2fde38b"
    },
    {
      "inputs": [
        {
          "name": "symbol",
          "type": "string"
        },
        {
          "name": "name",
          "type": "string"
        },
        {
          "name": "decimals",
          "type": "uint8"
        }
      ],
      "payable": false,
      "stateMutability": "nonpayable",
      "type": "constructor",
      "signature": "constructor"
    },
    {
      "anonymous": false,
      "inputs": [
        {
          "indexed": false,
          "name": "addr",
          "type": "address"
        },
        {
          "indexed": false,
          "name": "balance",
          "type": "uint256"
        }
      ],
      "name": "BalanceOf",
      "type": "event",
      "signature": "0x53fa2f1ab3ce356105837b2d33e4d9445d41050bf57eca18817186e0242a08a9"
    },
    {
      "anonymous": false,
      "inputs": [
        {
          "indexed": true,
          "name": "receiver",
          "type": "address"
        },
        {
          "indexed": false,
          "name": "amount",
          "type": "uint256"
        }
      ],
      "name": "Burn",
      "type": "event",
      "signature": "0xcc16f5dbb4873280815c1ee09dbd06736cffcc184412cf7a71a0fdb75d397ca5"
    },
    {
      "anonymous": false,
      "inputs": [
        {
          "indexed": true,
          "name": "sender",
          "type": "address"
        },
        {
          "indexed": true,
          "name": "receiver",
          "type": "address"
        },
        {
          "indexed": false,
          "name": "amount",
          "type": "uint256"
        },
        {
          "indexed": false,
          "name": "data",
          "type": "bytes32"
        }
      ],
      "name": "Transfer",
      "type": "event",
      "signature": "0x10d85eb696556cf89e382ad2be46259009e783f0060ef100faa456da4d834add"
    },
    {
      "anonymous": false,
      "inputs": [
        {
          "indexed": true,
          "name": "owner",
          "type": "address"
        }
      ],
      "name": "GetOwner",
      "type": "event",
      "signature": "0xe3dc01f26841462f7605d43d79c5b39ef562d9d9726f2a390f728966016ae645"
    },
    {
      "anonymous": false,
      "inputs": [
        {
          "indexed": true,
          "name": "receiver",
          "type": "address"
        },
        {
          "indexed": false,
          "name": "amount",
          "type": "uint256"
        }
      ],
      "name": "Mint",
      "type": "event",
      "signature": "0x0f6798a560793a54c3bcfe86a93cde1e73087d944c0ea20544137d4121396885"
    },
    {
      "anonymous": false,
      "inputs": [
        {
          "indexed": false,
          "name": "previousOwner",
          "type": "address"
        },
        {
          "indexed": false,
          "name": "newOwner",
          "type": "address"
        }
      ],
      "name": "OwnershipTransferred",
      "type": "event",
      "signature": "0x8be0079c531659141344cd1fd0a4f28419497f9722a3daafe3b4186f6b6457e0"
    },
    {
      "constant": false,
      "inputs": [],
      "name": "get_address",
      "outputs": [
        {
          "name": "",
          "type": "address"
        }
      ],
      "payable": false,
      "stateMutability": "nonpayable",
      "type": "function",
      "signature": "0x0131222f"
    },
    {
      "constant": true,
      "inputs": [
        {
          "name": "addr",
          "type": "address"
        }
      ],
      "name": "balanceOf",
      "outputs": [
        {
          "name": "",
          "type": "uint256"
        }
      ],
      "payable": false,
      "stateMutability": "view",
      "type": "function",
      "signature": "0x70a08231"
    },
    {
      "constant": true,
      "inputs": [],
      "name": "totalSupply",
      "outputs": [
        {
          "name": "",
          "type": "uint256"
        }
      ],
      "payable": false,
      "stateMutability": "view",
      "type": "function",
      "signature": "0x18160ddd"
    },
    {
      "constant": false,
      "inputs": [],
      "name": "getChildOwner",
      "outputs": [
        {
          "name": "",
          "type": "address"
        }
      ],
      "payable": false,
      "stateMutability": "nonpayable",
      "type": "function",
      "signature": "0x7c54a757"
    },
    {
      "constant": false,
      "inputs": [],
      "name": "getOwner",
      "outputs": [
        {
          "name": "",
          "type": "address"
        }
      ],
      "payable": false,
      "stateMutability": "nonpayable",
      "type": "function",
      "signature": "0x893d20e8"
    },
    {
      "constant": false,
      "inputs": [
        {
          "name": "sender",
          "type": "address"
        },
        {
          "name": "receiver",
          "type": "address"
        },
        {
          "name": "amount",
          "type": "uint256"
        },
        {
          "name": "data",
          "type": "bytes32"
        }
      ],
      "name": "transfer",
      "outputs": [
        {
          "name": "",
          "type": "bool"
        }
      ],
      "payable": false,
      "stateMutability": "nonpayable",
      "type": "function",
      "signature": "0x323a1a5c"
    },
    {
      "constant": false,
      "inputs": [
        {
          "name": "receiver",
          "type": "address"
        },
        {
          "name": "amount",
          "type": "uint256"
        }
      ],
      "name": "transfer",
      "outputs": [
        {
          "name": "",
          "type": "bool"
        }
      ],
      "payable": false,
      "stateMutability": "nonpayable",
      "type": "function",
      "signature": "0xa9059cbb"
    },
    {
      "constant": false,
      "inputs": [
        {
          "name": "sender",
          "type": "address"
        },
        {
          "name": "receiver",
          "type": "address"
        },
        {
          "name": "amount",
          "type": "uint256"
        }
      ],
      "name": "transfer",
      "outputs": [
        {
          "name": "",
          "type": "bool"
        }
      ],
      "payable": false,
      "stateMutability": "nonpayable",
      "type": "function",
      "signature": "0xbeabacc8"
    },
    {
      "constant": false,
      "inputs": [
        {
          "name": "receiver",
          "type": "address"
        },
        {
          "name": "amount",
          "type": "uint256"
        }
      ],
      "name": "mint",
      "outputs": [
        {
          "name": "",
          "type": "bool"
        }
      ],
      "payable": false,
      "stateMutability": "nonpayable",
      "type": "function",
      "signature": "0x40c10f19"
    },
    {
      "constant": false,
      "inputs": [
        {
          "name": "tokenAddress",
          "type": "address"
        },
        {
          "name": "receiver",
          "type": "address"
        },
        {
          "name": "amount",
          "type": "uint256"
        }
      ],
      "name": "mint",
      "outputs": [
        {
          "name": "",
          "type": "bool"
        }
      ],
      "payable": false,
      "stateMutability": "nonpayable",
      "type": "function",
      "signature": "0xc6c3bbe6"
    },
    {
      "constant": false,
      "inputs": [
        {
          "name": "amount",
          "type": "uint256"
        }
      ],
      "name": "burn",
      "outputs": [
        {
          "name": "",
          "type": "bool"
        }
      ],
      "payable": false,
      "stateMutability": "nonpayable",
      "type": "function",
      "signature": "0x42966c68"
    },
    {
      "constant": false,
      "inputs": [
        {
          "name": "sender",
          "type": "address"
        },
        {
          "name": "amount",
          "type": "uint256"
        }
      ],
      "name": "burn",
      "outputs": [
        {
          "name": "",
          "type": "bool"
        }
      ],
      "payable": false,
      "stateMutability": "nonpayable",
      "type": "function",
      "signature": "0x9dc29fac"
    }
  ],
  "bytecode": "0x6080604052600e805460a060020a60ff02191690553480156200002157600080fd5b506040516200237038038062002370833981018060405260608110156200004757600080fd5b8101908080516401000000008111156200006057600080fd5b820160208101848111156200007457600080fd5b81516401000000008111828201871017156200008f57600080fd5b50509291906020018051640100000000811115620000ac57600080fd5b82016020810184811115620000c057600080fd5b8151640100000000811182820187101715620000db57600080fd5b5050602090910151600e8054600160a060020a031916331790559092509050620001046200029a565b604051809103906000f08015801562000121573d6000803e3d6000fd5b50600d8054600160a060020a031916600160a060020a0392831617908190556040517f703b937200000000000000000000000000000000000000000000000000000000815260ff84166044820152606060048201908152865160648301528651929093169263703b93729287928792879290918291602482019160840190602088019080838360005b83811015620001c4578181015183820152602001620001aa565b50505050905090810190601f168015620001f25780820380516001836020036101000a031916815260200191505b50838103825285518152855160209182019187019080838360005b83811015620002275781810151838201526020016200020d565b50505050905090810190601f168015620002555780820380516001836020036101000a031916815260200191505b5095505050505050600060405180830381600087803b1580156200027857600080fd5b505af11580156200028d573d6000803e3d6000fd5b50505050505050620002ab565b604051610d44806200162c83390190565b61137180620002bb6000396000f3fe6080604052600436106100d75763ffffffff60e060020a6000350416630131222f81146100dc57806318160ddd1461010d578063187fe14714610134578063323a1a5c1461027857806340c10f19146102d557806342966c681461030e57806364a04b5914610338578063703b93721461036b57806370a082311461043d5780637c54a75714610470578063893d20e8146104855780638da5cb5b1461049a5780639dc29fac146104af578063a9059cbb146104e8578063beabacc814610521578063c6c3bbe614610564578063f2fde38b146105a7575b600080fd5b3480156100e857600080fd5b506100f16105da565b60408051600160a060020a039092168252519081900360200190f35b34801561011957600080fd5b5061012261066b565b60408051918252519081900360200190f35b34801561014057600080fd5b506102766004803603608081101561015757600080fd5b81019060208101813564010000000081111561017257600080fd5b82018360208201111561018457600080fd5b803590602001918460018302840111640100000000831117156101a657600080fd5b91908080601f01602080910402602001604051908101604052809392919081815260200183838082843760009201919091525092959493602081019350359150506401000000008111156101f957600080fd5b82018360208201111561020b57600080fd5b8035906020019184600183028401116401000000008311171561022d57600080fd5b91908080601f0160208091040260200160405190810160405280939291908181526020018383808284376000920191909152509295505060ff83351693505050602001356106f1565b005b34801561028457600080fd5b506102c16004803603608081101561029b57600080fd5b50600160a060020a03813581169160208101359091169060408101359060600135610771565b604080519115158252519081900360200190f35b3480156102e157600080fd5b506102c1600480360360408110156102f857600080fd5b50600160a060020a038135169060200135610876565b34801561031a57600080fd5b506102c16004803603602081101561033157600080fd5b503561098b565b34801561034457600080fd5b506102766004803603602081101561035b57600080fd5b5035600160a060020a0316610a6d565b34801561037757600080fd5b506102766004803603606081101561038e57600080fd5b8101906020810181356401000000008111156103a957600080fd5b8201836020820111156103bb57600080fd5b803590602001918460018302840111640100000000831117156103dd57600080fd5b9193909290916020810190356401000000008111156103fb57600080fd5b82018360208201111561040d57600080fd5b8035906020019184600183028401116401000000008311171561042f57600080fd5b91935091503560ff16610a95565b34801561044957600080fd5b506101226004803603602081101561046057600080fd5b5035600160a060020a0316610aee565b34801561047c57600080fd5b506100f1610b89565b34801561049157600080fd5b506100f1610c47565b3480156104a657600080fd5b506100f1610c56565b3480156104bb57600080fd5b506102c1600480360360408110156104d257600080fd5b50600160a060020a038135169060200135610c65565b3480156104f457600080fd5b506102c16004803603604081101561050b57600080fd5b50600160a060020a038135169060200135610d0a565b34801561052d57600080fd5b506102c16004803603606081101561054457600080fd5b50600160a060020a03813581169160208101359091169060400135610e08565b34801561057057600080fd5b506102c16004803603606081101561058757600080fd5b50600160a060020a03813581169160208101359091169060400135610e58565b3480156105b357600080fd5b50610276600480360360208110156105ca57600080fd5b5035600160a060020a0316610fcf565b600d54604080517f0131222f0000000000000000000000000000000000000000000000000000000081529051600092600160a060020a031691630131222f91600480830192602092919082900301818787803b15801561063957600080fd5b505af115801561064d573d6000803e3d6000fd5b505050506040513d602081101561066357600080fd5b505190505b90565b600080600d60009054906101000a9004600160a060020a0316600160a060020a03166318160ddd6040518163ffffffff1660e060020a02815260040160206040518083038186803b1580156106bf57600080fd5b505afa1580156106d3573d6000803e3d6000fd5b505050506040513d60208110156106e957600080fd5b505191505090565b835161070490600190602087019061123f565b50825161071890600290602086019061123f565b506003805460ff90931660ff19909316929092179091556005805473ffffffffffffffffffffffffffffffffffffffff1916331790819055600160a060020a031660009081526006602052604090208190556004555050565b600d54604080517f323a1a5c000000000000000000000000000000000000000000000000000000008152600160a060020a0387811660048301528681166024830152604482018690526064820185905291516000938493169163323a1a5c91608480830192602092919082900301818787803b1580156107f057600080fd5b505af1158015610804573d6000803e3d6000fd5b505050506040513d602081101561081a57600080fd5b50519050801561086d5760408051858152602081018590528151600160a060020a0388169233927f10d85eb696556cf89e382ad2be46259009e783f0060ef100faa456da4d834add929081900390910190a35b95945050505050565b60003380610882610c56565b600160a060020a03161461089557600080fd5b600d54604080517fc6c3bbe6000000000000000000000000000000000000000000000000000000008152306004820152600160a060020a038781166024830152604482018790529151600093929092169163c6c3bbe69160648082019260209290919082900301818787803b15801561090d57600080fd5b505af1158015610921573d6000803e3d6000fd5b505050506040513d602081101561093757600080fd5b50519050801561098157604080518581529051600160a060020a038716917f0f6798a560793a54c3bcfe86a93cde1e73087d944c0ea20544137d4121396885919081900360200190a25b91505b5092915050565b600d54604080517f9dc29fac0000000000000000000000000000000000000000000000000000000081523360048201526024810184905290516000928392600160a060020a0390911691639dc29fac9160448082019260209290919082900301818787803b1580156109fc57600080fd5b505af1158015610a10573d6000803e3d6000fd5b505050506040513d6020811015610a2657600080fd5b505190508015610a675760408051848152905133917fcc16f5dbb4873280815c1ee09dbd06736cffcc184412cf7a71a0fdb75d397ca5919081900360200190a25b92915050565b610a75610c56565b600160a060020a03163314610a8957600080fd5b610a9281611050565b50565b610aa1600786866112bd565b50610aae600884846112bd565b506009805460ff90921660ff199092169190911790555050600b805473ffffffffffffffffffffffffffffffffffffffff19163317905550506000600a55565b600d54604080517f70a08231000000000000000000000000000000000000000000000000000000008152600160a060020a0384811660048301529151600093849316916370a08231916024808301926020929190829003018186803b158015610b5657600080fd5b505afa158015610b6a573d6000803e3d6000fd5b505050506040513d6020811015610b8057600080fd5b50519392505050565b600080600d60009054906101000a9004600160a060020a0316600160a060020a031663893d20e86040518163ffffffff1660e060020a028152600401602060405180830381600087803b158015610bdf57600080fd5b505af1158015610bf3573d6000803e3d6000fd5b505050506040513d6020811015610c0957600080fd5b5051604051909150600160a060020a038216907fe3dc01f26841462f7605d43d79c5b39ef562d9d9726f2a390f728966016ae64590600090a2905090565b600e54600160a060020a031690565b600054600160a060020a031690565b60003380610c71610c56565b600160a060020a031614610c8457600080fd5b600160a060020a0384166000908152600c6020526040902054831115610ca957600080fd5b600160a060020a0384166000908152600c6020526040902054610cd2908463ffffffff61107f16565b600160a060020a0385166000908152600c6020526040902055600a54610cfe908463ffffffff61107f16565b600a5560019150610984565b600d54604080517fbeabacc8000000000000000000000000000000000000000000000000000000008152336004820152600160a060020a0385811660248301526044820185905291516000938493849391169163beabacc89160648082019260209290919082900301818787803b158015610d8457600080fd5b505af1158015610d98573d6000803e3d6000fd5b505050506040513d6020811015610dae57600080fd5b5051905080156109815760408051858152602081018490528151600160a060020a0388169233927f10d85eb696556cf89e382ad2be46259009e783f0060ef100faa456da4d834add929081900390910190a3949350505050565b60003380610e14610c56565b600160a060020a031614610e2757600080fd5b600080610e3687878785611091565b90508015610e4957600193505050610e50565b6000935050505b509392505050565b60003380610e64610c56565b600160a060020a031614610e7757600080fd5b600b54600160a060020a03868116911614610e9157600080fd5b600160a060020a0384161515610ea657600080fd5b600160a060020a0384161515610ebb57600080fd5b600a54600090610ed1908563ffffffff61122116565b600a55600160a060020a0385166000908152600c6020526040902054610efd908563ffffffff61122116565b600160a060020a0386166000908152600c6020526040902055610f1f85611237565b15610fc557604080517f8397cc94000000000000000000000000000000000000000000000000000000008152600160a060020a038881166004830152602482018790526044820184905291518792831691638397cc949160648083019260209291908290030181600087803b158015610f9757600080fd5b505af1158015610fab573d6000803e3d6000fd5b505050506040513d6020811015610fc157600080fd5b5050505b6001925050610e50565b610fd7610c56565b600160a060020a03163314610feb57600080fd5b600160a060020a038116151561100057600080fd5b7f8be0079c531659141344cd1fd0a4f28419497f9722a3daafe3b4186f6b6457e0611029610c56565b60408051600160a060020a03928316815291841660208301528051918290030190a1610a92815b6000805473ffffffffffffffffffffffffffffffffffffffff1916600160a060020a0392909216919091179055565b60008282111561108b57fe5b50900390565b6000338061109d610c56565b600160a060020a0316146110b057600080fd5b836110ba87610aee565b10156110c557600080fd5b600160a060020a03851615156110da57600080fd5b600160a060020a03851615156110ef57600080fd5b600160a060020a038616600090815260066020526040902054611118908563ffffffff61107f16565b600160a060020a03808816600090815260066020526040808220939093559087168152205461114d908563ffffffff61122116565b600160a060020a03861660009081526006602052604090205561116f85611237565b1561121557604080517f8397cc94000000000000000000000000000000000000000000000000000000008152600160a060020a038881166004830152602482018790526044820186905291518792831691638397cc949160648083019260209291908290030181600087803b1580156111e757600080fd5b505af11580156111fb573d6000803e3d6000fd5b505050506040513d602081101561121157600080fd5b5050505b50600195945050505050565b60008282018381101561123057fe5b9392505050565b6000903b1190565b828054600181600116156101000203166002900490600052602060002090601f016020900481019282601f1061128057805160ff19168380011785556112ad565b828001600101855582156112ad579182015b828111156112ad578251825591602001919060010190611292565b506112b992915061132b565b5090565b828054600181600116156101000203166002900490600052602060002090601f016020900481019282601f106112fe5782800160ff198235161785556112ad565b828001600101855582156112ad579182015b828111156112ad578235825591602001919060010190611310565b61066891905b808211156112b9576000815560010161133156fea165627a7a7230582062d96607534bdbb06a5a5a958636ca956d41270698bdc3c6bc4e812c7be89f570029608060405234801561001057600080fd5b50610d24806100206000396000f3fe6080604052600436106100c45763ffffffff7c01000000000000000000000000000000000000000000000000000000006000350416630131222f81146100c957806318160ddd146100fa578063187fe14714610121578063323a1a5c1461026557806364a04b59146102c2578063703b9372146102f557806370a08231146103c7578063893d20e8146103fa5780638da5cb5b1461040f5780639dc29fac14610424578063beabacc81461045d578063c6c3bbe6146104a0578063f2fde38b146104e3575b600080fd5b3480156100d557600080fd5b506100de610516565b60408051600160a060020a039092168252519081900360200190f35b34801561010657600080fd5b5061010f61053d565b60408051918252519081900360200190f35b34801561012d57600080fd5b506102636004803603608081101561014457600080fd5b81019060208101813564010000000081111561015f57600080fd5b82018360208201111561017157600080fd5b8035906020019184600183028401116401000000008311171561019357600080fd5b91908080601f01602080910402602001604051908101604052809392919081815260200183838082843760009201919091525092959493602081019350359150506401000000008111156101e657600080fd5b8201836020820111156101f857600080fd5b8035906020019184600183028401116401000000008311171561021a57600080fd5b91908080601f0160208091040260200160405190810160405280939291908181526020018383808284376000920191909152509295505060ff8335169350505060200135610564565b005b34801561027157600080fd5b506102ae6004803603608081101561028857600080fd5b50600160a060020a038135811691602081013590911690604081013590606001356105e4565b604080519115158252519081900360200190f35b3480156102ce57600080fd5b50610263600480360360208110156102e557600080fd5b5035600160a060020a031661061b565b34801561030157600080fd5b506102636004803603606081101561031857600080fd5b81019060208101813564010000000081111561033357600080fd5b82018360208201111561034557600080fd5b8035906020019184600183028401116401000000008311171561036757600080fd5b91939092909160208101903564010000000081111561038557600080fd5b82018360208201111561039757600080fd5b803590602001918460018302840111640100000000831117156103b957600080fd5b91935091503560ff16610643565b3480156103d357600080fd5b5061010f600480360360208110156103ea57600080fd5b5035600160a060020a031661069c565b34801561040657600080fd5b506100de6106d8565b34801561041b57600080fd5b506100de610708565b34801561043057600080fd5b506102ae6004803603604081101561044757600080fd5b50600160a060020a038135169060200135610718565b34801561046957600080fd5b506102ae6004803603606081101561048057600080fd5b50600160a060020a038135811691602081013590911690604001356107be565b3480156104ac57600080fd5b506102ae600480360360608110156104c357600080fd5b50600160a060020a0381358116916020810135909116906040013561080e565b3480156104ef57600080fd5b506102636004803603602081101561050657600080fd5b5035600160a060020a0316610985565b60003380610522610708565b600160a060020a03161461053557600080fd5b3091505b5090565b60003380610549610708565b600160a060020a03161461055c57600080fd5b5050600a5490565b8351610577906001906020870190610bf6565b50825161058b906002906020860190610bf6565b506003805460ff90931660ff19909316929092179091556005805473ffffffffffffffffffffffffffffffffffffffff1916331790819055600160a060020a031660009081526006602052604090208190556004555050565b600033806105f0610708565b600160a060020a03161461060357600080fd5b61060f86868686610a0a565b91505b50949350505050565b610623610708565b600160a060020a0316331461063757600080fd5b61064081610b97565b50565b61064f60078686610c70565b5061065c60088484610c70565b506009805460ff90921660ff199092169190911790555050600b805473ffffffffffffffffffffffffffffffffffffffff19163317905550506000600a55565b600033806106a8610708565b600160a060020a0316146106bb57600080fd5b5050600160a060020a03166000908152600c602052604090205490565b600033806106e4610708565b600160a060020a0316146106f757600080fd5b5050600b54600160a060020a031690565b600054600160a060020a03165b90565b60003380610724610708565b600160a060020a03161461073757600080fd5b600160a060020a0384166000908152600c602052604090205483111561075c57600080fd5b600160a060020a0384166000908152600c6020526040902054610785908463ffffffff610bc616565b600160a060020a0385166000908152600c6020526040902055600a546107b1908463ffffffff610bc616565b600a555060019392505050565b600033806107ca610708565b600160a060020a0316146107dd57600080fd5b6000806107ec87878785610a0a565b905080156107ff57600193505050610806565b6000935050505b509392505050565b6000338061081a610708565b600160a060020a03161461082d57600080fd5b600b54600160a060020a0386811691161461084757600080fd5b600160a060020a038416151561085c57600080fd5b600160a060020a038416151561087157600080fd5b600a54600090610887908563ffffffff610bd816565b600a55600160a060020a0385166000908152600c60205260409020546108b3908563ffffffff610bd816565b600160a060020a0386166000908152600c60205260409020556108d585610bee565b1561097b57604080517f8397cc94000000000000000000000000000000000000000000000000000000008152600160a060020a038881166004830152602482018790526044820184905291518792831691638397cc949160648083019260209291908290030181600087803b15801561094d57600080fd5b505af1158015610961573d6000803e3d6000fd5b505050506040513d602081101561097757600080fd5b5050505b6001925050610806565b61098d610708565b600160a060020a031633146109a157600080fd5b600160a060020a03811615156109b657600080fd5b7f8be0079c531659141344cd1fd0a4f28419497f9722a3daafe3b4186f6b6457e06109df610708565b60408051600160a060020a03928316815291841660208301528051918290030190a161064081610b97565b60003380610a16610708565b600160a060020a031614610a2957600080fd5b83610a338761069c565b1015610a3e57600080fd5b600160a060020a0385161515610a5357600080fd5b600160a060020a0385161515610a6857600080fd5b600160a060020a038616600090815260066020526040902054610a91908563ffffffff610bc616565b600160a060020a038088166000908152600660205260408082209390935590871681522054610ac6908563ffffffff610bd816565b600160a060020a038616600090815260066020526040902055610ae885610bee565b15610b8e57604080517f8397cc94000000000000000000000000000000000000000000000000000000008152600160a060020a038881166004830152602482018790526044820186905291518792831691638397cc949160648083019260209291908290030181600087803b158015610b6057600080fd5b505af1158015610b74573d6000803e3d6000fd5b505050506040513d6020811015610b8a57600080fd5b5050505b60019150610612565b6000805473ffffffffffffffffffffffffffffffffffffffff1916600160a060020a0392909216919091179055565b600082821115610bd257fe5b50900390565b600082820183811015610be757fe5b9392505050565b6000903b1190565b828054600181600116156101000203166002900490600052602060002090601f016020900481019282601f10610c3757805160ff1916838001178555610c64565b82800160010185558215610c64579182015b82811115610c64578251825591602001919060010190610c49565b50610539929150610cde565b828054600181600116156101000203166002900490600052602060002090601f016020900481019282601f10610cb15782800160ff19823516178555610c64565b82800160010185558215610c64579182015b82811115610c64578235825591602001919060010190610cc3565b61071591905b808211156105395760008155600101610ce456fea165627a7a723058200cd94cfbbbf9b46e50c85b24e6d66ee5164b90b50f5d03466f42e0800bebe9290029",
  "source": "pragma solidity ^0.5.0;\nimport \"./interface/token-interface.sol\";\nimport \"./implementation/basic-token.sol\";\nimport \"./implementation/mintable-token.sol\";\nimport \"../admin/ExternalStorage.sol\";\nimport \"../admin/administratable.sol\";\n\n// contracts/libraries/Modifiers.sol\n\n//Todo Create a Hybrid TOken\n/*\n * @title Basic token\n * @dev This ERC223 token is the most basic of them all ; the total amount of\n    tokens are first created and stored in the contract's owner address.\n * @dev The total supply is created first ( it is capped ) and sent to different\n    addresses during ICO\n */\n\n //TODO MAke sure burn and other are called through the parent.\ncontract token is Mintable {\n    tokenInterface private _token;\n    address private _owner;\n    bool private _finalized = false;\n    address  External_Storage_addr;\n\n\n    constructor(string memory symbol, string memory name, uint8 decimals ) public\n    {\n      _owner = msg.sender;\n      _token= new Mintable();\n      _token.mintable(symbol,name,decimals) ;\n\n    }\n    function get_address() public returns (address)\n    {\n      return _token.get_address();\n    }\n\n    /*\n     * @dev get balance of a tokens address\n     * @params an address representing target wallet\n     * @return A uint256 representing an address balance\n     */\n    function balanceOf(address addr) public view returns(uint256)\n    {\n      uint256 result = _token.balanceOf(addr);\n      return result;\n    }\n\n    /*\n     * @dev get total amount of tokens created\n     * @return A uint256 representing the number oif tokens created.\n     */\n    function totalSupply() public view returns(uint256)\n    {\n      uint256 result = _token.totalSupply();\n      return result;\n    }\n\n    /*\n     * @dev get the tokens creator address\n     * @return token creator's (owner) address\n     */\n    function getChildOwner() public returns(address)\n    {\n      address result = _token.getOwner();\n      emit GetOwner(result);\n      return result;\n    }\n    function getOwner() public returns(address)\n    {\n      return _owner;\n    }\n    /*\n     * @dev transfer function that is called when user or a contract wants to transfer tokens.\n     * @params to is the address tokens are being transferred to\n     * @params amount is the amount of tokens being transfered\n     * @params data is of type bytes that represents the message being sent\n     * @return A uint8 representing token's decimals\n     */\n    function transfer(address sender, address receiver, uint256 amount, bytes32 data) external returns(bool)\n    {\n      bool result=_token.transfer(sender,receiver,amount,data);\n      if(result)\n      {\n        emit Transfer(msg.sender,receiver,amount ,data);\n      }\n      return result;\n    }\n\n    /*\n     * @dev transfer function that is called when user or a contract wants to transfer tokens.\n     * @dev it is identical to ERC20 Standard's transfer function\n     * @params to is the address tokens are being transferred to\n     * @params amount is the amount of tokens being transfered\n     * @return A uint8 representing token's decimals\n     */\n    function transfer(address receiver, uint256 amount) public returns(bool)\n    {\n      bytes32 empty;\n      bool result = _token.transfer(msg.sender,receiver,amount);\n      if(result)\n      {\n        emit Transfer( msg.sender,receiver,amount,empty);\n      }\n      return result;\n    }\n\n\n    function mint(address receiver, uint256 amount) public onlyOwnerEx (msg.sender) returns(bool)\n    {\n\n        bool result = _token.mint(address(this),receiver,amount);\n        if(result)\n        {\n          emit Mint(receiver, amount);\n        }\n        return result;\n\n    }\n\n\n\n    /*\n     * @dev this is the function that is called when tokens are being burnt\n     * @params amount is of type uint 256 representingnumber of tokens being burnt\n     * @return a boolean alue indication success or failure of the operation\n     */\n    function burn(uint256 amount) public returns(bool)\n    {\n      bool result = _token.burn(msg.sender,amount);\n      if(result)\n      {\n        emit Burn(msg.sender, amount);\n      }\n      return result;\n    }\n\n\n    //Events\n   // event TotalSupply(uint256 totalSupply);\n    event BalanceOf(address addr, uint256 balance);\n    event Burn(address indexed receiver, uint256 amount);\n    event Transfer(address indexed sender, address indexed receiver, uint256 amount, bytes32 data);\n    event GetOwner(address indexed owner);\n    event Mint(address indexed receiver, uint256 amount);\n\n\n\n\n}\n",
  "sourcePath": "/home/sergey/Documents/angels/Angeles.VC-token-scrum-investing/contracts/tokens/token.sol",
  "compiler": {
    "name": "solc",
    "version": "0.5.0+commit.1d4f565a.Emscripten.clang"
  },
  "schemaVersion": "3.0.2",
  "updatedAt": "2019-03-26T15:15:41.538Z",
  "devdoc": {
    "methods": {
      "ownable(address)": {
        "details": "The constructor sets the original owner of the contract to the sender account."
      },
      "owner()": {
        "details": "Tells the address of the owner",
        "return": "the address of the owner"
      },
      "transferOwnership(address)": {
        "details": "Allows the current owner to transfer control of the contract to a newOwner.",
        "params": {
          "newOwner": "The address to transfer ownership to."
        }
      }
    }
  },
  "userdoc": {
    "methods": {}
  }
}