{
  "contractName": "token",
  "abi": [
    {
      "constant": false,
      "inputs": [
        {
          "name": "symbol",
          "type": "string"
        },
        {
          "name": "name",
          "type": "string"
        },
        {
          "name": "decimals",
          "type": "uint8"
        },
        {
          "name": "totalSupply",
          "type": "uint256"
        }
      ],
      "name": "Basic",
      "outputs": [],
      "payable": false,
      "stateMutability": "nonpayable",
      "type": "function",
      "signature": "0x187fe147"
    },
    {
      "constant": false,
      "inputs": [
        {
          "name": "newowner",
          "type": "address"
        }
      ],
      "name": "ownable",
      "outputs": [],
      "payable": false,
      "stateMutability": "nonpayable",
      "type": "function",
      "signature": "0x64a04b59"
    },
    {
      "constant": false,
      "inputs": [
        {
          "name": "symbol",
          "type": "string"
        },
        {
          "name": "name",
          "type": "string"
        },
        {
          "name": "decimals",
          "type": "uint8"
        }
      ],
      "name": "mintable",
      "outputs": [],
      "payable": false,
      "stateMutability": "nonpayable",
      "type": "function",
      "signature": "0x703b9372"
    },
    {
      "constant": true,
      "inputs": [],
      "name": "owner",
      "outputs": [
        {
          "name": "",
          "type": "address"
        }
      ],
      "payable": false,
      "stateMutability": "view",
      "type": "function",
      "signature": "0x8da5cb5b"
    },
    {
      "constant": false,
      "inputs": [
        {
          "name": "newOwner",
          "type": "address"
        }
      ],
      "name": "transferOwnership",
      "outputs": [],
      "payable": false,
      "stateMutability": "nonpayable",
      "type": "function",
      "signature": "0xf2fde38b"
    },
    {
      "inputs": [
        {
          "name": "symbol",
          "type": "string"
        },
        {
          "name": "name",
          "type": "string"
        },
        {
          "name": "decimals",
          "type": "uint8"
        }
      ],
      "payable": false,
      "stateMutability": "nonpayable",
      "type": "constructor",
      "signature": "constructor"
    },
    {
      "anonymous": false,
      "inputs": [
        {
          "indexed": false,
          "name": "addr",
          "type": "address"
        },
        {
          "indexed": false,
          "name": "balance",
          "type": "uint256"
        }
      ],
      "name": "BalanceOf",
      "type": "event",
      "signature": "0x53fa2f1ab3ce356105837b2d33e4d9445d41050bf57eca18817186e0242a08a9"
    },
    {
      "anonymous": false,
      "inputs": [
        {
          "indexed": true,
          "name": "receiver",
          "type": "address"
        },
        {
          "indexed": false,
          "name": "amount",
          "type": "uint256"
        }
      ],
      "name": "Burn",
      "type": "event",
      "signature": "0xcc16f5dbb4873280815c1ee09dbd06736cffcc184412cf7a71a0fdb75d397ca5"
    },
    {
      "anonymous": false,
      "inputs": [
        {
          "indexed": true,
          "name": "sender",
          "type": "address"
        },
        {
          "indexed": true,
          "name": "receiver",
          "type": "address"
        },
        {
          "indexed": false,
          "name": "amount",
          "type": "uint256"
        },
        {
          "indexed": false,
          "name": "data",
          "type": "bytes32"
        }
      ],
      "name": "Transfer",
      "type": "event",
      "signature": "0x10d85eb696556cf89e382ad2be46259009e783f0060ef100faa456da4d834add"
    },
    {
      "anonymous": false,
      "inputs": [
        {
          "indexed": true,
          "name": "owner",
          "type": "address"
        }
      ],
      "name": "GetOwner",
      "type": "event",
      "signature": "0xe3dc01f26841462f7605d43d79c5b39ef562d9d9726f2a390f728966016ae645"
    },
    {
      "anonymous": false,
      "inputs": [
        {
          "indexed": true,
          "name": "receiver",
          "type": "address"
        },
        {
          "indexed": false,
          "name": "amount",
          "type": "uint256"
        }
      ],
      "name": "Mint",
      "type": "event",
      "signature": "0x0f6798a560793a54c3bcfe86a93cde1e73087d944c0ea20544137d4121396885"
    },
    {
      "anonymous": false,
      "inputs": [
        {
          "indexed": false,
          "name": "previousOwner",
          "type": "address"
        },
        {
          "indexed": false,
          "name": "newOwner",
          "type": "address"
        }
      ],
      "name": "OwnershipTransferred",
      "type": "event",
      "signature": "0x8be0079c531659141344cd1fd0a4f28419497f9722a3daafe3b4186f6b6457e0"
    },
    {
      "constant": false,
      "inputs": [],
      "name": "get_address",
      "outputs": [
        {
          "name": "",
          "type": "address"
        }
      ],
      "payable": false,
      "stateMutability": "nonpayable",
      "type": "function",
      "signature": "0x0131222f"
    },
    {
      "constant": true,
      "inputs": [
        {
          "name": "addr",
          "type": "address"
        }
      ],
      "name": "balanceOf",
      "outputs": [
        {
          "name": "",
          "type": "uint256"
        }
      ],
      "payable": false,
      "stateMutability": "view",
      "type": "function",
      "signature": "0x70a08231"
    },
    {
      "constant": true,
      "inputs": [],
      "name": "totalSupply",
      "outputs": [
        {
          "name": "",
          "type": "uint256"
        }
      ],
      "payable": false,
      "stateMutability": "view",
      "type": "function",
      "signature": "0x18160ddd"
    },
    {
      "constant": false,
      "inputs": [],
      "name": "getChildOwner",
      "outputs": [
        {
          "name": "",
          "type": "address"
        }
      ],
      "payable": false,
      "stateMutability": "nonpayable",
      "type": "function",
      "signature": "0x7c54a757"
    },
    {
      "constant": false,
      "inputs": [],
      "name": "getOwner",
      "outputs": [
        {
          "name": "",
          "type": "address"
        }
      ],
      "payable": false,
      "stateMutability": "nonpayable",
      "type": "function",
      "signature": "0x893d20e8"
    },
    {
      "constant": false,
      "inputs": [
        {
          "name": "sender",
          "type": "address"
        },
        {
          "name": "receiver",
          "type": "address"
        },
        {
          "name": "amount",
          "type": "uint256"
        },
        {
          "name": "data",
          "type": "bytes32"
        }
      ],
      "name": "transfer",
      "outputs": [
        {
          "name": "",
          "type": "bool"
        }
      ],
      "payable": false,
      "stateMutability": "nonpayable",
      "type": "function",
      "signature": "0x323a1a5c"
    },
    {
      "constant": false,
      "inputs": [
        {
          "name": "receiver",
          "type": "address"
        },
        {
          "name": "amount",
          "type": "uint256"
        }
      ],
      "name": "transfer",
      "outputs": [
        {
          "name": "",
          "type": "bool"
        }
      ],
      "payable": false,
      "stateMutability": "nonpayable",
      "type": "function",
      "signature": "0xa9059cbb"
    },
    {
      "constant": false,
      "inputs": [
        {
          "name": "sender",
          "type": "address"
        },
        {
          "name": "receiver",
          "type": "address"
        },
        {
          "name": "amount",
          "type": "uint256"
        }
      ],
      "name": "transfer",
      "outputs": [
        {
          "name": "",
          "type": "bool"
        }
      ],
      "payable": false,
      "stateMutability": "nonpayable",
      "type": "function",
      "signature": "0xbeabacc8"
    },
    {
      "constant": false,
      "inputs": [
        {
          "name": "receiver",
          "type": "address"
        },
        {
          "name": "amount",
          "type": "uint256"
        }
      ],
      "name": "mint",
      "outputs": [
        {
          "name": "",
          "type": "bool"
        }
      ],
      "payable": false,
      "stateMutability": "nonpayable",
      "type": "function",
      "signature": "0x40c10f19"
    },
    {
      "constant": false,
      "inputs": [
        {
          "name": "tokenAddress",
          "type": "address"
        },
        {
          "name": "receiver",
          "type": "address"
        },
        {
          "name": "amount",
          "type": "uint256"
        }
      ],
      "name": "mint",
      "outputs": [
        {
          "name": "",
          "type": "bool"
        }
      ],
      "payable": false,
      "stateMutability": "nonpayable",
      "type": "function",
      "signature": "0xc6c3bbe6"
    },
    {
      "constant": false,
      "inputs": [
        {
          "name": "amount",
          "type": "uint256"
        }
      ],
      "name": "burn",
      "outputs": [
        {
          "name": "",
          "type": "bool"
        }
      ],
      "payable": false,
      "stateMutability": "nonpayable",
      "type": "function",
      "signature": "0x42966c68"
    },
    {
      "constant": false,
      "inputs": [
        {
          "name": "sender",
          "type": "address"
        },
        {
          "name": "amount",
          "type": "uint256"
        }
      ],
      "name": "burn",
      "outputs": [
        {
          "name": "",
          "type": "bool"
        }
      ],
      "payable": false,
      "stateMutability": "nonpayable",
      "type": "function",
      "signature": "0x9dc29fac"
    }
  ],
  "bytecode": "0x60806040526000600e60146101000a81548160ff0219169083151502179055503480156200002c57600080fd5b5060405162003a1438038062003a14833981018060405260608110156200005257600080fd5b8101908080516401000000008111156200006b57600080fd5b828101905060208101848111156200008257600080fd5b8151856001820283011164010000000082111715620000a057600080fd5b50509291906020018051640100000000811115620000bd57600080fd5b82810190506020810184811115620000d457600080fd5b8151856001820283011164010000000082111715620000f257600080fd5b50509291906020018051906020019092919050505033600e60006101000a81548173ffffffffffffffffffffffffffffffffffffffff021916908373ffffffffffffffffffffffffffffffffffffffff160217905550620001526200034a565b604051809103906000f0801580156200016f573d6000803e3d6000fd5b50600d60006101000a81548173ffffffffffffffffffffffffffffffffffffffff021916908373ffffffffffffffffffffffffffffffffffffffff160217905550600d60009054906101000a900473ffffffffffffffffffffffffffffffffffffffff1673ffffffffffffffffffffffffffffffffffffffff1663703b93728484846040518463ffffffff167c01000000000000000000000000000000000000000000000000000000000281526004018080602001806020018460ff1660ff168152602001838103835286818151815260200191508051906020019080838360005b838110156200026e57808201518184015260208101905062000251565b50505050905090810190601f1680156200029c5780820380516001836020036101000a031916815260200191505b50838103825285818151815260200191508051906020019080838360005b83811015620002d7578082015181840152602081019050620002ba565b50505050905090810190601f168015620003055780820380516001836020036101000a031916815260200191505b5095505050505050600060405180830381600087803b1580156200032857600080fd5b505af11580156200033d573d6000803e3d6000fd5b505050505050506200035b565b60405161163780620023dd83390190565b612072806200036b6000396000f3fe6080604052600436106100f1576000357c0100000000000000000000000000000000000000000000000000000000900463ffffffff1680630131222f146100f657806318160ddd1461014d578063187fe14714610178578063323a1a5c146102ee57806340c10f191461038b57806342966c68146103fe57806364a04b5914610451578063703b9372146104a257806370a082311461058a5780637c54a757146105ef578063893d20e8146106465780638da5cb5b1461069d5780639dc29fac146106f4578063a9059cbb14610767578063beabacc8146107da578063c6c3bbe61461086d578063f2fde38b14610900575b600080fd5b34801561010257600080fd5b5061010b610951565b604051808273ffffffffffffffffffffffffffffffffffffffff1673ffffffffffffffffffffffffffffffffffffffff16815260200191505060405180910390f35b34801561015957600080fd5b50610162610a19565b6040518082815260200191505060405180910390f35b34801561018457600080fd5b506102ec6004803603608081101561019b57600080fd5b81019080803590602001906401000000008111156101b857600080fd5b8201836020820111156101ca57600080fd5b803590602001918460018302840111640100000000831117156101ec57600080fd5b91908080601f016020809104026020016040519081016040528093929190818152602001838380828437600081840152601f19601f8201169050808301925050505050505091929192908035906020019064010000000081111561024f57600080fd5b82018360208201111561026157600080fd5b8035906020019184600183028401116401000000008311171561028357600080fd5b91908080601f016020809104026020016040519081016040528093929190818152602001838380828437600081840152601f19601f820116905080830192505050505050509192919290803560ff16906020019092919080359060200190929190505050610ae4565b005b3480156102fa57600080fd5b506103716004803603608081101561031157600080fd5b81019080803573ffffffffffffffffffffffffffffffffffffffff169060200190929190803573ffffffffffffffffffffffffffffffffffffffff1690602001909291908035906020019092919080359060200190929190505050610be1565b604051808215151515815260200191505060405180910390f35b34801561039757600080fd5b506103e4600480360360408110156103ae57600080fd5b81019080803573ffffffffffffffffffffffffffffffffffffffff16906020019092919080359060200190929190505050610da2565b604051808215151515815260200191505060405180910390f35b34801561040a57600080fd5b506104376004803603602081101561042157600080fd5b8101908080359060200190929190505050610f7e565b604051808215151515815260200191505060405180910390f35b34801561045d57600080fd5b506104a06004803603602081101561047457600080fd5b81019080803573ffffffffffffffffffffffffffffffffffffffff1690602001909291905050506110e1565b005b3480156104ae57600080fd5b50610588600480360360608110156104c557600080fd5b81019080803590602001906401000000008111156104e257600080fd5b8201836020820111156104f457600080fd5b8035906020019184600183028401116401000000008311171561051657600080fd5b90919293919293908035906020019064010000000081111561053757600080fd5b82018360208201111561054957600080fd5b8035906020019184600183028401116401000000008311171561056b57600080fd5b9091929391929390803560ff16906020019092919050505061112e565b005b34801561059657600080fd5b506105d9600480360360208110156105ad57600080fd5b81019080803573ffffffffffffffffffffffffffffffffffffffff1690602001909291905050506111bd565b6040518082815260200191505060405180910390f35b3480156105fb57600080fd5b506106046112c1565b604051808273ffffffffffffffffffffffffffffffffffffffff1673ffffffffffffffffffffffffffffffffffffffff16815260200191505060405180910390f35b34801561065257600080fd5b5061065b6113d1565b604051808273ffffffffffffffffffffffffffffffffffffffff1673ffffffffffffffffffffffffffffffffffffffff16815260200191505060405180910390f35b3480156106a957600080fd5b506106b26113fb565b604051808273ffffffffffffffffffffffffffffffffffffffff1673ffffffffffffffffffffffffffffffffffffffff16815260200191505060405180910390f35b34801561070057600080fd5b5061074d6004803603604081101561071757600080fd5b81019080803573ffffffffffffffffffffffffffffffffffffffff16906020019092919080359060200190929190505050611424565b604051808215151515815260200191505060405180910390f35b34801561077357600080fd5b506107c06004803603604081101561078a57600080fd5b81019080803573ffffffffffffffffffffffffffffffffffffffff1690602001909291908035906020019092919050505061156f565b604051808215151515815260200191505060405180910390f35b3480156107e657600080fd5b50610853600480360360608110156107fd57600080fd5b81019080803573ffffffffffffffffffffffffffffffffffffffff169060200190929190803573ffffffffffffffffffffffffffffffffffffffff16906020019092919080359060200190929190505050611729565b604051808215151515815260200191505060405180910390f35b34801561087957600080fd5b506108e66004803603606081101561089057600080fd5b81019080803573ffffffffffffffffffffffffffffffffffffffff169060200190929190803573ffffffffffffffffffffffffffffffffffffffff1690602001909291908035906020019092919050505061179e565b604051808215151515815260200191505060405180910390f35b34801561090c57600080fd5b5061094f6004803603602081101561092357600080fd5b81019080803573ffffffffffffffffffffffffffffffffffffffff169060200190929190505050611a6d565b005b6000600d60009054906101000a900473ffffffffffffffffffffffffffffffffffffffff1673ffffffffffffffffffffffffffffffffffffffff16630131222f6040518163ffffffff167c0100000000000000000000000000000000000000000000000000000000028152600401602060405180830381600087803b1580156109d957600080fd5b505af11580156109ed573d6000803e3d6000fd5b505050506040513d6020811015610a0357600080fd5b8101908080519060200190929190505050905090565b600080600d60009054906101000a900473ffffffffffffffffffffffffffffffffffffffff1673ffffffffffffffffffffffffffffffffffffffff166318160ddd6040518163ffffffff167c010000000000000000000000000000000000000000000000000000000002815260040160206040518083038186803b158015610aa057600080fd5b505afa158015610ab4573d6000803e3d6000fd5b505050506040513d6020811015610aca57600080fd5b810190808051906020019092919050505090508091505090565b8360019080519060200190610afa929190611f21565b508260029080519060200190610b11929190611f21565b5081600360006101000a81548160ff021916908360ff16021790555033600560006101000a81548173ffffffffffffffffffffffffffffffffffffffff021916908373ffffffffffffffffffffffffffffffffffffffff1602179055508060066000600560009054906101000a900473ffffffffffffffffffffffffffffffffffffffff1673ffffffffffffffffffffffffffffffffffffffff1673ffffffffffffffffffffffffffffffffffffffff168152602001908152602001600020819055508060048190555050505050565b600080600d60009054906101000a900473ffffffffffffffffffffffffffffffffffffffff1673ffffffffffffffffffffffffffffffffffffffff1663323a1a5c878787876040518563ffffffff167c0100000000000000000000000000000000000000000000000000000000028152600401808573ffffffffffffffffffffffffffffffffffffffff1673ffffffffffffffffffffffffffffffffffffffff1681526020018473ffffffffffffffffffffffffffffffffffffffff1673ffffffffffffffffffffffffffffffffffffffff168152602001838152602001828152602001945050505050602060405180830381600087803b158015610ce557600080fd5b505af1158015610cf9573d6000803e3d6000fd5b505050506040513d6020811015610d0f57600080fd5b810190808051906020019092919050505090508015610d96578473ffffffffffffffffffffffffffffffffffffffff163373ffffffffffffffffffffffffffffffffffffffff167f10d85eb696556cf89e382ad2be46259009e783f0060ef100faa456da4d834add8686604051808381526020018281526020019250505060405180910390a35b80915050949350505050565b6000338073ffffffffffffffffffffffffffffffffffffffff16610dc46113fb565b73ffffffffffffffffffffffffffffffffffffffff16141515610de657600080fd5b6000600d60009054906101000a900473ffffffffffffffffffffffffffffffffffffffff1673ffffffffffffffffffffffffffffffffffffffff1663c6c3bbe63087876040518463ffffffff167c0100000000000000000000000000000000000000000000000000000000028152600401808473ffffffffffffffffffffffffffffffffffffffff1673ffffffffffffffffffffffffffffffffffffffff1681526020018373ffffffffffffffffffffffffffffffffffffffff1673ffffffffffffffffffffffffffffffffffffffff1681526020018281526020019350505050602060405180830381600087803b158015610ee157600080fd5b505af1158015610ef5573d6000803e3d6000fd5b505050506040513d6020811015610f0b57600080fd5b810190808051906020019092919050505090508015610f73578473ffffffffffffffffffffffffffffffffffffffff167f0f6798a560793a54c3bcfe86a93cde1e73087d944c0ea20544137d4121396885856040518082815260200191505060405180910390a25b809250505092915050565b600080600d60009054906101000a900473ffffffffffffffffffffffffffffffffffffffff1673ffffffffffffffffffffffffffffffffffffffff16639dc29fac33856040518363ffffffff167c0100000000000000000000000000000000000000000000000000000000028152600401808373ffffffffffffffffffffffffffffffffffffffff1673ffffffffffffffffffffffffffffffffffffffff16815260200182815260200192505050602060405180830381600087803b15801561104657600080fd5b505af115801561105a573d6000803e3d6000fd5b505050506040513d602081101561107057600080fd5b8101908080519060200190929190505050905080156110d8573373ffffffffffffffffffffffffffffffffffffffff167fcc16f5dbb4873280815c1ee09dbd06736cffcc184412cf7a71a0fdb75d397ca5846040518082815260200191505060405180910390a25b80915050919050565b6110e96113fb565b73ffffffffffffffffffffffffffffffffffffffff163373ffffffffffffffffffffffffffffffffffffffff1614151561112257600080fd5b61112b81611b94565b50565b84846007919061113f929190611fa1565b50828260089190611151929190611fa1565b5080600960006101000a81548160ff021916908360ff16021790555033600b60006101000a81548173ffffffffffffffffffffffffffffffffffffffff021916908373ffffffffffffffffffffffffffffffffffffffff1602179055506000600a819055505050505050565b600080600d60009054906101000a900473ffffffffffffffffffffffffffffffffffffffff1673ffffffffffffffffffffffffffffffffffffffff166370a08231846040518263ffffffff167c0100000000000000000000000000000000000000000000000000000000028152600401808273ffffffffffffffffffffffffffffffffffffffff1673ffffffffffffffffffffffffffffffffffffffff16815260200191505060206040518083038186803b15801561127b57600080fd5b505afa15801561128f573d6000803e3d6000fd5b505050506040513d60208110156112a557600080fd5b8101908080519060200190929190505050905080915050919050565b600080600d60009054906101000a900473ffffffffffffffffffffffffffffffffffffffff1673ffffffffffffffffffffffffffffffffffffffff1663893d20e86040518163ffffffff167c0100000000000000000000000000000000000000000000000000000000028152600401602060405180830381600087803b15801561134a57600080fd5b505af115801561135e573d6000803e3d6000fd5b505050506040513d602081101561137457600080fd5b810190808051906020019092919050505090508073ffffffffffffffffffffffffffffffffffffffff167fe3dc01f26841462f7605d43d79c5b39ef562d9d9726f2a390f728966016ae64560405160405180910390a28091505090565b6000600e60009054906101000a900473ffffffffffffffffffffffffffffffffffffffff16905090565b60008060009054906101000a900473ffffffffffffffffffffffffffffffffffffffff16905090565b6000338073ffffffffffffffffffffffffffffffffffffffff166114466113fb565b73ffffffffffffffffffffffffffffffffffffffff1614151561146857600080fd5b82600c60008673ffffffffffffffffffffffffffffffffffffffff1673ffffffffffffffffffffffffffffffffffffffff1681526020019081526020016000205410156114b457600080fd5b61150683600c60008773ffffffffffffffffffffffffffffffffffffffff1673ffffffffffffffffffffffffffffffffffffffff16815260200190815260200160002054611bd790919063ffffffff16565b600c60008673ffffffffffffffffffffffffffffffffffffffff1673ffffffffffffffffffffffffffffffffffffffff1681526020019081526020016000208190555061155e83600a54611bd790919063ffffffff16565b600a81905550600191505092915050565b6000806000600d60009054906101000a900473ffffffffffffffffffffffffffffffffffffffff1673ffffffffffffffffffffffffffffffffffffffff1663beabacc83387876040518463ffffffff167c0100000000000000000000000000000000000000000000000000000000028152600401808473ffffffffffffffffffffffffffffffffffffffff1673ffffffffffffffffffffffffffffffffffffffff1681526020018373ffffffffffffffffffffffffffffffffffffffff1673ffffffffffffffffffffffffffffffffffffffff1681526020018281526020019350505050602060405180830381600087803b15801561166d57600080fd5b505af1158015611681573d6000803e3d6000fd5b505050506040513d602081101561169757600080fd5b81019080805190602001909291905050509050801561171e578473ffffffffffffffffffffffffffffffffffffffff163373ffffffffffffffffffffffffffffffffffffffff167f10d85eb696556cf89e382ad2be46259009e783f0060ef100faa456da4d834add8685604051808381526020018281526020019250505060405180910390a35b809250505092915050565b6000338073ffffffffffffffffffffffffffffffffffffffff1661174b6113fb565b73ffffffffffffffffffffffffffffffffffffffff1614151561176d57600080fd5b60008061177c87878785611bf0565b9050801561178f57600193505050611796565b6000935050505b509392505050565b6000338073ffffffffffffffffffffffffffffffffffffffff166117c06113fb565b73ffffffffffffffffffffffffffffffffffffffff161415156117e257600080fd5b8473ffffffffffffffffffffffffffffffffffffffff16600b60009054906101000a900473ffffffffffffffffffffffffffffffffffffffff1673ffffffffffffffffffffffffffffffffffffffff1614151561183e57600080fd5b600073ffffffffffffffffffffffffffffffffffffffff168473ffffffffffffffffffffffffffffffffffffffff16141561187857600080fd5b600073ffffffffffffffffffffffffffffffffffffffff168473ffffffffffffffffffffffffffffffffffffffff1614156118b257600080fd5b60006118c984600a54611ef090919063ffffffff16565b600a8190555061192184600c60008873ffffffffffffffffffffffffffffffffffffffff1673ffffffffffffffffffffffffffffffffffffffff16815260200190815260200160002054611ef090919063ffffffff16565b600c60008773ffffffffffffffffffffffffffffffffffffffff1673ffffffffffffffffffffffffffffffffffffffff1681526020019081526020016000208190555061196d85611f0e565b15611a605760008590508073ffffffffffffffffffffffffffffffffffffffff16638397cc948887856040518463ffffffff167c0100000000000000000000000000000000000000000000000000000000028152600401808473ffffffffffffffffffffffffffffffffffffffff1673ffffffffffffffffffffffffffffffffffffffff1681526020018381526020018281526020019350505050602060405180830381600087803b158015611a2257600080fd5b505af1158015611a36573d6000803e3d6000fd5b505050506040513d6020811015611a4c57600080fd5b810190808051906020019092919050505050505b6001925050509392505050565b611a756113fb565b73ffffffffffffffffffffffffffffffffffffffff163373ffffffffffffffffffffffffffffffffffffffff16141515611aae57600080fd5b600073ffffffffffffffffffffffffffffffffffffffff168173ffffffffffffffffffffffffffffffffffffffff1614151515611aea57600080fd5b7f8be0079c531659141344cd1fd0a4f28419497f9722a3daafe3b4186f6b6457e0611b136113fb565b82604051808373ffffffffffffffffffffffffffffffffffffffff1673ffffffffffffffffffffffffffffffffffffffff1681526020018273ffffffffffffffffffffffffffffffffffffffff1673ffffffffffffffffffffffffffffffffffffffff1681526020019250505060405180910390a1611b9181611b94565b50565b806000806101000a81548173ffffffffffffffffffffffffffffffffffffffff021916908373ffffffffffffffffffffffffffffffffffffffff16021790555050565b6000828211151515611be557fe5b818303905092915050565b6000338073ffffffffffffffffffffffffffffffffffffffff16611c126113fb565b73ffffffffffffffffffffffffffffffffffffffff16141515611c3457600080fd5b83611c3e876111bd565b1015611c4957600080fd5b600073ffffffffffffffffffffffffffffffffffffffff168573ffffffffffffffffffffffffffffffffffffffff161415611c8357600080fd5b600073ffffffffffffffffffffffffffffffffffffffff168573ffffffffffffffffffffffffffffffffffffffff161415611cbd57600080fd5b611d0f84600660008973ffffffffffffffffffffffffffffffffffffffff1673ffffffffffffffffffffffffffffffffffffffff16815260200190815260200160002054611bd790919063ffffffff16565b600660008873ffffffffffffffffffffffffffffffffffffffff1673ffffffffffffffffffffffffffffffffffffffff16815260200190815260200160002081905550611da484600660008873ffffffffffffffffffffffffffffffffffffffff1673ffffffffffffffffffffffffffffffffffffffff16815260200190815260200160002054611ef090919063ffffffff16565b600660008773ffffffffffffffffffffffffffffffffffffffff1673ffffffffffffffffffffffffffffffffffffffff16815260200190815260200160002081905550611df085611f0e565b15611ee35760008590508073ffffffffffffffffffffffffffffffffffffffff16638397cc948887876040518463ffffffff167c0100000000000000000000000000000000000000000000000000000000028152600401808473ffffffffffffffffffffffffffffffffffffffff1673ffffffffffffffffffffffffffffffffffffffff1681526020018381526020018281526020019350505050602060405180830381600087803b158015611ea557600080fd5b505af1158015611eb9573d6000803e3d6000fd5b505050506040513d6020811015611ecf57600080fd5b810190808051906020019092919050505050505b6001915050949350505050565b6000808284019050838110151515611f0457fe5b8091505092915050565b600080823b905060008111915050919050565b828054600181600116156101000203166002900490600052602060002090601f016020900481019282601f10611f6257805160ff1916838001178555611f90565b82800160010185558215611f90579182015b82811115611f8f578251825591602001919060010190611f74565b5b509050611f9d9190612021565b5090565b828054600181600116156101000203166002900490600052602060002090601f016020900481019282601f10611fe257803560ff1916838001178555612010565b82800160010185558215612010579182015b8281111561200f578235825591602001919060010190611ff4565b5b50905061201d9190612021565b5090565b61204391905b8082111561203f576000816000905550600101612027565b5090565b9056fea165627a7a7230582052f8c86849886adbf0ec86a49ce4eb0ceaed87c2b3b3dda16134b025e0b9466b0029608060405234801561001057600080fd5b50611617806100206000396000f3fe6080604052600436106100c5576000357c0100000000000000000000000000000000000000000000000000000000900463ffffffff1680630131222f146100ca57806318160ddd14610121578063187fe1471461014c578063323a1a5c146102c257806364a04b591461035f578063703b9372146103b057806370a0823114610498578063893d20e8146104fd5780638da5cb5b146105545780639dc29fac146105ab578063beabacc81461061e578063c6c3bbe6146106b1578063f2fde38b14610744575b600080fd5b3480156100d657600080fd5b506100df610795565b604051808273ffffffffffffffffffffffffffffffffffffffff1673ffffffffffffffffffffffffffffffffffffffff16815260200191505060405180910390f35b34801561012d57600080fd5b506101366107e0565b6040518082815260200191505060405180910390f35b34801561015857600080fd5b506102c06004803603608081101561016f57600080fd5b810190808035906020019064010000000081111561018c57600080fd5b82018360208201111561019e57600080fd5b803590602001918460018302840111640100000000831117156101c057600080fd5b91908080601f016020809104026020016040519081016040528093929190818152602001838380828437600081840152601f19601f8201169050808301925050505050505091929192908035906020019064010000000081111561022357600080fd5b82018360208201111561023557600080fd5b8035906020019184600183028401116401000000008311171561025757600080fd5b91908080601f016020809104026020016040519081016040528093929190818152602001838380828437600081840152601f19601f820116905080830192505050505050509192919290803560ff1690602001909291908035906020019092919050505061082d565b005b3480156102ce57600080fd5b50610345600480360360808110156102e557600080fd5b81019080803573ffffffffffffffffffffffffffffffffffffffff169060200190929190803573ffffffffffffffffffffffffffffffffffffffff169060200190929190803590602001909291908035906020019092919050505061092a565b604051808215151515815260200191505060405180910390f35b34801561036b57600080fd5b506103ae6004803603602081101561038257600080fd5b81019080803573ffffffffffffffffffffffffffffffffffffffff169060200190929190505050610985565b005b3480156103bc57600080fd5b50610496600480360360608110156103d357600080fd5b81019080803590602001906401000000008111156103f057600080fd5b82018360208201111561040257600080fd5b8035906020019184600183028401116401000000008311171561042457600080fd5b90919293919293908035906020019064010000000081111561044557600080fd5b82018360208201111561045757600080fd5b8035906020019184600183028401116401000000008311171561047957600080fd5b9091929391929390803560ff1690602001909291905050506109d2565b005b3480156104a457600080fd5b506104e7600480360360208110156104bb57600080fd5b81019080803573ffffffffffffffffffffffffffffffffffffffff169060200190929190505050610a61565b6040518082815260200191505060405180910390f35b34801561050957600080fd5b50610512610aed565b604051808273ffffffffffffffffffffffffffffffffffffffff1673ffffffffffffffffffffffffffffffffffffffff16815260200191505060405180910390f35b34801561056057600080fd5b50610569610b5a565b604051808273ffffffffffffffffffffffffffffffffffffffff1673ffffffffffffffffffffffffffffffffffffffff16815260200191505060405180910390f35b3480156105b757600080fd5b50610604600480360360408110156105ce57600080fd5b81019080803573ffffffffffffffffffffffffffffffffffffffff16906020019092919080359060200190929190505050610b83565b604051808215151515815260200191505060405180910390f35b34801561062a57600080fd5b506106976004803603606081101561064157600080fd5b81019080803573ffffffffffffffffffffffffffffffffffffffff169060200190929190803573ffffffffffffffffffffffffffffffffffffffff16906020019092919080359060200190929190505050610cce565b604051808215151515815260200191505060405180910390f35b3480156106bd57600080fd5b5061072a600480360360608110156106d457600080fd5b81019080803573ffffffffffffffffffffffffffffffffffffffff169060200190929190803573ffffffffffffffffffffffffffffffffffffffff16906020019092919080359060200190929190505050610d43565b604051808215151515815260200191505060405180910390f35b34801561075057600080fd5b506107936004803603602081101561076757600080fd5b81019080803573ffffffffffffffffffffffffffffffffffffffff169060200190929190505050611012565b005b6000338073ffffffffffffffffffffffffffffffffffffffff166107b7610b5a565b73ffffffffffffffffffffffffffffffffffffffff161415156107d957600080fd5b3091505090565b6000338073ffffffffffffffffffffffffffffffffffffffff16610802610b5a565b73ffffffffffffffffffffffffffffffffffffffff1614151561082457600080fd5b600a5491505090565b83600190805190602001906108439291906114c6565b50826002908051906020019061085a9291906114c6565b5081600360006101000a81548160ff021916908360ff16021790555033600560006101000a81548173ffffffffffffffffffffffffffffffffffffffff021916908373ffffffffffffffffffffffffffffffffffffffff1602179055508060066000600560009054906101000a900473ffffffffffffffffffffffffffffffffffffffff1673ffffffffffffffffffffffffffffffffffffffff1673ffffffffffffffffffffffffffffffffffffffff168152602001908152602001600020819055508060048190555050505050565b6000338073ffffffffffffffffffffffffffffffffffffffff1661094c610b5a565b73ffffffffffffffffffffffffffffffffffffffff1614151561096e57600080fd5b61097a86868686611139565b915050949350505050565b61098d610b5a565b73ffffffffffffffffffffffffffffffffffffffff163373ffffffffffffffffffffffffffffffffffffffff161415156109c657600080fd5b6109cf81611439565b50565b8484600791906109e3929190611546565b508282600891906109f5929190611546565b5080600960006101000a81548160ff021916908360ff16021790555033600b60006101000a81548173ffffffffffffffffffffffffffffffffffffffff021916908373ffffffffffffffffffffffffffffffffffffffff1602179055506000600a819055505050505050565b6000338073ffffffffffffffffffffffffffffffffffffffff16610a83610b5a565b73ffffffffffffffffffffffffffffffffffffffff16141515610aa557600080fd5b600c60008473ffffffffffffffffffffffffffffffffffffffff1673ffffffffffffffffffffffffffffffffffffffff16815260200190815260200160002054915050919050565b6000338073ffffffffffffffffffffffffffffffffffffffff16610b0f610b5a565b73ffffffffffffffffffffffffffffffffffffffff16141515610b3157600080fd5b600b60009054906101000a900473ffffffffffffffffffffffffffffffffffffffff1691505090565b60008060009054906101000a900473ffffffffffffffffffffffffffffffffffffffff16905090565b6000338073ffffffffffffffffffffffffffffffffffffffff16610ba5610b5a565b73ffffffffffffffffffffffffffffffffffffffff16141515610bc757600080fd5b82600c60008673ffffffffffffffffffffffffffffffffffffffff1673ffffffffffffffffffffffffffffffffffffffff168152602001908152602001600020541015610c1357600080fd5b610c6583600c60008773ffffffffffffffffffffffffffffffffffffffff1673ffffffffffffffffffffffffffffffffffffffff1681526020019081526020016000205461147c90919063ffffffff16565b600c60008673ffffffffffffffffffffffffffffffffffffffff1673ffffffffffffffffffffffffffffffffffffffff16815260200190815260200160002081905550610cbd83600a5461147c90919063ffffffff16565b600a81905550600191505092915050565b6000338073ffffffffffffffffffffffffffffffffffffffff16610cf0610b5a565b73ffffffffffffffffffffffffffffffffffffffff16141515610d1257600080fd5b600080610d2187878785611139565b90508015610d3457600193505050610d3b565b6000935050505b509392505050565b6000338073ffffffffffffffffffffffffffffffffffffffff16610d65610b5a565b73ffffffffffffffffffffffffffffffffffffffff16141515610d8757600080fd5b8473ffffffffffffffffffffffffffffffffffffffff16600b60009054906101000a900473ffffffffffffffffffffffffffffffffffffffff1673ffffffffffffffffffffffffffffffffffffffff16141515610de357600080fd5b600073ffffffffffffffffffffffffffffffffffffffff168473ffffffffffffffffffffffffffffffffffffffff161415610e1d57600080fd5b600073ffffffffffffffffffffffffffffffffffffffff168473ffffffffffffffffffffffffffffffffffffffff161415610e5757600080fd5b6000610e6e84600a5461149590919063ffffffff16565b600a81905550610ec684600c60008873ffffffffffffffffffffffffffffffffffffffff1673ffffffffffffffffffffffffffffffffffffffff1681526020019081526020016000205461149590919063ffffffff16565b600c60008773ffffffffffffffffffffffffffffffffffffffff1673ffffffffffffffffffffffffffffffffffffffff16815260200190815260200160002081905550610f12856114b3565b156110055760008590508073ffffffffffffffffffffffffffffffffffffffff16638397cc948887856040518463ffffffff167c0100000000000000000000000000000000000000000000000000000000028152600401808473ffffffffffffffffffffffffffffffffffffffff1673ffffffffffffffffffffffffffffffffffffffff1681526020018381526020018281526020019350505050602060405180830381600087803b158015610fc757600080fd5b505af1158015610fdb573d6000803e3d6000fd5b505050506040513d6020811015610ff157600080fd5b810190808051906020019092919050505050505b6001925050509392505050565b61101a610b5a565b73ffffffffffffffffffffffffffffffffffffffff163373ffffffffffffffffffffffffffffffffffffffff1614151561105357600080fd5b600073ffffffffffffffffffffffffffffffffffffffff168173ffffffffffffffffffffffffffffffffffffffff161415151561108f57600080fd5b7f8be0079c531659141344cd1fd0a4f28419497f9722a3daafe3b4186f6b6457e06110b8610b5a565b82604051808373ffffffffffffffffffffffffffffffffffffffff1673ffffffffffffffffffffffffffffffffffffffff1681526020018273ffffffffffffffffffffffffffffffffffffffff1673ffffffffffffffffffffffffffffffffffffffff1681526020019250505060405180910390a161113681611439565b50565b6000338073ffffffffffffffffffffffffffffffffffffffff1661115b610b5a565b73ffffffffffffffffffffffffffffffffffffffff1614151561117d57600080fd5b8361118787610a61565b101561119257600080fd5b600073ffffffffffffffffffffffffffffffffffffffff168573ffffffffffffffffffffffffffffffffffffffff1614156111cc57600080fd5b600073ffffffffffffffffffffffffffffffffffffffff168573ffffffffffffffffffffffffffffffffffffffff16141561120657600080fd5b61125884600660008973ffffffffffffffffffffffffffffffffffffffff1673ffffffffffffffffffffffffffffffffffffffff1681526020019081526020016000205461147c90919063ffffffff16565b600660008873ffffffffffffffffffffffffffffffffffffffff1673ffffffffffffffffffffffffffffffffffffffff168152602001908152602001600020819055506112ed84600660008873ffffffffffffffffffffffffffffffffffffffff1673ffffffffffffffffffffffffffffffffffffffff1681526020019081526020016000205461149590919063ffffffff16565b600660008773ffffffffffffffffffffffffffffffffffffffff1673ffffffffffffffffffffffffffffffffffffffff16815260200190815260200160002081905550611339856114b3565b1561142c5760008590508073ffffffffffffffffffffffffffffffffffffffff16638397cc948887876040518463ffffffff167c0100000000000000000000000000000000000000000000000000000000028152600401808473ffffffffffffffffffffffffffffffffffffffff1673ffffffffffffffffffffffffffffffffffffffff1681526020018381526020018281526020019350505050602060405180830381600087803b1580156113ee57600080fd5b505af1158015611402573d6000803e3d6000fd5b505050506040513d602081101561141857600080fd5b810190808051906020019092919050505050505b6001915050949350505050565b806000806101000a81548173ffffffffffffffffffffffffffffffffffffffff021916908373ffffffffffffffffffffffffffffffffffffffff16021790555050565b600082821115151561148a57fe5b818303905092915050565b60008082840190508381101515156114a957fe5b8091505092915050565b600080823b905060008111915050919050565b828054600181600116156101000203166002900490600052602060002090601f016020900481019282601f1061150757805160ff1916838001178555611535565b82800160010185558215611535579182015b82811115611534578251825591602001919060010190611519565b5b50905061154291906115c6565b5090565b828054600181600116156101000203166002900490600052602060002090601f016020900481019282601f1061158757803560ff19168380011785556115b5565b828001600101855582156115b5579182015b828111156115b4578235825591602001919060010190611599565b5b5090506115c291906115c6565b5090565b6115e891905b808211156115e45760008160009055506001016115cc565b5090565b9056fea165627a7a723058205afe8ea46a6f2603206f07a88010e1f3b9acecbac865d0bb4b6d6b43e6aa5b890029",
  "source": "pragma solidity ^0.5.0;\nimport \"./interface/token-interface.sol\";\nimport \"./implementation/basic-token.sol\";\nimport \"./implementation/mintable-token.sol\";\nimport \"../admin/ExternalStorage.sol\";\nimport \"../admin/administratable.sol\";\n\n// contracts/libraries/Modifiers.sol\n\n//Todo Create a Hybrid TOken\n/*\n * @title Basic token\n * @dev This ERC223 token is the most basic of them all ; the total amount of\n    tokens are first created and stored in the contract's owner address.\n * @dev The total supply is created first ( it is capped ) and sent to different\n    addresses during ICO\n */\n\n //TODO MAke sure burn and other are called through the parent.\ncontract token is Mintable {\n    tokenInterface private _token;\n    address private _owner;\n    bool private _finalized = false;\n    address  External_Storage_addr;\n\n\n    constructor(string memory symbol, string memory name, uint8 decimals ) public\n    {\n      _owner = msg.sender;\n      _token= new Mintable();\n      _token.mintable(symbol,name,decimals) ;\n\n    }\n    function get_address() public returns (address)\n    {\n      return _token.get_address();\n    }\n\n    /*\n     * @dev get balance of a tokens address\n     * @params an address representing target wallet\n     * @return A uint256 representing an address balance\n     */\n    function balanceOf(address addr) public view returns(uint256)\n    {\n      uint256 result = _token.balanceOf(addr);\n      return result;\n    }\n\n    /*\n     * @dev get total amount of tokens created\n     * @return A uint256 representing the number oif tokens created.\n     */\n    function totalSupply() public view returns(uint256)\n    {\n      uint256 result = _token.totalSupply();\n      return result;\n    }\n\n    /*\n     * @dev get the tokens creator address\n     * @return token creator's (owner) address\n     */\n    function getChildOwner() public returns(address)\n    {\n      address result = _token.getOwner();\n      emit GetOwner(result);\n      return result;\n    }\n    function getOwner() public returns(address)\n    {\n      return _owner;\n    }\n    /*\n     * @dev transfer function that is called when user or a contract wants to transfer tokens.\n     * @params to is the address tokens are being transferred to\n     * @params amount is the amount of tokens being transfered\n     * @params data is of type bytes that represents the message being sent\n     * @return A uint8 representing token's decimals\n     */\n    function transfer(address sender, address receiver, uint256 amount, bytes32 data) external returns(bool)\n    {\n      bool result=_token.transfer(sender,receiver,amount,data);\n      if(result)\n      {\n        emit Transfer(msg.sender,receiver,amount ,data);\n      }\n      return result;\n    }\n\n    /*\n     * @dev transfer function that is called when user or a contract wants to transfer tokens.\n     * @dev it is identical to ERC20 Standard's transfer function\n     * @params to is the address tokens are being transferred to\n     * @params amount is the amount of tokens being transfered\n     * @return A uint8 representing token's decimals\n     */\n    function transfer(address receiver, uint256 amount) public returns(bool)\n    {\n      bytes32 empty;\n      bool result = _token.transfer(msg.sender,receiver,amount);\n      if(result)\n      {\n        emit Transfer( msg.sender,receiver,amount,empty);\n      }\n      return result;\n    }\n\n\n    function mint(address receiver, uint256 amount) public onlyOwnerEx (msg.sender) returns(bool)\n    {\n\n        bool result = _token.mint(address(this),receiver,amount);\n        if(result)\n        {\n          emit Mint(receiver, amount);\n        }\n        return result;\n\n    }\n\n\n\n    /*\n     * @dev this is the function that is called when tokens are being burnt\n     * @params amount is of type uint 256 representingnumber of tokens being burnt\n     * @return a boolean alue indication success or failure of the operation\n     */\n    function burn(uint256 amount) public returns(bool)\n    {\n      bool result = _token.burn(msg.sender,amount);\n      if(result)\n      {\n        emit Burn(msg.sender, amount);\n      }\n      return result;\n    }\n\n\n    //Events\n   // event TotalSupply(uint256 totalSupply);\n    event BalanceOf(address addr, uint256 balance);\n    event Burn(address indexed receiver, uint256 amount);\n    event Transfer(address indexed sender, address indexed receiver, uint256 amount, bytes32 data);\n    event GetOwner(address indexed owner);\n    event Mint(address indexed receiver, uint256 amount);\n\n\n\n\n}\n",
  "sourcePath": "/home/sergey/Documents/angels/Angeles.VC-token-scrum-investing/contracts/tokens/token.sol",
  "compiler": {
    "name": "solc",
    "version": "0.5.0+commit.1d4f565a.Emscripten.clang"
  },
  "schemaVersion": "3.0.2",
  "updatedAt": "2019-03-26T08:10:22.012Z",
  "devdoc": {
    "methods": {
      "ownable(address)": {
        "details": "The constructor sets the original owner of the contract to the sender account."
      },
      "owner()": {
        "details": "Tells the address of the owner",
        "return": "the address of the owner"
      },
      "transferOwnership(address)": {
        "details": "Allows the current owner to transfer control of the contract to a newOwner.",
        "params": {
          "newOwner": "The address to transfer ownership to."
        }
      }
    }
  },
  "userdoc": {
    "methods": {}
  }
}