{
  "contractName": "token",
  "abi": [
    {
      "constant": false,
      "inputs": [
        {
          "name": "_sender_address",
          "type": "address"
        }
      ],
      "name": "check_owner",
      "outputs": [
        {
          "name": "",
          "type": "bool"
        }
      ],
      "payable": false,
      "stateMutability": "nonpayable",
      "type": "function",
      "signature": "0x0c3504c9"
    },
    {
      "constant": false,
      "inputs": [
        {
          "name": "newOwner",
          "type": "address"
        }
      ],
      "name": "setOwner",
      "outputs": [],
      "payable": false,
      "stateMutability": "nonpayable",
      "type": "function",
      "signature": "0x13af4035"
    },
    {
      "constant": false,
      "inputs": [
        {
          "name": "symbol",
          "type": "string"
        },
        {
          "name": "name",
          "type": "string"
        },
        {
          "name": "decimals",
          "type": "uint8"
        },
        {
          "name": "totalSupply",
          "type": "uint256"
        }
      ],
      "name": "Basic",
      "outputs": [],
      "payable": false,
      "stateMutability": "nonpayable",
      "type": "function",
      "signature": "0x187fe147"
    },
    {
      "constant": false,
      "inputs": [
        {
          "name": "BasicAdministratableaddr",
          "type": "address"
        }
      ],
      "name": "_initAdministratable",
      "outputs": [],
      "payable": false,
      "stateMutability": "nonpayable",
      "type": "function",
      "signature": "0x42716730"
    },
    {
      "constant": false,
      "inputs": [
        {
          "name": "symbol",
          "type": "string"
        },
        {
          "name": "name",
          "type": "string"
        },
        {
          "name": "decimals",
          "type": "uint8"
        }
      ],
      "name": "mintable",
      "outputs": [],
      "payable": false,
      "stateMutability": "nonpayable",
      "type": "function",
      "signature": "0x703b9372"
    },
    {
      "constant": false,
      "inputs": [
        {
          "name": "msgSender",
          "type": "address"
        }
      ],
      "name": "checkAdmin",
      "outputs": [
        {
          "name": "",
          "type": "bool"
        }
      ],
      "payable": false,
      "stateMutability": "nonpayable",
      "type": "function",
      "signature": "0x9026dee8"
    },
    {
      "constant": false,
      "inputs": [
        {
          "name": "msgSender",
          "type": "address"
        }
      ],
      "name": "checkSuperAdmin",
      "outputs": [
        {
          "name": "",
          "type": "bool"
        }
      ],
      "payable": false,
      "stateMutability": "nonpayable",
      "type": "function",
      "signature": "0xa1d658b1"
    },
    {
      "inputs": [
        {
          "name": "symbol",
          "type": "string"
        },
        {
          "name": "name",
          "type": "string"
        },
        {
          "name": "decimals",
          "type": "uint8"
        }
      ],
      "payable": false,
      "stateMutability": "nonpayable",
      "type": "constructor",
      "signature": "constructor"
    },
    {
      "anonymous": false,
      "inputs": [
        {
          "indexed": false,
          "name": "addr",
          "type": "address"
        },
        {
          "indexed": false,
          "name": "balance",
          "type": "uint256"
        }
      ],
      "name": "BalanceOf",
      "type": "event",
      "signature": "0x53fa2f1ab3ce356105837b2d33e4d9445d41050bf57eca18817186e0242a08a9"
    },
    {
      "anonymous": false,
      "inputs": [
        {
          "indexed": true,
          "name": "receiver",
          "type": "address"
        },
        {
          "indexed": false,
          "name": "amount",
          "type": "uint256"
        }
      ],
      "name": "Burn",
      "type": "event",
      "signature": "0xcc16f5dbb4873280815c1ee09dbd06736cffcc184412cf7a71a0fdb75d397ca5"
    },
    {
      "anonymous": false,
      "inputs": [
        {
          "indexed": true,
          "name": "sender",
          "type": "address"
        },
        {
          "indexed": true,
          "name": "receiver",
          "type": "address"
        },
        {
          "indexed": false,
          "name": "amount",
          "type": "uint256"
        },
        {
          "indexed": false,
          "name": "data",
          "type": "bytes32"
        }
      ],
      "name": "Transfer",
      "type": "event",
      "signature": "0x10d85eb696556cf89e382ad2be46259009e783f0060ef100faa456da4d834add"
    },
    {
      "anonymous": false,
      "inputs": [
        {
          "indexed": true,
          "name": "owner",
          "type": "address"
        }
      ],
      "name": "GetOwner",
      "type": "event",
      "signature": "0xe3dc01f26841462f7605d43d79c5b39ef562d9d9726f2a390f728966016ae645"
    },
    {
      "anonymous": false,
      "inputs": [
        {
          "indexed": true,
          "name": "receiver",
          "type": "address"
        },
        {
          "indexed": false,
          "name": "amount",
          "type": "uint256"
        }
      ],
      "name": "Mint",
      "type": "event",
      "signature": "0x0f6798a560793a54c3bcfe86a93cde1e73087d944c0ea20544137d4121396885"
    },
    {
      "constant": false,
      "inputs": [],
      "name": "get_address",
      "outputs": [
        {
          "name": "",
          "type": "address"
        }
      ],
      "payable": false,
      "stateMutability": "nonpayable",
      "type": "function",
      "signature": "0x0131222f"
    },
    {
      "constant": true,
      "inputs": [
        {
          "name": "addr",
          "type": "address"
        }
      ],
      "name": "balanceOf",
      "outputs": [
        {
          "name": "",
          "type": "uint256"
        }
      ],
      "payable": false,
      "stateMutability": "view",
      "type": "function",
      "signature": "0x70a08231"
    },
    {
      "constant": true,
      "inputs": [],
      "name": "totalSupply",
      "outputs": [
        {
          "name": "",
          "type": "uint256"
        }
      ],
      "payable": false,
      "stateMutability": "view",
      "type": "function",
      "signature": "0x18160ddd"
    },
    {
      "constant": false,
      "inputs": [],
      "name": "getChildOwner",
      "outputs": [
        {
          "name": "",
          "type": "address"
        }
      ],
      "payable": false,
      "stateMutability": "nonpayable",
      "type": "function",
      "signature": "0x7c54a757"
    },
    {
      "constant": false,
      "inputs": [],
      "name": "getOwner",
      "outputs": [
        {
          "name": "",
          "type": "address"
        }
      ],
      "payable": false,
      "stateMutability": "nonpayable",
      "type": "function",
      "signature": "0x893d20e8"
    },
    {
      "constant": false,
      "inputs": [
        {
          "name": "sender",
          "type": "address"
        },
        {
          "name": "receiver",
          "type": "address"
        },
        {
          "name": "amount",
          "type": "uint256"
        },
        {
          "name": "data",
          "type": "bytes32"
        }
      ],
      "name": "transfer",
      "outputs": [
        {
          "name": "",
          "type": "bool"
        }
      ],
      "payable": false,
      "stateMutability": "nonpayable",
      "type": "function",
      "signature": "0x323a1a5c"
    },
    {
      "constant": false,
      "inputs": [
        {
          "name": "receiver",
          "type": "address"
        },
        {
          "name": "amount",
          "type": "uint256"
        }
      ],
      "name": "transfer",
      "outputs": [
        {
          "name": "",
          "type": "bool"
        }
      ],
      "payable": false,
      "stateMutability": "nonpayable",
      "type": "function",
      "signature": "0xa9059cbb"
    },
    {
      "constant": false,
      "inputs": [
        {
          "name": "sender",
          "type": "address"
        },
        {
          "name": "receiver",
          "type": "address"
        },
        {
          "name": "amount",
          "type": "uint256"
        }
      ],
      "name": "transfer",
      "outputs": [
        {
          "name": "",
          "type": "bool"
        }
      ],
      "payable": false,
      "stateMutability": "nonpayable",
      "type": "function",
      "signature": "0xbeabacc8"
    },
    {
      "constant": false,
      "inputs": [
        {
          "name": "receiver",
          "type": "address"
        },
        {
          "name": "amount",
          "type": "uint256"
        }
      ],
      "name": "mint",
      "outputs": [
        {
          "name": "",
          "type": "bool"
        }
      ],
      "payable": false,
      "stateMutability": "nonpayable",
      "type": "function",
      "signature": "0x40c10f19"
    },
    {
      "constant": false,
      "inputs": [
        {
          "name": "tokenAddress",
          "type": "address"
        },
        {
          "name": "receiver",
          "type": "address"
        },
        {
          "name": "amount",
          "type": "uint256"
        }
      ],
      "name": "mint",
      "outputs": [
        {
          "name": "",
          "type": "bool"
        }
      ],
      "payable": false,
      "stateMutability": "nonpayable",
      "type": "function",
      "signature": "0xc6c3bbe6"
    },
    {
      "constant": false,
      "inputs": [
        {
          "name": "amount",
          "type": "uint256"
        }
      ],
      "name": "burn",
      "outputs": [
        {
          "name": "",
          "type": "bool"
        }
      ],
      "payable": false,
      "stateMutability": "nonpayable",
      "type": "function",
      "signature": "0x42966c68"
    },
    {
      "constant": false,
      "inputs": [
        {
          "name": "sender",
          "type": "address"
        },
        {
          "name": "amount",
          "type": "uint256"
        }
      ],
      "name": "burn",
      "outputs": [
        {
          "name": "",
          "type": "bool"
        }
      ],
      "payable": false,
      "stateMutability": "nonpayable",
      "type": "function",
      "signature": "0x9dc29fac"
    }
  ],
  "bytecode": "0x60806040526010805460a060020a60ff02191690553480156200002157600080fd5b506040516200262e3803806200262e833981018060405260608110156200004757600080fd5b8101908080516401000000008111156200006057600080fd5b820160208101848111156200007457600080fd5b81516401000000008111828201871017156200008f57600080fd5b50509291906020018051640100000000811115620000ac57600080fd5b82016020810184811115620000c057600080fd5b8151640100000000811182820187101715620000db57600080fd5b505060209091015160108054600160a060020a031916331790559092509050620001046200029a565b604051809103906000f08015801562000121573d6000803e3d6000fd5b50600f8054600160a060020a031916600160a060020a0392831617908190556040517f703b937200000000000000000000000000000000000000000000000000000000815260ff84166044820152606060048201908152865160648301528651929093169263703b93729287928792879290918291602482019160840190602088019080838360005b83811015620001c4578181015183820152602001620001aa565b50505050905090810190601f168015620001f25780820380516001836020036101000a031916815260200191505b50838103825285518152855160209182019187019080838360005b83811015620002275781810151838201526020016200020d565b50505050905090810190601f168015620002555780820380516001836020036101000a031916815260200191505b5095505050505050600060405180830381600087803b1580156200027857600080fd5b505af11580156200028d573d6000803e3d6000fd5b50505050505050620002ab565b604051610e7880620017b683390190565b6114fb80620002bb6000396000f3fe6080604052600436106100ed5763ffffffff60e060020a6000350416630131222f81146100f25780630c3504c91461012357806313af40351461016a57806318160ddd1461019f578063187fe147146101c6578063323a1a5c1461030857806340c10f1914610351578063427167301461038a57806342966c68146103bd578063703b9372146103e757806370a08231146104b95780637c54a757146104ec578063893d20e8146105015780639026dee8146105165780639dc29fac14610549578063a1d658b114610582578063a9059cbb146105b5578063beabacc8146105ee578063c6c3bbe614610631575b600080fd5b3480156100fe57600080fd5b50610107610674565b60408051600160a060020a039092168252519081900360200190f35b34801561012f57600080fd5b506101566004803603602081101561014657600080fd5b5035600160a060020a0316610705565b604080519115158252519081900360200190f35b34801561017657600080fd5b5061019d6004803603602081101561018d57600080fd5b5035600160a060020a03166107a2565b005b3480156101ab57600080fd5b506101b46107e8565b60408051918252519081900360200190f35b3480156101d257600080fd5b5061019d600480360360808110156101e957600080fd5b81019060208101813564010000000081111561020457600080fd5b82018360208201111561021657600080fd5b8035906020019184600183028401116401000000008311171561023857600080fd5b91908080601f016020809104026020016040519081016040528093929190818152602001838380828437600092019190915250929594936020810193503591505064010000000081111561028b57600080fd5b82018360208201111561029d57600080fd5b803590602001918460018302840111640100000000831117156102bf57600080fd5b91908080601f0160208091040260200160405190810160405280939291908181526020018383808284376000920191909152509295505060ff833516935050506020013561086e565b34801561031457600080fd5b506101566004803603608081101561032b57600080fd5b50600160a060020a038135811691602081013590911690604081013590606001356108ee565b34801561035d57600080fd5b506101566004803603604081101561037457600080fd5b50600160a060020a0381351690602001356109f3565b34801561039657600080fd5b5061019d600480360360208110156103ad57600080fd5b5035600160a060020a0316610b00565b3480156103c957600080fd5b50610156600480360360208110156103e057600080fd5b5035610b46565b3480156103f357600080fd5b5061019d6004803603606081101561040a57600080fd5b81019060208101813564010000000081111561042557600080fd5b82018360208201111561043757600080fd5b8035906020019184600183028401116401000000008311171561045957600080fd5b91939092909160208101903564010000000081111561047757600080fd5b82018360208201111561048957600080fd5b803590602001918460018302840111640100000000831117156104ab57600080fd5b91935091503560ff16610c28565b3480156104c557600080fd5b506101b4600480360360208110156104dc57600080fd5b5035600160a060020a0316610c81565b3480156104f857600080fd5b50610107610d1c565b34801561050d57600080fd5b50610107610dda565b34801561052257600080fd5b506101566004803603602081101561053957600080fd5b5035600160a060020a0316610de9565b34801561055557600080fd5b506101566004803603604081101561056c57600080fd5b50600160a060020a038135169060200135610e54565b34801561058e57600080fd5b50610156600480360360208110156105a557600080fd5b5035600160a060020a0316610ef1565b3480156105c157600080fd5b50610156600480360360408110156105d857600080fd5b50600160a060020a038135169060200135610f5c565b3480156105fa57600080fd5b506101566004803603606081101561061157600080fd5b50600160a060020a0381358116916020810135909116906040013561105a565b34801561063d57600080fd5b506101566004803603606081101561065457600080fd5b50600160a060020a038135811691602081013590911690604001356110a2565b600f54604080517f0131222f0000000000000000000000000000000000000000000000000000000081529051600092600160a060020a031691630131222f91600480830192602092919082900301818787803b1580156106d357600080fd5b505af11580156106e7573d6000803e3d6000fd5b505050506040513d60208110156106fd57600080fd5b505190505b90565b600154604080517f0c3504c9000000000000000000000000000000000000000000000000000000008152600160a060020a03848116600483015291516000939290921691630c3504c99160248082019260209290919082900301818787803b15801561077057600080fd5b505af1158015610784573d6000803e3d6000fd5b505050506040513d602081101561079a57600080fd5b505192915050565b600254600160a060020a031633146107b957600080fd5b6002805473ffffffffffffffffffffffffffffffffffffffff1916600160a060020a0392909216919091179055565b600080600f60009054906101000a9004600160a060020a0316600160a060020a03166318160ddd6040518163ffffffff1660e060020a02815260040160206040518083038186803b15801561083c57600080fd5b505afa158015610850573d6000803e3d6000fd5b505050506040513d602081101561086657600080fd5b505191505090565b83516108819060039060208701906113c9565b5082516108959060049060208601906113c9565b506005805460ff90931660ff19909316929092179091556007805473ffffffffffffffffffffffffffffffffffffffff1916331790819055600160a060020a031660009081526008602052604090208190556006555050565b600f54604080517f323a1a5c000000000000000000000000000000000000000000000000000000008152600160a060020a0387811660048301528681166024830152604482018690526064820185905291516000938493169163323a1a5c91608480830192602092919082900301818787803b15801561096d57600080fd5b505af1158015610981573d6000803e3d6000fd5b505050506040513d602081101561099757600080fd5b5051905080156109ea5760408051858152602081018590528151600160a060020a0388169233927f10d85eb696556cf89e382ad2be46259009e783f0060ef100faa456da4d834add929081900390910190a35b95945050505050565b6000336109ff81610705565b1515610a0a57600080fd5b600f54604080517fc6c3bbe6000000000000000000000000000000000000000000000000000000008152306004820152600160a060020a038781166024830152604482018790529151600093929092169163c6c3bbe69160648082019260209290919082900301818787803b158015610a8257600080fd5b505af1158015610a96573d6000803e3d6000fd5b505050506040513d6020811015610aac57600080fd5b505190508015610af657604080518581529051600160a060020a038716917f0f6798a560793a54c3bcfe86a93cde1e73087d944c0ea20544137d4121396885919081900360200190a25b91505b5092915050565b600254600160a060020a03163314610b1757600080fd5b6001805473ffffffffffffffffffffffffffffffffffffffff1916600160a060020a0392909216919091179055565b600f54604080517f9dc29fac0000000000000000000000000000000000000000000000000000000081523360048201526024810184905290516000928392600160a060020a0390911691639dc29fac9160448082019260209290919082900301818787803b158015610bb757600080fd5b505af1158015610bcb573d6000803e3d6000fd5b505050506040513d6020811015610be157600080fd5b505190508015610c225760408051848152905133917fcc16f5dbb4873280815c1ee09dbd06736cffcc184412cf7a71a0fdb75d397ca5919081900360200190a25b92915050565b610c3460098686611447565b50610c41600a8484611447565b50600b805460ff90921660ff199092169190911790555050600d805473ffffffffffffffffffffffffffffffffffffffff19163317905550506000600c55565b600f54604080517f70a08231000000000000000000000000000000000000000000000000000000008152600160a060020a0384811660048301529151600093849316916370a08231916024808301926020929190829003018186803b158015610ce957600080fd5b505afa158015610cfd573d6000803e3d6000fd5b505050506040513d6020811015610d1357600080fd5b50519392505050565b600080600f60009054906101000a9004600160a060020a0316600160a060020a031663893d20e86040518163ffffffff1660e060020a028152600401602060405180830381600087803b158015610d7257600080fd5b505af1158015610d86573d6000803e3d6000fd5b505050506040513d6020811015610d9c57600080fd5b5051604051909150600160a060020a038216907fe3dc01f26841462f7605d43d79c5b39ef562d9d9726f2a390f728966016ae64590600090a2905090565b601054600160a060020a031690565b600154604080517f9026dee8000000000000000000000000000000000000000000000000000000008152600160a060020a03848116600483015291516000939290921691639026dee89160248082019260209290919082900301818787803b15801561077057600080fd5b600033610e6081610705565b1515610e6b57600080fd5b600160a060020a0384166000908152600e6020526040902054831115610e9057600080fd5b600160a060020a0384166000908152600e6020526040902054610eb9908463ffffffff61121116565b600160a060020a0385166000908152600e6020526040902055600c54610ee5908463ffffffff61121116565b600c5560019150610af9565b600154604080517fa1d658b1000000000000000000000000000000000000000000000000000000008152600160a060020a0384811660048301529151600093929092169163a1d658b19160248082019260209290919082900301818787803b15801561077057600080fd5b600f54604080517fbeabacc8000000000000000000000000000000000000000000000000000000008152336004820152600160a060020a0385811660248301526044820185905291516000938493849391169163beabacc89160648082019260209290919082900301818787803b158015610fd657600080fd5b505af1158015610fea573d6000803e3d6000fd5b505050506040513d602081101561100057600080fd5b505190508015610af65760408051858152602081018490528151600160a060020a0388169233927f10d85eb696556cf89e382ad2be46259009e783f0060ef100faa456da4d834add929081900390910190a3949350505050565b60003361106681610705565b151561107157600080fd5b60008061108087878785611223565b905080156110935760019350505061109a565b6000935050505b509392505050565b6000336110ae81610705565b15156110b957600080fd5b600d54600160a060020a038681169116146110d357600080fd5b600160a060020a03841615156110e857600080fd5b600160a060020a03841615156110fd57600080fd5b600c54600090611113908563ffffffff6113ab16565b600c55600160a060020a0385166000908152600e602052604090205461113f908563ffffffff6113ab16565b600160a060020a0386166000908152600e6020526040902055611161856113c1565b1561120757604080517f8397cc94000000000000000000000000000000000000000000000000000000008152600160a060020a038881166004830152602482018790526044820184905291518792831691638397cc949160648083019260209291908290030181600087803b1580156111d957600080fd5b505af11580156111ed573d6000803e3d6000fd5b505050506040513d602081101561120357600080fd5b5050505b600192505061109a565b60008282111561121d57fe5b50900390565b60003361122f81610705565b151561123a57600080fd5b8361124487610c81565b101561124f57600080fd5b600160a060020a038516151561126457600080fd5b600160a060020a038516151561127957600080fd5b600160a060020a0386166000908152600860205260409020546112a2908563ffffffff61121116565b600160a060020a0380881660009081526008602052604080822093909355908716815220546112d7908563ffffffff6113ab16565b600160a060020a0386166000908152600860205260409020556112f9856113c1565b1561139f57604080517f8397cc94000000000000000000000000000000000000000000000000000000008152600160a060020a038881166004830152602482018790526044820186905291518792831691638397cc949160648083019260209291908290030181600087803b15801561137157600080fd5b505af1158015611385573d6000803e3d6000fd5b505050506040513d602081101561139b57600080fd5b5050505b50600195945050505050565b6000828201838110156113ba57fe5b9392505050565b6000903b1190565b828054600181600116156101000203166002900490600052602060002090601f016020900481019282601f1061140a57805160ff1916838001178555611437565b82800160010185558215611437579182015b8281111561143757825182559160200191906001019061141c565b506114439291506114b5565b5090565b828054600181600116156101000203166002900490600052602060002090601f016020900481019282601f106114885782800160ff19823516178555611437565b82800160010185558215611437579182015b8281111561143757823582559160200191906001019061149a565b61070291905b8082111561144357600081556001016114bb56fea165627a7a72305820f45d08926fb04dadc6fc78b63ef17d139e0f946ceba764f49d221c342e7053250029608060405234801561001057600080fd5b50610e58806100206000396000f3fe6080604052600436106100da5763ffffffff7c01000000000000000000000000000000000000000000000000000000006000350416630131222f81146100df5780630c3504c91461011057806313af40351461015757806318160ddd1461018c578063187fe147146101b3578063323a1a5c146102f5578063427167301461033e578063703b93721461037157806370a0823114610443578063893d20e8146104765780639026dee81461048b5780639dc29fac146104be578063a1d658b1146104f7578063beabacc81461052a578063c6c3bbe61461056d575b600080fd5b3480156100eb57600080fd5b506100f46105b0565b60408051600160a060020a039092168252519081900360200190f35b34801561011c57600080fd5b506101436004803603602081101561013357600080fd5b5035600160a060020a03166105cf565b604080519115158252519081900360200190f35b34801561016357600080fd5b5061018a6004803603602081101561017a57600080fd5b5035600160a060020a031661066c565b005b34801561019857600080fd5b506101a16106b2565b60408051918252519081900360200190f35b3480156101bf57600080fd5b5061018a600480360360808110156101d657600080fd5b8101906020810181356401000000008111156101f157600080fd5b82018360208201111561020357600080fd5b8035906020019184600183028401116401000000008311171561022557600080fd5b91908080601f016020809104026020016040519081016040528093929190818152602001838380828437600092019190915250929594936020810193503591505064010000000081111561027857600080fd5b82018360208201111561028a57600080fd5b803590602001918460018302840111640100000000831117156102ac57600080fd5b91908080601f0160208091040260200160405190810160405280939291908181526020018383808284376000920191909152509295505060ff83351693505050602001356106b9565b34801561030157600080fd5b506101436004803603608081101561031857600080fd5b50600160a060020a03813581169160208101359091169060408101359060600135610739565b34801561034a57600080fd5b5061018a6004803603602081101561036157600080fd5b5035600160a060020a0316610768565b34801561037d57600080fd5b5061018a6004803603606081101561039457600080fd5b8101906020810181356401000000008111156103af57600080fd5b8201836020820111156103c157600080fd5b803590602001918460018302840111640100000000831117156103e357600080fd5b91939092909160208101903564010000000081111561040157600080fd5b82018360208201111561041357600080fd5b8035906020019184600183028401116401000000008311171561043557600080fd5b91935091503560ff166107ae565b34801561044f57600080fd5b506101a16004803603602081101561046657600080fd5b5035600160a060020a0316610807565b34801561048257600080fd5b506100f4610822565b34801561049757600080fd5b50610143600480360360208110156104ae57600080fd5b5035600160a060020a031661084a565b3480156104ca57600080fd5b50610143600480360360408110156104e157600080fd5b50600160a060020a0381351690602001356108b5565b34801561050357600080fd5b506101436004803603602081101561051a57600080fd5b5035600160a060020a0316610953565b34801561053657600080fd5b506101436004803603606081101561054d57600080fd5b50600160a060020a038135811691602081013590911690604001356109be565b34801561057957600080fd5b506101436004803603606081101561059057600080fd5b50600160a060020a03813581169160208101359091169060400135610a06565b6000336105bc816105cf565b15156105c757600080fd5b3091505b5090565b600154604080517f0c3504c9000000000000000000000000000000000000000000000000000000008152600160a060020a03848116600483015291516000939290921691630c3504c99160248082019260209290919082900301818787803b15801561063a57600080fd5b505af115801561064e573d6000803e3d6000fd5b505050506040513d602081101561066457600080fd5b505192915050565b600254600160a060020a0316331461068357600080fd5b6002805473ffffffffffffffffffffffffffffffffffffffff1916600160a060020a0392909216919091179055565b600c545b90565b83516106cc906003906020870190610d2a565b5082516106e0906004906020860190610d2a565b506005805460ff90931660ff19909316929092179091556007805473ffffffffffffffffffffffffffffffffffffffff1916331790819055600160a060020a031660009081526008602052604090208190556006555050565b600033610745816105cf565b151561075057600080fd5b61075c86868686610b75565b91505b50949350505050565b600254600160a060020a0316331461077f57600080fd5b6001805473ffffffffffffffffffffffffffffffffffffffff1916600160a060020a0392909216919091179055565b6107ba60098686610da4565b506107c7600a8484610da4565b50600b805460ff90921660ff199092169190911790555050600d805473ffffffffffffffffffffffffffffffffffffffff19163317905550506000600c55565b600160a060020a03166000908152600e602052604090205490565b60003361082e816105cf565b151561083957600080fd5b5050600d54600160a060020a031690565b600154604080517f9026dee8000000000000000000000000000000000000000000000000000000008152600160a060020a03848116600483015291516000939290921691639026dee89160248082019260209290919082900301818787803b15801561063a57600080fd5b6000336108c1816105cf565b15156108cc57600080fd5b600160a060020a0384166000908152600e60205260409020548311156108f157600080fd5b600160a060020a0384166000908152600e602052604090205461091a908463ffffffff610cfa16565b600160a060020a0385166000908152600e6020526040902055600c54610946908463ffffffff610cfa16565b600c555060019392505050565b600154604080517fa1d658b1000000000000000000000000000000000000000000000000000000008152600160a060020a0384811660048301529151600093929092169163a1d658b19160248082019260209290919082900301818787803b15801561063a57600080fd5b6000336109ca816105cf565b15156109d557600080fd5b6000806109e487878785610b75565b905080156109f7576001935050506109fe565b6000935050505b509392505050565b600033610a12816105cf565b1515610a1d57600080fd5b600d54600160a060020a03868116911614610a3757600080fd5b600160a060020a0384161515610a4c57600080fd5b600160a060020a0384161515610a6157600080fd5b600c54600090610a77908563ffffffff610d0c16565b600c55600160a060020a0385166000908152600e6020526040902054610aa3908563ffffffff610d0c16565b600160a060020a0386166000908152600e6020526040902055610ac585610d22565b15610b6b57604080517f8397cc94000000000000000000000000000000000000000000000000000000008152600160a060020a038881166004830152602482018790526044820184905291518792831691638397cc949160648083019260209291908290030181600087803b158015610b3d57600080fd5b505af1158015610b51573d6000803e3d6000fd5b505050506040513d6020811015610b6757600080fd5b5050505b60019250506109fe565b600033610b81816105cf565b1515610b8c57600080fd5b83610b9687610807565b1015610ba157600080fd5b600160a060020a0385161515610bb657600080fd5b600160a060020a0385161515610bcb57600080fd5b600160a060020a038616600090815260086020526040902054610bf4908563ffffffff610cfa16565b600160a060020a038088166000908152600860205260408082209390935590871681522054610c29908563ffffffff610d0c16565b600160a060020a038616600090815260086020526040902055610c4b85610d22565b15610cf157604080517f8397cc94000000000000000000000000000000000000000000000000000000008152600160a060020a038881166004830152602482018790526044820186905291518792831691638397cc949160648083019260209291908290030181600087803b158015610cc357600080fd5b505af1158015610cd7573d6000803e3d6000fd5b505050506040513d6020811015610ced57600080fd5b5050505b6001915061075f565b600082821115610d0657fe5b50900390565b600082820183811015610d1b57fe5b9392505050565b6000903b1190565b828054600181600116156101000203166002900490600052602060002090601f016020900481019282601f10610d6b57805160ff1916838001178555610d98565b82800160010185558215610d98579182015b82811115610d98578251825591602001919060010190610d7d565b506105cb929150610e12565b828054600181600116156101000203166002900490600052602060002090601f016020900481019282601f10610de55782800160ff19823516178555610d98565b82800160010185558215610d98579182015b82811115610d98578235825591602001919060010190610df7565b6106b691905b808211156105cb5760008155600101610e1856fea165627a7a723058206eb2efb64139118fa3a7682bbbf8f681f0918e4618c3e3f6ade6c38e8c9d16df0029",
  "source": "pragma solidity ^0.5.0;\nimport \"./interface/tokenInterface.sol\";\n//import \"./implementation/basic-token.sol\";\nimport \"./implementation/mintable-token.sol\";\n//import \"../admin/interface/ExternalStorage.sol\";\n//import \"../admin/interface/administratable.sol\";\n\n// contracts/libraries/Modifiers.sol\n\n//Todo Create a Hybrid TOken\n/*\n * @title Basic token\n * @dev This ERC223 token is the most basic of them all ; the total amount of\n    tokens are first created and stored in the contract's owner address.\n * @dev The total supply is created first ( it is capped ) and sent to different\n    addresses during ICO\n */\n\n //TODO MAke sure burn and other are called through the parent.\ncontract token is Mintable {\n    tokenInterface private _token;\n    address private _owner;\n    bool private _finalized = false;\n    address  External_Storage_addr;\n\n\n    constructor(string memory symbol, string memory name, uint8 decimals ) public\n    {\n      _owner = msg.sender;\n      _token= new Mintable();\n      _token.mintable(symbol,name,decimals) ;\n\n    }\n    function get_address() public returns (address)\n    {\n      return _token.get_address();\n    }\n\n    /*\n     * @dev get balance of a tokens address\n     * @params an address representing target wallet\n     * @return A uint256 representing an address balance\n     */\n    function balanceOf(address addr) public view returns(uint256)\n    {\n      uint256 result = _token.balanceOf(addr);\n      return result;\n    }\n\n    /*\n     * @dev get total amount of tokens created\n     * @return A uint256 representing the number oif tokens created.\n     */\n    function totalSupply() public view returns(uint256)\n    {\n      uint256 result = _token.totalSupply();\n      return result;\n    }\n\n    /*\n     * @dev get the tokens creator address\n     * @return token creator's (owner) address\n     */\n    function getChildOwner() public returns(address)\n    {\n      address result = _token.getOwner();\n      emit GetOwner(result);\n      return result;\n    }\n    function getOwner() public returns(address)\n    {\n      return _owner;\n    }\n    /*\n     * @dev transfer function that is called when user or a contract wants to transfer tokens.\n     * @params to is the address tokens are being transferred to\n     * @params amount is the amount of tokens being transfered\n     * @params data is of type bytes that represents the message being sent\n     * @return A uint8 representing token's decimals\n     */\n    function transfer(address sender, address receiver, uint256 amount, bytes32 data) external returns(bool)\n    {\n      bool result=_token.transfer(sender,receiver,amount,data);\n      if(result)\n      {\n        emit Transfer(msg.sender,receiver,amount ,data);\n      }\n      return result;\n    }\n\n    /*\n     * @dev transfer function that is called when user or a contract wants to transfer tokens.\n     * @dev it is identical to ERC20 Standard's transfer function\n     * @params to is the address tokens are being transferred to\n     * @params amount is the amount of tokens being transfered\n     * @return A uint8 representing token's decimals\n     */\n    function transfer(address receiver, uint256 amount) public returns(bool)\n    {\n      bytes32 empty;\n      bool result = _token.transfer(msg.sender,receiver,amount);\n      if(result)\n      {\n        emit Transfer( msg.sender,receiver,amount,empty);\n      }\n      return result;\n    }\n\n\n    function mint(address receiver, uint256 amount) public onlyOwnerEx (msg.sender) returns(bool)\n    {\n\n        bool result = _token.mint(address(this),receiver,amount);\n        if(result)\n        {\n          emit Mint(receiver, amount);\n        }\n        return result;\n\n    }\n\n\n\n    /*\n     * @dev this is the function that is called when tokens are being burnt\n     * @params amount is of type uint 256 representingnumber of tokens being burnt\n     * @return a boolean alue indication success or failure of the operation\n     */\n    function burn(uint256 amount) public returns(bool)\n    {\n      bool result = _token.burn(msg.sender,amount);\n      if(result)\n      {\n        emit Burn(msg.sender, amount);\n      }\n      return result;\n    }\n\n\n    //Events\n   // event TotalSupply(uint256 totalSupply);\n    event BalanceOf(address addr, uint256 balance);\n    event Burn(address indexed receiver, uint256 amount);\n    event Transfer(address indexed sender, address indexed receiver, uint256 amount, bytes32 data);\n    event GetOwner(address indexed owner);\n    event Mint(address indexed receiver, uint256 amount);\n\n\n\n\n}\n",
  "sourcePath": "/home/st/Desktop/DARF-ANGeles/Angeles.VC-token-scrum-investing/contracts/tokens/token.sol",
  "compiler": {
    "name": "solc",
    "version": "0.5.0+commit.1d4f565a.Emscripten.clang"
  },
  "schemaVersion": "3.0.5",
  "updatedAt": "2019-04-04T17:11:27.622Z",
  "devdoc": {
    "methods": {}
  },
  "userdoc": {
    "methods": {}
  }
}