{
  "contractName": "token",
  "abi": [
    {
      "constant": false,
      "inputs": [
        {
          "name": "_sender_address",
          "type": "address"
        }
      ],
      "name": "check_owner",
      "outputs": [
        {
          "name": "",
          "type": "bool"
        }
      ],
      "payable": false,
      "stateMutability": "nonpayable",
      "type": "function"
    },
    {
      "constant": false,
      "inputs": [
        {
          "name": "symbol",
          "type": "string"
        },
        {
          "name": "name",
          "type": "string"
        },
        {
          "name": "decimals",
          "type": "uint8"
        },
        {
          "name": "totalSupply",
          "type": "uint256"
        }
      ],
      "name": "Basic",
      "outputs": [],
      "payable": false,
      "stateMutability": "nonpayable",
      "type": "function"
    },
    {
      "constant": false,
      "inputs": [
        {
          "name": "BasicAdministratableaddr",
          "type": "address"
        }
      ],
      "name": "_initAdministratable",
      "outputs": [],
      "payable": false,
      "stateMutability": "nonpayable",
      "type": "function"
    },
    {
      "constant": false,
      "inputs": [
        {
          "name": "symbol",
          "type": "string"
        },
        {
          "name": "name",
          "type": "string"
        },
        {
          "name": "decimals",
          "type": "uint8"
        }
      ],
      "name": "mintable",
      "outputs": [],
      "payable": false,
      "stateMutability": "nonpayable",
      "type": "function"
    },
    {
      "constant": false,
      "inputs": [
        {
          "name": "msgSender",
          "type": "address"
        }
      ],
      "name": "checkAdmin",
      "outputs": [
        {
          "name": "",
          "type": "bool"
        }
      ],
      "payable": false,
      "stateMutability": "nonpayable",
      "type": "function"
    },
    {
      "constant": false,
      "inputs": [
        {
          "name": "msgSender",
          "type": "address"
        }
      ],
      "name": "checkSuperAdmin",
      "outputs": [
        {
          "name": "",
          "type": "bool"
        }
      ],
      "payable": false,
      "stateMutability": "nonpayable",
      "type": "function"
    },
    {
      "inputs": [
        {
          "name": "symbol",
          "type": "string"
        },
        {
          "name": "name",
          "type": "string"
        },
        {
          "name": "decimals",
          "type": "uint8"
        }
      ],
      "payable": false,
      "stateMutability": "nonpayable",
      "type": "constructor"
    },
    {
      "anonymous": false,
      "inputs": [
        {
          "indexed": false,
          "name": "addr",
          "type": "address"
        },
        {
          "indexed": false,
          "name": "balance",
          "type": "uint256"
        }
      ],
      "name": "BalanceOf",
      "type": "event"
    },
    {
      "anonymous": false,
      "inputs": [
        {
          "indexed": true,
          "name": "receiver",
          "type": "address"
        },
        {
          "indexed": false,
          "name": "amount",
          "type": "uint256"
        }
      ],
      "name": "Burn",
      "type": "event"
    },
    {
      "anonymous": false,
      "inputs": [
        {
          "indexed": true,
          "name": "sender",
          "type": "address"
        },
        {
          "indexed": true,
          "name": "receiver",
          "type": "address"
        },
        {
          "indexed": false,
          "name": "amount",
          "type": "uint256"
        },
        {
          "indexed": false,
          "name": "data",
          "type": "bytes32"
        }
      ],
      "name": "Transfer",
      "type": "event"
    },
    {
      "anonymous": false,
      "inputs": [
        {
          "indexed": true,
          "name": "owner",
          "type": "address"
        }
      ],
      "name": "GetOwner",
      "type": "event"
    },
    {
      "anonymous": false,
      "inputs": [
        {
          "indexed": true,
          "name": "receiver",
          "type": "address"
        },
        {
          "indexed": false,
          "name": "amount",
          "type": "uint256"
        }
      ],
      "name": "Mint",
      "type": "event"
    },
    {
      "constant": false,
      "inputs": [],
      "name": "get_address",
      "outputs": [
        {
          "name": "",
          "type": "address"
        }
      ],
      "payable": false,
      "stateMutability": "nonpayable",
      "type": "function"
    },
    {
      "constant": true,
      "inputs": [
        {
          "name": "addr",
          "type": "address"
        }
      ],
      "name": "balanceOf",
      "outputs": [
        {
          "name": "",
          "type": "uint256"
        }
      ],
      "payable": false,
      "stateMutability": "view",
      "type": "function"
    },
    {
      "constant": true,
      "inputs": [],
      "name": "totalSupply",
      "outputs": [
        {
          "name": "",
          "type": "uint256"
        }
      ],
      "payable": false,
      "stateMutability": "view",
      "type": "function"
    },
    {
      "constant": false,
      "inputs": [],
      "name": "getChildOwner",
      "outputs": [
        {
          "name": "",
          "type": "address"
        }
      ],
      "payable": false,
      "stateMutability": "nonpayable",
      "type": "function"
    },
    {
      "constant": false,
      "inputs": [],
      "name": "getOwner",
      "outputs": [
        {
          "name": "",
          "type": "address"
        }
      ],
      "payable": false,
      "stateMutability": "nonpayable",
      "type": "function"
    },
    {
      "constant": false,
      "inputs": [
        {
          "name": "sender",
          "type": "address"
        },
        {
          "name": "receiver",
          "type": "address"
        },
        {
          "name": "amount",
          "type": "uint256"
        },
        {
          "name": "data",
          "type": "bytes32"
        }
      ],
      "name": "transfer",
      "outputs": [
        {
          "name": "",
          "type": "bool"
        }
      ],
      "payable": false,
      "stateMutability": "nonpayable",
      "type": "function"
    },
    {
      "constant": false,
      "inputs": [
        {
          "name": "receiver",
          "type": "address"
        },
        {
          "name": "amount",
          "type": "uint256"
        }
      ],
      "name": "transfer",
      "outputs": [
        {
          "name": "",
          "type": "bool"
        }
      ],
      "payable": false,
      "stateMutability": "nonpayable",
      "type": "function"
    },
    {
      "constant": false,
      "inputs": [
        {
          "name": "sender",
          "type": "address"
        },
        {
          "name": "receiver",
          "type": "address"
        },
        {
          "name": "amount",
          "type": "uint256"
        }
      ],
      "name": "transfer",
      "outputs": [
        {
          "name": "",
          "type": "bool"
        }
      ],
      "payable": false,
      "stateMutability": "nonpayable",
      "type": "function"
    },
    {
      "constant": false,
      "inputs": [
        {
          "name": "receiver",
          "type": "address"
        },
        {
          "name": "amount",
          "type": "uint256"
        }
      ],
      "name": "mint",
      "outputs": [
        {
          "name": "",
          "type": "bool"
        }
      ],
      "payable": false,
      "stateMutability": "nonpayable",
      "type": "function"
    },
    {
      "constant": false,
      "inputs": [
        {
          "name": "tokenAddress",
          "type": "address"
        },
        {
          "name": "receiver",
          "type": "address"
        },
        {
          "name": "amount",
          "type": "uint256"
        }
      ],
      "name": "mint",
      "outputs": [
        {
          "name": "",
          "type": "bool"
        }
      ],
      "payable": false,
      "stateMutability": "nonpayable",
      "type": "function"
    },
    {
      "constant": false,
      "inputs": [
        {
          "name": "amount",
          "type": "uint256"
        }
      ],
      "name": "burn",
      "outputs": [
        {
          "name": "",
          "type": "bool"
        }
      ],
      "payable": false,
      "stateMutability": "nonpayable",
      "type": "function"
    },
    {
      "constant": false,
      "inputs": [
        {
          "name": "sender",
          "type": "address"
        },
        {
          "name": "amount",
          "type": "uint256"
        }
      ],
      "name": "burn",
      "outputs": [
        {
          "name": "",
          "type": "bool"
        }
      ],
      "payable": false,
      "stateMutability": "nonpayable",
      "type": "function"
    }
  ],
  "bytecode": "0x60806040526010805460a060020a60ff02191690553480156200002157600080fd5b506040516200252038038062002520833981018060405260608110156200004757600080fd5b8101908080516401000000008111156200006057600080fd5b820160208101848111156200007457600080fd5b81516401000000008111828201871017156200008f57600080fd5b50509291906020018051640100000000811115620000ac57600080fd5b82016020810184811115620000c057600080fd5b8151640100000000811182820187101715620000db57600080fd5b505060209091015160108054600160a060020a031916331790559092509050620001046200029a565b604051809103906000f08015801562000121573d6000803e3d6000fd5b50600f8054600160a060020a031916600160a060020a0392831617908190556040517f703b937200000000000000000000000000000000000000000000000000000000815260ff84166044820152606060048201908152865160648301528651929093169263703b93729287928792879290918291602482019160840190602088019080838360005b83811015620001c4578181015183820152602001620001aa565b50505050905090810190601f168015620001f25780820380516001836020036101000a031916815260200191505b50838103825285518152855160209182019187019080838360005b83811015620002275781810151838201526020016200020d565b50505050905090810190601f168015620002555780820380516001836020036101000a031916815260200191505b5095505050505050600060405180830381600087803b1580156200027857600080fd5b505af11580156200028d573d6000803e3d6000fd5b50505050505050620002ab565b604051610df1806200172f83390190565b61147480620002bb6000396000f3fe6080604052600436106100e25763ffffffff60e060020a6000350416630131222f81146100e75780630c3504c91461011857806318160ddd1461015f578063187fe14714610186578063323a1a5c146102ca57806340c10f1914610313578063427167301461034c57806342966c681461037f578063703b9372146103a957806370a082311461047b5780637c54a757146104ae578063893d20e8146104c35780639026dee8146104d85780639dc29fac1461050b578063a1d658b114610544578063a9059cbb14610577578063beabacc8146105b0578063c6c3bbe6146105f3575b600080fd5b3480156100f357600080fd5b506100fc610636565b60408051600160a060020a039092168252519081900360200190f35b34801561012457600080fd5b5061014b6004803603602081101561013b57600080fd5b5035600160a060020a03166106c7565b604080519115158252519081900360200190f35b34801561016b57600080fd5b50610174610764565b60408051918252519081900360200190f35b34801561019257600080fd5b506102c8600480360360808110156101a957600080fd5b8101906020810181356401000000008111156101c457600080fd5b8201836020820111156101d657600080fd5b803590602001918460018302840111640100000000831117156101f857600080fd5b91908080601f016020809104026020016040519081016040528093929190818152602001838380828437600092019190915250929594936020810193503591505064010000000081111561024b57600080fd5b82018360208201111561025d57600080fd5b8035906020019184600183028401116401000000008311171561027f57600080fd5b91908080601f0160208091040260200160405190810160405280939291908181526020018383808284376000920191909152509295505060ff83351693505050602001356107ea565b005b3480156102d657600080fd5b5061014b600480360360808110156102ed57600080fd5b50600160a060020a0381358116916020810135909116906040810135906060013561086a565b34801561031f57600080fd5b5061014b6004803603604081101561033657600080fd5b50600160a060020a03813516906020013561096f565b34801561035857600080fd5b506102c86004803603602081101561036f57600080fd5b5035600160a060020a0316610a7c565b34801561038b57600080fd5b5061014b600480360360208110156103a257600080fd5b5035610abf565b3480156103b557600080fd5b506102c8600480360360608110156103cc57600080fd5b8101906020810181356401000000008111156103e757600080fd5b8201836020820111156103f957600080fd5b8035906020019184600183028401116401000000008311171561041b57600080fd5b91939092909160208101903564010000000081111561043957600080fd5b82018360208201111561044b57600080fd5b8035906020019184600183028401116401000000008311171561046d57600080fd5b91935091503560ff16610ba1565b34801561048757600080fd5b506101746004803603602081101561049e57600080fd5b5035600160a060020a0316610bfa565b3480156104ba57600080fd5b506100fc610c95565b3480156104cf57600080fd5b506100fc610d53565b3480156104e457600080fd5b5061014b600480360360208110156104fb57600080fd5b5035600160a060020a0316610d62565b34801561051757600080fd5b5061014b6004803603604081101561052e57600080fd5b50600160a060020a038135169060200135610dcd565b34801561055057600080fd5b5061014b6004803603602081101561056757600080fd5b5035600160a060020a0316610e6a565b34801561058357600080fd5b5061014b6004803603604081101561059a57600080fd5b50600160a060020a038135169060200135610ed5565b3480156105bc57600080fd5b5061014b600480360360608110156105d357600080fd5b50600160a060020a03813581169160208101359091169060400135610fd3565b3480156105ff57600080fd5b5061014b6004803603606081101561061657600080fd5b50600160a060020a0381358116916020810135909116906040013561101b565b600f54604080517f0131222f0000000000000000000000000000000000000000000000000000000081529051600092600160a060020a031691630131222f91600480830192602092919082900301818787803b15801561069557600080fd5b505af11580156106a9573d6000803e3d6000fd5b505050506040513d60208110156106bf57600080fd5b505190505b90565b600254604080517f0c3504c9000000000000000000000000000000000000000000000000000000008152600160a060020a03848116600483015291516000939290921691630c3504c99160248082019260209290919082900301818787803b15801561073257600080fd5b505af1158015610746573d6000803e3d6000fd5b505050506040513d602081101561075c57600080fd5b505192915050565b600080600f60009054906101000a9004600160a060020a0316600160a060020a03166318160ddd6040518163ffffffff1660e060020a02815260040160206040518083038186803b1580156107b857600080fd5b505afa1580156107cc573d6000803e3d6000fd5b505050506040513d60208110156107e257600080fd5b505191505090565b83516107fd906003906020870190611342565b508251610811906004906020860190611342565b506005805460ff90931660ff19909316929092179091556007805473ffffffffffffffffffffffffffffffffffffffff1916331790819055600160a060020a031660009081526008602052604090208190556006555050565b600f54604080517f323a1a5c000000000000000000000000000000000000000000000000000000008152600160a060020a0387811660048301528681166024830152604482018690526064820185905291516000938493169163323a1a5c91608480830192602092919082900301818787803b1580156108e957600080fd5b505af11580156108fd573d6000803e3d6000fd5b505050506040513d602081101561091357600080fd5b5051905080156109665760408051858152602081018590528151600160a060020a0388169233927f10d85eb696556cf89e382ad2be46259009e783f0060ef100faa456da4d834add929081900390910190a35b95945050505050565b60003361097b816106c7565b151561098657600080fd5b600f54604080517fc6c3bbe6000000000000000000000000000000000000000000000000000000008152306004820152600160a060020a038781166024830152604482018790529151600093929092169163c6c3bbe69160648082019260209290919082900301818787803b1580156109fe57600080fd5b505af1158015610a12573d6000803e3d6000fd5b505050506040513d6020811015610a2857600080fd5b505190508015610a7257604080518581529051600160a060020a038716917f0f6798a560793a54c3bcfe86a93cde1e73087d944c0ea20544137d4121396885919081900360200190a25b91505b5092915050565b610a85336106c7565b1515610a9057600080fd5b6002805473ffffffffffffffffffffffffffffffffffffffff1916600160a060020a0392909216919091179055565b600f54604080517f9dc29fac0000000000000000000000000000000000000000000000000000000081523360048201526024810184905290516000928392600160a060020a0390911691639dc29fac9160448082019260209290919082900301818787803b158015610b3057600080fd5b505af1158015610b44573d6000803e3d6000fd5b505050506040513d6020811015610b5a57600080fd5b505190508015610b9b5760408051848152905133917fcc16f5dbb4873280815c1ee09dbd06736cffcc184412cf7a71a0fdb75d397ca5919081900360200190a25b92915050565b610bad600986866113c0565b50610bba600a84846113c0565b50600b805460ff90921660ff199092169190911790555050600d805473ffffffffffffffffffffffffffffffffffffffff19163317905550506000600c55565b600f54604080517f70a08231000000000000000000000000000000000000000000000000000000008152600160a060020a0384811660048301529151600093849316916370a08231916024808301926020929190829003018186803b158015610c6257600080fd5b505afa158015610c76573d6000803e3d6000fd5b505050506040513d6020811015610c8c57600080fd5b50519392505050565b600080600f60009054906101000a9004600160a060020a0316600160a060020a031663893d20e86040518163ffffffff1660e060020a028152600401602060405180830381600087803b158015610ceb57600080fd5b505af1158015610cff573d6000803e3d6000fd5b505050506040513d6020811015610d1557600080fd5b5051604051909150600160a060020a038216907fe3dc01f26841462f7605d43d79c5b39ef562d9d9726f2a390f728966016ae64590600090a2905090565b601054600160a060020a031690565b600254604080517f9026dee8000000000000000000000000000000000000000000000000000000008152600160a060020a03848116600483015291516000939290921691639026dee89160248082019260209290919082900301818787803b15801561073257600080fd5b600033610dd9816106c7565b1515610de457600080fd5b600160a060020a0384166000908152600e6020526040902054831115610e0957600080fd5b600160a060020a0384166000908152600e6020526040902054610e32908463ffffffff61118a16565b600160a060020a0385166000908152600e6020526040902055600c54610e5e908463ffffffff61118a16565b600c5560019150610a75565b600254604080517fa1d658b1000000000000000000000000000000000000000000000000000000008152600160a060020a0384811660048301529151600093929092169163a1d658b19160248082019260209290919082900301818787803b15801561073257600080fd5b600f54604080517fbeabacc8000000000000000000000000000000000000000000000000000000008152336004820152600160a060020a0385811660248301526044820185905291516000938493849391169163beabacc89160648082019260209290919082900301818787803b158015610f4f57600080fd5b505af1158015610f63573d6000803e3d6000fd5b505050506040513d6020811015610f7957600080fd5b505190508015610a725760408051858152602081018490528151600160a060020a0388169233927f10d85eb696556cf89e382ad2be46259009e783f0060ef100faa456da4d834add929081900390910190a3949350505050565b600033610fdf816106c7565b1515610fea57600080fd5b600080610ff98787878561119c565b9050801561100c57600193505050611013565b6000935050505b509392505050565b600033611027816106c7565b151561103257600080fd5b600d54600160a060020a0386811691161461104c57600080fd5b600160a060020a038416151561106157600080fd5b600160a060020a038416151561107657600080fd5b600c5460009061108c908563ffffffff61132416565b600c55600160a060020a0385166000908152600e60205260409020546110b8908563ffffffff61132416565b600160a060020a0386166000908152600e60205260409020556110da8561133a565b1561118057604080517f8397cc94000000000000000000000000000000000000000000000000000000008152600160a060020a038881166004830152602482018790526044820184905291518792831691638397cc949160648083019260209291908290030181600087803b15801561115257600080fd5b505af1158015611166573d6000803e3d6000fd5b505050506040513d602081101561117c57600080fd5b5050505b6001925050611013565b60008282111561119657fe5b50900390565b6000336111a8816106c7565b15156111b357600080fd5b836111bd87610bfa565b10156111c857600080fd5b600160a060020a03851615156111dd57600080fd5b600160a060020a03851615156111f257600080fd5b600160a060020a03861660009081526008602052604090205461121b908563ffffffff61118a16565b600160a060020a038088166000908152600860205260408082209390935590871681522054611250908563ffffffff61132416565b600160a060020a0386166000908152600860205260409020556112728561133a565b1561131857604080517f8397cc94000000000000000000000000000000000000000000000000000000008152600160a060020a038881166004830152602482018790526044820186905291518792831691638397cc949160648083019260209291908290030181600087803b1580156112ea57600080fd5b505af11580156112fe573d6000803e3d6000fd5b505050506040513d602081101561131457600080fd5b5050505b50600195945050505050565b60008282018381101561133357fe5b9392505050565b6000903b1190565b828054600181600116156101000203166002900490600052602060002090601f016020900481019282601f1061138357805160ff19168380011785556113b0565b828001600101855582156113b0579182015b828111156113b0578251825591602001919060010190611395565b506113bc92915061142e565b5090565b828054600181600116156101000203166002900490600052602060002090601f016020900481019282601f106114015782800160ff198235161785556113b0565b828001600101855582156113b0579182015b828111156113b0578235825591602001919060010190611413565b6106c491905b808211156113bc576000815560010161143456fea165627a7a72305820000606c47a008553692d4734b574e0b51b4ea8e45e2d9959196b3f9f7c3afe760029608060405234801561001057600080fd5b50610dd1806100206000396000f3fe6080604052600436106100cf5763ffffffff7c01000000000000000000000000000000000000000000000000000000006000350416630131222f81146100d45780630c3504c91461010557806318160ddd1461014c578063187fe14714610173578063323a1a5c146102b75780634271673014610300578063703b93721461033357806370a0823114610405578063893d20e8146104385780639026dee81461044d5780639dc29fac14610480578063a1d658b1146104b9578063beabacc8146104ec578063c6c3bbe61461052f575b600080fd5b3480156100e057600080fd5b506100e9610572565b60408051600160a060020a039092168252519081900360200190f35b34801561011157600080fd5b506101386004803603602081101561012857600080fd5b5035600160a060020a0316610591565b604080519115158252519081900360200190f35b34801561015857600080fd5b5061016161062e565b60408051918252519081900360200190f35b34801561017f57600080fd5b506102b56004803603608081101561019657600080fd5b8101906020810181356401000000008111156101b157600080fd5b8201836020820111156101c357600080fd5b803590602001918460018302840111640100000000831117156101e557600080fd5b91908080601f016020809104026020016040519081016040528093929190818152602001838380828437600092019190915250929594936020810193503591505064010000000081111561023857600080fd5b82018360208201111561024a57600080fd5b8035906020019184600183028401116401000000008311171561026c57600080fd5b91908080601f0160208091040260200160405190810160405280939291908181526020018383808284376000920191909152509295505060ff8335169350505060200135610635565b005b3480156102c357600080fd5b50610138600480360360808110156102da57600080fd5b50600160a060020a038135811691602081013590911690604081013590606001356106b5565b34801561030c57600080fd5b506102b56004803603602081101561032357600080fd5b5035600160a060020a03166106e4565b34801561033f57600080fd5b506102b56004803603606081101561035657600080fd5b81019060208101813564010000000081111561037157600080fd5b82018360208201111561038357600080fd5b803590602001918460018302840111640100000000831117156103a557600080fd5b9193909290916020810190356401000000008111156103c357600080fd5b8201836020820111156103d557600080fd5b803590602001918460018302840111640100000000831117156103f757600080fd5b91935091503560ff16610727565b34801561041157600080fd5b506101616004803603602081101561042857600080fd5b5035600160a060020a0316610780565b34801561044457600080fd5b506100e961079b565b34801561045957600080fd5b506101386004803603602081101561047057600080fd5b5035600160a060020a03166107c3565b34801561048c57600080fd5b50610138600480360360408110156104a357600080fd5b50600160a060020a03813516906020013561082e565b3480156104c557600080fd5b50610138600480360360208110156104dc57600080fd5b5035600160a060020a03166108cc565b3480156104f857600080fd5b506101386004803603606081101561050f57600080fd5b50600160a060020a03813581169160208101359091169060400135610937565b34801561053b57600080fd5b506101386004803603606081101561055257600080fd5b50600160a060020a0381358116916020810135909116906040013561097f565b60003361057e81610591565b151561058957600080fd5b3091505b5090565b600254604080517f0c3504c9000000000000000000000000000000000000000000000000000000008152600160a060020a03848116600483015291516000939290921691630c3504c99160248082019260209290919082900301818787803b1580156105fc57600080fd5b505af1158015610610573d6000803e3d6000fd5b505050506040513d602081101561062657600080fd5b505192915050565b600c545b90565b8351610648906003906020870190610ca3565b50825161065c906004906020860190610ca3565b506005805460ff90931660ff19909316929092179091556007805473ffffffffffffffffffffffffffffffffffffffff1916331790819055600160a060020a031660009081526008602052604090208190556006555050565b6000336106c181610591565b15156106cc57600080fd5b6106d886868686610aee565b91505b50949350505050565b6106ed33610591565b15156106f857600080fd5b6002805473ffffffffffffffffffffffffffffffffffffffff1916600160a060020a0392909216919091179055565b61073360098686610d1d565b50610740600a8484610d1d565b50600b805460ff90921660ff199092169190911790555050600d805473ffffffffffffffffffffffffffffffffffffffff19163317905550506000600c55565b600160a060020a03166000908152600e602052604090205490565b6000336107a781610591565b15156107b257600080fd5b5050600d54600160a060020a031690565b600254604080517f9026dee8000000000000000000000000000000000000000000000000000000008152600160a060020a03848116600483015291516000939290921691639026dee89160248082019260209290919082900301818787803b1580156105fc57600080fd5b60003361083a81610591565b151561084557600080fd5b600160a060020a0384166000908152600e602052604090205483111561086a57600080fd5b600160a060020a0384166000908152600e6020526040902054610893908463ffffffff610c7316565b600160a060020a0385166000908152600e6020526040902055600c546108bf908463ffffffff610c7316565b600c555060019392505050565b600254604080517fa1d658b1000000000000000000000000000000000000000000000000000000008152600160a060020a0384811660048301529151600093929092169163a1d658b19160248082019260209290919082900301818787803b1580156105fc57600080fd5b60003361094381610591565b151561094e57600080fd5b60008061095d87878785610aee565b9050801561097057600193505050610977565b6000935050505b509392505050565b60003361098b81610591565b151561099657600080fd5b600d54600160a060020a038681169116146109b057600080fd5b600160a060020a03841615156109c557600080fd5b600160a060020a03841615156109da57600080fd5b600c546000906109f0908563ffffffff610c8516565b600c55600160a060020a0385166000908152600e6020526040902054610a1c908563ffffffff610c8516565b600160a060020a0386166000908152600e6020526040902055610a3e85610c9b565b15610ae457604080517f8397cc94000000000000000000000000000000000000000000000000000000008152600160a060020a038881166004830152602482018790526044820184905291518792831691638397cc949160648083019260209291908290030181600087803b158015610ab657600080fd5b505af1158015610aca573d6000803e3d6000fd5b505050506040513d6020811015610ae057600080fd5b5050505b6001925050610977565b600033610afa81610591565b1515610b0557600080fd5b83610b0f87610780565b1015610b1a57600080fd5b600160a060020a0385161515610b2f57600080fd5b600160a060020a0385161515610b4457600080fd5b600160a060020a038616600090815260086020526040902054610b6d908563ffffffff610c7316565b600160a060020a038088166000908152600860205260408082209390935590871681522054610ba2908563ffffffff610c8516565b600160a060020a038616600090815260086020526040902055610bc485610c9b565b15610c6a57604080517f8397cc94000000000000000000000000000000000000000000000000000000008152600160a060020a038881166004830152602482018790526044820186905291518792831691638397cc949160648083019260209291908290030181600087803b158015610c3c57600080fd5b505af1158015610c50573d6000803e3d6000fd5b505050506040513d6020811015610c6657600080fd5b5050505b600191506106db565b600082821115610c7f57fe5b50900390565b600082820183811015610c9457fe5b9392505050565b6000903b1190565b828054600181600116156101000203166002900490600052602060002090601f016020900481019282601f10610ce457805160ff1916838001178555610d11565b82800160010185558215610d11579182015b82811115610d11578251825591602001919060010190610cf6565b5061058d929150610d8b565b828054600181600116156101000203166002900490600052602060002090601f016020900481019282601f10610d5e5782800160ff19823516178555610d11565b82800160010185558215610d11579182015b82811115610d11578235825591602001919060010190610d70565b61063291905b8082111561058d5760008155600101610d9156fea165627a7a72305820829970c139f961ab1d1329dc23f05f258580499a8854b4bbda1aa2256e7319ad0029",
  "source": "pragma solidity ^0.5.0;\nimport \"./interface/token-interface.sol\";\n//import \"./implementation/basic-token.sol\";\nimport \"./implementation/mintable-token.sol\";\n//import \"../admin/interface/ExternalStorage.sol\";\n//import \"../admin/interface/administratable.sol\";\n\n// contracts/libraries/Modifiers.sol\n\n//Todo Create a Hybrid TOken\n/*\n * @title Basic token\n * @dev This ERC223 token is the most basic of them all ; the total amount of\n    tokens are first created and stored in the contract's owner address.\n * @dev The total supply is created first ( it is capped ) and sent to different\n    addresses during ICO\n */\n\n //TODO MAke sure burn and other are called through the parent.\ncontract token is Mintable {\n    tokenInterface private _token;\n    address private _owner;\n    bool private _finalized = false;\n    address  External_Storage_addr;\n\n\n    constructor(string memory symbol, string memory name, uint8 decimals ) public\n    {\n      _owner = msg.sender;\n      _token= new Mintable();\n      _token.mintable(symbol,name,decimals) ;\n\n    }\n    function get_address() public returns (address)\n    {\n      return _token.get_address();\n    }\n\n    /*\n     * @dev get balance of a tokens address\n     * @params an address representing target wallet\n     * @return A uint256 representing an address balance\n     */\n    function balanceOf(address addr) public view returns(uint256)\n    {\n      uint256 result = _token.balanceOf(addr);\n      return result;\n    }\n\n    /*\n     * @dev get total amount of tokens created\n     * @return A uint256 representing the number oif tokens created.\n     */\n    function totalSupply() public view returns(uint256)\n    {\n      uint256 result = _token.totalSupply();\n      return result;\n    }\n\n    /*\n     * @dev get the tokens creator address\n     * @return token creator's (owner) address\n     */\n    function getChildOwner() public returns(address)\n    {\n      address result = _token.getOwner();\n      emit GetOwner(result);\n      return result;\n    }\n    function getOwner() public returns(address)\n    {\n      return _owner;\n    }\n    /*\n     * @dev transfer function that is called when user or a contract wants to transfer tokens.\n     * @params to is the address tokens are being transferred to\n     * @params amount is the amount of tokens being transfered\n     * @params data is of type bytes that represents the message being sent\n     * @return A uint8 representing token's decimals\n     */\n    function transfer(address sender, address receiver, uint256 amount, bytes32 data) external returns(bool)\n    {\n      bool result=_token.transfer(sender,receiver,amount,data);\n      if(result)\n      {\n        emit Transfer(msg.sender,receiver,amount ,data);\n      }\n      return result;\n    }\n\n    /*\n     * @dev transfer function that is called when user or a contract wants to transfer tokens.\n     * @dev it is identical to ERC20 Standard's transfer function\n     * @params to is the address tokens are being transferred to\n     * @params amount is the amount of tokens being transfered\n     * @return A uint8 representing token's decimals\n     */\n    function transfer(address receiver, uint256 amount) public returns(bool)\n    {\n      bytes32 empty;\n      bool result = _token.transfer(msg.sender,receiver,amount);\n      if(result)\n      {\n        emit Transfer( msg.sender,receiver,amount,empty);\n      }\n      return result;\n    }\n\n\n    function mint(address receiver, uint256 amount) public onlyOwnerEx (msg.sender) returns(bool)\n    {\n\n        bool result = _token.mint(address(this),receiver,amount);\n        if(result)\n        {\n          emit Mint(receiver, amount);\n        }\n        return result;\n\n    }\n\n\n\n    /*\n     * @dev this is the function that is called when tokens are being burnt\n     * @params amount is of type uint 256 representingnumber of tokens being burnt\n     * @return a boolean alue indication success or failure of the operation\n     */\n    function burn(uint256 amount) public returns(bool)\n    {\n      bool result = _token.burn(msg.sender,amount);\n      if(result)\n      {\n        emit Burn(msg.sender, amount);\n      }\n      return result;\n    }\n\n\n    //Events\n   // event TotalSupply(uint256 totalSupply);\n    event BalanceOf(address addr, uint256 balance);\n    event Burn(address indexed receiver, uint256 amount);\n    event Transfer(address indexed sender, address indexed receiver, uint256 amount, bytes32 data);\n    event GetOwner(address indexed owner);\n    event Mint(address indexed receiver, uint256 amount);\n\n\n\n\n}\n",
  "sourcePath": "/home/sergey/Documents/angels/2083nointerfaces/Angeles.VC-token-scrum-investing/contracts/tokens/token.sol",
  "compiler": {
    "name": "solc",
    "version": "0.5.0+commit.1d4f565a.Emscripten.clang"
  },
  "schemaVersion": "3.0.2",
  "updatedAt": "2019-03-30T13:34:15.411Z",
  "devdoc": {
    "methods": {}
  },
  "userdoc": {
    "methods": {}
  }
}