{
  "contractName": "UpgradeabilityStorage",
  "abi": [
    {
      "constant": true,
      "inputs": [
        {
          "name": "func",
          "type": "bytes4"
        }
      ],
      "name": "implementation",
      "outputs": [
        {
          "name": "",
          "type": "address"
        }
      ],
      "payable": false,
      "stateMutability": "view",
      "type": "function"
    }
  ],
  "bytecode": "0x608060405234801561001057600080fd5b506101e9806100206000396000f3fe608060405260043610610041576000357c0100000000000000000000000000000000000000000000000000000000900463ffffffff1680630d74157714610046575b600080fd5b34801561005257600080fd5b5061009e6004803603602081101561006957600080fd5b8101908080357bffffffffffffffffffffffffffffffffffffffffffffffffffffffff191690602001909291905050506100e0565b604051808273ffffffffffffffffffffffffffffffffffffffff1673ffffffffffffffffffffffffffffffffffffffff16815260200191505060405180910390f35b60008060036000847bffffffffffffffffffffffffffffffffffffffffffffffffffffffff19167bffffffffffffffffffffffffffffffffffffffffffffffffffffffff1916815260200190815260200160002060009054906101000a900473ffffffffffffffffffffffffffffffffffffffff169050600073ffffffffffffffffffffffffffffffffffffffff168173ffffffffffffffffffffffffffffffffffffffff161461019157806101b5565b600260009054906101000a900473ffffffffffffffffffffffffffffffffffffffff165b91505091905056fea165627a7a72305820f62105d94e3d71ccc21b969766ddf359332d82a10285a263e63b1886638390e20029",
  "source": "pragma solidity ^0.5.0;\n\nimport './IRegistry.sol';\n\n/**\n * @title UpgradeabilityStorage\n * @dev This contract holds all the necessary state variables to support the upgrade functionality\n */\ncontract UpgradeabilityStorage {\n  // Registry of versions\n  IRegistry internal registry;\n\n  // Current version\n  string internal version_;\n\n  // Optional fallback function\n  address internal fallback_;\n\n  // Cache of functions to current implementations\n  mapping (bytes4 => address) internal implementations_;\n\n  /**\n  * @dev Returns the address of the current implementation for a given function signature\n  * @param func representing the signature of the function to query the implementation of\n  * @return address of the current implementation of the given function\n  */\n  function implementation(bytes4 func) public view returns (address) {\n    address impl = implementations_[func];\n    return impl == address(0) ? fallback_ : impl;\n  }\n}\n",
  "sourcePath": "/home/sergey/Documents/angels/Angeles.VC-token-scrum-investing/contracts/admin/UpgradeabilityStorage.sol",
  "compiler": {
    "name": "solc",
    "version": "0.5.0+commit.1d4f565a.Emscripten.clang"
  },
  "schemaVersion": "3.0.2",
  "updatedAt": "2019-03-25T06:59:12.645Z",
  "devdoc": {
    "details": "This contract holds all the necessary state variables to support the upgrade functionality",
    "methods": {
      "implementation(bytes4)": {
        "details": "Returns the address of the current implementation for a given function signature",
        "params": {
          "func": "representing the signature of the function to query the implementation of"
        },
        "return": "address of the current implementation of the given function"
      }
    },
    "title": "UpgradeabilityStorage"
  },
  "userdoc": {
    "methods": {}
  }
}