{
  "contractName": "upgradeable",
  "abi": [
    {
      "constant": true,
      "inputs": [
        {
          "name": "func",
          "type": "bytes4"
        }
      ],
      "name": "implementation",
      "outputs": [
        {
          "name": "",
          "type": "address"
        }
      ],
      "payable": false,
      "stateMutability": "view",
      "type": "function"
    },
    {
      "constant": false,
      "inputs": [
        {
          "name": "sender",
          "type": "address"
        }
      ],
      "name": "initialize",
      "outputs": [],
      "payable": true,
      "stateMutability": "payable",
      "type": "function"
    }
  ],
  "bytecode": "0x608060405234801561001057600080fd5b50610296806100206000396000f3fe60806040526004361061004c576000357c0100000000000000000000000000000000000000000000000000000000900463ffffffff1680630d74157714610051578063c4d66de8146100eb575b600080fd5b34801561005d57600080fd5b506100a96004803603602081101561007457600080fd5b8101908080357bffffffffffffffffffffffffffffffffffffffffffffffffffffffff1916906020019092919050505061012f565b604051808273ffffffffffffffffffffffffffffffffffffffff1673ffffffffffffffffffffffffffffffffffffffff16815260200191505060405180910390f35b61012d6004803603602081101561010157600080fd5b81019080803573ffffffffffffffffffffffffffffffffffffffff16906020019092919050505061020c565b005b60008060036000847bffffffffffffffffffffffffffffffffffffffffffffffffffffffff19167bffffffffffffffffffffffffffffffffffffffffffffffffffffffff1916815260200190815260200160002060009054906101000a900473ffffffffffffffffffffffffffffffffffffffff169050600073ffffffffffffffffffffffffffffffffffffffff168173ffffffffffffffffffffffffffffffffffffffff16146101e05780610204565b600260009054906101000a900473ffffffffffffffffffffffffffffffffffffffff165b915050919050565b6000809054906101000a900473ffffffffffffffffffffffffffffffffffffffff1673ffffffffffffffffffffffffffffffffffffffff163373ffffffffffffffffffffffffffffffffffffffff1614151561026757600080fd5b5056fea165627a7a723058209245bc8706c3618fe7b239d6ecc909b26d790442c3dd1129bbe5173f2999b9080029",
  "source": "pragma solidity ^0.5.0;\n\nimport './UpgradeabilityStorage.sol';\n\n/**\n * @title Upgradeable\n * @dev This contract holds all the minimum required functionality for a behavior to be upgradeable.\n * This means, required state variables for owned upgradeability purpose and simple initialization validation.\n */\ncontract upgradeable is UpgradeabilityStorage {\n  /**\n  * @dev Validates the caller is the versions registry.\n  * THIS FUNCTION SHOULD BE OVERRIDDEN CALLING SUPER\n  * @param sender representing the address deploying the initial behavior of the contract\n  */\n  function initialize(address sender) public payable {\n    require(msg.sender == address(registry));\n  }\n}\n",
  "sourcePath": "/home/sergey/Documents/angels/Angeles.VC-token-scrum-investing/contracts/admin/Upgradeable.sol",
  "compiler": {
    "name": "solc",
    "version": "0.5.0+commit.1d4f565a.Emscripten.clang"
  },
  "schemaVersion": "3.0.2",
  "updatedAt": "2019-03-25T06:59:12.645Z",
  "devdoc": {
    "details": "This contract holds all the minimum required functionality for a behavior to be upgradeable. This means, required state variables for owned upgradeability purpose and simple initialization validation.",
    "methods": {
      "implementation(bytes4)": {
        "details": "Returns the address of the current implementation for a given function signature",
        "params": {
          "func": "representing the signature of the function to query the implementation of"
        },
        "return": "address of the current implementation of the given function"
      },
      "initialize(address)": {
        "details": "Validates the caller is the versions registry. THIS FUNCTION SHOULD BE OVERRIDDEN CALLING SUPER",
        "params": {
          "sender": "representing the address deploying the initial behavior of the contract"
        }
      }
    },
    "title": "Upgradeable"
  },
  "userdoc": {
    "methods": {}
  }
}