{
  "contractName": "UpgradeabilityStorage",
  "abi": [
    {
      "constant": true,
      "inputs": [
        {
          "name": "func",
          "type": "bytes4"
        }
      ],
      "name": "implementation",
      "outputs": [
        {
          "name": "",
          "type": "address"
        }
      ],
      "payable": false,
      "stateMutability": "view",
      "type": "function"
    }
  ],
  "bytecode": "0x608060405234801561001057600080fd5b50610155806100206000396000f3fe6080604052600436106100405763ffffffff7c01000000000000000000000000000000000000000000000000000000006000350416630d7415778114610045575b600080fd5b34801561005157600080fd5b5061008e6004803603602081101561006857600080fd5b50357bffffffffffffffffffffffffffffffffffffffffffffffffffffffff19166100b7565b6040805173ffffffffffffffffffffffffffffffffffffffff9092168252519081900360200190f35b7bffffffffffffffffffffffffffffffffffffffffffffffffffffffff19811660009081526003602052604081205473ffffffffffffffffffffffffffffffffffffffff1680156101085780610122565b60025473ffffffffffffffffffffffffffffffffffffffff165b939250505056fea165627a7a72305820b0624cfba88d4b2ceee9300f76cb3e21b87f0cbc30635601346aafa2052fd3350029",
  "source": "pragma solidity ^0.5.0;\n\nimport './IRegistry.sol';\n\n/**\n * @title UpgradeabilityStorage\n * @dev This contract holds all the necessary state variables to support the upgrade functionality\n */\ncontract UpgradeabilityStorage {\n  // Registry of versions\n  IRegistry internal registry;\n\n  // Current version\n  string internal version_;\n\n  // Optional fallback function\n  address internal fallback_;\n\n  // Cache of functions to current implementations\n  mapping (bytes4 => address) internal implementations_;\n\n  /**\n  * @dev Returns the address of the current implementation for a given function signature\n  * @param func representing the signature of the function to query the implementation of\n  * @return address of the current implementation of the given function\n  */\n  function implementation(bytes4 func) public view returns (address) {\n    address impl = implementations_[func];\n    return impl == address(0) ? fallback_ : impl;\n  }\n}\n",
  "sourcePath": "/home/st/Desktop/DARF-ANGeles/Angeles.VC-token-scrum-investing/contracts/admin/UpgradeabilityStorage.sol",
  "compiler": {
    "name": "solc",
    "version": "0.5.0+commit.1d4f565a.Emscripten.clang"
  },
  "schemaVersion": "3.0.5",
  "updatedAt": "2019-04-04T17:09:59.899Z",
  "devdoc": {
    "details": "This contract holds all the necessary state variables to support the upgrade functionality",
    "methods": {
      "implementation(bytes4)": {
        "details": "Returns the address of the current implementation for a given function signature",
        "params": {
          "func": "representing the signature of the function to query the implementation of"
        },
        "return": "address of the current implementation of the given function"
      }
    },
    "title": "UpgradeabilityStorage"
  },
  "userdoc": {
    "methods": {}
  }
}