{
  "contractName": "upgradeable",
  "abi": [
    {
      "constant": true,
      "inputs": [
        {
          "name": "func",
          "type": "bytes4"
        }
      ],
      "name": "implementation",
      "outputs": [
        {
          "name": "",
          "type": "address"
        }
      ],
      "payable": false,
      "stateMutability": "view",
      "type": "function"
    },
    {
      "constant": false,
      "inputs": [
        {
          "name": "sender",
          "type": "address"
        }
      ],
      "name": "initialize",
      "outputs": [],
      "payable": true,
      "stateMutability": "payable",
      "type": "function"
    }
  ],
  "bytecode": "0x608060405234801561001057600080fd5b506101bc806100206000396000f3fe60806040526004361061004b5763ffffffff7c01000000000000000000000000000000000000000000000000000000006000350416630d7415778114610050578063c4d66de8146100c2575b600080fd5b34801561005c57600080fd5b506100996004803603602081101561007357600080fd5b50357bffffffffffffffffffffffffffffffffffffffffffffffffffffffff19166100f7565b6040805173ffffffffffffffffffffffffffffffffffffffff9092168252519081900360200190f35b6100f5600480360360208110156100d857600080fd5b503573ffffffffffffffffffffffffffffffffffffffff16610169565b005b7bffffffffffffffffffffffffffffffffffffffffffffffffffffffff19811660009081526003602052604081205473ffffffffffffffffffffffffffffffffffffffff1680156101485780610162565b60025473ffffffffffffffffffffffffffffffffffffffff165b9392505050565b60005473ffffffffffffffffffffffffffffffffffffffff16331461018d57600080fd5b5056fea165627a7a723058203cdca8e7f75ae8ce16c24bc5d328b8ae5098d39a4036e8cd47e5990fc2c9cc670029",
  "source": "pragma solidity ^0.5.0;\n\nimport './UpgradeabilityStorage.sol';\n\n/**\n * @title Upgradeable\n * @dev This contract holds all the minimum required functionality for a behavior to be upgradeable.\n * This means, required state variables for owned upgradeability purpose and simple initialization validation.\n */\ncontract upgradeable is UpgradeabilityStorage {\n  /**\n  * @dev Validates the caller is the versions registry.\n  * THIS FUNCTION SHOULD BE OVERRIDDEN CALLING SUPER\n  * @param sender representing the address deploying the initial behavior of the contract\n  */\n  function initialize(address sender) public payable {\n    require(msg.sender == address(registry));\n  }\n}\n",
  "sourcePath": "/home/sergey/Documents/angels/Angeles.VC-token-scrum-investing/contracts/admin/Upgradeable.sol",
  "compiler": {
    "name": "solc",
    "version": "0.5.0+commit.1d4f565a.Emscripten.clang"
  },
  "schemaVersion": "3.0.2",
  "updatedAt": "2019-03-26T11:37:43.486Z",
  "devdoc": {
    "details": "This contract holds all the minimum required functionality for a behavior to be upgradeable. This means, required state variables for owned upgradeability purpose and simple initialization validation.",
    "methods": {
      "implementation(bytes4)": {
        "details": "Returns the address of the current implementation for a given function signature",
        "params": {
          "func": "representing the signature of the function to query the implementation of"
        },
        "return": "address of the current implementation of the given function"
      },
      "initialize(address)": {
        "details": "Validates the caller is the versions registry. THIS FUNCTION SHOULD BE OVERRIDDEN CALLING SUPER",
        "params": {
          "sender": "representing the address deploying the initial behavior of the contract"
        }
      }
    },
    "title": "Upgradeable"
  },
  "userdoc": {
    "methods": {}
  }
}