{
  "contractName": "userstory",
  "abi": [
    {
      "constant": false,
      "inputs": [
        {
          "name": "_sender_address",
          "type": "address"
        }
      ],
      "name": "check_owner",
      "outputs": [
        {
          "name": "",
          "type": "bool"
        }
      ],
      "payable": false,
      "stateMutability": "nonpayable",
      "type": "function",
      "signature": "0x0c3504c9"
    },
    {
      "constant": false,
      "inputs": [
        {
          "name": "newOwner",
          "type": "address"
        }
      ],
      "name": "setOwner",
      "outputs": [],
      "payable": false,
      "stateMutability": "nonpayable",
      "type": "function",
      "signature": "0x13af4035"
    },
    {
      "constant": false,
      "inputs": [
        {
          "name": "BasicAdministratableaddr",
          "type": "address"
        }
      ],
      "name": "_initAdministratable",
      "outputs": [],
      "payable": false,
      "stateMutability": "nonpayable",
      "type": "function",
      "signature": "0x42716730"
    },
    {
      "constant": true,
      "inputs": [
        {
          "name": "",
          "type": "bytes32"
        }
      ],
      "name": "UserStories",
      "outputs": [
        {
          "name": "project_ID",
          "type": "uint256"
        },
        {
          "name": "User_story_number",
          "type": "uint256"
        },
        {
          "name": "DFS_Hash",
          "type": "bytes32"
        },
        {
          "name": "DFS_type",
          "type": "bytes4"
        },
        {
          "name": "Story_Amount_ANG",
          "type": "uint256"
        },
        {
          "name": "Story_Amount_Tokens",
          "type": "uint256"
        },
        {
          "name": "start_date",
          "type": "uint256"
        },
        {
          "name": "duration",
          "type": "uint256"
        },
        {
          "name": "sum_raised",
          "type": "uint256"
        },
        {
          "name": "sum_accepted",
          "type": "uint256"
        },
        {
          "name": "Ask_end_from_project",
          "type": "uint256"
        },
        {
          "name": "finished",
          "type": "uint256"
        }
      ],
      "payable": false,
      "stateMutability": "view",
      "type": "function",
      "signature": "0x62e43678"
    },
    {
      "constant": false,
      "inputs": [
        {
          "name": "msgSender",
          "type": "address"
        }
      ],
      "name": "checkAdmin",
      "outputs": [
        {
          "name": "",
          "type": "bool"
        }
      ],
      "payable": false,
      "stateMutability": "nonpayable",
      "type": "function",
      "signature": "0x9026dee8"
    },
    {
      "constant": false,
      "inputs": [
        {
          "name": "msgSender",
          "type": "address"
        }
      ],
      "name": "checkSuperAdmin",
      "outputs": [
        {
          "name": "",
          "type": "bool"
        }
      ],
      "payable": false,
      "stateMutability": "nonpayable",
      "type": "function",
      "signature": "0xa1d658b1"
    },
    {
      "anonymous": false,
      "inputs": [
        {
          "indexed": false,
          "name": "ProjectID",
          "type": "uint256"
        },
        {
          "indexed": false,
          "name": "Userstorynumber",
          "type": "uint256"
        },
        {
          "indexed": false,
          "name": "DFSHash",
          "type": "bytes32"
        },
        {
          "indexed": false,
          "name": "StoryAmountANG",
          "type": "uint256"
        },
        {
          "indexed": false,
          "name": "StoryAmounttoken",
          "type": "uint256"
        },
        {
          "indexed": false,
          "name": "Startdate",
          "type": "uint256"
        },
        {
          "indexed": false,
          "name": "duration",
          "type": "uint256"
        }
      ],
      "name": "Newuserstory",
      "type": "event",
      "signature": "0xc688c7e399bb50d6b0469a83fba709f98922546a2283b9f3d1a39b311e76fcb2"
    },
    {
      "anonymous": false,
      "inputs": [
        {
          "indexed": false,
          "name": "UserStoryAddr",
          "type": "bytes32"
        },
        {
          "indexed": false,
          "name": "baker",
          "type": "address"
        },
        {
          "indexed": false,
          "name": "baked_sum",
          "type": "uint256"
        },
        {
          "indexed": false,
          "name": "message",
          "type": "bytes32"
        }
      ],
      "name": "succesful_invest",
      "type": "event",
      "signature": "0xdf374de12352ed2b62faaa3dc958c244ce22152aaa1dd81b279745ffab751022"
    },
    {
      "anonymous": false,
      "inputs": [
        {
          "indexed": false,
          "name": "UserStoryAddr",
          "type": "bytes32"
        },
        {
          "indexed": false,
          "name": "baker",
          "type": "address"
        },
        {
          "indexed": false,
          "name": "baked_sum",
          "type": "uint256"
        },
        {
          "indexed": false,
          "name": "message",
          "type": "bytes32"
        }
      ],
      "name": "unsuccesful_invest",
      "type": "event",
      "signature": "0xaa6884a9fee72d60341197f3f00f74722618c5f64de4a81d410ba513aab0c156"
    },
    {
      "anonymous": false,
      "inputs": [
        {
          "indexed": false,
          "name": "UserStoryAddr",
          "type": "bytes32"
        },
        {
          "indexed": false,
          "name": "why",
          "type": "string"
        }
      ],
      "name": "User_story_aborted_by_team",
      "type": "event",
      "signature": "0x691fed5e143dce4f64383b2f9636f408ff5f590c652f072aada4a84c317eeef2"
    },
    {
      "anonymous": false,
      "inputs": [
        {
          "indexed": false,
          "name": "UserStoryAddr",
          "type": "bytes32"
        },
        {
          "indexed": false,
          "name": "why",
          "type": "string"
        }
      ],
      "name": "User_story_aborted_by_bakers",
      "type": "event",
      "signature": "0x2cb9d0a9efcbe3faa6f23abf19ee428ed0a50f3b1259248b7520e33d1f07aacb"
    },
    {
      "constant": false,
      "inputs": [
        {
          "name": "ProjectID",
          "type": "uint256"
        }
      ],
      "name": "get_project_data",
      "outputs": [
        {
          "name": "",
          "type": "address"
        },
        {
          "name": "",
          "type": "uint256"
        },
        {
          "name": "",
          "type": "address"
        },
        {
          "name": "",
          "type": "address"
        },
        {
          "name": "",
          "type": "bytes32"
        },
        {
          "name": "",
          "type": "bytes4"
        }
      ],
      "payable": false,
      "stateMutability": "nonpayable",
      "type": "function",
      "signature": "0xaa1e3281"
    },
    {
      "constant": false,
      "inputs": [
        {
          "name": "UserStoryAddr",
          "type": "bytes32"
        }
      ],
      "name": "give_userstory_data1",
      "outputs": [
        {
          "name": "",
          "type": "uint256"
        },
        {
          "name": "",
          "type": "uint256"
        },
        {
          "name": "",
          "type": "bytes32"
        },
        {
          "name": "",
          "type": "bytes4"
        },
        {
          "name": "",
          "type": "uint256"
        },
        {
          "name": "",
          "type": "uint256"
        }
      ],
      "payable": false,
      "stateMutability": "nonpayable",
      "type": "function",
      "signature": "0x911723e1"
    },
    {
      "constant": false,
      "inputs": [
        {
          "name": "UserStoryAddr",
          "type": "bytes32"
        }
      ],
      "name": "give_userstory_data2",
      "outputs": [
        {
          "name": "",
          "type": "uint256"
        },
        {
          "name": "",
          "type": "uint256"
        },
        {
          "name": "",
          "type": "uint256"
        },
        {
          "name": "",
          "type": "uint256"
        },
        {
          "name": "",
          "type": "uint256"
        },
        {
          "name": "",
          "type": "uint256"
        }
      ],
      "payable": false,
      "stateMutability": "nonpayable",
      "type": "function",
      "signature": "0x488ae121"
    },
    {
      "constant": false,
      "inputs": [
        {
          "name": "ProjectID",
          "type": "uint256"
        },
        {
          "name": "Userstorynumber",
          "type": "uint256"
        },
        {
          "name": "DFSHash",
          "type": "bytes32"
        },
        {
          "name": "DFStype",
          "type": "bytes4"
        },
        {
          "name": "StoryAmountANG",
          "type": "uint256"
        },
        {
          "name": "StoryAmounttoken",
          "type": "uint256"
        },
        {
          "name": "Startdate",
          "type": "uint256"
        },
        {
          "name": "duration",
          "type": "uint256"
        }
      ],
      "name": "start_user_story",
      "outputs": [
        {
          "name": "",
          "type": "bytes32"
        }
      ],
      "payable": false,
      "stateMutability": "nonpayable",
      "type": "function",
      "signature": "0x61a67ac8"
    },
    {
      "constant": false,
      "inputs": [
        {
          "name": "UserStoryAddr",
          "type": "bytes32"
        },
        {
          "name": "bakedsumANG",
          "type": "uint256"
        }
      ],
      "name": "invest",
      "outputs": [],
      "payable": true,
      "stateMutability": "payable",
      "type": "function",
      "signature": "0x1f29d285"
    },
    {
      "constant": false,
      "inputs": [
        {
          "name": "UserStoryAddr",
          "type": "bytes32"
        },
        {
          "name": "ProjectID",
          "type": "uint256"
        }
      ],
      "name": "finish_userstory_from_team",
      "outputs": [
        {
          "name": "",
          "type": "uint256"
        }
      ],
      "payable": false,
      "stateMutability": "nonpayable",
      "type": "function",
      "signature": "0xca5267ba"
    },
    {
      "constant": false,
      "inputs": [
        {
          "name": "UserStoryAddr",
          "type": "bytes32"
        },
        {
          "name": "acceptance",
          "type": "bool"
        }
      ],
      "name": "accept_work_from_bakers",
      "outputs": [],
      "payable": false,
      "stateMutability": "nonpayable",
      "type": "function",
      "signature": "0x788a9b50"
    },
    {
      "constant": false,
      "inputs": [
        {
          "name": "UserStoryAddr",
          "type": "bytes32"
        },
        {
          "name": "abortfromteam",
          "type": "bool"
        },
        {
          "name": "why",
          "type": "string"
        }
      ],
      "name": "abort_by_team",
      "outputs": [],
      "payable": false,
      "stateMutability": "nonpayable",
      "type": "function",
      "signature": "0xa243dc00"
    },
    {
      "constant": false,
      "inputs": [
        {
          "name": "UserStoryAddr",
          "type": "bytes32"
        },
        {
          "name": "abortfrombakers",
          "type": "bool"
        },
        {
          "name": "why",
          "type": "string"
        }
      ],
      "name": "abort_by_bakers",
      "outputs": [],
      "payable": false,
      "stateMutability": "nonpayable",
      "type": "function",
      "signature": "0xf8ec87d0"
    },
    {
      "constant": false,
      "inputs": [
        {
          "name": "Externalstorageaddr",
          "type": "address"
        }
      ],
      "name": "_initExternalStorage",
      "outputs": [],
      "payable": false,
      "stateMutability": "nonpayable",
      "type": "function",
      "signature": "0xc8bc0407"
    }
  ],
  "bytecode": "0x608060405234801561001057600080fd5b506117cf806100206000396000f3fe6080604052600436106100cc5763ffffffff60e060020a6000350416630c3504c981146100d157806313af4035146101185780631f29d2851461014d5780634271673014610170578063488ae121146101a357806361a67ac81461020057806362e4367814610271578063788a9b50146103035780639026dee814610335578063911723e114610368578063a1d658b1146103ce578063a243dc0014610401578063aa1e3281146104c2578063c8bc04071461053a578063ca5267ba1461056d578063f8ec87d01461059d575b600080fd5b3480156100dd57600080fd5b50610104600480360360208110156100f457600080fd5b5035600160a060020a031661065e565b604080519115158252519081900360200190f35b34801561012457600080fd5b5061014b6004803603602081101561013b57600080fd5b5035600160a060020a03166106fb565b005b61014b6004803603604081101561016357600080fd5b5080359060200135610741565b34801561017c57600080fd5b5061014b6004803603602081101561019357600080fd5b5035600160a060020a03166108d0565b3480156101af57600080fd5b506101cd600480360360208110156101c657600080fd5b5035610916565b604080519687526020870195909552858501939093526060850191909152608084015260a0830152519081900360c00190f35b34801561020c57600080fd5b5061025f600480360361010081101561022457600080fd5b50803590602081013590604081013590600160e060020a03196060820135169060808101359060a08101359060c08101359060e0013561094f565b60408051918252519081900360200190f35b34801561027d57600080fd5b5061029b6004803603602081101561029457600080fd5b5035610bb8565b604080519c8d5260208d019b909b528b8b0199909952600160e060020a031990971660608b015260808a019590955260a089019390935260c088019190915260e087015261010086015261012085015261014084015261016083015251908190036101800190f35b34801561030f57600080fd5b5061014b6004803603604081101561032657600080fd5b50803590602001351515610c20565b34801561034157600080fd5b506101046004803603602081101561035857600080fd5b5035600160a060020a0316610ed5565b34801561037457600080fd5b506103926004803603602081101561038b57600080fd5b5035610f40565b60408051968752602087019590955285850193909352600160e060020a03199091166060850152608084015260a0830152519081900360c00190f35b3480156103da57600080fd5b50610104600480360360208110156103f157600080fd5b5035600160a060020a0316610f7b565b34801561040d57600080fd5b5061014b6004803603606081101561042457600080fd5b813591602081013515159181019060608101604082013564010000000081111561044d57600080fd5b82018360208201111561045f57600080fd5b8035906020019184600183028401116401000000008311171561048157600080fd5b91908080601f016020809104026020016040519081016040528093929190818152602001838380828437600092019190915250929550610fe6945050505050565b3480156104ce57600080fd5b506104ec600480360360208110156104e557600080fd5b50356110d2565b60408051600160a060020a0397881681526020810196909652938616858501529190941660608401526080830193909352600160e060020a031990921660a082015290519081900360c00190f35b34801561054657600080fd5b5061014b6004803603602081101561055d57600080fd5b5035600160a060020a031661119a565b34801561057957600080fd5b5061025f6004803603604081101561059057600080fd5b5080359060200135611446565b3480156105a957600080fd5b5061014b600480360360608110156105c057600080fd5b81359160208101351515918101906060810160408201356401000000008111156105e957600080fd5b8201836020820111156105fb57600080fd5b8035906020019184600183028401116401000000008311171561061d57600080fd5b91908080601f01602080910402602001604051908101604052809392919081815260200183838082843760009201919091525092955061148c945050505050565b600154604080517f0c3504c9000000000000000000000000000000000000000000000000000000008152600160a060020a03848116600483015291516000939290921691630c3504c99160248082019260209290919082900301818787803b1580156106c957600080fd5b505af11580156106dd573d6000803e3d6000fd5b505050506040513d60208110156106f357600080fd5b505192915050565b600254600160a060020a0316331461071257600080fd5b6002805473ffffffffffffffffffffffffffffffffffffffff1916600160a060020a0392909216919091179055565b6000828152600660205260409020600481015460089091015482011015610862576000828152600660209081526040808320338452600c0190915290205415156107c45760008281526006602090815260408220600d018054600181018255908352912001805473ffffffffffffffffffffffffffffffffffffffff1916331790555b600082815260066020818152604080842033808652600c820184528286208054880190559487905292825260089092018054850190558151858152908101929092528181018390527f5468616e6b20796f7521000000000000000000000000000000000000000000006060830152517fdf374de12352ed2b62faaa3dc958c244ce22152aaa1dd81b279745ffab7510229181900360800190a16108cc565b604080518381523360208201528082018390527f596f75722073756d206f7665726c6f6164732062756467657400000000000000606082015290517faa6884a9fee72d60341197f3f00f74722618c5f64de4a81d410ba513aab0c1569181900360800190a1600080fd5b5050565b600254600160a060020a031633146108e757600080fd5b6001805473ffffffffffffffffffffffffffffffffffffffff1916600160a060020a0392909216919091179055565b600090815260066020819052604090912090810154600782015460088301546009840154600a850154600b909501549395929491939092565b600080600061095d8b611575565b604080517f70a0823100000000000000000000000000000000000000000000000000000000815230600482015290519294509092508391600091600160a060020a038416916370a0823191602480820192602092909190829003018186803b1580156109c857600080fd5b505afa1580156109dc573d6000803e3d6000fd5b505050506040513d60208110156109f257600080fd5b505190508781148015610a0d5750600160a060020a03831633145b1515610a1857600080fd5b60008d8d60405160200180838152602001828152602001925050506040516020818303038152906040528051906020012090508d60066000838152602001908152602001600020600001819055508c60066000838152602001908152602001600020600101819055508660066000838152602001908152602001600020600701819055508b60066000838152602001908152602001600020600201819055508a6006600083815260200190815260200160002060030160006101000a81548163ffffffff021916908360e060020a900402179055508960066000838152602001908152602001600020600401819055508760066000838152602001908152602001600020600601819055508660066000838152602001908152602001600020600701819055507fc688c7e399bb50d6b0469a83fba709f98922546a2283b9f3d1a39b311e76fcb28e8e8e8d8d8d8d8f016040518088815260200187815260200186815260200185815260200184815260200183815260200182815260200197505050505050505060405180910390a19d9c50505050505050505050505050565b600660208190526000918252604090912080546001820154600283015460038401546004850154600586015496860154600787015460088801546009890154600a8a0154600b909a0154989a9799969860e060020a909602979496949593949293919290918c565b6000828152600660209081526040808320338452600c0190915281205411610c4757600080fd5b8015610c82576000828152600660209081526040808320338452600c8101909252909120805460099092018054909201909155426001909101555b60008281526006602052604090206008810154600990910154600290910410156108cc576000828152600660205260408120548190610cc090611575565b60055460008781526006602090815260408083206008015481517f323a1a5c000000000000000000000000000000000000000000000000000000008152306004820152600160a060020a0380881660248301526044820192909252606481018c905291519698509496509390921693849363323a1a5c936084808301949193928390030190829087803b158015610d5657600080fd5b505af1158015610d6a573d6000803e3d6000fd5b505050506040513d6020811015610d8057600080fd5b5050600085815260066020526040812060048101546005909101546103e802811515610da857fe5b04905060005b6000878152600660205260409020600d0154811015610ecc576000878152600660205260408120600d01805483908110610de457fe5b6000918252602080832091909101548a8352600682526040808420600160a060020a03928316808652600c90910184528185205482517f323a1a5c000000000000000000000000000000000000000000000000000000008152306004820152602481018390526103e8918a029190910460448201819052606482018f905292519196509194928b169363323a1a5c936084808501949293928390030190829087803b158015610e9257600080fd5b505af1158015610ea6573d6000803e3d6000fd5b505050506040513d6020811015610ebc57600080fd5b505060019092019150610dae9050565b50505050505050565b600154604080517f9026dee8000000000000000000000000000000000000000000000000000000008152600160a060020a03848116600483015291516000939290921691639026dee89160248082019260209290919082900301818787803b1580156106c957600080fd5b60009081526006602052604090208054600182015460028301546003840154600485015460059095015493959294919360e060020a90910292565b600154604080517fa1d658b1000000000000000000000000000000000000000000000000000000008152600160a060020a0384811660048301529151600093929092169163a1d658b19160248082019260209290919082900301818787803b1580156106c957600080fd5b600083815260066020526040812054819061100090611575565b9092509050600160a060020a038116331461101a57600080fd5b83156110cb5761102985611598565b7f691fed5e143dce4f64383b2f9636f408ff5f590c652f072aada4a84c317eeef285846040518083815260200180602001828103825283818151815260200191508051906020019080838360005b8381101561108f578181015183820152602001611077565b50505050905090810190601f1680156110bc5780820380516001836020036101000a031916815260200191505b50935050505060405180910390a15b5050505050565b6000806000806000806000600460009054906101000a9004600160a060020a0316905080600160a060020a031663e4caec55896040518263ffffffff1660e060020a0281526004018082815260200191505060c060405180830381600087803b15801561113e57600080fd5b505af1158015611152573d6000803e3d6000fd5b505050506040513d60c081101561116857600080fd5b508051602082015160408301516060840151608085015160a090950151939d929c50909a509850919650945092505050565b336111a481610ed5565b156111ae57600080fd5b6003805473ffffffffffffffffffffffffffffffffffffffff1916600160a060020a038481169190911791829055604080517f413c6d1300000000000000000000000000000000000000000000000000000000815230602482015260048101829052601560448201527f736372756d696e766573742f7573657273746f72790000000000000000000000606482015290519290911691829163413c6d1391608480830192600092919082900301818387803b15801561126c57600080fd5b505af1158015611280573d6000803e3d6000fd5b5050604080517ffd255683000000000000000000000000000000000000000000000000000000008152602060048201819052601360248301527f736372756d696e766573742f70726f6a6563740000000000000000000000000060448301529151600160a060020a038616945063fd255683935060648083019392829003018186803b15801561130f57600080fd5b505afa158015611323573d6000803e3d6000fd5b505050506040513d602081101561133957600080fd5b50516004805473ffffffffffffffffffffffffffffffffffffffff1916600160a060020a03928316178155604080517ffd2556830000000000000000000000000000000000000000000000000000000081526020928101839052600860248201527f414e47746f6b656e000000000000000000000000000000000000000000000000604482015290519284169263fd25568392606480840193919291829003018186803b1580156113e957600080fd5b505afa1580156113fd573d6000803e3d6000fd5b505050506040513d602081101561141357600080fd5b50516005805473ffffffffffffffffffffffffffffffffffffffff1916600160a060020a03909216919091179055505050565b600080600061145484611575565b9092509050600160a060020a038116331461146e57600080fd5b50505060009182525060066020526040902042600b90910181905590565b6000838152600660209081526040808320338452600c019091528120541180156114d357506000838152600660208190526040909120600781015491015401624f1a000142115b15156114de57600080fd5b81156115705760008381526006602052604081205481906114fe90611575565b9150915061150b85611598565b7f2cb9d0a9efcbe3faa6f23abf19ee428ed0a50f3b1259248b7520e33d1f07aacb85846040518083815260200180602001828103825283818151815260200191508051906020019080838360008381101561108f578181015183820152602001611077565b505050565b6000806000806000611586866110d2565b50939850909650505050505050915091565b60008181526006602052604081205481906115b290611575565b60008581526006602090815260408083206005015481517fbeabacc8000000000000000000000000000000000000000000000000000000008152306004820152600160a060020a038087166024830152604482019290925291519597509395509286169363beabacc893606480820194918390030190829087803b15801561163957600080fd5b505af115801561164d573d6000803e3d6000fd5b505050506040513d602081101561166357600080fd5b50600090505b6000848152600660205260409020600d015481101561179d576000848152600660205260408120600d0180548390811061169f57fe5b600091825260208083209091015460055488845260069092526040909220600d018054600160a060020a0393841694509190921691829163beabacc8913091879081106116e857fe5b60009182526020808320909101548b8352600682526040808420600160a060020a038a81168652600c909101845281852054825160e060020a63ffffffff8a16028152968216600488015292166024860152604485019190915251606480850194929391928390030190829087803b15801561176357600080fd5b505af1158015611777573d6000803e3d6000fd5b505050506040513d602081101561178d57600080fd5b5050600190920191506116699050565b5050505056fea165627a7a723058208ea951309643b2929190b796f9048bc88fca5c11c67e4d077bcd39a45e389ef80029",
  "source": "pragma solidity ^0.5.0;\nimport \"./interface/project_interface.sol\";\nimport '../tokens/interface/tokenInterface.sol';\nimport '../admin/interface/ExternalStorage.sol';\nimport \"../admin/interface/administratable.sol\";\n\ncontract userstory is  Administratable\n   {\n\n    address External_Storage_addr;\n    address smartcontProjectaddr ;\n    address ANGTokenAddrr;\n    struct Story_Bakers {\n        //address baker;\n        uint baked_sum;\n        uint accept_work; // timestamp\n\n    }\n\n    struct UserStory {\n                          uint256 project_ID;\n                          uint256 User_story_number;\n                          //address project_token;\n                          bytes32 DFS_Hash;\n                          bytes4 DFS_type;\n                          uint256 Story_Amount_ANG; // number of ANG payed by bakers\n                          uint256 Story_Amount_Tokens; //number of tokens gives from team\n                          uint256 start_date; // timestamp,\n                          uint256 duration; // timedelta,\n                          uint256 sum_raised;\n                          uint256 sum_accepted;\n                          uint256 Ask_end_from_project; // datetime when team say they finish work\n                          // bool  project_signin; //  several team members?\n                          uint256 finished; // datetime acceptwance from bakers\n                          // bool project_accept;  // TODO tx transaction of acceptance\n                          mapping (address => Story_Bakers) bakers;  //# several users who baked story\n                          address[] bakers_list; // several users\n\n\n                        }\n\n    mapping (bytes32 => UserStory) public UserStories ; // AKA projectID\n\n\n\n    function get_project_data(uint256 ProjectID) public returns(address, uint256,address,address, bytes32,bytes4)\n    {\n        project_interface smartcontrProjectcurrent =  project_interface(smartcontProjectaddr);\n//        address ProjecttokenAddr = smartcontrProjectcurrent.ProjectList(ProjectID);\n //       token Projecttoken = token(ProjecttokenAddr);\n\n        return smartcontrProjectcurrent.give_project_data(ProjectID);\n    /*\n        (address ProjecttokenAddr,\n        uint256 project_ID,\n        address project_owner_address,\n        address  _DARF_system_address,\n        bytes32 DFS_Project_describe,\n        bytes4 DFS_type) =\n\n        */\n\n\n    }\n\n    function get_token_and_project_owner_address(uint256 ProjectID) internal returns (address, address )\n    {\n        (address ProjecttokenAddr,\n        ,//uint256 project_ID,\n        address project_owner_address,\n        ,//address  _DARF_system_address,\n        ,//bytes32 DFS_Project_describe,\n        bytes4 DFS_type)  = get_project_data(ProjectID);\n\n        return (ProjecttokenAddr, project_owner_address);\n    }\n        function give_userstory_data1(bytes32 UserStoryAddr) external returns ( uint256 ,                                                                       uint256 ,                                                                      bytes32 ,                                                                      bytes4 ,                                                                      uint256 ,                                                                      uint256)\n        {\n            return   ( UserStories[UserStoryAddr].project_ID, //+\n          UserStories[UserStoryAddr].User_story_number,\n          UserStories[UserStoryAddr].DFS_Hash,\n          UserStories[UserStoryAddr].DFS_type,\n          UserStories[UserStoryAddr].Story_Amount_ANG,\n          UserStories[UserStoryAddr].Story_Amount_Tokens\n           );\n\n        }\n\n function give_userstory_data2(bytes32 UserStoryAddr) external returns (                                                                      uint256 ,\n                                                                      uint256 ,\n                                                                      uint256 ,\n                                                                      uint256 ,\n                                                                      uint256 ,\n                                                                      uint256 )\n        {\n            return   ( UserStories[UserStoryAddr].start_date,\n          UserStories[UserStoryAddr].duration,\n          UserStories[UserStoryAddr].sum_raised, //+\n          UserStories[UserStoryAddr].sum_accepted,\n          UserStories[UserStoryAddr].Ask_end_from_project,\n          UserStories[UserStoryAddr].finished  );\n\n        }\n\n        event Newuserstory (uint256 ProjectID, uint256 Userstorynumber, bytes32 DFSHash, uint256 StoryAmountANG, uint256 StoryAmounttoken, uint256 Startdate, uint duration);\n\n\n    function start_user_story (uint256 ProjectID, uint256 Userstorynumber, bytes32 DFSHash, bytes4 DFStype,  uint256 StoryAmountANG, uint256 StoryAmounttoken, uint256 Startdate, uint duration)   public  returns (bytes32){\n        //todo check transfer sum to escrow\n        // what address of escrow?\n        //get token addr\n        (address ProjecttokenAddr, address project_owner_address) = get_token_and_project_owner_address(ProjectID) ;\n        tokenInterface Projecttoken = tokenInterface(ProjecttokenAddr);\n        uint256 Projecttokenbalance = Projecttoken.balanceOf(address(this));\n        require((Projecttokenbalance == StoryAmounttoken) &&\n            ( project_owner_address == msg.sender)) ; // [1] is project_owner_address in tuple OnlyProjectOwner(Project_token_addr)\n            bytes32 UserStoryAddr = keccak256(abi.encode(ProjectID, Userstorynumber));\n            UserStories[UserStoryAddr].project_ID = ProjectID;\n            UserStories[UserStoryAddr].User_story_number = Userstorynumber;\n            UserStories[UserStoryAddr].duration = duration;\n            UserStories[UserStoryAddr].DFS_Hash = DFSHash;\n            UserStories[UserStoryAddr].DFS_type= DFStype;\n            UserStories[UserStoryAddr].Story_Amount_ANG = StoryAmountANG;\n            UserStories[UserStoryAddr].start_date = Startdate;\n            UserStories[UserStoryAddr].duration = duration;\n            emit  Newuserstory (ProjectID,  Userstorynumber, DFSHash,  StoryAmountANG,\n                StoryAmounttoken, Startdate, Startdate + duration);\n            return UserStoryAddr;\n    }\n\n   // function add_user_story_comment () public { }\n\n    event   succesful_invest(bytes32 UserStoryAddr, address baker, uint baked_sum, bytes32 message);\n    event unsuccesful_invest(bytes32 UserStoryAddr, address baker, uint baked_sum, bytes32 message);\n\n\n    function invest(bytes32 UserStoryAddr, uint256 bakedsumANG) public payable {\n        // sign_in_user_story_from_investors\n        //sign_in_user_story_from_user(UserStoryID:int128)\n        // investors signup userstory when negotiations finished\n        // investors  send ANG to userstory if agree\n\n        if ((UserStories[UserStoryAddr].sum_raised + bakedsumANG) <\n            UserStories[UserStoryAddr].Story_Amount_ANG) {\n                if (UserStories[UserStoryAddr].bakers[msg.sender].baked_sum == 0) {\n                    UserStories[UserStoryAddr].bakers_list.push(msg.sender);\n                }\n                UserStories[UserStoryAddr].bakers[msg.sender].baked_sum += bakedsumANG;\n                UserStories[UserStoryAddr].sum_raised += bakedsumANG;\n                emit succesful_invest(UserStoryAddr, msg.sender, bakedsumANG, \"Thank you!\");\n        }\n        else { // if sended sum overloads story's budget, don't accept this\n            emit unsuccesful_invest(UserStoryAddr, msg.sender, bakedsumANG, \"Your sum overloads budget\");\n            revert();\n        }\n\n\n\n    }\n\n\n\n    function finish_userstory_from_team(bytes32 UserStoryAddr, uint256 ProjectID) public returns (uint){\n\n        (address ProjecttokenAddr, address project_owner_address) = get_token_and_project_owner_address(ProjectID) ;\n        //token Projecttoken = token(ProjecttokenAddr);\n        require(project_owner_address == msg.sender) ; //      require((Projects[Projecttoken].project_owner_address = msg.sender)) ;\n\n                uint256 timestamp = now;\n                UserStories[UserStoryAddr].finished = now;\n                return timestamp;\n        //\n        // todo: in withdraw module check require check that userstory finished\n\n    }\n\n    function accept_work_from_bakers (bytes32 UserStoryAddr, bool acceptance) public {\n\n        require (UserStories[UserStoryAddr].bakers[msg.sender].baked_sum > 0); // only investor can do it\n            if (acceptance) {\n                UserStories[UserStoryAddr].sum_accepted +=\n                                UserStories[UserStoryAddr].bakers[msg.sender].baked_sum;\n                UserStories[UserStoryAddr].bakers[msg.sender].accept_work = now;\n            }\n            if (UserStories[UserStoryAddr].sum_accepted > UserStories[UserStoryAddr].sum_raised /2){\n                // TODO  make acceptance percents administrable\n                // all fine, 50%+ invastors accepted works results,\n                // sends ANG to team\n                  (address ProjecttokenAddr, address project_owner_address) = get_token_and_project_owner_address(UserStories[UserStoryAddr].project_ID) ;\n                tokenInterface  ANGToken = tokenInterface(ANGTokenAddrr);\n                ANGToken.transfer(address (this), project_owner_address, UserStories[UserStoryAddr].sum_raised,  UserStoryAddr);\n                // address sender,address receiver, uint256 amount, bytes data\n\n                //distribution of tokens\n                uint pricetoken1000 = 1000 * UserStories[UserStoryAddr].Story_Amount_Tokens /\n                                    UserStories[UserStoryAddr].Story_Amount_ANG;\n                for (uint baker = 0;  baker < UserStories[UserStoryAddr].bakers_list.length;\n                        baker++) {\n                    address bakeraddr = UserStories[UserStoryAddr].bakers_list[baker];\n                    uint256 summTokens =   UserStories[UserStoryAddr].bakers[bakeraddr].baked_sum * pricetoken1000 / 1000 ;\n\n\n                    //todo  bakeraddr.send(summTokens);\n                    tokenInterface (ProjecttokenAddr).transfer(address(this), bakeraddr, summTokens, UserStoryAddr);\n\n                }\n            // todo gas compensation for transactions to last investor in ANG\n            }\n    }\n\n\n    function token_refunds (bytes32 UserStoryAddr ) internal {\n\n\n          (address ProjecttokenAddr, address project_owner_address) = get_token_and_project_owner_address(UserStories[UserStoryAddr].project_ID) ;\n\n        // Returns their token to team\n        tokenInterface(ProjecttokenAddr).transfer(address(this), project_owner_address,UserStories[UserStoryAddr].Story_Amount_Tokens);\n\n         //returns ANG to investors\n\n         for (uint baker = 0;  baker < UserStories[UserStoryAddr].bakers_list.length;\n                        baker++) {\n                    address bakeraddr = UserStories[UserStoryAddr].bakers_list[baker];\n                    tokenInterface  ANGToken = tokenInterface (ANGTokenAddrr);\n                    ANGToken.transfer(address(this), UserStories[UserStoryAddr].bakers_list[baker], UserStories[UserStoryAddr].bakers[bakeraddr].baked_sum);\n\n                }\n\n    }\n\n\n    event User_story_aborted_by_team (bytes32 UserStoryAddr,  string why  );\n    function abort_by_team (bytes32 UserStoryAddr, bool abortfromteam, string memory why ) public  { //it is close to accept_work_from_bakers, but vise versa\n         (address ProjecttokenAddr, address project_owner_address) = get_token_and_project_owner_address(UserStories[UserStoryAddr].project_ID) ;\n        require(project_owner_address == msg.sender) ; //     require((Projects[Projecttoken].project_owner_address = msg.sender)) ;\n\n            if (abortfromteam) {\n                token_refunds ( UserStoryAddr );\n                emit User_story_aborted_by_team (UserStoryAddr, why);\n                // returns token to team\n            }\n\n    }\n\n    event User_story_aborted_by_bakers (bytes32 UserStoryAddr, string  why  );\n\n    function abort_by_bakers (bytes32 UserStoryAddr, bool abortfrombakers, string memory why) public{\n\n        require ((UserStories[UserStoryAddr].bakers[msg.sender].baked_sum > 0) && ( now > UserStories[UserStoryAddr].start_date + UserStories[UserStoryAddr].duration + 60 days));\n        // 1. only investor can do it\n        // 2. after 60 days past promised finish of userstory\n\n            if (abortfrombakers) {\n                (address ProjecttokenAddr, address project_owner_address) =                 get_token_and_project_owner_address(UserStories[UserStoryAddr].project_ID) ;\n                token_refunds ( UserStoryAddr );\n                emit User_story_aborted_by_bakers (UserStoryAddr,  why);\n                // returns token to team\n            }\n\n    }\n\n\n\n    function _initExternalStorage(address Externalstorageaddr ) public onlyAdmins (msg.sender) {\n\n        External_Storage_addr = Externalstorageaddr;\n\n        ExternalStorage ES = ExternalStorage(External_Storage_addr);\n        ES.setAddressValue(\"scruminvest/userstory\", address(this));\n        smartcontProjectaddr = ES.getAddressValue(\"scruminvest/project\");\n        ANGTokenAddrr = ES.getAddressValue(\"ANGtoken\");\n\n    }\n}\n",
  "sourcePath": "/home/st/Desktop/DARF-ANGeles/Angeles.VC-token-scrum-investing/contracts/scruminvest/userstory.sol",
  "compiler": {
    "name": "solc",
    "version": "0.5.0+commit.1d4f565a.Emscripten.clang"
  },
  "schemaVersion": "3.0.5",
  "updatedAt": "2019-04-04T17:11:27.646Z",
  "devdoc": {
    "methods": {}
  },
  "userdoc": {
    "methods": {}
  }
}