{
  "contractName": "withdraw",
  "abi": [
    {
      "constant": false,
      "inputs": [
        {
          "name": "_sender_address",
          "type": "address"
        }
      ],
      "name": "check_owner",
      "outputs": [
        {
          "name": "",
          "type": "bool"
        }
      ],
      "payable": false,
      "stateMutability": "nonpayable",
      "type": "function"
    },
    {
      "constant": false,
      "inputs": [
        {
          "name": "BasicAdministratableaddr",
          "type": "address"
        }
      ],
      "name": "_initAdministratable",
      "outputs": [],
      "payable": false,
      "stateMutability": "nonpayable",
      "type": "function"
    },
    {
      "constant": false,
      "inputs": [
        {
          "name": "msgSender",
          "type": "address"
        }
      ],
      "name": "checkAdmin",
      "outputs": [
        {
          "name": "",
          "type": "bool"
        }
      ],
      "payable": false,
      "stateMutability": "nonpayable",
      "type": "function"
    },
    {
      "constant": false,
      "inputs": [
        {
          "name": "msgSender",
          "type": "address"
        }
      ],
      "name": "checkSuperAdmin",
      "outputs": [
        {
          "name": "",
          "type": "bool"
        }
      ],
      "payable": false,
      "stateMutability": "nonpayable",
      "type": "function"
    },
    {
      "constant": false,
      "inputs": [
        {
          "name": "UserStoryAddr",
          "type": "bytes32"
        }
      ],
      "name": "team_withdraw",
      "outputs": [],
      "payable": true,
      "stateMutability": "payable",
      "type": "function"
    },
    {
      "constant": false,
      "inputs": [
        {
          "name": "beneficiar",
          "type": "address"
        },
        {
          "name": "amount",
          "type": "uint256"
        }
      ],
      "name": "sos_withdraw",
      "outputs": [],
      "payable": true,
      "stateMutability": "payable",
      "type": "function"
    },
    {
      "constant": false,
      "inputs": [
        {
          "name": "Externalstorageaddr",
          "type": "address"
        }
      ],
      "name": "_initExternalStorage",
      "outputs": [],
      "payable": false,
      "stateMutability": "nonpayable",
      "type": "function"
    },
    {
      "constant": false,
      "inputs": [],
      "name": "load_conditions_ES",
      "outputs": [],
      "payable": false,
      "stateMutability": "nonpayable",
      "type": "function"
    }
  ],
  "bytecode": "0x608060405234801561001057600080fd5b50610ba8806100206000396000f3fe6080604052600436106100745763ffffffff60e060020a6000350416630c3504c98114610079578063298ad987146100c057806342716730146100ee5780639026dee8146101215780639df152dc14610154578063a1d658b114610169578063bd4f36111461019c578063c8bc0407146101b9575b600080fd5b34801561008557600080fd5b506100ac6004803603602081101561009c57600080fd5b5035600160a060020a03166101ec565b604080519115158252519081900360200190f35b6100ec600480360360408110156100d657600080fd5b50600160a060020a038135169060200135610289565b005b3480156100fa57600080fd5b506100ec6004803603602081101561011157600080fd5b5035600160a060020a031661034a565b34801561012d57600080fd5b506100ac6004803603602081101561014457600080fd5b5035600160a060020a031661038d565b34801561016057600080fd5b506100ec6103f8565b34801561017557600080fd5b506100ac6004803603602081101561018c57600080fd5b5035600160a060020a03166106ae565b6100ec600480360360208110156101b257600080fd5b5035610719565b3480156101c557600080fd5b506100ec600480360360208110156101dc57600080fd5b5035600160a060020a0316610a67565b600254604080517f0c3504c9000000000000000000000000000000000000000000000000000000008152600160a060020a03848116600483015291516000939290921691630c3504c99160248082019260209290919082900301818787803b15801561025757600080fd5b505af115801561026b573d6000803e3d6000fd5b505050506040513d602081101561028157600080fd5b505192915050565b610292336101ec565b151561029d57600080fd5b600354600654604080517fbeabacc8000000000000000000000000000000000000000000000000000000008152306004820152600160a060020a03868116602483015260448201869052915193821693919092169163beabacc89160648083019260209291908290030181600087803b15801561031957600080fd5b505af115801561032d573d6000803e3d6000fd5b505050506040513d602081101561034357600080fd5b5050505050565b610353336101ec565b151561035e57600080fd5b6002805473ffffffffffffffffffffffffffffffffffffffff1916600160a060020a0392909216919091179055565b600254604080517f9026dee8000000000000000000000000000000000000000000000000000000008152600160a060020a03848116600483015291516000939290921691639026dee89160248082019260209290919082900301818787803b15801561025757600080fd5b336104028161038d565b1561040c57600080fd5b600354604080517ffd255683000000000000000000000000000000000000000000000000000000008152602060048201819052601560248301527f736372756d696e766573742f7573657273746f7279000000000000000000000060448301529151600160a060020a0390931692839263fd2556839260648082019391829003018186803b15801561049d57600080fd5b505afa1580156104b1573d6000803e3d6000fd5b505050506040513d60208110156104c757600080fd5b50516004805473ffffffffffffffffffffffffffffffffffffffff1916600160a060020a03928316178155604080517ffd2556830000000000000000000000000000000000000000000000000000000081526020928101839052601360248201527f736372756d696e766573742f70726f6a65637400000000000000000000000000604482015290519284169263fd25568392606480840193919291829003018186803b15801561057757600080fd5b505afa15801561058b573d6000803e3d6000fd5b505050506040513d60208110156105a157600080fd5b50516005805473ffffffffffffffffffffffffffffffffffffffff1916600160a060020a03928316179055604080517ffd255683000000000000000000000000000000000000000000000000000000008152602060048201819052600860248301527f414e47746f6b656e000000000000000000000000000000000000000000000000604483015291519284169263fd25568392606480840193919291829003018186803b15801561065257600080fd5b505afa158015610666573d6000803e3d6000fd5b505050506040513d602081101561067c57600080fd5b50516006805473ffffffffffffffffffffffffffffffffffffffff1916600160a060020a039092169190911790555050565b600254604080517fa1d658b1000000000000000000000000000000000000000000000000000000008152600160a060020a0384811660048301529151600093929092169163a1d658b19160248082019260209290919082900301818787803b15801561025757600080fd5b6000600460009054906101000a9004600160a060020a031690506000806000806000806000806000806000808c600160a060020a03166362e436788f6040518263ffffffff1660e060020a028152600401808281526020019150506101806040518083038186803b15801561078d57600080fd5b505afa1580156107a1573d6000803e3d6000fd5b505050506040513d6101808110156107b857600080fd5b810190808051906020019092919080519060200190929190805190602001909291908051906020019092919080519060200190929190805190602001909291908051906020019092919080519060200190929190805190602001909291908051906020019092919080519060200190929190805190602001909291905050509b509b509b509b509b509b509b509b509b509b509b509b506000600560009054906101000a9004600160a060020a03169050600081600160a060020a031663c5ca32138f6040518263ffffffff1660e060020a0281526004018082815260200191505060206040518083038186803b1580156108b257600080fd5b505afa1580156108c6573d6000803e3d6000fd5b505050506040513d60208110156108dc57600080fd5b5051604080517fcc46e7ca000000000000000000000000000000000000000000000000000000008152600160a060020a0380841660048301529151929350600092839283928392839289169163cc46e7ca9160248083019260a0929190829003018186803b15801561094d57600080fd5b505afa158015610961573d6000803e3d6000fd5b505050506040513d60a081101561097757600080fd5b50805160208201516040830151606084015160809094015192985090965094509092509050600160a060020a03841633146109b157600080fd5b600654604080517fbeabacc8000000000000000000000000000000000000000000000000000000008152306004820152336024820152604481018e90529051600160a060020a039092169163beabacc8916064808201926020929091908290030181600087803b158015610a2457600080fd5b505af1158015610a38573d6000803e3d6000fd5b505050506040513d6020811015610a4e57600080fd5b5050505050505050505050505050505050505050505050565b33610a718161038d565b15610a7b57600080fd5b6003805473ffffffffffffffffffffffffffffffffffffffff1916600160a060020a038481169190911791829055604080517f413c6d1300000000000000000000000000000000000000000000000000000000815230602482015260048101829052602660448201527f746f6b656e73616c652f696d706c656d656e746174696f6e2f626173655f776960648201527f7468647261770000000000000000000000000000000000000000000000000000608482015290519290911691829163413c6d139160a480830192600092919082900301818387803b158015610b5f57600080fd5b505af1158015610b73573d6000803e3d6000fd5b5050505050505056fea165627a7a72305820ac9b3238575836431b9877657e083f1a27a03703e53cddfd90bde1be6a95a04c0029",
  "source": "pragma solidity ^0.5.0;\n//import \"./interface/withdraw_interface.sol\";\n// import \"./implementation/base_withdraw.sol\";\nimport '../admin/interface/administratable.sol';\nimport '../scruminvest/userstory.sol';\nimport '../scruminvest/project.sol';\n\ncontract withdraw is  Administratable { //withdraw_interface\n\n\n    /*\n        withdraw_interface private _withdraw;\n\n    constructor () public  {\n       _withdraw = new base_withdraw();\n    }\n\n    function team_withdraw(bytes32 UserStoryAddr) payable public\n    {\n       _withdraw = new base_withdraw();\n       _withdraw.team_withdraw(UserStoryAddr);\n    }\n\n    function sos_withdraw (address beneficiar, uint256 amount) payable public onlySuperAdmins (msg.sender)\n    {\n       _withdraw = new base_withdraw();\n\n        _withdraw.sos_withdraw (beneficiar, amount) ;\n    }\n\n*/\n\n    address External_Storage_addr;\n     address Userstory_smart_contr_addr;\n     address  Project_smart_contr_addr;\n     address  ANGtokenaddr;\n\n\n    function team_withdraw(bytes32 UserStoryAddr) payable public\n    {\n\n        userstory userstorycurrent =  userstory(Userstory_smart_contr_addr);\n\n        ( uint256  project_ID, //+\n          uint256   User_story_number,\n          bytes32   DFS_Hash,\n          bytes4   DFS_type,\n          uint256  Story_Amount_ANG,\n          uint256   Story_Amount_Tokens,\n          uint256  start_date,\n          uint256  duration,\n          uint256   sum_raised, //+\n          uint256  sum_accepted,\n          uint256  Ask_end_from_project,\n          uint256  finished  ) = userstorycurrent.UserStories(UserStoryAddr);\n\n        project Projectcontractcurrent =  project(Project_smart_contr_addr);\n        address   ProjecttokenAddr = Projectcontractcurrent.ProjectList(project_ID);\n        (uint256   project_ID_pr,\n        address  project_owner_address, //+\n        address   _DARF_system_address,\n        bytes32  DFS_Project_describe,\n        bytes4   DFS_type_pr) = Projectcontractcurrent.Projects(ProjecttokenAddr);\n        require((project_owner_address == msg.sender)) ;  // only team lead can withdraw\n            token(ANGtokenaddr).transfer(address(this), msg.sender, sum_raised);\n    }\n\n   function sos_withdraw (address beneficiar, uint256 amount) payable public  onlyOwner\n   {\n       ExternalStorage ES = ExternalStorage(External_Storage_addr);\n       token(ANGtokenaddr).transfer(address(this), beneficiar, amount);\n   }\n\n\n       function _initExternalStorage(address Externalstorageaddr) public onlyAdmins (msg.sender) {\n\n        External_Storage_addr = Externalstorageaddr;\n        ExternalStorage ES = ExternalStorage(External_Storage_addr);\n        ES.setAddressValue(\"tokensale/implementation/base_withdraw\", address(this));\n        load_conditions_ES;\n    }\n\n     function load_conditions_ES () public  onlyAdmins (msg.sender) { //when something changes\n        ExternalStorage ES = ExternalStorage(External_Storage_addr);\n        Userstory_smart_contr_addr =ES.getAddressValue(\"scruminvest/userstory\");\n        Project_smart_contr_addr =ES.getAddressValue(\"scruminvest/project\");\n        ANGtokenaddr = ES.getAddressValue(\"ANGtoken\");\n\n        //Projectaddr = ES.getAddressValue(\"scruminvest/project\");\n        //KYC_threshold = ES.getAddressValue('KYC/KYC_threshold');\n    }\n\n\n}\n",
  "sourcePath": "/home/sergey/Documents/angels/2083nointerfaces/Angeles.VC-token-scrum-investing/contracts/tokensale/withdraw.sol",
  "compiler": {
    "name": "solc",
    "version": "0.5.0+commit.1d4f565a.Emscripten.clang"
  },
  "schemaVersion": "3.0.2",
  "updatedAt": "2019-03-30T13:34:15.414Z",
  "devdoc": {
    "methods": {}
  },
  "userdoc": {
    "methods": {}
  }
}