{
  "contractName": "withdraw",
  "abi": [
    {
      "constant": false,
      "inputs": [
        {
          "name": "_sender_address",
          "type": "address"
        }
      ],
      "name": "check_owner",
      "outputs": [
        {
          "name": "",
          "type": "bool"
        }
      ],
      "payable": false,
      "stateMutability": "nonpayable",
      "type": "function"
    },
    {
      "constant": false,
      "inputs": [
        {
          "name": "newOwner",
          "type": "address"
        }
      ],
      "name": "setOwner",
      "outputs": [],
      "payable": false,
      "stateMutability": "nonpayable",
      "type": "function"
    },
    {
      "constant": false,
      "inputs": [
        {
          "name": "BasicAdministratableaddr",
          "type": "address"
        }
      ],
      "name": "_initAdministratable",
      "outputs": [],
      "payable": false,
      "stateMutability": "nonpayable",
      "type": "function"
    },
    {
      "constant": false,
      "inputs": [
        {
          "name": "msgSender",
          "type": "address"
        }
      ],
      "name": "checkAdmin",
      "outputs": [
        {
          "name": "",
          "type": "bool"
        }
      ],
      "payable": false,
      "stateMutability": "nonpayable",
      "type": "function"
    },
    {
      "constant": false,
      "inputs": [
        {
          "name": "msgSender",
          "type": "address"
        }
      ],
      "name": "checkSuperAdmin",
      "outputs": [
        {
          "name": "",
          "type": "bool"
        }
      ],
      "payable": false,
      "stateMutability": "nonpayable",
      "type": "function"
    },
    {
      "constant": false,
      "inputs": [
        {
          "name": "UserStoryAddr",
          "type": "bytes32"
        }
      ],
      "name": "team_withdraw",
      "outputs": [],
      "payable": true,
      "stateMutability": "payable",
      "type": "function"
    },
    {
      "constant": false,
      "inputs": [
        {
          "name": "beneficiar",
          "type": "address"
        },
        {
          "name": "amount",
          "type": "uint256"
        }
      ],
      "name": "sos_withdraw",
      "outputs": [],
      "payable": true,
      "stateMutability": "payable",
      "type": "function"
    },
    {
      "constant": false,
      "inputs": [
        {
          "name": "Externalstorageaddr",
          "type": "address"
        }
      ],
      "name": "_initExternalStorage",
      "outputs": [],
      "payable": false,
      "stateMutability": "nonpayable",
      "type": "function"
    },
    {
      "constant": false,
      "inputs": [],
      "name": "load_conditions_ES",
      "outputs": [],
      "payable": false,
      "stateMutability": "nonpayable",
      "type": "function"
    }
  ],
  "bytecode": "0x608060405234801561001057600080fd5b50610b25806100206000396000f3fe6080604052600436106100985763ffffffff7c01000000000000000000000000000000000000000000000000000000006000350416630c3504c9811461009d57806313af4035146100e4578063298ad9871461011957806342716730146101455780639026dee8146101785780639df152dc146101ab578063a1d658b1146101c0578063bd4f3611146101f3578063c8bc040714610210575b600080fd5b3480156100a957600080fd5b506100d0600480360360208110156100c057600080fd5b5035600160a060020a0316610243565b604080519115158252519081900360200190f35b3480156100f057600080fd5b506101176004803603602081101561010757600080fd5b5035600160a060020a03166102e0565b005b6101176004803603604081101561012f57600080fd5b50600160a060020a038135169060200135610326565b34801561015157600080fd5b506101176004803603602081101561016857600080fd5b5035600160a060020a03166103e3565b34801561018457600080fd5b506100d06004803603602081101561019b57600080fd5b5035600160a060020a0316610429565b3480156101b757600080fd5b50610117610494565b3480156101cc57600080fd5b506100d0600480360360208110156101e357600080fd5b5035600160a060020a031661074a565b6101176004803603602081101561020957600080fd5b50356107b5565b34801561021c57600080fd5b506101176004803603602081101561023357600080fd5b5035600160a060020a0316610889565b600154604080517f0c3504c9000000000000000000000000000000000000000000000000000000008152600160a060020a03848116600483015291516000939290921691630c3504c99160248082019260209290919082900301818787803b1580156102ae57600080fd5b505af11580156102c2573d6000803e3d6000fd5b505050506040513d60208110156102d857600080fd5b505192915050565b600254600160a060020a031633146102f757600080fd5b6002805473ffffffffffffffffffffffffffffffffffffffff1916600160a060020a0392909216919091179055565b61032f33610243565b151561033a57600080fd5b600654604080517fbeabacc8000000000000000000000000000000000000000000000000000000008152306004820152600160a060020a0385811660248301526044820185905291519190921691829163beabacc8916064808201926020929091908290030181600087803b1580156103b257600080fd5b505af11580156103c6573d6000803e3d6000fd5b505050506040513d60208110156103dc57600080fd5b5050505050565b600254600160a060020a031633146103fa57600080fd5b6001805473ffffffffffffffffffffffffffffffffffffffff1916600160a060020a0392909216919091179055565b600154604080517f9026dee8000000000000000000000000000000000000000000000000000000008152600160a060020a03848116600483015291516000939290921691639026dee89160248082019260209290919082900301818787803b1580156102ae57600080fd5b3361049e81610429565b156104a857600080fd5b600354604080517ffd255683000000000000000000000000000000000000000000000000000000008152602060048201819052601560248301527f736372756d696e766573742f7573657273746f7279000000000000000000000060448301529151600160a060020a0390931692839263fd2556839260648082019391829003018186803b15801561053957600080fd5b505afa15801561054d573d6000803e3d6000fd5b505050506040513d602081101561056357600080fd5b50516004805473ffffffffffffffffffffffffffffffffffffffff1916600160a060020a03928316178155604080517ffd2556830000000000000000000000000000000000000000000000000000000081526020928101839052601360248201527f736372756d696e766573742f70726f6a65637400000000000000000000000000604482015290519284169263fd25568392606480840193919291829003018186803b15801561061357600080fd5b505afa158015610627573d6000803e3d6000fd5b505050506040513d602081101561063d57600080fd5b50516005805473ffffffffffffffffffffffffffffffffffffffff1916600160a060020a03928316179055604080517ffd255683000000000000000000000000000000000000000000000000000000008152602060048201819052600860248301527f414e47746f6b656e000000000000000000000000000000000000000000000000604483015291519284169263fd25568392606480840193919291829003018186803b1580156106ee57600080fd5b505afa158015610702573d6000803e3d6000fd5b505050506040513d602081101561071857600080fd5b50516006805473ffffffffffffffffffffffffffffffffffffffff1916600160a060020a039092169190911790555050565b600154604080517fa1d658b1000000000000000000000000000000000000000000000000000000008152600160a060020a0384811660048301529151600093929092169163a1d658b19160248082019260209290919082900301818787803b1580156102ae57600080fd5b6000806107c18361099e565b9092509050336107d083610a52565b600160a060020a0316146107e357600080fd5b600654604080517fbeabacc8000000000000000000000000000000000000000000000000000000008152306004820152336024820152604481018490529051600160a060020a0390921691829163beabacc89160648083019260209291908290030181600087803b15801561085757600080fd5b505af115801561086b573d6000803e3d6000fd5b505050506040513d602081101561088157600080fd5b505050505050565b3361089381610429565b1561089d57600080fd5b6003805473ffffffffffffffffffffffffffffffffffffffff1916600160a060020a038481169190911791829055604080517f413c6d1300000000000000000000000000000000000000000000000000000000815230602482015260048101829052602160448201527f746f6b656e73616c652f696d706c656d656e746174696f6e2f7769746864726160648201527f7700000000000000000000000000000000000000000000000000000000000000608482015290519290911691829163413c6d139160a480830192600092919082900301818387803b15801561098157600080fd5b505af1158015610995573d6000803e3d6000fd5b50505050505050565b60048054604080517f4445a168000000000000000000000000000000000000000000000000000000008152928301849052516000928392600160a060020a0316918391829182918591634445a168916024808201926101809290919082900301818787803b158015610a0f57600080fd5b505af1158015610a23573d6000803e3d6000fd5b505050506040513d610180811015610a3a57600080fd5b50805161010090910151909650945050505050915091565b600554604080517fe4caec55000000000000000000000000000000000000000000000000000000008152600481018490529051600092600160a060020a031691839182918291859163e4caec559160248083019260c092919082900301818787803b158015610ac057600080fd5b505af1158015610ad4573d6000803e3d6000fd5b505050506040513d60c0811015610aea57600080fd5b5060400151969550505050505056fea165627a7a72305820f1c5838713ce966672b0396f5266c285dbaa4f7b4c05b98266f3ecb54e714ad00029",
  "source": "pragma solidity ^0.5.0;\nimport '../admin/interface/administratable.sol';\nimport '../scruminvest/interface/userstory_inteface.sol';\nimport '../scruminvest/interface/project_interface.sol';\nimport '../admin/interface/ExternalStorage.sol';\nimport '../tokens/interface/tokenInterface.sol';\n\ncontract withdraw is  Administratable { //withdraw_interface\n\n\n    address External_Storage_addr;\n     address Userstory_smart_contr_addr;\n     address  Project_smart_contr_addr;\n     address  ANGtokenaddr;\n\n\n    function getUserStoryData(bytes32 UserStoryAddr) internal returns (uint256, uint256)\n    {\n          userstory_inteface userstorycurrent =  userstory_inteface(Userstory_smart_contr_addr);\n\n        ( uint256  project_ID, //+\n          ,//uint256   User_story_number,\n          ,//bytes32   DFS_Hash,\n          ,//bytes4   DFS_type,\n          ,//uint256  Story_Amount_ANG,\n          ,//uint256   Story_Amount_Tokens,\n          ,//uint256  start_date,\n          ,//uint256  duration,\n          uint256   sum_raised, //+\n          ,//uint256  sum_accepted,\n          ,//uint256  Ask_end_from_project,\n          uint256  finished  ) = userstorycurrent.give_userstory_data(UserStoryAddr);\n        return (project_ID,sum_raised );\n    }\n    function getProjectOwnerAddress(uint256 project_ID) internal returns (address)\n    {\n        project_interface Projectcontractcurrent =  project_interface(Project_smart_contr_addr);\n        //address   ProjecttokenAddr = Projectcontractcurrent.ProjectList(project_ID);\n        (address ProjecttokenAddr,\n        ,//uint256   project_ID_pr,\n        address  project_owner_address, //+\n        ,//address   _DARF_system_address,\n        ,//bytes32  DFS_Project_describe,\n        bytes4   DFS_type_pr) = Projectcontractcurrent.give_project_data(project_ID);\n\n        return project_owner_address;\n    }\n\n\n    function team_withdraw(bytes32 UserStoryAddr) payable public\n    {\n\n\n        (uint256 project_ID,\n        uint256 sum_raised) =  getUserStoryData( UserStoryAddr);\n\n        require((getProjectOwnerAddress(project_ID) == msg.sender)) ;  // only team lead can withdraw\n        tokenInterface tokencurrent = tokenInterface(ANGtokenaddr);\n        tokencurrent.transfer(address(this), msg.sender, sum_raised);\n    }\n\n   function sos_withdraw (address beneficiar, uint256 amount) payable public  onlyOwner\n   {\n\n       tokenInterface tokencurrent = tokenInterface(ANGtokenaddr);\n       tokencurrent.transfer(address(this), beneficiar, amount);\n   }\n\n\n       function _initExternalStorage(address Externalstorageaddr) public onlyAdmins (msg.sender) {\n\n        External_Storage_addr = Externalstorageaddr;\n        ExternalStorage ES = ExternalStorage(External_Storage_addr);\n        ES.setAddressValue(\"tokensale/implementation/withdraw\", address(this));\n        load_conditions_ES;\n    }\n\n     function load_conditions_ES () public  onlyAdmins (msg.sender) { //when something changes\n        ExternalStorage ES = ExternalStorage(External_Storage_addr);\n        Userstory_smart_contr_addr =ES.getAddressValue(\"scruminvest/userstory\");\n        Project_smart_contr_addr =ES.getAddressValue(\"scruminvest/project\");\n        ANGtokenaddr = ES.getAddressValue(\"ANGtoken\");\n\n        //Projectaddr = ES.getAddressValue(\"scruminvest/project\");\n        //KYC_threshold = ES.getAddressValue('KYC/KYC_threshold');\n    }\n\n\n}\n",
  "sourcePath": "/home/sergey/Documents/angels/2083nointerfaces/Angeles.VC-token-scrum-investing/contracts/tokensale/withdraw.sol",
  "compiler": {
    "name": "solc",
    "version": "0.5.0+commit.1d4f565a.Emscripten.clang"
  },
  "schemaVersion": "3.0.2",
  "updatedAt": "2019-04-03T12:24:01.882Z",
  "devdoc": {
    "methods": {}
  },
  "userdoc": {
    "methods": {}
  }
}